:100000000C9462000C948A000C948A000C948A0070
:100010000C948A000C948A000C948A000C948A0038
:100020000C948A000C948A000C948A000C948A0028
:100030000C948A000C948A000C948A000C948A0018
:100040000C947C1D0C948A000C944A1D0C94241D65
:100050000C948A000C948A000C948A000C948A00F8
:100060000C948A000C948A000000000023002600F3
:10007000290000000008000201000003040700003E
:1000800000000000000000000000250028002B00F8
:1000900000000000240027002A00040404040404D3
:1000A0000404020202020202030303030303010227
:1000B00004081020408001020408102001020408F6
:1000C0001020102211241FBECFEFD8E0DEBFCDBF1D
:1000D00011E0A0E0B1E0E8E2F0E502C005900D9289
:1000E000A037B107D9F722E0A0E7B1E001C01D9227
:1000F000A333B207E1F710E0C2E6D0E004C02197D5
:10010000FE010E94E623C136D107C9F70E940B1EEB
:100110000C9412280C940000E2E9F1E0A089B18966
:1001200082E08C93A485B5851C92A685B7858FEC5B
:100130008C93108EA489B58986E08C93A289B389AB
:100140008C9180618C93A289B3898C9188608C9307
:10015000A289B3898C9180688C930288F389E02D01
:1001600080818F7D80830895AF92BF92CF92DF927E
:10017000EF92FF920F931F93CF93DF936C017B015C
:100180008B01040F151FEB015E01AE18BF08C017ED
:10019000D10759F06991D601ED91FC910190F08160
:1001A000E02DC6010995892B79F7C501DF91CF9123
:1001B0001F910F91FF90EF90DF90CF90BF90AF9085
:1001C0000895FC01538D448D252F30E0842F90E05D
:1001D000821B930B541710F0CF9608950197089542
:1001E000FC01918D828D981761F0A28DAE0FBF2F0B
:1001F000B11D5D968C91928D9F5F9F73928F90E061
:1002000008958FEF9FEF0895FC01918D828D9817CF
:1002100031F0828DE80FF11D858D90E008958FEF0C
:100220009FEF0895FC01918D228D892F90E0805CD5
:100230009F4F821B91098F739927089582E991E05E
:100240000E94120121E0892B09F420E0822F0895F9
:1002500080E090E0892B29F00E941E0181110C940E
:1002600000000895FC01A48DA80FB92FB11DA35A59
:10027000BF4F2C91848D90E001968F739927848FC6
:10028000A689B7892C93A089B1898C9183708064E9
:100290008C93938D848D981306C00288F389E02D8A
:1002A00080818F7D80830895EF92FF920F931F933B
:1002B000CF93DF93EC0181E0888F9B8D8C8D981319
:1002C0001AC0E889F989808185FF15C09FB7F89425
:1002D000EE89FF896083E889F98980818370806471
:1002E00080839FBF81E090E0DF91CF911F910F91BC
:1002F000FF90EF900895F62E0B8D10E00F5F1F4FCB
:100300000F731127E02E8C8D8E110CC00FB607FCD9
:10031000FACFE889F989808185FFF5CFCE010E9467
:100320003201F1CFEB8DEC0FFD2FF11DE35AFF4FA2
:10033000F0829FB7F8940B8FEA89FB8980818062F5
:10034000CFCFCF93DF93EC01888D8823B9F0AA89B2
:10035000BB89E889F9898C9185FD03C0808186FD80
:100360000DC00FB607FCF7CF8C9185FFF2CF8081CF
:1003700085FFEDCFCE010E943201E9CFDF91CF9111
:10038000089590E0FC01EE58FF4F2491FC01E255E6
:10039000FF4F3491FC01E656FF4FE491EE23C9F084
:1003A000222339F0233001F1A8F4213019F1223051
:1003B00029F1F0E0EE0FFF1FEA57FF4FA591B4912E
:1003C0008FB7F894EC91611126C030953E233C9391
:1003D0008FBF08952730A9F02830C9F0243049F79D
:1003E000809180008F7D03C0809180008F77809303
:1003F0008000DFCF84B58F7784BDDBCF84B58F7D60
:10040000FBCF8091B0008F778093B000D2CF8091E6
:10041000B0008F7DF9CF3E2BDACF3FB7F8948091B3
:100420007C0190917D01A0917E01B0917F0126B564
:10043000A89B05C02F3F19F00196A11DB11D3FBF1C
:10044000BA2FA92F982F8827BC01CD01620F711DEB
:10045000811D911D42E0660F771F881F991F4A95E5
:10046000D1F70895FC01892B91F08285882379F0DA
:1004700080819181A281B381892B8A2B8B2B39F0CA
:1004800081E020853185232B19F080E0089581E0FB
:100490000895FC01892B91F08285882379F0808171
:1004A0009181A281B381892B8A2B8B2B39F081E03A
:1004B00020853185232B19F080E0089581E008958F
:1004C000FC01892B91F08285882379F080819181CC
:1004D000A281B381892B8A2B8B2B39F081E0208577
:1004E0003185232B19F080E0089581E00895FC0107
:1004F000892B91F08285882379F080819181A28176
:10050000B381892B8A2B8B2B39F081E020853185B3
:10051000232B19F080E0089581E00895FC01892BD8
:1005200091F08285882379F080819181A281B381C5
:10053000892B8A2B8B2B39F081E020853185232B69
:1005400019F080E0089581E008950F931F93CF93F1
:10055000DF938C01EB01CB010E948E0281110CC054
:1005600088859985F80120813181820F931FDF9161
:10057000CF911F910F91089590E080E0F8CFCF9335
:10058000DF93FC01C085D185CE010E94320281112A
:1005900009C081E0488159816A817B81452B462BC6
:1005A000472B09F480E0DF91CF910895CF92DF923D
:1005B000EF92FF920F931F93CF93DF9300D0CDB7AD
:1005C000DEB78C017B01DC011A96CD90DC90C60170
:1005D0000E947702811146C0F8018281938126E151
:1005E000289FA001299F500D1124D60118960D9126
:1005F0001C91040F151FC8010E94BF02882311F12E
:10060000F801C084D184C6010E94320281112DC03C
:10061000D8012D913C91220F331FF60180859185E1
:10062000820F931F9801265F3F4FA801425F5F4FE3
:10063000DC01ED91FC910480F581E02DBE016F5F3E
:100640007F4F099589819A81F701918380830F906B
:100650000F90DF91CF911F910F91FF90EF90DF905E
:10066000CF90089510E000E0C6CF90E080E0DACFB0
:100670000F931F93CF93DF93EC01888599850E9498
:10068000490281110FC081E00C811D812E813F81C3
:10069000488159816A817B8104171507260737072E
:1006A00009F080E0DF91CF911F910F910895FF92A3
:1006B0000F931F93CF93DF938C01FC01C085D185ED
:1006C000CE010E944902F82E811130C0F80120812C
:1006D00031814AE0429FC001439F900D112408845C
:1006E000D985C02DC80FD91FC8010E9438038111B8
:1006F00020C0F1101EC0F8014481558166817781C8
:1007000080819181A281B381481B590B6A0B7B0BBD
:100710002AE0249FC001259F900D11248C0F9D1F5E
:10072000DF91CF911F910F91FF900895D0E0C0E02D
:10073000DBCF40E050E0BA01EBCF0F931F93CF9394
:10074000DF938C01FC01C085D185CE010E9460023F
:10075000811112C0F801808191814AE0489F900187
:10076000499F300D112488859985820F931FDF9151
:10077000CF911F910F91089590E080E0F8CF0F93F3
:100780001F93CF93DF938C01FC01C085D185CE01EF
:100790000E947702811112C0F8018081918146E1A7
:1007A000489F9001499F300D112488859985820FBB
:1007B000931FDF91CF911F910F91089590E080E0FA
:1007C000F8CFDC011896ED91FC9119973097B1F0B4
:1007D0008285882399F04081518162817381452B04
:1007E000462B472B59F080859185009749F02D9134
:1007F0003C91220F331F820F931F089590E080E0F9
:100800000895DC011896ED91FC9119973097D1F07D
:1008100082858823B9F04081518162817381452BA3
:10082000462B472B79F080859185009769F04D9193
:100830005C916FE0649F9001659F300D1124820FE1
:10084000931F089590E080E00895EF92FF920F9338
:100850001F93CF93DF9300D0CDB7DEB78C010E94FA
:10086000BF028823F1F0D8011896ED90FC90C701E3
:100870000E943202811120C0F80120813181220FB3
:10088000331FD70118968D919C91820F931FDC0125
:10089000ED91FC910480F581E02DBE016F5F7F4FEB
:1008A000099589819A810F900F90DF91CF911F91C7
:1008B0000F91FF90EF90089590E080E0E8CFCF9304
:1008C000DF93EB0102960E94250499838883DF91D0
:1008D000CF9108950E949D03FC018081918108952C
:1008E000CF93DF93EC010E949D03FC0184819581ED
:1008F000009729F4CE01DF91CF910C946A04DF9127
:10090000CF910895DC011896ED91FC9119973097DD
:10091000D1F082858823B9F0408151816281738151
:10092000452B462B472B79F080859185009769F000
:100930004D915C916AE0649F9001659F300D112498
:10094000820F931F089590E080E00895DC011896CF
:10095000ED91FC9119973097D1F082858823B9F0F9
:100960004081518162817381452B462B472B79F061
:1009700080859185009769F04D915C9165E0649F59
:100980009001659F300D1124820F931F089590E010
:1009900080E00895FC01608571850C94A5020E9499
:1009A0009D03FC01808191810895CF93DF93EC0139
:1009B0000E949D03FC0184819581009729F4CE015A
:1009C000DF91CF910C94CF04DF91CF910895CF9315
:1009D000DF93EC01888599850E94600281110DC02A
:1009E000CE010E949D0321E0FC0186819781A085B4
:1009F000B185892B8A2B8B2B09F020E0822FDF9188
:100A0000CF9108950F931F93CF93DF938C01EB0148
:100A10000E94E704282F81110BC0209751F0C801D4
:100A20000E949D0321E0488159814817590709F028
:100A300020E0822FDF91CF911F910F9108950F93A6
:100A40001F93CF93DF93EC010E94E704811121C033
:100A5000CE010E949D038C01DC011296ED91FC9168
:100A6000309791F4CE010E947004F8019383828341
:100A7000CE010E949D03DC0112968D919C91DF9125
:100A8000CF911F910F91089584819581009769F707
:100A9000E9CF90E080E0F3CF0F931F93CF93DF93E4
:100AA000EC010E94E70481111AC0CE010E949D034F
:100AB0008C01FC0182819381892B31F4CE010E944B
:100AC0006A04F80193838283CE010E949D03FC0196
:100AD00082819381DF91CF911F910F91089590E0D2
:100AE00080E0F8CF0F931F93CF93DF93EC018885BD
:100AF00099850E948E02811111C06C817D818E8149
:100B00009F81088119812A813B81601B710B820BB7
:100B1000930BDF91CF911F910F91089560E070E0EA
:100B2000CB01F7CF8F929F92AF92BF92CF92DF927D
:100B3000EF92FF92CF93DF93EC016A017B010E9459
:100B400072054B015C01CE010E94CA04C814D9048D
:100B5000EA04FB0410F48C0D9D1DDF91CF91FF90F2
:100B6000EF90DF90CF90BF90AF909F908F900895BF
:100B7000CF93DF93EC010E9472056230710581050D
:100B8000910528F0CE01DF91CF910C94CA0490E03A
:100B900080E0DF91CF9108950E9472056230710567
:100BA0008105910528F06150710981099109089525
:100BB00060E070E0CB0108950F931F93CF93DF9314
:100BC000DB012D913C91232B41F58B01EC018CE055
:100BD00090E00E94F823FC018CE0DF011D928A95D1
:100BE000E9F7D801ED93FC93188219821A821B82CF
:100BF0001C821D821E821F8281E090E0A0E0B0E096
:100C000080839183A283B38385E0828781E090E033
:100C1000DF91CF911F910F9108958FEF9FEFF8CF44
:100C20000F931F93CF93DF93DB012D913C91232BE7
:100C300041F58B01EC018CE090E00E94F823FC016F
:100C40008CE0DF011D928A95E9F7D801ED93FC93C2
:100C5000188219821A821B821C821D821E821F82A8
:100C600081E090E0A0E0B0E080839183A283B38331
:100C700085E0828781E090E0DF91CF911F910F9115
:100C800008958FEF9FEFF8CF0F931F93CF93DF93CC
:100C9000DB012D913C91232B41F58B01EC018CE084
:100CA00090E00E94F823FC018CE0DF011D928A9500
:100CB000E9F7D801ED93FC93188219821A821B82FE
:100CC0001C821D821E821F8281E090E0A0E0B0E0C5
:100CD00080839183A283B38385E0828781E090E063
:100CE000DF91CF911F910F9108958FEF9FEFF8CF74
:100CF000CF92DF92EF92FF920F931F93CF93DF93E8
:100D0000DB01ED91FC91EF2B91F569017A018B01EB
:100D1000EC018CE090E00E94F823FC018CE0DF0104
:100D20001D928A95E9F7D801ED93FC9318821982F8
:100D30001A821B82CC82DD82EE82FF8281E090E00B
:100D4000A0E0B0E080839183A283B383C482D58284
:100D5000E682F78285E0828781E090E0DF91CF91A3
:100D60001F910F91FF90EF90DF90CF9008958FEF3C
:100D70009FEFF4CF8F929F92AF92BF92CF92DF926C
:100D8000EF92FF920F931F93CF93DF93DB01ED91CF
:100D9000FC91EF2B09F04EC0812C912C54018394CF
:100DA000211531054105510511F049015A0169012B
:100DB0007A018B01EC018CE090E00E94F823FC01A9
:100DC0008CE0DF011D928A95E9F7D801ED93FC9341
:100DD000188219821A821B82CC82DD82EE82FF8207
:100DE00081E090E0A0E0B0E080839183A283B383B0
:100DF000C482D582E682F78284E0828785E0B2E011
:100E00008B169104A104B10428F4CF010B969187AD
:100E1000808786E0828781E090E0DF91CF911F910B
:100E20000F91FF90EF90DF90CF90BF90AF909F9089
:100E30008F9008958FEF9FEFF0CF0F931F93CF9375
:100E4000DF93082F162FD42FC8E06D2F6170802FED
:100E50000E94C101D69561E0812F0E94C10160E02E
:100E6000812F0E94C101C15081F7DF91CF911F9165
:100E70000F9108950F931F93CF93DF93DC01ED91B2
:100E8000FC913097E9F14081518162817381411574
:100E9000510561057105A1F18C01DB01CA010197C2
:100EA000A109B10980839183A283B38341305105A5
:100EB00061057105D9F4F801C081D181209789F0CD
:100EC00088859985009769F02A85222351F020FDB5
:100ED0000E9494241A8619861886188219821A820A
:100EE0001B82D8018D919C910E949424F80111825B
:100EF000108281E090E0DF91CF911F910F910895D2
:100F00008FEF9FEFF8CF0F931F93CF93DF93EC01F9
:100F1000188219821A821B821C821D821E821F82E5
:100F20001986188608966115710531F4DF91CF9105
:100F30001F910F910C943A078B01BC01CE010E94C6
:100F40001006019671F0E885F98582858D7F82878C
:100F5000E885F985828581608287E885F985118732
:100F60000087DF91CF911F910F910895CF93DF9369
:100F7000EC018AE090E00E94F8232AE0FC01119243
:100F80002A95E9F7BC01CE01DF91CF910C9483073C
:100F90000F931F93CF93DF93DC01ED91FC9130977A
:100FA000E9F14081518162817381411551056105EB
:100FB0007105A1F18C01DB01CA010197A109B109F9
:100FC00080839183A283B38341305105610571050C
:100FD000D9F4F801C081D181209789F0888599855D
:100FE000009769F02A85222351F020FD0E94942465
:100FF0001A8619861886188219821A821B82D801CD
:101000008D919C910E949424F8011182108281E0BC
:1010100090E0DF91CF911F910F9108958FEF9FEF97
:10102000F8CF0F931F93CF93DF93EC0118821982AF
:101030001A821B821C821D821E821F8219861886BC
:1010400008966115710531F4DF91CF911F910F91D1
:101050000C94C8078B01BC01CE010E94DC050196EF
:1010600071F0E885F98582858D7F8287E885F9852D
:10107000828581608287E885F98511870087DF9105
:10108000CF911F910F9108950F931F93CF93DF93EB
:10109000EC018B01188219821A821B821C821D822C
:1010A0001E821F821986188608960E94C807D801DA
:1010B0001896ED91FC913097E1F082858823C9F074
:1010C00080819181A281B381892B8A2B8B2B89F01E
:1010D00080859185892B69F0F987E88780819181E6
:1010E000A281B3810196A11DB11D80839183A2834A
:1010F000B383F80180819181A281B3818883998330
:10110000AA83BB8384819581A681B7818C839D83CB
:10111000AE83BF83DF91CF911F910F910895CF933D
:10112000DF93EC0142960E94C807CE010896DF913A
:10113000CF910C94C80722E531E0FC012193319353
:10114000CF010C948F082EE331E0FC012193319301
:10115000CF010C948F0828E431E0FC0121933193F6
:10116000CF010C948F080F931F93CF93DF93DC0173
:10117000ED91FC913097E9F1408151816281738159
:101180004115510561057105A1F18C01DB01CA0111
:101190000197A109B10980839183A283B383413070
:1011A000510561057105D9F4F801C081D1812097FD
:1011B00089F088859985009769F02A85222351F066
:1011C00020FD0E9494241A86198618861882198296
:1011D0001A821B82D8018D919C910E949424F8015F
:1011E0001182108281E090E0DF91CF911F910F91E9
:1011F00008958FEF9FEFF8CF0F931F93CF93DF9357
:10120000DC01ED91FC913097E9F1408151816281DF
:1012100073814115510561057105A1F18C01DB0157
:10122000CA010197A109B10980839183A283B38385
:101230004130510561057105D9F4F801C081D181B2
:10124000209789F088859985009769F02A8522235F
:1012500051F020FD0E9494241A861986188618825F
:1012600019821A821B82D8018D919C910E9494242C
:10127000F8011182108281E090E0DF91CF911F91FF
:101280000F9108958FEF9FEFF8CFEF92FF920F939A
:101290001F93CF93DF93EC017B01188219821A828E
:1012A0001B821C821D821E821F8219861886089648
:1012B0000E94FC08F70100851185C8010E948E027A
:1012C00081110EC019870887F80180819181A28160
:1012D000B3810196A11DB11D80839183A283B38345
:1012E000F70180819181A281B38188839983AA8348
:1012F000BB8384819581A681B7818C839D83AE83D6
:10130000BF83DF91CF911F910F91FF90EF900895D0
:10131000CF92DF92EF92FF920F931F93CF93DF93C1
:10132000CDB7DEB72A970FB6F894DEBF0FBECDBF9C
:101330008C017B010E94E704B701882309F459C09E
:10134000CE0101960E94450980E190E00E94F823B9
:101350007C01DC0111961C921E9213961C921E9227
:10136000129715961C921E921497BE016F5F7F4FC5
:1013700006960E944509C8010E949D03FC01F18266
:10138000E082CE0109960E94FC08C8010E949D03DC
:10139000DC01ED91FC9191838083C8010E949D0343
:1013A0007C01C8010E94CF04F70195838483C801A2
:1013B0000E949D03DC0116964D915D916D917C918B
:1013C00019974F5F5F4F6F4F7F4FFC0146835783E5
:1013D000608771872A960FB6F894DEBF0FBECDBF27
:1013E000DF91CF911F910F91FF90EF90DF90CF9001
:1013F0000895CE0101960E94450980E190E00E9487
:10140000F8237C01DC0111961C921E9213961C920B
:101410001E92129715961C921E921497BE016F5F32
:101420007F4F06960E944509CE0109960E94FC084E
:10143000C8010E949D03F70191838083C8010E9427
:10144000D5046C01DC0114968D919C91892B31F4AB
:10145000C8010E949D03FC01D182C082D70112966F
:101460008D919C91892B31F4C8010E949D03FC0150
:10147000F582E482D7011596DC92CE921497F6019C
:10148000F382E28294CFFC01808191810C948809DF
:10149000CF92DF92EF92FF920F931F93CF93DF9340
:1014A000DB01ED91FC91EF2B51F4DF91CF911F9176
:1014B0000F91FF90EF90DF90CF900C94BA066901E6
:1014C0007A01EB018C01CB010E94FC08019669F4C2
:1014D000198218828FEF9FEFDF91CF911F910F91AB
:1014E000FF90EF90DF90CF900895A7019601BE0185
:1014F000C8010E94BA06019659F381E090E0ECCF52
:10150000AF92BF92CF92DF92EF92FF920F931F9311
:10151000CF93DF93EC016A017B015901BC01685F45
:101520007F4FC114D104E104F104A1F520E030E0C3
:10153000A9010E94480A0196B1F008851985D801D1
:101540001A968C911A9781FF19C0C8010B961996AB
:101550009C938E931897E885F9850084F185E02D9A
:10156000D5018C918083DF91CF911F910F91FF90D6
:10157000EF90DF90CF90BF90AF90089581E090E022
:101580000E94F823F5012081DC012C93F80191875A
:101590008087E9CFA70196010E94480A019671F061
:1015A00008851985D8011A968C911A9781FF1CC05D
:1015B000C8010B9619969C938E931897E884F9842A
:1015C000C7010E948E028111CECFCE010E9472050A
:1015D000D5011C91672B682B692B89F4CE010E94E1
:1015E000CA04FC011083BFCFC601009711F481E04B
:1015F00090E00E94F823F80191878087DFCFB70140
:10160000CE0104960E94A5027C01CE010E94CA046C
:101610008E159F0509F4A7CFDC011D93CD01F8CFEE
:10162000EF92FF920F931F93CF93DF93EC018B0107
:1016300008960E94FC08F801E084F184C7010E942A
:101640008E02811105C0F986E886F80111861086A0
:10165000F80180819181A281B38188839983AA83D3
:10166000BB8384819581A681B7818C839D83AE8362
:10167000BF83DF91CF911F910F91FF90EF9008955D
:10168000CF93DF93EC010E94A308CE01DF91CF91AD
:101690000C949424CF93DF93EC010E94AB08CE010D
:1016A000DF91CF910C949424CF93DF93EC010E94AF
:1016B0009B08CE01DF91CF910C949424EF92FF927E
:1016C0000F931F93CF93DF93DB01ED91FC91309744
:1016D00009F46DC080819181A281B3810097A10539
:1016E000B10509F464C08B01AC01BD014150510941
:1016F0006109710940835183628373830197A10556
:10170000B10509F040C0F801C081D1812097B1F145
:1017100088859985009791F12A85222379F120FF08
:1017200026C04C815D816E817F81452B462B472BE6
:10173000B1F1FC01329720813181220F331F820FDA
:10174000931F7C01F2E0EF1AF108288539852817EC
:10175000390751F0D701ED91FC910190F081E02D16
:10176000C7010995C701EDCFC7010E9494241A86CD
:1017700019861886188219821A821B82F8018081C4
:1017800091810E949424D8011D921C9281E090E0E6
:10179000DF91CF911F910F91FF90EF900895DC01A1
:1017A000ED91FC910280F381E02D0995E0CF8FEF60
:1017B0009FEFEECFEF92FF920F931F93CF93DF93A4
:1017C0004115510549F48FEF9FEFDF91CF911F91A4
:1017D0000F91FF90EF9008957A01EB018C018881C1
:1017E0009981892BC9F420E030E0A901C8010E9449
:1017F0007806019641F3E881F98182858D7F8287A1
:10180000E881F981828581608287E881F981F186AA
:10181000E08681E090E0D9CFC8010E945E0B01967E
:1018200019F419821882CFCF20E030E0A901BE015F
:10183000C8010E9478060196F1F6F3CFBC0128E1B9
:1018400031E0FC0121933193CF01665F7F4F0C940F
:101850005E0BCF93DF93EC010E941E0CCE01DF9153
:10186000CF910C949424EF92FF920F931F93CF93F8
:10187000DF93EC017B01BC01685F7F4F0E945E0B30
:10188000F70100851185C8010E94320281110EC046
:1018900019870887F80180819181A281B38101961F
:1018A000A11DB11D80839183A283B383F701808141
:1018B0009181A281B38188839983AA83BB83848128
:1018C0009581A681B7818C839D83AE83BF83DF9191
:1018D000CF911F910F91FF90EF9008950F931F9359
:1018E000CF93DF93EC018B01188219821A821B823D
:1018F0001C821D821E821F82198618860E94330C4C
:101900001A861B861C861D861E861F86188A198AC3
:101910001B8A1A8ACE0142960E94B308D8015296B9
:10192000ED91FC913097E1F082858823C9F08081A8
:101930009181A281B381892B8A2B8B2B89F08085A1
:101940009185892B69F0FB8BEA8B80819181A28143
:10195000B3810196A11DB11D80839183A283B383BE
:10196000F80182859385A485B5858A879B87AC8796
:10197000BD8786859785A089B1898E879F87A88B2B
:10198000B98BDF91CF911F910F910895CF93DF9382
:10199000EC0142960E94B308BE01685F7F4FCE0102
:1019A000DF91CF910C945E0BEF92FF920F931F93F8
:1019B000CF93DF93DB01ED91FC91309709F46DC07B
:1019C00080819181A281B3810097A105B10509F4BD
:1019D00064C08B01AC01BD0141505109610971091D
:1019E00040835183628373830197A105B10509F098
:1019F00040C0F801C081D1812097B1F188859985D7
:101A0000009791F12A85222379F120FF26C04C818D
:101A10005D816E817F81452B462B472BB1F1FC0107
:101A2000329720813181220F331F820F931F7C0157
:101A3000F2E0EF1AF108288539852817390751F0A7
:101A4000D701ED91FC910190F081E02DC70109953E
:101A5000C701EDCFC7010E9494241A861986188603
:101A6000188219821A821B82F801808191810E945A
:101A70009424D8011D921C9281E090E0DF91CF91D7
:101A80001F910F91FF90EF900895DC01ED91FC9173
:101A90000280F381E02D0995E0CF8FEF9FEFEECF2D
:101AA000EF92FF920F931F93CF93DF93EC018B0183
:101AB000BC01685F7F4F0E94D40CF801E084F18480
:101AC000C7010E943202811105C0F986E886F8013B
:101AD00011861086F80180819181A281B38188836B
:101AE0009983AA83BB8384819581A681B7818C83E6
:101AF0009D83AE83BF83DF91CF911F910F91FF90A4
:101B0000EF9008950F931F93CF93DF938B01FC0108
:101B10001082118212821382148215821682178219
:101B200011861086BC01685F7F4F0115110531F4E5
:101B3000DF91CF911F910F910C94D40CEC0120E018
:101B400030E0A9010E947806019671F0E885F985D8
:101B500082858D7F8287E885F9858285816082878D
:101B6000E885F98511870087DF91CF911F910F914B
:101B70000895EF92FF920F931F93CF93DF93DB01B2
:101B8000ED91FC91309709F46AC080819181A28126
:101B9000B3810097A105B10509F461C08B01AC01C7
:101BA000BD0141505109610971094083518362832C
:101BB00073830197A105B10509F045C0F801C08103
:101BC000D1812097D9F1E884F984E114F104B1F1CD
:101BD0008A85882399F180FF2AC08C819D81AE81FE
:101BE000BF81892B8A2B8B2BD9F0F701329780810B
:101BF00091814AE0489F9001499F300D11242E0D9C
:101C00003F1D488559857901FAE0EF1AF108C901AD
:101C100002974217530749F00E94FC089701F1CF41
:101C2000C70108960E94FC08C7010E9494241A86E6
:101C300019861886188219821A821B82D8018D9102
:101C40009C910E949424F8011182108281E090E01E
:101C5000DF91CF911F910F91FF90EF9008958FEF3B
:101C60009FEFF6CFEF92FF920F931F93CF93DF93E7
:101C7000DB01ED91FC91309709F470C08081918176
:101C8000A281B3810097A105B10509F467C08B015A
:101C9000AC01BD0141505109610971094083518373
:101CA000628373830197A105B10509F043C0F80170
:101CB000C081D1812097C9F1E884F984E114F1044D
:101CC000A1F18A85882389F180FF28C08C819D81BC
:101CD000AE81BF81892B8A2B8B2BC1F1F701329703
:101CE0002081318146E1429FC001439F900D112424
:101CF0008E0D9F1D288539857C01F6E1EF1AF108CC
:101D00002817390741F0BC016E507109C7010E94C4
:101D1000D40CC701EFCF02970E9494241A8619862B
:101D20001886188219821A821B82D8018D919C9183
:101D30000E949424F8011182108281E090E0DF91EA
:101D4000CF911F910F91FF90EF900895B701685FB9
:101D50007F4FC7010E94D40CC701DECF8FEF9FEFEA
:101D6000EECFBC01685F7F4F0C94320E22E231E06F
:101D7000FC0121933193CF010C94B10ECF93DF93EB
:101D8000EC010E94B60ECE01DF91CF910C94942409
:101D9000EF92FF920F931F93CF93DF93EC017B01A0
:101DA0000E94B10EF70100851185C8010E947702DB
:101DB00081110EC019870887F80180819181A28165
:101DC000B3810196A11DB11D80839183A283B3834A
:101DD000F70180819181A281B38188839983AA834D
:101DE000BB8384819581A681B7818C839D83AE83DB
:101DF000BF83DF91CF911F910F91FF90EF900895D6
:101E00000F931F93CF93DF938B01FC0110821182FC
:101E1000128213821482158216821782118610860E
:101E2000BC01685F7F4F0115110531F4DF91CF913F
:101E30001F910F910C94320EEC0120E030E0A901CB
:101E40000E947806019671F0E885F98582858D7F7C
:101E50008287E885F985828581608287E885F985B2
:101E600011870087DF91CF911F910F910895AF9255
:101E7000BF92CF92DF92EF92FF920F931F93CF9377
:101E8000DF938C01EB010E94E704811170C0209761
:101E900009F067C0C8010E947004EC01EA80FB8071
:101EA000CC80DD80C8010E949D03E114F10419F487
:101EB000FC01D582C482C8010E949D03C114D104D3
:101EC00019F4FC01F182E082C8010E949D035C01CB
:101ED000FC01828193818C179D0771F4C8010E94D7
:101EE000E704811109C0209709F04CC0C8010E9485
:101EF0006A04F50182839383C114D10419F0F601B9
:101F0000F382E282EA81FB81309711F0D582C482AC
:101F100019821882C8010E949D03FC0146815781E5
:101F20006085718541505109610971094683578364
:101F3000608771871B821A821D821C822097B9F0EC
:101F4000CE0106960E94C60CCE01DF91CF911F9163
:101F50000F91FF90EF90DF90CF90BF90AF900C94D7
:101F60009424BE01C8010E940205811197CFDF9120
:101F7000CF911F910F91FF90EF90DF90CF90BF9086
:101F8000AF900895E114F10409F4B0CFC701B1CFC7
:101F9000EF92FF920F931F93CF93DF93EC01E884AE
:101FA000F984C7010E9460028E01085F1F4F8111F2
:101FB00009C0F70180819181A281B3810297A105B7
:101FC000B10558F4CE010E94E704811106C070E00B
:101FD00060E0CE010E94370FF5CFC801DF91CF91AD
:101FE0001F910F91FF90EF900C943A07CF92DF92E0
:101FF000EF92FF920F931F93CF93DF93DB01ED914D
:10200000FC91309709F46BC080819181A281B381EA
:102010000097A105B10509F462C08B01AC01BD01B7
:10202000415051096109710940835183628373836F
:102030000197A105B10509F03FC0F801C081D18128
:102040002097A9F1C884D984C114D10481F18A856B
:10205000882369F180FF24C08C819D81AE81BF817E
:10206000892B8A2B8B2BB1F1F601329780819181DC
:102070002AE0289F7001299FF00C1124EC0CFD1C14
:10208000970188859985FAE0EF1AF108821793077E
:1020900021F0C7010E94C80FF3CF02970E94942439
:1020A0001A8619861886188219821A821B82D8010C
:1020B0008D919C910E949424F8011182108281E0FC
:1020C00090E0DF91CF911F910F91FF90EF90DF9003
:1020D000CF900895C6010E94C80FC601DFCF8FEFD1
:1020E0009FEFEFCFEF92FF920F931F93CF93DF936A
:1020F000DB01ED91FC91309709F470C080819181F2
:10210000A281B3810097A105B10509F467C08B01D5
:10211000AC01BD01415051096109710940835183EE
:10212000628373830197A105B10509F04BC0F801E3
:10213000C081D181209709F440C0E884F984E1147A
:10214000F104D9F18A858823C1F180FF2FC08C81E9
:102150009D81AE81BF81892B8A2B8B2BE9F0F70102
:102160003297808191814FE0489F9001499F300DC7
:1021700011242E0D3F1D488559857901FFE0EF1A86
:10218000F108C90102974217530771F0BC01089783
:102190000E94F60F9701EFCFB701635F7F4FC70132
:1021A00005960E94F60FC7010E9494241A8619868C
:1021B0001886188219821A821B82D8018D919C91EF
:1021C0000E949424F8011182108281E090E0DF9156
:1021D000CF911F910F91FF90EF9008958FEF9FEF98
:1021E000F6CFEF92FF920F931F93CF93DF938FE081
:1021F00090E00E94F823EC018FE0FE0111928A9595
:10220000E9F77E01F5E0EF0EF11C8AE090E00E9414
:10221000F8238C018AE090E00E94F8232AE0FC0178
:1022200011922A95E9F7BC01C8010E9483071D821B
:102230001E821F82188619861A861B861C861E8699
:102240001D86BE01635F7F4F0115110529F5C7018A
:102250000E94F60F109288011092890110928A0153
:1022600010928B0110928C0110928D0110928E01B0
:1022700010928F011092910110929001209719F500
:1022800060E971E088E891E0DF91CF911F910F91B3
:10229000FF90EF900C94721020E030E0A901C7018C
:1022A0000E9478060196B1F2ED85FE8582858D7FCC
:1022B0008287ED85FE85828581608287ED85FE853A
:1022C00011870087C7CF20E030E0A90160E971E005
:1022D00088E891E00E947806019651F0E091900123
:1022E000F091910182858D7F81608287D187C0873F
:1022F000DF91CF911F910F91FF90EF90089560E9CA
:1023000071E088E891E00C9472108F929F92AF92E6
:10231000BF92CF92DF92EF92FF920F931F93CF93D2
:10232000DF938C01FC01C085D185CE010E94600243
:102330005801F8E0AF0EB11C811109C08881998164
:10234000AA81BB810297A105B10508F068C0C80148
:102350000E94E704811163C0C8010E94D504EC010A
:10236000EA80FB80C8010E949D03CC80DD80E114DF
:10237000F10419F4FC01D582C482C8010E949D03B6
:10238000C114D10419F4FC01F182E082C8010E9459
:102390009D034C01FC0182819381C817D90769F420
:1023A000C8010E94E704811108C0209799F5C8016F
:1023B0000E94CF04F40182839383C114D10419F0E5
:1023C000F601F382E282EA81FB81309711F0D58237
:1023D000C48219821882C8010E949D03FC014681B3
:1023E00057816085718541505109610971094683A2
:1023F0005783608771871B821A821D821C822097F7
:1024000009F4A5CFCE010E960E94FC08CE010E94D1
:1024100094249DCFE114F10451F2C701CBCFC50143
:10242000DF91CF911F910F91FF90EF90DF90CF90B0
:10243000BF90AF909F908F900C943A077F928F92AD
:102440009F92AF92BF92CF92DF92EF92FF920F9343
:102450001F93CF93DF937C016B01EA0159017880D0
:1024600089809A800B811C81BD81FE81EF81272D9F
:10247000382D492D502F612F7B2F8F2F9E2FA5E3B5
:102480000E94EC23D1F1ABE30E94EC2329F0A0E001
:102490000E94EC2309F092C061E08CE00E94C1012F
:1024A00085E3888319821A821B821C821D821E8208
:1024B0001F8210927101109272011092730110929A
:1024C000740185E390E0909376018093750182E03A
:1024D0008093700181E090E0F60191838083DF9129
:1024E000CF911F910F91FF90EF90DF90CF90BF9011
:1024F000AF909F908F907F90089560E08CE00E9455
:10250000C101E9EBF0E06491E5EAF0E0E491F0E08C
:10251000EE0FFF1FE859FF4F8591949100E412E4FC
:102520002FE030E0462F0E94C61D4B015C01811454
:102530009104A104B10439F08FEF881A980AA80A0F
:10254000B80AEFE0BE22C70102960E94E1038C01A7
:10255000C501B4012AE330E040E050E00E94C4230A
:10256000F80131832083C7010C960E94E103FC012E
:1025700080E480937C0090917A00906490937A003C
:1025800080917A0086FDFCCF80917800909179004F
:10259000918380838BE3888319821A821B821C8239
:1025A0001D821E821F821092710110927201109280
:1025B0007301109274018BE390E085CFF5011082D6
:1025C000118212821382188219821A821B821C8243
:1025D0001D821E821F821092710110927201109250
:1025E000730110927401109276011092750188E0C7
:1025F000809370018FEF9FEF6FCF6F927F928F92DA
:102600009F92AF92BF92CF92DF92EF92FF920F9381
:102610001F93CF93DF93CDB7DEB7C055D1090FB667
:10262000F894DEBF0FBECDBF7C018B01809180018D
:10263000811105C00E94F11081E0809380012B96EA
:102640001CAE1DAE1EAE1FAE2B972F961CAE1DAE40
:102650001EAE1FAE2F9761961FAE1EAE6197B801DA
:10266000CE01895B9F4F0E94C80E88E891E00E94CE
:1026700001043C0121961CAE1DAE1EAE1FAE21977B
:1026800025961CAE1DAE1EAE1FAE259727961FAE1B
:102690001EAE2797BE01695B7F4FCE01CD960E948B
:1026A000C80ED7011D921D921D921C921397F7011F
:1026B000148215821682178211861086B701685F10
:1026C0007F4FC7010E9444060196C1F0D7011896BA
:1026D0000D911C911997F801828581FF72C1C80183
:1026E0000B96918780871896ED91FC910084F18577
:1026F000E02D108212821182148213828CE090E00D
:102700000E94F8238C0182E291E0F801918380839A
:102710001282138214821582168217821086118605
:1027200013861286BE01635C7F4FC80102960E9429
:10273000C80E1BAA1CAA1DAA1EAA1FAA18AE19AE53
:102740001AAE1CAE1BAE0115110509F04AC1BE013F
:10275000655C7F4FCE01C3960E945E0BF5E06F0E65
:10276000711CC3010E9482048C0119A61AA61BA623
:102770001CA61DA61EA61FA618AA1AAA19AABE0143
:102780006D5C7F4FCE0189960E94330C8CE090E007
:102790000E94F8236C0188E191E0D60111969C9388
:1027A0008E93F601128213821482158216961D9260
:1027B0001D921D921C9219971B961C921E921A979D
:1027C000BE01675D7F4FC60102960E94330C1D8AD1
:1027D0001E8A1F8A188E198E1A8E1B8E1C8E1E8EB4
:1027E0001D8EC114D10409F005C1BE01635E7F4F87
:1027F000CE0145960E945E0B1F8E18A219A21AA246
:102800001BA21CA21DA21EA218A61FA2CE01879663
:102810000E94B308D7011896ED91FC913097E1F032
:1028200082858823C9F080819181A281B381892B1F
:102830008A2B8B2B89F080859185892B69F0F8A7ED
:10284000EFA380819181A281B3810196A11DB11D69
:1028500080839183A283B383F70180819181A281D8
:10286000B3818F8F98A3A9A3BAA384819581A681F0
:10287000B7818BA39CA3ADA3BEA3C8010E946A0429
:102880005C01C8010E94E704882309F4BCC0BE01B2
:102890006B5E7F4FCE0101960E946E0C8AE190E044
:1028A0000E94F8236C01DC0111961C921E92139673
:1028B0001C921E92129715961C921E921497BE019E
:1028C0006F5F7F4F06960E946E0CC8010E949D03A9
:1028D000FC01D182C082CE0101960E94C60CC801C3
:1028E0000E949D03DC01ED91FC9191838083C801DE
:1028F0000E949D036C01C8010E946A04F601958341
:102900008483C8010E949D03FC0146815781608534
:1029100071854F5F5F4F6F4F7F4F4683578360874F
:102920007187CE0145960E94C60CBE016F5C7F4F39
:10293000CE0189960E945E0BC3010E9482046C0145
:10294000C7010E94A6048C01C6010E946A04F80116
:1029500092838183C7010E94A60421E0DC012C93AD
:10296000C7010E94A6048C01C3010E948204F801E1
:1029700094838383BE01655C7F4FCE01C3960E9422
:102980005E0BCE01CD960E94B10ECE01895B9F4FAA
:102990000E94B10EC701C05BDF4F0FB6F894DEBFD7
:1029A0000FBECDBFDF91CF911F910F91FF90EF90A0
:1029B000DF90CF90BF90AF909F908F907F906F905F
:1029C000089585E090E00E94F823FC0110821282B5
:1029D000118214821382D80119969C938E931897B2
:1029E0008DCEA801BE01655C7F4FCE01C3960E94CB
:1029F000DA0BB4CEA601BE01635E7F4FCE014596D1
:102A00000E94DA0BF9CEB501C8010E940205BE0191
:102A10006B5E7F4F882309F44EC0CE0101960E9461
:102A20006E0C8AE190E00E94F8236C01DC011196A3
:102A30001C921E9213961C921E92129715961C922F
:102A40001E921497BE016F5F7F4F06960E946E0C18
:102A5000CE0101960E94C60CC8010E949D03F6019A
:102A600091838083D50114968D909C909582848269
:102A70008114910419F0F401D382C282D501129617
:102A80008D919C91892B31F4C8010E949D03FC011A
:102A9000B582A482892831F4C8010E949D03DC011B
:102AA000CD92DC92F601B382A282D5011596DC921A
:102AB000CE92149726CFCE0101960E946E0C8AE129
:102AC00090E00E94F8236C01FC01118210821382B5
:102AD000128215821482BE016F5F7F4F06960E949C
:102AE0006E0CCE0101960E94C60CC8010E949D0387
:102AF000D6018D939C93C8010E9470045C01FC0177
:102B000084819581892B31F4C8010E949D03DC01E9
:102B1000AD92BC92F60182819381892B41F4C80168
:102B20000E949D03DC011596DC92CE921497F6016B
:102B3000B582A482D5011396DC92CE921297E1CE93
:102B4000AF92BF92CF92DF92EF92FF920F931F93BB
:102B5000CF93DF93CDB7DEB72B970FB6F894DEBFD8
:102B60000FBECDBF8C015B0169017A01672B09F5AE
:102B7000F801108211821282138214821582168249
:102B8000178211861086C80108960E94FC08C801A9
:102B90002B960FB6F894DEBF0FBECDBFDF91CF915D
:102BA0001F910F91FF90EF90DF90CF90BF90AF906B
:102BB0000895C114D104E104F104D1F21B861982F5
:102BC0001A821B821C821D821E821F8218861A8610
:102BD0001986BA01A9014F5F5F4F6F4F7F4F9E016A
:102BE000255F3F4FCE0101960E94800ACE010196DB
:102BF0000E94CA04A601B5010E941D25F801108299
:102C00001182128213821482158216821782118613
:102C10001086BE016F5F7F4FC8010E94100BCE016E
:102C20000996B3CF0F931F93CF93DF93CDB7DEB742
:102C30002A970FB6F894DEBF0FBECDBF8C01FC0102
:102C400010821182128213821482158216821782D8
:102C500011861086FA0120813181428153810896C4
:102C6000211531054105510561F0CE0101960E9403
:102C7000A015BE016F5F7F4FC8010E94100BCE01EF
:102C800009960E94FC082A960FB6F894DEBF0FBE84
:102C9000CDBFDF91CF911F910F9108952F923F9259
:102CA0004F925F926F927F928F929F92AF92BF925C
:102CB000CF92DF92EF92FF920F931F93CF93DF9308
:102CC000CDB7DEB7CE54D1090FB6F894DEBF0FBE34
:102CD000CDBF062F942EF22E9F938F9388E591E01F
:102CE0009F938F931F9280E48F93CE0101965C0196
:102CF0009F938F930E942D25092E000CAA0BBB0BCE
:102D00002F968CAF9DAFAEAFBFAF2F97AE01455B97
:102D10005F4FB501CE018F5B9F4F0E941216CE010F
:102D20008F5B9F4F0E94CA046C01CE018F5B9F4F47
:102D30000E94CA043C01CE018F5B9F4F0E94CC05CC
:102D4000660D771D0FB6F894DEBF0FBECDBFC61659
:102D5000D70631F0F6019081905391936F01F7CF30
:102D6000CE018F5B9F4F0E94CC05623071058105BB
:102D7000910509F04FC040E050E0BA01CE018F5BF1
:102D80009F4F0E949205FC0180818983CE018F5B59
:102D90009F4F0E94CC05623071058105910509F0B5
:102DA0003BC041E050E060E070E0CE018F5B9F4FA0
:102DB0000E949205FC0180818A83CC24C394D12C8B
:102DC00091EE892E2FEB722E37EB632E47E6542EB1
:102DD00053EF452E6BED362E71E6272EF501EC0DE7
:102DE000FD1DE08060E0892D0E94C101EFEFEE0D36
:102DF0004DEF4C25E930C8F4F0E0EF5FF84E0C944D
:102E0000E623131740174317461749174C174F1758
:102E10005217551780E0B9CF40E050E0BA01C5CF56
:102E2000D12CC12CDBCF4C2D42256F2D802F0E9441
:102E30001D0761E0892D0E94C101CD2889F781E439
:102E400090E08C0F9D1F08960E94FC08C25BDF4F2C
:102E50000FB6F894DEBF0FBECDBFDF91CF911F91AB
:102E60000F91FF90EF90DF90CF90BF90AF909F9029
:102E70008F907F906F905F904F903F902F9008952C
:102E80004C2D4325D2CF4C2D4425CFCF4C2D45255D
:102E9000CCCF4C2D4625C9CF4C2D4725C6CF4C2D28
:102EA0004825C3CF4C2D4095C0CF47EF4C25BDCF13
:102EB0007F928F929F92AF92BF92CF92DF92EF92CA
:102EC000FF920F931F93CF93DF937C018B01EA0155
:102ED0005901788089809A80CB80DC80BD81FE8119
:102EE000EF81272D382D492D5C2D6D2D7B2F8F2FB8
:102EF0009E2FA0E00E94EC2319F1A8E40E94EC238D
:102F000071F1F501108211821282138218821982E6
:102F10001A821B821C821D821E821F8210927101E6
:102F20001092720110927301109274011092760146
:102F30001092750188E0809370018FEF9FEF65C05C
:102F4000109271011092720110927301109274012B
:102F5000109276011092750181E080937001C70193
:102F600002960E94E103FC0160817181072E000C32
:102F7000880B990B0E94E02223EC35EF40E850E4E7
:102F80000E943D220E941B230E94AF22CB0122E01F
:102F900043E064E00E944E16C7010C960E94E103D4
:102FA000FC0160817181072E000C880B990B0E9437
:102FB000E0222AE037ED43E251E40E943D220E94E4
:102FC0001B230E94AF22CB0127E046E065E00E9470
:102FD0004E1688E4888319821A821B821C821D8205
:102FE0001E821F8210927101109272011092730161
:102FF0001092740188E490E09093760180937501BB
:1030000082E08093700181E090E0F80191838083F9
:10301000DF91CF911F910F91FF90EF90DF90CF90B4
:10302000BF90AF909F908F907F9008950F931F93C4
:10303000CF93DF93CDB7DEB72A970FB6F894DEBFF4
:103040000FBECDBF8C01FC0110821182128213824F
:1030500014821582168217821186108608966115D1
:103060007105B1F0FB0101900020E9F73197E61BF3
:10307000F70B9F0150E040E0CE0101960E94A015A1
:10308000BE016F5F7F4FC8010E94100BCE010996F1
:103090000E94FC082A960FB6F894DEBF0FBECDBF83
:1030A000DF91CF911F910F9108952F923F924F92F0
:1030B0005F926F927F928F929F92AF92BF92CF92C8
:1030C000DF92EF92FF920F931F93CF93DF93CDB7D1
:1030D000DEB7C05AD1090FB6F894DEBF0FBECDBF20
:1030E000FC01C156DF4F79836883CF59D0408A01F4
:1030F0005901DA017C9011968C90119712969C9050
:1031000012971396CC9013971496DC9014971596FB
:10311000EC9015971696FC90169717966C90272DA5
:10312000382D492D5C2D6D2D7E2D8F2D962DA0E0F7
:103130000E94EC2329F1A4E50E94EC2381F1D50142
:103140001D921D921D921C921397F80110821182FC
:1031500012821382148215821682178210927101D4
:103160001092720110927301109274011092760104
:103170001092750188E0809370018FEF9FEFD0C1AE
:1031800010927101109272011092730110927401E9
:10319000109276011092750181E0809370017F0199
:1031A000B2E0EB0EF11CCF010C960E94E1034C0142
:1031B000C7010E94E1035C016BE571E0CE01895714
:1031C0009F4F0E9416186E01EDE7CE0ED11CC6016E
:1031D0000E94B607C756DF4FD982C882C959D0406E
:1031E0006DE571E09E012F5F3F4F7901C9010E949B
:1031F0001618B701CE0187569F4F0E94430ACE0191
:1032000009960E94FC08D5018C9111969C91C75695
:10321000DF4F28813981C959D040C956DF4F3983E2
:103220002883C759D0409F938F9385E6682E81E00D
:10323000782E7F926F921F9290E4592E5F92FF92A8
:10324000EF920E942D25092E000CAA0BBB0B2F9686
:103250008CAF9DAFAEAFBFAF2F97AE01455B5F4F59
:10326000B701CE018F5B9F4F0E941216BE016F5BAC
:103270007F4FCE0189569F4F0E94430A21E4A22E20
:10328000B12CAC0EBD1EB8E0AB0EB11CC5010E9446
:10329000FC08C956DF4F88819981C759D040CB5669
:1032A000DF4F99838883C559D04068E671E0C70134
:1032B0000E941618B701CE018B569F4F0E94430AF9
:1032C000CE0109960E94FC08F40180819181CB56C1
:1032D000DF4F28813981C559D040CD56DF4F398322
:1032E0002883C359D0409F938F937F926F921F92F0
:1032F0005F92FF92EF920E942D25092E000CAA0BDF
:10330000BB0B2F968CAF9DAFAEAFBFAF2F97AE016B
:10331000455B5F4FB701CE018F5B9F4F0E94121636
:10332000BE016F5B7F4FCE018D569F4F0E94430AB7
:10333000C5010E94FC08CD56DF4F88819981C35991
:10334000D040CF56DF4F99838883C159D0406EE675
:1033500071E0C7010E941618B701CE018F569F4F2A
:103360000E94430ACE0109960E94FC08C6010E94F1
:10337000E7040FB6F894DEBF0FBECDBF882309F473
:10338000F1C0AD961CAE1DAE1EAE1FAEAD97E19660
:103390001CAE1DAE1EAE1FAEE197E3961FAE1EAE75
:1033A000E39769E670E06C0F7D1F685F7F4FCE0189
:1033B00087599F4F0E94B90DE7961CAE1DAE1EAEF9
:1033C0001FAEE797EB961CAE1DAE1EAE1FAEEB9781
:1033D000ED961FAE1EAEED9763E770E06C0F7D1F9C
:1033E000685F7F4FCE018D589F4F0E94B90DE396C5
:1033F000AEACBFACE397C5010E944902811110C079
:10340000ED96BFAEAEAEED97F50180819181A281C0
:10341000B3810196A11DB11D80839183A283B383E3
:10342000AD968CAD9DADAEADBFADAD97E7968CAF13
:103430009DAFAEAFBFAFE797E1968CAD9DADAEADA2
:10344000BFADE197EB968CAF9DAFAEAFBFAFEB9743
:10345000BE0169577F4FCE01815A9F4F0E94450997
:10346000CE018D589F4F0E943803882309F499C1DB
:1034700070E060E0C7010E941618CE0189599F4F85
:103480000E94FC0863E770E06C0F7D1F685F7F4F50
:10349000CE018D589F4F0E94B90D69E670E06C0F08
:1034A0007D1F685F7F4FCE0187599F4F0E94B90DE6
:1034B000C6010E94851187E890E08C0F9D1F089639
:1034C0000E94FC08C7010E94CC054B01C7010E9465
:1034D000B805A401BC0182E991E00E94B400CE01CC
:1034E00009960E94FC0884E5F8018083118212820B
:1034F0001382148215821682178210927101109223
:103500007201109273011092740184E590E090931F
:1035100076018093750182E08093700181E090E0F4
:10352000C156DF4FA881B981CF59D0408D939C936C
:10353000C056DF4F0FB6F894DEBF0FBECDBFDF9190
:10354000CF911F910F91FF90EF90DF90CF90BF90A0
:10355000AF909F908F907F906F905F904F903F9033
:103560002F900895C6010E94E704812C912C5401EC
:1035700081110AC0C6010E949D03DC0116968D9040
:103580009D90AD90BC90199719821A821B821C8263
:103590001D821E821F8218861A861986A501940133
:1035A000BE01675F7F4FC7010E947806019649F010
:1035B000E985FA85828581FF5CC0CF010B969187F2
:1035C000808789849A84C4010E944902B12CA12C6D
:1035D00081110EC029813A814AE0429FC001439F78
:1035E000900D1124D4011896AD90BC90A80EB91E70
:1035F000C6010E94CF044C018114910409F490C0CB
:10360000C50108960E94FC08F40166847784C30112
:103610000E948E02811111C0D50119967C926E9282
:103620001897F30180819181A281B3810196A11D38
:10363000B11D80839183A283B383F4018681978136
:10364000A085B185F50180839183A283B383F401C2
:1036500082859385A485B585F50184839583A683AA
:10366000B783FAE0AF0EB11CD40112968D909C90F6
:10367000C3CF81149104A104B104C1F48AE090E0A5
:103680000E94F8235C01FC011082118212821382D5
:1036900014821582168217821186108608960E945F
:1036A000FC08E985FA85B186A0868BCF24018FEFCF
:1036B0009FEFBDEC8B16BCE09B0638F42AE0289DFA
:1036C000C001299D900D112402960E94F823FC014F
:1036D000419251923F015F01912C812CFFEF8F1A93
:1036E0009F0AC2018819990997FD15C0D5011D923D
:1036F0001D921D921C921397F50114821582168259
:10370000178211861086C50108960E94FC08FAE00F
:10371000AF0EB11CE3CFE985FA857186608651CF83
:10372000AD961CAE1DAE1EAE1FAEAD97E1961CAEA3
:103730001DAE1EAE1FAEE197E3961FAE1EAEE39721
:1037400069E670E06C0F7D1F685F7F4FCE0187597F
:103750009F4F0E94B90DA984BA84C5010E944902F5
:10376000811106C0E396BFAEAEAEE3971A86198606
:1037700089819A81AB81BC81AD968CAF9DAFAEAF94
:10378000BFAFAD978D819E81AF81B885E1968CAF3B
:103790009DAFAEAFBFAFE197BE01675F7F4FC7017F
:1037A00009CECE018B5A9F4F0E94B607ED968EAC84
:1037B0009FACED97C4010E944902B12CA12C81114C
:1037C00010C0E5962EAD3FADE5974AE0429FC0019F
:1037D000439F900D1124D4011896AD90BC90A80E73
:1037E000B91E412C512C3201CE018D589F4F0E94A1
:1037F0005703A816B90679F1B501C7010E9445091A
:10380000B701CE018B5A9F4F0E948809CE010996BD
:103810000E94FC08CE018B5A9F4F0E94D504069649
:103820000E94CC05460E571E681E791EBAE0AB0EEC
:10383000B11CCE018D589F4F0E945703A816B906A0
:1038400099F2CE01815A9F4F0E94CC05460E571E19
:10385000681E791EC9CF2F961CAE1DAE1EAE1FAEC0
:103860002F9763961CAE1DAE1EAE1FAE6397659676
:103870001FAE1EAE65978BE490E0411451046104C5
:10388000710409F445C022961FAE229719821A824C
:103890001B821C821D821E821F8218861A86198630
:1038A000B301A2014F5F5F4F6F4F7F4F9E012F5BB0
:1038B0003F4FC7010E94800AC7010E94CA04A201AB
:1038C00070E060E00E94262525961CAE1DAE1EAE5F
:1038D0001FAE259729961CAE1DAE1EAE1FAE2997B2
:1038E0002B961FAE1EAE2B97B701CE018F5B9F4F5D
:1038F0000E94100BCE0109960E94FC08BE016F5B6E
:103900007F4FCE01855B9F4F0E94100B81E490E0BA
:103910008C0F9D1F08960E94FC08CE018B5A9F4F6A
:103920000E94CF04C556DF4F99838883CB59D0407E
:10393000412C512C3201C556DF4FE881F981CB591A
:10394000D040309709F463C01F01F6E02F0E311C00
:10395000C1010E94CC054B01C1010E94B805C356AC
:10396000DF4F99838883CD59D040CE01855B9F4F2F
:103970000E94CA04840D951DA401C356DF4F6881BF
:103980007981CD59D0400E941D25C1010E94CC05EE
:10399000460E571E681E791ECE01855B9F4F0E9402
:1039A000CC054616570668067906B8F4CE01815A4A
:1039B0009F4F0E94CC054B01CE01815A9F4F0E9420
:1039C000B8051C01CE01855B9F4F0E94CA04840D7F
:1039D000951DA401B1010E941D25CE01815A9F4F62
:1039E0000E94CC05460E571E681E791EC556DF4F35
:1039F000A881B981CB59D04012960D90BC91A02DD1
:103A0000C556DF4FB983A883CB59D04094CF1982D4
:103A10001A821B821C821D821E821F8218861A86B1
:103A20001986BE01655B7F4FC7010E94100B8BE4B6
:103A300090E08C0F9D1F08960E94FC08CE018B5AC7
:103A40009F4F0E94851119CD1F920F920FB60F92B2
:103A500011242F933F934F935F936F937F938F9393
:103A60009F93AF93BF93EF93FF9382E991E00E94FE
:103A70003201FF91EF91BF91AF919F918F917F9113
:103A80006F915F914F913F912F910F900FBE0F90CB
:103A90001F9018951F920F920FB60F9211242F931B
:103AA0008F939F93EF93FF93E091A201F091A30175
:103AB0008081E091A801F091A90182FD1BC0908155
:103AC0008091AB018F5F8F732091AC01821741F021
:103AD000E091AB01F0E0EE56FE4F958F8093AB0185
:103AE000FF91EF919F918F912F910F900FBE0F90AB
:103AF0001F9018958081F4CF1F920F920FB60F92EE
:103B000011242F933F938F939F93AF93BF938091F3
:103B1000780190917901A0917A01B0917B01309167
:103B2000770123E0230F2D3758F50196A11DB11D14
:103B3000209377018093780190937901A0937A0183
:103B4000B0937B0180917C0190917D01A0917E01D9
:103B5000B0917F010196A11DB11D80937C019093CE
:103B60007D01A0937E01B0937F01BF91AF919F91A2
:103B70008F913F912F910F900FBE0F901F9018952E
:103B800026E8230F0296A11DB11DD2CFCF92DF925E
:103B9000EF92FF920F931F93E82FF92F05C001506A
:103BA00011092109310961F1908196239417B9F324
:103BB00005C0015011092109310911F190819623A5
:103BC0009413F7CFC12CD12CE12CF12C0AC08FEF2C
:103BD000C81AD80AE80AF80A0C151D052E053F0573
:103BE00079F080818623841791F36C2D7D2D8E2DA5
:103BF0009F2D1F910F91FF90EF90DF90CF90089530
:103C000060E070E080E090E01F910F91FF90EF90F6
:103C1000DF90CF900895CF93DF93CDB7DEB7C05537
:103C2000D1090FB6F894DEBF0FBECDBF789484B52E
:103C3000826084BD84B5816084BD85B5826085BDA8
:103C400085B5816085BD80916E00816080936E0036
:103C50001092810080918100826080938100809128
:103C600081008160809381008091800081608093D9
:103C700080008091B10084608093B1008091B00099
:103C800081608093B00080917A00846080937A0094
:103C900080917A00826080937A0080917A008160BE
:103CA00080937A0080917A00806880937A001092E5
:103CB000C1000E948C0082E090E00E94F823DC01A9
:103CC0001D921C92BC01CE01895B9F4F0E9411087E
:103CD00082E090E00E94F823FC0111821082BC0176
:103CE000CE01CD960E9411081BAA1CAA1DAA1EAACD
:103CF0001FAA18AE19AE1AAE1CAE1BAE2BE030E0F8
:103D000040E050E0BE01655C7F4FCE01C3960E944B
:103D1000480A019671F00BAD1CADD8011A968C9132
:103D20001A9781FF92C0C8010B9619969C938E93A7
:103D300018970BAD1CADC8010E948E02811110C0F6
:103D4000CE01C3960E947205672B682B692B09F080
:103D500084C0CE01C3960E94CA042EE0DC012C93DD
:103D60008EE0E6E0F1E0DE01119601900D928A9579
:103D7000E1F719A61AA61BA61CA61DA61EA61FA61D
:103D800018AA1AAA19AA27E030E040E050E0BE01C4
:103D90006F5C7F4FCE0189960E94480A019671F0B0
:103DA00009A91AA9D8011A968C911A9781FF68C09F
:103DB000C8010B9619969C938E931897CE018996FD
:103DC0000E94CA04FE0131969C01295F3F4F408149
:103DD0003296DC014D93CD01A217B307C1F7CE0196
:103DE000C3960E94CA048C016BAD7CADCE01C79610
:103DF0000E94A502D8018A179B0709F449C02D919A
:103E000030E0F901E255FF4F449126563F4FF9014A
:103E10002491222381F330E0220F331FF901E05770
:103E2000FF4F65917491F901EA57FF4F0591149185
:103E30003FB7F894FB012081409524232083F801AB
:103E40002081242320833FBFD6CF8BE090E00E94C7
:103E5000F823F801918780876CCFB801CE01C7960F
:103E60000E94A5028C01CE01C3960E94CA042EE0D6
:103E70008017910709F474CFFC012193CF01F8CF8B
:103E800087E090E00E94F823F8019187808796CF21
:103E9000CE0189960E94CA048C0169A97AA9CE0133
:103EA0008D960E94A502D8018A179B0709F12D91D2
:103EB00030E0F901E255FF4F649126563F4FF9017A
:103EC0002491222389F330E0220F331FF901E057B8
:103ED000FF4F45915491F901EA57FF4F25913491D5
:103EE0002FB7F894FA013081362B30832FBFDCCF07
:103EF000BE01635C7F4FCE0101960E944408BE0163
:103F0000695B7F4FCE010B960E94440886E190E0EA
:103F10000E94F8238C0136E1F32EDC01EF2D1D9277
:103F2000EA95E9F770E060E00E94820DD8011A96E8
:103F30001D921D921D921C921D971E961C921E97FB
:103F40001F961C921F9750961C92509751961C9248
:103F5000519752961C92529753961C92539754968F
:103F60001C92549755961C92B801CE014F960E9410
:103F7000000F86E190E00E94F8238C012EE331E0EF
:103F8000FC0121933193CF01BE016F5F7F4F0E94EF
:103F90004408BE01655F7F4FC8010C960E9444082B
:103FA000B801CE0145960E94820DCE014F960E9427
:103FB000BF03BE016B5E7F4F0E94500DBE01635E6A
:103FC0007F4FCE0145960E94D40CBE01615E7F4FAB
:103FD000CE0145960E94FD12CE014D960E94B30877
:103FE000CE014F960E94B10ECE0101960E948F081D
:103FF000BE01635C7F4FCE0101960E944408BE0162
:10400000695B7F4FCE010B960E94440886E190E0E9
:104010000E94F8238C01DC01EF2D1D92EA95E9F74F
:1040200070E060E00E94820DD8011A961D921D92E8
:104030001D921C921D971E961C921E971F961C92F5
:104040001F9750961C92509751961C9251975296DA
:104050001C92529753961C92539754961C925497C5
:1040600055961C92B801CE014F960E94000F86E132
:1040700090E00E94F8238C0128E431E0FC012193B8
:104080003193CF01BE016F5F7F4F0E944408BE0194
:10409000655F7F4FC8010C960E944408B801CE01AD
:1040A00045960E94820DCE014F960E94BF03BE012D
:1040B0006B5E7F4F0E94500DBE01635E7F4FCE014D
:1040C00045960E94D40CBE01615E7F4FCE0145969D
:1040D0000E94FD12CE014D960E94B308CE014F966C
:1040E0000E94B10ECE0101960E948F08BE01635C52
:1040F0007F4FCE0101960E944408BE01695B7F4F4D
:10410000CE010B960E94440886E190E00E94F823BD
:104110008C01DC011D92FA94E9F770E060E00E94E6
:10412000820DF80112861386148615861686178668
:10413000108A118A128A138A148A158AB801CE014C
:104140004F960E94000F86E190E00E94F8238C01B8
:1041500022E531E0DC012D933D93CD01BE016F5F7F
:104160007F4F0E944408BE01655F7F4FC8010C96D7
:104170000E944408B801CE0145960E94820DCE01EE
:104180004F960E94BF03BE016B5E7F4F0E94500D91
:10419000BE01635E7F4FCE0145960E94D40CBE01E6
:1041A000615E7F4FCE0145960E94FD12CE014D9675
:1041B0000E94B308CE014F960E94B10ECE01019627
:1041C0000E948F08CE01C1960E94FC08CE01CB96BA
:1041D0000E94FC088DE390E08C0F9D1F08960E94C2
:1041E000C80787E490E08C0F9D1F08960E94C807BF
:1041F00088248A94982C540154E0252E3324339437
:1042000080918001811104C00E94F11030928001E0
:1042100088E891E00E9401048C010B5F1F4FC801E8
:104220000E9482047C010E94E70481112BC0C70117
:104230000E944C05892B31F1C8010E9482040E9422
:104240004C056C01C8010E9482040E944C05FC01CF
:104250008481958166246A94762C892B19F06624D2
:104260006394712C7601F0E1EF0EF11CC7010E94FE
:10427000A604FC01908191FF79C0C8010E948204CC
:104280000E941F0588E891E00E940104FC019081D2
:104290009064908388E891E00E940104FC014181D0
:1042A000528163817481452B462B472B21F011826B
:1042B00012821382148288E891E00E9401048C012A
:1042C00005960E9482047C010E94E70481110CC0C3
:1042D000C7010E949D03FC0186819781A085B1855D
:1042E000892B8A2B8B2BD1F4E0919001F0919101D5
:1042F0003097A1F08285882389F080819181A28105
:10430000B3810097A105B10549F020853185232BA4
:1043100029F00297A105B10508F067C0D8011196F0
:10432000CD90DD90ED90FC9014970E940D022B0132
:104330003C01C114D104E104F10409F45DC00E9400
:104340000D026419750986099709683E7340810555
:10435000910578F3B1E0CB1AD108E108F108E8EE55
:104360004E0EE3E05E1E611C711CE3CF92FF13C092
:10437000C8010E948204B6010E94370FE0E0F0E01D
:10438000EF2B09F43DCF0E941E01882309F438CF9A
:104390000E94000035CF92609083C60106960E946D
:1043A00025046C01C8010E9482040E94E704811167
:1043B00012C02FEFC216D20691F0CD2861F0C701CE
:1043C0000E94A604FC0190819D7F9083C8010E94F9
:1043D00082040E941F056A94672881F253CFC701A7
:1043E0000E94A604DC012C92F6CF88EEC82E83E052
:1043F000D82EE12CF12C99CF88E891E00E9401049D
:10440000DC0111968D929D92AD92BC92149788E832
:1044100091E00E940104FC0190819F7B9083AECFCC
:10442000E2E9F1E01382128288EE93E0A0E0B0E0CE
:1044300084839583A683B7838CE291E09183808304
:1044400085EC90E09587848784EC90E09787868759
:1044500080EC90E0918B808B81EC90E0938B828B51
:1044600082EC90E0958B848B86EC90E0978B868B2A
:10447000118E128E138E148E08950E9451220C9468
:1044800072230E946B2358F00E94642340F029F4A9
:104490005F3F29F00C94322351110C94BE230C94ED
:1044A00061230E94832368F39923B1F3552391F389
:1044B000951B550BBB27AA2762177307840738F093
:1044C0009F5F5F4F220F331F441FAA1FA9F335D0F0
:1044D0000E2E3AF0E0E832D091505040E695001CA4
:1044E000CAF72BD0FE2F29D0660F771F881FBB1F5E
:1044F000261737074807AB07B0E809F0BB0B802D3C
:10450000BF01FF2793585F4F3AF09E3F510578F067
:104510000C9432230C94BE235F3FE4F3983ED4F313
:10452000869577956795B795F7959F5FC9F7880F3B
:10453000911D9695879597F90895E1E0660F771F8D
:10454000881FBB1F621773078407BA0720F0621B1E
:10455000730B840BBA0BEE1F88F7E09508950E9449
:104560008B2388F09F5798F0B92F9927B751B0F057
:10457000E1F0660F771F881F991F1AF0BA95C9F7E7
:1045800014C0B13091F00E94BD23B1E008950C94A5
:10459000BD23672F782F8827B85F39F0B93FCCF358
:1045A000869577956795B395D9F73EF49095809564
:1045B000709561957F4F8F4F9F4F0895E89409C084
:1045C00097FB3EF490958095709561957F4F8F4F46
:1045D0009F4F9923A9F0F92F96E9BB279395F6955C
:1045E000879577956795B795F111F8CFFAF4BB0FDA
:1045F00011F460FF1BC06F5F7F4F8F4F9F4F16C03E
:10460000882311F096E911C0772321F09EE8872FC7
:10461000762F05C0662371F096E8862F70E060E083
:104620002AF09A95660F771F881FDAF7880F9695FC
:10463000879597F908950E94A52390F09F3748F435
:10464000911116F00C94BE2360E070E080E89FEBBF
:10465000089526F41B16611D711D811D0C943823CD
:104660000C94532397F99F6780E870E060E0089509
:10467000882371F4772321F09850872B762F07C079
:10468000662311F499270DC09051862B70E060E0ED
:104690002AF09A95660F771F881FDAF7880F96958C
:1046A000879597F908959F3F31F0915020F48795B1
:1046B00077956795B795880F911D9695879597F98A
:1046C00008959FEF80EC089500240A9416161706AB
:1046D00018060906089500240A94121613061406F3
:1046E00005060895092E0394000C11F4882352F056
:1046F000BB0F40F4BF2B11F460FF04C06F5F7F4F0E
:104700008F4F9F4F089557FD9058440F551F59F0F4
:104710005F3F71F04795880F97FB991F61F09F3FAE
:1047200079F087950895121613061406551FF2CFD7
:104730004695F1DF08C0161617061806991FF1CF27
:10474000869571056105089408950E948B23A0F059
:10475000BEE7B91788F4BB279F3860F41616B11D61
:10476000672F782F8827985FF7CF8695779567957D
:10477000B11D93959639C8F30895E894BB27662731
:104780007727CB0197F90895A1E21A2EAA1BBB1B2C
:10479000FD010DC0AA1FBB1FEE1FFF1FA217B3070D
:1047A000E407F50720F0A21BB30BE40BF50B661F23
:1047B000771F881F991F1A9469F7609570958095E7
:1047C00090959B01AC01BD01CF010895EE0FFF1F35
:1047D0000590F491E02D09940024A7FD00942A1778
:1047E0003005400550056005700580059005089569
:1047F0000F931F93CF93DF938230910510F482E0E3
:1048000090E0E0913102F091320230E020E0B0E03F
:10481000A0E0309799F42115310509F44AC0281B0E
:10482000390B24303105D8F58A819B8161157105DA
:1048300089F1FB0193838283FE0111C04081518184
:104840000281138148175907E0F04817590799F476
:10485000109761F012960C93129713961C93329650
:10486000CF01DF91CF911F910F91089500933102F5
:1048700010933202F4CF2115310551F0421753073E
:1048800038F0A901DB019A01BD01DF01F801C1CFB8
:10489000EF01F9CF9093320280933102CDCFFE0128
:1048A000E20FF31F819391932250310939832883BA
:1048B000D7CF20912F0230913002232B41F4209149
:1048C0000201309103013093300220932F02209196
:1048D0000001309101012115310541F42DB73EB79A
:1048E0004091040150910501241B350BE0912F02EA
:1048F000F0913002E217F307A0F42E1B3F0B2817AC
:10490000390778F0AC014E5F5F4F2417350748F048
:104910004E0F5F1F5093300240932F02819391936B
:104920009FCFF0E0E0E09CCFCF93DF930097E9F0DA
:10493000FC01329713821282A0913102B0913202AF
:10494000ED0130E020E01097A1F420813181820F49
:10495000931F20912F02309130022817390709F058
:1049600061C0F0933002E0932F02DF91CF91089560
:10497000EA01CE17DF07E8F54A815B819E01411508
:104980005105B1F7E901FB83EA8349915991C40FBD
:10499000D51FEC17FD0761F4808191810296840F89
:1049A000951FE90199838883828193819B838A8300
:1049B000F0E0E0E012968D919C9113970097B9F585
:1049C0002D913C911197CD010296820F931F20915A
:1049D0002F02309130022817390739F6309751F5F8
:1049E0001092320210923102B0933002A0932F0243
:1049F000BCCFD383C28340815181840F951FC817D8
:104A0000D90761F44E5F5F4F88819981480F591F24
:104A1000518340838A819B81938382832115310551
:104A200009F0B0CFF0933202E09331029ECFFD0146
:104A3000DC01C0CF13821282D7CFFB01DC0102C0A0
:104A400001900D9241505040D8F70895DC0101C00B
:104A50006D9341505040E0F70895AEE0B0E0E3E3DD
:104A6000F5E20C94E9270D891E898F89988D26E03F
:104A70002C831A83098397FF02C080E090E8019796
:104A80009E838D83AE01455E5F4F698D7A8DCE0129
:104A900001960E945D254D815E8157FD0AC02F81E0
:104AA0003885421753070CF49A01020F131FF801BF
:104AB00010822E96E4E00C940528ABE0B0E0E3E62B
:104AC000F5E20C94DB277C013B018A01FC01178293
:104AD0001682838181FFC8C1CE0101965C01F70176
:104AE0009381F30193FD859193FF81913F01882389
:104AF00009F453C1853239F493FD859193FF819177
:104B00003F01853229F4B70190E00E944D27E7CF9D
:104B1000912C212C312CFFE1F31538F08B3211F15F
:104B200090F4803209F1833229F137FC3CC020ED4A
:104B3000280F2A3050F536FE20C08AE0989E200DBE
:104B40001124922E06C08D3291F0803371F7689453
:104B500030F8F30193FD859193FF81913F0181111D
:104B6000DACF21C0689431F8689432F8F2CF6894B3
:104B700033F8EFCF689434F8ECCFEAE02E9E200DA6
:104B80001124222E689435F8E4CF8E3229F436FCB5
:104B900004C1689436F8DDCF8C3619F4689437F880
:104BA000D8CF8836B1F2982F9F7D95549330E0F09E
:104BB0008336A1F18337C1F1833509F063C0280141
:104BC000F2E04F0E511CF801C080D180692D70E0D9
:104BD00036FC02C06FEF7FEFC6010E9437274C0101
:104BE000689437F882010AC00C5F1F4FFFE3F98316
:104BF00088248394912C6501E89437F833FE2DC006
:104C0000522C8114910471F5552009F468CFB70135
:104C100080E290E00E944D275A94F6CFF8018081FF
:104C200089830E5F1F4FE4CF2801F2E04F0E511C25
:104C3000F801C080D180692D70E036FC02C06FEFB2
:104C40007FEFC6010E9442274C018201D5CFB701F8
:104C500080E290E00E944D272A942814190409F05C
:104C6000B0F7CECFF60137FC859137FE81916F0109
:104C7000B70190E00E944D2751105A94F1E08F1A2D
:104C80009108BFCF843619F0893609F077C0F80152
:104C900037FE6BC060817181828193810C5F1F4FF1
:104CA000F32DFF763F2E97FF09C090958095709564
:104CB00061957F4F8F4F9F4F689437F82AE030E01F
:104CC000A5010E947D27C82ECA188C2C432C36FEC5
:104CD0000CC0E89440F8C91440F434FE05C032FC1E
:104CE00003C0F32DFE7E4F2E892C44FE95C0FE019D
:104CF000EC0DF11D8081803309F087C0242D297EC1
:104D0000422E842D8870582E43FC95C040FE8FC0E3
:104D10009C2C821418F42C0C922C981844FE91C0F0
:104D2000B70180E390E00E944D2742FE09C088E76A
:104D300090E041FE02C088E590E0B7010E944D2757
:104D4000C91408F48AC0CA94D12C9FEFC91AD90A91
:104D5000CA0CDB1CF60182916F01B70190E00E9442
:104D60004D27AC14BD04B1F74FCF60817181072E80
:104D7000000C880B990B0E5F1F4F92CFD32CE89439
:104D8000D4F82AE030E0853739F1232D297FD22E5F
:104D90008F3601F148F48835A9F0F70186819781B3
:104DA0002B96E2E10C94F727803749F08837A9F772
:104DB000D4FE02C06894D2F820E130E00DC06894BF
:104DC000D4F8F6CF34FE03C0822F8660D82E20E1BF
:104DD00032E002C028E030E0F801D7FE0FC0608169
:104DE0007181828193810C5F1F4FA5010E947D27F5
:104DF000C82ECA183D2CE89437F867CF60817181BE
:104E000090E080E00E5F1F4FF0CF42FC02C0839421
:104E100078CF8394839475CF842D867809F471CFED
:104E2000F6CFB70180E290E00E944D278394821470
:104E3000C0F3512C73CF522C5818821408F46ECF43
:104E4000F8CF842D867809F47BCF8BE241FE80E297
:104E500047FC8DE2B70190E071CFB70180E390E0AD
:104E60000E944D279A946CCF8FEF9FEF99CFFC0152
:104E70000590615070400110D8F7809590958E0F85
:104E80009F1F0895FC016150704001900110D8F7F8
:104E9000809590958E0F9F1F08950F931F93CF932A
:104EA000DF93182F092FEB018B8181FD09C01FEFC4
:104EB0000FEF812F902FDF91CF911F910F910895C8
:104EC00082FF14C02E813F818C819D812817390774
:104ED0003CF4E881F981CF0101969983888310839E
:104EE0008E819F8101969F838E83E3CFE885F9852C
:104EF000812F0995892BA1F3DACFFA01AA2728304F
:104F000051F1203181F1E8946F936E7F6E5F7F4F96
:104F10008F4F9F4FAF4FB1E03ED0B4E03CD0670F12
:104F2000781F891F9A1FA11D680F791F8A1F911D65
:104F3000A11D6A0F711D811D911DA11D20D009F4B5
:104F400068943F912AE0269F11243019305D3193F7
:104F5000DEF6CF010895462F4770405D4193B3E0E0
:104F60000FD0C9F7F6CF462F4F70405D4A3318F087
:104F7000495D31FD4052419302D0A9F7EACFB4E038
:104F8000A6959795879577956795BA95C9F70097F0
:104F90006105710508959B01AC010A2E0694579591
:104FA000479537952795BA95C9F7620F731F841FE8
:104FB000951FA01D08952F923F924F925F926F927E
:104FC0007F928F929F92AF92BF92CF92DF92EF9299
:104FD000FF920F931F93CF93DF93CDB7DEB7CA1B1A
:104FE000DB0B0FB6F894DEBF0FBECDBF09942A8845
:104FF000398848885F846E847D848C849B84AA84ED
:10500000B984C884DF80EE80FD800C811B81AA8179
:10501000B981CE0FD11D0FB6F894DEBF0FBECDBF44
:08502000ED010895F894FFCFA3
:105028000000330220000C00070006000500040001
:1050380003000200000000001E0C290C5F040000A1
:105048000000B60EBE0ED602000000005401B400E7
:10505800E100A1011201F000040100000000A30812
:10506800400B1E1200000000AB084A0B5817000046
:1050780000009B08540B5518257500200048435F15
:10508800534538340025640056414C5545000A0004
:00000001FF
