:100000000C9463000C948B000C948B000C948B006C
:100010000C948B000C948B000C948B000C948B0034
:100020000C948B000C948B000C948B000C948B0024
:100030000C948B000C948B000C948B000C948B0014
:100040000C943F1F0C948B000C948B000C948B0031
:100050000C948B000C948B000C948B000C948B00F4
:100060000C94891F0C948B000000000024002700D2
:100070002A0000000000250028002B0000000000DE
:1000800023002600290004040404040404040202DA
:100090000202020203030303030301020408102007
:1000A0004080010204081020010204081020000012
:1000B0000008000201000003040700000000000027
:1000C00000005826AD2711241FBECFEFD8E0DEBFB9
:1000D000CDBF12E0A0E0B1E0EEE9F9E502C0059085
:1000E0000D92A03AB107D9F723E0A0EAB2E001C02F
:1000F0001D92AE3CB207E1F710E0C2E6D0E004C0CA
:100100002197FE010E94F727C136D107C9F70E9447
:1001100089260C94C22C0C940000AF92BF92CF920F
:10012000DF92EF92FF920F931F93CF93DF936C01B7
:100130007B018B01040F151FEB015E01AE18BF0898
:10014000C017D10759F06991D601ED91FC9101904A
:10015000F081E02DC6010995892B79F7C501DF9162
:10016000CF911F910F91FF90EF90DF90CF90BF90B4
:10017000AF900895833081F028F4813099F0823077
:10018000A9F008958730A9F08830C9F08430B1F41F
:10019000809180008F7D03C0809180008F77809355
:1001A0008000089584B58F7784BD089584B58F7DD0
:1001B000FBCF8091B0008F778093B000089580913D
:1001C000B0008F7DF9CF1F93CF93DF93282F30E0BE
:1001D000F901E255FF4F8491F901E656FF4FD491A2
:1001E000F901EA57FF4FC491CC23A9F0162F8111D2
:1001F0000E94BA00EC2FF0E0EE0FFF1FEE58FF4F09
:10020000A591B4918FB7F894EC91111108C0D095D5
:10021000DE23DC938FBFDF91CF911F910895DE2BFA
:10022000F8CFFF920F931F93CF93DF93082F162FD2
:10023000F42EC22FD8E06C2FF11015C06170802F02
:100240000E94E300C69561E0812F0E94E30060E018
:10025000812F0E94E300D15071F7DF91CF911F9160
:100260000F91FF900895661F6627661F802F0E94DA
:10027000E300CC0FE8CF262F01978930910520F5B8
:10028000FC01EB5BFE4F0C94F7274E015401560125
:1002900058015A015C015E0160016201206640E084
:1002A0006AE08CE00C9411012A6DF9CF226FF7CF30
:1002B0002666F5CF266BF3CF2E6BF1CF206EEFCFF6
:1002C0002E6FEDCF266FEBCF2C6FE9CF3FB7F894B1
:1002D0008091A4039091A503A091A603B091A703D8
:1002E00026B5A89B05C02F3F19F00196A11DB11D91
:1002F0003FBFBA2FA92F982F8827BC01CD01620FCD
:10030000711D811D911D42E0660F771F881F991F87
:100310004A95D1F708958F929F92AF92BF92CF9254
:10032000DF92EF92FF926B017C010E9466014B010C
:100330005C01C114D104E104F104B9F00E9466012A
:10034000681979098A099B09683E734081059105FE
:1003500080F321E0C21AD108E108F10888EE880E86
:1003600083E0981EA11CB11CE4CFFF90EF90DF90BA
:10037000CF90BF90AF909F908F900895209153039E
:10038000260F3327331F21323105ECF420917903F6
:10039000FC0190E080E0243069F082E00895A091B3
:1003A00053032191AC014F5C5C4FA40FB52FB11DDD
:1003B0002C930196861798F380915303680F6093EE
:1003C000530380E0089581E008951092790381E05D
:1003D00080937B0310927A0361E082E10E94E30044
:1003E00061E083E10E94E300E9EBF0E080818E7F31
:1003F000808380818D7F808388E48093B80085E44A
:100400008093BC000895CF93DF9391E090933003E5
:100410008823B9F0C091B800D091BA008091BC0097
:100420008A7B8093BC0060E082E10E94E30060E090
:1004300083E10E94E3000E94E501D093BA00C093DB
:10044000B800DF91CF910895089508950895E0913F
:10045000280380912703E81730F4F0E0E95FFC4FB0
:10046000808190E008958FEF9FEF08959091280389
:10047000809127032FEF3FEF981748F4E92FF0E022
:10048000E95FFC4F208130E09F5F90932803C90112
:1004900008958091270390912803891B990B089553
:1004A000CF92DF92EF92FF920F931F93CF93DF9340
:1004B0007C01CB018A0120910603222389F0EB0104
:1004C0006B01C40ED51ECC15DD0569F06991D7010D
:1004D000ED91FC910190F081E02DC7010995F3CFDA
:1004E000642F0E94BE01C801DF91CF911F910F912F
:1004F000FF90EF90DF90CF900895CF93DF931F92FE
:10050000CDB7DEB76983209106032223F9F020914D
:100510002903203258F021E030E0FC0133832283AC
:1005200090E080E00F90DF91CF91089580912A03B1
:10053000E82FF0E0EA51FD4F998190838F5F80931F
:100540002A038093290381E090E0ECCF61E0CE01A3
:1005500001960E94BE01F7CFCF92DF92EF92FF92F9
:100560000F931F93CF93DF93FC01C48121E020936D
:100570000603C093E50210922A0310922903838593
:10058000682B88EA93E00E947D02D0912903D13242
:1005900008F092C00E9466016B017C018091790392
:1005A000811165C082E08093790381E080937B03B1
:1005B0008FEF8093780310929D03D0939C03A6EE57
:1005C000B2E0ECE7F3E080E0D81385C010929E0320
:1005D00080919E03CC0FC82BC0939E0380917A0319
:1005E000813009F07CC010927A030E9466016B0191
:1005F0007C0180919E038093BB0080912C0390919D
:100600002D03A0912E03B0912F03892B8A2B8B2BC6
:1006100099F00E94660100912C0310912D03209106
:100620002E0330912F036C197D098E099F0906173F
:10063000170728073907E0F18091BC0083FDD9CF67
:1006400085EC8093BC000E9466016B017C01809167
:100650007903823009F445C0809178038F3F61F1BE
:1006600080917803803241F18091780325C0809198
:100670002C0390912D03A0912E03B0912F03892B71
:100680008A2B8B2B09F48ACF0E94660100912C03E0
:1006900010912D0320912E0330912F036C197D09A9
:1006A0008E099F09061717072807390708F076CF24
:1006B00080912B030E94030210922A0310922903B7
:1006C00010920603DF91CF911F910F91FF90EF9051
:1006D000DF90CF9008959D9191938F5F75CF85EEB8
:1006E000B0CF80912C0390912D03A0912E03B09157
:1006F0002F03892B8A2B8B2B09F4A9CF0E9466012B
:1007000000912C0310912D0320912E0330912F0383
:100710006C197D098E099F090617170728073907E5
:1007200008F095CFC5CF089590E080E00895FC01D2
:10073000892B91F08285882379F080819181A28133
:10074000B381892B8A2B8B2B39F081E02085318571
:10075000232B19F080E0089581E00895FC01892B96
:1007600091F08285882379F080819181A281B38183
:10077000892B8A2B8B2B39F081E020853185232B27
:1007800019F080E0089581E00895FC01892B91F033
:100790008285882379F080819181A281B381892B20
:1007A0008A2B8B2B39F081E020853185232B19F0A2
:1007B00080E0089581E00895FC01892B91F0828505
:1007C000882379F080819181A281B381892B8A2B42
:1007D0008B2B39F081E020853185232B19F080E0C7
:1007E000089581E00895FC01892B91F0828588238A
:1007F00079F080819181A281B381892B8A2B8B2B07
:1008000039F081E020853185232B19F080E00895AF
:1008100081E00895CF93DF93FC01C085D185CE019F
:100820000E949703811109C081E0488159816A8142
:100830007B81452B462B472B09F480E0DF91CF913C
:1008400008950F931F93CF93DF938C01FC01C08514
:10085000D185CE010E94AE0381110EC0F801208126
:100860003181220F331F88859985820F931FDF9175
:10087000CF911F910F91089590E080E0F8CF0F93F2
:100880001F93CF93DF938C01FC01C085D185CE01EE
:100890000E94C503811112C0F801808191814AE054
:1008A000489F9001499F300D112488859985820FBA
:1008B000931FDF91CF911F910F91089590E080E0F9
:1008C000F8CF0F931F93CF93DF93EC018885998521
:1008D0000E94AE03811111C06C817D818E819F8148
:1008E000088119812A813B81601B710B820B930B5C
:1008F000DF91CF911F910F91089560E070E0CB01DF
:10090000F7CF0F931F93CF93DF93EC0108851985E1
:10091000C8010E94DC0381110CC0F801808591851B
:1009200028813981820F931FDF91CF911F910F9101
:10093000089590E080E0F8CFDC011896ED91FC91ED
:1009400019973097D1F082858823B9F04081518181
:1009500062817381452B462B472B79F080859185E9
:10096000009769F04D915C916FE0649F9001659FE5
:10097000300D1124820F931F089590E080E00895B8
:10098000EF92FF920F931F93CF93DF9300D0CDB7D9
:10099000DEB78C010E940A048823F1F0D801189672
:1009A000ED90FC90C7010E949703811120C0F801CF
:1009B00020813181220F331FD70118968D919C9190
:1009C000820F931FDC01ED91FC910480F581E02DF5
:1009D000BE016F5F7F4F099589819A810F900F90BB
:1009E000DF91CF911F910F91FF90EF90089590E0CC
:1009F00080E0E8CFCF93DF93EB0102960E94C00422
:100A000099838883DF91CF910895CF93DF93EB0192
:100A100002960E94C00499838883DF91CF91089544
:100A2000CF93DF93EB0102960E94C00499838883E1
:100A3000DF91CF9108950E943F04FC018081918154
:100A40000895CF93DF93EC010E943F04FC01848161
:100A50009581009729F4CE01DF91CF910C941B056D
:100A6000DF91CF910895DC011896ED91FC911997D3
:100A70003097D1F082858823B9F04081518162811D
:100A80007381452B462B472B79F080859185009704
:100A900069F04D915C916AE0649F9001659F300D13
:100AA0001124820F931F089590E080E00895DC01E7
:100AB0001896ED91FC9119973097D1F08285882393
:100AC000B9F04081518162817381452B462B472BC0
:100AD00079F080859185009769F04D915C9166E091
:100AE000649F9001659F300D1124820F931F08951C
:100AF00090E080E008950F931F93CF93DF938C01D4
:100B0000FC01C085D185CE010E94F303811110C084
:100B1000F80120813181220F331F220F331F888576
:100B20009985820F931FDF91CF911F910F910895A7
:100B300090E080E0F8CF8F929F92AF92BF92CF92D9
:100B4000DF92EF92FF920F931F93CF93DF938C016D
:100B50006A017B010E9461044B015C01C8010E9493
:100B60002104EC01C814D904EA04FB0490F4CC0C71
:100B7000DD1CCC0DDD1DCE01DF91CF911F910F91BA
:100B8000FF90EF90DF90CF90BF90AF909F908F90AD
:100B90000895F801808591850E94AE038111EBCF05
:100BA00081149104A104B10431F3C701B601A50178
:100BB00094010E94D527660F771FC60FD71FDBCF82
:100BC000CF93DF93EC01888599850E94C50381113D
:100BD0000DC0CE010E943F0421E0FC018681978177
:100BE000A085B185892B8A2B8B2B09F020E0822FE1
:100BF000DF91CF910895CF93DF93EC010E94E00540
:100C000081110BC0CE010E943F04FC0166817781F7
:100C100080859185DF91CF91089560E070E0CB01F0
:100C2000F9CF0F931F93CF93DF93EC010E94E00560
:100C3000811121C0CE010E943F048C01DC0112967B
:100C4000ED91FC91309791F4CE010E941B05F801C3
:100C500093838283CE010E943F04DC0112968D9122
:100C60009C91DF91CF911F910F9108958281938183
:100C7000009769F7E9CF90E080E0F3CF0F931F93DF
:100C8000CF93DF93EC010E94E00581111AC0CE01E1
:100C90000E943F048C01FC0182819381892B31F4F5
:100CA000CE010E941B05F80193838283CE010E942E
:100CB0003F04FC0182819381DF91CF911F910F91BD
:100CC000089590E080E0F8CF0E943F04FC0180810D
:100CD000918108950F931F93CF93DF93EC01888543
:100CE00099850E94DC03811111C06C817D818E8108
:100CF0009F81088119812A813B81601B710B820BC6
:100D0000930BDF91CF911F910F91089560E070E0F8
:100D1000CB01F7CF8F929F92AF92BF92CF92DF928B
:100D2000EF92FF920F931F93CF93DF938C014A01B1
:100D30005B010E946A066B017C01C8010E9481046C
:100D4000EC018C149D04AE04BF0480F4C80DD91DC1
:100D5000CE01DF91CF911F910F91FF90EF90DF9027
:100D6000CF90BF90AF909F908F900895F8018085AD
:100D700091850E94DC038111EBCFC114D104E10401
:100D8000F10431F3C501B401A70196010E94D527F2
:100D9000C60FD71FDDCFCF92DF92EF92FF920F9356
:100DA0001F93CF93DF93EC016A017B0188859985BE
:100DB0000E94F303182FCE010E947B05111117C06A
:100DC0004C815D816E817F81088119812A813B81FF
:100DD000401B510B620B730BC416D506E606F706D3
:100DE00030F4CC0CDD1CCC0CDD1C8C0D9D1DDF917A
:100DF000CF911F910F91FF90EF90DF90CF900895CA
:100E0000462F50E070E060E00C960E948A06FC01DC
:100E10009081911103C085E2808308959150908361
:100E20000895462F50E070E060E00C960E948A061C
:100E3000FC01808190E0019666E270E00E94C1278B
:100E4000808308952F923F924F925F926F927F928C
:100E50008F929F92AF92BF92CF92DF92EF92FF92CA
:100E60000F931F93CF93DF93CDB7DEB72C970FB6B9
:100E7000F894DEBF0FBECDBF8091B002811117C0C4
:100E80000E9466017B018C016093A802F092A90286
:100E90008093AA021093AB021092AC021092AD02A2
:100EA0001092AE021092AF0281E08093B0020E94D5
:100EB00066017B018C016983FA828B831C837090AD
:100EC000A8028090A9029090AA02F090AB02FC8642
:100ED0000091AC020B87B091AD02F091AE02E091AF
:100EE000AF022090A0023090A1024090A202509048
:100EF000A3026090A402A091A5021091A6021987F6
:100F00002091A7022A87272D382D492D5F2D602F8C
:100F10007B2F8F2F9E2FAE2CBA80CB80DC80E12CD4
:100F2000F12C00E010E00E947A2809F008F466C075
:100F30009101A201662D7A2F89859A85AFEF0E94D3
:100F40006528A72CB82CC92CDC84EB84FB2E0F2F32
:100F50001E2F0E947128A980BA80CB80DC80E12CF2
:100F6000F12C00E010E00E945C282093A002309356
:100F7000A1024093A2025093A3026093A402709333
:100F8000A5028093A6029093A702A092A802B09215
:100F9000A902C092AA02D092AB021092AC021092A7
:100FA000AD021092AE021092AF022091A0023091D9
:100FB000A1024091A2025091A3026091A4027091FB
:100FC000A5028091A6029091A7022C960FB6F894E4
:100FD000DEBF0FBECDBFDF91CF911F910F91FF906C
:100FE000EF90DF90CF90BF90AF909F908F907F90C9
:100FF0006F905F904F903F902F9008959101A201C4
:10100000662D7A2F89859A85A72CB82CC92CDC846B
:10101000EB84FB2E0F2F1E2F0E947128A980BA800F
:10102000CB80DC80E12CF12C00E010E00E945C28F9
:101030002093A0023093A1024093A2025093A302F6
:101040006093A4027093A5028093A6029093A702D6
:10105000A092A802B092A902C092AA02D092AB02BA
:101060009CCF0E946A06623071058105910528F0C7
:101070006150710981099109089560E070E0CB0128
:1010800008958F929F92AF92BF92CF92DF92EF928C
:10109000FF920F931F93CF93DF93962E10E000E003
:1010A000B12CC82FD0E0CE0182559F4F7C01FE01AC
:1010B000E656FF4F6F01CA57DF4F61E0892D0E944E
:1010C000E300F7018491F601A490FE01849088204A
:1010D00071F181110E94BA00E82DF0E0EE0FFF1FC0
:1010E000E458FF4FA591B4918C91A82231E009F406
:1010F00030E0832F002E01C0880F0A94EAF7B82A47
:1011000060E0892D0E94E3000F5F1F4F083011053A
:10111000A1F68B2DDF91CF911F910F91FF90EF9052
:10112000DF90CF90BF90AF909F908F90089580E018
:10113000E1CF2F923F924F925F926F927F928F9268
:101140009F92AF92BF92CF92DF92EF92FF920F9356
:101150001F93CF93DF9300D000D0CDB7DEB79C8331
:101160008B837A836983DC011696DC901697179639
:10117000EC9017971896FC90189719960C91199760
:101180001A961C911A971B96BC91FC01C484B584D5
:101190002D2D3E2D4F2D502F612F7B2F8C2D9B2DD4
:1011A000ABE10E94832809F46CC0ABE20E94832863
:1011B00009F433C1A0E00E94832809F081C1109294
:1011C000DF021092E0021092E1021092E20210920D
:1011D000E4021092E30281E08093DE02AB81BC81E5
:1011E00058968C9158979FEF980F58969C935897C4
:1011F00018160CF0F1C08BE116968C931697179683
:101200001C92179718961C92189719961C9219976A
:101210001A961C921A971B961C921B971C961C924E
:101220001C971D961C921092DF021092E002109201
:10123000E1021092E2028BE190E09093E40280934D
:10124000E30282E08093DE0281E090E0A981BA812E
:101250008D939C930F900F900F900F90DF91CF91F3
:101260001F910F91FF90EF90DF90CF90BF90AF90C4
:101270009F908F907F906F905F904F903F902F90B6
:10128000089561E084E00E94E30061E085E00E944F
:10129000E30061E082E00E94E300EB81FC81808D4D
:1012A00021E030E001C0220F8A95EAF741E06DE0CD
:1012B00083E00E94110160E082E00E94E30064E0AC
:1012C00086E00E944108182FAB81BC8158968C9013
:1012D0005897082C000C9908AA08BB08B501A4016E
:1012E0007D01BEE0EB0EF11CC7010E949B05212F82
:1012F00030E0FC0131832083B501A401C7010E94C5
:101300009B05FC0180811082818364E086E00E945D
:101310004108182FAB81BC8158968C90082C000C8A
:101320009908AA08BB08B501A401C7010E949B0542
:10133000FC0120813181212B31832083B501A4015F
:10134000C7010E949B05DC01ED90FC900CE310E0CE
:10135000E114F104C1F1E0FE2EC080EC93E00E94A4
:101360000A04882341F1C090C803D090C903C60184
:101370000E949703811124C08091C0039091C10302
:10138000880F991FF60120853185820F931FAB814D
:10139000BC8158962C91A801420F511D27FD5A95EA
:1013A00046575E4FDC01ED91FC910480F581E02D04
:1013B00070E060E00995F694E79404501109C8CFF5
:1013C00090E080E0E4CF60E084E00E94E30060E031
:1013D00085E00E94E30002CF84E0EB81FC81808FF6
:1013E0000E942207A8EEAA2EB3E0BB2EC12CD12C5E
:1013F000E12CF12C00E010E00E94FF2749015A0186
:10140000F2E38F0E911CA11CB11CAB81BC81129622
:101410008D929D92AD92BC9215970E942207EB810E
:10142000FC81C280D380E480F58016012701E8EEBC
:10143000AE2EF3E0BF2EC12CD12CE12CF12C00E01C
:1014400010E00E94FF2759016A017B018C01910184
:10145000A20160E070E080E090E00E947A2809F04C
:1014600008F4BCCE8BE2AB81BC8116968C931697A8
:1014700017961C92179718961C92189719961C92FB
:1014800019971A961C921A971B961C921B971C96DA
:101490001C921C971D961C928BE290E09093E402A4
:1014A0008093E30282E390E0A0E0B0E08093DF026B
:1014B0009093E002A093E102B093E20284E0C2CEF6
:1014C000EB81FC81128213821482158216821782AC
:1014D0001086118612861386148615861092DF02F6
:1014E0001092E0021092E1021092E2021092E402E5
:1014F0001092E30288E08093DE028FEF9FEFA6CE8A
:101500000F931F93CF938C01C62F0E94AC026C2FB8
:101510006460C8010E94AC026C2F6B7FC8010E94FE
:10152000AC0283EC90E00197F1F7CF911F910F91FE
:1015300008950F931F93CF93DF938C01D62FC42F61
:10154000607F642B0E94800A80E1D89FB001112443
:101550006C2BC801DF91CF911F910F910C94800AE1
:10156000CF93DF93CDB7DEB728970FB6F894DEBFE1
:101570000FBECDBF98E0E6E0F1E0DE0111960190EC
:101580000D929A95E1F79091BC03961708F46FEFCE
:10159000262F30E0220F331F41E050E04C0F5D1F3B
:1015A000240F351FF9016081680F606840E084EB0B
:1015B00093E028960FB6F894DEBF0FBECDBFDF9143
:1015C000CF910C94990A41E00E94990A81E090E041
:1015D0000895AF92BF92CF92DF92EF92FF920F9356
:1015E0001F93CF93DF938C010E94E005811167C0A8
:1015F000C8010E943F045C01FC01C481D581209791
:1016000021F4C8010E946406EC01EA80FB80CC80D2
:10161000DD80E114F10419F4F501D582C482C8011A
:101620000E943F04C114D10419F4FC01F182E0824C
:10163000C8010E943F045C01FC01828193818C17E8
:101640009D0769F4C8010E94E005811108C0209738
:1016500089F5C8010E946406F50182839383C11451
:10166000D10419F0F601F382E282EA81FB8130971E
:1016700011F0D582C48219821882C8010E943F04E9
:10168000FC0146815781608571854150510961098E
:1016900071094683578360877187CE01DF91CF91AF
:1016A0001F910F91FF90EF90DF90CF90BF90AF9080
:1016B0000C944B29E114F10461F2C701CDCFDF9105
:1016C000CF911F910F91FF90EF90DF90CF90BF903F
:1016D000AF900895CF93DF93EC01CE010E94E00517
:1016E000811104C0CE010E94E90AF7CFDF91CF91AA
:1016F00008950F931F93CF938C010C960E946A0B51
:10170000C80146960E946A0B03E311E0C0E060E066
:101710008C2F0E94B00AF80161918F0184EB93E055
:101720000E94E30ACF5FC13191F702E211E0C0E00D
:1017300061E08C2F0E94B00AF80161918F0184EB67
:1017400093E00E94E30ACF5FC13191F7CF911F91DF
:101750000F910895CF93DF93EB0102960E94790BCE
:101760008FEF9FEF99838883DF91CF9108950F9337
:101770001F93CF93DF93DC01ED91FC913097E9F15A
:101780004081518162817381411551056105710567
:10179000A1F18C01DB01CA010197A109B109808384
:1017A0009183A283B3834130510561057105D9F45A
:1017B000F801C081D181209789F0888599850097AB
:1017C00069F02A85222351F020FD0E944B291A86B8
:1017D00019861886188219821A821B82D8018D9167
:1017E0009C910E944B29F8011182108281E090E0C7
:1017F000DF91CF911F910F9108958FEF9FEFF8CF59
:10180000EF92FF920F931F93CF93DF93EC017B0135
:1018100008960E94B70BF70100851185C8010E9448
:10182000C50381110EC019870887F8018081918155
:10183000A281B3810196A11DB11D80839183A283F2
:10184000B383F70180819181A281B38188839983D9
:10185000AA83BB8384819581A681B7818C839D8374
:10186000AE83BF83DF91CF911F910F91FF90EF90D7
:1018700008950F931F93CF93DF93EC018B018CE0BE
:10188000FB01DE0101900D928A95E1F71C861D8611
:101890001E861F86188A198A1A8A1B8A1D8A1C8A24
:1018A000645F7F4FCE010C960E94000C1E8A1F8A37
:1018B000188E198E1A8E1B8E1C8E1D8E1F8E1E8EDC
:1018C000B8016A5E7F4FCE014696DF91CF911F919E
:1018D0000F910C94000CEF92FF920F931F93CF93F4
:1018E000DF93EC01E884F984C7010E94C5038E01EF
:1018F000085F1F4F811109C0F70180819181A2818A
:10190000B3810297A105B10518F4CE010E946A0BBC
:10191000C801DF91CF911F910F91FF90EF900C9430
:10192000B70BCF93DF93EC0146960E946B0CCE0170
:101930000C96DF91CF910C946B0C26E631E0FC0104
:1019400021933193CF010C94910C0F931F93CF935C
:10195000DF93DC01ED91FC913097E9F140815181F9
:10196000628173814115510561057105A1F18C01F9
:10197000DB01CA010197A109B10980839183A28388
:10198000B3834130510561057105D9F4F801C08177
:10199000D181209789F088859985009769F02A85FB
:1019A000222351F020FD0E944B291A8619861886A1
:1019B000188219821A821B82D8018D919C910E94F3
:1019C0004B29F8011182108281E090E0DF91CF91E4
:1019D0001F910F9108958FEF9FEFF8CF22E531E02F
:1019E000FC013183208346960C94A50CEF92FF9264
:1019F0000F931F93CF93DF93EC018B018CE0FB01DE
:101A0000DE0101900D928A95E1F71C861D861E86E7
:101A10001F86188A198A1A8A1B8A1D8A1C8ACE0177
:101A200044960E94A50CF801E488F588C7010E943D
:101A3000AE0381110EC0FD8AEC8AF701808191818D
:101A4000A281B3810196A11DB11D80839183A283E0
:101A5000B383F80184859585A685B7858C879D8796
:101A6000AE87BF8780899189A289B389888B998B3A
:101A7000AA8BBB8B86898E8BDF91CF911F910F91A3
:101A8000FF90EF9008950F931F93CF93DF93DC01A6
:101A9000ED91FC913097E9F1408151816281738130
:101AA0004115510561057105A1F18C01DB01CA01E8
:101AB0000197A109B10980839183A283B383413047
:101AC000510561057105D9F4F801C081D1812097D4
:101AD00089F088859985009769F02A85222351F03D
:101AE00020FD0E944B291A861986188618821982B1
:101AF0001A821B82D8018D919C910E944B29F8017A
:101B00001182108281E090E0DF91CF911F910F91BF
:101B100008958FEF9FEFF8CF0F931F93CF93DF932D
:101B2000EC018B01188219821A821B821C821D8291
:101B30001E821F821986188608960E94430DD801BE
:101B40001896ED91FC913097E1F082858823C9F0D9
:101B500080819181A281B381892B8A2B8B2B89F083
:101B600080859185892B69F0F987E887808191814B
:101B7000A281B3810196A11DB11D80839183A283AF
:101B8000B383F80180819181A281B3818883998395
:101B9000AA83BB8384819581A681B7818C839D8331
:101BA000AE83BF83DF91CF911F910F9108950F9363
:101BB0001F93CF93DF93DC01ED91FC913097E9F116
:101BC0004081518162817381411551056105710523
:101BD000A1F18C01DB01CA010197A109B109808340
:101BE0009183A283B3834130510561057105D9F416
:101BF000F801C081D181209789F088859985009767
:101C000069F02A85222351F020FD0E944B291A8673
:101C100019861886188219821A821B82D8018D9122
:101C20009C910E944B29F8011182108281E090E082
:101C3000DF91CF911F910F9108958FEF9FEFF8CF14
:101C40000F931F93CF93DF93DC01ED91FC913097BD
:101C5000E9F140815181628173814115510561052E
:101C60007105A1F18C01DB01CA010197A109B1093C
:101C700080839183A283B38341305105610571054F
:101C8000D9F4F801C081D181209789F088859985A0
:101C9000009769F02A85222351F020FD0E944B29EC
:101CA0001A8619861886188219821A821B82D80110
:101CB0008D919C910E944B29F8011182108281E044
:101CC00090E0DF91CF911F910F9108958FEF9FEFDB
:101CD000F8CFCF93DF93EC0184E891E09983888378
:101CE000CE01C6960E94200ECE010296DF91CF91C2
:101CF0000C94910C2AE731E0FC0131832083469655
:101D00000C94200EEF92FF920F931F93CF93DF93CB
:101D1000EC018B018CE0FB01DE0101900D928A95B4
:101D2000E1F71C861D861E861F86188A198A1A8A64
:101D30001B8A1D8A1C8ACE0144960E94200EF8013F
:101D4000E488F588C7010E94DC0381110EC0FD8A7A
:101D5000EC8AF70180819181A281B3810196A11D56
:101D6000B11D80839183A283B383F8018485958517
:101D7000A685B7858C879D87AE87BF878089918927
:101D8000A289B389888B998BAA8BBB8BDF91CF916A
:101D90001F910F91FF90EF900895EF92FF920F9394
:101DA0001F93CF93DF93EC018B0108960E94200EC6
:101DB000F801E084F184C7010E94DC03811105C0B1
:101DC000F986E886F80111861086F80180819181F4
:101DD000A281B38188839983AA83BB8384819581FF
:101DE000A681B7818C839D83AE83BF83DF91CF9122
:101DF0001F910F91FF90EF900895CF93DF93EC0127
:101E00000E94690ECE01DF91CF910C944B29CF93A4
:101E1000DF93EC010E947A0ECE01DF91CF910C94FA
:101E20004B29CF93DF93EC010E949D0CCE01DF91F3
:101E3000CF910C944B29CF93DF93EC010E94EE0CD1
:101E4000CE01DF91CF910C944B29EF92FF920F932B
:101E50001F93CF93DF93DB01ED91FC91309709F451
:101E60006DC080819181A281B3810097A105B105E8
:101E700009F464C08B01AC01BD01415051096109F5
:101E8000710940835183628373830197A105B10572
:101E900009F040C0F801C081D1812097B1F1888557
:101EA0009985009791F12A85222379F120FF26C098
:101EB0004C815D816E817F81452B462B472BB1F193
:101EC000FC01329720813181220F331F820F931F33
:101ED0007C01F2E0EF1AF1082885398528173907C7
:101EE00051F0D701ED91FC910190F081E02DC701F7
:101EF0000995C701EDCFC7010E944B291A861986A3
:101F00001886188219821A821B82F80180819181B9
:101F10000E944B29D8011D921C9281E090E0DF9134
:101F2000CF911F910F91FF90EF900895DC01ED91FB
:101F3000FC910280F381E02D0995E0CF8FEF9FEFB8
:101F4000EECFBC01685F7F4F0C94250FEF92FF929C
:101F50000F931F93CF93DF93EC017B0118821982BB
:101F60001A821B821C821D821E821F82198618867D
:101F70000E94A10FF70100851185C8010E949703F7
:101F800081110EC019870887F80180819181A28193
:101F9000B3810196A11DB11D80839183A283B38378
:101FA000F70180819181A281B38188839983AA837B
:101FB000BB8384819581A681B7818C839D83AE8309
:101FC000BF83DF91CF911F910F91FF90EF90089504
:101FD0000F931F93CF93DF938C01EB010E94A60F09
:101FE000BE01665F7F4FC8010A96DF91CF911F91B6
:101FF0000F910C948C0D20E731E0FC01219331937B
:10200000CF010C94A10FCF93DF93EC010E94FB0F43
:10201000CE01DF91CF910C944B292CE531E0FC01EE
:1020200021933193CF010C94A10FCF93DF93EC0157
:102030000E940D10CE01DF91CF910C944B2928E422
:1020400031E0FC0121933193CF010C94A10FCF9388
:10205000DF93EC010E941F10CE01DF91CF910C9411
:102060004B29CF93DF93EC0142960E94430DCE01A2
:10207000DF91CF910C94A10FEF92FF920F931F93DA
:10208000CF93DF93DB01ED91FC91309709F46DC0A4
:1020900080819181A281B3810097A105B10509F4E6
:1020A00064C08B01AC01BD01415051096109710946
:1020B00040835183628373830197A105B10509F0C1
:1020C00040C0F801C081D1812097B1F18885998500
:1020D000009791F12A85222379F120FF26C04C81B7
:1020E0005D816E817F81452B462B472BB1F1FC0131
:1020F000329720813181220F331F820F931F7C0181
:10210000F2E0EF1AF108288539852817390751F0D0
:10211000D701ED91FC910190F081E02DC701099567
:10212000C701EDCFC7010E944B291A861986188670
:10213000188219821A821B82F801808191810E9483
:102140004B29D8011D921C9281E090E0DF91CF9144
:102150001F910F91FF90EF900895DC01ED91FC919C
:102160000280F381E02D0995E0CF8FEF9FEFEECF56
:10217000AF92BF92CF92DF92EF92FF920F931F9395
:10218000CF93DF938C01EB010E94E005811168C0C1
:10219000C8010E943F045C01209709F05BC0C801A0
:1021A0000E942105EC01EA80FB80CC80DD80E114F7
:1021B000F10419F4F501D582C482C8010E943F04DC
:1021C000CD2819F4FC01F182E082C8010E943F048D
:1021D000FC01828193818C179D0719F4C8010E942C
:1021E0001106EC81FD81309721F08A819B819383D8
:1021F0008283AA81BB81109721F01596FC93EE9300
:10220000149719821882C8010E943F04FC0146817C
:102210005781608571854150510961097109468373
:102220005783608771871B821A821D821C822097C8
:10223000B9F0CE0106960E943110CE01DF91CF9108
:102240001F910F91FF90EF90DF90CF90BF90AF90D4
:102250000C944B2988819981A816B90609F4A3CF5B
:10226000DF91CF911F910F91FF90EF90DF90CF9072
:10227000BF90AF900895EF92FF920F931F93CF936B
:10228000DF93EC01E884F984C7010E94C5038E0145
:10229000085F1F4F811109C0F70180819181A281E0
:1022A000B3810297A105B10558F4CE010E94E00563
:1022B000811106C070E060E0CE010E94B810F5CF39
:1022C000C801DF91CF911F910F91FF90EF900C9477
:1022D000B70BCF92DF92EF92FF920F931F93CF93A2
:1022E000DF93DB01ED91FC91309709F46BC08081A5
:1022F0009181A281B3810097A105B10509F462C063
:102300008B01AC01BD014150510961097109408344
:102310005183628373830197A105B10509F03FC022
:10232000F801C081D1812097A9F1C884D984C11452
:10233000D10481F18A85882369F180FF24C08C81D2
:102340009D81AE81BF81892B8A2B8B2BB1F1F60148
:102350003297808191812AE0289F7001299FF00C9B
:102360001124EC0CFD1C970188859985FAE0EF1A81
:10237000F1088217930721F0C7010E943B11F3CFA8
:1023800002970E944B291A8619861886188219828C
:102390001A821B82D8018D919C910E944B29F801D1
:1023A0001182108281E090E0DF91CF911F910F9117
:1023B000FF90EF90DF90CF900895C6010E943B11EF
:1023C000C601DFCF8FEF9FEFEFCFEF92FF920F931A
:1023D0001F93CF93DF93DB01ED91FC91309709F4CC
:1023E00070C080819181A281B3810097A105B10560
:1023F00009F467C08B01AC01BD014150510961096D
:10240000710940835183628373830197A105B105EC
:1024100009F04BC0F801C081D181209709F440C078
:10242000E884F984E114F104D9F18A858823C1F1A3
:1024300080FF2FC08C819D81AE81BF81892B8A2B2B
:102440008B2BE9F0F7013297808191814FE0489F13
:102450009001499F300D11242E0D3F1D488559854F
:102460007901FFE0EF1AF108C901029742175307FB
:1024700071F0BC0108970E9469119701EFCFB70175
:10248000635F7F4FC70105960E946911C7010E94D3
:102490004B291A8619861886188219821A821B827D
:1024A000D8018D919C910E944B29F80111821082D4
:1024B00081E090E0DF91CF911F910F91FF90EF901D
:1024C00008958FEF9FEFF6CF009711F481E090E031
:1024D0000C94AF280F931F93CF93DF93DB012D91C3
:1024E0003C91232B41F58B01EC018CE090E00E94A4
:1024F000AF28FC018CE0DF011D928A95E9F7D80135
:10250000ED93FC93188219821A821B821C821D8211
:102510001E821F8281E090E0A0E0B0E08083918382
:10252000A283B38385E0828781E090E0DF91CF9141
:102530001F910F9108958FEF9FEFF8CF0F931F9387
:10254000CF93DF938B01FC011082118212821382E0
:10255000148215821682178211861086BC01685F6C
:102560007F4F0115110531F4DF91CF911F910F912C
:102570000C94250FEC010E946A12019671F0E88517
:10258000F98582858D7F8287E885F98582858160DE
:102590008287E885F98511870087DF91CF911F91A8
:1025A0000F910895CF92DF92EF92FF920F931F93B6
:1025B000CF93DF93CDB7DEB764970FB6F894DEBF45
:1025C0000FBECDBF8C017B010E94E005B7018823BF
:1025D00009F459C0CE0101960E94E80F8AE190E00B
:1025E0000E94AF287C01DC0111961C921E9213966A
:1025F0001C921E92129715961C921E921497BE0161
:102600006F5F7F4F06960E94E80FC8010E943F044B
:10261000FC01F182E082CE0101960E943110C801D6
:102620000E943F04DC01ED91FC9191838083C801FD
:102630000E943F047C01C8010E941B05F70195839D
:102640008483C8010E943F04DC0116964D915D9180
:102650006D917C9119974F5F5F4F6F4F7F4FFC01DA
:10266000468357836087718764960FB6F894DEBF00
:102670000FBECDBFDF91CF911F910F91FF90EF90D3
:10268000DF90CF900895CE0101960E94E80F8AE175
:1026900090E00E94AF287C01DC0111961C921E92F2
:1026A00013961C921E92129715961C921E921497C6
:1026B000BE016F5F7F4F06960E94E80FCE01019624
:1026C0000E943110C8010E943F04F701918380836A
:1026D000C8010E9421056C01DC0114968D919C912A
:1026E000892B31F4C8010E943F04FC01D182C082D1
:1026F000D70112968D919C91892B31F4C8010E94CB
:102700003F04FC01F582E482D7011596DC92CE925B
:102710001497F601F382E28294CF0F931F93CF9325
:10272000DF93DB012D913C91232B41F58B01EC01D3
:102730008CE090E00E94AF28FC018CE0DF011D924C
:102740008A95E9F7D801ED93FC93188219821A82D1
:102750001B821C821D821E821F8281E090E0A0E00D
:10276000B0E080839183A283B38385E0828781E098
:1027700090E0DF91CF911F910F9108958FEF9FEF20
:10278000F8CF0F931F93CF93DF93EC011882198238
:102790001A821B821C821D821E821F821986188645
:1027A00008966115710531F4DF91CF911F910F915A
:1027B0000C94B70B8B01BC01CE010E948D130196C6
:1027C00071F0E885F98582858D7F8287E885F985B6
:1027D000828581608287E885F98511870087DF918E
:1027E000CF911F910F9108950F931F93CF93DF9374
:1027F000DB012D913C91232B41F58B01EC018CE009
:1028000090E00E94AF28FC018CE0DF011D928A95C8
:10281000E9F7D801ED93FC93188219821A821B8282
:102820001C821D821E821F8281E090E0A0E0B0E049
:1028300080839183A283B38385E0828781E090E0E7
:10284000DF91CF911F910F9108958FEF9FEFF8CFF8
:102850008F929F92AF92BF92CF92DF92EF92FF92B0
:102860000F931F93CF93DF93DB01ED91FC91EF2B3F
:1028700009F04DC0812C912C540183942115310510
:102880004105510511F049015A0169017A018B0195
:10289000EC018CE090E00E94AF28FC018CE0DF01AD
:1028A0001D928A95E9F7D801ED93FC93188219825D
:1028B0001A821B82CC82DD82EE82FF8281E090E070
:1028C000A0E0B0E080839183A283B383C482D582E9
:1028D000E682F78284E0828785E08A9489288A28C4
:1028E0008B2829F4CF010B969187808786E0828719
:1028F00081E090E0DF91CF911F910F91FF90EF90D9
:10290000DF90CF90BF90AF909F908F9008958FEF02
:102910009FEFF0CFCF92DF92EF92FF920F931F9332
:10292000CF93DF93DB01ED91FC91EF2B51F4DF911D
:10293000CF911F910F91FF90EF90DF90CF900C946B
:10294000281469017A01EB018C01CB010E94200E51
:10295000019669F4198218828FEF9FEFDF91CF9172
:102960001F910F91FF90EF90DF90CF900895A701F6
:102970009601BE01C8010E942814019659F381E016
:1029800090E0ECCFCF92DF92EF92FF92CF93DF9364
:10299000EB0169017A010E948A148F3F980761F068
:1029A0000990D881C02D8A8581FF0DC0CE010B967C
:1029B0009987888781E090E0DF91CF91FF90EF9039
:1029C000DF90CF900895C114D104E104F10439F4EB
:1029D00081E090E00E94AF28FC011082E9CFC6019F
:1029E0000E946412E5CFEF92FF920F931F93CF9353
:1029F000DF93EC017B01188219821A821B821C82F0
:102A00001D821E821F8219861886BC01685F7F4F57
:102A100022E030E040E050E00E948A14019651F03C
:102A200008851985F801828581FF16C0C8010B96BB
:102A300091878087CE010E948104F7012081FC01EB
:102A40002083F7012181FC012183DF91CF911F9128
:102A50000F91FF90EF90089582E090E00E94641241
:102A6000F801E6CFEF92FF920F931F93CF93DF937E
:102A7000EC0179010896411551056105710591F543
:102A800020E030E0A901BC01CE010E948A14019629
:102A9000B1F008851985D8011A968C911A9781FF93
:102AA00015C0C8010B9619969C938E931897E885CC
:102AB000F9850084F185E02DD7018C918083DF9129
:102AC000CF911F910F91FF90EF90089581E090E0DA
:102AD0000E94AF28F7012081DC012C93F801918737
:102AE0008087EDCF9A01AB01BC01CE010E94C214D8
:102AF00008851985C8010E94DC038111E0CFCE0151
:102B00000E946A06D701FC90672B682B692B31F471
:102B1000CE010E948104FC01F082D1CFD801189629
:102B20000D911C918C819D81080F191FCE010E946F
:102B300081048017910719F2FC01F192CF01F9CFBE
:102B4000CF92DF92EF92FF920F931F93CF93DF9379
:102B5000EC017B018A010E94E005D801DC9088230A
:102B600009F441C087E090E00E94AF288C01FC018D
:102B7000118210821382128215821482D682CE01B3
:102B80000E943F04DC010D931C93CE010E943F0480
:102B9000DC01ED91FC9191838083CE010E943F0482
:102BA0008C01CE010E946406F80195838483CE01D6
:102BB0000E943F04DC0116964D915D916D917C91D0
:102BC00019974F5F5F4F6F4F7F4FFC0146835783CD
:102BD00060877187DF91CF911F910F91FF90EF90E8
:102BE000DF90CF900895E114F10409F44BC0CE01B9
:102BF0000E943F04D7012D913C912817390709F015
:102C000041C087E090E00E94AF288C01FC01118256
:102C100010821382128215821482D682CE010E9403
:102C20003F04D80111969C938E93F701C480D58000
:102C30001596DC92CE921497C114D10429F0D601D6
:102C400013961C930E931297F70182819381892B1F
:102C500041F4CE010E943F04DC011596FC92EE92F5
:102C60001497CD2831F4CE010E943F04FC0111835A
:102C70000083D8011396FC92EE921297F701158308
:102C8000048395CF87E090E00E94AF288C01DC019F
:102C900011961C921E9213961C921E9212971596D4
:102CA0001C921E9214971696DC92CE010E943F044D
:102CB000F80191838083CE010E943F046C01DC0106
:102CC0001496ED90FC90E114F10421F4CE010E94E1
:102CD00064067C01F70184819581892B19F4D60162
:102CE000ED92FC92CE010E943F04FC011583048307
:102CF000D8011596FC92EE921497F7011383028384
:102D000056CFCF93DF93EC018AE090E00E94AF288A
:102D10002AE0FC0111922A95E9F7BC01CE01DF916E
:102D2000CF910C94C113EF92FF920F931F93CF9307
:102D3000DF938091C202811152C08FE090E00E9427
:102D4000AF28EC018FE0FE0111928A95E9F77E0130
:102D5000F5E0EF0EF11C8AE090E00E94AF288C01B4
:102D60008AE090E00E94AF282AE0FC0111922A95A7
:102D7000E9F7BC01C8010E94C1131D821E821F8297
:102D8000188619861A861B861C861E861D86BE011D
:102D9000635F7F4FC7010115110551F50E9469114D
:102DA0001092B8021092B9021092BA021092BB02AD
:102DB0001092BC021092BD021092BE021092BF028D
:102DC0001092C1021092C00260EC72E088EB92E0B7
:102DD000209709F50E94E51181E08093C20288EBFB
:102DE00092E0DF91CF911F910F91FF90EF900895A6
:102DF0000E946A120196A1F2ED85FE8582858D7F83
:102E00008287ED85FE85828581608287ED85FE85DE
:102E100011870087C5CF0E946A120196E9F2E091FE
:102E2000C002F091C10282858D7F81608287D18747
:102E3000C087D2CF85ED8093BC0080912C03909108
:102E40002D03A0912E03B0912F030796A11DB11D54
:102E500023E0B695A795979587952A95D1F7209168
:102E6000BC0024FD03C010927903089540912C0307
:102E700050912D0360912E0370912F03452B462B0B
:102E8000472B69F30097A105B10541F02AE22A9585
:102E9000F1F700C00197A109B109E1CF80912B039F
:102EA0000C940302EF92FF920F931F93CF93DF9343
:102EB0008C01EB017A0188819981892B69F4C80121
:102EC0000E94F4138F3F9807B9F4DF91CF911F91BF
:102ED0000F91FF90EF900895CB010E94430D019652
:102EE00029F4198218828FEF9FEFEFCFBE01C8013E
:102EF0000E94F4130196A9F308811981F8018285D3
:102F000081FF11C0C8010B9691878087E881F98104
:102F1000A085B18586E0F70101900D928A95E1F7D1
:102F200081E090E0D2CF86E090E00E94AF2826E0DA
:102F3000F701DC0101900D922A95E1F7F8019187E4
:102F40008087EECFAF92BF92CF92DF92EF92FF9247
:102F50000F931F93CF93DF93CDB7DEB72B970FB6A9
:102F6000F894DEBF0FBECDBF8C015B0169017A0111
:102F7000C114D104E104F10401F5FC0110821182B5
:102F8000128213821482158216821782118610868D
:102F900008960E94200EC8012B960FB6F894DEBF4B
:102FA0000FBECDBFDF91CF911F910F91FF90EF909A
:102FB000DF90CF90BF90AF9008951B8619821A8240
:102FC0001B821C821D821E821F8218861A86198609
:102FD000BA01A9014F5F5F4F6F4F7F4F9E01255F81
:102FE0003F4FCE0101960E943215CE0101960E94FC
:102FF0008104A601B5010E94D429F8011082118232
:10300000128213821482158216821782118610860C
:10301000BE016F5F7F4FC8010E94CD0ECE010996A1
:10302000B8CF2F923F924F925F926F927F928F9282
:103030009F92AF92BF92CF92DF92EF92FF920F9347
:103040001F93CF93DF93CDB7DEB7A0970FB6F89459
:10305000DEBF0FBECDBF8C01F62E342E222E1D8A70
:103060001E8A1F8A188E198E1A8E1B8E1C8E1E8E1B
:103070001D8E1B8619821A821B821C821D821E8253
:103080001F8218861A8619869E01255F3F4F42E0EF
:1030900050E060E070E0CE0101960E943215CE0152
:1030A00001960E948104DC01FC921B861C861D8611
:1030B0001E861F86188A198A1A8A1C8A1B8ABE01D4
:1030C0006F5F7F4FCE010B960E94CD0ECE01099609
:1030D0000E94200EBE01655F7F4FCE0145960E9483
:1030E000CD0ECE0143960E94200ECE0145960E9441
:1030F0006A06623071058105910540F0C8010E94A1
:103100006A066230710581059105F0F51B861C8603
:103110001D861E861F86188A198A1A8A1C8A1B8A8F
:10312000CE0143960E94D70DCE014D960E94200EEF
:1031300040E050E0BA01CE010B960E94CB06DC01C4
:103140001C91CE0143960E94D70D832D8219810FC9
:1031500087FF33C18A5DA0960FB6F894DEBF0FBE1D
:10316000CDBFDF91CF911F910F91FF90EF90DF9036
:10317000CF90BF90AF909F908F907F906F905F9017
:103180004F903F902F900895C8010E9481046C01D8
:103190008CE090E00E94AF287C018CE0F701119256
:1031A0008A95E9F7FA86E98619821A821B821C82BF
:1031B00082E090E0A0E0B0E08D839E83AF83B8878B
:1031C00041E050E060E070E0F701408351836283AA
:1031D000738384839583A683B78385E0828788E0A1
:1031E00090E00E946412D70119969C938E931897D1
:1031F000E984FA84C7010E94F303F0E0E0E0811162
:103200000CC089819A81880F991F880F991FD70157
:103210001896ED91FC91E80FF91F1082118212822D
:10322000138214821582168217824601412C512C7A
:1032300032014394C12CD12C760198A28F8EC80103
:103240000E9481045C01C8010E943108A60EB71ECD
:10325000CE0145960E9431088A149B0409F44CC0A3
:10326000C616D706E806F90609F448C0BFEF8B1A60
:103270009B0AB701A601CE0145960E948A06FC0171
:10328000AF8DB8A19C918081981318C041E050E0A7
:1032900060E070E0CE0101960E94CB06FC01408206
:1032A000518262827382FFEFCF1ADF0AEF0AFF0AB0
:1032B000FFEF4F1A5F0A6F0A7F0ABFCF40E050E06E
:1032C000BA01CE0101960E94CB06DC014D925D92BF
:1032D0006D927C92139741E050E060E070E0CE0187
:1032E00001960E94CB06FC01408251826282738269
:1032F000C12CD12C7601DCCF6B017C0141E050E088
:1033000060E070E0CE0101960E94CB068C0140E0A7
:1033100050E0BA01CE0101960E94CB069C01F80153
:1033200080819181A281B381F901408151816281C3
:103330007381841B950BA60BB70B1B861C861D8601
:103340001E861F86188A198A1A8A1C8A1B8A8C155F
:103350009D05AE05BF0561F5CE0143960E94D70DD0
:1033600009851A85C8010E94F30381110EC01C8BC8
:103370000B8BF80180819181A281B3810196A11DFF
:10338000B11D80839183A283B38389819A81AB81AC
:10339000BC818B879C87AD87BE878D819E81AF81E5
:1033A000B8858F87988BA98BBA8BCE010996BACE38
:1033B000CE0143960E94D70DF8CF66E20E94B32754
:1033C000892FC9CEAF92BF92CF92DF92EF92FF9238
:1033D0000F931F93CF93DF93CDB7DEB7C455D109B9
:1033E0000FB6F894DEBF0FBECDBF6C011F926F9376
:1033F0008CE992E09F938F931F9280E48F938E01CC
:103400000F5F1F4F1F930F930E94DD299C01990F9F
:10341000440B550B2F961CAE1DAE1EAE1FAE2F9744
:1034200063961CAE1DAE1EAE1FAE639765961FAEB3
:103430001EAE65970FB6F894DEBF0FBECDBF8BE40E
:1034400090E0211531054105510581F0B801CE010B
:103450008F5B9F4F0E94A217BE016F5B7F4FCE0113
:10346000855B9F4F0E94CD0E81E490E08C0F9D1FE5
:1034700008960E94200ECE01855B9F4F0E9481041A
:103480007C01CE01855B9F4F0E9481045C01CE01CF
:10349000855B9F4F0E9431086A0D7B1DE616F7067B
:1034A00031F0F7019081905391937F01F7CFCE01D6
:1034B000855B9F4F0E94310862307105810591053F
:1034C000A9F540E050E0BA01CE01855B9F4F0E9414
:1034D0008A06FC018081898341E050E060E070E071
:1034E000CE01855B9F4F0E948A06FC0180818A8302
:1034F000B801C6010E94F3148BE490E08C0F9D1F6D
:1035000008960E94200EC601CC5ADF4F0FB6F894E1
:10351000DEBF0FBECDBFDF91CF911F910F91FF9006
:10352000EF90DF90CF90BF90AF900895198240E068
:1035300050E0BA01D5CF4F925F927F928F929F92C7
:10354000AF92BF92CF92DF92EF92FF920F931F93B1
:10355000CF93DF93CDB7DEB7A6970FB6F894DEBF53
:103560000FBECDBF4C012B01FC01D680E780F0845B
:1035700001851285B385C484B5842D2D3E2D4F2D34
:10358000502F612F7B2F8C2D9B2DA0E00E94832834
:1035900011F1A0E60E94832869F11282138214823D
:1035A000158216821782108611861286138614865B
:1035B00015861092DF021092E0021092E102109242
:1035C000E2021092E4021092E30288E08093DE02AD
:1035D0008FEF9FEF65C21092DF021092E00210920F
:1035E000E1021092E2021092E4021092E30281E002
:1035F0008093DE0261E087E00E94E30061E088E002
:103600000E94E30067E089E00E944108782E60E0B4
:1036100088E00E94E30060E087E00E94E300D09031
:10362000CE02E090CF02F090D0020091D102109132
:10363000D202B091D302F091D402E091D5022D2DA7
:103640003E2D4F2D502F612F7B2F8F2F9E2FACE1C2
:103650000E94832809F49FC00E94832809F058F52E
:10366000A0E00E94832809F487C01092CA02109239
:10367000CB021092CC021092CD021092CE02109288
:10368000CF021092D0021092D1021092D202109268
:10369000D3021092D4021092D5021092DF0210923F
:1036A000E0021092E1021092E2021092E402109203
:1036B000E30288E092C0A9E20E94832809F4FFC0D7
:1036C000AAE20E94832889F60E942207A090CA02DB
:1036D000B090CB02C090CC02D090CD0276016701B1
:1036E000E12CF12C8701AF8EB8A2C9A2DAA2EBA21D
:1036F000FCA20DA31EA3E8EEAE2EF3E0BF2EC12C5C
:10370000D12CE12CF12C00E010E00E94FF275901A0
:103710006A017B018C012F8D38A149A15AA160E07B
:1037200070E080E090E00E947A28A9F1A0F18AE29E
:103730008093CE021092CF021092D0021092D1024A
:103740001092D2021092D3021092D4021092D5029B
:103750008AE290E09093E4028093E30282E390E0B7
:10376000A0E0B0E08093DF029093E002A093E1023A
:10377000B093E20284E031C01092DF021092E002C6
:103780001092E1021092E2021092E4021092E3021F
:1037900081E08093DE02711047C08CE18093CE02FD
:1037A0001092CF021092D0021092D1021092D20247
:1037B0001092D3021092D4021092D5021092DF021E
:1037C0001092E0021092E1021092E2028CE190E08D
:1037D0009093E4028093E30282E08093DE02D09033
:1037E000D602E090D702F090D8020091D902109151
:1037F000DA02B091DB02F091DC02E091DD022D2DC6
:103800003E2D4F2D502F612F7B2F8F2F9E2FA0E00D
:103810000E94832809F471C0A6E40E94832809F459
:103820007BC01092D60211C171FE03C0F0E0E0E04F
:10383000099584010E5F1F4F76FE2CC062E0C8011F
:103840000E94000774FE2DC061E0C8010E940007BD
:1038500072FE2EC060E0C8010E94000789E28093DA
:10386000CE021092CF021092D0021092D10210928A
:10387000D2021092D3021092D4021092D50210926A
:10388000DF021092E0021092E1021092E20289E25D
:1038900090E09ECF77FED6CF62E0C8010E9411076C
:1038A000D1CF75FED5CF61E0C8010E941107D0CFFE
:1038B00073FED4CF60E0C8010E941107CFCF711012
:1038C000CDCF0E942207A8EEAA2EB3E0BB2EC12CBA
:1038D000D12CE12CF12C00E010E00E94FF27DA014E
:1038E000C901C296A11DB11D8093CA029093CB025B
:1038F000A093CC02B093CD02E7CE1092DF021092DB
:10390000E0021092E1021092E2021092E4021092A0
:10391000E30281E08093DE0240E050E0BA018401DE
:10392000025F1F4FC8010E948A06FC016081CE0120
:1039300045960E94E21941E050E060E070E0C80165
:103940000E948A06FC016081CE010B960E94E2195A
:1039500042E050E060E070E0C8010E948A06FC018D
:103960006081CE0101960E94E21960E08BE00E9426
:10397000E30040E050E0BA01CE0145960E948A067D
:10398000FC01808160E090E00E943B0140E050E05B
:10399000BA01CE010B960E948A06FC01808160E08C
:1039A00090E00E943B0140E050E0BA01CE01019658
:1039B0000E948A06FC01808160E090E00E943B0149
:1039C00061E08BE00E94E30060E08BE00E94E30096
:1039D00041E050E060E070E0CE0145960E948A062A
:1039E000FC01808161E090E00E943B0141E050E0F9
:1039F00060E070E0CE010B960E948A06FC01808197
:103A000061E090E00E943B0141E050E060E070E046
:103A1000CE0101960E948A06FC01808161E090E05F
:103A20000E943B0161E08BE00E94E300CE01099619
:103A30000E94200ECE0143960E94200ECE014D968C
:103A40000E94200E86E48093D6021092D702109234
:103A5000D8021092D9021092DA021092DB02109270
:103A6000DC021092DD0280E6F40186831782108664
:103A7000118612861386148615861092DF02109224
:103A8000E0021092E1021092E20280E690E0909350
:103A9000E4028093E30282E08093DE0281E090E022
:103AA000F20191838083A6960FB6F894DEBF0FBE15
:103AB000CDBFDF91CF911F910F91FF90EF90DF90DD
:103AC000CF90BF90AF909F908F907F905F904F90DE
:103AD00008950F931F93CF93DF93CDB7DEB72A9747
:103AE0000FB6F894DEBF0FBECDBF8C01FC01108273
:103AF0001182128213821482158216821782118615
:103B00001086FB0101900020E9F73197E61BF70BC7
:103B10009F0150E040E0CE0101960E94A217BE0135
:103B20006F5F7F4FC8010E94CD0ECE0109960E94A3
:103B3000200E2A960FB6F894DEBF0FBECDBFDF91E0
:103B4000CF911F910F910895AF92BF92CF92DF92C4
:103B5000EF92FF920F931F93CF93DF93CDB7DEB712
:103B60002B970FB6F894DEBF0FBECDBF7C01FA01D4
:103B7000D080FCE3DF1214C002960E94790B2B96D2
:103B80000FB6F894DEBF0FBECDBFDF91CF911F916E
:103B90000F91FF90EF90DF90CF90BF90AF9008957E
:103BA0005C0182E2A80EB11C8701025D1F4F41E05B
:103BB00050E060E070E0C8010E948A06FC0180814C
:103BC000811104C062E0C5010E94110740E050E08D
:103BD000BA01C8010E948A06FC018081811104C0DB
:103BE00061E0C5010E94110760E0C5010E94110754
:103BF00041E050E060E070E0C8010E948A06FC01EC
:103C0000B08040E050E0BA01C8010E948A06FC0181
:103C1000C08067E572E0CE0101960E94691D2B2DE0
:103C20004C2D6D2DCE0101960E941118E82FF0E069
:103C3000E05DFD4FC080CE0109960E94200E42E05B
:103C400050E060E070E0C8010E948A06FC01A0809C
:103C500041E050E060E070E0C8010E948A06FC018B
:103C6000B08069E072E0CE0101960E94691D2A2DA4
:103C70004B2D6C2DCE0101960E941118E82FF0E01B
:103C8000E95AFD4FC080CE0109960E94200E42E005
:103C900050E060E070E0C8010E948A06FC01B0803C
:103CA00062EE71E0CE0101960E94691D20E04B2D6D
:103CB0006C2DCE0101960E941118E82FF0E0E75F0D
:103CC000FD4FC080CE0109960E94200E42E050E0D8
:103CD00060E070E0C8010E948A06FC01B08069E0E3
:103CE00072E0CE0101960E94691D2B2D40E06C2DE3
:103CF000CE0101960E941118E82FF0E0E554FE4F26
:103D0000C080CE0109960E94200E41E050E060E0A4
:103D100070E0C8010E948A06FC01A08042E050E0E9
:103D200060E070E0C8010E948A06FC01B08067E58F
:103D300072E0CE0101960E94691D2A2D4B2D6C2D3B
:103D4000CE0101960E941118E82FF0E0E75FFD4FC9
:103D5000C080CE0109960E94200E40E050E0BA01DA
:103D6000C8010E948A06FC01B08041E050E060E09A
:103D700070E0C8010E948A06FC01108160E372E0D5
:103D8000CE0101960E94691D2B2D412F6C2DCE0175
:103D900001960E941118E82FF0E0E95AFD4F1081BA
:103DA000CE0109960E94200E1B87D9826701FEE092
:103DB000CF0ED11CC6010E946406AE01455F5F4F65
:103DC000BC01C6010E94A015C6010E94FB05663019
:103DD00071058105910518F0C6010E94E90A870165
:103DE000085E1F4FC8010E946406AE014F5F5F4F1F
:103DF000BC01C8010E94A015C8010E94FB056630E5
:103E000071058105910518F0C8010E94E90AC601F3
:103E10000E9464066C0197E0F92EC114D104A1F050
:103E200060E08F2D0E94B00AF601668184EB93E07A
:103E30000E94E30AF7E0FF1202C086E0F82EF601C6
:103E4000C280D380FA94E9CFC8010E9464067C0145
:103E500017E0E114F10409F492CE61E0812F0E9491
:103E6000B00AF701668184EB93E00E94E30A173001
:103E700009F416E0F701E280F3801150EACF1F92B7
:103E80000F920FB60F9211242F933F938F939F930E
:103E9000AF93BF938091A0039091A103A091A2033F
:103EA000B091A30330919F0323E0230F2D3758F5E2
:103EB0000196A11DB11D20939F038093A0039093B1
:103EC000A103A093A203B093A3038091A4039091B4
:103ED000A503A091A603B091A7030196A11DB11D52
:103EE0008093A4039093A503A093A603B093A70384
:103EF000BF91AF919F918F913F912F910F900FBEE6
:103F00000F901F90189526E8230F0296A11DB11D52
:103F1000D2CF1F920F920FB60F9211242F933F937F
:103F20004F935F936F937F938F939F93AF93BF93C1
:103F3000EF93FF938091B900887F803609F44AC0DF
:103F4000F0F5883209F4A7C018F5803109F49BC058
:103F5000B8F4882309F4F9C0883009F494C0FF91BB
:103F6000EF91BF91AF919F918F917F916F915F91F1
:103F70004F913F912F910F900FBE0F901F9018956A
:103F8000883109F488C0803251F78093780314C0D7
:103F9000803409F49DC040F48033B9F38833F9F6D6
:103FA0008093780385ECB0C0803509F485C08835EE
:103FB00009F496C0883499F60E941A17D0CF883930
:103FC00009F48CC038F5883729F050F4883611F0A0
:103FD000803729F683E0809379031092770357C0E6
:103FE000883809F47BC0803919F0803809F0B7CFE0
:103FF00080917703803208F071C0E091770381E00F
:104000008E0F809377038091BB00F0E0E95AFC4F5C
:1040100080833DC0803B39F0E0F4803A09F479C0F8
:10402000883A09F09CCF84E080937903109254037E
:1040300010925303E0915103F0915203099580913E
:10404000530381110FC081E0809353031092310319
:1040500009C0803C09F4A6CF883C09F4A3CF883B73
:1040600009F07DCFE091540381E08E0F80935403DB
:10407000F0E0EF5CFC4F80818093BB009091540393
:104080008091530329C080919E038093BB0085ECEF
:104090008093BC0064CF90919D0380919C039817FE
:1040A00058F5E0919D0381E08E0F80939D03F0E031
:1040B000E458FC4F8081E9CFE0919D0381E08E0FB1
:1040C00080939D038091BB00F0E0E458FC4F808317
:1040D00090919D0380919C039817C8F285E8D8CFF2
:1040E000E0919D0381E08E0F80939D038091BB0042
:1040F000F0E0E458FC4F808380917B0381115CCF1A
:1041000081E080937A0384EA8093BC001092790363
:1041100026CF85EC8093BC001092790380917703C1
:10412000803230F4E0917703F0E0E95AFC4F1082DE
:104130006091770370E0E0915503F091560387E5B5
:1041400093E00995109277030ACF1092780334CF49
:104150008F929F92AF92BF92CF92DF92EF92FF9297
:104160000F931F93CF93DF93CDB7DEB7C95ED1090D
:104170000FB6F894DEBF0FBECDBF84E1EEE0F1E0F4
:10418000DE01119601900D928A95E1F7CA52DF4F38
:10419000188219821A821B82C65DD040C652DF4F38
:1041A000188219821A821B82CA5DD040C252DF4F28
:1041B00019821882CE5DD04066ED70E06C0F7D1FD5
:1041C000685F7F4F2AE030E040E050E0CE018A5245
:1041D0009F4F0E94C214CE018A529F4F0E948104B9
:1041E000FE0131969C01265F3F4F40813296DC01F3
:1041F0004D93CD01A217B307C1F7C052DF4F18820C
:1042000019821A821B82C05ED040CC51DF4F1882C7
:1042100019821A821B82C45ED040C851DF4F1982B6
:104220001882C85ED04060EE70E06C0F7D1F685F42
:104230007F4F22E030E040E050E0CE0180529F4FBF
:104240000E94C214CE0180529F4F0E94810429E037
:10425000FC01208326E02183CE018A529F4F0E94D9
:1042600081047C01C252DF4F08811981CE5DD040AC
:10427000C8010E94DC0330E020E081110CC0D801AD
:1042800018962D913C91C652DF4F88819981CA5D65
:10429000D040280F391FD7012A173B0709F18D910C
:1042A00090E0FC01E656FF4F64918A579F4FFC0156
:1042B0008491882389F390E0880F991FFC01E859C5
:1042C000FF4F45915491FC01EE58FF4F8591949119
:1042D0008FB7F894FA019081962B90838FBFDCCF33
:1042E000CE0180529F4F0E9481047C01C851DF4F54
:1042F00008811981C85ED040C8010E94DC0330E00B
:1043000020E081110CC0D80118962D913C91CC5120
:10431000DF4F88819981C45ED040280F391FD701B3
:10432000A217B30731F18D9190E0FC01E656FF4FE3
:1043300044918A579F4FFC018491882389F390E030
:10434000880F991FFC01E859FF4F65917491FC019A
:10435000EE58FF4F059114919FB7F894FB018081AF
:10436000409584238083F8018081842380839FBFCC
:10437000D7CF8E0102571F4F8CE0D8011D928A952E
:10438000E9F7F8011486158616861786108A118AB1
:10439000128A138A158A148AB8016C5E7F4F23E053
:1043A00030E040E050E0C8010C960E948A1401966B
:1043B00079F0F801E488F588D7011A968C911A975C
:1043C00081FF47C4C7010B9619969C938E9318974B
:1043D000C8010C960E948104FC0110821182128295
:1043E0000E9493167C01B801CE01C7960E94820EEE
:1043F000C7010E949C045C01BE01695C7F4FCE0135
:1044000001960E94820E69961FAE1EAE69976B964A
:104410001FAE1EAE6B976D961FAE1EAE6D97C85445
:10442000DF4F188219821A821B82C85BD040C454A5
:10443000DF4F188219821A821B82CC5BD040C05495
:10444000DF4F19821882C05CD04048EBE42EF12C7B
:10445000EC0EFD1EF8E0EF0EF11CAE01495A5F4F65
:10446000B701CE0188549F4F0E94521788E190E017
:104470000E94AF28D82E192F2AE731E0DC012D93B6
:104480003D93CD01BE016F5F7F4F0E94820E6D2D67
:10449000712FCE018C559F4F0E949E1285010B5F9C
:1044A0001F4FC8010E9433055C01BE016C557F4F50
:1044B000CE0189589F4F0E94A60F8CE090E00E9489
:1044C000AF286C0120E731E0FC0121933193CF014B
:1044D000BE0169587F4F0E94A60FB601CE01895ACE
:1044E0009F4F0E949E12BE0168547F4F87E590E067
:1044F0008C0F9D1F0A960E948C0DBE01695A7F4F3A
:10450000C5010E94D212CE01895A9F4F0E943110DC
:10451000CE0189589F4F0E94A10FC8010E94330508
:104520005C01CE0188549F4F0E9457056C01C50164
:104530000E942105D60113969C938E931297CE016B
:1045400088549F4F0E94570521E030E0FC013183E1
:104550002083CE0188549F4F0E9457056C01C801EB
:104560000E943305D60115969C938E931497CE0125
:104570008C559F4F0E94A10FCE0145960E94200EA0
:1045800087E390E08C0F9D1F44960E94200EC70188
:104590000E94430D6B961CAE1DAE1EAE1FAE6B97F8
:1045A0006C961FAE6C976D961FAE6D976E961FAE94
:1045B0006E976F961FAE6F97A0961FAEA097A196AD
:1045C0001FAEA197A2961FAEA297A3961FAEA39768
:1045D00087E590E08C0F9D1F0C960E94811687E561
:1045E00090E08C0F9D1F46960E9481161092280322
:1045F0001092270310922A03109229030E94E501CA
:1046000084E292E0909352038093510385E292E01A
:1046100090935603809355031092B9038091BE0383
:10462000823018F098E09093B9038093BC0362E362
:1046300070E080E090E00E948B016091BF0384EB0A
:1046400093E00E94AC0268EE73E080E090E00E948C
:104650008B0160E384EB93E00E94800A0BE416E494
:10466000C8010197F1F760E384EB93E00E94800AB0
:10467000C8010197F1F760E384EB93E00E94800AA0
:1046800083E592E00197F1F760E284EB93E00E940A
:10469000800A6091B903606240E084EB93E00E947D
:1046A000990A84E08093BA0340E06CE084EB93E0E5
:1046B0000E94990A40E061E084EB93E00E94990A2D
:1046C0000BE31FE1C8010197F1F782E08093BB0380
:1046D00040E066E084EB93E00E94990A40E062E0EB
:1046E00084EB93E00E94990AC8010197F1F788E0F2
:1046F0008093BF0360E084EB93E00E94AC020E94D1
:1047000093168C01BE01695A7F4FCE01C7960E9455
:10471000390CC8010E949C044C01BE01695C7F4FAA
:10472000CE0101960E94390C8E0109581F4FF801E5
:10473000118210821382128215821482CE53DF4FAF
:10474000188219821A821B82C25CD040CA53DF4F82
:10475000188219821A821B82C65CD040C653DF4F72
:1047600019821882CA5CD04032ECC32ED12CCC0EF8
:10477000DD1EF8E0CF0ED11CA801B601CE018E538C
:104780009F4F0E94521782E290E00E94AF28B82EFD
:10479000F92EE82FF92F86E691E081939193BE01DF
:1047A0006F5F7F4FCF010E94390C6B2D7F2DCE01A3
:1047B00088549F4F0E949E12740125E0E20EF11C66
:1047C000C7010E9433055C01BE0168547F4FCE01D2
:1047D0008C559F4F0E94A60F8CE090E00E94AF285E
:1047E0004C01FC018CE591E081939193BE016C55E5
:1047F0007F4FCF010E94A60FB401C8010E949E12F4
:10480000BE016E537F4FC8010A960E948C0DB801FD
:10481000C5010E94D212C8010E943110CE018C55F0
:104820009F4F0E94A10FC7010E9433054C01CE018A
:104830008E539F4F0E9457055C01C4010E942105C1
:10484000D50113969C938E931297CE018E539F4F52
:104850000E94570521E030E0FC0131832083CE0126
:104860008E539F4F0E9457055C01C7010E9433057C
:10487000D50115969C938E931497CE0188549F4F23
:104880000E94A10FCE0101960E94910CCE01C79605
:104890000E94910CC6010E94430D87E1F80111921C
:1048A0008A95E9F78CE090E00E94AF287C018CE0CB
:1048B000D7011D928A95E9F7F801F58AE48A1486F2
:1048C00015861686178684E090E0A0E0B0E0808B25
:1048D000918BA28BB38B41E050E060E070E0F70178
:1048E000408351836283738384839583A683B783D4
:1048F00085E0828788E090E00E946412D7011996D3
:104900009C938E931897F801A488B588C5010E94DE
:10491000AE03811112C06801FCE0CF0ED11CC601AC
:104920000E946104672B682B692B09F09AC1C601AC
:104930000E942104DC011D921C92D80156961C9203
:104940000E9493167C01B801CE01C7960E94F60C16
:10495000C7010E949C045C01BE01695C7F4FCE01CF
:1049600001960E94F60CCC55DF4F19821882C45A6A
:10497000D040CA55DF4F19821882C65AD040C85558
:10498000DF4F19821882C85AD040C453DF4F1882B3
:1049900019821A821B82CC5CD040C053DF4F188230
:1049A00019821A821B82C05DD040CC52DF4F19821F
:1049B0001882C45DD0408CECE82EF12CEC0EFD1E6C
:1049C000B8E0EB0EF11CAE014C555F4FB701CE01C4
:1049D00084539F4F0E94521789E190E00E94AF28B4
:1049E000D82E192F22E531E0FC0121933193CF011C
:1049F000BE016F5F7F4F0E94F60C6D2D712FCE01AF
:104A00008E539F4F0E949E1285010B5F1F4FC8015E
:104A10000E9433055C01BE016E537F4FCE01885466
:104A20009F4F0E94A60F8CE090E00E94AF286C017F
:104A300028E431E0DC012D933D93CD01BE016854A3
:104A40007F4F0E94A60FB601CE018C559F4F0E944A
:104A50009E12BE0164537F4F84EA90E08C0F9D1F2D
:104A60000A960E948C0DBE016C557F4FC5010E94B5
:104A7000D212CE018C559F4F0E943110CE01885426
:104A80009F4F0E94A10FC8010E9433055C01CE0117
:104A900084539F4F0E9457056C01C5010E94210558
:104AA000F60193838283CE0184539F4F0E94570562
:104AB00021E030E0DC012D933C93CE0184539F4FE5
:104AC0000E9457056C01C8010E943305F6019583C9
:104AD0008483CE018E539F4F0E94A10FCE01459635
:104AE0000E94A50C87E390E08C0F9D1F44960E94C6
:104AF000A50CC7010E94430DBE01695A7F4FCE012C
:104B000001960E94390CBE0162577F4FCE018196FB
:104B10000E94820E88E390E00E94AF288C0124E876
:104B200031E0DC012D933D93CD01BE016F5F7F4FDE
:104B30000E94390CBE016F5D7F4FC80182960E94B2
:104B4000820E1FAA18AE19AE1AAE1BAE1CAE1DAE59
:104B50001EAE21961FAE1EAE2197BE01615C7F4F37
:104B6000CE01C7960115110509F092C00E943C10B4
:104B700068EC73E080EC93E00E943C1021960EAD4F
:104B80001FAD2197C8010E949703811108C010939F
:104B9000C9030093C80321961FAE1EAE21978FA9AB
:104BA00098ADA9ADBAAD8093C0039093C103A09313
:104BB000C203B093C3038BAD9CADADADBEAD8093CE
:104BC000C4039093C503A093C603B093C703BE016B
:104BD000615C7F4FCE01C7960E943C10CE01C59606
:104BE0000E94200ECE0101960E94910CCE018557A5
:104BF0009F4F0E94A50CCE01895A9F4F0E94910C95
:104C00008EE890E08C0F9D1F44960E94200E80EE4F
:104C100090E08C0F9D1F08960E94200E86ED90E07C
:104C20008C0F9D1F08960E94200EC751DF4F0FB6B4
:104C3000F894DEBF0FBECDBFDF91CF911F910F91D2
:104C4000FF90EF90DF90CF90BF90AF909F908F90AC
:104C5000089583E090E00E946412F70191878087B5
:104C6000B7CBF80180899189880F991FD5011896D3
:104C7000ED90FC90E80EF91EC6010E9421048E15ED
:104C80009F0509F45ACEFC0111921192CF01F7CF82
:104C90000E946A12019609F46BCF2196EEADFFAD2A
:104CA000219782858D7F816082871187008760CF01
:104CB000E8EAF3E01382128288EE93E0A0E0B0E02D
:104CC00084839583A683B78382E892E0918380836F
:104CD000E0ECF3E0108211821282138214821582BA
:104CE000168217821186108668EC73E0CF010E944D
:104CF0003C10E4EBF3E01382128284E992E09183AA
:104D0000808387E2848380E1818782E082871386C3
:104D10000895789484B5826084BD84B5816084BD33
:104D200085B5826085BD85B5816085BD80916E0049
:104D3000816080936E00109281008091810082607A
:104D400080938100809181008160809381008091B7
:104D500080008160809380008091B10084608093A6
:104D6000B1008091B00081608093B00080917A00A2
:104D7000846080937A0080917A00826080937A00C8
:104D800080917A00816080937A0080917A008068B7
:104D900080937A001092C1000E94A82044244A9473
:104DA000542C320134E0232E312C0E949316EC0156
:104DB0000E949C048C010B5F1F4FC8010E943305A9
:104DC0007C010E94E00581112AC0C7010E943E06B5
:104DD000892B29F1C8010E9433050E943E065C011F
:104DE000C8010E9433050E943E06FC018281938126
:104DF000892B09F467C088248394912C6501F0E124
:104E0000CF0ED11CC6010E945705FC0120813181C3
:104E100021FF5CC0C8010E9433050E941106CE012B
:104E20000E949C04FC01908190649083CE010E94BA
:104E30009C04FC014181528163817481452B462B86
:104E4000472B21F01182128213821482CE010E941C
:104E50009C048C0105960E9433050E94FB05672B7C
:104E6000682B692BC1F4E885F9853097A1F082851C
:104E7000882389F080819181A281B3810097A10567
:104E8000B10549F020853185232B29F00297A10532
:104E9000B10508F05DC0F801618172818381948160
:104EA0000E948B01CE010E949C04FC01418252822F
:104EB00063827482CE010E949C04FC0190819F7BDE
:104EC00090830CC088248A94982C98CF22FF0EC01F
:104ED000C8010E943305B5010E94B81080E090E03F
:104EE000892B09F462CF0E9400005FCF22603183DA
:104EF0002083C6010E9457057C01C50106960E94C9
:104F0000C0045C01C8010E9433050E94E0058111C4
:104F100017C0C6010E945705E816F90689F4FFEF8D
:104F2000AF16BF0689F0AB2859F0F7018081918157
:104F30008D7F91838083C8010E9433050E941106F2
:104F40008A94892859F26BCFF70131822082F8CFF9
:104F500068EE73E080E090E0A3CF68EC73E080EC53
:104F600093E00C943C1087FB082E062687FD819564
:104F700067FD61950E948F280EF4919507FC81953D
:104F8000089597FB072E16F4009407D077FD09D0FB
:104F90000E949B2807FC05D03EF4909581959F4F79
:104FA0000895709561957F4F0895A1E21A2EAA1B6E
:104FB000BB1BFD010DC0AA1FBB1FEE1FFF1FA217C9
:104FC000B307E407F50720F0A21BB30BE40BF50BC6
:104FD000661F771F881F991F1A9469F7609570954F
:104FE000809590959B01AC01BD01CF010895EE0F16
:104FF000FF1F0590F491E02D0994689401C0E89496
:105000008F929F92CF93DF930E940B28DF91CF91D5
:105010009F908F90089588249924F401E401B0E4CE
:105020009F93AA279A158B049C04ED05FE05CF05D6
:10503000D007A10798F4AD2FDC2FCF2FFE2FE92D3D
:10504000982C892E982F872F762F652F542F432F3A
:10505000322F2227B85031F7BF9127C01B2EBF91A6
:10506000BB27220F331F441F551F661F771F881F42
:10507000991F881C991CEE1FFF1FCC1FDD1FAA1F44
:10508000BB1F8A149B04EC05FD05CE05DF05A007B8
:10509000B10748F08A189B08EC09FD09CE09DF0921
:1050A000A00BB10B21601A94E1F62EF49401AF012C
:1050B000BE01CD01000C08952A0D3B1D4C1D5D1D48
:1050C0006E1D7F1D801F911F08950024A7FD009471
:1050D0002A0F301D401D501D601D701D801D901D2C
:1050E00008952A193B094C095D096E097F09800B57
:1050F000910B08952A153B054C055D056E057F054E
:105100008007910708950024A7FD00942A17300511
:105110004005500560057005800590050895991BB0
:1051200079E004C0991F961708F0961B881F7A959E
:10513000C9F780950895AA1BBB1B51E107C0AA1FA0
:10514000BB1FA617B70710F0A61BB70B881F991F28
:105150005A95A9F780959095BC01CD0108950F93BC
:105160001F93CF93DF938230910510F482E090E09B
:10517000E091CC03F091CD0330E020E0B0E0A0E07E
:10518000309799F42115310509F44AC0281B390BD1
:1051900024303105D8F58A819B816115710589F12B
:1051A000FB0193838283FE0111C040815181028102
:1051B000138148175907E0F04817590799F41097D9
:1051C00061F012960C93129713961C933296CF01AE
:1051D000DF91CF911F910F9108950093CC0310930D
:1051E000CD03F4CF2115310551F04217530738F0A4
:1051F000A901DB019A01BD01DF01F801C1CFEF0177
:10520000F9CF9093CD038093CC03CDCFFE01E20F75
:10521000F31F819391932250310939832883D7CF8B
:105220002091CA033091CB03232B41F4209102013A
:10523000309103013093CB032093CA0320910001E6
:10524000309101012115310541F42DB73EB7409150
:10525000040150910501241B350BE091CA03F09124
:10526000CB03E217F307A0F42E1B3F0B28173907D7
:1052700078F0AC014E5F5F4F2417350748F04E0FB2
:105280005F1F5093CB034093CA03819391939FCFA9
:10529000F0E0E0E09CCFCF93DF930097E9F0FC01D2
:1052A000329713821282A091CC03B091CD03ED010D
:1052B00030E020E01097A1F420813181820F931F0C
:1052C0002091CA033091CB032817390709F061C038
:1052D000F093CB03E093CA03DF91CF910895EA01E5
:1052E000CE17DF07E8F54A815B819E014115510524
:1052F000B1F7E901FB83EA8349915991C40FD51FA6
:10530000EC17FD0761F4808191810296840F951F4F
:10531000E90199838883828193819B838A83F0E06A
:10532000E0E012968D919C9113970097B9F52D911D
:105330003C911197CD010296820F931F2091CA03D1
:105340003091CB032817390739F6309751F5109271
:10535000CD031092CC03B093CB03A093CA03BCCF70
:10536000D383C28340815181840F951FC817D90709
:1053700061F44E5F5F4F88819981480F591F5183B7
:1053800040838A819B81938382832115310509F0B3
:10539000B0CFF093CD03E093CC039ECFFD01DC01B1
:1053A000C0CF13821282D7CFFB01DC0102C0019073
:1053B0000D9241505040D8F70895AEE0B0E0E3EED2
:1053C000F9E20C94992C0D891E898F89988D26E01D
:1053D0002C831A83098397FF02C080E090E801972D
:1053E0009E838D83AE01455E5F4F698D7A8DCE01C0
:1053F00001960E940D2A4D815E8157FD0AC02F81C2
:105400003885421753070CF49A01020F131FF80155
:1054100010822E96E4E00C94B52CABE0B0E0E3E112
:10542000FAE20C948B2C7C013B018A01FC0117826F
:105430001682838181FFC8C1CE0101965C01F7010C
:105440009381F30193FD859193FF81913F0188231F
:1054500009F453C1853239F493FD859193FF81910D
:105460003F01853229F4B70190E00E94FD2BE7CF80
:10547000912C212C312CFFE1F31538F08B3211F1F6
:1054800090F4803209F1833229F137FC3CC020EDE1
:10549000280F2A3050F536FE20C08AE0989E200D55
:1054A0001124922E06C08D3291F0803371F76894EA
:1054B00030F8F30193FD859193FF81913F018111B4
:1054C000DACF21C0689431F8689432F8F2CF68944A
:1054D00033F8EFCF689434F8ECCFEAE02E9E200D3D
:1054E0001124222E689435F8E4CF8E3229F436FC4C
:1054F00004C1689436F8DDCF8C3619F4689437F817
:10550000D8CF8836B1F2982F9F7D95549330E0F034
:105510008336A1F18337C1F1833509F063C02801D7
:10552000F2E04F0E511CF801C080D180692D70E06F
:1055300036FC02C06FEF7FEFC6010E94E72B4C01E3
:10554000689437F882010AC00C5F1F4FFFE3F983AC
:1055500088248394912C6501E89437F833FE2DC09C
:10556000522C8114910471F5552009F468CFB701CC
:1055700080E290E00E94FD2B5A94F6CFF8018081E2
:1055800089830E5F1F4FE4CF2801F2E04F0E511CBC
:10559000F801C080D180692D70E036FC02C06FEF49
:1055A0007FEFC6010E94F22B4C018201D5CFB701DB
:1055B00080E290E00E94FD2B2A942814190409F03F
:1055C000B0F7CECFF60137FC859137FE81916F01A0
:1055D000B70190E00E94FD2B51105A94F1E08F1A10
:1055E0009108BFCF843619F0893609F077C0F801E9
:1055F00037FE6BC060817181828193810C5F1F4F88
:10560000F32DFF763F2E97FF09C0909580957095FA
:1056100061957F4F8F4F9F4F689437F82AE030E0B5
:10562000A5010E942D2CC82ECA188C2C432C36FEA6
:105630000CC0E89440F8C91440F434FE05C032FCB4
:1056400003C0F32DFE7E4F2E892C44FE95C0FE0133
:10565000EC0DF11D8081803309F087C0242D297E57
:10566000422E842D8870582E43FC95C040FE8FC07A
:105670009C2C821418F42C0C922C981844FE91C087
:10568000B70180E390E00E94FD2B42FE09C088E74D
:1056900090E041FE02C088E590E0B7010E94FD2B3A
:1056A000C91408F48AC0CA94D12C9FEFC91AD90A28
:1056B000CA0CDB1CF60182916F01B70190E00E94D9
:1056C000FD2BAC14BD04B1F74FCF60817181072E63
:1056D000000C880B990B0E5F1F4F92CFD32CE894D0
:1056E000D4F82AE030E0853739F1232D297FD22EF6
:1056F0008F3601F148F48835A9F0F701868197814A
:105700002B96E2E10C94A72C803749F08837A9F753
:10571000D4FE02C06894D2F820E130E00DC0689455
:10572000D4F8F6CF34FE03C0822F8660D82E20E155
:1057300032E002C028E030E0F801D7FE0FC06081FF
:105740007181828193810C5F1F4FA5010E942D2CD6
:10575000C82ECA183D2CE89437F867CF6081718154
:1057600090E080E00E5F1F4FF0CF42FC02C08394B8
:1057700078CF8394839475CF842D867809F471CF84
:10578000F6CFB70180E290E00E94FD2B8394821453
:10579000C0F3512C73CF522C5818821408F46ECFDA
:1057A000F8CF842D867809F47BCF8BE241FE80E22E
:1057B00047FC8DE2B70190E071CFB70180E390E044
:1057C0000E94FD2B9A946CCF8FEF9FEF99CFFC0135
:1057D0000590615070400110D8F7809590958E0F1C
:1057E0009F1F0895FC016150704001900110D8F78F
:1057F000809590958E0F9F1F08950F931F93CF93C1
:10580000DF93182F092FEB018B8181FD09C01FEF5A
:105810000FEF812F902FDF91CF911F910F9108955E
:1058200082FF14C02E813F818C819D81281739070A
:105830003CF4E881F981CF01019699838883108334
:105840008E819F8101969F838E83E3CFE885F985C2
:10585000812F0995892BA1F3DACFFA01AA272830E5
:1058600051F1203181F1E8946F936E7F6E5F7F4F2D
:105870008F4F9F4FAF4FB1E03ED0B4E03CD0670FA9
:10588000781F891F9A1FA11D680F791F8A1F911DFC
:10589000A11D6A0F711D811D911DA11D20D009F44C
:1058A00068943F912AE0269F11243019305D31938E
:1058B000DEF6CF010895462F4770405D4193B3E077
:1058C0000FD0C9F7F6CF462F4F70405D4A3318F01E
:1058D000495D31FD4052419302D0A9F7EACFB4E0CF
:1058E000A6959795879577956795BA95C9F7009787
:1058F0006105710508959B01AC010A2E0694579528
:10590000479537952795BA95C9F7620F731F841F7E
:10591000951FA01D08952F923F924F925F926F9214
:105920007F928F929F92AF92BF92CF92DF92EF922F
:10593000FF920F931F93CF93DF93CDB7DEB7CA1BB0
:10594000DB0B0FB6F894DEBF0FBECDBF09942A88DB
:10595000398848885F846E847D848C849B84AA8483
:10596000B984C884DF80EE80FD800C811B81AA8110
:10597000B981CE0FD11D0FB6F894DEBF0FBECDBFDB
:10598000ED01089510E0C2E6D0E004C0FE010E94DF
:0E599000F7272196C336D107C9F7F894FFCF49
:10599E000000CE03200000004000140054000D0053
:1059AE000C000B000A0008000700050004000300AD
:1059BE000200FF5B202020202D205DFF5B4445432D
:1059CE005DFF00FF5B202020202D205DFF5B454EFC
:1059DE00435DFF00000000001F102710100500009F
:1059EE000000EE0C1B0F9908000000000D101510A2
:1059FE000505000000009D0C110FAA0B0000000011
:105A0E00FB0F0310FA04000000007A0E070F9B1A1A
:105A1E0000000000690EFD0EA41D303132205157DA
:105A2E004520415344205A58432033343520525494
:105A3E0059204647482056424E2036373839554968
:105A4E004F204A4B4C204D50403C0038564A335460
:105A5E005759323530204B42374F5A4153504658E2
:105A6E0045394334553651444E484D4931405247DD
:105A7E004C004C47524031494D484E4451365534F6
:105A8E0043394558465053415A4F37424B203035D3
:105A9E0032595754334A56380051554D404F4C5495
:105AAE005A31534B5958475634363920504E525767
:105ABE00413732434442304A49354845384633002F
:105ACE003752453320413842405A32554A4E545986
