:100000000C945D000C9485000C9485000C94850084
:100010000C9485000C9485000C9485000C9485004C
:100020000C9485000C9485000C9485000C9485003C
:100030000C9485000C9485000C9485000C9485002C
:100040000C946C160C9485000C9485000C9485001F
:100050000C9485000C9485000C9485000C9485000C
:100060000C9485000C94850000000008000201003B
:100070000003040700000000000000000000000072
:10008000250028002B0000000000240027002A0083
:10009000040404040404040402020202020203032E
:1000A0000303030301020408102040800102040836
:1000B0001020010204081020331911241FBECFEFB5
:1000C000D8E0DEBFCDBF11E0A0E0B1E0ECE4FCE39E
:1000D00002C005900D92A237B107D9F721E0A2E73F
:1000E000B1E001C01D92AC3CB207E1F710E0CDE5F4
:1000F000D0E004C02197FE010E940B1ACC35D10735
:10010000C9F70E94B6160C94241E0C94000090E0CF
:10011000FC01EC55FF4F249180579F4FFC018491C7
:10012000882399F090E0880F991FFC01EA57FF4F50
:10013000A591B491FC01E458FF4F859194918FB73C
:10014000F894EC91E22BEC938FBF0895AF92BF929D
:10015000CF92DF92EF92FF920F931F93CF93DF9393
:100160006C017B018B01040F151FEB015E01AE18C2
:10017000BF08C017D10759F06991D601ED91FC91E4
:100180000190F081E02DC6010995892B79F7C50111
:10019000DF91CF911F910F91FF90EF90DF90CF9063
:1001A000BF90AF90089590E0FC01E859FF4F249173
:1001B000FC01EC55FF4F3491FC01E057FF4FE491F7
:1001C000EE23C9F0222339F0233001F1A8F42130C5
:1001D00019F1223029F1F0E0EE0FFF1FE458FF4F34
:1001E000A591B4918FB7F894EC91611126C0309528
:1001F0003E233C938FBF08952730A9F02830C9F0E3
:10020000243049F7809180008F7D03C08091800069
:100210008F7780938000DFCF84B58F7784BDDBCF6D
:1002200084B58F7DFBCF8091B0008F778093B00035
:10023000D2CF8091B0008F7DF9CF3E2BDACF3FB780
:10024000F89480919A0190919B01A0919C01B091AA
:100250009D0126B5A89B05C02F3F19F00196A11D51
:10026000B11D3FBFBA2FA92F982F8827BC01CD0100
:10027000620F711D811D911D42E0660F771F881F5F
:10028000991F4A95D1F70895089590E080E0089568
:10029000FC01892B91F08285882379F080819181FE
:1002A000A281B381892B8A2B8B2B39F081E02085A9
:1002B0003185232B19F080E0089581E00895FC0139
:1002C000892B91F08285882379F080819181A281A8
:1002D000B381892B8A2B8B2B39F081E020853185E6
:1002E000232B19F080E0089581E00895FC01892B0B
:1002F00091F08285882379F080819181A281B381F8
:10030000892B8A2B8B2B39F081E020853185232B9B
:1003100019F080E0089581E008950F931F93CF9323
:10032000DF938C01EB01CB010E94760181110CC09F
:1003300088859985F80120813181820F931FDF9193
:10034000CF911F910F91089590E080E0F8CFCF9367
:10035000DF93FC01C085D185CE010E944801811147
:1003600009C081E0488159816A817B81452B462BF8
:10037000472B09F480E0DF91CF91089508950F9302
:100380001F93CF93DF938C01FC01C085D185CE01F3
:100390000E945F01811112C0F801808191814AE0C1
:1003A000489F9001499F300D112488859985820FBF
:1003B000931FDF91CF911F910F91089590E080E0FE
:1003C000F8CFDC011896ED91FC9119973097D1F098
:1003D00082858823B9F04081518162817381452BE8
:1003E000462B472B79F080859185009769F04D91D8
:1003F0005C9166E1649F9001659F300D1124820F2E
:10040000931F089590E080E00895CF92DF92EF92DD
:10041000FF920F931F93CF93DF9300D0CDB7DEB73A
:100420007B0102960E94E1018C010E94A7018823B2
:1004300021F1D8011896CD90DC90C6010E944801A8
:1004400081112BC0F80120813181220F331FD60189
:1004500018968D919C91820F931F9801265F3F4FB4
:10046000A801425F5F4FDC01ED91FC910480F581B2
:10047000E02DBE016F5F7F4F099589819A81F70159
:10048000918380830F900F90DF91CF911F910F91F7
:10049000FF90EF90DF90CF90089590E080E0DDCF67
:1004A000DC011896ED91FC9119973097D1F0828577
:1004B0008823B9F04081518162817381452B462B9D
:1004C000472B79F080859185009769F04D915C917B
:1004D0006FE0649F9001659F300D1124820F931F80
:1004E000089590E080E00895EF92FF920F931F939C
:1004F000CF93DF9300D0CDB7DEB78C010E94A70168
:100500008823F1F0D8011896ED90FC90C7010E9465
:100510004801811120C0F80120813181220F331F51
:10052000D70118968D919C91820F931FDC01ED915C
:10053000FC910480F581E02DBE016F5F7F4F09952E
:1005400089819A810F900F90DF91CF911F910F9128
:10055000FF90EF90089590E080E0E8CFCF93DF9395
:10056000EB0102960E94740299838883DF91CF91F8
:1005700008950E94BF01FC01808191810895CF936D
:10058000DF93EC010E94BF01FC01848195810097FB
:1005900029F4CE01DF91CF910C94B902DF91CF9174
:1005A0000895DC011896ED91FC9119973097D1F0E0
:1005B00082858823B9F04081518162817381452B06
:1005C000462B472B79F080859185009769F04D91F6
:1005D0005C916AE0649F9001659F300D1124820F49
:1005E000931F089590E080E00895DC011896ED9146
:1005F000FC9119973097D1F082858823B9F040811A
:10060000518162817381452B462B472B79F0808580
:100610009185009769F04D915C9165E0649F900130
:10062000659F300D1124820F931F089590E080E0A4
:100630000895CF93DF93EC01888599850E945F012F
:1006400081110DC0CE010E94BF0121E0FC01868115
:100650009781A085B185892B8A2B8B2B09F020E00F
:10066000822FDF91CF9108950F931F93CF93DF9344
:100670008C01EB010E941903282F81110BC02097D8
:1006800051F0C8010E94BF0121E0488159814817FB
:10069000590709F020E0822FDF91CF911F910F9130
:1006A00008950F931F93CF93DF93EC010E941903DA
:1006B000811121C0CE010E94BF018C01DC01129684
:1006C000ED91FC91309791F4CE010E94BF02F801A8
:1006D00093838283CE010E94BF01DC0112968D912B
:1006E0009C91DF91CF911F910F9108958481958105
:1006F000009769F7E9CF90E080E0F3CF0F931F9365
:10070000CF93DF93EC010E94190381111AC0CE012F
:100710000E94BF018C01FC0182819381892B31F4FD
:10072000CE010E94B902F80193838283CE010E9418
:10073000BF01FC0182819381DF91CF911F910F91C5
:10074000089590E080E0F8CF2F923F924F925F9211
:100750006F927F928F929F92AF92BF92CF92DF92D1
:10076000EF92FF920F931F93CF93DF93CDB7DEB736
:100770002C970FB6F894DEBF0FBECDBF80918201DB
:10078000811117C00E941F017B018C0160937A01C7
:10079000F0927B0180937C0110937D0110927E0189
:1007A00010927F01109280011092810181E080936C
:1007B00082010E941F017B018C016983FA828B8375
:1007C0001C8370907A0180907B0190907C01F09066
:1007D0007D01FC8600917E010B87B0917F01F09135
:1007E0008001E0918101209072013090730140906E
:1007F00074015090750160907601A091770110917D
:1008000078011987209179012A87272D382D492DC4
:100810005F2D602F7B2F8F2F9E2FAE2CBA80CB8029
:10082000DC80E12CF12C00E010E00E94E21909F0DC
:1008300008F466C09101A201662D7A2F89859A85F8
:10084000AFEF0E94CD19A72CB82CC92CDC84EB8407
:10085000FB2E0F2F1E2F0E94D919A980BA80CB80A2
:10086000DC80E12CF12C00E010E00E94C419209300
:10087000720130937301409374015093750160933A
:100880007601709377018093780190937901A0921B
:100890007A01B0927B01C0927C01D0927D011092CE
:1008A0007E0110927F0110928001109281012091AF
:1008B0007201309173014091740150917501609102
:1008C00076017091770180917801909179012C9651
:1008D0000FB6F894DEBF0FBECDBFDF91CF911F9151
:1008E0000F91FF90EF90DF90CF90BF90AF909F90CF
:1008F0008F907F906F905F904F903F902F900895D2
:100900009101A201662D7A2F89859A85A72CB82C92
:10091000C92CDC84EB84FB2E0F2F1E2F0E94D919CB
:10092000A980BA80CB80DC80E12CF12C00E010E0C3
:100930000E94C41920937201309373014093740193
:1009400050937501609376017093770180937801DD
:1009500090937901A0927A01B0927B01C0927C01C0
:10096000D0927D019CCF0F931F93CF93DF93EC0127
:1009700008851985C8010E947601811118C08C81F3
:100980009D81AE81BF81488159816A817B81841BB1
:10099000950BA60BB70B0297A105B10540F0B80166
:1009A000CE01DF91CF911F910F910C948D0190E0BA
:1009B00080E0DF91CF911F910F910895009769F02A
:1009C000FC0101900020E9F73197AF01481B590B5A
:1009D000BC0180EB91E00C94A60090E080E00895CB
:1009E0000F931F93CF93DF93DB012D913C91232B2A
:1009F00041F58B01EC018CE090E00E94111AFC01A2
:100A00008CE0DF011D928A95E9F7D801ED93FC9304
:100A1000188219821A821B821C821D821E821F82EA
:100A200081E090E0A0E0B0E080839183A283B38373
:100A300085E0828781E090E0DF91CF911F910F9157
:100A400008958FEF9FEFF8CF0F931F93CF93DF930E
:100A5000DB012D913C91232B41F58B01EC018CE0C6
:100A600090E00E94111AFC018CE0DF011D928A9532
:100A7000E9F7D801ED93FC93188219821A821B8240
:100A80001C821D821E821F8281E090E0A0E0B0E007
:100A900080839183A283B38385E0828781E090E0A5
:100AA000DF91CF911F910F9108958FEF9FEFF8CFB6
:100AB0000F931F93CF93DF93DB012D913C91232B59
:100AC00041F58B01EC018CE090E00E94111AFC01D1
:100AD0008CE0DF011D928A95E9F7D801ED93FC9334
:100AE000188219821A821B821C821D821E821F821A
:100AF00081E090E0A0E0B0E080839183A283B383A3
:100B000085E0828781E090E0DF91CF911F910F9186
:100B100008958FEF9FEFF8CF8F929F92AF92BF9281
:100B2000CF92DF92EF92FF920F931F93CF93DF93B9
:100B3000DB01ED91FC91EF2B09F04DC0812C912C44
:100B400054018394211531054105510511F04901E6
:100B50005A0169017A018B01EC018CE090E00E945E
:100B6000111AFC018CE0DF011D928A95E9F7D8018A
:100B7000ED93FC93188219821A821B82CC82DD824B
:100B8000EE82FF8281E090E0A0E0B0E0808391837C
:100B9000A283B383C482D582E682F78284E082870F
:100BA00085E08A9489288A288B2829F4CF010B961E
:100BB0009187808786E0828781E090E0DF91CF9106
:100BC0001F910F91FF90EF90DF90CF90BF90AF906B
:100BD0009F908F9008958FEF9FEFF0CFCF93DF938B
:100BE000EC0160E08E810E94D30061E08E810E9462
:100BF000D30060E08E810E94D3008BE891E00197E2
:100C0000F1F7DF91CF910895CF92DF92EF92FF92AB
:100C10000F931F93CF93DF936C017C0187E0E80E65
:100C2000F11CD0E0C0E0062F10E0B8010C2E02C08D
:100C3000759567950A94E2F76170F70181917F01DC
:100C40000E94D3002196C430D10579F7C601DF9107
:100C5000CF911F910F91FF90EF90DF90CF900C9468
:100C6000EE05CF92DF92EF92FF920F931F93CF93F7
:100C7000DF93EC01F62E642F8C810E94D3008D81CE
:100C80008F3F19F060E00E94D3000F2D10E08F8598
:100C900084FF25C06E0187E0C80ED11CF12CE12C29
:100CA000B8010E2C02C0759567950A94E2F7617041
:100CB000F60181916F010E94D300FFEFEF1AFF0A46
:100CC00088E0E816F10461F7CE01DF91CF911F9122
:100CD0000F91FF90EF90DF90CF900C94EE05B8014C
:100CE00084E0759567958A95E1F7CE010E94040628
:100CF0006F2DCE01DF91CF911F910F91FF90EF905B
:100D0000DF90CF900C94040640E0682F80EB91E0D8
:100D10000C943106CF93DF93823029F49091BF0178
:100D200098609093BF018093C3011092C40180E446
:100D30008093C50180E18093C60180E58093C7015F
:100D40008091B4010E9487008091B5018F3F11F01E
:100D50000E9487008091B6010E948700C0EBD1E01D
:100D60009E01205B31408091BF0184FD0AC084E078
:100D700090E02196281739073CF48E810E94870065
:100D8000EFCF88E090E0F5CF8BE39DE00197F1F79E
:100D900060E08091B4010E94D30060E08091B601D0
:100DA0000E94D3008091B5018F3F19F060E00E944E
:100DB000D3008091BF0184FD39C063E080EB91E0F6
:100DC0000E940406CBE4D6E4CE010197F1F763E07C
:100DD00080EB91E00E9404062197F1F763E080EB3D
:100DE00091E00E94040683E592E00197F1F762E04A
:100DF00080EB91E00E9404068091BF0180620E9416
:100E0000840684E08093C0018CE00E94840681E027
:100E10000E9484068BE39FE10197F1F782E08093C3
:100E2000C10186E0DF91CF910C94840680620E941C
:100E300084068BE496E40197F1F78091BF0180620C
:100E40000E94840683E592E00197F1F78091BF014B
:100E500080620E948406D0CF9091C301691710F080
:100E60006FEF690FE62FF0E0E055FE4F9489890F90
:100E700080680C94840641E00E94310681E090E095
:100E800008950F931F93CF93DF93DC01ED91FC91B5
:100E90003097E9F14081518162817381411551059B
:100EA00061057105A1F18C01DB01CA010197A1095E
:100EB000B10980839183A283B383413051056105D9
:100EC0007105D9F4F801C081D181209789F0888516
:100ED0009985009769F02A85222351F020FD0E9410
:100EE000AD1A1A8619861886188219821A821B82F0
:100EF000D8018D919C910E94AD1AF8011182108247
:100F000081E090E0DF91CF911F910F9108958FEFD5
:100F10009FEFF8CF0F931F93CF93DF93DC01ED91F9
:100F2000FC913097E9F140815181628173814115D3
:100F3000510561057105A1F18C01DB01CA01019721
:100F4000A109B10980839183A283B3834130510504
:100F500061057105D9F4F801C081D181209789F02C
:100F600088859985009769F02A85222351F020FD14
:100F70000E94AD1A1A8619861886188219821A825A
:100F80001B82D8018D919C910E94AD1AF8011182AB
:100F9000108281E090E0DF91CF911F910F91089531
:100FA0008FEF9FEFF8CF0F931F93CF93DF93DC0169
:100FB000ED91FC913097E9F140815181628173811B
:100FC0004115510561057105A1F18C01DB01CA01D3
:100FD0000197A109B10980839183A283B383413032
:100FE000510561057105D9F4F801C081D1812097BF
:100FF00089F088859985009769F02A85222351F028
:1010000020FD0E94AD1A1A86198618861882198248
:101010001A821B82D8018D919C910E94AD1AF80111
:101020001182108281E090E0DF91CF911F910F91AA
:1010300008958FEF9FEFF8CFCF92DF92EF92FF925C
:101040000F931F93CF93DF93DB01ED91FC91EF2B77
:1010500051F4DF91CF911F910F91FF90EF90DF90AE
:10106000CF900C948C0569017A01EB018C01CB01C6
:101070000E94D307019669F4198218828FEF9FEFBF
:10108000DF91CF911F910F91FF90EF90DF90CF9064
:101090000895A7019601BE01C8010E948C05019622
:1010A00059F381E090E0ECCF0C94AD1A0C94AD1A9A
:1010B0000C94AD1A0C94AD1AEF92FF920F931F93FC
:1010C000CF93DF93DB01ED91FC91309709F46DC074
:1010D00080819181A281B3810097A105B10509F4B6
:1010E00064C08B01AC01BD01415051096109710916
:1010F00040835183628373830197A105B10509F091
:1011000040C0F801C081D1812097B1F188859985CF
:10111000009791F12A85222379F120FF26C04C8186
:101120005D816E817F81452B462B472BB1F1FC0100
:10113000329720813181220F331F820F931F7C0150
:10114000F2E0EF1AF108288539852817390751F0A0
:10115000D701ED91FC910190F081E02DC701099537
:10116000C701EDCFC7010E94AD1A1A8619861886ED
:10117000188219821A821B82F801808191810E9453
:10118000AD1AD8011D921C9281E090E0DF91CF91C1
:101190001F910F91FF90EF900895DC01ED91FC916C
:1011A0000280F381E02D0995E0CF8FEF9FEFEECF26
:1011B000EF92FF920F931F93CF93DF934115510549
:1011C00049F48FEF9FEFDF91CF911F910F91FF9027
:1011D000EF9008957A01EB018C0188819981892B28
:1011E000B1F4C8010E94F004019659F3E881F98135
:1011F00082858D7F8287E881F981828581608287FF
:10120000E881F981F186E08681E090E0DCCFC801D9
:101210000E945C08019619F419821882D2CFBE018F
:10122000C8010E94F004019609F7F6CFBC012AE03C
:1012300031E0FC0121933193CF01665F7F4F0C9425
:101240005C08CF93DF93EC010E941609CE01DF9179
:10125000CF910C94AD1AEF92FF920F931F93CF93FF
:10126000DF93EC017B01BC01685F7F4F0E945C084B
:10127000F70100851185C8010E94480181110EC047
:1012800019870887F80180819181A281B381019635
:10129000A11DB11D80839183A283B383F701808157
:1012A0009181A281B38188839983AA83BB8384813E
:1012B0009581A681B7818C839D83AE83BF83DF91A7
:1012C000CF911F910F91FF90EF9008950F931F936F
:1012D000CF93DF93EC018B01188219821A821B8253
:1012E0001C821D821E821F82198618860E942B096D
:1012F0001A861B861C861D861E861F86188A198ADA
:101300001B8A1A8ACE0142960E948A07D8015296F9
:10131000ED91FC913097E1F082858823C9F08081BE
:101320009181A281B381892B8A2B8B2B89F08085B7
:101330009185892B69F0FB8BEA8B80819181A28159
:10134000B3810196A11DB11D80839183A283B383D4
:10135000F80182859385A485B5858A879B87AC87AC
:10136000BD8786859785A089B1898E879F87A88B41
:10137000B98BDF91CF911F910F910895CF93DF9398
:10138000EC0142960E948A07BE01685F7F4FCE0142
:10139000DF91CF910C945C08EF92FF920F931F9313
:1013A000CF93DF93DB01ED91FC91309709F46DC091
:1013B00080819181A281B3810097A105B10509F4D3
:1013C00064C08B01AC01BD01415051096109710933
:1013D00040835183628373830197A105B10509F0AE
:1013E00040C0F801C081D1812097B1F188859985ED
:1013F000009791F12A85222379F120FF26C04C81A4
:101400005D816E817F81452B462B472BB1F1FC011D
:10141000329720813181220F331F820F931F7C016D
:10142000F2E0EF1AF108288539852817390751F0BD
:10143000D701ED91FC910190F081E02DC701099554
:10144000C701EDCFC7010E94AD1A1A86198618860A
:10145000188219821A821B82F801808191810E9470
:10146000AD1AD8011D921C9281E090E0DF91CF91DE
:101470001F910F91FF90EF900895DC01ED91FC9189
:101480000280F381E02D0995E0CF8FEF9FEFEECF43
:10149000BC01685F7F4F0C94CC09EF92FF920F93D1
:1014A0001F93CF93DF93EC018B010E94480AF80150
:1014B000E084F184C7010E944801811105C0F986CA
:1014C000E886F80111861086F80180819181A28159
:1014D000B38188839983AA83BB8384819581A68104
:1014E000B7818C839D83AE83BF83DF91CF911F91A2
:1014F0000F91FF90EF9008950F931F93CF93DF9379
:101500008B01FC01108211821282138214821582D7
:101510001682178211861086BC01685F7F4F011505
:10152000110531F4DF91CF911F910F910C94CC09EB
:10153000EC010E94F004019671F0E885F98582853E
:101540008D7F8287E885F985828581608287E8853D
:10155000F98511870087DF91CF911F910F91089531
:10156000CF93DF93EC0170E060E00E947C0A1A8662
:101570001B861C861D861E861F86188A198A1A8A53
:101580001B8A1C8A1D8ADF91CF910895CF92DF922A
:10159000EF92FF920F931F93CF93DF93DB01ED91B7
:1015A000FC91309709F46BC080819181A281B38155
:1015B0000097A105B10509F462C08B01AC01BD0122
:1015C00041505109610971094083518362837383DA
:1015D0000197A105B10509F03FC0F801C081D18193
:1015E0002097A9F1C884D984C114D10481F18A85D6
:1015F000882369F180FF24C08C819D81AE81BF81E9
:10160000892B8A2B8B2BB1F1F60132978081918146
:1016100026E1289F7001299FF00C1124EC0CFD1C81
:10162000970188859985F6E1EF1AF10882179307EB
:1016300021F0C7010E94480AF3CF02970E94AD1A19
:101640001A8619861886188219821A821B82D80176
:101650008D919C910E94AD1AF8011182108281E057
:1016600090E0DF91CF911F910F91FF90EF90DF906D
:10167000CF900895C6010E94480AC601DFCF8FEFC0
:101680009FEFEFCFBC01685F7F4F0C94C60A24E147
:1016900031E0FC0121933193CF010C94420BCF93A5
:1016A000DF93EC010E94470BCE01DF91CF910C94A8
:1016B000AD1A0F931F93CF93DF93EC018B010E9420
:1016C000420BD8011896ED91FC913097E1F082859C
:1016D0008823C9F080819181A281B381892B8A2BD3
:1016E0008B2B89F080859185892B69F0F987E887B4
:1016F00080819181A281B3810196A11DB11D80835A
:101700009183A283B383F80180819181A281B38107
:1017100088839983AA83BB8384819581A681B781BD
:101720008C839D83AE83BF83DF91CF911F910F91F7
:1017300008950F931F93CF93DF938B01FC011082C9
:1017400011821282138214821582168217821186E8
:101750001086BC01685F7F4F0115110531F4DF91E0
:10176000CF911F910F910C94C60AEC010E94F004D6
:10177000019671F0E885F98582858D7F8287E885FD
:10178000F985828581608287E885F98511870087E0
:10179000DF91CF911F910F910895AF92BF92CF9299
:1017A000DF92EF92FF920F931F93CF93DF938C0101
:1017B000EB010E941903811170C0209709F067C0E6
:1017C000C8010E94BF02EC01EA80FB80CC80DD8072
:1017D000C8010E94BF01E114F10419F4FC01D58293
:1017E000C482C8010E94BF01C114D10419F4FC01D4
:1017F000F182E082C8010E94BF015C01FC0182818C
:1018000093818C179D0771F4C8010E9419038111FF
:1018100009C0209709F04CC0C8010E94B902F50127
:1018200082839383C114D10419F0F601F382E2821A
:10183000EA81FB81309711F0D582C4821982188227
:10184000C8010E94BF01FC014681578160857185F6
:101850004150510961097109468357836087718737
:101860001B821A821D821C822097B9F0CE01069637
:101870000E94BE09CE01DF91CF911F910F91FF9081
:10188000EF90DF90CF90BF90AF900C94AD1ABE0157
:10189000C8010E943403811197CFDF91CF911F912E
:1018A0000F91FF90EF90DF90CF90BF90AF90089591
:1018B000E114F10409F4B0CFC701B1CFEF92FF9268
:1018C0000F931F93CF93DF93EC01E884F984C70152
:1018D0000E945F018E01085F1F4F811109C0F7014F
:1018E00080819181A281B3810297A105B10558F44D
:1018F000CE010E941903811106C070E060E0CE01A4
:101900000E94CD0BF5CFC801DF91CF911F910F91B0
:10191000FF90EF900C944107CF92DF92EF92FF92ED
:101920000F931F93CF93DF93DB01ED91FC913097E1
:1019300009F46BC080819181A281B3810097A105D8
:10194000B10509F462C08B01AC01BD0141505109E0
:101950006109710940835183628373830197A105F3
:10196000B10509F03FC0F801C081D1812097A9F1EC
:10197000C884D984C114D10481F18A85882369F18E
:1019800080FF24C08C819D81AE81BF81892B8A2BF1
:101990008B2BB1F1F6013297808191812AE0289F4B
:1019A0007001299FF00C1124EC0CFD1C9701888517
:1019B0009985FAE0EF1AF1088217930721F0C70121
:1019C0000E945E0CF3CF02970E94AD1A1A86198608
:1019D0001886188219821A821B82D8018D919C91D7
:1019E0000E94AD1AF8011182108281E090E0DF912F
:1019F000CF911F910F91FF90EF90DF90CF900895BE
:101A0000C6010E945E0CC601DFCF8FEF9FEFEFCFC4
:101A1000EF92FF920F931F93CF93DF93DB01ED9132
:101A2000FC91309709F470C080819181A281B381CB
:101A30000097A105B10509F467C08B01AC01BD0198
:101A40004150510961097109408351836283738355
:101A50000197A105B10509F04BC0F801C081D18102
:101A6000209709F440C0E884F984E114F104D9F125
:101A70008A858823C1F180FF2FC08C819D81AE8132
:101A8000BF81892B8A2B8B2BE9F0F701329780815C
:101A900091814FE0489F9001499F300D11242E0DF8
:101AA0003F1D488559857901FFE0EF1AF108C9010A
:101AB00002974217530771F0BC0108970E948C0CE3
:101AC0009701EFCFB701635F7F4FC70105960E9473
:101AD0008C0CC7010E94AD1A1A86198618861882C6
:101AE00019821A821B82D8018D919C910E94AD1A95
:101AF000F8011182108281E090E0DF91CF911F9177
:101B00000F91FF90EF9008958FEF9FEFF6CFCF9258
:101B1000DF92EF92FF920F931F93CF93DF938FE0AB
:101B200090E00E94111AEC018FE0DE011D928A956F
:101B3000E9F76E01B5E0CB0ED11C8AE090E00E947F
:101B4000111A8C018AE090E00E94111A7C018AE04F
:101B5000F70111928A95E9F7D8011D921D921D9205
:101B60001C921397F801148215821682178211862F
:101B70001086C8010896E114F104D1F50E944107CE
:101B80001D821E821F82188619861A861B861C8655
:101B90001E861D86BE01635F7F4FC60101151105BC
:101BA00009F041C00E948C0C1092A6011092A7016E
:101BB0001092A8011092A9011092AA011092AB01F3
:101BC0001092AC011092AD011092AF011092AE01D3
:101BD0006EEA71E086EA91E02097C9F5DF91CF9136
:101BE0001F910F91FF90EF90DF90CF900C94080D14
:101BF000BC01C8010E942405019611F2D801189673
:101C0000ED91FC91199782858D7F82871896ED91D1
:101C1000FC9119978285816082871896ED91FC91DD
:101C2000F186E086ADCF0E94F004019609F4BCCFA6
:101C3000ED85FE8582858D7F8287ED85FE85828597
:101C400081608287ED85FE8511870087ADCF0E9478
:101C5000F004019651F0E091AE01F091AF01828560
:101C60008D7F81608287D187C087DF91CF911F915F
:101C70000F91FF90EF90DF90CF9008956EEA71E0A2
:101C800086EA91E00C94080D6F927F928F929F925A
:101C9000AF92BF92CF92DF92EF92FF920F931F937A
:101CA000CF93DF93CDB7DEB7C055D1090FB6F89407
:101CB000DEBF0FBECDBF7C018B0180919E018111E3
:101CC00005C00E94870D81E080939E012B961CAE7B
:101CD0001DAE1EAE1FAE2B972F961CAE1DAE1EAEB8
:101CE0001FAE2F9761961FAE1EAE6197B801CE0151
:101CF000895B9F4F0E94590B86EA91E00E94500237
:101D00003C0121961CAE1DAE1EAE1FAE219725963E
:101D10001CAE1DAE1EAE1FAE259727961FAE1EAE83
:101D20002797BE01695B7F4FCE01CD960E94590B6C
:101D3000D7011D921D921D921C921397F7011482D8
:101D400015821682178211861086B701685F7F4F51
:101D5000C7010E9458050196C1F0D70118960D9150
:101D60001C911997F801828581FF72C1C8010B96F9
:101D7000918780871896ED91FC910084F185E02D84
:101D8000108212821182148213828CE090E00E94F1
:101D9000111A8C0184E191E0F80191838083128211
:101DA000138214821582168217821086118613867A
:101DB0001286BE01635C7F4FC80102960E94590BD8
:101DC0001BAA1CAA1DAA1EAA1FAA18AE19AE1AAEDB
:101DD0001CAE1BAE0115110509F04AC1BE01655CC0
:101DE0007F4FCE01C3960E945C08F5E06F0E711C18
:101DF000C3010E94D1028C0119A61AA61BA61CA61B
:101E00001DA61EA61FA618AA1AAA19AABE016D5CB5
:101E10007F4FCE0189960E942B098CE090E00E94B2
:101E2000111A6C018AE091E0D60111969C938E9371
:101E3000F601128213821482158216961D921D924B
:101E40001D921C9219971B961C921E921A97BE0106
:101E5000675D7F4FC60102960E942B091D8A1E8A6C
:101E60001F8A188E198E1A8E1B8E1C8E1E8E1D8E2A
:101E7000C114D10409F005C1BE01635E7F4FCE01DC
:101E800045960E945C081F8E18A219A21AA21BA2D6
:101E90001CA21DA21EA218A61FA2CE0187960E94F8
:101EA0008A07D7011896ED91FC913097E1F0828571
:101EB0008823C9F080819181A281B381892B8A2BEB
:101EC0008B2B89F080859185892B69F0F8A7EFA38A
:101ED00080819181A281B3810196A11DB11D808372
:101EE0009183A283B383F70180819181A281B38121
:101EF0008F8F98A3A9A3BAA384819581A681B78166
:101F00008BA39CA3ADA3BEA3C8010E94B9025C0130
:101F1000C8010E941903882309F4BCC0BE016B5E8E
:101F20007F4FCE0101960E9466098AE190E00E94EF
:101F3000111A6C01DC0111961C921E9213961C92D0
:101F40001E92129715961C921E921497BE016F5FF7
:101F50007F4F06960E946609C8010E94BF01FC01DE
:101F6000D182C082CE0101960E94BE09C8010E94A2
:101F7000BF01DC01ED91FC9191838083C8010E9437
:101F8000BF016C01C8010E94B902F60195838483E8
:101F9000C8010E94BF01FC0146815781608571859F
:101FA0004F5F5F4F6F4F7F4F4683578360877187C7
:101FB000CE0145960E94BE09BE016F5C7F4FCE01E7
:101FC00089960E945C08C3010E94D1026C01C7017E
:101FD0000E94F5028C01C6010E94B902F8019283A9
:101FE0008183C7010E94F50221E0DC012C93C70127
:101FF0000E94F5028C01C3010E94D102F801948372
:102000008383BE01655C7F4FCE01C3960E945C084E
:10201000CE01CD960E94420BCE01895B9F4F0E945C
:10202000420BC701C05BDF4F0FB6F894DEBF0FBE97
:10203000CDBFDF91CF911F910F91FF90EF90DF9077
:10204000CF90BF90AF909F908F907F906F900895AA
:1020500085E090E00E94111AFC0110821282118228
:1020600014821382D80119969C938E9318978DCE63
:10207000A801BE01655C7F4FCE01C3960E94D808BF
:10208000B4CEA601BE01635E7F4FCE0145960E948D
:10209000D808F9CEB501C8010E943403BE016B5EB9
:1020A0007F4F882309F44EC0CE0101960E94660935
:1020B0008AE190E00E94111A6C01DC0111961C92D9
:1020C0001E9213961C921E92129715961C921E92A7
:1020D0001497BE016F5F7F4F06960E946609CE017E
:1020E00001960E94BE09C8010E94BF01F6019183BA
:1020F0008083D50114968D909C9095828482811462
:10210000910419F0F401D382C282D50112968D9107
:102110009C91892B31F4C8010E94BF01FC01B5825A
:10212000A482892831F4C8010E94BF01DC01CD924C
:10213000DC92F601B382A282D5011596DC92CE9292
:10214000149726CFCE0101960E9466098AE190E09D
:102150000E94111A6C01FC011182108213821282FA
:1021600015821482BE016F5F7F4F06960E9466093A
:10217000CE0101960E94BE09C8010E94BF01D6018E
:102180008D939C93C8010E94BF025C01FC01848175
:102190009581892B31F4C8010E94BF01DC01AD9209
:1021A000BC92F60182819381892B41F4C8010E947F
:1021B000BF01DC011596DC92CE921497F601B58230
:1021C000A482D5011396DC92CE921297E1CE7F9233
:1021D0008F929F92AF92BF92CF92DF92EF92FF9237
:1021E0000F931F93CF93DF93CDB7DEB764970FB6EE
:1021F000F894DEBF0FBECDBF7C015B01FC011082F5
:10220000118212821382148215821682178211861D
:102210001086FB0101900020E9F731978F01061B22
:10222000170B09F047C01B861C861D861E861F865D
:10223000188A198A1A8A1C8A1B8ACE0143960E9420
:10224000D307C70108960E94D3070B891C89C801D0
:102250000E947601811105C0F701118700871C8A51
:102260001B8A8B859C85AD85BE85F7018083918314
:10227000A283B3838F859889A989BA89848395833A
:10228000A683B783CE0143960E94D30764960FB608
:10229000F894DEBF0FBECDBFDF91CF911F910F919C
:1022A000FF90EF90DF90CF90BF90AF909F908F9076
:1022B0007F90089519821A821B821C821D821E82C1
:1022C0001F8218861A861986980150E040E02F5F19
:1022D0003F4F4F4F5F4FBE01675F7F4FCE0101966B
:1022E0000E941C08019651F0C984DA84F6018285A7
:1022F00081FF57C0C6010B969187808789849A8495
:10230000C4010E947601782EB401CE0101960E948C
:102310008D016C0171100FC04D815E816F817885D8
:1023200089819A81AB81BC81481759076A077B076D
:10233000F1F5F601108269857A85CE0101960E9439
:102340008D01A801B5010E94361B1B861C861D86C7
:102350001E861F86188A198A1A8A1C8A1B8ACE0131
:1023600043960E94D30709851A85C8010E94760109
:10237000811104C01C8B0B8B1A86198689819A8166
:10238000AB81BC818B879C87AD87BE878D819E8109
:10239000AF81B8858F87988BA98BBA8BCE010996B0
:1023A0004ECFC80101960E94111AF601A5CFB401C3
:1023B000CE0105960E948D01C816D90609F4BBCF3F
:1023C000F60111926F01F8CFEF92FF920F931F93D6
:1023D000CF93DF93CDB7DEB7D2500FB6F894DEBF00
:1023E0000FBECDBF8C01CB01F42E0E94B3041F920F
:1023F000FF929F938F9382E08F931F92CE0101965D
:102400007C019F938F930E943F1BB701C8010E94DC
:10241000E7100FB6F894DEBF0FBECDBFC801DE5F78
:102420000FB6F894DEBF0FBECDBFDF91CF911F91E5
:102430000F91FF90EF9008954F925F926F927F926D
:102440008F929F92AF92BF92CF92DF92EF92FF92C4
:102450000F931F93CF93DF93CDB7DEB76C970FB673
:10246000F894DEBF0FBECDBF2B014A013901FA013E
:10247000D080E180F28003811481B581C680B7806D
:102480002D2D3E2D4F2D502F612F7B2F8C2D9B2DD1
:10249000A0E00E94EB1929F1A4E10E94EB1909F4D4
:1024A00069C0F3011082118212821382F40110823A
:1024B0001182128213821482158216821782109260
:1024C0008E0110928F011092900110929101109242
:1024D00093011092920188E080938D018FEF9FEF1E
:1024E0009AC010928E0110928F011092900110925A
:1024F0009101109293011092920181E080938D01DD
:1025000060E080E00E942C076EE471E0CE0101964D
:102510000E94E71040919401BE016F5F7F4FCE0192
:102520000B960E94E411CE010B960E94B3040E9408
:10253000DE04CE0143960E94D307CE0109960E9485
:10254000D3070E94A403A8EEAA2EB3E0BB2EC12C91
:10255000D12CE12CF12C00E010E00E946719DA0187
:10256000C9018C509E4FAF4FBF4FF30180839183C1
:10257000A283B3830E94A403F301A080B180C28030
:10258000D38076016701E12CF12C8701AD8ABE8AE8
:10259000CF8AD88EE98EFA8E0B8F1C8FE8EEAE2E86
:1025A000F3E0BF2EC12CD12CE12CF12C00E010E087
:1025B0000E94671959016A017B018C012D893E89AE
:1025C0004F89588D60E070E080E090E00E94E21951
:1025D000E1F1D8F184E1F401808311821282138247
:1025E000148215821682178284E190E09093930101
:1025F0008093920184EF91E0A0E0B0E080938E019F
:1026000090938F01A0939001B093910184E0809307
:102610008D0181E090E0F201918380836C960FB68A
:10262000F894DEBF0FBECDBFDF91CF911F910F9108
:10263000FF90EF90DF90CF90BF90AF909F908F90E2
:102640007F906F905F904F9008958091940190E0FB
:10265000019663E670E00E9451198093940150CF77
:102660004F925F926F927F928F929F92AF92BF92A2
:10267000CF92DF92EF92FF920F931F93CF93DF934E
:10268000CDB7DEB76C970FB6F894DEBF0FBECDBFE7
:102690002B014A013901FA01D080E180F2800381E7
:1026A0001481B581C680B7802D2D3E2D4F2D502F22
:1026B000612F7B2F8C2D9B2DA0E00E94EB1929F11F
:1026C000A0E20E94EB1909F469C0F30110821182A3
:1026D00012821382F40110821182128213821482F8
:1026E00015821682178210928E0110928F0110921D
:1026F000900110929101109293011092920188E042
:1027000080938D018FEF9FEF9AC010928E011092EF
:102710008F011092900110929101109293011092EA
:10272000920181E080938D0161E080E00E942C079E
:1027300067E571E0CE0101960E94E71040918C019F
:10274000BE016F5F7F4FCE010B960E94E411CE0158
:102750000B960E94B3040E94DE04CE0143960E94B1
:10276000D307CE0109960E94D3070E94A403A8EEC6
:10277000AA2EB3E0BB2EC12CD12CE12CF12C00E011
:1027800010E00E946719DA01C90188539F4FAF4FCB
:10279000BF4FF30180839183A283B3830E94A4037C
:1027A000F301A080B180C280D38076016701E12C63
:1027B000F12C8701AD8ABE8ACF8AD88EE98EFA8E37
:1027C0000B8F1C8FE8EEAE2EF3E0BF2EC12CD12C68
:1027D000E12CF12C00E010E00E94671959016A0118
:1027E0007B018C012D893E894F89588D60E070E016
:1027F00080E090E00E94E219E1F1D8F180E2F4017A
:1028000080831182128213821482158216821782AB
:1028100080E290E0909393018093920188EC90E0A5
:10282000A0E0B0E080938E0190938F01A09390017F
:10283000B093910184E080938D0181E090E0F201FA
:10284000918380836C960FB6F894DEBF0FBECDBF28
:10285000DF91CF911F910F91FF90EF90DF90CF907C
:10286000BF90AF909F908F907F906F905F904F90B0
:10287000089580918C0190E0019663E670E00E94DB
:10288000511980938C0150CF4F925F926F927F923B
:102890008F929F92AF92BF92CF92DF92EF92FF9270
:1028A0000F931F93CF93DF93CDB7DEB76C970FB61F
:1028B000F894DEBF0FBECDBF2B014A013901FA01EA
:1028C000D080E180F28003811481B581C680B78019
:1028D0002D2D3E2D4F2D502F612F7B2F8C2D9B2D7D
:1028E000A0E00E94EB1929F1ACE20E94EB1909F477
:1028F00069C0F3011082118212821382F4011082E6
:10290000118212821382148215821682178210920B
:102910008E0110928F0110929001109291011092ED
:1029200093011092920188E080938D018FEF9FEFC9
:102930009AC010928E0110928F0110929001109205
:102940009101109293011092920181E080938D0188
:1029500060E089E00E942C0760E671E0CE010196FC
:102960000E94E71040918B01BE016F5F7F4FCE0147
:102970000B960E94E411CE010B960E94B3040E94B4
:10298000DE04CE0143960E94D307CE0109960E9431
:10299000D3070E94A403A8EEAA2EB3E0BB2EC12C3D
:1029A000D12CE12CF12C00E010E00E946719DA0133
:1029B000C901845D9E4FAF4FBF4FF3018083918368
:1029C000A283B3830E94A403F301A080B180C280DC
:1029D000D38076016701E12CF12C8701AD8ABE8A94
:1029E000CF8AD88EE98EFA8E0B8F1C8FE8EEAE2E32
:1029F000F3E0BF2EC12CD12CE12CF12C00E010E033
:102A00000E94671959016A017B018C012D893E8959
:102A10004F89588D60E070E080E090E00E94E219FC
:102A2000E1F1D8F18CE2F4018083118212821382E9
:102A300014821582168217828CE290E090939301A3
:102A4000809392018CE291E0A0E0B0E080938E014F
:102A500090938F01A0939001B093910184E08093B3
:102A60008D0181E090E0F201918380836C960FB636
:102A7000F894DEBF0FBECDBFDF91CF911F910F91B4
:102A8000FF90EF90DF90CF90BF90AF909F908F908E
:102A90007F906F905F904F90089580918B0190E0B0
:102AA000019663E670E00E94511980938B0150CF2C
:102AB0004F925F926F927F928F929F92AF92BF924E
:102AC000CF92DF92EF92FF920F931F93CF93DF93FA
:102AD000CDB7DEB76C970FB6F894DEBF0FBECDBF93
:102AE0002B014A013901FA01D080E180F280038193
:102AF0001481B581C680B7802D2D3E2D4F2D502FCE
:102B0000612F7B2F8C2D9B2DA0E00E94EB1929F1CA
:102B1000A8E30E94EB1909F469C0F3011082118245
:102B200012821382F40110821182128213821482A3
:102B300015821682178210928E0110928F011092C8
:102B4000900110929101109293011092920188E0ED
:102B500080938D018FEF9FEF9AC010928E0110929B
:102B60008F01109290011092910110929301109296
:102B7000920181E080938D0161E089E00E942C0741
:102B800069E671E0CE0101960E94E71040918A014A
:102B9000BE016F5F7F4FCE010B960E94E411CE0104
:102BA0000B960E94B3040E94DE04CE0143960E945D
:102BB000D307CE0109960E94D3070E94A403A8EE72
:102BC000AA2EB3E0BB2EC12CD12CE12CF12C00E0BD
:102BD00010E00E946719DA01C90180579E4FAF4F7C
:102BE000BF4FF30180839183A283B3830E94A40328
:102BF000F301A080B180C280D38076016701E12C0F
:102C0000F12C8701AD8ABE8ACF8AD88EE98EFA8EE2
:102C10000B8F1C8FE8EEAE2EF3E0BF2EC12CD12C13
:102C2000E12CF12C00E010E00E94671959016A01C3
:102C30007B018C012D893E894F89588D60E070E0C1
:102C400080E090E00E94E219E1F1D8F188E3F4011C
:102C50008083118212821382148215821682178257
:102C600088E390E0909393018093920180E991E052
:102C7000A0E0B0E080938E0190938F01A09390012B
:102C8000B093910184E080938D0181E090E0F201A6
:102C9000918380836C960FB6F894DEBF0FBECDBFD4
:102CA000DF91CF911F910F91FF90EF90DF90CF9028
:102CB000BF90AF909F908F907F906F905F904F905C
:102CC000089580918A0190E0019663E670E00E9489
:102CD000511980938A0150CF1F920F920FB60F9215
:102CE00011242F933F938F939F93AF93BF93809122
:102CF000960190919701A0919801B091990130911E
:102D0000950123E0230F2D3758F50196A11DB11D24
:102D1000209395018093960190939701A093980139
:102D2000B093990180919A0190919B01A0919C018F
:102D3000B0919D010196A11DB11D80939A019093C0
:102D40009B01A0939C01B0939D01BF91AF919F9176
:102D50008F913F912F910F900FBE0F901F9018955C
:102D600026E8230F0296A11DB11DD2CFCF93DF938A
:102D7000CDB7DEB76E970FB6F894DEBF0FBECDBFEE
:102D8000789484B5826084BD84B5816084BD85B546
:102D9000826085BD85B5816085BD80916E00816052
:102DA00080936E00109281008091810082608093F8
:102DB00081008091810081608093810080918000FA
:102DC0008160809380008091B10084608093B10025
:102DD0008091B00081608093B00080917A0084601F
:102DE00080937A0080917A00826080937A0080914B
:102DF0007A00816080937A0080917A008068809365
:102E00007A001092C10082E00E948A0681E090E080
:102E10000E94111A8C01FC0110821D8A1E8A1F8AD1
:102E2000188E198E1A8E1B8E1C8E1E8E1D8E892B4F
:102E300009F0B0C1CE014D960E94D30786E190E023
:102E40000E94111A7C0116E1FC01212F11922A9592
:102E5000E9F70E94B00AB701CE010B960E94990BC8
:102E600083E090E00E94111A2AE231E0FC013183F4
:102E70002083BC01CE0101960E947C0ACE010B96F4
:102E80000E94E101BE016F5F7F4F0E944D0ACE019B
:102E900001960E94480ABE01655F7F4FCE010196F0
:102EA0000E94440ECE0109960E948A07CE010B961D
:102EB0000E94420B86E190E00E94111A7C01FC0105
:102EC000212F11922A95E9F70E94B00AB701CE018D
:102ED0000B960E94990B83E090E00E94111A24E364
:102EE00031E0FC0131832083BC01CE0101960E94B8
:102EF0007C0ACE010B960E94E101BE016F5F7F4FFD
:102F00000E944D0ACE0101960E94480ABE01655FEB
:102F10007F4FCE0101960E94440ECE0109960E9479
:102F20008A07CE010B960E94420B86E190E00E9438
:102F3000111A7C01FC01212F11922A95E9F70E94B8
:102F4000B00AB701CE010B960E94990B83E090E086
:102F50000E94111A2EE331E0FC0131832083BC0171
:102F6000CE0101960E947C0ACE010B960E94E101DF
:102F7000BE016F5F7F4F0E944D0ACE0101960E94F5
:102F8000480ABE01655F7F4FCE0101960E94440E44
:102F9000CE0109960E948A07CE010B960E94420B31
:102FA00086E190E00E94111A7C01FC0111921A95B1
:102FB000E9F70E94B00AB701CE010B960E94990B67
:102FC00083E090E00E94111A28E431E0FC01318393
:102FD0002083BC01CE0101960E947C0ACE010B9693
:102FE0000E94E101BE016F5F7F4F0E944D0ACE013A
:102FF00001960E94480ABE01655F7F4FCE0101968F
:103000000E94440ECE0109960E948A07CE010B96BB
:103010000E94420BCE014D960E94D30788248A94C9
:10302000982C540144E0242E3324339480919E0143
:10303000811104C00E94870D30929E0186EA91E0C2
:103040000E9450028C010B5F1F4FC8010E94D102E9
:103050007C010E94190381112BC0C7010E947E03CD
:10306000892B31F1C8010E94D1020E947E036C01BC
:10307000C8010E94D1020E947E03FC0184819581D7
:1030800066246A94762C892B19F066246394712C3B
:103090007601F0E1EF0EF11CC7010E94F502FC0180
:1030A000908191FF8DC0C8010E94D1020E945103FE
:1030B00086EA91E00E945002FC0190819064908326
:1030C00086EA91E00E945002FC01418152816381B5
:1030D0007481452B462B472B21F0118212821382DB
:1030E000148286EA91E00E9450028C0105960E94AB
:1030F000D1027C010E94190381110CC0C7010E94FA
:10310000BF01FC0186819781A085B185892B8A2B1F
:103110008B2BD1F4E091AE01F091AF013097A1F08B
:103120008285882389F080819181A281B381009773
:10313000A105B10549F020853185232B29F002979F
:10314000A105B10508F076C0F801C180D280E38006
:10315000F4800E941F012B013C01C114D104E10441
:10316000F10409F46EC00E941F01641975098609F3
:103170009709683E73408105910578F3F1E0CF1A15
:10318000D108E108F10828EE420E23E0521E611C2E
:10319000711CE3CF20E030E0A901BE01635E7F4FE8
:1031A000CE0145960E941C08019609F447CEED8D8C
:1031B000FE8D82858D7F81608287118700873ECE5C
:1031C00092FF0EC0C8010E94D102B6010E94CD0B31
:1031D00080E090E0892B09F429CF0E94000026CFDF
:1031E00092609083C60106960E9474026C01C80129
:1031F0000E94D1020E941903811112C02FEFC21642
:10320000D20691F0CD2861F0C7010E94F502FC01C1
:1032100090819D7F9083C8010E94D1020E9451033A
:103220006A946728A9F244CFC7010E94F502FC0105
:103230002082F6CF88EEC82E83E0D82EE12CF12C28
:1032400088CF86EA91E00E945002FC01818292823E
:10325000A382B48286EA91E00E945002FC01908130
:103260009F7B9083B5CFE0EBF1E0138212828EE179
:1032700091E0918380838CE084838FEF85838BE062
:1032800086838AE0878389E0808788E0818787E07A
:1032900082871386148615861686178681E00C941D
:1032A0008A0697FB072E16F4009407D077FD09D005
:1032B0000E94F71907FC05D03EF4909581959F4F29
:1032C0000895709561957F4F0895689401C0E894C2
:1032D0008F929F92CF93DF930E947319DF91CF91CA
:1032E0009F908F90089588249924F401E401B0E41C
:1032F0009F93AA279A158B049C04ED05FE05CF0524
:10330000D007A10798F4AD2FDC2FCF2FFE2FE92D8A
:10331000982C892E982F872F762F652F542F432F87
:10332000322F2227B85031F7BF9127C01B2EBF91F3
:10333000BB27220F331F441F551F661F771F881F8F
:10334000991F881C991CEE1FFF1FCC1FDD1FAA1F91
:10335000BB1F8A149B04EC05FD05CE05DF05A00705
:10336000B10748F08A189B08EC09FD09CE09DF096E
:10337000A00BB10B21601A94E1F62EF49401AF0179
:10338000BE01CD01000C08952A0D3B1D4C1D5D1D95
:103390006E1D7F1D801F911F08950024A7FD0094BE
:1033A0002A0F301D401D501D601D701D801D901D79
:1033B00008952A193B094C095D096E097F09800BA4
:1033C000910B08952A153B054C055D056E057F059B
:1033D0008007910708950024A7FD00942A1730055F
:1033E0004005500560057005800590050895AA1BED
:1033F000BB1B51E107C0AA1FBB1FA617B70710F0E0
:10340000A61BB70B881F991F5A95A9F78095909511
:10341000BC01CD010895EE0FFF1F0590F491E02D42
:1034200009940F931F93CF93DF938230910510F48B
:1034300082E090E0E091CA01F091CB0130E020E021
:10344000B0E0A0E0309799F42115310509F44AC0A5
:10345000281B390B24303105D8F58A819B816115F1
:10346000710589F1FB0193838283FE0111C04081C4
:1034700051810281138148175907E0F04817590715
:1034800099F4109761F012960C93129713961C936F
:103490003296CF01DF91CF911F910F910895009344
:1034A000CA011093CB01F4CF2115310551F0421719
:1034B000530738F0A901DB019A01BD01DF01F801D2
:1034C000C1CFEF01F9CF9093CB018093CA01CDCF4B
:1034D000FE01E20FF31F819391932250310939834A
:1034E0002883D7CF2091C8013091C901232B41F403
:1034F00020910201309103013093C9012093C8014A
:1035000020910001309101012115310541F42DB7C1
:103510003EB74091040150910501241B350BE09109
:10352000C801F091C901E217F307A0F42E1B3F0B6D
:103530002817390778F0AC014E5F5F4F2417350725
:1035400048F04E0F5F1F5093C9014093C80181930B
:1035500091939FCFF0E0E0E09CCFCF93DF93009773
:10356000E9F0FC01329713821282A091CA01B09156
:10357000CB01ED0130E020E01097A1F420813181F2
:10358000820F931F2091C8013091C9012817390774
:1035900009F061C0F093C901E093C801DF91CF91B8
:1035A0000895EA01CE17DF07E8F54A815B819E01A5
:1035B00041155105B1F7E901FB83EA83499159911E
:1035C000C40FD51FEC17FD0761F48081918102962D
:1035D000840F951FE90199838883828193819B835E
:1035E0008A83F0E0E0E012968D919C91139700970A
:1035F000B9F52D913C911197CD010296820F931F41
:103600002091C8013091C9012817390739F6309740
:1036100051F51092CB011092CA01B093C901A09349
:10362000C801BCCFD383C28340815181840F951FD1
:10363000C817D90761F44E5F5F4F88819981480FA1
:10364000591F518340838A819B81938382832115F3
:10365000310509F0B0CFF093CB01E093CA019ECFC2
:10366000FD01DC01C0CF13821282D7CFFB01DC0148
:1036700002C001900D9241505040D8F70895AEE03D
:10368000B0E0E5E4FBE10C94FB1D0D891E898F89F8
:10369000988D26E02C831A83098397FF02C080E06F
:1036A00090E801979E838D83AE01455E5F4F698DE3
:1036B0007A8DCE0101960E946F1B4D815E8157FD70
:1036C0000AC02F813885421753070CF49A01020F64
:1036D000131FF80110822E96E4E00C94171EABE045
:1036E000B0E0E5E7FBE10C94ED1D7C013B018A01B4
:1036F000FC0117821682838181FFC8C1CE01019629
:103700005C01F7019381F30193FD859193FF819112
:103710003F01882309F453C1853239F493FD859123
:1037200093FF81913F01853229F4B70190E00E9417
:103730005F1DE7CF912C212C312CFFE1F31538F0E0
:103740008B3211F190F4803209F1833229F137FC88
:103750003CC020ED280F2A3050F536FE20C08AE00C
:10376000989E200D1124922E06C08D3291F0803348
:1037700071F7689430F8F30193FD859193FF81917F
:103780003F018111DACF21C0689431F8689432F892
:10379000F2CF689433F8EFCF689434F8ECCFEAE0D6
:1037A0002E9E200D1124222E689435F8E4CF8E32FF
:1037B00029F436FC04C1689436F8DDCF8C3619F450
:1037C000689437F8D8CF8836B1F2982F9F7D9554FA
:1037D0009330E0F08336A1F18337C1F1833509F0EE
:1037E00063C02801F2E04F0E511CF801C080D18067
:1037F000692D70E036FC02C06FEF7FEFC6010E94BA
:10380000491D4C01689437F882010AC00C5F1F4FB4
:10381000FFE3F98388248394912C6501E89437F8B9
:1038200033FE2DC0522C8114910471F5552009F4FA
:1038300068CFB70180E290E00E945F1D5A94F6CFF6
:10384000F801808189830E5F1F4FE4CF2801F2E0E9
:103850004F0E511CF801C080D180692D70E036FCFC
:1038600002C06FEF7FEFC6010E94541D4C01820120
:10387000D5CFB70180E290E00E945F1D2A94281402
:10388000190409F0B0F7CECFF60137FC859137FE69
:1038900081916F01B70190E00E945F1D51105A9411
:1038A000F1E08F1A9108BFCF843619F0893609F0FC
:1038B00077C0F80137FE6BC060817181828193818E
:1038C0000C5F1F4FF32DFF763F2E97FF09C0909599
:1038D0008095709561957F4F8F4F9F4F689437F813
:1038E0002AE030E0A5010E948F1DC82ECA188C2C3A
:1038F000432C36FE0CC0E89440F8C91440F434FE62
:1039000005C032FC03C0F32DFE7E4F2E892C44FEF1
:1039100095C0FE01EC0DF11D8081803309F087C058
:10392000242D297E422E842D8870582E43FC95C06C
:1039300040FE8FC09C2C821418F42C0C922C9818EA
:1039400044FE91C0B70180E390E00E945F1D42FEFB
:1039500009C088E790E041FE02C088E590E0B70129
:103960000E945F1DC91408F48AC0CA94D12C9FEF2D
:10397000C91AD90ACA0CDB1CF60182916F01B70182
:1039800090E00E945F1DAC14BD04B1F74FCF608181
:103990007181072E000C880B990B0E5F1F4F92CF81
:1039A000D32CE894D4F82AE030E0853739F1232D80
:1039B000297FD22E8F3601F148F48835A9F0F7011E
:1039C000868197812B96E2E10C94091E803749F09D
:1039D0008837A9F7D4FE02C06894D2F820E130E01D
:1039E0000DC06894D4F8F6CF34FE03C0822F8660F1
:1039F000D82E20E132E002C028E030E0F801D7FE06
:103A00000FC060817181828193810C5F1F4FA5017E
:103A10000E948F1DC82ECA183D2CE89437F867CF36
:103A20006081718190E080E00E5F1F4FF0CF42FC1B
:103A300002C0839478CF8394839475CF842D867845
:103A400009F471CFF6CFB70180E290E00E945F1DCC
:103A500083948214C0F3512C73CF522C58188214C3
:103A600008F46ECFF8CF842D867809F47BCF8BE2F3
:103A700041FE80E247FC8DE2B70190E071CFB701D3
:103A800080E390E00E945F1D9A946CCF8FEF9FEFD0
:103A900099CFFC010590615070400110D8F78095D6
:103AA00090958E0F9F1F0895FC016150704001900A
:103AB0000110D8F7809590958E0F9F1F08950F9352
:103AC0001F93CF93DF93182F092FEB018B8181FD7B
:103AD00009C01FEF0FEF812F902FDF91CF911F9122
:103AE0000F91089582FF14C02E813F818C819D81AA
:103AF000281739073CF4E881F981CF0101969983B1
:103B0000888310838E819F8101969F838E83E3CF6C
:103B1000E885F985812F0995892BA1F3DACFFA0180
:103B2000AA27283051F1203181F1E8946F936E7FFC
:103B30006E5F7F4F8F4F9F4FAF4FB1E03ED0B4E0ED
:103B40003CD0670F781F891F9A1FA11D680F791F2E
:103B50008A1F911DA11D6A0F711D811D911DA11D3F
:103B600020D009F468943F912AE0269F112430194F
:103B7000305D3193DEF6CF010895462F4770405DEA
:103B80004193B3E00FD0C9F7F6CF462F4F70405D99
:103B90004A3318F0495D31FD4052419302D0A9F7F4
:103BA000EACFB4E0A6959795879577956795BA95EE
:103BB000C9F700976105710508959B01AC010A2EB4
:103BC00006945795479537952795BA95C9F7620F8B
:103BD000731F841F951FA01D08952F923F924F922F
:103BE0005F926F927F928F929F92AF92BF92CF928D
:103BF000DF92EF92FF920F931F93CF93DF93CDB796
:103C0000DEB7CA1BDB0B0FB6F894DEBF0FBECDBF0D
:103C100009942A88398848885F846E847D848C84DE
:103C20009B84AA84B984C884DF80EE80FD800C81E7
:103C30001B81AA81B981CE0FD11D0FB6F894DEBFCA
:0C3C40000FBECDBFED010895F894FFCF3A
:103C4C000000CC0120000000000016092109AE0282
:103C5C0000000000470B4F0B0502000000003B0763
:103C6C00A6004501440100000000BE0154081C12CE
:103C7C0000000000BE015608301300000000BE0119
:103C8C005808441400000000BE015A08581554731B
:103C9C006B313D2564200054736B323D256420004C
:103CAC0054736B333D2564200054736B343D256491
:023CBC002000E6
:107E0000112484B714BE81FFFDD085E080938100EA
:107E100082E08093C00088E18093C10096E0909357
:107E2000C20090E19093C400809360008EE0809344
:107E30006000259A86E020E33CEF91E030938500D6
:107E40002093840096BBB09BFECF1D9AA8958150CD
:107E5000A9F7C0E0D0E008E138E0F32EEE24E39487
:107E600045E0B42E51E1A52E13E0A7D0813491F462
:107E7000A4D0D82EAED082E8D81203C084E096D029
:107E800092C0E1E8DE1203C084E090D08CC083E0B1
:107E90008DD089C0823419F484E1A7D084C08534A0
:107EA00019F485E0A2D07FC0853549F486D0C82F6B
:107EB00084D0D0E0D82BCC0FDD1F8BD074C086359A
:107EC00029F484E092D080E071D06DC0843609F04E
:107ED0003FC073D072D0982E70D0C115F0E7DF0785
:107EE00038F4FE0117BFE895C12CDD24D39403C0FC
:107EF000C12CDD24D39461D0F60181936F019E12D1
:107F0000FACFC115F0E7DF0718F0FE0117BFE895BB
:107F100060D007B600FCFDCFFE01A0E0B1E08C917F
:107F200011962C91119790E0922B0C01E7BEE895E9
:107F3000112432961296A03881E0B80781F7FE012D
:107F4000B7BEE89507B600FCFDCFA7BEE8952BC0ED
:107F50008437B1F432D031D0982E2FD03AD0892C3A
:107F6000FE016F018FEFC81AD80A84911FD08A943E
:107F7000F6018110F6CF21969A94C90DD11D13C038
:107F8000853741F426D08EE111D085E90FD08FE0FE
:107F90000DD009C0813531F400936000F09260008B
:107FA00018D001C016D080E101D05FCF9091C00001
:107FB00095FFFCCF8093C60008958091C00087FF95
:107FC000FCCF8091C00084FD01C0A8958091C600BF
:107FD0000895F3DF803239F088E18093600088E013
:107FE00080936000FFCF84E1E1CFCF93C82FE5DF1E
:107FF000C150E9F7CF91EDCFE0E6F0E098E1908352
:1080000080830895E0E6F0E088E180831082EE2727
:04801000FF270994A9
:027FFE00040479
:0400000300007E007B
:00000001FF
