:100000000C9463000C948B000C948B000C948B006C
:100010000C948B000C948B000C948B000C948B0034
:100020000C948B000C948B000C948B000C948B0024
:100030000C948B000C948B000C948B000C948B0014
:100040000C946C220C948B000C943A220C94142285
:100050000C948B000C948B000C948B000C948B00F4
:100060000C948B000C948B000000000025002800ED
:100070002B0000000000240027002A0000000000E0
:1000800023002600290004040404040404040202DA
:100090000202020203030303030301020408102007
:1000A0004080010204081020010204081020000012
:1000B0000008000201000003040700000000000027
:1000C0000000B622B92811241FBECFEFD8E0DEBF52
:1000D000CDBF11E0A0E0B1E0ECE4FBE502C005908B
:1000E0000D92AE39B107D9F722E0AEE9B1E001C017
:1000F0001D92A638B207E1F710E0C2E6D0E004C0D6
:100100002197FE010E947929C136D107C9F70E94C3
:100110004C230C94992D0C940000AF92BF92CF9277
:10012000DF92EF92FF920F931F93CF93DF936C01B7
:100130007B018B01040F151FEB015E01AE18BF0898
:10014000C017D10759F06991D601ED91FC9101904A
:10015000F081E02DC6010995892B79F7C501DF9162
:10016000CF911F910F91FF90EF90DF90CF90BF90B4
:10017000AF900895FC01538D448D252F30E0842FDE
:1001800090E0821B930B541710F0CF9608950197BF
:100190000895FC01918D828D981761F0A28DAE0FAC
:1001A000BF2FB11D5D968C91928D9F5F9F73928F33
:1001B00090E008958FEF9FEF0895FC01918D828D5F
:1001C000981731F0828DE80FF11D858D90E008952C
:1001D0008FEF9FEF0895FC01918D228D892F90E084
:1001E000805C9F4F821B91098F73992708958BED37
:1001F00091E00E94EB0021E0892B09F420E0822F9E
:10020000089580E090E0892B29F00E94F700811189
:100210000C9400000895FC01A48DA80FB92FB11D06
:10022000A35ABF4F2C91848D90E001968F7399272C
:10023000848FA689B7892C93A089B1898C9183700A
:1002400080648C93938D848D981306C00288F38903
:10025000E02D80818F7D80830895EF92FF920F9330
:100260001F93CF93DF93EC0181E0888F9B8D8C8D62
:1002700098131AC0E889F989808185FF15C09FB756
:10028000F894EE89FF896083E889F9898081837019
:10029000806480839FBF81E090E0DF91CF911F91C8
:1002A0000F91FF90EF900895F62E0B8D10E00F5FE9
:1002B0001F4F0F731127E02E8C8D8E110CC00FB6BF
:1002C00007FCFACFE889F989808185FFF5CFCE0157
:1002D0000E940B01F1CFEB8DEC0FFD2FF11DE35AC6
:1002E000FF4FF0829FB7F8940B8FEA89FB898081DA
:1002F0008062CFCFCF93DF93EC01888D8823B9F054
:10030000AA89BB89E889F9898C9185FD03C0808120
:1003100086FD0DC00FB607FCF7CF8C9185FFF2CF9D
:10032000808185FFEDCFCE010E940B01E9CFDF91E7
:10033000CF910895833081F028F4813099F0823094
:10034000A9F008958730A9F08830C9F08430B1F45D
:10035000809180008F7D03C0809180008F77809393
:100360008000089584B58F7784BD089584B58F7D0E
:10037000FBCF8091B0008F778093B000089580917B
:10038000B0008F7DF9CFCF93DF93E5EBF0E0849160
:10039000E1EAF0E0D491EDE8F0E0C491CC23A1F0E3
:1003A00081110E949A01EC2FF0E0EE0FFF1FE4583C
:1003B000FF4FA591B491EC91ED2381E090E009F419
:1003C00080E0DF91CF91089580E090E0FACF1F9315
:1003D000CF93DF93282F30E0F901E255FF4F84914E
:1003E000F901E656FF4FD491F901EA57FF4FC49146
:1003F000CC23A9F0162F81110E949A01EC2FF0E076
:10040000EE0FFF1FE859FF4FA591B4918FB7F894F5
:10041000EC91111108C0D095DE23DC938FBFDF91E2
:10042000CF911F910895DE2BF8CF3FB7F8948091BC
:10043000C5019091C601A091C701B091C80126B530
:10044000A89B05C02F3F19F00196A11DB11D3FBF0C
:10045000BA2FA92F982F8827BC01CD01620F711DDB
:10046000811D911D42E0660F771F881F991F4A95D5
:10047000D1F70895FC01892B91F08285882379F0CA
:1004800080819181A281B381892B8A2B8B2B39F0BA
:1004900081E020853185232B19F080E0089581E0EB
:1004A00008950F931F93CF93DF93EC018B010E946C
:1004B0003A02811115C0F801D183C08388819981E6
:1004C000AA81BB810196A11DB11D88839983AA834E
:1004D000BB8381E090E0DF91CF911F910F91089550
:1004E0008FEF9FEFF8CFFC01892B91F08285882355
:1004F00079F080819181A281B381892B8A2B8B2B0A
:1005000039F081E020853185232B19F080E00895B2
:1005100081E00895FC01892B91F08285882379F090
:1005200080819181A281B381892B8A2B8B2B39F019
:1005300081E020853185232B19F080E0089581E04A
:100540000895FC01892B91F08285882379F08081C0
:100550009181A281B381892B8A2B8B2B39F081E089
:1005600020853185232B19F080E0089581E00895DE
:10057000FC01892B91F08285882379F0808191811B
:10058000A281B381892B8A2B8B2B39F081E02085C6
:100590003185232B19F080E0089581E008950F93B1
:1005A0001F93CF93DF938C01FC01C085D185CE01D1
:1005B0000E943A0281110EC0F80120813181220F80
:1005C000331F88859985820F931FDF91CF911F91EB
:1005D0000F91089590E080E0F8CFCF93DF93FC0176
:1005E000C085D185CE010E943A02811109C081E007
:1005F000488159816A817B81452B462B472B09F421
:1006000080E0DF91CF910895EF92FF920F931F93B7
:10061000CF93DF9300D0CDB7DEB77B01DA012D9108
:100620003C913A8329838C010E5F1F4FC8010E94C1
:10063000ED02882379F0C8010E94CF02DC01ED9120
:10064000FC910480F581E02DAE014F5F5F4F70E0BB
:1006500060E0099581E090E0F701918380830F903D
:100660000F90DF91CF911F910F91FF90EF90089520
:10067000CF92DF92EF92FF920F931F93CF93DF936E
:1006800000D0CDB7DEB78C017B01DC011A96CD908E
:10069000DC90C6010E94A102811137C0F80182815D
:1006A000938126E1289FA001299F500D1124D60196
:1006B00018960D911C91040F151FC8010E94ED02A0
:1006C000882399F0C8010E94CF029801265F3F4F0E
:1006D000A801425F5F4FDC01ED91FC910480F58140
:1006E000E02DBE016F5F7F4F099589819A81F701E7
:1006F000918380830F900F90DF91CF911F910F9185
:10070000FF90EF90DF90CF90089510E000E0D5CFFC
:10071000089508950F931F93CF93DF938C01FC01ED
:10072000C085D185CE010E948A02811112C0F801D4
:10073000808191814AE0489F9001499F300D1124AA
:1007400088859985820F931FDF91CF911F910F911B
:10075000089590E080E0F8CF0F931F93CF93DF933D
:10076000EC01888599850E94730281110FC081E098
:100770000C811D812E813F81488159816A817B8155
:10078000041715072607370709F080E0DF91CF919E
:100790001F910F910895FF920F931F93CF93DF93B3
:1007A0008C01FC01C085D185CE010E947302F82E18
:1007B000811130C0F801208131814AE0429FC0019F
:1007C000439F900D11240884D985C02DC80FD91FCF
:1007D000C8010E94AC03811120C0F1101EC0F801B5
:1007E000448155816681778180819181A281B38125
:1007F000481B590B6A0B7B0B2AE0249FC001259FE5
:10080000900D11248C0F9D1FDF91CF911F910F919F
:10081000FF900895D0E0C0E0DBCF40E050E0BA01A7
:10082000EBCF0E948A03FC01808191810895CF93D0
:10083000DF93EC01888599850E948A0281110DC0A1
:10084000CE010E948A0321E0FC0186819781A08568
:10085000B185892B8A2B8B2B09F020E0822FDF9129
:10086000CF9108950F931F93CF93DF938C01EB01EA
:100870000E941704282F81110BC0209751F0C80146
:100880000E948A0321E0488159814817590709F0DD
:1008900020E0822FDF91CF911F910F910895DC010D
:1008A0001896ED91FC9119973097D1F082858823A5
:1008B000B9F04081518162817381452B462B472BD2
:1008C00079F080859185009769F04D915C9165E1A3
:1008D000649F9001659F300D1124820F931F08952E
:1008E00090E080E00895CF93DF93FC01C085D1852F
:1008F000CE010E948A02811107C0688179818A81B4
:100900009B81DF91CF91089560E070E0CB01F9CF3A
:100910000F931F93CF93DF938C01FC01C085D1858A
:10092000CE010E94A102811112C0F8018081918143
:1009300046E1489F9001499F300D11248885998593
:10094000820F931FDF91CF911F910F91089590E037
:1009500080E0F8CF0E948A03FC0180819181089594
:100960000F931F93CF93DF93EC010E941704811123
:1009700021C0CE010E948A038C01DC011296ED9108
:10098000FC91309791F4CE010E94AA04F801938360
:100990008283CE010E948A03DC0112968D919C9184
:1009A000DF91CF911F910F910895828193810097DC
:1009B00069F7E9CF90E080E0F3CFCF93DF93EC01CC
:1009C0000E948A03FC0184819581009729F4CE015D
:1009D000DF91CF910C94AA04DF91CF910895DC01AF
:1009E0001896ED91FC9119973097D1F08285882364
:1009F000B9F04081518162817381452B462B472B91
:100A000079F080859185009769F04D915C916FE058
:100A1000649F9001659F300D1124820F931F0895EC
:100A200090E080E008950F931F93CF93DF9300D061
:100A3000CDB7DEB78C010E94ED02882369F0C801B2
:100A40000E94CF02DC01ED91FC910480F581E02D44
:100A5000BE016F5F7F4F099589819A810F900F903A
:100A6000DF91CF911F910F910895CF93DF93EB0109
:100A700002960E94130599838883DF91CF91089590
:100A8000DC011896ED91FC9119973097D1F0828591
:100A90008823B9F04081518162817381452B462BB7
:100AA000472B79F080859185009769F04D915C9195
:100AB0006AE0649F9001659F300D1124820F931F9F
:100AC000089590E080E00895DC011896ED91FC9186
:100AD00019973097D1F082858823B9F040815181F0
:100AE00062817381452B462B472B79F08085918558
:100AF000009769F04D915C9165E0649F9001659F5E
:100B0000300D1124820F931F089590E080E0089526
:100B10000E948A03FC01808191810895CF93DF9325
:100B2000EC010E948A03FC0184819581009729F4DD
:100B3000CE01DF91CF910C948805DF91CF9108957C
:100B40000F931F93CF93DF93EC010E941704811141
:100B500021C0CE010E948A038C01DC011296ED9126
:100B6000FC91309791F4CE010E94DD04F80193834B
:100B70008283CE010E948A03DC0112968D919C91A2
:100B8000DF91CF911F910F910895848195810097F6
:100B900069F7E9CF90E080E0F3CF0F931F93CF93F5
:100BA000DF93EC010E94170481111AC0CE010E944C
:100BB0008A038C01FC0182819381892B31F4CE015F
:100BC0000E94AA04F80193838283CE010E948A03C3
:100BD000FC0182819381DF91CF911F910F91089544
:100BE00090E080E0F8CF0F931F93CF93DF93EC0159
:100BF00008851985C8010E94B80281110CC0F8014E
:100C00008085918528813981820F931FDF91CF9153
:100C10001F910F91089590E080E0F8CF0F931F93FC
:100C2000CF93DF93EC01888599850E94B8028111EA
:100C300011C06C817D818E819F81088119812A81FB
:100C40003B81601B710B820B930BDF91CF911F9146
:100C50000F91089560E070E0CB01F7CF2F923F92A3
:100C60004F925F926F927F928F929F92AF92BF92BC
:100C7000CF92DF92EF92FF920F931F93CF93DF9368
:100C8000CDB7DEB72C970FB6F894DEBF0FBECDBF41
:100C90008091AE01811117C00E9415027B018C0169
:100CA0006093A601F092A7018093A8011093A90177
:100CB0001092AA011092AB011092AC011092AD01FA
:100CC00081E08093AE010E9415027B018C01698353
:100CD000FA828B831C837090A6018090A70190906C
:100CE000A801F090A901FC860091AA010B87B091A0
:100CF000AB01F091AC01E091AD0120909E013090EC
:100D00009F014090A0015090A1016090A201A0918C
:100D1000A3011091A40119872091A5012A87272DED
:100D2000382D492D5F2D602F7B2F8F2F9E2FAE2CBE
:100D3000BA80CB80DC80E12CF12C00E010E00E9436
:100D4000502909F008F466C09101A201662D7A2F9E
:100D500089859A85AFEF0E943B29A72CB82CC92C16
:100D6000DC84EB84FB2E0F2F1E2F0E944729A980C5
:100D7000BA80CB80DC80E12CF12C00E010E00E94F6
:100D8000322920939E0130939F014093A0015093FC
:100D9000A1016093A2017093A3018093A401909399
:100DA000A501A092A601B092A701C092A801D0927D
:100DB000A9011092AA011092AB011092AC011092FD
:100DC000AD0120919E0130919F014091A001509171
:100DD000A1016091A2017091A3018091A401909161
:100DE000A5012C960FB6F894DEBF0FBECDBFDF91E4
:100DF000CF911F910F91FF90EF90DF90CF90BF9018
:100E0000AF909F908F907F906F905F904F903F90AA
:100E10002F9008959101A201662D7A2F89859A85D8
:100E2000A72CB82CC92CDC84EB84FB2E0F2F1E2F93
:100E30000E944729A980BA80CB80DC80E12CF12C6C
:100E400000E010E00E94322920939E0130939F0120
:100E50004093A0015093A1016093A2017093A3015C
:100E60008093A4019093A501A092A601B092A7013E
:100E7000C092A801D092A9019CCF2F923F924F928D
:100E80005F926F927F928F929F92AF92BF92CF921A
:100E9000DF92EF92FF920F931F93CF93DF9300D0D7
:100EA00000D000D0CDB7DEB77C836B835E834D83EB
:100EB0003A832983FA01B080C180D280E380F48034
:100EC000B581168107812B2D3C2D4D2D5E2D6F2D6B
:100ED0007B2F812F902FA0E00E94592939F1A4E2A5
:100EE0000E94592909F44DC0E981FA8110821182CA
:100EF00012821382ED81FE8110821182128213828E
:100F000014821582168217821092B8011092B901CC
:100F10001092BA011092BB011092BD011092BC0157
:100F200088E08093B7018FEF9FEF72C01092B801F5
:100F30001092B9011092BA011092BB011092BD013A
:100F40001092BC0181E08093B7010E942E06A8EEAA
:100F5000AA2EB3E0BB2EC12CD12CE12CF12C00E049
:100F600010E00E94D52849015A01FCE28F0EF1E001
:100F70009F1EA11CB11CE981FA8180829182A2820C
:100F8000B3820E942E06E981FA81C080D180E2807E
:100F9000F38016012701E8EEAE2EF3E0BF2EC12C40
:100FA000D12CE12CF12C00E010E00E94D528590151
:100FB0006A017B018C019101A20160E070E080E098
:100FC00090E00E94502909F008F43FC084E2ED81CE
:100FD000FE8180831182128213821482158216820E
:100FE000178284E290E09093BD018093BC018CE273
:100FF00091E0A0E0B0E08093B8019093B901A09394
:10100000BA01B093BB0184E08093B70181E090E026
:10101000EB81FC819183808326960FB6F894DEBF26
:101020000FBECDBFDF91CF911F910F91FF90EF9039
:10103000DF90CF90BF90AF909F908F907F906F90F8
:101040005F904F903F902F900895F090B6016F2DD4
:1010500089E00E94E70181E0F8266F2D88E00E9478
:10106000E701F092B60171CFCF93DF93EC010E94BC
:101070000E06623071058105910528F0CE01DF91E1
:10108000CF910C94F30590E080E0DF91CF9108952B
:101090000E940E06623071058105910528F06150AD
:1010A000710981099109089560E070E0CB0108950C
:1010B000CF92DF92EF92FF92CF93DF93EC010E94E9
:1010C00048086B01CE010E943408A601BC018BEDDB
:1010D00091E0DF91CF91FF90EF90DF90CF900C9453
:1010E0008D000F931F93CF93DF93DB012D913C91E4
:1010F000232B41F58B01EC018CE090E00E947F29CD
:10110000FC018CE0DF011D928A95E9F7D801ED938F
:10111000FC93188219821A821B821C821D821E82F5
:101120001F8281E090E0A0E0B0E080839183A28301
:10113000B38385E0828781E090E0DF91CF911F91BA
:101140000F9108958FEF9FEFF8CF0F931F93CF93D9
:10115000DF93DB012D913C91232B41F58B01EC01B9
:101160008CE090E00E947F29FC018CE0DF011D9261
:101170008A95E9F7D801ED93FC93188219821A82B7
:101180001B821C821D821E821F8281E090E0A0E0F3
:10119000B0E080839183A283B38385E0828781E07E
:1011A00090E0DF91CF911F910F9108958FEF9FEF06
:1011B000F8CFCF92DF92EF92FF920F931F93CF93CE
:1011C000DF93DB01ED91FC91EF2B91F569017A0141
:1011D0008B01EC018CE090E00E947F29FC018CE007
:1011E000DF011D928A95E9F7D801ED93FC931882EF
:1011F00019821A821B82CC82DD82EE82FF8281E01C
:1012000090E0A0E0B0E080839183A283B383C482A6
:10121000D582E682F78285E0828781E090E0DF91E7
:10122000CF911F910F91FF90EF90DF90CF90089595
:101230008FEF9FEFF4CF8F929F92AF92BF92CF929A
:10124000DF92EF92FF920F931F93CF93DF93DB0117
:10125000ED91FC91EF2B09F04DC0812C912C5401A4
:101260008394211531054105510511F049015A01B9
:1012700069017A018B01EC018CE090E00E947F29EA
:10128000FC018CE0DF011D928A95E9F7D801ED930E
:10129000FC93188219821A821B82CC82DD82EE8234
:1012A000FF8281E090E0A0E0B0E080839183A283A0
:1012B000B383C482D582E682F78284E0828785E0A8
:1012C0008A9489288A288B2829F4CF010B96918744
:1012D000808786E0828781E090E0DF91CF911F9147
:1012E0000F91FF90EF90DF90CF90BF90AF909F90C5
:1012F0008F9008958FEF9FEFF0CF0C941B2A0F93E0
:101300001F93CF93DF93DC01ED91FC913097E9F1CE
:1013100040815181628173814115510561057105DB
:10132000A1F18C01DB01CA010197A109B1098083F8
:101330009183A283B3834130510561057105D9F4CE
:10134000F801C081D181209789F08885998500971F
:1013500069F02A85222351F020FD0E941B2A1A865B
:1013600019861886188219821A821B82D8018D91DB
:101370009C910E941B2AF8011182108281E090E06A
:10138000DF91CF911F910F9108958FEF9FEFF8CFCD
:101390000F931F93CF93DF93EC01188219821A8267
:1013A0001B821C821D821E821F8219861886089647
:1013B0006115710531F4DF91CF911F910F910C945C
:1013C0007F098B01BC01CE010E94A508019671F036
:1013D000E885F98582858D7F8287E885F985828514
:1013E00081608287E885F98511870087DF91CF9139
:1013F0001F910F910895CF93DF93EC018AE090E065
:101400000E947F292AE0FC0111922A95E9F7BC018C
:10141000CE01DF91CF910C94C809CF93DF93EC01FB
:101420008AE090E00E947F292AE0FC0111922A952F
:10143000E9F7BC01CE01DF91CF910C94C8090F935D
:101440001F93CF93DF93DC01ED91FC913097E9F18D
:10145000408151816281738141155105610571059A
:10146000A1F18C01DB01CA010197A109B1098083B7
:101470009183A283B3834130510561057105D9F48D
:10148000F801C081D181209789F0888599850097DE
:1014900069F02A85222351F020FD0E941B2A1A861A
:1014A00019861886188219821A821B82D8018D919A
:1014B0009C910E941B2AF8011182108281E090E029
:1014C000DF91CF911F910F9108958FEF9FEFF8CF8C
:1014D0000F931F93CF93DF93EC018B011882198236
:1014E0001A821B821C821D821E821F821986188608
:1014F00008960E941F0AD8011896ED91FC9130972A
:10150000E1F082858823C9F080819181A281B38135
:10151000892B8A2B8B2B89F080859185892B69F00B
:10152000F987E88780819181A281B3810196A11D0D
:10153000B11D80839183A283B383F801808191815F
:10154000A281B38188839983AA83BB838481958197
:10155000A681B7818C839D83AE83BF83DF91CF91BA
:101560001F910F9108950F931F93CF93DF93DC0189
:10157000ED91FC913097E9F1408151816281738155
:101580004115510561057105A1F18C01DB01CA010D
:101590000197A109B10980839183A283B38341306C
:1015A000510561057105D9F4F801C081D1812097F9
:1015B00089F088859985009769F02A85222351F062
:1015C00020FD0E941B2A1A86198618861882198205
:1015D0001A821B82D8018D919C910E941B2AF801CE
:1015E0001182108281E090E0DF91CF911F910F91E5
:1015F00008958FEF9FEFF8CFCF92DF92EF92FF9297
:101600000F931F93CF93DF93DB01ED91FC91EF2BB1
:1016100051F4DF91CF911F910F91FF90EF90DF90E8
:10162000CF900C941B0969017A01EB018C01CB016D
:101630000E94B30A019669F4198218828FEF9FEF16
:10164000DF91CF911F910F91FF90EF90DF90CF909E
:101650000895A7019601BE01C8010E941B090196C9
:1016600059F381E090E0ECCFCF92DF92EF92FF92BE
:10167000CF93DF93EB0169017A010E94FC0A8F3F4F
:10168000980761F00990D881C02D8A8581FF0DC02F
:10169000CE010B969987888781E090E0DF91CF910A
:1016A000FF90EF90DF90CF900895C114D104E10432
:1016B000F10439F481E090E00E947F29FC0110825E
:1016C000E9CFC601009711F481E090E00E947F29E4
:1016D000E1CFEF92FF920F931F93CF93DF93EC0133
:1016E00079010896411551056105710591F520E0D4
:1016F00030E0A901BC01CE010E94FC0A0196B1F0C4
:1017000008851985D8011A968C911A9781FF15C002
:10171000C8010B9619969C938E931897E885F985C6
:101720000084F185E02DD7018C918083DF91CF91EA
:101730001F910F91FF90EF90089581E090E00E943B
:101740007F29F7012081DC012C93F80191878087A4
:10175000EDCF9A01AB01BC01CE010E94340B08858C
:101760001985C8010E94B8028111E0CFCE010E9404
:101770000E06D701FC90672B682B692B31F4CE0144
:101780000E94F305FC01F082D1CFD80118960D918B
:101790001C918C819D81080F191FCE010E94F305B9
:1017A0008017910719F2FC01F192CF01F9CFEF9266
:1017B000FF920F931F93CF93DF93EC018B01089659
:1017C0000E94B30AF801E084F184C7010E94B802C4
:1017D000811105C0F986E886F80111861086F801A6
:1017E00080819181A281B38188839983AA83BB83FD
:1017F00084819581A681B7818C839D83AE83BF83CD
:10180000DF91CF911F910F91FF90EF900895EF928C
:10181000FF920F931F93CF93DF93EC017B0118820C
:1018200019821A821B821C821D821E821F821986C7
:10183000188608960E94B30AF70100851185C80131
:101840000E94B80281110EC019870887F8018081B3
:101850009181A281B3810196A11DB11D80839183E5
:10186000A283B383F70180819181A281B3818883B0
:101870009983AA83BB8384819581A681B7818C8358
:101880009D83AE83BF83DF91CF911F910F91FF9016
:10189000EF900895CF92DF92EF92FF920F931F93F4
:1018A000CF93DF93CDB7DEB72A970FB6F894DEBF9C
:1018B0000FBECDBF8C017B010E941704B7018823A6
:1018C00009F459C0CE0101960E94070C80E190E016
:1018D0000E947F297C01DC0111961C921E921396B6
:1018E0001C921E92129715961C921E921497BE017E
:1018F0006F5F7F4F06960E94070CC8010E948A0303
:10190000FC01F182E082CE0109960E94B30AC8016F
:101910000E948A03DC01ED91FC9191838083C801D0
:101920000E948A037C01C8010E948805F701958303
:101930008483C8010E948A03DC0116964D915D9153
:101940006D917C9119974F5F5F4F6F4F7F4FFC01F7
:1019500046835783608771872A960FB6F894DEBF57
:101960000FBECDBFDF91CF911F910F91FF90EF90F0
:10197000DF90CF900895CE0101960E94070C80E180
:1019800090E00E947F297C01DC0111961C921E923E
:1019900013961C921E92129715961C921E921497E3
:1019A000BE016F5F7F4F06960E94070CCE0109961D
:1019B0000E94B30AC8010E948A03F70191838083C1
:1019C000C8010E948E056C01DC0114968D919C91DA
:1019D000892B31F4C8010E948A03FC01D182C082A4
:1019E000D70112968D919C91892B31F4C8010E94E8
:1019F0008A03FC01F582E482D7011596DC92CE922F
:101A00001497F601F382E28294CF0C941B2A0C9473
:101A10001B2A0C941B2A0C941B2AEF92FF920F9303
:101A20001F93CF93DF93DB01ED91FC91309709F485
:101A30006DC080819181A281B3810097A105B1051C
:101A400009F464C08B01AC01BD0141505109610929
:101A5000710940835183628373830197A105B105A6
:101A600009F040C0F801C081D1812097B1F188858B
:101A70009985009791F12A85222379F120FF26C0CC
:101A80004C815D816E817F81452B462B472BB1F1C7
:101A9000FC01329720813181220F331F820F931F67
:101AA0007C01F2E0EF1AF1082885398528173907FB
:101AB00051F0D701ED91FC910190F081E02DC7012B
:101AC0000995C701EDCFC7010E941B2A1A86198606
:101AD0001886188219821A821B82F80180819181EE
:101AE0000E941B2AD8011D921C9281E090E0DF9198
:101AF000CF911F910F91FF90EF900895DC01ED9130
:101B0000FC910280F381E02D0995E0CF8FEF9FEFEC
:101B1000EECFEF92FF920F931F93CF93DF93DB01F2
:101B2000ED91FC91309709F46DC080819181A28183
:101B3000B3810097A105B10509F464C08B01AC0124
:101B4000BD0141505109610971094083518362838C
:101B500073830197A105B10509F040C0F801C08168
:101B6000D1812097B1F188859985009791F12A85D7
:101B7000222379F120FF26C04C815D816E817F8117
:101B8000452B462B472BB1F1FC0132972081318147
:101B9000220F331F820F931F7C01F2E0EF1AF1082E
:101BA000288539852817390751F0D701ED91FC9127
:101BB0000190F081E02DC7010995C701EDCFC70164
:101BC0000E941B2A1A8619861886188219821A8280
:101BD0001B82F801808191810E941B2AD8011D92ED
:101BE0001C9281E090E0DF91CF911F910F91FF90C7
:101BF000EF900895DC01ED91FC910280F381E02DDE
:101C00000995E0CF8FEF9FEFEECFEF92FF920F930A
:101C10001F93CF93DF93EC018B01188219821A82F4
:101C20001B821C821D821E821F82198618867C01DF
:101C300088E0E80EF11CB701CE010E94890DB701C2
:101C4000F801808591850E945102F801808191817F
:101C5000A281B38188839983AA83BB838481958180
:101C6000A681B7818C839D83AE83BF83B801665FF5
:101C70007F4FCE010A96DF91CF911F910F91FF9078
:101C8000EF900C94680ACF93DF93EC0142960E9488
:101C90001F0ABE01685F7F4FCE01DF91CF910C9488
:101CA000890DEF92FF920F931F93CF93DF93DB0188
:101CB000ED91FC91309709F46DC080819181A281F2
:101CC000B3810097A105B10509F464C08B01AC0193
:101CD000BD014150510961097109408351836283FB
:101CE00073830197A105B10509F040C0F801C081D7
:101CF000D1812097B1F188859985009791F12A8546
:101D0000222379F120FF26C04C815D816E817F8185
:101D1000452B462B472BB1F1FC01329720813181B5
:101D2000220F331F820F931F7C01F2E0EF1AF1089C
:101D3000288539852817390751F0D701ED91FC9195
:101D40000190F081E02DC7010995C701EDCFC701D2
:101D50000E941B2A1A8619861886188219821A82EE
:101D60001B82F801808191810E941B2AD8011D925B
:101D70001C9281E090E0DF91CF911F910F91FF9035
:101D8000EF900895DC01ED91FC910280F381E02D4C
:101D90000995E0CF8FEF9FEFEECFEF92FF920F9379
:101DA0001F93CF93DF934115510549F48FEF9FEFB8
:101DB000DF91CF911F910F91FF90EF9008957A01DD
:101DC000EB018C0188819981892BC9F420E030E0F6
:101DD000A901C8010E94D908019641F3E881F9815F
:101DE00082858D7F8287E881F98182858160828703
:101DF000E881F981F186E08681E090E0D9CFC801E1
:101E00000E94510E019619F419821882CFCF20E05A
:101E100030E0A901BE01C8010E94D9080196F1F67F
:101E2000F3CFBC0125E131E0FC0121933193CF01D7
:101E3000665F7F4F0C94510ECF93DF93EC010E94AD
:101E4000110FCE01DF91CF910C941B2AEF92FF92DC
:101E50000F931F93CF93DF93EC018B017C0188E0FC
:101E6000E80EF11CB701CE010E94510EB701F80136
:101E7000808591850E945102F80180819181A28123
:101E8000B38188839983AA83BB8384819581A6814A
:101E9000B7818C839D83AE83BF83DF91CF911F91E8
:101EA0000F91FF90EF9008950F931F93CF93DF93BF
:101EB000EC018B01188219821A821B821C821D82FE
:101EC0001E821F82198618860E94260FB801665F3F
:101ED0007F4FCE010A96DF91CF911F910F910C9405
:101EE000680ACF93DF93EC0142960E941F0ABE015D
:101EF000685F7F4FCE01DF91CF910C94510EEF922E
:101F0000FF920F931F93CF93DF93DB01ED91FC9131
:101F1000309709F46DC080819181A281B3810097CF
:101F2000A105B10509F464C08B01AC01BD014150AC
:101F30005109610971094083518362837383019759
:101F4000A105B10509F040C0F801C081D1812097F9
:101F5000B1F188859985009791F12A85222379F13D
:101F600020FF26C04C815D816E817F81452B462BF1
:101F7000472BB1F1FC01329720813181220F331FB1
:101F8000820F931F7C01F2E0EF1AF1082885398552
:101F90002817390751F0D701ED91FC910190F0819C
:101FA000E02DC7010995C701EDCFC7010E941B2A8B
:101FB0001A8619861886188219821A821B82F801DD
:101FC000808191810E941B2AD8011D921C9281E080
:101FD00090E0DF91CF911F910F91FF90EF900895C6
:101FE000DC01ED91FC910280F381E02D0995E0CFB9
:101FF0008FEF9FEFEECFEF92FF920F931F93CF9350
:10200000DF93EC018B01BC01685F7F4F0E947F0F63
:10201000F801E084F184C7010E943A02811105C0F1
:10202000F986E886F80111861086F8018081918191
:10203000A281B38188839983AA83BB83848195819C
:10204000A681B7818C839D83AE83BF83DF91CF91BF
:102050001F910F91FF90EF9008950F931F93CF93CF
:10206000DF938B01FC011082118212821382148291
:1020700015821682178211861086BC01685F7F4F19
:102080000115110531F4DF91CF911F910F910C943F
:102090007F0FEC0120E030E0A9010E94D9080196F1
:1020A00071F0E885F98582858D7F8287E885F985DD
:1020B000828581608287E885F98511870087DF91B5
:1020C000CF911F910F910895EF92FF920F931F935D
:1020D000CF93DF93DB01ED91FC91309709F46DC054
:1020E00080819181A281B3810097A105B10509F496
:1020F00064C08B01AC01BD014150510961097109F6
:1021000040835183628373830197A105B10509F070
:1021100040C0F801C081D1812097B1F188859985AF
:10212000009791F12A85222379F120FF26C04C8166
:102130005D816E817F81452B462B472BB1F1FC01E0
:10214000329720813181220F331F820F931F7C0130
:10215000F2E0EF1AF108288539852817390751F080
:10216000D701ED91FC910190F081E02DC701099517
:10217000C701EDCFC7010E941B2A1A86198618864F
:10218000188219821A821B82F801808191810E9433
:102190001B2AD8011D921C9281E090E0DF91CF9123
:1021A0001F910F91FF90EF900895DC01ED91FC914C
:1021B0000280F381E02D0995E0CF8FEF9FEFEECF06
:1021C000BC012DE331E0FC0121933193CF01665F27
:1021D0007F4F0C946410CF93DF93EC010E94E010CA
:1021E000CE01DF91CF910C941B2AAF92BF92CF9278
:1021F000DF92EF92FF920F931F93CF93DF938C01A7
:10220000C8010E94170481115EC0C8010E948A03A0
:102210005C01FC01C481D581209721F4C8010E9492
:102220001104EC01EA80FB80CC80DD80E114F10434
:1022300019F4F501D582C482C8010E948A03C11431
:10224000D10419F4FC01F182E082C8010E948A03E2
:102250005C01FC01828193818C179D0769F4C801A0
:102260000E941704811108C0209741F5C8010E94FF
:102270001104F50182839383C114D10419F0F6018E
:10228000F382E282EA81FB81309711F0D582C48229
:1022900019821882C8010E948A03FC014681578175
:1022A00060857185415051096109710946835783E1
:1022B00060877187CE010E941B2AA2CFE114F1042E
:1022C000A9F2C701D6CFDF91CF911F910F91FF9057
:1022D000EF90DF90CF90BF90AF9008950F931F9332
:1022E000CF93DF93EC010E9473048E01085F1F4FB0
:1022F000623071058105910518F4CE010E94F51038
:10230000C801DF91CF911F910F910C947F09EF923B
:10231000FF920F931F93CF93DF93DB01ED91FC911D
:10232000309709F46AC080819181A281B3810097BE
:10233000A105B10509F461C08B01AC01BD0141509B
:102340005109610971094083518362837383019745
:10235000A105B10509F045C0F801C081D1812097E0
:10236000D9F1E884F984E114F104B1F18A85882374
:1023700099F180FF2AC08C819D81AE81BF81892B1C
:102380008A2B8B2BD9F0F7013297808191814AE01B
:10239000489F9001499F300D11242E0D3F1D488507
:1023A00059857901FAE0EF1AF108C901029742173D
:1023B000530749F00E94B30A9701F1CFC70108966D
:1023C0000E94B30AC7010E941B2A1A861986188622
:1023D000188219821A821B82D8018D919C910E94C9
:1023E0001B2AF8011182108281E090E0DF91CF91E9
:1023F0001F910F91FF90EF9008958FEF9FEFF6CF11
:10240000BC01685F7F4F0C948711EF92FF920F938E
:102410001F93CF93DF93EC017B01188219821A82FC
:102420001B821C821D821E821F82198618860E94B2
:102430000012F70100851185C8010E947302811105
:102440000EC019870887F80180819181A281B3812C
:102450000196A11DB11D80839183A283B383F701EF
:1024600080819181A281B38188839983AA83BB8370
:1024700084819581A681B7818C839D83AE83BF8340
:10248000DF91CF911F910F91FF90EF9008956F9280
:102490007F928F929F92AF92BF92CF92DF92EF92F4
:1024A000FF920F931F93CF93DF93CDB7DEB72A9799
:1024B0000FB6F894DEBF0FBECDBF8C016B01CB0110
:1024C0000E941704882339F1F801108211821282C8
:1024D0001382148215821682178211861086B80123
:1024E000685F7F4FC8010E948711C8012A960FB606
:1024F000F894DEBF0FBECDBFDF91CF911F910F913A
:10250000FF90EF90DF90CF90BF90AF909F908F9013
:102510007F906F900895C6010E941704812C912C22
:102520005401811108C0C6010E948A03FC01868003
:102530009780A084B18419821A821B821C821D821A
:102540001E821F8218861A861986A5019401BE0173
:10255000675F7F4FCE0101960E94D908019649F02E
:10256000E985FA85828581FF58C0CF010B96918756
:102570008087A984BA84C5010E947302F12CE12CE2
:1025800081110DC029813A814AE0429FC001439FD9
:10259000900D1124F501E084F184E80EF91EC601C6
:1025A0000E9488056C01C114D10409F48BC0C701D5
:1025B00008960E94B30AF601A684B784C5010E945A
:1025C000B80281110FC0F701B186A086F5018081A4
:1025D0009181A281B3810196A11DB11D8083918358
:1025E000A283B383F60186819781A085B185F70127
:1025F00080839183A283B383F60182859385A4852A
:10260000B585F70184839583A683B783FAE0EF0E3F
:10261000F11CF601C280D380C6CF81149104A104BD
:10262000B104C1F48AE090E00E947F297C01FC01A2
:1026300010821182128213821482158216821782EE
:102640001186108608960E94B30AE985FA85F186FC
:10265000E0868FCF34018FEF9FEFFDEC8F16FCE00B
:102660009F0638F42AE0289DC001299D900D112471
:1026700002960E947F29FC01619271925F017F01A5
:10268000912C812CFFEF8F1A9F0AC3018819990999
:1026900097FD13C0F70110821182128213821482F7
:1026A00015821682178211861086C70108960E942D
:1026B000B30AFAE0EF0EF11CE5CFE985FA85B186A1
:1026C000A08657CFF80110821182128213821482E1
:1026D00015821682178211861086C8010E94001288
:1026E000E984FA84C7010E947302811105C0F801D0
:1026F000F186E0861A86198689819A81AB81BC8130
:10270000F80180839183A283B3838D819E81AF8101
:10271000B88584839583A683B783CE0101960E94F2
:102720000012E3CEEF92FF920F931F93CF93DF93AC
:10273000DB01ED91FC91309709F470C080819181AB
:10274000A281B3810097A105B10509F467C08B018F
:10275000AC01BD01415051096109710940835183A8
:10276000628373830197A105B10509F043C0F801A5
:10277000C081D1812097C9F1E884F984E114F10482
:10278000A1F18A85882389F180FF28C08C819D81F1
:10279000AE81BF81892B8A2B8B2BC1F1F701329738
:1027A0002081318146E1429FC001439F900D112459
:1027B0008E0D9F1D288539857C01F6E1EF1AF10801
:1027C0002817390741F0BC016E507109C7010E94FA
:1027D0007F0FC701EFCF02970E941B2A1A86198626
:1027E0001886188219821A821B82D8018D919C91B9
:1027F0000E941B2AF8011182108281E090E0DF9193
:10280000CF911F910F91FF90EF900895B701685FEE
:102810007F4FC7010E947F0FC701DECF8FEF9FEF71
:10282000EECFBC01685F7F4F0C9492132FE131E033
:10283000FC0121933193CF010C941114CF93DF93BA
:10284000EC010E941614CE01DF91CF910C941B2A4B
:10285000EF92FF920F931F93CF93DF93EC017B01D5
:102860000E941114F70100851185C8010E94A10280
:1028700081110EC019870887F80180819181A2819A
:10288000B3810196A11DB11D80839183A283B3837F
:10289000F70180819181A281B38188839983AA8382
:1028A000BB8384819581A681B7818C839D83AE8310
:1028B000BF83DF91CF911F910F91FF90EF9008950B
:1028C0000F931F93CF93DF938B01FC011082118232
:1028D0001282138214821582168217821186108644
:1028E000BC01685F7F4F0115110531F4DF91CF9175
:1028F0001F910F910C949213EC0120E030E0A9019C
:102900000E94D908019671F0E885F98582858D7F4E
:102910008287E885F985828581608287E885F985E7
:1029200011870087DF91CF911F910F910895CF926A
:10293000DF92EF92FF920F931F93CF93DF938C015F
:10294000EB010E941704811165C0209709F05CC05B
:10295000C8010E94DD04EC01EA80FB80CC80DD80B0
:10296000C8010E948A03E114F10419F4FC01D58224
:10297000C482C8010E948A03CD2819F4FC01F182A7
:10298000E082C8010E948A03FC01828193818C1736
:102990009D0719F4C8010E94B004EC81FD813097B5
:1029A00021F08A819B8193838283AA81BB811097C6
:1029B00021F01596FC93EE93149719821882C801A2
:1029C0000E948A03FC0146815781608571854150D0
:1029D00051096109710946835783608771871B829A
:1029E0001A821D821C822097A9F0CE0106960E94B1
:1029F000430ECE01DF91CF911F910F91FF90EF9089
:102A0000DF90CF900C941B2ABE01C8010E943204B3
:102A10008111A2CFDF91CF911F910F91FF90EF9085
:102A2000DF90CF9008950F931F93CF93DF93FA0118
:102A3000C081D181FC01828193810E944F048C016D
:102A4000209739F0BE010E943204811102C0D0E00B
:102A5000C0E0BE01C801DF91CF911F910F910C948E
:102A60009714CF93DF93EC01CE010E9417048111DC
:102A700006C070E060E0CE010E949714F5CFDF91B0
:102A8000CF9108950F931F93CF93DF93EC010E9492
:102A900073048E01085F1F4F623071058105910537
:102AA00018F4CE010E943115C801DF91CF911F911A
:102AB0000F910C947F09EF92FF920F931F93CF9386
:102AC000DF93DB01ED91FC91309709F471C08081B7
:102AD0009181A281B3810097A105B10509F468C075
:102AE0008B01AC01BD01415051096109710940835D
:102AF0005183628373830197A105B10509F043C037
:102B0000F801C081D1812097C9F1E884F984E114EA
:102B1000F104A1F18A85882389F180FF28C08C8186
:102B20009D81AE81BF81892B8A2B8B2BC1F1F7014F
:102B300032972081318145E1429FC001439F900D32
:102B400011248E0D9F1D288539857C01F5E1EF1A32
:102B5000F1082817390741F00B970E946E11C70141
:102B60000E944215C701EFCF02970E941B2A1A86C6
:102B700019861886188219821A821B82D8018D91B3
:102B80009C910E941B2AF8011182108281E090E042
:102B9000DF91CF911F910F91FF90EF900895C701A2
:102BA0000A960E946E11C7010E944215C701DDCF2F
:102BB0008FEF9FEFEDCF4F925F926F927F928F9248
:102BC0009F92AF92BF92CF92DF92EF92FF920F93BC
:102BD0001F93CF93DF93CDB7DEB764970FB6F8940A
:102BE000DEBF0FBECDBF2B014A013901DA01DC90F7
:102BF0001196EC9011971296FC90129713960C91E7
:102C0000139714961C9114971596BC91FA01C680DF
:102C1000B7802D2D3E2D4F2D502F612F7B2F8C2DCA
:102C20009B2DA1E30E94592909F4A9C00E945929AA
:102C300009F090F5A0E00E94592909F491C0F30130
:102C40001082118212821382D4011C9211961C925E
:102C5000119712961C92129713961C921397149622
:102C60001C92149715961C92159716961C921697FF
:102C700017961C921092B8011092B9011092BA01E5
:102C80001092BB011092BD011092BC0188E08093AC
:102C9000B7018FEF9FEFBFC1A3E30E94592909F449
:102CA0008CC1A4E30E94592951F60E942E06D3013B
:102CB000AD90BD90CD90DC9076016701E12CF12CB8
:102CC0008701AD86BE86CF86D88AE98AFA8A0B8BC1
:102CD0001C8BE8EEAE2EF3E0BF2EC12CD12CE12CE4
:102CE000F12C00E010E00E94D52859016A017B0117
:102CF0008C012D853E854F85588960E070E080E02D
:102D000090E00E945029D9F1D0F184E3D4018C9352
:102D100011961C92119712961C92129713961C9260
:102D2000139714961C92149715961C921597169645
:102D30001C92169717961C9284E390E09093BD0125
:102D40008093BC018CE291E0A0E0B0E08093B801F8
:102D50009093B901A093BA01B093BB0184E039C04C
:102D60001092B8011092B9011092BA011092BB01F1
:102D70001092BD011092BC0181E08093B7010E94C6
:102D8000C301892B59F581E3D4018C9311961C92D0
:102D9000119712961C92129713961C9213971496E1
:102DA0001C92149715961C92159716961C921697BE
:102DB00017961C921092B8011092B9011092BA01A4
:102DC0001092BB0181E390E09093BD018093BC0120
:102DD00082E08093B70181E090E01DC18091000105
:102DE000082E000C990B9C878B8788E792E00E9445
:102DF0004F047C01FC011489812F877009F0D1C038
:102E0000C7010E9417048111CCC01460D7015496E9
:102E10001C9388E792E00E944F040E94AA048C0150
:102E20000115110599F1F801D280C380C8014096BF
:102E30000E946405DC018C9183FF0AC088E792E060
:102E40000E944F04B8010E9497140D2D1C2DE8CF4D
:102E50007801B6E0EB0EF11CC7010E94ED02882359
:102E600081F0C7010E94CF02DC01ED91FC9104804A
:102E7000F581E02DAE01455F5F4FBE016F5F7F4F73
:102E8000099589819A81019601F7D8CF88E792E068
:102E90000E944F040A967C0184E090E00E947F2902
:102EA0008C0189E291E0F8019183808388E792E0C8
:102EB0009383828319821A821B821C821D821E8246
:102EC0001F8218861A8619860115110569F5BE013B
:102ED000675F7F4FCE0101960E940D0DC7010E94D2
:102EE0001704811136C0C7010E9411048C0101151D
:102EF000110579F1CE0101960E94ED02882381F03F
:102F0000CE0101960E94CF02DC01ED91FC9104807C
:102F1000F581E02DA8014A5F5F4F70E060E0099500
:102F2000F80102811381E3CF20E030E0A901BE0166
:102F3000675F7F4FCE0101960E94D908019671F21A
:102F4000E985FA8582858D7F816082871187008778
:102F5000C5CFBE01675F7F4FCE0101960E940D0D68
:102F600088E792E00E944F04FC0194899B7F948B38
:102F700088E792E00E944F040A960E94F51088E7C5
:102F800092E00E944F04FC01948997FF0AC092FDD1
:102F900008C09F77948B88E792E00E944F040E94BC
:102FA000311580910001082E000C990B019668E004
:102FB00070E00E94BF28809300010E94C30181300D
:102FC000910509F042C023E3D4012C9311961C9281
:102FD000119712961C92129713961C92139714969F
:102FE0001C92149715961C92159716961C9216977C
:102FF00017961C921092B8011092B9011092BA0162
:103000001092BB0123E330E03093BD012093BC015B
:1030100022E02093B701F2019183808364960FB67A
:10302000F894DEBF0FBECDBFDF91CF911F910F91FE
:10303000FF90EF90DF90CF90BF90AF909F908F90D8
:103040007F906F905F904F9008950E942E06A8EE9B
:10305000AA2EB3E0BB2EC12CD12CE12CF12C00E028
:1030600010E00E94D528DA01C901845D9E4FAF4F60
:10307000BF4FF30180839183A283B38316CECF9297
:10308000DF92EF92FF920F931F93CF93DF938C0108
:10309000EB010E941704811165C0209709F05CC004
:1030A000C8010E94DD04EC01EA80FB80CC80DD8059
:1030B000C8010E948A03E114F10419F4FC01D582CD
:1030C000C482C8010E948A03CD2819F4FC01F18250
:1030D000E082C8010E948A03FC01828193818C17DF
:1030E0009D0719F4C8010E94B004EC81FD8130975E
:1030F00021F08A819B8193838283AA81BB8110976F
:1031000021F01596FC93EE93149719821882C8014A
:103110000E948A03FC014681578160857185415078
:1031200051096109710946835783608771871B8242
:103130001A821D821C822097A9F0CE0106960E9459
:10314000710FCE01DF91CF911F910F91FF90EF9002
:10315000DF90CF900C941B2ABE01C8010E9432045C
:103160008111A2CFDF91CF911F910F91FF90EF902E
:10317000DF90CF9008950F931F93CF93DF93EC01CF
:103180000E9473048E01085F1F4F62307105810534
:10319000910558F4CE010E941704811106C070E019
:1031A00060E0CE010E943F18F5CFC801DF91CF91BA
:1031B0001F910F910C947F09CF92DF92EF92FF92B3
:1031C0000F931F93CF93DF93DB01ED91FC91309729
:1031D00009F46BC080819181A281B3810097A10520
:1031E000B10509F462C08B01AC01BD014150510928
:1031F0006109710940835183628373830197A1053B
:10320000B10509F03FC0F801C081D1812097A9F133
:10321000C884D984C114D10481F18A85882369F1D5
:1032200080FF24C08C819D81AE81BF81892B8A2B38
:103230008B2BB1F1F6013297808191812AE0289F92
:103240007001299FF00C1124EC0CFD1C970188855E
:103250009985FAE0EF1AF1088217930721F0C70168
:103260000E94BB18F3CF02970E941B2A1A86198668
:103270001886188219821A821B82D8018D919C911E
:103280000E941B2AF8011182108281E090E0DF91F8
:10329000CF911F910F91FF90EF90DF90CF90089505
:1032A000C6010E94BB18C601DFCF8FEF9FEFEFCFA3
:1032B000EF92FF920F931F93CF93DF93DB01ED917A
:1032C000FC91309709F470C080819181A281B38113
:1032D0000097A105B10509F467C08B01AC01BD01E0
:1032E000415051096109710940835183628373839D
:1032F0000197A105B10509F04BC0F801C081D1814A
:10330000209709F440C0E884F984E114F104D9F16C
:103310008A858823C1F180FF2FC08C819D81AE8179
:10332000BF81892B8A2B8B2BE9F0F70132978081A3
:1033300091814FE0489F9001499F300D11242E0D3F
:103340003F1D488559857901FFE0EF1AF108C90151
:1033500002974217530771F0BC0108970E94DC18CE
:103360009701EFCFB701635F7F4FC70105960E94BA
:10337000DC18C7010E941B2A1A8619861886188233
:1033800019821A821B82D8018D919C910E941B2A5E
:10339000F8011182108281E090E0DF91CF911F91BE
:1033A0000F91FF90EF9008958FEF9FEFF6CFEF9280
:1033B000FF920F931F93CF93DF938FE090E00E94D3
:1033C0007F29EC018FE0FE0111928A95E9F77E01D9
:1033D000F5E0EF0EF11C8AE090E00E947F298C015D
:1033E000FC011082118212821382148215821682CD
:1033F0001782118610860E940D0A1D821E821F826E
:10340000188619861A861B861C861E861D86BE0196
:10341000635F7F4F0115110529F5C7010E94DC1874
:103420001092D1011092D2011092D3011092D401C6
:103430001092D5011092D6011092D7011092D801A6
:103440001092DA011092D901209719F569ED71E017
:1034500081ED91E0DF91CF911F910F91FF90EF905F
:103460000C94581920E030E0A901C7010E94D90846
:103470000196B1F2ED85FE8582858D7F8287ED858F
:10348000FE85828581608287ED85FE8511870087B4
:10349000C7CF20E030E0A90169ED71E081ED91E056
:1034A0000E94D908019651F0E091D901F091DA011A
:1034B00082858D7F81608287D187C087DF91CF91A0
:1034C0001F910F91FF90EF90089569ED71E081EDEC
:1034D00091E00C9458198F929F92AF92BF92CF9225
:1034E000DF92EF92FF920F931F93CF93DF938C01A4
:1034F0000E947304580128E0A20EB11C62307105CD
:103500008105910508F068C0C8010E941704811167
:1035100063C0C8010E948E05EC01EA80FB80C801EF
:103520000E948A03CC80DD80E114F10419F4FC01CF
:10353000D582C482C8010E948A03C114D10419F43F
:10354000FC01F182E082C8010E948A034C01FC0167
:1035500082819381C817D90769F4C8010E941704B2
:10356000811108C0209799F5C8010E948805F401CF
:1035700082839383C114D10419F0F601F382E282AD
:10358000EA81FB81309711F0D582C48219821882BA
:10359000C8010E948A03FC014681578160857185BC
:1035A00041505109610971094683578360877187CA
:1035B0001B821A821D821C82209709F4A5CFCE019E
:1035C0000E960E94B30ACE010E941B2A9DCFE114E1
:1035D000F10451F2C701CBCFC501DF91CF911F910B
:1035E0000F91FF90EF90DF90CF90BF90AF909F90A2
:1035F0008F900C947F09EF92FF920F931F93CF93BC
:10360000DF938C01EB017A0188819981892B69F420
:10361000C8010E9471088F3F9807B9F4DF91CF91DC
:103620001F910F91FF90EF900895CB010E941F0A08
:10363000019629F4198218828FEF9FEFEFCFBE0118
:10364000C8010E9471080196A9F308811981F80147
:10365000828581FF11C0C8010B9691878087E88120
:10366000F981A085B18585E0F70101900D928A95D9
:10367000E1F781E090E0D2CF85E090E00E947F29E1
:1036800025E0F701DC0101900D922A95E1F7F801A0
:1036900091878087EECF6F927F928F929F92AF92A9
:1036A000BF92CF92DF92EF92FF920F931F93CF932F
:1036B000DF93CDB7DEB7C055D1090FB6F894DEBFA2
:1036C0000FBECDBF7C018B018091C901811105C066
:1036D0000E94D71981E08093C9012B961CAE1DAEC4
:1036E0001EAE1FAE2B972F961CAE1DAE1EAE1FAE8C
:1036F0002F9761961FAE1EAE6197B801CE01895B10
:103700009F4F0E94281481ED91E00E94EF043C013C
:1037100021961CAE1DAE1EAE1FAE219725961CAE87
:103720001DAE1EAE1FAE259727961FAE1EAE279765
:10373000BE01695B7F4FCE01CD960E94281419828D
:103740001B821A821D821C82D7011D921D921D921E
:103750001C921397F7011482158216821782118624
:103760001086AE014F5F5F4FB701685F7F4FC701A3
:103770000E94FB1A8CE090E00E947F298C018FE16F
:1037800091E0D80111969C938E93F80112821382D6
:103790001482158216961D921D921D921C921997E5
:1037A0001B961C921E921A97BE01635C7F4FC80144
:1037B00002960E9428141BAA1CAA1DAA1EAA1FAAB0
:1037C00018AE19AE1AAE1CAE1BAE0115110509F0EC
:1037D000F8C0BE01655C7F4FCE01C3960E94510EBA
:1037E000B5E06B0E711CC3010E9440058C0119A647
:1037F0001AA61BA61CA61DA61EA61FA618AA1AAAB4
:1038000019AABE016D5C7F4FCE0189960E94260FDA
:103810008CE090E00E947F296C0185E191E0F60147
:1038200091838083128213821482158216821782FA
:103830001086118613861286BE01675D7F4FC60112
:1038400002960E94260F1D8A1E8A1F8A188E198EC4
:103850001A8E1B8E1C8E1E8E1D8EC114D10409F073
:10386000B9C0BE01635E7F4FCE0145960E94510EE6
:10387000B701CE014F960E94680AC8010E94AA04AF
:103880005C01C8010E941704882309F4ACC0BE0182
:103890006B5E7F4FCE0101960E94540F8AE190E04B
:1038A0000E947F296C01DC0111961C921E921396D6
:1038B0001C921E92129715961C921E921497BE018E
:1038C0006F5F7F4F06960E94540FC8010E948A03C3
:1038D000FC01D182C082CE0101960E94710FC80105
:1038E0000E948A03DC01ED91FC9191838083C801E1
:1038F0000E948A036C01C8010E94AA04F601958304
:103900008483C8010E948A03FC0146815781608537
:1039100071854F5F5F4F6F4F7F4F4683578360873F
:103920007187CE0145960E94710FBE016F5C7F4F7B
:10393000CE0189960E94510EC3010E9440056C0180
:10394000C7010E9464058C01C6010E94AA04F80107
:1039500092838183C7010E94640521E0DC012C93DE
:10396000C7010E9464058C01C3010E944005F80153
:1039700094838383BE01655C7F4FCE01C3960E9412
:10398000510ECE01CD960E941114CE01895B9F4F3E
:103990000E941114C701C05BDF4F0FB6F894DEBF61
:1039A0000FBECDBFDF91CF911F910F91FF90EF9090
:1039B000DF90CF90BF90AF909F908F907F906F904F
:1039C0000895A801BE01655C7F4FCE01C3960E9499
:1039D000CD0E06CFA601BE01635E7F4FCE01459698
:1039E0000E94CD0E45CFB501C8010E943204BE0130
:1039F0006B5E7F4F882309F44EC0CE0101960E9472
:103A0000540F8AE190E00E947F296C01DC0111963D
:103A10001C921E9213961C921E92129715961C923F
:103A20001E921497BE016F5F7F4F06960E94540F3F
:103A3000CE0101960E94710FC8010E948A03F6010F
:103A400091838083D50114968D909C909582848279
:103A50008114910419F0F401D382C282D501129627
:103A60008D919C91892B31F4C8010E948A03FC013D
:103A7000B582A482892831F4C8010E948A03DC013E
:103A8000CD92DC92F601B382A282D5011596DC922A
:103A9000CE92149736CFCE0101960E94540F8AE140
:103AA00090E00E947F296C01FC0111821082138238
:103AB000128215821482BE016F5F7F4F06960E94AC
:103AC000540FCE0101960E94710FC8010E948A0313
:103AD000D6018D939C93C8010E94DD045C01FC011A
:103AE00084819581892B31F4C8010E948A03DC010D
:103AF000AD92BC92F60182819381892B41F4C80179
:103B00000E948A03DC011596DC92CE921497F6018E
:103B1000B582A482D5011396DC92CE921297F1CE93
:103B2000AF92BF92CF92DF92EF92FF920F931F93CB
:103B3000CF93DF93CDB7DEB72B970FB6F894DEBFE8
:103B40000FBECDBF8C015B0169017A01672B09F5BE
:103B5000F801108211821282138214821582168259
:103B6000178211861086C80108960E94B30AC80100
:103B70002B960FB6F894DEBF0FBECDBFDF91CF916D
:103B80001F910F91FF90EF90DF90CF90BF90AF907B
:103B90000895C114D104E104F104D1F21B86198205
:103BA0001A821B821C821D821E821F8218861A8620
:103BB0001986BA01A9014F5F5F4F6F4F7F4F9E017A
:103BC000255F3F4FCE0101960E94690BCE01019601
:103BD0000E94F305A601B5010E94A42AF8011082F3
:103BE0001182128213821482158216821782118624
:103BF0001086BE016F5F7F4FC8010E94D70BCE01B8
:103C00000996B3CF0F931F93CF93DF93CDB7DEB752
:103C10002A970FB6F894DEBF0FBECDBF8C01FC0112
:103C200010821182128213821482158216821782E8
:103C300011861086089661157105B1F0FB0101909F
:103C40000020E9F73197E61BF70B9F0150E040E0B9
:103C5000CE0101960E94901DBE016F5F7F4FC8018B
:103C60000E94D70BCE0109960E94B30A2A960FB67E
:103C7000F894DEBF0FBECDBFDF91CF911F910F91A2
:103C800008950F931F93CF93DF93CDB7DEB72A9795
:103C90000FB6F894DEBF0FBECDBF8C0163E771E0B5
:103CA000CE0101960E94021EBE016F5F7F4FC801C8
:103CB0000E944A0CCE0109960E94B30A2A960FB6BA
:103CC000F894DEBF0FBECDBFDF91CF911F910F9152
:103CD00008952F923F924F925F926F927F928F92B0
:103CE0009F92AF92BF92CF92DF92EF92FF920F938B
:103CF0001F93CF93DF93CDB7DEB7AA970FB6F89493
:103D0000DEBF0FBECDBF8C015B017A01CB010E94EB
:103D1000AC038823F9F070E060E0C8010E94021E45
:103D2000C801AA960FB6F894DEBF0FBECDBFDF91D3
:103D3000CF911F910F91FF90EF90DF90CF90BF90A8
:103D4000AF909F908F907F906F905F904F903F903B
:103D50002F900895CE0145960E94FB09F5018084BD
:103D60009184C4010E947302D12CC12C81110EC018
:103D7000F501208131814AE0429FC001439F900DAF
:103D80001124F401C084D184C80ED91E412C512CB9
:103D90003201C5010E94CB03C816D90661F1B601F4
:103DA000CE0101960E94070CBE016F5F7F4FCE01CE
:103DB00045960E944A0CCE0109960E94B30ACE0194
:103DC00045960E948E0506960E944808460E571E8C
:103DD000681E791EFAE0CF0ED11CC5010E94CB03EC
:103DE000C816D906B1F2C7010E944808460E571EF0
:103DF000681E791ECECF1F8E18A219A21AA21BA26E
:103E00001CA21DA21EA218A61FA2CE0187964114B5
:103E100051046104710409F43FC01B8619821A829F
:103E20001B821C821D821E821F8218861A8619869A
:103E3000B301A2014F5F5F4F6F4F7F4F9E01255F20
:103E40003F4FCE0101960E94690BCE0101960E9460
:103E5000F305A20170E060E00E94AD2A1B861C867B
:103E60001D861E861F86188A198A1A8A1C8A1B8A32
:103E7000BE016F5F7F4FCE010B960E94D70BCE0124
:103E800009960E94B30ABE01655F7F4FCE014F962F
:103E90000E94D70BCE0143960E94B30ACE014596ED
:103EA0000E9488051C01412C512C3201211431043F
:103EB00009F445C0610186E0C80ED11CC6010E940C
:103EC00048084B01C6010E9434089AA789A7CE0171
:103ED0004F960E94F305840D951DA40169A57AA54E
:103EE0000E94A42AC6010E944808460E571E681E5A
:103EF000791ECE014F960E9448084616570668065E
:103F0000790690F4C7010E9448084B01C7010E943E
:103F100034086C01CE014F960E94F305840D951D67
:103F2000A401B6010E94A42AC7010E944808460EB7
:103F3000571E681E791EF10122803380B7CFF80129
:103F400010821182128213821482158216821782C5
:103F500011861086BE01615E7F4FC8010E94D70B9B
:103F6000CE0187960E94B30ACE0145960E946B1A35
:103F7000D7CECF92DF92EF92FF92CF93DF93CDB760
:103F8000DEB7EC970FB6F894DEBF0FBECDBF7C0155
:103F900065E771E0CE0189960E94021ECE014F9620
:103FA0000E94FB09B701CE0101960E94021EBE01CC
:103FB0006F5F7F4FCE014F960E944A0CCE0109964B
:103FC0000E94B30ACE014F960E94411EBE01615E5F
:103FD0007F4FCE010B960E944712BE01655F7F4F57
:103FE000CE0145960E940512BE01675D7F4FCE014E
:103FF00001960E94070CAE014F5F5F4FBE016B5EE2
:104000007F4FCE01C3960E94691ECE0109960E9481
:10401000B30ACE0145960E940012CE010B960E9473
:104020000012CE014F960E946B1ACE01C1960E94DB
:10403000B30ACE01C3960E945808CE01C3960E94CF
:1040400048086B01CE01CB960E94B30AC601EC96DC
:104050000FB6F894DEBF0FBECDBFDF91CF91FF90BA
:10406000EF90DF90CF900895CF93FA01C0816C2F2D
:1040700061708AE00E94E7016C2F62708BE00E9401
:10408000E7016C2F64708CE00E94E70187E791E004
:10409000CF910C94B91F4F925F926F927F928F9243
:1040A0009F92AF92BF92CF92DF92EF92FF920F93C7
:1040B0001F93CF93DF93CDB7DEB7CA57D1090FB6A1
:1040C000F894DEBF0FBECDBF2B014A013901FA01C2
:1040D000D080E180F28003811481B581C680B780F1
:1040E0002D2D3E2D4F2D502F612F7B2F8C2D9B2D55
:1040F000A0E00E94592929F1A9E10E94592909F457
:1041000048C0F3011082118212821382F4011082DE
:1041100011821282138214821582168217821092E3
:10412000B8011092B9011092BA011092BB0110921D
:10413000BD011092BC0188E08093B7018FEF9FEF23
:1041400091C01092B8011092B9011092BA01109268
:10415000BB011092BD011092BC0181E08093B701B8
:104160000E942E06A8EEAA2EB3E0BB2EC12CD12CA5
:10417000E12CF12C00E010E00E94D528DA01C90101
:1041800088519C4FAF4FBF4FF30180839183A2832F
:10419000B3830E942E06F301A080B180C280D38039
:1041A00076016701E12CF12C8701E496AFAEE4972C
:1041B000E596BFAEE597E696CFAEE697E796DFAE1B
:1041C000E797E896EFAEE897E996FFAEE997EA96AB
:1041D0000FAFEA97EB961FAFEB97E8EEAE2EF3E04A
:1041E000BF2EC12CD12CE12CF12C00E010E00E945C
:1041F000D52859016A017B018C01E4962FADE49723
:10420000E5963FADE597E6964FADE697E7965FAD4D
:10421000E79760E070E080E090E00E945029E9F1CB
:10422000E0F189E1F4018083118212821382148209
:1042300015821682178289E190E09093BD018093E8
:10424000BC0188EE93E0A0E0B0E08093B8019093C9
:10425000B901A093BA01B093BB0184E08093B70188
:1042600081E090E0F20191838083C658DF4F0FB662
:10427000F894DEBF0FBECDBFDF91CF911F910F919C
:10428000FF90EF90DF90CF90BF90AF909F908F9076
:104290007F906F905F904F90089565E771E0CE0139
:1042A000815A9F4F0E94021ECE018B5A9F4F0E943F
:1042B000FB0966E871E08E010F5F1F4FC8010E9485
:1042C000021EB801CE018B5A9F4F0E944A0CCE01AC
:1042D00009960E94B30A8091BF018F938091BE011D
:1042E0008F938FE891E09F938F931F9280E48F9339
:1042F0001F930F930E94B42A9C01990F440B550BF6
:104300002F961CAE1DAE1EAE1FAE2F9763961CAE31
:104310001DAE1EAE1FAE639765961FAE1EAE6597AF
:104320000FB6F894DEBF0FBECDBF8BE490E0211531
:1043300031054105510581F0B801CE018F5B9F4FDA
:104340000E94901DBE016F5B7F4FCE01855B9F4F2A
:104350000E94D70B81E490E08C0F9D1F08960E946D
:10436000B30ABE01655B7F4FCE018B5A9F4F0E94FF
:104370004A0C8BE490E08C0F9D1F08960E94B30AB4
:10438000CE018B5A9F4F0E94411EBE016B5A7F4F38
:10439000CE018F5B9F4F0E944712BE016F5B7F4F24
:1043A000CE01855B9F4F0E940512BE01615A7F4F6F
:1043B000C8010E94070CA801BE01655B7F4FCE01BA
:1043C00087599F4F0E94691ECE0109960E94B30A29
:1043D000CE01855B9F4F0E940012CE018F5B9F4FE5
:1043E0000E940012CE018B5A9F4F0E946B1A8FE5DC
:1043F00090E08C0F9D1F08960E94B30ACE0187594A
:104400009F4F0E94580889E690E08C0F9D1F0896E8
:104410000E94B30A8091BE019091BF0101969093D2
:10442000BF018093BE019CCE1F920F920FB60F92D8
:1044300011242F933F934F935F936F937F938F93A9
:104440009F93AF93BF93EF93FF938BED91E00E9407
:104450000B01FF91EF91BF91AF919F918F917F9150
:104460006F915F914F913F912F910F900FBE0F90E1
:104470001F9018951F920F920FB60F9211242F9331
:104480008F939F93EF93FF93E091EB01F091EC01F9
:104490008081E091F101F091F20182FD1BC09081D9
:1044A0008091F4018F5F8F732091F501821741F0A5
:1044B000E091F401F0E0E552FE4F958F8093F40116
:1044C000FF91EF919F918F912F910F900FBE0F90C1
:1044D0001F9018958081F4CF1F920F920FB60F9204
:1044E00011242F933F938F939F93AF93BF9380910A
:1044F000C1019091C201A091C301B091C40130915A
:10450000C00123E0230F2D3758F50196A11DB11DE1
:104510002093C0018093C1019093C201A093C30175
:10452000B093C4018091C5019091C601A091C701CB
:10453000B091C8010196A11DB11D8093C501909352
:10454000C601A093C701B093C801BF91AF919F91DD
:104550008F913F912F910F900FBE0F901F90189544
:1045600026E8230F0296A11DB11DD2CFCF93DF9372
:104570001092DE011092DD0188EE93E0A0E0B0E041
:104580008093DF019093E001A093E101B093E201F9
:1045900085E691E09093DC018093DB0185EC90E06F
:1045A0009093E8018093E70184EC90E09093EA0116
:1045B0008093E90180EC90E09093EC018093EB0113
:1045C00081EC90E09093EE018093ED0182EC90E01D
:1045D0009093F0018093EF0186EC90E09093F201CC
:1045E0008093F1011092F4011092F5011092F601FE
:1045F0001092F70185E190E00E947F29EC0185E1AE
:10460000FE0111928A95E9F7CE010E940D0A8AE017
:1046100090E00E947F292AE0FC0111922A95E9F797
:10462000BC01CE010A960E94C8091C8A1092780229
:104630001092790210927A0210927B0210927C0200
:1046400010927D0210927E0210927F0210928102DF
:1046500010928002209741F460E872E088E792E0CF
:10466000DF91CF910C945B1520E030E0A90160E868
:1046700072E088E792E00E94D908019651F0E0913B
:104680008002F091810282858D7F81608287D1874F
:10469000C087DF91CF910895CF93DF93CDB7DEB779
:1046A000C055D1090FB6F894DEBF0FBECDBF7894C8
:1046B00084B5826084BD84B5816084BD85B5826027
:1046C00085BD85B5816085BD80916E0081608093D8
:1046D0006E00109281008091810082608093810041
:1046E0008091810081608093810080918000816051
:1046F000809380008091B10084608093B1008091AC
:10470000B00081608093B00080917A0084608093D3
:104710007A0080917A00826080937A0080917A009A
:10472000816080937A0080917A00806880937A001B
:104730001092C100E091EB01F091EC0182E08083E6
:10474000E091E701F091E8011082E091E901F09138
:10475000EA018FEC80831092F301E091EF01F09178
:10476000F00186E08083E091ED01F091EE0180811F
:1047700080618083E091ED01F091EE01808188609D
:104780008083E091ED01F091EE018081806880836B
:10479000E091ED01F091EE0180818F7D8083E1EA6F
:1047A000F0E02491EDE8F0E084918823C9F090E0F6
:1047B000880F991FFC01EE58FF4F45915491FC0161
:1047C000E859FF4FA591B4919FB7F894FA01808101
:1047D0002095822380838C91E22FE823EC939FBF66
:1047E0008AE0E7E0F1E0DE01119601900D928A95F2
:1047F000E1F72B961CAE1DAE1EAE1FAE2B972F966B
:104800001CAE1DAE1EAE1FAE2F9761961FAE1EAE24
:10481000619767E470E06C0F7D1F685F7F4F25E054
:1048200030E040E050E0CE01895B9F4F0E94340BA6
:10483000CE01895B9F4F0E94F305FE0131969C01DA
:104840002B5F3F4F40813296DC014D93CD01A21783
:10485000B307C1F7CE01895B9F4F0E94F3057C012E
:1048600061960EAD1FAD6197C8010E94B80230E09D
:1048700020E0811109C0F801208531852D968EAD8B
:104880009FAD2D97280F391FD7012A173B0709F134
:104890008D9190E0FC01E656FF4F64918A579F4F3F
:1048A000FC018491882389F390E0880F991FFC0113
:1048B000EE58FF4F45915491FC01E859FF4F859107
:1048C00094918FB7F894FA019081962B90838FBFC3
:1048D000DCCF83E090E00E947F298C0183E391E0AC
:1048E000D8018D939C9321961CAE1DAE1EAE1FAEBB
:1048F000219725961CAE1DAE1EAE1FAE259727969E
:104900001FAE1EAE27976DE370E06C0F7D1F685FD2
:104910007F4F0115110509F003C3CE01CD960E940A
:10492000641019821B821A821D821C821BAA1CAA77
:104930001DAA1EAA1FAA18AE19AE1AAE1CAE1BAE37
:10494000AE014F5F5F4FBE01655C7F4FCE01C396E6
:104950000E94FB1A88E792E00E944F048C0119A67E
:104960001AA61BA61CA61DA61EA61FA618AA1AAA32
:1049700019AABE016F5C7F4FCE0189960E94641018
:10498000BE016F5C7F4F27968EAD9FAD27970E942B
:10499000510221968CAD9DADAEADBFAD219789A7DB
:1049A0009AA7ABA7BCA725968CAD9DADAEADBFAD0C
:1049B00025978DA79EA7AFA7B8AB8CE090E00E948B
:1049C0007F297C018DE391E0F7019183808312823E
:1049D000138214821582168217821086118613861E
:1049E00012866701FAE0CF0ED11CB601C70102960C
:1049F0000E946410B60189A99AA90E94510289A552
:104A00009AA5ABA5BCA5F70182839383A483B58344
:104A10008DA59EA5AFA5B8A986839783A087B187EA
:104A20001D8A1E8A1F8A188E198E1A8E1B8E1C8E46
:104A30001E8E1D8EE114F10409F087C2BE01635E73
:104A40007F4FCE0145960E94890DBE016D5C7F4F60
:104A5000CE014F960E94680AC8010E94170488235D
:104A600009F489C2BE016B5E7F4FCE0101960E94A0
:104A7000050E8AE190E00E947F297C01DC011196FD
:104A80001C921E9213961C921E92129715961C92BF
:104A90001E921497BE016F5F7F4F06960E94050E0F
:104AA000C8010E948A03FC01F182E082CE010196D6
:104AB0000E94430EC8010E948A03DC01ED91FC9123
:104AC00091838083C8010E948A037C01C8010E94EF
:104AD000AA04F70195838483C8010E948A03DC013C
:104AE00016964D915D916D917C9119974F5F5F4F37
:104AF0006F4F7F4FFC014683578360877187CE01DC
:104B000045960E94430EBE016F5C7F4FCE01899691
:104B10000E946410CE01C3960E94640521E0DC016E
:104B20002C9388E792E00E944F047C01CE01C3964B
:104B30000E9464058C01C7010E94DD04F801928384
:104B40008183CE01C3960E9464058C0188E792E0C0
:104B50000E944F04D80114969C938E931397CE0114
:104B6000CB960E941F0A6DE370E06C0F7D1F685F9B
:104B70007F4FCE01CD960E94641086E190E00E94A6
:104B80007F298C0136E1F32EFC012F2D11922A95FD
:104B9000E9F770E060E00E942D10D8011A961D928E
:104BA0001D921D921C921D971E961C921E971F9679
:104BB0001C921F9750961C92509751961C92519799
:104BC00052961C92529753961C92539754961C924D
:104BD000549755961C92B801CE0145960E946014D8
:104BE00083E090E00E947F2927E431E0FC013183DB
:104BF0002083BC01CE0101960E942D10CE01459666
:104C00000E948804BE016F5F7F4F0E94FB0FBE01B0
:104C1000675F7F4FCE0101960E947F0FBE016B5EE2
:104C20007F4FCE0101960E944B1BCE0109960E9438
:104C30001F0ACE0145960E94111486E190E00E9461
:104C40007F298C01DC01EF2D1D92EA95E9F770E0D8
:104C500060E00E942D10D8011A961D921D921D929F
:104C60001C921D971E961C921E971F961C921F97B2
:104C700050961C92509751961C92519752961C92A6
:104C8000529753961C92539754961C92549755964C
:104C90001C92B801CE0145960E94601483E090E01A
:104CA0000E947F2921E531E0FC0131832083BC0192
:104CB000CE0101960E942D10CE0145960E948804D7
:104CC000BE016F5F7F4F0E94FB0FBE01675F7F4F8A
:104CD000CE0101960E947F0FBE016B5E7F4FCE0119
:104CE00001960E944B1BCE0109960E941F0ACE011D
:104CF00045960E94111486E190E00E947F298C0164
:104D0000DC011D92FA94E9F770E060E00E942D103A
:104D1000F801128613861486158616861786108A61
:104D2000118A128A138A148A158AB801CE0145960F
:104D30000E94601483E090E00E947F292BE531E01F
:104D4000DC012D933C93BC01CE0101960E942D10F5
:104D5000CE0145960E948804BE016F5F7F4F0E947E
:104D6000FB0FBE01675F7F4FCE0101960E947F0F50
:104D7000BE016B5E7F4FCE0101960E944B1BCE01A0
:104D800009960E941F0ACE0145960E94111482E9DD
:104D900091E00E94B91F87E490E08C0F9D1F089658
:104DA0000E94B30A88248A94982C540154E0252E3A
:104DB000332433948091C901811104C00E94D71912
:104DC0003092C90181ED91E00E94EF048C010B5FEC
:104DD0001F4FC8010E9440057C010E9417048111E9
:104DE0002BC0C7010E94CD05892B31F1C8010E945B
:104DF00040050E94CD056C01C8010E9440050E943B
:104E0000CD05FC018481958166246A94762C892BDA
:104E100019F066246394712C7601F0E1EF0EF11C19
:104E2000C7010E946405FC01908191FF48C1C8013F
:104E30000E9440050E94A00581ED91E00E94EF04D0
:104E4000FC0190819064908381ED91E00E94EF04D9
:104E5000FC014181528163817481452B462B472B94
:104E600021F0118212821382148281ED91E00E945E
:104E7000EF048C0105960E9440057C010E941704F6
:104E800081110CC0C7010E948A03FC0186819781B1
:104E9000A085B185892B8A2B8B2BD1F4E091D90188
:104EA000F091DA013097A1F08285882389F0808122
:104EB0009181A281B3810097A105B10549F02085B8
:104EC0003185232B29F00297A105B10508F036C1E1
:104ED000D8011196CD90DD90ED90FC9014970E9432
:104EE00015022B013C01C114D104E104F10409F4C1
:104EF0002CC10E9415026419750986099709683E3C
:104F000073408105910578F3B1E0CB1AD108E1082F
:104F1000F108E8EE4E0EE3E05E1E611C711CE3CF6B
:104F200020E030E0A901CE01CD960E94D90801967B
:104F300009F4F7CC2796EEADFFAD279782858D7FDC
:104F40008160828711870087ECCC20E030E0A901E6
:104F5000BE01635E7F4FCE0145960E94D90801963F
:104F600009F473CDED8DFE8D82858D7F8160828702
:104F7000F186E0866ACD70E060E0C8010E943204EC
:104F8000BE016B5E7F4F882309F44FC0CE010196AE
:104F90000E94050E8AE190E00E947F297C01DC01DD
:104FA00011961C921E9213961C921E9212971596A1
:104FB0001C921E921497BE016F5F7F4F06960E944F
:104FC000050ECE0101960E94430EC8010E948A037D
:104FD000F70191838083C0900400D0900500D582B2
:104FE000C482C114D10429F0D6011396FC92EE922A
:104FF00012978091020090910300892B31F4C8012F
:105000000E948A03FC0115821482CD2831F4C80164
:105010000E948A03DC01ED92FC92F7011382128256
:10502000F0920500E092040057CDCE0101960E9457
:10503000050E8AE190E00E947F297C01DC01119637
:105040001C921E9213961C921E92129715961C92F9
:105050001E921497BE016F5F7F4F06960E94050E49
:10506000CE0101960E94430EC8010E948A03F701F7
:1050700091838083C8010E94DD046C01DC011496D9
:105080008D919C91892B31F4C8010E948A03FC0107
:10509000D182C082D70112968D919C91892B31F4D7
:1050A000C8010E948A03FC01F582E482D7011596AB
:1050B000DC92CE921497F601F382E2820DCD92FF3C
:1050C00013C0C8010E944005B6010E943F18E0E0ED
:1050D000F0E0EF2B09F46ECE0E94F700882309F46C
:1050E00069CE0E94000066CE92609083C60106964B
:1050F0000E9413056C01C8010E9440050E9417041C
:10510000811112C02FEFC216D20691F0CD2861F0A6
:10511000C7010E946405FC0190819D7F9083C801B6
:105120000E9440050E94A0056A94672881F284CEFF
:10513000C7010E946405DC012C92F6CF88EEC82ED0
:1051400083E0D82EE12CF12CCACE81ED91E00E94B3
:10515000EF04DC0111968D929D92AD92BC92149752
:1051600081ED91E00E94EF04FC0190819F7B908390
:10517000AECF60E872E088E792E00C945B1597FB95
:10518000072E16F4009407D077FD09D00E946529F8
:1051900007FC05D03EF4909581959F4F089570953A
:1051A00061957F4F0895689401C0E8948F929F9213
:1051B000CF93DF930E94E128DF91CF919F908F9052
:1051C000089588249924F401E401B0E49F93AA2768
:1051D0009A158B049C04ED05FE05CF05D007A107A9
:1051E00098F4AD2FDC2FCF2FFE2FE92D982C892E90
:1051F000982F872F762F652F542F432F322F22275A
:10520000B85031F7BF9127C01B2EBF91BB27220F8B
:10521000331F441F551F661F771F881F991F881C47
:10522000991CEE1FFF1FCC1FDD1FAA1FBB1F8A1476
:105230009B04EC05FD05CE05DF05A007B10748F08E
:105240008A189B08EC09FD09CE09DF09A00BB10BF8
:1052500021601A94E1F62EF49401AF01BE01CD0154
:10526000000C08952A0D3B1D4C1D5D1D6E1D7F1DFC
:10527000801F911F08950024A7FD00942A0F301D60
:10528000401D501D601D701D801D901D08952A1920
:105290003B094C095D096E097F09800B910B08954C
:1052A0002A153B054C055D056E057F0580079107B6
:1052B00008950024A7FD00942A17300540055005E5
:1052C00060057005800590050895AA1BBB1B51E180
:1052D00007C0AA1FBB1FA617B70710F0A61BB70B66
:1052E000881F991F5A95A9F780959095BC01CD010B
:1052F0000895EE0FFF1F0590F491E02D09940F9390
:105300001F93CF93DF938230910510F482E090E0F9
:10531000E0918402F091850230E020E0B0E0A0E06E
:10532000309799F42115310509F44AC0281B390B2F
:1053300024303105D8F58A819B816115710589F189
:10534000FB0193838283FE0111C040815181028160
:10535000138148175907E0F04817590799F4109737
:1053600061F012960C93129713961C933296CF010C
:10537000DF91CF911F910F910895009384021093B4
:105380008502F4CF2115310551F04217530738F04B
:10539000A901DB019A01BD01DF01F801C1CFEF01D5
:1053A000F9CF9093850280938402CDCFFE01E20F66
:1053B000F31F819391932250310939832883D7CFEA
:1053C0002091820230918302232B41F4209103012A
:1053D00030910401309383022093820220910101D5
:1053E000309102012115310541F42DB73EB74091AE
:1053F000050150910601241B350BE0918202F091CA
:105400008302E217F307A0F42E1B3F0B281739077E
:1054100078F0AC014E5F5F4F2417350748F04E0F10
:105420005F1F5093830240938202819391939FCF99
:10543000F0E0E0E09CCFCF93DF930097E9F0FC0130
:10544000329713821282A0918402B0918502ED01FD
:1054500030E020E01097A1F420813181820F931F6A
:1054600020918202309183022817390709F061C028
:10547000F0938302E0938202DF91CF910895EA01D5
:10548000CE17DF07E8F54A815B819E014115510582
:10549000B1F7E901FB83EA8349915991C40FD51F04
:1054A000EC17FD0761F4808191810296840F951FAE
:1054B000E90199838883828193819B838A83F0E0C9
:1054C000E0E012968D919C9113970097B9F52D917C
:1054D0003C911197CD010296820F931F2091820279
:1054E000309183022817390739F6309751F5109219
:1054F000850210928402B0938302A0938202BCCFF3
:10550000D383C28340815181840F951FC817D90767
:1055100061F44E5F5F4F88819981480F591F518315
:1055200040838A819B81938382832115310509F011
:10553000B0CFF0938502E09384029ECFFD01DC01A1
:10554000C0CF13821282D7CFFB01DC0102C00190D1
:105550000D9241505040D8F70895DC0101C06D9381
:1055600041505040E0F70895AEE0B0E0EAEBFAE2D7
:105570000C94702D0D891E898F89988D26E02C83BF
:105580001A83098397FF02C080E090E801979E8309
:105590008D83AE01455E5F4F698D7A8DCE01019698
:1055A0000E94E42A4D815E8157FD0AC02F81388513
:1055B000421753070CF49A01020F131FF8011082CF
:1055C0002E96E4E00C948C2DABE0B0E0EAEEFAE22B
:1055D0000C94622D7C013B018A01FC01178216822A
:1055E000838181FFC8C1CE0101965C01F7019381DF
:1055F000F30193FD859193FF81913F01882309F485
:1056000053C1853239F493FD859193FF81913F0118
:10561000853229F4B70190E00E94D42CE7CF912C79
:10562000212C312CFFE1F31538F08B3211F190F47D
:10563000803209F1833229F137FC3CC020ED280F7C
:105640002A3050F536FE20C08AE0989E200D1124A5
:10565000922E06C08D3291F0803371F7689430F845
:10566000F30193FD859193FF81913F018111DACF81
:1056700021C0689431F8689432F8F2CF689433F816
:10568000EFCF689434F8ECCFEAE02E9E200D112481
:10569000222E689435F8E4CF8E3229F436FC04C10A
:1056A000689436F8DDCF8C3619F4689437F8D8CF83
:1056B0008836B1F2982F9F7D95549330E0F0833671
:1056C000A1F18337C1F1833509F063C02801F2E00D
:1056D0004F0E511CF801C080D180692D70E036FC5E
:1056E00002C06FEF7FEFC6010E94BE2C4C01689490
:1056F00037F882010AC00C5F1F4FFFE3F98388244B
:105700008394912C6501E89437F833FE2DC0522C18
:105710008114910471F5552009F468CFB70180E236
:1057200090E00E94D42C5A94F6CFF80180818983AE
:105730000E5F1F4FE4CF2801F2E04F0E511CF8011D
:10574000C080D180692D70E036FC02C06FEF7FEF22
:10575000C6010E94C92C4C018201D5CFB70180E25D
:1057600090E00E94D42C2A942814190409F0B0F770
:10577000CECFF60137FC859137FE81916F01B701DD
:1057800090E00E94D42C51105A94F1E08F1A9108A5
:10579000BFCF843619F0893609F077C0F80137FE9B
:1057A0006BC060817181828193810C5F1F4FF32DEB
:1057B000FF763F2E97FF09C0909580957095619573
:1057C0007F4F8F4F9F4F689437F82AE030E0A50154
:1057D0000E94042DC82ECA188C2C432C36FE0CC0F7
:1057E000E89440F8C91440F434FE05C032FC03C00C
:1057F000F32DFE7E4F2E892C44FE95C0FE01EC0D4C
:10580000F11D8081803309F087C0242D297E422E2E
:10581000842D8870582E43FC95C040FE8FC09C2C70
:10582000821418F42C0C922C981844FE91C0B701E5
:1058300080E390E00E94D42C42FE09C088E790E00B
:1058400041FE02C088E590E0B7010E94D42CC91443
:1058500008F48AC0CA94D12C9FEFC91AD90ACA0C7D
:10586000DB1CF60182916F01B70190E00E94D42CFD
:10587000AC14BD04B1F74FCF60817181072E000CCD
:10588000880B990B0E5F1F4F92CFD32CE894D4F85E
:105890002AE030E0853739F1232D297FD22E8F364B
:1058A00001F148F48835A9F0F701868197812B969C
:1058B000E2E10C947E2D803749F08837A9F7D4FEB9
:1058C00002C06894D2F820E130E00DC06894D4F8AA
:1058D000F6CF34FE03C0822F8660D82E20E132E05E
:1058E00002C028E030E0F801D7FE0FC0608171816E
:1058F000828193810C5F1F4FA5010E94042DC82E49
:10590000CA183D2CE89437F867CF6081718190E028
:1059100080E00E5F1F4FF0CF42FC02C0839478CF2F
:105920008394839475CF842D867809F471CFF6CF54
:10593000B70180E290E00E94D42C83948214C0F3DB
:10594000512C73CF522C5818821408F46ECFF8CF14
:10595000842D867809F47BCF8BE241FE80E247FC00
:105960008DE2B70190E071CFB70180E390E00E9433
:10597000D42C9A946CCF8FEF9FEF99CFFC010590B8
:10598000615070400110D8F7809590958E0F9F1F41
:105990000895FC016150704001900110D8F7809586
:1059A00090958E0F9F1F08950F931F93CF93DF93B2
:1059B000182F092FEB018B8181FD09C01FEF0FEF1D
:1059C000812F902FDF91CF911F910F91089582FF2A
:1059D00014C02E813F818C819D81281739073CF4AA
:1059E000E881F981CF0101969983888310838E81A4
:1059F0009F8101969F838E83E3CFE885F985812F70
:105A00000995892BA1F3DACFFA01AA27283051F1A1
:105A1000203181F1E8946F936E7F6E5F7F4F8F4FDF
:105A20009F4FAF4FB1E03ED0B4E03CD0670F781F3E
:105A3000891F9A1FA11D680F791F8A1F911DA11D23
:105A40006A0F711D811D911DA11D20D009F468945C
:105A50003F912AE0269F11243019305D3193DEF604
:105A6000CF010895462F4770405D4193B3E00FD0BA
:105A7000C9F7F6CF462F4F70405D4A3318F0495DA5
:105A800031FD4052419302D0A9F7EACFB4E0A69588
:105A90009795879577956795BA95C9F700976105AA
:105AA000710508959B01AC010A2E06945795479500
:105AB00037952795BA95C9F7620F731F841F951FF5
:105AC000A01D08952F923F924F925F926F927F9206
:105AD0008F929F92AF92BF92CF92DF92EF92FF92FE
