:100000000C9461000C947E000C947E000C947E0095
:100010000C947E000C947E000C947E000C947E0068
:100020000C947E000C947E000C947E000C947E0058
:100030000C947E000C947E000C947E000C947E0048
:100040000C949C140C947E000C947E000C947E0006
:100050000C947E000C947E000C947E000C947E0028
:100060000C947E000C947E0000000000230026000B
:10007000290000000008000201000003040700003E
:1000800000000000000000000000250028002B00F8
:1000900000000000240027002A00040404040404D3
:1000A0000404020202020202030303030303010227
:1000B00004081020408001020408102001020408F6
:1000C000102011241FBECFEFD8E0DEBFCDBF11E05E
:1000D000A0E0B1E0EEE0F7E302C005900D92A0369B
:1000E000B107D9F721E0A0E6B1E001C01D92AE3919
:1000F000B207E1F70E94E6140C94851B0C940000F3
:10010000833081F028F4813099F08230A9F008958D
:100110008730A9F08830C9F08430B1F48091800034
:100120008F7D03C0809180008F7780938000089539
:1001300084B58F7784BD089584B58F7DFBCF809182
:10014000B0008F778093B00008958091B0008F7DCC
:10015000F9CF1F93CF93DF93282F30E0F901EE58AA
:10016000FF4F8491F901E255FF4FD491F901E65612
:10017000FF4FC491CC23A9F0162F81110E9480005B
:10018000EC2FF0E0EE0FFF1FEA57FF4FA591B4915F
:100190008FB7F894EC91111108C0D095DE23DC9351
:1001A0008FBFDF91CF911F910895DE2BF8CFFF9283
:1001B0000F931F93CF93DF93082F162FF42EC22F88
:1001C000D8E06C2FF11015C06170802F0E94A9003B
:1001D000C69561E0812F0E94A90060E0812F0E94F6
:1001E000A900D15071F7DF91CF911F910F91FF902E
:1001F0000895661F6627661F802F0E94A900CC0FF6
:10020000E8CF3FB7F8948091840190918501A09147
:100210008601B091870126B5A89B05C02F3F19F034
:100220000196A11DB11D3FBFBA2FA92F982F882776
:10023000BC01CD01620F711D811D911D42E0660F51
:10024000771F881F991F4A95D1F70895FC01892BC4
:1002500091F08285882379F080819181A281B38198
:10026000892B8A2B8B2B39F081E020853185232B3C
:1002700019F080E0089581E00895FC01892B91F048
:100280008285882379F080819181A281B381892B35
:100290008A2B8B2B39F081E020853185232B19F0B7
:1002A00080E0089581E00895FC01892B91F082851A
:1002B000882379F080819181A281B381892B8A2B57
:1002C0008B2B39F081E020853185232B19F080E0DC
:1002D000089581E00895FC01892B91F0828588239F
:1002E00079F080819181A281B381892B8A2B8B2B1C
:1002F00039F081E020853185232B19F080E00895C5
:1003000081E00895FC01892B91F08285882379F0A2
:1003100080819181A281B381892B8A2B8B2B39F02B
:1003200081E020853185232B19F080E0089581E05C
:100330000895CF93DF93FC01C085D185CE010E9443
:100340002601811109C081E0488159816A817B8140
:10035000452B462B472B09F480E0DF91CF91089580
:10036000CF92DF92EF92FF920F931F93CF93DF9381
:1003700000D0CDB7DEB78C017B01DC011A96CD90A1
:10038000DC90C6010E945401811146C0F8018281AF
:10039000938126E1289FA001299F500D1124D601A9
:1003A00018960D911C91040F151FC8010E94990108
:1003B000882311F1F801C084D184C6010E9426016E
:1003C00081112DC0D8012D913C91220F331FF601D0
:1003D00080859185820F931F9801265F3F4FA8016A
:1003E000425F5F4FDC01ED91FC910480F581E02DCF
:1003F000BE016F5F7F4F099589819A81F7019183D3
:1004000080830F900F90DF91CF911F910F91FF90FC
:10041000EF90DF90CF90089510E000E0C6CF90E01D
:1004200080E0DACF0F931F93CF93DF938C01FC0111
:10043000C085D185CE010E943D01811112C0F80115
:10044000808191814AE0489F9001499F300D11249D
:1004500088859985820F931FDF91CF911F910F910E
:10046000089590E080E0F8CF0F931F93CF93DF9330
:100470008C01FC01C085D185CE010E946B018111E8
:1004800012C0F801808191814AE0489F9001499F04
:10049000300D112488859985820F931FDF91CF91AC
:1004A0001F910F91089590E080E0F8CF0F931F9374
:1004B000CF93DF93EC01888599850E943D018111DE
:1004C00011C06C817D818E819F81088119812A8173
:1004D0003B81601B710B820B930BDF91CF911F91BE
:1004E0000F91089560E070E0CB01F7CFCF93DF93D9
:1004F000EC01888599850E943D01282F811109C052
:10050000CE010E94560221E0672B682B692B09F06F
:1005100020E0822FDF91CF910895DC011896ED91B4
:10052000FC9119973097D1F082858823B9F04081EA
:10053000518162817381452B462B472B79F0808551
:100540009185009769F04D915C916FE0649F9001F7
:10055000659F300D1124820F931F089590E080E075
:100560000895EF92FF920F931F93CF93DF9300D0E4
:10057000CDB7DEB78C010E9499018823F1F0D80134
:100580001896ED90FC90C7010E942601811120C0B1
:10059000F80120813181220F331FD70118968D91E8
:1005A0009C91820F931FDC01ED91FC910480F581F9
:1005B000E02DBE016F5F7F4F099589819A810F9071
:1005C0000F90DF91CF911F910F91FF90EF900895C1
:1005D00090E080E0E8CFCF93DF93EB0102960E949A
:1005E000B10299838883DF91CF9108950E943402EC
:1005F000FC01808191810895CF93DF93EC010E94EB
:100600003402FC0184819581009729F4CE01DF91A9
:10061000CF910C94F602DF91CF910895DC011896EA
:10062000ED91FC9119973097D1F082858823B9F02C
:100630004081518162817381452B462B472B79F094
:1006400080859185009769F04D915C916AE0649F87
:100650009001659F300D1124820F931F089590E043
:1006600080E00895DC011896ED91FC911997309780
:10067000D1F082858823B9F04081518162817381F4
:10068000452B462B472B79F080859185009769F0A3
:100690004D915C9165E0649F9001659F300D112440
:1006A000820F931F089590E080E008950F931F93A9
:1006B000CF93DF93EC0108851985C8010E94820160
:1006C00081110CC0F8018085918528813981820FC4
:1006D000931FDF91CF911F910F91089590E080E0DB
:1006E000F8CFCF93DF93EC01888599850E946B0149
:1006F00081110DC0CE010E94340221E0FC018681EF
:100700009781A085B185892B8A2B8B2B09F020E05E
:10071000822FDF91CF9108950F931F93CF93DF9393
:100720008C01EB010E947103282F81110BC02097CF
:1007300051F0C8010E94340221E0488159814817D4
:10074000590709F020E0822FDF91CF911F910F917F
:1007500008950F931F93CF93DF93EC010E947103D1
:10076000811121C0CE010E9434028C01DC0112965D
:10077000ED91FC91309791F4CE010E94FC02F801BA
:1007800093838283CE010E943402DC0112968D9104
:100790009C91DF91CF911F910F9108958481958154
:1007A000009769F7E9CF90E080E0F3CF0F931F93B4
:1007B000CF93DF93EC010E94710381111AC0CE0127
:1007C0000E9434028C01FC0182819381892B31F4D7
:1007D000CE010E94F602F80193838283CE010E942B
:1007E0003402FC0182819381DF91CF911F910F919F
:1007F000089590E080E0F8CF8F929F92AF92BF92E1
:10080000CF92DF92EF92FF920F931F93CF93DF93DC
:100810008C016A017B01FC01808591850E94820127
:10082000B82EC8010E945603EC01B11016C0F801A1
:1008300084809580A680B78080819181A281B381D8
:10084000A5019401281B390B4A0B5B0BC216D3067A
:10085000E406F50680F4CC0DDD1DCE01DF91CF91CD
:100860001F910F91FF90EF90DF90CF90BF90AF90CE
:100870009F908F90089588169906AA06BB0669F383
:10088000C701B6010E949219C60FD71FE6CFE82F05
:10089000962F842F622F21E02927EA3038F50E2E7B
:1008A000000CFF0BEA5AFB4F0C94B419600464046B
:1008B000660468046A046C046E04700472047404B0
:1008C0002C6F40E00C94D7002066FBCF2A6DF9CF47
:1008D000226FF7CF2666F5CF266BF3CF2E6BF1CFC5
:1008E000206EEFCF2E6FEDCF266FEBCF2E2B41E09A
:1008F000E9CF2F923F924F925F926F927F928F92A9
:100900009F92AF92BF92CF92DF92EF92FF920F939E
:100910001F93CF93DF93CDB7DEB72C970FB6F89424
:10092000DEBF0FBECDBF80917001811117C00E9444
:1009300001017B018C0160936801F0926901809351
:100940006A0110936B0110926C0110926D0110926C
:100950006E0110926F0181E0809370010E9401018D
:100960007B018C016983FA828B831C837090680100
:100970008090690190906A01F0906B01FC86009173
:100980006C010B87B0916D01F0916E01E0916F01E8
:1009900020906001309061014090620150906301AD
:1009A00060906401A0916501109166011987209102
:1009B00067012A87272D382D492D5F2D602F7B2F2A
:1009C0008F2F9E2FAE2CBA80CB80DC80E12CF12CB7
:1009D00000E010E00E94371A09F008F466C09101A7
:1009E000A201662D7A2F89859A85AFEF0E94221A7F
:1009F000A72CB82CC92CDC84EB84FB2E0F2F1E2FC8
:100A00000E942E1AA980BA80CB80DC80E12CF12CC8
:100A100000E010E00E94191A2093600130936101F8
:100A20004093620150936301609364017093650188
:100A30008093660190936701A0926801B09269016A
:100A4000C0926A01D0926B0110926C0110926D01FC
:100A500010926E0110926F0120916001309161013E
:100A60004091620150916301609164017091650150
:100A700080916601909167012C960FB6F894DEBFC5
:100A80000FBECDBFDF91CF911F910F91FF90EF90DF
:100A9000DF90CF90BF90AF909F908F907F906F909E
:100AA0005F904F903F902F9008959101A201662D85
:100AB0007A2F89859A85A72CB82CC92CDC84EB84E5
:100AC000FB2E0F2F1E2F0E942E1AA980BA80CB80DA
:100AD000DC80E12CF12C00E010E00E94191A209338
:100AE0006001309361014093620150936301609310
:100AF0006401709365018093660190936701A092F1
:100B00006801B0926901C0926A01D0926B019CCFDA
:100B10000F931F93CF93DF93DB012D913C91232BF8
:100B200041F58B01EC018CE090E00E94601AFC0121
:100B30008CE0DF011D928A95E9F7D801ED93FC93D3
:100B4000188219821A821B821C821D821E821F82B9
:100B500081E090E0A0E0B0E080839183A283B38342
:100B600085E0828781E090E0DF91CF911F910F9126
:100B700008958FEF9FEFF8CF0F931F93CF93DF93DD
:100B8000DB012D913C91232B41F58B01EC018CE095
:100B900090E00E94601AFC018CE0DF011D928A95B2
:100BA000E9F7D801ED93FC93188219821A821B820F
:100BB0001C821D821E821F8281E090E0A0E0B0E0D6
:100BC00080839183A283B38385E0828781E090E074
:100BD000DF91CF911F910F9108958FEF9FEFF8CF85
:100BE000CF92DF92EF92FF920F931F93CF93DF93F9
:100BF000DB01ED91FC91EF2B91F569017A018B01FD
:100C0000EC018CE090E00E94601AFC018CE0DF01B6
:100C10001D928A95E9F7D801ED93FC931882198209
:100C20001A821B82CC82DD82EE82FF8281E090E01C
:100C3000A0E0B0E080839183A283B383C482D58295
:100C4000E682F78285E0828781E090E0DF91CF91B4
:100C50001F910F91FF90EF90DF90CF9008958FEF4D
:100C60009FEFF4CFCF92DF92EF92FF920F931F93FB
:100C7000CF93DF93DB01ED91FC91EF2B91F56901AF
:100C80007A018B01EC018CE090E00E94601AFC017B
:100C90008CE0DF011D928A95E9F7D801ED93FC9372
:100CA000188219821A821B82CC82DD82EE82FF8238
:100CB00081E090E0A0E0B0E080839183A283B383E1
:100CC000C482D582E682F78285E0828781E090E067
:100CD000DF91CF911F910F91FF90EF90DF90CF9018
:100CE00008958FEF9FEFF4CF0F931F93CF93DF9370
:100CF000DC01ED91FC913097E9F1408151816281F5
:100D000073814115510561057105A1F18C01DB016C
:100D1000CA010197A109B10980839183A283B3839A
:100D20004130510561057105D9F4F801C081D181C7
:100D3000209789F088859985009769F02A85222374
:100D400051F020FD0E94FC1A1A8619861886188216
:100D500019821A821B82D8018D919C910E94FC1AE3
:100D6000F8011182108281E090E0DF91CF911F9114
:100D70000F9108958FEF9FEFF8CF0F931F93CF93AD
:100D8000DF93DC01ED91FC913097E9F140815181D5
:100D9000628173814115510561057105A1F18C01D5
:100DA000DB01CA010197A109B10980839183A28364
:100DB000B3834130510561057105D9F4F801C08153
:100DC000D181209789F088859985009769F02A85D7
:100DD000222351F020FD0E94FC1A1A8619861886DB
:100DE000188219821A821B82D8018D919C910E94CF
:100DF000FC1AF8011182108281E090E0DF91CF911E
:100E00001F910F9108958FEF9FEFF8CF0F931F93CE
:100E1000CF93DF93DC01ED91FC913097E9F14081B4
:100E20005181628173814115510561057105A1F1FF
:100E30008C01DB01CA010197A109B109808391836B
:100E4000A283B3834130510561057105D9F4F801DE
:100E5000C081D181209789F088859985009769F0B4
:100E60002A85222351F020FD0E94FC1A1A86198639
:100E70001886188219821A821B82D8018D919C9142
:100E80000E94FC1AF8011182108281E090E0DF914B
:100E9000CF911F910F9108958FEF9FEFF8CFEF92B1
:100EA000FF920F931F93CF93DF93EC017B01188286
:100EB00019821A821B821C821D821E821F82198641
:100EC000188608960E940607F70100851185C8015B
:100ED0000E94820181110EC019870887F801808164
:100EE0009181A281B3810196A11DB11D808391835F
:100EF000A283B383F70180819181A281B38188832A
:100F00009983AA83BB8384819581A681B7818C83D1
:100F10009D83AE83BF83DF91CF911F910F91FF908F
:100F2000EF900895CF92DF92EF92FF920F931F936D
:100F3000CF93DF938C01EB0169017A01888199815C
:100F4000892B79F4C8010E9432068F3F9807D9F4A3
:100F5000DF91CF911F910F91FF90EF90DF90CF9095
:100F60000895CB010E940607019629F41982188280
:100F70008FEF9FEFEDCFA7019601BE01C8010E9440
:100F80003206019699F30990D881C02D8A8581FF98
:100F900007C0CE010B969987888781E090E0D8CF73
:100FA000C6010E94601AF7CF0F931F93CF93DF9370
:100FB000EC018B01188219821A821B821C821D820D
:100FC0001E821F8219861886BC01685F7F4F26E04B
:100FD00030E040E050E00E949207CE010E945603AC
:100FE000F801AC014A5F5F4F8417950731F020810B
:100FF0003296DC012D93CD01F7CFDF91CF911F9178
:101000000F9108953F924F925F926F927F928F92CD
:101010009F92AF92BF92CF92DF92EF92FF920F9387
:101020001F93CF93DF93CDB7DEB72A970FB6F8940F
:10103000DEBF0FBECDBF5C016B018A014901FA0121
:10104000508061807280E380F480B5814680378073
:10105000252D362D472D5E2D6F2D7B2F842D932D25
:10106000A0E00E94401A21F1A1E40E94401A79F107
:10107000F4011082118212821382F801108211820F
:1010800012821382148215821682178210927901BD
:1010900010927A0110927B0110927C0110927E01D5
:1010A00010927D0188E0809378018FEF9FEF35C12A
:1010B0001092790110927A0110927B0110927C01BA
:1010C00010927E0110927D0181E080937801F2E020
:1010D000AF0EB11CC5010E9412027C01C5010E9425
:1010E00076028111F9C0C5010E9456022AE0269FAE
:1010F0003001279F700C11246E0C7F1CE614F7043E
:1011000009F4EEC0B701CE0101960E944F0741E0FD
:1011100050E060E070E0CE0101960E94FC03FC010B
:10112000208130E0F901EE58FF4F8491F901E2553A
:10113000FF4FB490F901E656FF4FA490AA2061F149
:1011400081110E948000EA2DF0E0EE0FFF1FE859A8
:10115000FF4FA591B491EC91BE22F1F043E050E035
:1011600060E070E0CE0101960E94FC03FC01108259
:1011700044E050E060E070E0CE0101960E94FC0384
:10118000FC01108245E050E060E070E0CE01019685
:101190000E94FC03FC01108260E08DE00E94A90027
:1011A00042E050E060E070E0CE0101960E94FC0356
:1011B0004C0140E050E0BA01CE0101960E94FC03D0
:1011C0005C0145E050E060E070E0CE0101960E94D5
:1011D000FC03FC01208141E0F4016081F501808184
:1011E0000E94D70042E050E060E070E0CE0101963E
:1011F0000E94FC034C0140E050E0BA01CE01019690
:101200000E94FC035C0144E050E060E070E0CE012D
:1012100001960E94FC03F4012081F501408161E008
:10122000FC0180810E94470461E08DE00E94A900DA
:1012300060E08DE00E94A90042E050E060E070E0D4
:10124000CE0101960E94FC034C0140E050E0BA013F
:10125000CE0101960E94FC035C0145E050E060E095
:1012600070E0CE0101960E94FC03FC01208141E068
:10127000F4016081F50180810E94D70042E050E0D6
:1012800060E070E0CE0101960E94FC034C0140E05A
:1012900050E0BA01CE0101960E94FC035C0143E0DC
:1012A00050E060E070E0CE0101960E94FC03F40182
:1012B0002081F501408160E0FC0180810E944704AB
:1012C00061E08DE00E94A900CE0109960E94060708
:1012D000FAE0EF0EF11C12CF60E070E0CB0106CF18
:1012E00081E4F801808311821282138214821582B4
:1012F000168217821092790110927A0110927B0166
:1013000010927C0181E490E090937E0180937D01B6
:1013100082E08093780181E090E0F6019183808300
:101320002A960FB6F894DEBF0FBECDBFDF91CF91E6
:101330001F910F91FF90EF90DF90CF90BF90AF90F3
:101340009F908F907F906F905F904F903F90089507
:101350002F923F924F925F926F927F928F929F92C5
:10136000AF92BF92CF92DF92EF92FF920F931F93B3
:10137000CF93DF93CDB7DEB766970FB6F894DEBF95
:101380000FBECDBF1C017E8B6D8B4A013C8B2B8B1E
:10139000FA01D080E180F28003811481B581C6809A
:1013A000B7802D2D3E2D4F2D502F612F7B2F8C2D53
:1013B0009B2DA0E00E94401A31F1A3E50E94401A43
:1013C00009F4BFC0EB89FC8910821182128213825A
:1013D000F401108211821282138214821582168205
:1013E00017821092790110927A0110927B0110926B
:1013F0007C0110927E0110927D0188E0809378013B
:101400008FEF9FEFF1C01092790110927A01109244
:101410007B0110927C0110927E0110927D0181E08F
:1014200080937801F101C4840C2C000CDD08EE08D7
:10143000FF085101F2E0AF0EB11CC5010E94560237
:101440002B013C01C5010E9412028C01C414D50479
:10145000E604F70408F0E5C02AE02C9DC0012D9DAC
:10146000900D1124080F191FB801CE0101960E949A
:101470004F0744E050E060E070E0CE0101960E942A
:10148000FC03FC01808190E001960AE010E0B801C5
:101490000E947E19808344E050E060E070E0CE015D
:1014A00001960E94FC03FC018081811110C043E081
:1014B00050E060E070E0CE0101960E94FC03FC0168
:1014C000808190E00196B8010E947E19808344E0FB
:1014D00050E060E070E0CE0101960E94FC03FC0148
:1014E0008081811110C045E050E060E070E0CE01E5
:1014F00001960E94FC03FC01208130E02F5F3F4FEA
:10150000277033272083CE0109960E9406070E9488
:101510007904A8EEAA2EB3E0BB2EC12CD12CE12C6D
:10152000F12C00E010E00E94BC19DA01C901845DD1
:101530009E4FAF4FBF4FEB89FC8980839183A2837D
:10154000B3830E947904EB89FC89408051806280DA
:10155000738063015201E12CF12C87014B86BC861C
:101560006D86DE86EF86F88A098B1A8BE8EEAE2E42
:10157000F3E0BF2EC12CD12CE12CF12C00E010E0C7
:101580000E94BC1959016A017B018C012B853C85A5
:101590004D855E8560E070E080E090E00E94371A43
:1015A00009F008F43FCF83E5F401808311821282B1
:1015B0001382148215821682178283E590E090933D
:1015C0007E0180937D018CE291E0A0E0B0E0809309
:1015D000790190937A01A0937B01B0937C0184E020
:1015E0008093780181E090E0ED89FE89918380838A
:1015F00066960FB6F894DEBF0FBECDBFDF91CF91D8
:101600001F910F91FF90EF90DF90CF90BF90AF9020
:101610009F908F907F906F905F904F903F902F9012
:101620000895C5010E94760281111ECFC701B6013F
:10163000A30192010E9492192AE0269FA001279FF0
:10164000500D1124040F151F0FCFEF92FF920F932F
:101650001F93CF93DF93DB01ED91FC91309709F459
:101660006DC080819181A281B3810097A105B105F0
:1016700009F464C08B01AC01BD01415051096109FD
:10168000710940835183628373830197A105B1057A
:1016900009F040C0F801C081D1812097B1F188855F
:1016A0009985009791F12A85222379F120FF26C0A0
:1016B0004C815D816E817F81452B462B472BB1F19B
:1016C000FC01329720813181220F331F820F931F3B
:1016D0007C01F2E0EF1AF1082885398528173907CF
:1016E00051F0D701ED91FC910190F081E02DC701FF
:1016F0000995C701EDCFC7010E94FC1A1A86198609
:101700001886188219821A821B82F80180819181C1
:101710000E94FC1AD8011D921C9281E090E0DF919A
:10172000CF911F910F91FF90EF900895DC01ED9103
:10173000FC910280F381E02D0995E0CF8FEF9FEFC0
:10174000EECFEF92FF920F931F93CF93DF9341154C
:10175000510549F48FEF9FEFDF91CF911F910F91CA
:10176000FF90EF9008957A01EB018C0188819981B7
:10177000892BC9F420E030E0A901C8010E94F005DE
:10178000019641F3E881F98182858D7F8287E88126
:10179000F981828581608287E881F981F186E0861E
:1017A00081E090E0D9CFC8010E94250B019619F481
:1017B00019821882CFCF20E030E0A901BE01C80114
:1017C0000E94F0050196F1F6F3CFBC012CE331E065
:1017D000FC0121933193CF01665F7F4F0C94250B61
:1017E000CF93DF93EC010E94E50BCE01DF91CF9107
:1017F0000C94FC1AEF92FF920F931F93CF93DF93F9
:10180000EC017B01BC01685F7F4F0E94250BF70153
:1018100000851185C8010E94260181110EC019871B
:101820000887F80180819181A281B3810196A11D71
:10183000B11D80839183A283B383F701808191815D
:10184000A281B38188839983AA83BB838481958194
:10185000A681B7818C839D83AE83BF83DF91CF91B7
:101860001F910F91FF90EF9008950F931F93CF93C7
:10187000DF93EC018B01188219821A821B821C8271
:101880001D821E821F82198618860E94FA0B1A86F4
:101890001B861C861D861E861F86188A198A1B8A2F
:1018A0001A8ACE0142960E94BD06D8015296ED9149
:1018B000FC913097E1F082858823C9F08081918185
:1018C000A281B381892B8A2B8B2B89F0808591850E
:1018D000892B69F0FB8BEA8B80819181A281B38196
:1018E0000196A11DB11D80839183A283B383F8016A
:1018F00082859385A485B5858A879B87AC87BD87BC
:1019000086859785A089B1898E879F87A88BB98B9B
:10191000DF91CF911F910F910895CF93DF93EC0149
:1019200042960E94BD06BE01685F7F4FCE01DF91E7
:10193000CF910C94250BEF92FF920F931F93CF93AF
:10194000DF93DB01ED91FC91309709F46DC080814C
:101950009181A281B3810097A105B10509F464C00A
:101960008B01AC01BD0141505109610971094083EE
:101970005183628373830197A105B10509F040C0CB
:10198000F801C081D1812097B1F1888599850097B0
:1019900091F12A85222379F120FF26C04C815D81B7
:1019A0006E817F81452B462B472BB1F1FC0132978D
:1019B00020813181220F331F820F931F7C01F2E0BF
:1019C000EF1AF108288539852817390751F0D70112
:1019D000ED91FC910190F081E02DC7010995C701BF
:1019E000EDCFC7010E94FC1A1A8619861886188244
:1019F00019821A821B82F801808191810E94FC1A4F
:101A0000D8011D921C9281E090E0DF91CF911F914F
:101A10000F91FF90EF900895DC01ED91FC91028011
:101A2000F381E02D0995E0CF8FEF9FEFEECFEF929E
:101A3000FF920F931F93CF93DF93EC018B01BC01B7
:101A4000685F7F4F0E949B0CF801E084F184C7011E
:101A50000E942601811105C0F986E886F8011186E9
:101A60001086F80180819181A281B3818883998356
:101A7000AA83BB8384819581A681B7818C839D8352
:101A8000AE83BF83DF91CF911F910F91FF90EF90B5
:101A900008950F931F93CF93DF938B01FC01108266
:101AA0001182128213821482158216821782118685
:101AB0001086BC01685F7F4F0115110531F4DF917D
:101AC000CF911F910F910C949B0CEC0120E030E022
:101AD000A9010E94F005019671F0E885F9858285DB
:101AE0008D7F8287E885F985828581608287E88598
:101AF000F98511870087DF91CF911F910F9108958C
:101B0000EF92FF920F931F93CF93DF93DB01ED9141
:101B1000FC91309709F46AC080819181A281B381E0
:101B20000097A105B10509F461C08B01AC01BD01AD
:101B30004150510961097109408351836283738364
:101B40000197A105B10509F045C0F801C081D18117
:101B50002097D9F1E884F984E114F104B1F18A8580
:101B6000882399F180FF2AC08C819D81AE81BF813D
:101B7000892B8A2B8B2BD9F0F701329780819181A9
:101B80004AE0489F9001499F300D11242E0D3F1DC2
:101B9000488559857901FAE0EF1AF108C9010297E1
:101BA0004217530749F00E9406079701F1CFC7017A
:101BB00008960E940607C7010E94FC1A1A86198619
:101BC0001886188219821A821B82D8018D919C91E5
:101BD0000E94FC1AF8011182108281E090E0DF91EE
:101BE000CF911F910F91FF90EF9008958FEF9FEF8E
:101BF000F6CFBC01685F7F4F0C94800D20E531E08B
:101C0000FC0121933193CF010C94F90DCF93DF9315
:101C1000EC010E94FE0DCE01DF91CF910C94FC1AD5
:101C20002AE531E0FC0121933193CF010C94F90DA9
:101C3000CF93DF93EC010E94100ECE01DF91CF9184
:101C40000C94FC1AEF92FF920F931F93CF93DF93A4
:101C5000EC017B01188219821A821B821C821D8270
:101C60001E821F82198618860E94F90DF7010085D1
:101C70001185C8010E943D0181110EC01987088796
:101C8000F80180819181A281B3810196A11DB11DCE
:101C900080839183A283B383F70180819181A281A4
:101CA000B38188839983AA83BB8384819581A6812C
:101CB000B7818C839D83AE83BF83DF91CF911F91CA
:101CC0000F91FF90EF900895EF92FF920F931F9363
:101CD000CF93DF93DB01ED91FC91309709F470C055
:101CE00080819181A281B3810097A105B10509F49A
:101CF00067C08B01AC01BD014150510961097109F7
:101D000040835183628373830197A105B10509F074
:101D100043C0F801C081D1812097C9F1E884F984DA
:101D2000E114F104A1F18A85882389F180FF28C09C
:101D30008C819D81AE81BF81892B8A2B8B2BC1F138
:101D4000F70132972081318146E1429FC001439FD4
:101D5000900D11248E0D9F1D288539857C01F6E19B
:101D6000EF1AF1082817390741F0BC016E507109CC
:101D7000C7010E949B0CC701EFCF02970E94FC1A7B
:101D80001A8619861886188219821A821B82D8012F
:101D90008D919C910E94FC1AF8011182108281E0C1
:101DA00090E0DF91CF911F910F91FF90EF900895F8
:101DB000B701685F7F4FC7010E949B0CC701DECF50
:101DC0008FEF9FEFEECFBC0126E431E0FC012193C1
:101DD0003193CF01665F7F4F0C94640ECF93DF93F6
:101DE000EC010E94E30ECE01DF91CF910C94FC1A1E
:101DF000EF92FF920F931F93CF93DF93EC017B0140
:101E0000BC01685F7F4F0E94640EF7010085118559
:101E1000C8010E94540181110EC019870887F8017A
:101E200080819181A281B3810196A11DB11D808322
:101E30009183A283B383F70180819181A281B381D1
:101E400088839983AA83BB8384819581A681B78186
:101E50008C839D83AE83BF83DF91CF911F910F91C0
:101E6000FF90EF9008950F931F93CF93DF938B0113
:101E7000FC01108211821282138214821582168252
:101E8000178211861086BC01685F7F4F011511050E
:101E900031F4DF91CF911F910F910C94640EEC01FE
:101EA00020E030E0A9010E94F005019671F0E8857C
:101EB000F98582858D7F8287E885F98582858160B5
:101EC0008287E885F98511870087DF91CF911F917F
:101ED0000F910895AF92BF92CF92DF92EF92FF924F
:101EE0000F931F93CF93DF938C01EB010E9471033B
:101EF000811170C0209709F067C0C8010E94FC02E0
:101F0000EC01EA80FB80CC80DD80C8010E943402B5
:101F1000E114F10419F4FC01D582C482C8010E94C5
:101F20003402C114D10419F4FC01F182E082C80129
:101F30000E9434025C01FC01828193818C179D0711
:101F400071F4C8010E947103811109C0209709F042
:101F50004CC0C8010E94F602F50182839383C1142C
:101F6000D10419F0F601F382E282EA81FB81309715
:101F700011F0D582C48219821882C8010E943402ED
:101F8000FC01468157816085718541505109610985
:101F9000710946835783608771871B821A821D826D
:101FA0001C822097B9F0CE0106960E948D0CCE01BE
:101FB000DF91CF911F910F91FF90EF90DF90CF9025
:101FC000BF90AF900C94FC1ABE01C8010E948C0314
:101FD000811197CFDF91CF911F910F91FF90EF90DB
:101FE000DF90CF90BF90AF900895E114F10409F411
:101FF000B0CFC701B1CFEF92FF920F931F93CF9352
:10200000DF93EC01E884F984C7010E946B018E0123
:10201000085F1F4F811109C0F70180819181A28162
:10202000B3810297A105B10558F4CE010E94710356
:10203000811106C070E060E0CE010E946A0FF5CF0A
:10204000C801DF91CF911F910F91FF90EF900C94F9
:102050007406CF92DF92EF92FF920F931F93CF936C
:10206000DF93DB01ED91FC91309709F46BC0808127
:102070009181A281B3810097A105B10509F462C0E5
:102080008B01AC01BD0141505109610971094083C7
:102090005183628373830197A105B10509F03FC0A5
:1020A000F801C081D1812097A9F1C884D984C114D5
:1020B000D10481F18A85882369F180FF24C08C8155
:1020C0009D81AE81BF81892B8A2B8B2BB1F1F601CB
:1020D0003297808191812AE0289F7001299FF00C1E
:1020E0001124EC0CFD1C970188859985FAE0EF1A04
:1020F000F1088217930721F0C7010E94FB0FF3CF6D
:1021000002970E94FC1A1A8619861886188219826C
:102110001A821B82D8018D919C910E94FC1AF801B1
:102120001182108281E090E0DF91CF911F910F9199
:10213000FF90EF90DF90CF900895C6010E94FB0FB3
:10214000C601DFCF8FEF9FEFEFCFEF92FF920F939C
:102150001F93CF93DF93DB01ED91FC91309709F44E
:1021600070C080819181A281B3810097A105B105E2
:1021700009F467C08B01AC01BD01415051096109EF
:10218000710940835183628373830197A105B1056F
:1021900009F04BC0F801C081D181209709F440C0FB
:1021A000E884F984E114F104D9F18A858823C1F126
:1021B00080FF2FC08C819D81AE81BF81892B8A2BAE
:1021C0008B2BE9F0F7013297808191814FE0489F96
:1021D0009001499F300D11242E0D3F1D48855985D2
:1021E0007901FFE0EF1AF108C9010297421753077E
:1021F00071F0BC0108970E9429109701EFCFB70139
:10220000635F7F4FC70105960E942910C7010E9496
:10221000FC1A1A8619861886188219821A821B825D
:10222000D8018D919C910E94FC1AF80111821082B4
:1022300081E090E0DF91CF911F910F91FF90EF909F
:1022400008958FEF9FEFF6CFCF92DF92EF92FF923C
:102250000F931F93CF93DF938FE090E00E94601A5B
:10226000EC018FE0DE011D928A95E9F76E01B5E081
:10227000CB0ED11C8AE090E00E94601A8C018AE0AB
:1022800090E00E94601A7C018AE0F70111928A9521
:10229000E9F7D8011D921D921D921C921397F80127
:1022A000148215821682178211861086C80108963C
:1022B000E114F104D9F50E9474061D821E821F826A
:1022C000188619861A861B861C861E861D86BE01E8
:1022D000635F7F4F0115110509F043C0C6010E94DD
:1022E0002910109290011092910110929201109277
:1022F0009301109294011092950110929601109200
:1023000097011092990110929801209709F041C00D
:1023100068E971E080E991E0DF91CF911F910F9121
:10232000FF90EF90DF90CF900C94A510BC01C801F6
:102330000E948805019609F2D8011896ED91FC914A
:10234000199782858D7F82871896ED91FC91199758
:102350008285816082871896ED91FC91F186E086F6
:10236000ACCF20E030E0A901C6010E94F005019643
:1023700009F4B7CFED85FE8582858D7F8287ED8557
:10238000FE85828581608287ED85FE8511870087C5
:10239000A8CF20E030E0A90168E971E080E991E090
:1023A0000E94F005019651F0E0919801F091990199
:1023B00082858D7F81608287D187C087DF91CF91B1
:1023C0001F910F91FF90EF90DF90CF90089568E9F3
:1023D00071E080E991E00C94A5106F927F928F924A
:1023E0009F92AF92BF92CF92DF92EF92FF920F93A4
:1023F0001F93CF93DF93CDB7DEB7C055D1090FB68A
:10240000F894DEBF0FBECDBF7C018B0180918801A7
:10241000811105C00E94241181E0809388012B96D0
:102420001CAE1DAE1EAE1FAE2B972F961CAE1DAE62
:102430001EAE1FAE2F9761961FAE1EAE6197B801FC
:10244000CE01895B9F4F0E94F80E80E991E00E94C7
:102450008D023C0121961CAE1DAE1EAE1FAE219713
:1024600025961CAE1DAE1EAE1FAE259727961FAE3D
:102470001EAE2797BE01695B7F4FCE01CD960E94AD
:10248000F80ED7011D921D921D921C921397F70111
:10249000148215821682178211861086B701685F32
:1024A0007F4FC7010E94BC050196C1F0D701189665
:1024B0000D911C911997F801828581FF7EC1C80199
:1024C0000B96918780871896ED91FC910084F18599
:1024D000E02D108212821182148213828CE090E02F
:1024E0000E94601A8C0186E491E0F8019183808358
:1024F0001282138214821582168217821086118628
:1025000013861286BE01635C7F4FC80102960E944B
:10251000F80E1BAA1CAA1DAA1EAA1FAA18AE19AE45
:102520001AAE1CAE1BAE0115110509F056C1BE0155
:10253000655C7F4FCE01C3960E94250BF5E06F0EC0
:10254000711CC3010E940E038C0119A61AA61BA6BA
:102550001CA61DA61EA61FA618AA1AAA19AABE0165
:102560006D5C7F4FCE0189960E94FA0B8CE090E063
:102570000E94601A6C018CE391E0D60111969C9345
:102580008E93F601128213821482158216961D9282
:102590001D921D921C9219971B961C921E921A97BF
:1025A000BE01675D7F4FC60102960E94FA0B1D8A2D
:1025B0001E8A1F8A188E198E1A8E1B8E1C8E1E8ED6
:1025C0001D8EC114D10409F011C1BE01635E7F4F9D
:1025D000CE0145960E94250B1F8E18A219A21AA2A1
:1025E0001BA21CA21DA21EA218A61FA2CE01879686
:1025F0000E94BD06D7011896ED91FC913097E1F04D
:1026000082858823C9F080819181A281B381892B41
:102610008A2B8B2B89F080859185892B69F0F8A70F
:10262000EFA380819181A281B3810196A11DB11D8B
:1026300080839183A283B383F70180819181A281FA
:10264000B3818F8F98A3A9A3BAA384819581A68112
:10265000B7818BA39CA3ADA3BEA3C8010E94F602C1
:102660005C01C8010E947103882309F4C8C0BE013F
:102670006B5E7F4FCE0101960E94350C8AE190E09F
:102680000E94601A6C01DC0111961C921E92139636
:102690001C921E92129715961C921E921497BE01C0
:1026A0006F5F7F4F06960E94350CC8010E9434026E
:1026B000FC01D182C082CE0101960E948D0CC8011E
:1026C0000E943402DC01ED91FC9191838083C8016A
:1026D0000E9434026C01C8010E94F602F601958343
:1026E0008483C8010E943402FC01468157816085C1
:1026F00071854F5F5F4F6F4F7F4F46835783608772
:102700007187CE0145960E948D0CBE016F5C7F4F94
:10271000CE0189960E94250BC3010E940E036C0115
:10272000C7010E9432038C01C6010E94F602F80123
:1027300092838183C7010E94320321E0DC012C9344
:10274000C7010E9432038C01C3010E940E03F801ED
:1027500094838383BE01655C7F4FCE01C3960E9444
:10276000250B6DE370E06C0F7D1F685F7F4FCE011E
:10277000CD960E94640E67E470E06C0F7D1F685F69
:102780007F4FCE01895B9F4F0E94640EC701C05BE3
:10279000DF4F0FB6F894DEBF0FBECDBFDF91CF91F4
:1027A0001F910F91FF90EF90DF90CF90BF90AF906F
:1027B0009F908F907F906F90089585E090E00E94A9
:1027C000601AFC0110821282118214821382D801D5
:1027D00019969C938E93189781CEA801BE01655CD3
:1027E0007F4FCE01C3960E94A10BA8CEA601BE01C9
:1027F000635E7F4FCE0145960E94A10BEDCEB501E1
:10280000C8010E948C03BE016B5E7F4F882309F4D0
:102810004EC0CE0101960E94350C8AE190E00E94E4
:10282000601A6C01DC0111961C921E9213961C9288
:102830001E92129715961C921E921497BE016F5FFE
:102840007F4F06960E94350CCE0101960E948D0C9A
:10285000C8010E943402F60191838083D501149649
:102860008D909C90958284828114910419F0F401DA
:10287000D382C282D50112968D919C91892B31F41D
:10288000C8010E943402FC01B582A482892831F477
:10289000C8010E943402DC01CD92DC92F601B382C1
:1028A000A282D5011596DC92CE9214971ACFCE0152
:1028B00001960E94350C8AE190E00E94601A6C013A
:1028C000FC01118210821382128215821482BE01D1
:1028D0006F5F7F4F06960E94350CCE0101960E94D5
:1028E0008D0CC8010E943402D6018D939C93C801BF
:1028F0000E94FC025C01FC0184819581892B31F4EA
:10290000C8010E943402DC01AD92BC92F6018281C2
:102910009381892B41F4C8010E943402DC01159691
:10292000DC92CE921497F601B582A482D50113965B
:10293000DC92CE921297D5CE1F920F920FB60F92C5
:1029400011242F933F938F939F93AF93BF938091C5
:10295000800190918101A0918201B0918301309119
:102960007F0123E0230F2D3758F50196A11DB11DDE
:1029700020937F018093800190938101A093820135
:10298000B09383018091840190918501A09186018B
:10299000B09187010196A11DB11D80938401909390
:1029A0008501A0938601B0938701BF91AF919F915C
:1029B0008F913F912F910F900FBE0F901F90189500
:1029C00026E8230F0296A11DB11DD2CFCF93DF932E
:1029D000CDB7DEB7CA56D1090FB6F894DEBF0FBE29
:1029E000CDBF789484B5826084BD84B5816084BD98
:1029F00085B5826085BD85B5816085BD80916E009D
:102A0000816080936E0010928100809181008260CD
:102A1000809381008091810081608093810080910A
:102A200080008160809380008091B10084608093F9
:102A3000B1008091B00081608093B00080917A00F5
:102A4000846080937A0080917A00826080937A001B
:102A500080917A00816080937A0080917A0080680A
:102A600080937A001092C1008EE0E6E0F1E0DE0192
:102A7000119601900D928A95E1F7A5961CAE1DAEB8
:102A80001EAE1FAEA597A9961CAE1DAE1EAE1FAE04
:102A9000A997AB961FAE1EAEAB9761E670E06C0FC8
:102AA0007D1F685F7F4F27E030E040E050E0CE01BF
:102AB0008F599F4F0E949207CE018F599F4F0E94BE
:102AC0005603FE0131969C01295F3F4F40813296AB
:102AD000DC014D93CD01A217B307C1F76B961CAE75
:102AE0001DAE1EAE1FAE6B976F961CAE1DAE1EAE1A
:102AF0001FAE6F97A1961FAE1EAEA19767E570E05F
:102B00006C0F7D1F685F7F4F23E030E040E050E0B6
:102B1000CE01895A9F4F0E949207CE01895A9F4F3A
:102B20000E945603FC011CE010838BE081838AE045
:102B30008283E4E1F1E0DE015F96812F01900D9246
:102B40008A95E1F7BE01615E7F4FCE0101960E943A
:102B5000D407E0E2F1E0DE019B96812F01900D9217
:102B60008A95E1F7BE01655D7F4FCE010B960E940D
:102B7000D407ECE2F1E0DE01D79601900D921A95B0
:102B8000E1F7BE01695C7F4FCE0145960E94D407F4
:102B900061961CAE1DAE1EAE1FAE619765961CAE53
:102BA0001DAE1EAE1FAE659767961FAE1EAE679731
:102BB00027961CAE1DAE1EAE1FAE27972B961CAEE1
:102BC0001DAE1EAE1FAE2B972D961FAE1EAE2D97BF
:102BD00063E470E06C0F7D1F685F7F4F23E030E09F
:102BE00040E050E0CE018D5B9F4F0E94F0050196C2
:102BF00061F02D960EAD1FAD2D97F801828581FFF6
:102C00009AC0C8010B9691878087CE01835B9F4F46
:102C10000E94F90D2D960EAD1FAD2D97C8010E9493
:102C20003D01811108C067961FAF0EAF67972D96C3
:102C30001FAE1EAE2D9727968CAD9DADAEADBFAD30
:102C4000279761968CAF9DAFAEAFBFAF61972B96C4
:102C50008CAD9DADAEADBFAD2B9765968CAF9DAFE6
:102C6000AEAFBFAF6597CE018D5B9F4F0E94F90D50
:102C7000CE01835B9F4F0E9412028C015C01FEE13A
:102C8000AF0EB11CCE0101967C01C80108960E94CE
:102C90000607D7011896CD90DC90C6010E948201EC
:102CA00081110FC0F801D186C086F6018081918123
:102CB000A281B3810196A11DB11D80839183A2835E
:102CC000B383F70180819181A281B381F801808370
:102CD0009183A283B383F70184819581A681B78113
:102CE000F80184839583A683B783FAE0EF0EF11C85
:102CF000065F1F4F0A151B0541F6CE014D960E9437
:102D00000607CE0143960E940607CE0109960E944F
:102D10000607CE01895A9F4F0E9456037C01A19657
:102D20000EAD1FADA197C8010E948201882301F159
:102D300030E020E027C080E290E00E94601ADC01D1
:102D400023E030E02D933D93FD01809610821182A7
:102D500012821382148215821682178211861086BF
:102D60003A96E817F90791F7F801B187A0874DCF98
:102D7000D80118962D913C916D968EAD9FAD6D97B3
:102D8000280F391FD7012A173B0731F18D9190E0A9
:102D9000FC01E255FF4F449186569F4FFC01849100
:102DA000882389F390E0880F991FFC01E057FF4FBB
:102DB00065917491FC01EA57FF4F059114919FB7FB
:102DC000F894FB018081409584238083F801808101
:102DD000842380839FBFD7CFCE018F599F4F0E94FE
:102DE00056037C01AB960EAD1FADAB97C8010E9498
:102DF000820130E020E081110AC0D80118962D919F
:102E00003C91A7968EAD9FADA797280F391FD7018C
:102E10002A173B0709F18D9190E0FC01E255FF4F25
:102E2000649186569F4FFC018491882389F390E03A
:102E3000880F991FFC01E057FF4F45915491FC0109
:102E4000EA57FF4F859194918FB7F894FA019081DA
:102E5000962B90838FBFDCCFBE01635B7F4FCE018B
:102E60008B960E94220E86E190E00E94601A8C01EF
:102E7000E6E1FE2EDC01EF2D1D92EA95E9F770E008
:102E800060E00E94490DD8011A961D921D921D9274
:102E90001C921D971E961C921E971F961C921F97A0
:102EA00050961C92509751961C92519752961C9294
:102EB000529753961C92539754961C92549755963A
:102EC0001C92B801CE014F960E94330F8CE090E027
:102ED0000E94601A8C0120E531E0FC0121933193BE
:102EE000CF01BE01655D7F4F0E94220EB801CE0169
:102EF00001960E94490D0FA118A5C8010E94540116
:102F00008111CFC08F8D98A1F89E9001F99E300D50
:102F10001124D80118968D919C91820F931FBE01A8
:102F20006F5F7F4F0E94170DBE01675F7F4FCE011D
:102F300001960E949B0CBE01615E7F4FCE010196FF
:102F40000E94ED11CE0109960E94BD06BE01695D89
:102F50007F4FCE014F960E94640ECE018B960E9449
:102F6000F90DCE01835B9F4F0E94760260E08111D4
:102F700005C0CE01835B9F4F0E94560256E1C52ECD
:102F80007AE5E72E71E0F72EDD24DA94D60E1616D8
:102F90000CF08DC0BE01635B7F4FCE0101960E9495
:102FA000220EDB8686E190E00E94601A8C01FC0113
:102FB0002C2D11922A95E9F770E060E00E94490DEE
:102FC000D8011A961D921D921D921C921D971E9655
:102FD0001C921E971F961C921F9750961C925097FA
:102FE00051961C92519752961C92529753961C924E
:102FF000539754961C92549755961C92B801CE0143
:103000008B960E94330F8DE090E00E94601A8C0135
:10301000FC01E192F192CF01BE016F5F7F4F0E94F0
:10302000220E8B85D8011C968C93B801CE014F9649
:103030000E94490D0BA91CA9C8010E9454018111CD
:1030400033C08BA59CA5C89E9001C99E300D11244C
:10305000F80180859185820F931FBE01615E7F4FCD
:103060000E94170DBE01695D7F4FCE014F960E94F1
:103070009B0CBE01655D7F4FCE014F960E94ED1106
:10308000CE0187960E94BD06BE016D5C7F4FCE01CA
:103090008B960E94640ECE0101960E94F90D6D2D53
:1030A00073CF90E080E03BCF90E080E0D6CFCE01C0
:1030B000835B9F4F0E94F90D87E590E08C0F9D1F69
:1030C00008960E94060781E690E08C0F9D1F0896E7
:1030D0000E94060788248A94982C540144E0242EE8
:1030E0003324339480918801811104C00E942411FB
:1030F0003092880180E991E00E948D028C010B5F83
:103100001F4FC8010E940E037C010E9471038111B0
:103110002CC0C7010E94D603892B39F1C8010E9437
:103120000E030E94D6036C01C8010E940E030E9488
:10313000D603DC0114968D919C9166246A94762CBA
:10314000892B19F066246394712C7601B0E1EB0EA3
:10315000F11CC7010E943203FC01908191FF79C0EC
:10316000C8010E940E030E94A90380E991E00E9419
:103170008D02FC0190819064908380E991E00E942F
:103180008D02FC014181528163817481452B462B64
:10319000472B21F0118212821382148280E991E080
:1031A0000E948D028C0105960E940E037C010E94F4
:1031B000710381110CC0C7010E943402FC01868199
:1031C0009781A085B185892B8A2B8B2BD1F4E09137
:1031D0009801F09199013097A1F08285882389F0B8
:1031E00080819181A281B3810097A105B10549F049
:1031F00020853185232B29F00297A105B10508F020
:1032000062C0D8011196CD90DD90ED90FC9014979E
:103210000E9401012B013C01C114D104E104F1041D
:1032200009F458C00E9401016419750986099709BB
:10323000683E73408105910578F3B1E0CB1AD1085F
:10324000E108F108E8EE4E0EE3E05E1E611C711C21
:10325000E3CF92FF0EC0C8010E940E03B6010E9488
:103260006A0FE0E0F0E0EF2B09F43CCF0E94000091
:1032700039CF92609083C60106960E94B1026C011C
:10328000C8010E940E030E947103811112C0EFEF6A
:10329000CE16DE0691F0CD2861F0C7010E94320300
:1032A000FC0190819D7F9083C8010E940E030E94C3
:1032B000A9036A946728A9F258CFC7010E94320374
:1032C000DC012C92F6CF88EEC82E83E0D82EE12CBC
:1032D000F12C9ECF80E991E00E948D02DC011196D5
:1032E0008D929D92AD92BC92149780E991E00E94DC
:1032F0008D02FC0190819F7B9083B3CF97FB072EBB
:1033000016F4009407D077FD09D00E944C1A07FCF0
:1033100005D03EF4909581959F4F089570956195E5
:103320007F4F0895A1E21A2EAA1BBB1BFD010DC001
:10333000AA1FBB1FEE1FFF1FA217B307E407F50765
:1033400020F0A21BB30BE40BF50B661F771F881F41
:10335000991F1A9469F760957095809590959B01D7
:10336000AC01BD01CF010895EE0FFF1F0590F49150
:10337000E02D0994689401C0E8948F929F92CF93B6
:10338000DF930E94C819DF91CF919F908F9008958D
:1033900088249924F401E401B0E49F93AA279A15A4
:1033A0008B049C04ED05FE05CF05D007A10798F41A
:1033B000AD2FDC2FCF2FFE2FE92D982C892E982FA3
:1033C000872F762F652F542F432F322F2227B85067
:1033D00031F7BF9127C01B2EBF91BB27220F331F90
:1033E000441F551F661F771F881F991F881C991C33
:1033F000EE1FFF1FCC1FDD1FAA1FBB1F8A149B04DB
:10340000EC05FD05CE05DF05A007B10748F08A18D9
:103410009B08EC09FD09CE09DF09A00BB10B216067
:103420001A94E1F62EF49401AF01BE01CD01000C17
:1034300008952A0D3B1D4C1D5D1D6E1D7F1D801FB7
:10344000911F08950024A7FD00942A0F301D401DF0
:10345000501D601D701D801D901D08952A193B0987
:103460004C095D096E097F09800B910B08952A159F
:103470003B054C055D056E057F05800791070895A6
:103480000024A7FD00942A1730054005500560056B
:103490007005800590050895AA1BBB1B51E107C06C
:1034A000AA1FBB1FA617B70710F0A61BB70B881FD4
:1034B000991F5A95A9F780959095BC01CD01089563
:1034C0000F931F93CF93DF938230910510F482E026
:1034D00090E0E0919C01F0919D0130E020E0B0E0AF
:1034E000A0E0309799F42115310509F44AC0281B52
:1034F000390B24303105D8F58A819B81611571051E
:1035000089F1FB0193838283FE0111C040815181C7
:103510000281138148175907E0F04817590799F4B9
:10352000109761F012960C93129713961C93329693
:10353000CF01DF91CF911F910F91089500939C01CE
:1035400010939D01F4CF2115310551F04217530717
:1035500038F0A901DB019A01BD01DF01F801C1CFFB
:10356000EF01F9CF90939D0180939C01CDCFFE0197
:10357000E20FF31F819391932250310939832883FD
:10358000D7CF20919A0130919B01232B41F42091B8
:1035900002013091030130939B0120939A01209105
:1035A0000001309101012115310541F42DB73EB7DD
:1035B0004091040150910501241B350BE0919A01C3
:1035C000F0919B01E217F307A0F42E1B3F0B281785
:1035D000390778F0AC014E5F5F4F2417350748F08C
:1035E0004E0F5F1F50939B0140939A0181939193DB
:1035F0009FCFF0E0E0E09CCFCF93DF930097E9F01E
:10360000FC01329713821282A0919C01B0919D011E
:10361000ED0130E020E01097A1F420813181820F8C
:10362000931F20919A0130919B012817390709F0C7
:1036300061C0F0939B01E0939A01DF91CF910895CF
:10364000EA01CE17DF07E8F54A815B819E0141154B
:103650005105B1F7E901FB83EA8349915991C40F00
:10366000D51FEC17FD0761F4808191810296840FCC
:10367000951FE90199838883828193819B838A8343
:10368000F0E0E0E012968D919C9113970097B9F5C8
:103690002D913C911197CD010296820F931F20919D
:1036A0009A0130919B012817390739F6309751F567
:1036B00010929D0110929C01B0939B01A0939A01DE
:1036C000BCCFD383C28340815181840F951FC8171B
:1036D000D90761F44E5F5F4F88819981480F591F68
:1036E000518340838A819B81938382832115310595
:1036F00009F0B0CFF0939D01E0939C019ECFFD01B6
:0E370000DC01C0CF13821282D7CFF894FFCF26
:10370E0000009E01200008000700060004000300D0
:10371E0002000D0008000C00040000000000000074
:10372E0007000B00030000000000000006000A0066
:10373E00020000000000000000000000E50BF00B8E
:10374E00EB0200000000E30EEE0EB00100000000E0
:10375E00FE0D060E020800000000100E180EA8093D
:107E0000112484B714BE81FFFDD085E080938100EA
:107E100082E08093C00088E18093C10096E0909357
:107E2000C20090E19093C400809360008EE0809344
:107E30006000259A86E020E33CEF91E030938500D6
:107E40002093840096BBB09BFECF1D9AA8958150CD
:107E5000A9F7C0E0D0E008E138E0F32EEE24E39487
:107E600045E0B42E51E1A52E13E0A7D0813491F462
:107E7000A4D0D82EAED082E8D81203C084E096D029
:107E800092C0E1E8DE1203C084E090D08CC083E0B1
:107E90008DD089C0823419F484E1A7D084C08534A0
:107EA00019F485E0A2D07FC0853549F486D0C82F6B
:107EB00084D0D0E0D82BCC0FDD1F8BD074C086359A
:107EC00029F484E092D080E071D06DC0843609F04E
:107ED0003FC073D072D0982E70D0C115F0E7DF0785
:107EE00038F4FE0117BFE895C12CDD24D39403C0FC
:107EF000C12CDD24D39461D0F60181936F019E12D1
:107F0000FACFC115F0E7DF0718F0FE0117BFE895BB
:107F100060D007B600FCFDCFFE01A0E0B1E08C917F
:107F200011962C91119790E0922B0C01E7BEE895E9
:107F3000112432961296A03881E0B80781F7FE012D
:107F4000B7BEE89507B600FCFDCFA7BEE8952BC0ED
:107F50008437B1F432D031D0982E2FD03AD0892C3A
:107F6000FE016F018FEFC81AD80A84911FD08A943E
:107F7000F6018110F6CF21969A94C90DD11D13C038
:107F8000853741F426D08EE111D085E90FD08FE0FE
:107F90000DD009C0813531F400936000F09260008B
:107FA00018D001C016D080E101D05FCF9091C00001
:107FB00095FFFCCF8093C60008958091C00087FF95
:107FC000FCCF8091C00084FD01C0A8958091C600BF
:107FD0000895F3DF803239F088E18093600088E013
:107FE00080936000FFCF84E1E1CFCF93C82FE5DF1E
:107FF000C150E9F7CF91EDCFE0E6F0E098E1908352
:1080000080830895E0E6F0E088E180831082EE2727
:04801000FF270994A9
:027FFE00040479
:0400000300007E007B
:00000001FF
