:100000000C945C000C9479000C9479000C947900A9
:100010000C9479000C9479000C9479000C9479007C
:100020000C9479000C9479000C9479000C9479006C
:100030000C9479000C9479000C9479000C9479005C
:100040000C94A5150C9479000C9479000C9479000B
:100050000C9479000C9479000C9479000C9479003C
:100060000C9479000C947900000000080002010053
:100070000003040700000000000000000000000072
:10008000250028002B0000000000240027002A0083
:10009000040404040404040402020202020203032E
:1000A0000303030301020408102040800102040836
:1000B000102001020408102011241FBECFEFD8E049
:1000C000DEBFCDBF11E0A0E0B1E0ECE8FAE302C092
:1000D00005900D92AA35B107D9F721E0AAE5B1E064
:1000E00001C01D92A839B207E1F70E94EF150C94E8
:1000F000441D0C94000090E0FC01E859FF4F24914E
:10010000FC01EC55FF4F3491FC01E057FF4FE491A7
:10011000EE23C9F0222339F0233001F1A8F4213075
:1001200019F1223029F1F0E0EE0FFF1FE458FF4FE4
:10013000A591B4918FB7F894EC91611126C03095D8
:100140003E233C938FBF08952730A9F02830C9F093
:10015000243049F7809180008F7D03C0809180001A
:100160008F7780938000DFCF84B58F7784BDDBCF1E
:1001700084B58F7DFBCF8091B0008F778093B000E6
:10018000D2CF8091B0008F7DF9CF3E2BDACF3FB731
:10019000F89480917E0190917F01A0918001B091AF
:1001A000810126B5A89B05C02F3F19F00196A11D1E
:1001B000B11D3FBFBA2FA92F982F8827BC01CD01B1
:1001C000620F711D811D911D42E0660F771F881F10
:1001D000991F4A95D1F70895FC01892B91F08285EA
:1001E000882379F080819181A281B381892B8A2B28
:1001F0008B2B39F081E020853185232B19F080E0AD
:10020000089581E00895FC01892B91F0828588236F
:1002100079F080819181A281B381892B8A2B8B2BEC
:1002200039F081E020853185232B19F080E0089595
:1002300081E00895FC01892B91F08285882379F073
:1002400080819181A281B381892B8A2B8B2B39F0FC
:1002500081E020853185232B19F080E0089581E02D
:100260000895FC01892B91F08285882379F08081A3
:100270009181A281B381892B8A2B8B2B39F081E06C
:1002800020853185232B19F080E0089581E00895C1
:10029000FC01892B91F08285882379F080819181FE
:1002A000A281B381892B8A2B8B2B39F081E02085A9
:1002B0003185232B19F080E0089581E00895CF93D4
:1002C000DF93FC01C085D185CE010E94EC00811135
:1002D00009C081E0488159816A817B81452B462B89
:1002E000472B09F480E0DF91CF910895CF92DF9200
:1002F000EF92FF920F931F93CF93DF9300D0CDB770
:10030000DEB78C017B01DC011A96CD90DC90C60132
:100310000E941A01811146C0F8018281938126E171
:10032000289FA001299F500D1124D60118960D91E8
:100330001C91040F151FC8010E945F01882311F151
:10034000F801C084D184C6010E94EC0081112DC047
:10035000D8012D913C91220F331FF60180859185A4
:10036000820F931F9801265F3F4FA801425F5F4FA6
:10037000DC01ED91FC910480F581E02DBE016F5F01
:100380007F4F099589819A81F701918380830F902E
:100390000F90DF91CF911F910F91FF90EF90DF9021
:1003A000CF90089510E000E0C6CF90E080E0DACF73
:1003B0000F931F93CF93DF938C01FC01C085D185F0
:1003C000CE010E940301811112C0F8018081918148
:1003D0004AE0489F9001499F300D112488859985F6
:1003E000820F931FDF91CF911F910F91089590E09D
:1003F00080E0F8CF0F931F93CF93DF938C01FC0124
:10040000C085D185CE010E943101811112C0F80151
:10041000808191814AE0489F9001499F300D1124CD
:1004200088859985820F931FDF91CF911F910F913E
:10043000089590E080E0F8CF0F931F93CF93DF9360
:10044000EC0108851985C8010E94480181110CC082
:10045000F8018085918528813981820F931FDF9172
:10046000CF911F910F91089590E080E0F8CF0F9306
:100470001F93CF93DF93EC01888599850E94030138
:10048000811111C06C817D818E819F8108811981CC
:100490002A813B81601B710B820B930BDF91CF9103
:1004A0001F910F91089560E070E0CB01F7CFCF93DB
:1004B000DF93EC01888599850E940301282F811123
:1004C00009C0CE010E94370221E0672B682B692BFF
:1004D00009F020E0822FDF91CF9108958F929F92B3
:1004E000AF92BF92CF92DF92EF92FF920F931F9342
:1004F000CF93DF938C016A017B010E9437024B018D
:100500005C01C8010E94D801EC01C814D904EA04B6
:10051000FB04B0F42AE02C9DC0012D9D900D112408
:10052000C80FD91FCE01DF91CF911F910F91FF907E
:10053000EF90DF90CF90BF90AF909F908F900895F5
:10054000C8010E9457028111EDCFC701B601A50174
:1005500094010E94341B2AE0269FA001279F500D82
:100560001124C40FD51FDECFDC011896ED91FC914C
:1005700019973097B1F08285882399F04081518195
:1005800062817381452B462B472B59F080859185DD
:10059000009749F02D913C91220F331F820F931F3A
:1005A000089590E080E00895DC011896ED91FC91AB
:1005B00019973097D1F082858823B9F04081518115
:1005C00062817381452B462B472B79F0808591857D
:1005D000009769F04D915C916FE0649F9001659F79
:1005E000300D1124820F931F089590E080E008954C
:1005F000EF92FF920F931F93CF93DF9300D0CDB76D
:10060000DEB78C010E945F018823F1F0D8011896B3
:10061000ED90FC90C7010E94EC00811120C0F80110
:1006200020813181220F331FD70118968D919C9123
:10063000820F931FDC01ED91FC910480F581E02D88
:10064000BE016F5F7F4F099589819A810F900F904E
:10065000DF91CF911F910F91FF90EF90089590E05F
:1006600080E0E8CFCF93DF93EB0102960E94F8027F
:1006700099838883DF91CF9108950E94FA01FC014C
:10068000808191810895CF93DF93EC010E94FA015C
:10069000FC0184819581009729F4CE01DF91CF91EF
:1006A0000C943D03DF91CF910895DC011896ED91F4
:1006B000FC9119973097D1F082858823B9F0408159
:1006C000518162817381452B462B472B79F08085C0
:1006D0009185009769F04D915C916AE0649F90016B
:1006E000659F300D1124820F931F089590E080E0E4
:1006F0000895DC011896ED91FC9119973097D1F08F
:1007000082858823B9F04081518162817381452BB4
:10071000462B472B79F080859185009769F04D91A4
:100720005C9166E0649F9001659F300D1124820FFB
:10073000931F089590E080E008958F929F92AF926A
:10074000BF92CF92DF92EF92FF920F931F93CF93BE
:10075000DF938C016A017B01FC01808591850E94F9
:100760004801B82EC8010E941C02EC01B11016C04D
:10077000F80184809580A680B78080819181A281D4
:10078000B381A5019401281B390B4A0B5B0BC216E0
:10079000D306E406F50680F4CC0DDD1DCE01DF9115
:1007A000CF911F910F91FF90EF90DF90CF90BF906E
:1007B000AF909F908F90089588169906AA06BB0661
:1007C00069F3C701B6010E94341BC60FD71FE6CFDD
:1007D000CF93DF93EC010E945702811105C0CE0137
:1007E000DF91CF910C94370260E070E0CB01DF9194
:1007F000CF910895CF93DF93EC01888599850E946E
:10080000310181110DC0CE010E94FA0121E0FC01ED
:1008100086819781A085B185892B8A2B8B2B09F046
:1008200020E0822FDF91CF9108950F931F93CF93F4
:10083000DF93EC010E94FA03811121C0CE010E94D6
:10084000FA018C01DC011296ED91FC91309791F444
:10085000CE010E943D03F80193838283CE010E9462
:10086000FA01DC0112968D919C91DF91CF911F913D
:100870000F91089582819381009769F7E9CF90E005
:1008800080E0F3CF0F931F93CF93DF93EC010E948F
:10089000FA0381111AC0CE010E94FA018C01FC01F9
:1008A00082819381892B31F4CE010E943D03F801AE
:1008B00093838283CE010E94FA01FC01828193819D
:1008C000DF91CF911F910F91089590E080E0F8CFD4
:1008D0002F923F924F925F926F927F928F929F9250
:1008E000AF92BF92CF92DF92EF92FF920F931F933E
:1008F000CF93DF93CDB7DEB72C970FB6F894DEBF5A
:100900000FBECDBF80916A01811117C00E94C70040
:100910007B018C0160936201F0926301809364011A
:1009200010936501109266011092670110926801A0
:100930001092690181E080936A010E94C7007B01E7
:100940008C016983FA828B831C8370906201809092
:10095000630190906401F0906501FC86009166014E
:100960000B87B0916701F0916801E09169012090D7
:100970005A0130905B0140905C0150905D016090A5
:100980005E01A0915F0110916001198720916101C2
:100990002A87272D382D492D5F2D602F7B2F8F2FF4
:1009A0009E2FAE2CBA80CB80DC80E12CF12C00E0B5
:1009B00010E00E94F61B09F008F466C09101A20144
:1009C000662D7A2F89859A85AFEF0E94E11BA72CAF
:1009D000B82CC92CDC84EB84FB2E0F2F1E2F0E9419
:1009E000ED1BA980BA80CB80DC80E12CF12C00E0EB
:1009F00010E00E94D81B20935A0130935B01409372
:100A00005C0150935D0160935E0170935F01809380
:100A1000600190936101A0926201B0926301C09263
:100A20006401D092650110926601109267011092E4
:100A300068011092690120915A0130915B01409147
:100A40005C0150915D0160915E0170915F01809148
:100A50006001909161012C960FB6F894DEBF0FBE35
:100A6000CDBFDF91CF911F910F91FF90EF90DF905D
:100A7000CF90BF90AF909F908F907F906F905F903E
:100A80004F903F902F9008959101A201662D7A2FEB
:100A900089859A85A72CB82CC92CDC84EB84FB2E85
:100AA0000F2F1E2F0E94ED1BA980BA80CB80DC8007
:100AB000E12CF12C00E010E00E94D81B20935A0199
:100AC00030935B0140935C0150935D0160935E0144
:100AD00070935F018093600190936101A092620125
:100AE000B0926301C0926401D09265019CCF0F93D4
:100AF0001F93CF93DF93DB012D913C91232B41F585
:100B00008B01EC018CE090E00E941F1CFC018CE04A
:100B1000DF011D928A95E9F7D801ED93FC931882C5
:100B200019821A821B821C821D821E821F8281E012
:100B300090E0A0E0B0E080839183A283B38385E05E
:100B4000828781E090E0DF91CF911F910F9108950E
:100B50008FEF9FEFF8CF0F931F93CF93DF93DB01BE
:100B60002D913C91232B41F58B01EC018CE090E021
:100B70000E941F1CFC018CE0DF011D928A95E9F7A1
:100B8000D801ED93FC93188219821A821B821C8271
:100B90001D821E821F8281E090E0A0E0B0E0808391
:100BA0009183A283B38385E0828781E090E0DF9127
:100BB000CF911F910F9108958FEF9FEFF8CF0F9373
:100BC0001F93CF93DF93DB012D913C91232B41F5B4
:100BD0008B01EC018CE090E00E941F1CFC018CE07A
:100BE000DF011D928A95E9F7D801ED93FC931882F5
:100BF00019821A821B821C821D821E821F8281E042
:100C000090E0A0E0B0E080839183A283B38385E08D
:100C1000828781E090E0DF91CF911F910F9108953D
:100C20008FEF9FEFF8CFCF92DF92EF92FF920F936B
:100C30001F93CF93DF93DB01ED91FC91EF2B91F5A7
:100C400069017A018B01EC018CE090E00E941F1C8D
:100C5000FC018CE0DF011D928A95E9F7D801ED9344
:100C6000FC93188219821A821B82CC82DD82EE826A
:100C7000FF8281E090E0A0E0B0E080839183A283D6
:100C8000B383C482D582E682F78285E0828781E0E1
:100C900090E0DF91CF911F910F91FF90EF90DF9047
:100CA000CF9008958FEF9FEFF4CFCF92DF92EF9226
:100CB000FF920F931F93CF93DF93DB01ED91FC9194
:100CC000EF2B91F569017A018B01EC018CE090E04A
:100CD0000E941F1CFC018CE0DF011D928A95E9F740
:100CE000D801ED93FC93188219821A821B82CC8260
:100CF000DD82EE82FF8281E090E0A0E0B0E08083C0
:100D00009183A283B383C482D582E682F78285E091
:100D1000828781E090E0DF91CF911F910F91FF904A
:100D2000EF90DF90CF9008958FEF9FEFF4CF2F9249
:100D30003F924F925F926F927F928F929F92AF926B
:100D4000BF92CF92DF92EF92FF920F931F93CF93B8
:100D5000DF9300D000D0CDB7DEB71C017C836B835E
:100D60008A016901FA019080A180B280E380F48059
:100D7000B58186807780292D3A2D4B2D5E2D6F2DE4
:100D80007B2F882D972DA0E00E94FF1B21F1A0E36F
:100D90000E94FF1B79F1F6011082118212821382E8
:100DA000F801108211821282138214821582168237
:100DB00017821092730110927401109275011092B3
:100DC0007601109278011092770188E08093720189
:100DD0008FEF9FEFD4C010927301109274011092A4
:100DE000750110927601109278011092770181E0DE
:100DF000809372017101F2E0EF0EF11CC7010E94B5
:100E0000B402FC0120813181246239643183208362
:100E1000FCE02F0E311CC1010E94E8032B013C01B4
:100E20005301420181E0881A9108A108B1089FEF9F
:100E300089169906A906B90609F451C0B501A4019D
:100E4000C1010E946E026C0143E050E060E070E07E
:100E50000E949D03FC0180818230F1F542E050E068
:100E600060E070E0C6010E949D036C01C7010E9412
:100E7000B402F601208141E050E002C0440F551F4A
:100E80002A95E2F740955095FC0120813181242379
:100E9000352331832083B301A201C1010E946E0278
:100EA00042E050E060E070E00E949D036C01C701E9
:100EB0000E94B402F601208141E050E002C0440FDC
:100EC000551F2A95E2F740955095FC01208131810C
:100ED000242335233183208324013501A1CF60E011
:100EE0008BE00E947B00C7010E94B402FC0180815C
:100EF00091819A8389837E01F3E0EF0EF11CCE018C
:100F000001965C01EA14FB04C9F0F701C2907F016D
:100F100088E0D82E6C2D661F6627661F8CE00E9425
:100F20007B00CC0C61E08AE00E947B0060E08AE0FC
:100F30000E947B00DA94D110EDCFE4CF61E08BE02A
:100F40000E947B0080E3F801808311821282138269
:100F50001482158216821782109273011092740106
:100F6000109275011092760180E390E090937801E1
:100F70008093770182E08093720181E090E0EB81C1
:100F8000FC81918380830F900F900F900F90DF91E1
:100F9000CF911F910F91FF90EF90DF90CF90BF9076
:100FA000AF909F908F907F906F905F904F903F9009
:100FB0002F9008950F931F93CF93DF93DC01ED9152
:100FC000FC913097E9F14081518162817381411533
:100FD000510561057105A1F18C01DB01CA01019781
:100FE000A109B10980839183A283B3834130510564
:100FF00061057105D9F4F801C081D181209789F08C
:1010000088859985009769F02A85222351F020FD73
:101010000E94BB1C1A8619861886188219821A82A9
:101020001B82D8018D919C910E94BB1CF8011182FA
:10103000108281E090E0DF91CF911F910F91089590
:101040008FEF9FEFF8CF0F931F93CF93DF93DC01C8
:10105000ED91FC913097E9F140815181628173817A
:101060004115510561057105A1F18C01DB01CA0132
:101070000197A109B10980839183A283B383413091
:10108000510561057105D9F4F801C081D18120971E
:1010900089F088859985009769F02A85222351F087
:1010A00020FD0E94BB1C1A86198618861882198298
:1010B0001A821B82D8018D919C910E94BB1CF80161
:1010C0001182108281E090E0DF91CF911F910F910A
:1010D00008958FEF9FEFF8CF0F931F93CF93DF9378
:1010E000EC018B01188219821A821B821C821D82DC
:1010F0001E821F821986188608960E942308D8012E
:101100001896ED91FC913097E1F082858823C9F023
:1011100080819181A281B381892B8A2B8B2B89F0CD
:1011200080859185892B69F0F987E8878081918195
:10113000A281B3810196A11DB11D80839183A283F9
:10114000B383F80180819181A281B38188839983DF
:10115000AA83BB8384819581A681B7818C839D837B
:10116000AE83BF83DF91CF911F910F9108950F93AD
:101170001F93CF93DF93DC01ED91FC913097E9F160
:10118000408151816281738141155105610571056D
:10119000A1F18C01DB01CA010197A109B10980838A
:1011A0009183A283B3834130510561057105D9F460
:1011B000F801C081D181209789F0888599850097B1
:1011C00069F02A85222351F020FD0E94BB1C1A865B
:1011D00019861886188219821A821B82D8018D916D
:1011E0009C910E94BB1CF8011182108281E090E06A
:1011F000DF91CF911F910F9108958FEF9FEFF8CF5F
:101200000F931F93CF93DF93DC01ED91FC91309707
:10121000E9F1408151816281738141155105610578
:101220007105A1F18C01DB01CA010197A109B10986
:1012300080839183A283B383413051056105710599
:10124000D9F4F801C081D181209789F088859985EA
:10125000009769F02A85222351F020FD0E94BB1CD3
:101260001A8619861886188219821A821B82D8015A
:101270008D919C910E94BB1CF8011182108281E02B
:1012800090E0DF91CF911F910F9108958FEF9FEF25
:10129000F8CFEF92FF920F931F93CF93DF93EC0160
:1012A0007B01188219821A821B821C821D821E8277
:1012B0001F821986188608960E940009F70100858A
:1012C0001185C8010E94480181110EC01987088745
:1012D000F80180819181A281B3810196A11DB11D88
:1012E00080839183A283B383F70180819181A2815E
:1012F000B38188839983AA83BB8384819581A681E6
:10130000B7818C839D83AE83BF83DF91CF911F9183
:101310000F91FF90EF900895CF92DF92EF92FF929E
:101320000F931F93CF93DF93DB01ED91FC91EF2B94
:1013300051F4DF91CF911F910F91FF90EF90DF90CB
:10134000CF900C94550669017A01EB018C01CB0119
:101350000E940009019669F4198218828FEF9FEFAD
:10136000DF91CF911F910F91FF90EF90DF90CF9081
:101370000895A7019601BE01C8010E945506019675
:1013800059F381E090E0ECCFEF92FF920F931F931F
:10139000CF93DF93EC017B01188219821A821B82A2
:1013A0001C821D821E821F8219861886BC01685FFE
:1013B0007F4F24E030E040E050E00E948C0901962D
:1013C00071F008851985D8011A968C911A9781FFBA
:1013D00016C0C8010B9619969C938E931897CE0150
:1013E0000E941C02F701AC014C5F5F4F8417950708
:1013F00071F020813296DC012D93CD01F7CF84E08E
:1014000090E00E941F1CF80191878087E8CFDF9150
:10141000CF911F910F91FF90EF900895EF92FF925F
:101420000F931F93CF93DF93DB01ED91FC913097E6
:1014300009F46DC080819181A281B3810097A105DB
:10144000B10509F464C08B01AC01BD0141505109E3
:101450006109710940835183628373830197A105F8
:10146000B10509F040C0F801C081D1812097B1F1E8
:1014700088859985009791F12A85222379F120FFAB
:1014800026C04C815D816E817F81452B462B472B89
:10149000B1F1FC01329720813181220F331F820F7D
:1014A000931F7C01F2E0EF1AF1082885398528178F
:1014B000390751F0D701ED91FC910190F081E02DB9
:1014C000C7010995C701EDCFC7010E94BB1C1A8651
:1014D00019861886188219821A821B82F801808167
:1014E00091810E94BB1CD8011D921C9281E090E06A
:1014F000DF91CF911F910F91FF90EF900895DC0144
:10150000ED91FC910280F381E02D0995E0CF8FEF02
:101510009FEFEECFEF92FF920F931F93CF93DF9346
:101520004115510549F48FEF9FEFDF91CF911F9146
:101530000F91FF90EF9008957A01EB018C01888163
:101540009981892BC9F420E030E0A901C8010E94EB
:101550001306019641F3E881F98182858D7F8287A8
:10156000E881F981828581608287E881F981F1864D
:10157000E08681E090E0D9CFC8010E940E0A019672
:1015800019F419821882CFCF20E030E0A901BE0102
:10159000C8010E9413060196F1F6F3CFBC0126E3C1
:1015A00031E0FC0121933193CF01665F7F4F0C94B2
:1015B0000E0ACF93DF93EC010E94CE0ACE01DF9199
:1015C000CF910C94BB1CEF92FF920F931F93CF937C
:1015D000DF93EC017B01BC01685F7F4F0E940E0A24
:1015E000F70100851185C8010E94EC0081110EC031
:1015F00019870887F80180819181A281B3810196C2
:10160000A11DB11D80839183A283B383F7018081E3
:101610009181A281B38188839983AA83BB838481CA
:101620009581A681B7818C839D83AE83BF83DF9133
:10163000CF911F910F91FF90EF9008950F931F93FB
:10164000CF93DF93EC018B01188219821A821B82DF
:101650001C821D821E821F82198618860E94E30A40
:101660001A861B861C861D861E861F86188A198A66
:101670001B8A1A8ACE0142960E94B708D801529658
:10168000ED91FC913097E1F082858823C9F080814B
:101690009181A281B381892B8A2B8B2B89F0808544
:1016A0009185892B69F0FB8BEA8B80819181A281E6
:1016B000B3810196A11DB11D80839183A283B38361
:1016C000F80182859385A485B5858A879B87AC8739
:1016D000BD8786859785A089B1898E879F87A88BCE
:1016E000B98BDF91CF911F910F910895CF93DF9325
:1016F000EC0142960E94B708BE01685F7F4FCE01A1
:10170000DF91CF910C940E0AEF92FF920F931F93EB
:10171000CF93DF93DB01ED91FC91309709F46DC01D
:1017200080819181A281B3810097A105B10509F45F
:1017300064C08B01AC01BD014150510961097109BF
:1017400040835183628373830197A105B10509F03A
:1017500040C0F801C081D1812097B1F18885998579
:10176000009791F12A85222379F120FF26C04C8130
:101770005D816E817F81452B462B472BB1F1FC01AA
:10178000329720813181220F331F820F931F7C01FA
:10179000F2E0EF1AF108288539852817390751F04A
:1017A000D701ED91FC910190F081E02DC7010995E1
:1017B000C701EDCFC7010E94BB1C1A861986188687
:1017C000188219821A821B82F801808191810E94FD
:1017D000BB1CD8011D921C9281E090E0DF91CF915B
:1017E0001F910F91FF90EF900895DC01ED91FC9116
:1017F0000280F381E02D0995E0CF8FEF9FEFEECFD0
:10180000EF92FF920F931F93CF93DF93EC018B0125
:10181000BC01685F7F4F0E94840BF801E084F18473
:10182000C7010E94EC00811105C0F986E886F80125
:1018300011861086F80180819181A281B38188830D
:101840009983AA83BB8384819581A681B7818C8388
:101850009D83AE83BF83DF91CF911F910F91FF9046
:10186000EF9008950F931F93CF93DF938B01FC01AB
:1018700010821182128213821482158216821782BC
:1018800011861086BC01685F7F4F0115110531F488
:10189000DF91CF911F910F910C94840BEC0120E00C
:1018A00030E0A9010E941306019671F0E885F985E0
:1018B00082858D7F8287E885F98582858160828730
:1018C000E885F98511870087DF91CF911F910F91EE
:1018D0000895EF92FF920F931F93CF93DF93DB0155
:1018E000ED91FC91309709F46AC080819181A281C9
:1018F000B3810097A105B10509F461C08B01AC016A
:10190000BD014150510961097109408351836283CE
:1019100073830197A105B10509F045C0F801C081A5
:10192000D1812097D9F1E884F984E114F104B1F16F
:101930008A85882399F180FF2AC08C819D81AE81A0
:10194000BF81892B8A2B8B2BD9F0F70132978081AD
:1019500091814AE0489F9001499F300D11242E0D3E
:101960003F1D488559857901FAE0EF1AF108C90150
:1019700002974217530749F00E9400099701F1CFDF
:10198000C70108960E940009C7010E94BB1C1A8665
:1019900019861886188219821A821B82D8018D91A5
:1019A0009C910E94BB1CF8011182108281E090E0A2
:1019B000DF91CF911F910F91FF90EF9008958FEFDE
:1019C0009FEFF6CFCF93DF93EC018AE491E0998308
:1019D0008883BE016C5E7F4FCE010C960E94690C1D
:1019E000CE010A96DF91CF910C942308CF93DF9319
:1019F000EC010E94E20CCE01DF91CF910C94BB1C54
:101A0000CF93DF93EC0184E591E099838883CE0145
:101A100048960E942308BE01625F7F4FCE01069662
:101A2000DF91CF910C94690CCF93DF93EC010E946E
:101A3000000DCE01DF91CF910C94BB1CEF92FF9271
:101A40000F931F93CF93DF93EC017B0118821982D0
:101A50001A821B821C821D821E821F821986188692
:101A6000BC01685F7F4F0E94690CF70100851185FA
:101A7000C8010E94030181110EC019870887F8016F
:101A800080819181A281B3810196A11DB11D8083C6
:101A90009183A283B383F70180819181A281B38175
:101AA00088839983AA83BB8384819581A681B7812A
:101AB0008C839D83AE83BF83DF91CF911F910F9164
:101AC000FF90EF900895EF92FF920F931F93CF93A3
:101AD000DF93DB01ED91FC91309709F470C08081B8
:101AE0009181A281B3810097A105B10509F467C076
:101AF0008B01AC01BD01415051096109710940835D
:101B00005183628373830197A105B10509F043C036
:101B1000F801C081D1812097C9F1E884F984E114EA
:101B2000F104A1F18A85882389F180FF28C08C8186
:101B30009D81AE81BF81892B8A2B8B2BC1F1F7014F
:101B400032972081318146E1429FC001439F900D31
:101B500011248E0D9F1D288539857C01F6E1EF1A31
:101B6000F1082817390741F0BC016E507109C7010F
:101B70000E94840BC701EFCF02970E94BB1C1A86FC
:101B800019861886188219821A821B82D8018D91B3
:101B90009C910E94BB1CF8011182108281E090E0B0
:101BA000DF91CF911F910F91FF90EF900895B701B2
:101BB000685F7F4FC7010E94840BC701DECF8FEFA4
:101BC0009FEFEECFBC0120E431E0FC012193319383
:101BD000CF01665F7F4F0C94630DCF93DF93EC01D1
:101BE0000E94E20DCE01DF91CF910C94BB1CEF92CD
:101BF000FF920F931F93CF93DF93EC017B01BC0106
:101C0000685F7F4F0E94630DF70100851185C80151
:101C10000E941A0181110EC019870887F80180817E
:101C20009181A281B3810196A11DB11D8083918311
:101C3000A283B383F70180819181A281B3818883DC
:101C40009983AA83BB8384819581A681B7818C8384
:101C50009D83AE83BF83DF91CF911F910F91FF9042
:101C6000EF9008950F931F93CF93DF938B01FC01A7
:101C700010821182128213821482158216821782B8
:101C800011861086BC01685F7F4F0115110531F484
:101C9000DF91CF911F910F910C94630DEC0120E027
:101CA00030E0A9010E941306019671F0E885F985DC
:101CB00082858D7F8287E885F9858285816082872C
:101CC000E885F98511870087DF91CF911F910F91EA
:101CD0000895AF92BF92CF92DF92EF92FF920F934F
:101CE0001F93CF93DF938C01EB010E94FA038111C4
:101CF00068C0C8010E94FA015C01209709F05BC02E
:101D0000C8010E944303EC01EA80FB80CC80DD80A7
:101D1000E114F10419F4F501D582C482C8010E94CE
:101D2000FA01CD2819F4FC01F182E082C8010E9479
:101D3000FA01FC01828193818C179D0719F4C80177
:101D40000E941504EC81FD81309721F08A819B81EE
:101D500093838283AA81BB81109721F01596FC930F
:101D6000EE93149719821882C8010E94FA01FC01AF
:101D7000468157816085718541505109610971091A
:101D800046835783608771871B821A821D821C825B
:101D90002097B9F0CE0106960E94760BCE01DF9116
:101DA000CF911F910F91FF90EF90DF90CF90BF9058
:101DB000AF900C94BB1C88819981A816B90609F4D0
:101DC000A3CFDF91CF911F910F91FF90EF90DF9004
:101DD000CF90BF90AF900895EF92FF920F931F9313
:101DE000CF93DF93EC01E884F984C7010E943101AD
:101DF0008E01085F1F4F811109C0F7018081918119
:101E0000A281B3810297A105B10558F4CE010E94C9
:101E1000FA03811106C070E060E0CE010E94690EF5
:101E2000F5CFC801DF91CF911F910F91FF90EF90F7
:101E30000C94DA07CF92DF92EF92FF920F931F93E9
:101E4000CF93DF93DB01ED91FC91309709F46BC0E8
:101E500080819181A281B3810097A105B10509F428
:101E600062C08B01AC01BD0141505109610971098A
:101E700040835183628373830197A105B10509F003
:101E80003FC0F801C081D1812097A9F1C884D984CD
:101E9000C114D10481F18A85882369F180FF24C0AF
:101EA0008C819D81AE81BF81892B8A2B8B2BB1F1D7
:101EB000F6013297808191812AE0289F7001299F45
:101EC000F00C1124EC0CFD1C970188859985FAE033
:101ED000EF1AF1088217930721F0C7010E94EC0E58
:101EE000F3CF02970E94BB1C1A86198618861882A7
:101EF00019821A821B82D8018D919C910E94BB1C71
:101F0000F8011182108281E090E0DF91CF911F9162
:101F10000F91FF90EF90DF90CF900895C6010E943F
:101F2000EC0EC601DFCF8FEF9FEFEFCFEF92FF9266
:101F30000F931F93CF93DF93DB01ED91FC913097CB
:101F400009F470C080819181A281B3810097A105BD
:101F5000B10509F467C08B01AC01BD0141505109C5
:101F60006109710940835183628373830197A105DD
:101F7000B10509F04BC0F801C081D181209709F467
:101F800040C0E884F984E114F104D9F18A858823FA
:101F9000C1F180FF2FC08C819D81AE81BF81892BD3
:101FA0008A2B8B2BE9F0F7013297808191814FE0EA
:101FB000489F9001499F300D11242E0D3F1D4885EB
:101FC00059857901FFE0EF1AF108C901029742171C
:101FD000530771F0BC0108970E941A0F9701EFCFC9
:101FE000B701635F7F4FC70105960E941A0FC701B3
:101FF0000E94BB1C1A8619861886188219821A82BA
:102000001B82D8018D919C910E94BB1CF80111820A
:10201000108281E090E0DF91CF911F910F91FF90AE
:10202000EF9008958FEF9FEFF6CFCF92DF92EF9270
:10203000FF920F931F93CF93DF938FE090E00E9466
:102040001F1CEC018FE0DE011D928A95E9F76E01FD
:10205000B5E0CB0ED11C8AE090E00E941F1C8C01E1
:102060008AE090E00E941F1C7C018AE0F701119237
:102070008A95E9F7D8011D921D921D921C92139723
:10208000F801148215821682178211861086C80103
:102090000896E114F104D9F50E94DA071D821E8228
:1020A0001F82188619861A861B861C861E861D8628
:1020B000BE01635F7F4F0115110509F043C0C601E2
:1020C0000E941A0F10928A0110928B0110928C01BB
:1020D00010928D0110928E0110928F01109290013A
:1020E000109291011092930110929201209709F0A1
:1020F00041C062E971E08AE891E0DF91CF911F91E0
:102100000F91FF90EF90DF90CF900C94960FBC0151
:10211000C8010E94AB05019609F2D8011896ED910D
:10212000FC91199782858D7F82871896ED91FC919D
:1021300019978285816082871896ED91FC91F186CE
:10214000E086ACCF20E030E0A901C6010E94130672
:10215000019609F4B7CFED85FE8582858D7F828754
:10216000ED85FE85828581608287ED85FE851187FC
:102170000087A8CF20E030E0A90162E971E08AE899
:1021800091E00E941306019651F0E0919201F091C6
:10219000930182858D7F81608287D187C087DF919F
:1021A000CF911F910F91FF90EF90DF90CF90089506
:1021B00062E971E08AE891E00C94960F2F923F92C9
:1021C0004F925F926F927F928F929F92AF92BF9247
:1021D000CF92DF92EF92FF920F931F93CF93DF93F3
:1021E000CDB7DEB7E1970FB6F894DEBF0FBECDBF17
:1021F00098A38F8F7CA76BA71A013AA729A7FA018A
:10220000D080E180F28003811481B581C680B780DF
:102210002D2D3E2D4F2D502F612F7B2F8C2D9B2D43
:10222000A0E60E94FF1BC9F0A1E60E94FF1B09F473
:10223000AEC1A0E00E94FF1B09F007C2109273011B
:10224000109274011092750110927601109278012B
:102250001092770181E080937201EF8DF8A1628185
:102260007381848195814F01F6E08F0E911C611579
:1022700071058105910519F4C4010E94E803AB01C1
:10228000BC014150510961097109C4010E946E02EB
:10229000BC01CE0145960E944909EF8DF8A142810B
:1022A0005381648175814F5F5F4F6F4F7F4FC401D2
:1022B0000E946E02BC01CE010B960E944909EF8D6F
:1022C000F8A14281538164817581C4010E946E022C
:1022D000BC01CE0101960E94490943E050E060E054
:1022E00070E0CE0101960E949D038C01FC0180816B
:1022F000823009F06DC081E0808343E050E060E00F
:1023000070E0CE0101960E949D03FC018081813026
:1023100009F4B8C008F47AC0823009F4D5C0CE01FF
:1023200009960E940009CE0143960E940009CE0141
:102330004D960E940009EF8DF8A14281538164817E
:102340007581C4010E946E0243E050E060E070E0DD
:102350000E949D03FC0180818111DEC080E6F101B5
:102360008083118212821382148215821682178250
:1023700010927301109274011092750110927601FF
:1023800080E690E0909378018093770182E08093DB
:10239000720181E090E0EBA5FCA591838083E1963A
:1023A0000FB6F894DEBF0FBECDBFDF91CF911F9166
:1023B0000F91FF90EF90DF90CF90BF90AF909F90E4
:1023C0008F907F906F905F904F903F902F900895E7
:1023D00043E050E060E070E0CE0145960E949D032E
:1023E000FC018081823079F043E050E060E070E0F1
:1023F000CE010B960E949D03FC018081823019F072
:1024000082E0F80179CFF801108277CF40E050E008
:10241000BA01CE0101960E949D038C016F8C78A0B9
:10242000F0E16F0E711CC3010E94B402F80120811B
:1024300001E010E0A80102C0440F551F2A95E2F701
:10244000FC0120813181242B352B3183208341E015
:1024500050E060E070E0CE0101960E949D032C01E7
:10246000C3010E94B402F201208102C0000F111FBB
:102470002A95E2F7FC0120813181022B132B118375
:1024800000834DCF40E050E0BA01CE0101960E949A
:102490009D038C016F8C78A0F0E16F0E711CC3015D
:1024A0000E94B402F801208101E010E0A80102C0FE
:1024B000440F551F2A95E2F740955095FC01208165
:1024C000318124233523C1CF41E050E060E070E04A
:1024D000CE0101960E949D038C016F8C78A0F0E1E3
:1024E0006F0E711CC3010E94B402F801208101E04B
:1024F00010E0A80102C0440F551F2A95E2F740954D
:102500005095FC01208131812423352331832083A0
:1025100040E050E0BA019FCF0E94680429A33DA784
:102520004EA75FA768AB872E982E99AB0E94F21A30
:1025300065E070E00E94651B059624E6289F200157
:10254000299F500C1124052C000C66087708A8EE72
:10255000AA2EB3E0BB2EC12CD12CE12CF12C00E033
:1025600010E029A13DA54EA55FA568A9782D892D6C
:1025700099A90E947B1B49015A01480C591C6A1CED
:102580007B1CE9A5FAA540825182628273820E9477
:102590006804E9A5FAA5C080D180E280F380260115
:1025A0003701812C912C5401C9A25AA2EBA27CA222
:1025B0008DA29EA2AFA2B8A6E8EEAE2EF3E0BF2E8B
:1025C000C12CD12CE12CF12C00E010E00E947B1BEF
:1025D00059016A017B018C019201A30160E070E066
:1025E00080E090E00E94F61B09F008F436CE81E608
:1025F000F101808311821282138214821582168265
:1026000017820E94F21AF101208131813093780102
:102610002093770165E070E00E94651B9C012B5FB1
:102620003F4F44E6429FC001439F900D1124092E65
:10263000000CAA0BBB0B8093730190937401A093C1
:102640007501B093760184E0A2CEE9A5FAA51082C7
:10265000118212821382F10110821182128213827E
:1026600014821582168217821092730110927401DF
:1026700010927501109276011092780110927701F4
:1026800088E0809372018FEF9FEF85CE8F929F92AB
:10269000AF92BF92CF92DF92EF92FF920F931F9370
:1026A000CF93DF93CDB7DEB7C055D1090FB6F894FD
:1026B000DEBF0FBECDBF8C017B01809182018111F5
:1026C00005C00E94151081E0809382012B961CAEFC
:1026D0001DAE1EAE1FAE2B972F961CAE1DAE1EAEAE
:1026E0001FAE2F9761961FAE1EAE6197B701CE0148
:1026F000895B9F4F0E94F70D8AE891E00E94D40207
:102700005C0121961CAE1DAE1EAE1FAE2197259614
:102710001CAE1DAE1EAE1FAE259727961FAE1EAE79
:102720002797BE01695B7F4FCE01CD960E94F70DC2
:10273000D8011D921D921D921C921397F8011482CC
:1027400015821682178211861086B801685F7F4F46
:10275000C8010E94DF050196C9F0D8011896ED90D6
:10276000FC901997F701828581FF82C1C7010B9602
:10277000918780871896ED91FC910084F185E02D7A
:102780001182108213821282158214828CE090E0F2
:102790000E941F1C7C0180E491E0F70191838083FB
:1027A0001282138214821582168217821086118675
:1027B00013861286BE01635C7F4FC70102960E949A
:1027C000F70D1BAA1CAA1DAA1EAA1FAA18AE19AE95
:1027D0001AAE1CAE1BAEE114F10409F05AC1BE01E1
:1027E000655C7F4FCE01C3960E940E0AF5E0AF0EE6
:1027F000B11CC5010E9455037C0119A61AA61BA68F
:102800001CA61DA61EA61FA618AA1AAA19AABE01B2
:102810006D5C7F4FCE0189960E94E30A8CE090E0C8
:102820000E941F1C6C0186E391E0D60111969C93D7
:102830008E93F601128213821482158216961D92CF
:102840001D921D921C9219971B961C921E921A970C
:10285000BE01675D7F4FC60102960E94E30A1D8A92
:102860001E8A1F8A188E198E1A8E1B8E1C8E1E8E23
:102870001D8EC114D10409F015C1BE01635E7F4FE6
:10288000CE0145960E940E0A1F8E18A219A21AA206
:102890001BA21CA21DA21EA218A61FA2CE018796D3
:1028A0000E94B708D8011896ED91FC913097E1F09D
:1028B00082858823C9F080819181A281B381892B8F
:1028C0008A2B8B2B89F080859185892B69F0F8A75D
:1028D000EFA380819181A281B3810196A11DB11DD9
:1028E00080839183A283B383F80180819181A28147
:1028F000B3818F8F98A3A9A3BAA384819581A68160
:10290000B7818BA39CA3ADA3BEA3C7010E94FA030A
:10291000BE016B5E7F4F882309F4CDC0CE010196C6
:102920000E941E0B8AE190E00E941F1C6C01DC01DA
:1029300011961C921E9213961C921E921297159637
:102940001C921E921497BE016F5F7F4F06960E94E5
:102950001E0BC7010E94FA01FC01D182C082CE0188
:1029600001960E94760BC7010E94FA01DC01ED91ED
:10297000FC9191838083C7010E94FA016C01C70119
:102980000E943D03F60195838483C7010E94FA01EA
:10299000DC0116964D915D916D917C9119974F5F79
:1029A0005F4F6F4F7F4FFC0146835783608771876E
:1029B000CE0145960E94760BBE016F5C7F4FCE0123
:1029C00089960E940E0AC5010E9455036C01C80138
:1029D0000E9479037C01C6010E944303D70113962C
:1029E0009C938E931297C8010E94790321E030E0F6
:1029F000FC0131832083C8010E9479037C01C50159
:102A00000E945503D70115969C938E931497BE018F
:102A1000655C7F4FCE01C3960E940E0A6DE370E0A5
:102A20006C0F7D1F685F7F4FCE01CD960E94630DB6
:102A300067E470E06C0F7D1F685F7F4FCE01895B9C
:102A40009F4F0E94630DC801C05BDF4F0FB6F89423
:102A5000DEBF0FBECDBFDF91CF911F910F91FF90D1
:102A6000EF90DF90CF90BF90AF909F908F900895A0
:102A700086E090E00E941F1CFC01118210821382EC
:102A8000128215821482D70119969C938E931897FF
:102A90007DCEA701BE01655C7F4FCE01C3960E942B
:102AA0008A0AA4CEA601BE01635E7F4FCE01459681
:102AB0000E948A0AE9CECE0101960E941E0B8AE18D
:102AC00090E00E941F1C6C01DC0111961C921E926A
:102AD00013961C921E92129715961C921E92149792
:102AE000BE016F5F7F4F06960E941E0BCE010196BE
:102AF0000E94760BC7010E94FA01F6019183808340
:102B0000C7010E9443034C01DC0114968D919C91F6
:102B1000892B31F4C7010E94FA01FC019182808265
:102B2000D60112968D919C91892B31F4C7010E9498
:102B3000FA01FC01D582C482D60115969C928E9230
:102B40001497F401D382C28220CF1F920F920FB646
:102B50000F9211242F933F938F939F93AF93BF9323
:102B600080917A0190917B01A0917C01B0917D01CF
:102B70003091790123E0230F2D3758F50196A11DDF
:102B8000B11D2093790180937A0190937B01A093EA
:102B90007C01B0937D0180917E0190917F01A09195
:102BA0008001B09181010196A11DB11D80937E012C
:102BB00090937F01A0938001B0938101BF91AF9169
:102BC0009F918F913F912F910F900FBE0F901F906B
:102BD000189526E8230F0296A11DB11DD2CFCF93E1
:102BE000DF93CDB7DEB7C458D1090FB6F894DEBF76
:102BF0000FBECDBF789484B5826084BD84B58160FA
:102C000084BD85B5826085BD85B5816085BD8091B7
:102C10006E00816080936E0010928100809181002F
:102C20008260809381008091810081608093810027
:102C3000809180008160809380008091B1008460E9
:102C40008093B1008091B00081608093B00080914A
:102C50007A00846080937A0080917A008260809309
:102C60007A0080917A00816080937A0080917A0066
:102C7000806880937A001092C1006F961CAE1DAEE2
:102C80001EAE1FAE6F97A3961CAE1DAE1EAE1FAE3E
:102C9000A397A5961FAE1EAEA5976BE570E06C0FCF
:102CA0007D1F685F7F4F23E030E040E050E0CE01C1
:102CB000855A9F4F0E948C09019661F0A5960EAD32
:102CC0001FADA597F801828581FF4FC0C8010B9603
:102CD00091878087CE01855A9F4F0E941C02FC017C
:102CE0008CE080838BE081838AE08283CE01855AE9
:102CF0009F4F0E941C027C01A5960EAD1FADA597AB
:102D0000C8010E94480130E020E0811109C0F801AB
:102D100020853185A1968EAD9FADA197280F391FD3
:102D2000D701A217B30739F18D9190E0FC01EC5562
:102D3000FF4F649180579F4FFC018491882389F352
:102D400090E0880F991FFC01EA57FF4F459154917D
:102D5000FC01E458FF4F859194918FB7F894FA01E4
:102D60009081962B90838FBFDCCF83E090E00E9410
:102D70001F1CF801ADCF82E090E00E941F1C8C0167
:102D8000FC011182108265961CAE1DAE1EAE1FAEF8
:102D9000659769961CAE1DAE1EAE1FAE69976B9609
:102DA0001FAE1EAE6B9781E590E08C0F9D1F0896BD
:102DB0000115110509F07EC10E94230888E0EAE0B0
:102DC000F1E0DE01DD9601900D928A95E1F7BE01FA
:102DD000635C7F4FCE0101960E94C40988E0E2E166
:102DE000F1E0DE01AB59BF4F01900D928A95E1F7FA
:102DF000BE016B597F4FCE010B960E94C40988E03B
:102E0000EAE1F1E0DE01A359BF4F01900D928A95EE
:102E1000E1F7BE0163597F4FCE0145960E94C40978
:102E200088E0E2E2F1E0DE01AB58BF4F01900D9285
:102E30008A95E1F7BE016B587F4FCE014F960E94F5
:102E4000C40988E0EAE2F1E0DE01A358BF4F019037
:102E50000D928A95E1F7BE0163587F4FCE018996A6
:102E60000E94C4092B961CAE1DAE1EAE1FAE2B9742
:102E70002F961CAE1DAE1EAE1FAE2F9761961FAED5
:102E80001EAE61971BAA1CAA1DAA1EAA1FAA18AED5
:102E900019AE1AAE1CAE1BAE25E030E040E050E0AB
:102EA000BE01655C7F4FCE01C3960E94130601965A
:102EB00051F00BAD1CADF801828581FF0FC1C80137
:102EC0000B969187808767E470E06C0F7D1F685FC9
:102ED0007F4FCE01895B9F4F0E94690C0BAD1CADEB
:102EE000C8010E940301811106C061961FAF0EAF99
:102EF00061971CAE1BAE8BA99CA9ADA9BEA92B9650
:102F00008CAF9DAFAEAFBFAF2B978FA998ADA9ADDA
:102F1000BAAD2F968CAF9DAFAEAFBFAF2F97BE01AE
:102F2000655C7F4FCE01C3960E94690C6196EEAC42
:102F3000FFAC6197C7010E94030110E000E081111E
:102F40000FC029962EAD3FAD29974AE0429FC001A0
:102F5000439F900D1124F70100851185080F191F5B
:102F60005801F2E3AF0EB11CCE0101967C01C801FD
:102F700008960E940009F701C084D184C6010E940E
:102F8000480181110FC0F801D186C086F601808109
:102F90009181A281B3810196A11DB11D808391838E
:102FA000A283B383F70180819181A281B381F8016B
:102FB00080839183A283B383F70184819581A68165
:102FC000B781F80184839583A683B783FAE0EF0E77
:102FD000F11C065F1F4F0A151B0549F6CE01C1966D
:102FE0000E940009CE0187960E940009CE014D96ED
:102FF0000E940009CE0143960E940009CE01099665
:103000000E940009BE016F5A7F4FCE0101960E94B7
:103010006C08BE01695B7F4FCE010B960E941E0DAE
:1030200086E190E00E941F1C8C0176E1F72EFC01E6
:103030002F2D11922A95E9F770E060E00E94320C82
:10304000F801128613861486158616861786108A4E
:10305000118A128A138A148A158AB801CE01CD9674
:103060000E94320E86E190E00E941F1C8C012AE42F
:1030700031E0FC0121933193CF01BE016F5F7F4F9F
:103080000E946C08BE01655F7F4FC8010C960E94CC
:103090001E0DB801CE01C3960E94320C27960EADCC
:1030A0001FAD2797C8010E941A018823A1F190E063
:1030B00080E03DC0BC01CE018F5A9F4F0E94770532
:1030C000019609F47BCE6B96EEADFFAD6B978285D2
:1030D0008D7F816082871187008770CE84E390E0C6
:1030E0000E941F1CDC0125E030E02D933D93FD0183
:1030F000C496108211821282138214821582168263
:103100001782118610863A968E179F0791F7F8015D
:10311000B187A087D8CE8DAD9EADF89E9001F99E67
:10312000300D1124F80180859185820F931FBE0117
:103130006D5C7F4F0E94000CBE01655C7F4FCE012D
:10314000C3960E94840BBE01635C7F4FCE01C39681
:103150000E944613CE01CB960E94B7080DE310E003
:103160000C0F1D1F085F1F4FB801CE01CD960E94A6
:10317000630DBE016D5E7F4FCE010B960E94690C00
:10318000CE0109960E942308CE01895B9F4F0E94C1
:10319000E8034B015C0156E1D52E64E5E62E61E0C3
:1031A000F62E702EC12EF1E08F1A9108A108B108F9
:1031B0002FEF82169206A206B20609F496C0898203
:1031C0009A82AB82BC82BE01695B7F4FCE010596BD
:1031D0000E941E0DBE016F5A7F4FCE010F960E94B6
:1031E0006C0886E190E00E941F1C8C01FC012D2DD3
:1031F00011922A95E9F770E060E00E94320CF80124
:10320000128613861486158616861786108A118AEA
:10321000128A138A148A158AB801CE01CD960E94AB
:10322000320E8AE190E00E941F1C8C01FC01F182A9
:10323000E08289819A81AB81BC8182839383A4835C
:10324000B583BE016B5F7F4FC80106960E941E0DBD
:10325000BE01615F7F4FC80140960E946C08B801B3
:10326000CE01C3960E94320C27960EAD1FAD279754
:10327000C8010E941A01811135C08DAD9EADD89E46
:103280009001D99E300D1124F80180859185820F1F
:10329000931FBE016D5C7F4F0E94000CBE01655CF8
:1032A0007F4FCE01C3960E94840BBE01635C7F4FAB
:1032B000CE01C3960E944613CE01CB960E94B7085A
:1032C000672D7C2DCE01CD960E94630DCE014796D1
:1032D0000E942308BE01635F7F4FCE0105960E94C6
:1032E000690C61CF90E080E0D4CF67E470E06C0FB0
:1032F0007D1F685F7F4FCE01895B9F4F0E94690CE5
:1033000081E590E08C0F9D1F08960E9423088BE5B5
:1033100090E08C0F9D1F08960E94000944244A9457
:10332000542C320144E0242E312C809182018111F1
:1033300005C00E941510F1E0F09382018AE891E047
:103340000E94D4028C010B5F1F4FC8010E945503DD
:103350007C010E94FA0381112CC0C7010E94420423
:10336000892B39F1C8010E9455030E9442045C0177
:10337000C8010E9455030E944204FC01828193818E
:1033800088248394912C892B19F488248A94982C6E
:103390006501F0E1CF0ED11CC6010E947903FC014A
:1033A0002081318121FF77C0C8010E9455030E940E
:1033B00015048AE891E00E94D402FC019081906497
:1033C00090838AE891E00E94D402FC0141815281FD
:1033D00063817481452B462B472B21F01182128289
:1033E000138214828AE891E00E94D4028C0105962F
:1033F0000E9455037C010E94FA0381110CC0C70191
:103400000E94FA01FC0186819781A085B185892BF4
:103410008A2B8B2BD1F4E0919201F091930130979C
:10342000A1F08285882389F080819181A281B38176
:103430000097A105B10549F020853185232B29F09E
:103440000297A105B10508F068C0F801C180D280DB
:10345000E380F4800E94C7004B015C01C114D104D9
:10346000E104F10409F460C00E94C70068197909F9
:103470008A099B09683E73408105910578F3F1E064
:10348000CF1AD108E108F10828EE820E23E0921E3F
:10349000A11CB11CE3CF22FF0EC0C8010E9455033E
:1034A000B5010E94690E80E090E0892B09F43DCFC0
:1034B0000E9400003ACF226031832083C6010E941F
:1034C00079037C01C50106960E94F8025C01C801DF
:1034D0000E9455030E94FA03811117C0C6010E9481
:1034E0007903E816F90689F4FFEFAF16BF0689F0F5
:1034F000AB2859F0F701808191818D7F9183808382
:10350000C8010E9455030E9415048A94892859F223
:1035100050CFF70131822082F8CF88EEC82E83E0A9
:10352000D82EE12CF12C96CF8AE891E00E94D402AB
:10353000FC0141825282638274828AE891E00E9497
:10354000D402FC0190819F7B9083ADCF8F929F929C
:10355000AF92BF92CF92DF92EF92FF92CF93DF9321
:10356000EC01688179818A819B81611571058105F2
:10357000910521F464E279ED8BE597E02DE133EFDD
:1035800041E050E00E94021B49015A019B01AC013D
:10359000A7EAB1E40E94211B6B017C01ACEEB4EF01
:1035A000A50194010E942F1BDC01CB018C0D9D1DF8
:1035B000AE1DBF1DB7FF03C00197A109B0488883A6
:1035C0009983AA83BB839F77DF91CF91FF90EF9080
:1035D000DF90CF90BF90AF909F908F9008950E9402
:1035E000A61A089580E091E00E94A61A0895B0E01E
:1035F000A0E08093000190930101A0930201B09399
:1036000003010895052E97FB1EF400940E94191BD8
:1036100057FD07D00E94341B07FC03D04EF40C94D6
:10362000191B50954095309521953F4F4F4F5F4F57
:10363000089590958095709561957F4F8F4F9F4F1E
:1036400008950E94561BA59F900DB49F900DA49FB6
:10365000800D911D11240895B7FF0C94211B0E9429
:10366000211B821B930B0895A1E21A2EAA1BBB1BE0
:10367000FD010DC0AA1FBB1FEE1FFF1FA217B3073E
:10368000E407F50720F0A21BB30BE40BF50B661F54
:10369000771F881F991F1A9469F760957095809518
:1036A00090959B01AC01BD01CF010895A29FB0018F
:1036B000B39FC001A39F700D811D1124911DB29F66
:1036C000700D811D1124911D089597FB072E16F48E
:1036D000009407D077FD09D00E940B1C07FC05D091
:1036E0003EF4909581959F4F0895709561957F4F19
:1036F0000895689401C0E8948F929F92CF93DF93CE
:103700000E94871BDF91CF919F908F90089588240E
:103710009924F401E401B0E49F93AA279A158B043D
:103720009C04ED05FE05CF05D007A10798F4AD2F49
:10373000DC2FCF2FFE2FE92D982C892E982F872F45
:10374000762F652F542F432F322F2227B85031F771
:10375000BF9127C01B2EBF91BB27220F331F441FD1
:10376000551F661F771F881F991F881C991CEE1F05
:10377000FF1FCC1FDD1FAA1FBB1F8A149B04EC0573
:10378000FD05CE05DF05A007B10748F08A189B08A4
:10379000EC09FD09CE09DF09A00BB10B21601A94D9
:1037A000E1F62EF49401AF01BE01CD01000C0895A5
:1037B0002A0D3B1D4C1D5D1D6E1D7F1D801F911F21
:1037C00008950024A7FD00942A0F301D401D501DB0
:1037D000601D701D801D901D08952A193B094C091C
:1037E0005D096E097F09800B910B08952A153B0531
:1037F0004C055D056E057F0580079107089500243F
:10380000A7FD00942A173005400550056005700596
:10381000800590050895AA1BBB1B51E107C0AA1F94
:10382000BB1FA617B70710F0A61BB70B881F991F61
:103830005A95A9F780959095BC01CD0108950F93F5
:103840001F93CF93DF938230910510F482E090E0D4
:10385000E0919601F091970130E020E0B0E0A0E027
:10386000309799F42115310509F44AC0281B390B0A
:1038700024303105D8F58A819B816115710589F164
:10388000FB0193838283FE0111C04081518102813B
:10389000138148175907E0F04817590799F4109712
:1038A00061F012960C93129713961C933296CF01E7
:1038B000DF91CF911F910F9108950093960110937E
:1038C0009701F4CF2115310551F04217530738F015
:1038D000A901DB019A01BD01DF01F801C1CFEF01B0
:1038E000F9CF9093970180939601CDCFFE01E20F1F
:1038F000F31F819391932250310939832883D7CFC5
:103900002091940130919501232B41F420910601DF
:103910003091070130939501209394012091040187
:10392000309105012115310541F42DB73EB7409185
:10393000080150910901241B350BE0919401F0918D
:103940009501E217F307A0F42E1B3F0B2817390748
:1039500078F0AC014E5F5F4F2417350748F04E0FEB
:103960005F1F5093950140939401819391939FCF52
:10397000F0E0E0E09CCFCF93DF930097E9F0FC010B
:10398000329713821282A0919601B0919701ED01B6
:1039900030E020E01097A1F420813181820F931F45
:1039A00020919401309195012817390709F061C0E1
:1039B000F0939501E0939401DF91CF910895EA018E
:1039C000CE17DF07E8F54A815B819E01411551055D
:1039D000B1F7E901FB83EA8349915991C40FD51FDF
:1039E000EC17FD0761F4808191810296840F951F89
:1039F000E90199838883828193819B838A83F0E0A4
:103A0000E0E012968D919C9113970097B9F52D9156
:103A10003C911197CD010296820F931F2091940142
:103A2000309195012817390739F6309751F51092E2
:103A3000970110929601B0939501A0939401BCCF89
:103A4000D383C28340815181840F951FC817D90742
:103A500061F44E5F5F4F88819981480F591F5183F0
:103A600040838A819B81938382832115310509F0EC
:103A7000B0CFF0939701E09396019ECFFD01DC015A
:0C3A8000C0CF13821282D7CFF894FFCF82
:103A8C0001000000000098012000000001000E0061
:103A9C0001000300040002000100060007000500FD
:103AAC00010009000A00080001000C000D000B00C9
:103ABC00010000000000CE0AD90A32030000000009
:103ACC00E20DED0D760100000000E20CF60C9706FD
:0A3ADC0000000000000D140DDE10C4
:00000001FF
