:100000000C9461000C947E000C947E000C947E0095
:100010000C947E000C947E000C947E000C947E0068
:100020000C947E000C947E000C947E000C947E0058
:100030000C947E000C947E000C947E000C947E0048
:100040000C94A6140C947E000C947E000C947E00FC
:100050000C947E000C947E000C947E000C947E0028
:100060000C947E000C947E0000000000230026000B
:10007000290000000008000201000003040700003E
:1000800000000000000000000000250028002B00F8
:1000900000000000240027002A00040404040404D3
:1000A0000404020202020202030303030303010227
:1000B00004081020408001020408102001020408F6
:1000C000102011241FBECFEFD8E0DEBFCDBF11E05E
:1000D000A0E0B1E0E0E7F7E302C005900D92A036A2
:1000E000B107D9F721E0A0E6B1E001C01D92AE3919
:1000F000B207E1F70E94F0140C94B61B0C940000B8
:10010000833081F028F4813099F08230A9F008958D
:100110008730A9F08830C9F08430B1F48091800034
:100120008F7D03C0809180008F7780938000089539
:1001300084B58F7784BD089584B58F7DFBCF809182
:10014000B0008F778093B00008958091B0008F7DCC
:10015000F9CF1F93CF93DF93282F30E0F901EE58AA
:10016000FF4F8491F901E255FF4FD491F901E65612
:10017000FF4FC491CC23A9F0162F81110E9480005B
:10018000EC2FF0E0EE0FFF1FEA57FF4FA591B4915F
:100190008FB7F894EC91111108C0D095DE23DC9351
:1001A0008FBFDF91CF911F910895DE2BF8CFFF9283
:1001B0000F931F93CF93DF93082F162FF42EC22F88
:1001C000D8E06C2FF11015C06170802F0E94A9003B
:1001D000C69561E0812F0E94A90060E0812F0E94F6
:1001E000A900D15071F7DF91CF911F910F91FF902E
:1001F0000895661F6627661F802F0E94A900CC0FF6
:10020000E8CF3FB7F8948091840190918501A09147
:100210008601B091870126B5A89B05C02F3F19F034
:100220000196A11DB11D3FBFBA2FA92F982F882776
:10023000BC01CD01620F711D811D911D42E0660F51
:10024000771F881F991F4A95D1F70895FC01892BC4
:1002500091F08285882379F080819181A281B38198
:10026000892B8A2B8B2B39F081E020853185232B3C
:1002700019F080E0089581E00895FC01892B91F048
:100280008285882379F080819181A281B381892B35
:100290008A2B8B2B39F081E020853185232B19F0B7
:1002A00080E0089581E00895FC01892B91F082851A
:1002B000882379F080819181A281B381892B8A2B57
:1002C0008B2B39F081E020853185232B19F080E0DC
:1002D000089581E00895FC01892B91F0828588239F
:1002E00079F080819181A281B381892B8A2B8B2B1C
:1002F00039F081E020853185232B19F080E00895C5
:1003000081E00895FC01892B91F08285882379F0A2
:1003100080819181A281B381892B8A2B8B2B39F02B
:1003200081E020853185232B19F080E0089581E05C
:100330000895CF93DF93FC01C085D185CE010E9443
:100340002601811109C081E0488159816A817B8140
:10035000452B462B472B09F480E0DF91CF91089580
:10036000CF92DF92EF92FF920F931F93CF93DF9381
:1003700000D0CDB7DEB78C017B01DC011A96CD90A1
:10038000DC90C6010E945401811146C0F8018281AF
:10039000938126E1289FA001299F500D1124D601A9
:1003A00018960D911C91040F151FC8010E94990108
:1003B000882311F1F801C084D184C6010E9426016E
:1003C00081112DC0D8012D913C91220F331FF601D0
:1003D00080859185820F931F9801265F3F4FA8016A
:1003E000425F5F4FDC01ED91FC910480F581E02DCF
:1003F000BE016F5F7F4F099589819A81F7019183D3
:1004000080830F900F90DF91CF911F910F91FF90FC
:10041000EF90DF90CF90089510E000E0C6CF90E01D
:1004200080E0DACF0F931F93CF93DF938C01FC0111
:10043000C085D185CE010E943D01811112C0F80115
:10044000808191814AE0489F9001499F300D11249D
:1004500088859985820F931FDF91CF911F910F910E
:10046000089590E080E0F8CF0F931F93CF93DF9330
:100470008C01FC01C085D185CE010E946B018111E8
:1004800012C0F801808191814AE0489F9001499F04
:10049000300D112488859985820F931FDF91CF91AC
:1004A0001F910F91089590E080E0F8CF0F931F9374
:1004B000CF93DF93EC01888599850E943D018111DE
:1004C00011C06C817D818E819F81088119812A8173
:1004D0003B81601B710B820B930BDF91CF911F91BE
:1004E0000F91089560E070E0CB01F7CFCF93DF93D9
:1004F000EC01888599850E943D01282F811109C052
:10050000CE010E94560221E0672B682B692B09F06F
:1005100020E0822FDF91CF9108950F931F93CF9307
:10052000DF93EC0108851985C8010E9482018111C1
:100530000CC0F8018085918528813981820F931F35
:10054000DF91CF911F910F91089590E080E0F8CF57
:10055000DC011896ED91FC9119973097D1F08285C6
:100560008823B9F04081518162817381452B462BEC
:10057000472B79F080859185009769F04D915C91CA
:1005800069E1649F9001659F300D1124820F931FD4
:10059000089590E080E00895EF92FF920F931F93EB
:1005A000CF93DF9300D0CDB7DEB78C010E949901C5
:1005B0008823F1F0D8011896ED90FC90C7010E94B5
:1005C0002601811120C0F80120813181220F331FC3
:1005D000D70118968D919C91820F931FDC01ED91AC
:1005E000FC910480F581E02DBE016F5F7F4F09957E
:1005F00089819A810F900F90DF91CF911F910F9178
:10060000FF90EF90089590E080E0E8CFCF93DF93E4
:10061000EB0102960E94CC0299838883DF91CF91EF
:1006200008950E943402FC01808191810895CF9346
:10063000DF93EC010E943402FC01848195810097D4
:1006400029F4CE01DF91CF910C941103DF91CF916A
:100650000895DC011896ED91FC9119973097D1F02F
:1006600082858823B9F04081518162817381452B55
:10067000462B472B79F080859185009769F04D9145
:100680005C916AE0649F9001659F300D1124820F98
:10069000931F089590E080E00895DC011896ED9195
:1006A000FC9119973097D1F082858823B9F0408169
:1006B000518162817381452B462B472B79F08085D0
:1006C0009185009769F04D915C9166E0649F90017F
:1006D000659F300D1124820F931F089590E080E0F4
:1006E00008958F929F92AF92BF92CF92DF92EF9236
:1006F000FF920F931F93CF93DF938C016A017B01CD
:10070000FC01808591850E948201B82EC8010E945B
:100710008D02EC01B11016C0F80184809580A6808E
:10072000B78080819181A281B381A5019401281BAA
:10073000390B4A0B5B0BC216D306E406F50680F4B0
:10074000CC0DDD1DCE01DF91CF911F910F91FF9058
:10075000EF90DF90CF90BF90AF909F908F900895D3
:1007600088169906AA06BB0669F3C701B6010E945E
:10077000C319C60FD71FE6CFCF93DF93EC0188854F
:1007800099850E946B0181110DC0CE010E94340237
:1007900021E0FC0186819781A085B185892B8A2B78
:1007A0008B2B09F020E0822FDF91CF9108950F93DA
:1007B0001F93CF93DF93EC010E94BC03811121C0F2
:1007C000CE010E9434028C01DC011296ED91FC9165
:1007D000309791F4CE010E941103F8019383828334
:1007E000CE010E943402DC0112968D919C91DF9122
:1007F000CF911F910F91089582819381009769F79E
:10080000E9CF90E080E0F3CF0F931F93CF93DF9376
:10081000EC010E94BC0381111AC0CE010E94340277
:100820008C01FC0182819381892B31F4CE010E94DD
:100830001103F80193838283CE010E943402FC01EC
:1008400082819381DF91CF911F910F91089590E064
:1008500080E0F8CFE82F962F842F622F21E0292700
:10086000EA3038F50E2E000CFF0BE75CFB4F0C94C2
:10087000E5194304470449044B044D044F04510453
:100880005304550457042C6F40E00C94D7002066A5
:10089000FBCF2A6DF9CF226FF7CF2666F5CF266BF7
:1008A000F3CF2E6BF1CF206EEFCF2E6FEDCF266FF3
:1008B000EBCF2E2B41E0E9CF2F923F924F925F92E8
:1008C0006F927F928F929F92AF92BF92CF92DF9260
:1008D000EF92FF920F931F93CF93DF93CDB7DEB7C5
:1008E0002C970FB6F894DEBF0FBECDBF809170017C
:1008F000811117C00E9401017B018C016093680186
:10090000F092690180936A0110936B0110926C015F
:1009100010926D0110926E0110926F0181E0809330
:1009200070010E9401017B018C016983FA828B8333
:100930001C83709068018090690190906A01F0902A
:100940006B01FC8600916C010B87B0916D01F091F9
:100950006E01E0916F012090600130906101409044
:1009600062015090630160906401A0916501109153
:1009700066011987209167012A87272D382D492D77
:100980005F2D602F7B2F8F2F9E2FAE2CBA80CB80B8
:10099000DC80E12CF12C00E010E00E94681A09F0E4
:1009A00008F466C09101A201662D7A2F89859A8587
:1009B000AFEF0E94531AA72CB82CC92CDC84EB840F
:1009C000FB2E0F2F1E2F0E945F1AA980BA80CB80AA
:1009D000DC80E12CF12C00E010E00E944A1A209308
:1009E0006001309361014093620150936301609311
:1009F0006401709365018093660190936701A092F2
:100A00006801B0926901C0926A01D0926B011092A4
:100A10006C0110926D0110926E0110926F01209185
:100A200060013091610140916201509163016091D8
:100A300064017091650180916601909167012C9627
:100A40000FB6F894DEBF0FBECDBFDF91CF911F91DF
:100A50000F91FF90EF90DF90CF90BF90AF909F905D
:100A60008F907F906F905F904F903F902F90089560
:100A70009101A201662D7A2F89859A85A72CB82C21
:100A8000C92CDC84EB84FB2E0F2F1E2F0E945F1AD3
:100A9000A980BA80CB80DC80E12CF12C00E010E052
:100AA0000E944A1A209360013093610140936201D1
:100AB00050936301609364017093650180936601B4
:100AC00090936701A0926801B0926901C0926A0197
:100AD000D0926B019CCF0F931F93CF93DF93DB01D9
:100AE0002D913C91232B41F58B01EC018CE090E0A2
:100AF0000E94911AFC018CE0DF011D928A95E9F7B2
:100B0000D801ED93FC93188219821A821B821C82F1
:100B10001D821E821F8281E090E0A0E0B0E0808311
:100B20009183A283B38385E0828781E090E0DF91A7
:100B3000CF911F910F9108958FEF9FEFF8CF0F93F3
:100B40001F93CF93DF93DB012D913C91232B41F534
:100B50008B01EC018CE090E00E94911AFC018CE08A
:100B6000DF011D928A95E9F7D801ED93FC93188275
:100B700019821A821B821C821D821E821F8281E0C2
:100B800090E0A0E0B0E080839183A283B38385E00E
:100B9000828781E090E0DF91CF911F910F910895BE
:100BA0008FEF9FEFF8CFCF92DF92EF92FF920F93EC
:100BB0001F93CF93DF93DB01ED91FC91EF2B91F528
:100BC00069017A018B01EC018CE090E00E94911A9E
:100BD000FC018CE0DF011D928A95E9F7D801ED93C5
:100BE000FC93188219821A821B82CC82DD82EE82EB
:100BF000FF8281E090E0A0E0B0E080839183A28357
:100C0000B383C482D582E682F78285E0828781E061
:100C100090E0DF91CF911F910F91FF90EF90DF90C7
:100C2000CF9008958FEF9FEFF4CF8F929F92AF9266
:100C3000BF92CF92DF92EF92FF920F931F93CF93C9
:100C4000DF93DB01ED91FC91EF2B09F04DC0812C7E
:100C5000912C54018394211531054105510511F062
:100C600049015A0169017A018B01EC018CE090E0A5
:100C70000E94911AFC018CE0DF011D928A95E9F730
:100C8000D801ED93FC93188219821A821B82CC82C0
:100C9000DD82EE82FF8281E090E0A0E0B0E0808320
:100CA0009183A283B383C482D582E682F78284E0F3
:100CB000828785E08A9489288A288B2829F4CF01A5
:100CC0000B969187808786E0828781E090E0DF91B4
:100CD000CF911F910F91FF90EF90DF90CF90BF9039
:100CE000AF909F908F9008958FEF9FEFF0CF0F936D
:100CF0001F93CF93DF93DC01ED91FC913097E9F1E5
:100D000040815181628173814115510561057105F1
:100D1000A1F18C01DB01CA010197A109B10980830E
:100D20009183A283B3834130510561057105D9F4E4
:100D3000F801C081D181209789F088859985009735
:100D400069F02A85222351F020FD0E942D1B1A866E
:100D500019861886188219821A821B82D8018D91F1
:100D60009C910E942D1BF8011182108281E090E07D
:100D7000DF91CF911F910F9108958FEF9FEFF8CFE3
:100D80000F931F93CF93DF93DC01ED91FC9130978C
:100D9000E9F14081518162817381411551056105FD
:100DA0007105A1F18C01DB01CA010197A109B1090B
:100DB00080839183A283B38341305105610571051E
:100DC000D9F4F801C081D181209789F0888599856F
:100DD000009769F02A85222351F020FD0E942D1BE7
:100DE0001A8619861886188219821A821B82D801DF
:100DF0008D919C910E942D1BF8011182108281E03F
:100E000090E0DF91CF911F910F9108958FEF9FEFA9
:100E1000F8CF0F931F93CF93DF93DC01ED91FC91FB
:100E20003097E9F14081518162817381411551050B
:100E300061057105A1F18C01DB01CA010197A109CE
:100E4000B10980839183A283B38341305105610549
:100E50007105D9F4F801C081D181209789F0888586
:100E60009985009769F02A85222351F020FD0E9480
:100E70002D1B1A8619861886188219821A821B82DF
:100E8000D8018D919C910E942D1BF8011182108236
:100E900081E090E0DF91CF911F910F9108958FEF46
:100EA0009FEFF8CFEF92FF920F931F93CF93DF93B3
:100EB000EC017B01188219821A821B821C821D821E
:100EC0001E821F821986188608960E940907F7015C
:100ED00000851185C8010E94820181110EC0198709
:100EE0000887F80180819181A281B3810196A11DBB
:100EF000B11D80839183A283B383F70180819181A7
:100F0000A281B38188839983AA83BB8384819581DD
:100F1000A681B7818C839D83AE83BF83DF91CF9100
:100F20001F910F91FF90EF9008953F924F925F9223
:100F30006F927F928F929F92AF92BF92CF92DF92E9
:100F4000EF92FF920F931F93CF93DF93CDB7DEB74E
:100F50002A970FB6F894DEBF0FBECDBF5C016B01C0
:100F60008A014901FA01508061807280E380F48037
:100F7000B58146803780252D362D472D5E2D6F2D6E
:100F80007B2F842D932DA0E00E94711A21F1A1E402
:100F90000E94711A79F1F401108211821282138277
:100FA000F801108211821282138214821582168235
:100FB00017821092790110927A0110927B0110929F
:100FC0007C0110927E0110927D0188E0809378016F
:100FD0008FEF9FEF35C11092790110927A01109234
:100FE0007B0110927C0110927E0110927D0181E0C4
:100FF00080937801F2E0AF0EB11CC5010E9412028D
:101000007C01C5010E9476028111F9C0C5010E94D0
:1010100056022AE0269F3001279F700C11246E0C87
:101020007F1CE614F70409F4EEC0B701CE01019667
:101030000E94520741E050E060E070E0CE0101966E
:101040000E947103FC01208130E0F901EE58FF4F4E
:101050008491F901E255FF4FB490F901E656FF4F34
:10106000A490AA2061F181110E948000EA2DF0E095
:10107000EE0FFF1FE859FF4FA591B491EC91BE22EE
:10108000F1F043E050E060E070E0CE0101960E9494
:101090007103FC01108244E050E060E070E0CE019A
:1010A00001960E947103FC01108245E050E060E06F
:1010B00070E0CE0101960E947103FC01108260E095
:1010C0008DE00E94A90042E050E060E070E0CE01B7
:1010D00001960E9471034C0140E050E0BA01CE013C
:1010E00001960E9471035C0145E050E060E070E011
:1010F000CE0101960E947103FC01208141E0F401C0
:101100006081F50180810E94D70042E050E060E0FC
:1011100070E0CE0101960E9471034C0140E050E066
:10112000BA01CE0101960E9471035C0144E050E0D7
:1011300060E070E0CE0101960E947103F40120810D
:10114000F501408161E0FC0180810E942A0461E098
:101150008DE00E94A90060E08DE00E94A90042E0BD
:1011600050E060E070E0CE0101960E9471034C01F6
:1011700040E050E0BA01CE0101960E9471035C018B
:1011800045E050E060E070E0CE0101960E947103FE
:10119000FC01208141E0F4016081F50180810E9421
:1011A000D70042E050E060E070E0CE0101960E947E
:1011B00071034C0140E050E0BA01CE0101960E945B
:1011C00071035C0143E050E060E070E0CE01019605
:1011D0000E947103F4012081F501408160E0FC016F
:1011E00080810E942A0461E08DE00E94A900CE0166
:1011F00009960E940907FAE0EF0EF11C12CF60E099
:1012000070E0CB0106CF81E4F80180831182128265
:10121000138214821582168217821092790110921D
:101220007A0110927B0110927C0181E490E090930E
:101230007E0180937D0182E08093780181E090E0DF
:10124000F601918380832A960FB6F894DEBF0FBE15
:10125000CDBFDF91CF911F910F91FF90EF90DF9065
:10126000CF90BF90AF909F908F907F906F905F9046
:101270004F903F9008952F923F924F925F926F92BE
:101280007F928F929F92AF92BF92CF92DF92EF9216
:10129000FF920F931F93CF93DF93CDB7DEB766977F
:1012A0000FB6F894DEBF0FBECDBF1C017E8B6D8BD9
:1012B0004A013C8B2B8BFA01D080E180F2800381C4
:1012C0001481B581C680B7802D2D3E2D4F2D502F16
:1012D000612F7B2F8C2D9B2DA0E00E94711A31F184
:1012E000A3E50E94711A09F4BFC0EB89FC89108242
:1012F000118212821382F4011082118212821382EF
:1013000014821582168217821092790110927A0146
:1013100010927B0110927C0110927E0110927D014F
:1013200088E0809378018FEF9FEFF1C010927901F0
:1013300010927A0110927B0110927C0110927E0132
:1013400010927D0181E080937801F101C4840C2C1E
:10135000000CDD08EE08FF085101F2E0AF0EB11CF1
:10136000C5010E9456022B013C01C5010E941202D8
:101370008C01C414D504E604F70408F0E5C02AE0A3
:101380002C9DC0012D9D900D1124080F191FB8012F
:10139000CE0101960E94520744E050E060E070E008
:1013A000CE0101960E947103FC01808190E00196BC
:1013B0000AE010E0B8010E94AF19808344E050E0D9
:1013C00060E070E0CE0101960E947103FC01808113
:1013D000811110C043E050E060E070E0CE01019662
:1013E0000E947103FC01808190E00196B8010E9487
:1013F000AF19808344E050E060E070E0CE010196D8
:101400000E947103FC018081811110C045E050E011
:1014100060E070E0CE0101960E947103FC01208122
:1014200030E02F5F3F4F277033272083CE0109968E
:101430000E9409070E945C04A8EEAA2EB3E0BB2E0E
:10144000C12CD12CE12CF12C00E010E00E94ED1910
:10145000DA01C901845D9E4FAF4FBF4FEB89FC8914
:1014600080839183A283B3830E945C04EB89FC890F
:10147000408051806280738063015201E12CF12C25
:1014800087014B86BC866D86DE86EF86F88A098BDF
:101490001A8BE8EEAE2EF3E0BF2EC12CD12CE12C3E
:1014A000F12C00E010E00E94ED1959016A017B0166
:1014B0008C012B853C854D855E8560E070E080E089
:1014C00090E00E94681A09F008F43FCF83E5F40128
:1014D00080831182128213821482158216821782EF
:1014E00083E590E090937E0180937D018CE291E012
:1014F000A0E0B0E08093790190937A01A0937B0102
:10150000B0937C0184E08093780181E090E0ED89E4
:10151000FE899183808366960FB6F894DEBF0FBE76
:10152000CDBFDF91CF911F910F91FF90EF90DF9092
:10153000CF90BF90AF909F908F907F906F905F9073
:101540004F903F902F900895C5010E94760281111F
:101550001ECFC701B601A30192010E94C3192AE060
:10156000269FA001279F500D1124040F151F0FCF98
:10157000CF92DF92EF92FF920F931F93CF93DF935F
:10158000DB01ED91FC91EF2B51F4DF91CF911F9195
:101590000F91FF90EF90DF90CF900C9415066901AA
:1015A0007A01EB018C01CB010E940907019669F4D5
:1015B000198218828FEF9FEFDF91CF911F910F91CA
:1015C000FF90EF90DF90CF900895A7019601BE01A4
:1015D000C8010E941506019659F381E090E0ECCF16
:1015E000CF92DF92EF92FF92CF93DF93EB016901ED
:1015F0007A010E94B80A8F3F980761F00990D8815C
:10160000C02D8A8581FF0DC0CE010B9699878887F2
:1016100081E090E0DF91CF91FF90EF90DF90CF904D
:101620000895C114D104E104F10439F481E090E09B
:101630000E94911AFC011082E9CFC6010E94911A02
:10164000E5CF0F931F93CF93DF93EC018B011882AB
:1016500019821A821B821C821D821E821F82198699
:101660001886BC01685F7F4F26E030E040E050E024
:101670000E94F00ACE010E948D02F801AC014A5F7F
:101680005F4F8417950731F020813296DC012D934E
:10169000CD01F7CFDF91CF911F910F910895EF9278
:1016A000FF920F931F93CF93DF93DB01ED91FC919A
:1016B000309709F46DC080819181A281B381009738
:1016C000A105B10509F464C08B01AC01BD01415015
:1016D00051096109710940835183628373830197C2
:1016E000A105B10509F040C0F801C081D181209762
:1016F000B1F188859985009791F12A85222379F1A6
:1017000020FF26C04C815D816E817F81452B462B59
:10171000472BB1F1FC01329720813181220F331F19
:10172000820F931F7C01F2E0EF1AF10828853985BA
:101730002817390751F0D701ED91FC910190F08104
:10174000E02DC7010995C701EDCFC7010E942D1BF0
:101750001A8619861886188219821A821B82F80145
:10176000808191810E942D1BD8011D921C9281E0E5
:1017700090E0DF91CF911F910F91FF90EF9008952E
:10178000DC01ED91FC910280F381E02D0995E0CF21
:101790008FEF9FEFEECFEF92FF920F931F93CF93B8
:1017A000DF934115510549F48FEF9FEFDF91CF9102
:1017B0001F910F91FF90EF9008957A01EB018C013A
:1017C00088819981892BC9F420E030E0A901C80102
:1017D0000E94D305019641F3E881F98182858D7FCE
:1017E0008287E881F981828581608287E881F98139
:1017F000F186E08681E090E0D9CFC8010E944F0BCE
:10180000019619F419821882CFCF20E030E0A901A7
:10181000BE01C8010E94D3050196F1F6F3CFBC01C9
:101820002CE331E0FC0121933193CF01665F7F4FC0
:101830000C944F0BCF93DF93EC010E940F0CCE0161
:10184000DF91CF910C942D1BEF92FF920F931F937A
:10185000CF93DF93EC017B01BC01685F7F4F0E9457
:101860004F0BF70100851185C8010E9426018111E7
:101870000EC019870887F80180819181A281B38108
:101880000196A11DB11D80839183A283B383F701CB
:1018900080819181A281B38188839983AA83BB834C
:1018A00084819581A681B7818C839D83AE83BF831C
:1018B000DF91CF911F910F91FF90EF9008950F93BB
:1018C0001F93CF93DF93EC018B01188219821A8248
:1018D0001B821C821D821E821F82198618860E940E
:1018E000240C1A861B861C861D861E861F86188A57
:1018F000198A1B8A1A8ACE0142960E94C006D80114
:101900005296ED91FC913097E1F082858823C9F0E1
:1019100080819181A281B381892B8A2B8B2B89F0C5
:1019200080859185892B69F0FB8BEA8B8081918181
:10193000A281B3810196A11DB11D80839183A283F1
:10194000B383F80182859385A485B5858A879B87B3
:10195000AC87BD8786859785A089B1898E879F874B
:10196000A88BB98BDF91CF911F910F910895CF93E1
:10197000DF93EC0142960E94C006BE01685F7F4F74
:10198000CE01DF91CF910C944F0BEF92FF920F930A
:101990001F93CF93DF93DB01ED91FC91309709F416
:1019A0006DC080819181A281B3810097A105B105AD
:1019B00009F464C08B01AC01BD01415051096109BA
:1019C000710940835183628373830197A105B10537
:1019D00009F040C0F801C081D1812097B1F188851C
:1019E0009985009791F12A85222379F120FF26C05D
:1019F0004C815D816E817F81452B462B472BB1F158
:101A0000FC01329720813181220F331F820F931FF7
:101A10007C01F2E0EF1AF10828853985281739078B
:101A200051F0D701ED91FC910190F081E02DC701BB
:101A30000995C701EDCFC7010E942D1B1A86198693
:101A40001886188219821A821B82F801808191817E
:101A50000E942D1BD8011D921C9281E090E0DF9125
:101A6000CF911F910F91FF90EF900895DC01ED91C0
:101A7000FC910280F381E02D0995E0CF8FEF9FEF7D
:101A8000EECFEF92FF920F931F93CF93DF93EC0172
:101A90008B01BC01685F7F4F0E94C50CF801E08498
:101AA000F184C7010E942601811105C0F986E886EC
:101AB000F80111861086F80180819181A281B3819D
:101AC00088839983AA83BB8384819581A681B7810A
:101AD0008C839D83AE83BF83DF91CF911F910F9144
:101AE000FF90EF9008950F931F93CF93DF938B0197
:101AF000FC011082118212821382148215821682D6
:101B0000178211861086BC01685F7F4F0115110591
:101B100031F4DF91CF911F910F910C94C50CEC0122
:101B200020E030E0A9010E94D305019671F0E8851C
:101B3000F98582858D7F8287E885F9858285816038
:101B40008287E885F98511870087DF91CF911F9102
:101B50000F910895EF92FF920F931F93CF93DF930E
:101B6000DB01ED91FC91309709F46AC0808191818D
:101B7000A281B3810097A105B10509F461C08B0171
:101B8000AC01BD0141505109610971094083518384
:101B9000628373830197A105B10509F045C0F8017F
:101BA000C081D1812097D9F1E884F984E114F1044E
:101BB000B1F18A85882399F180FF2AC08C819D81AB
:101BC000AE81BF81892B8A2B8B2BD9F0F7013297FD
:101BD000808191814AE0489F9001499F300D1124F6
:101BE0002E0D3F1D488559857901FAE0EF1AF1085D
:101BF000C90102974217530749F00E94090797014C
:101C0000F1CFC70108960E940907C7010E942D1B4A
:101C10001A8619861886188219821A821B82D801A0
:101C20008D919C910E942D1BF8011182108281E000
:101C300090E0DF91CF911F910F91FF90EF90089569
:101C40008FEF9FEFF6CFBC01685F7F4F0C94AA0D1A
:101C500020E531E0FC0121933193CF010C94230E58
:101C6000CF93DF93EC010E94280ECE01DF91CF913C
:101C70000C942D1B2AE531E0FC0121933193CF0117
:101C80000C94230ECF93DF93EC010E943A0ECE0109
:101C9000DF91CF910C942D1BEF92FF920F931F9326
:101CA000CF93DF93EC017B01188219821A821B8289
:101CB0001C821D821E821F82198618860E94230E96
:101CC000F70100851185C8010E943D0181110EC0F8
:101CD00019870887F80180819181A281B3810196DB
:101CE000A11DB11D80839183A283B383F7018081FD
:101CF0009181A281B38188839983AA83BB838481E4
:101D00009581A681B7818C839D83AE83BF83DF914C
:101D1000CF911F910F91FF90EF900895EF92FF9256
:101D20000F931F93CF93DF93DB01ED91FC913097DD
:101D300009F470C080819181A281B3810097A105CF
:101D4000B10509F467C08B01AC01BD0141505109D7
:101D50006109710940835183628373830197A105EF
:101D6000B10509F043C0F801C081D1812097C9F1C4
:101D7000E884F984E114F104A1F18A85882389F1CA
:101D800080FF28C08C819D81AE81BF81892B8A2BE9
:101D90008B2BC1F1F70132972081318146E1429FBF
:101DA000C001439F900D11248E0D9F1D28853985FC
:101DB0007C01F6E1EF1AF1082817390741F0BC0160
:101DC0006E507109C7010E94C50CC701EFCF029781
:101DD0000E942D1B1A8619861886188219821A826B
:101DE0001B82D8018D919C910E942D1BF8011182BC
:101DF000108281E090E0DF91CF911F910F91FF90D1
:101E0000EF900895B701685F7F4FC7010E94C50C2E
:101E1000C701DECF8FEF9FEFEECFBC0126E431E0AC
:101E2000FC0121933193CF01665F7F4F0C948E0E9E
:101E3000CF93DF93EC010E940D0FCE01DF91CF9184
:101E40000C942D1BEF92FF920F931F93CF93DF9370
:101E5000EC017B01BC01685F7F4F0E948E0EF70191
:101E600000851185C8010E94540181110EC0198797
:101E70000887F80180819181A281B3810196A11D1B
:101E8000B11D80839183A283B383F7018081918107
:101E9000A281B38188839983AA83BB83848195813E
:101EA000A681B7818C839D83AE83BF83DF91CF9161
:101EB0001F910F91FF90EF9008950F931F93CF9371
:101EC000DF938B01FC011082118212821382148233
:101ED00015821682178211861086BC01685F7F4FBB
:101EE0000115110531F4DF91CF911F910F910C94E1
:101EF0008E0EEC0120E030E0A9010E94D30501968E
:101F000071F0E885F98582858D7F8287E885F9857E
:101F1000828581608287E885F98511870087DF9156
:101F2000CF911F910F910895AF92BF92CF92DF9200
:101F3000EF92FF920F931F93CF93DF938C01EB01EE
:101F40000E94BC03811168C0C8010E9434025C0178
:101F5000209709F05BC0C8010E941703EC01EA80DA
:101F6000FB80CC80DD80E114F10419F4F501D58209
:101F7000C482C8010E943402CD2819F4FC01F18208
:101F8000E082C8010E943402FC01828193818C1797
:101F90009D0719F4C8010E94D703EC81FD81309799
:101FA00021F08A819B8193838283AA81BB811097D0
:101FB00021F01596FC93EE93149719821882C801AC
:101FC0000E943402FC014681578160857185415031
:101FD00051096109710946835783608771871B82A4
:101FE0001A821D821C822097B9F0CE0106960E94AB
:101FF000B70CCE01DF91CF911F910F91FF90EF9021
:10200000DF90CF90BF90AF900C942D1B8881998169
:10201000A816B90609F4A3CFDF91CF911F910F91B4
:10202000FF90EF90DF90CF90BF90AF900895EF9228
:10203000FF920F931F93CF93DF93EC01E884F98411
:10204000C7010E946B018E01085F1F4F811109C0FB
:10205000F70180819181A281B3810297A105B10529
:1020600058F4CE010E94BC03811106C070E060E00C
:10207000CE010E94940FF5CFC801DF91CF911F913F
:102080000F91FF90EF900C947706CF92DF92EF9232
:10209000FF920F931F93CF93DF93DB01ED91FC91A0
:1020A000309709F46BC080819181A281B381009740
:1020B000A105B10509F462C08B01AC01BD0141501D
:1020C00051096109710940835183628373830197C8
:1020D000A105B10509F03FC0F801C081D181209769
:1020E000A9F1C884D984C114D10481F18A858823D7
:1020F00069F180FF24C08C819D81AE81BF81892BD5
:102100008A2B8B2BB1F1F6013297808191812AE0E5
:10211000289F7001299FF00C1124EC0CFD1C9701E5
:1021200088859985FAE0EF1AF1088217930721F064
:10213000C7010E941710F3CF02970E942D1B1A8629
:1021400019861886188219821A821B82D8018D91ED
:102150009C910E942D1BF8011182108281E090E079
:10216000DF91CF911F910F91FF90EF90DF90CF9073
:102170000895C6010E941710C601DFCF8FEF9FEFB1
:10218000EFCFCF92DF92EF92FF920F931F93CF93F7
:10219000DF93DB01ED91FC91309709F47CC08081E5
:1021A0009181A281B3810097A105B10509F473C0A3
:1021B0006B01AC01BD0141505109610971094083B6
:1021C0005183628373830197A105B10509F055C05E
:1021D000F601C081D181209709F44AC0E884F984CE
:1021E000E114F10409F444C08A85882309F440C04D
:1021F00080FF37C08C819D81AE81BF81892B8A2B66
:102200008B2B09F1F70132978081918129E1289F79
:102210008001299F100D11240E0D1F1D2885398561
:102220007801F9E1EF1AF108C80102972017310788
:10223000B1F0BC0108970E944510C8010C970E949C
:1022400009078701EBCFB701695E7F4FC7010F9682
:102250000E944510C7010D960E940907C7010E9400
:102260002D1B1A8619861886188219821A821B82DB
:10227000D6018D919C910E942D1BF6011182108236
:1022800081E090E0DF91CF911F910F91FF90EF904F
:10229000DF90CF9008958FEF9FEFF4CFCF92DF9232
:1022A000EF92FF920F931F93CF93DF9389E190E01A
:1022B0000E94911AEC0189E1DE011D928A95E9F7ED
:1022C0001D821E821F82188619861A861B861C860E
:1022D0001E861D86BE01635F7F4F20E030E0A901AE
:1022E000CE0105960E94B80A019681F00D851E85E3
:1022F000F801828581FF69C0C8010B9691878087AC
:10230000ED85FE850084F185E02D10826E01FFE0F1
:10231000CF0ED11C8AE090E00E94911A8C018AE0D5
:1023200090E00E94911A7C018AE0D7011D928A9563
:10233000E9F7F80110821182128213821482158249
:102340001682178211861086C8010896E114F104DE
:1023500009F045C00E9477061F86188A198A1A8AD2
:102360001B8A1C8A1D8A1E8A188E1F8ABE01695EFE
:102370007F4F0115110509F04EC0C6010E9445109E
:10238000109290011092910110929201109293017B
:10239000109294011092950110929601109297015B
:1023A0001092990110929801209709F04CC068E9A9
:1023B00071E080E991E0DF91CF911F910F91FF9043
:1023C000EF90DF90CF900C94C11081E090E00E94DC
:1023D000911ADC011C92F8019187808797CFBC018C
:1023E000C8010E946B05019609F4B6CFD801189672
:1023F000ED91FC91199782858D7F82871896ED91DA
:10240000FC9119978285816082871896ED91FC91E5
:10241000F186E086A1CF20E030E0A901C6010E944C
:10242000D305019609F4ACCFEF89F88D82858D7FB5
:102430008287EF89F88D828581608287EF89F88DA8
:10244000118700879DCF20E030E0A90168E971E0A5
:1024500080E991E00E94D305019651F0E091980146
:10246000F091990182858D7F81608287D187C087B5
:10247000DF91CF911F910F91FF90EF90DF90CF9060
:10248000089568E971E080E991E00C94C1108F92A1
:102490009F92AF92BF92CF92DF92EF92FF920F93F3
:1024A0001F93CF93DF93CDB7DEB7C055D1090FB6D9
:1024B000F894DEBF0FBECDBF8C017B0180918801F7
:1024C000811105C00E944E1181E0809388012B96F6
:1024D0001CAE1DAE1EAE1FAE2B972F961CAE1DAEB2
:1024E0001EAE1FAE2F9761961FAE1EAE6197B7014D
:1024F000CE01895B9F4F0E94220F80E991E00E94EC
:10250000A8025C0121961CAE1DAE1EAE1FAE219727
:1025100025961CAE1DAE1EAE1FAE259727961FAE8C
:102520001EAE2797BE01695B7F4FCE01CD960E94FC
:10253000220FD8011D921D921D921C921397F80133
:10254000148215821682178211861086B801685F80
:102550007F4FC8010E949F050196C9F0D8011896C7
:10256000ED90FC901997F701828581FF82C1C70128
:102570000B96918780871896ED91FC910084F185E8
:10258000E02D1182108213821282158214828CE057
:1025900090E00E94911A7C0186E491E0F70191831A
:1025A000808312821382148215821682178210860B
:1025B000118613861286BE01635C7F4FC7010296A7
:1025C0000E94220F1BAA1CAA1DAA1EAA1FAA18AE8F
:1025D00019AE1AAE1CAE1BAEE114F10409F05AC1DB
:1025E000BE01655C7F4FCE01C3960E944F0BFFE09A
:1025F000AF0EB11CC5010E9429037C0119A61AA6C1
:102600001BA61CA61DA61EA61FA618AA1AAA19AAB2
:10261000BE016D5C7F4FCE0189960E94240C8CE038
:1026200090E00E94911A6C018CE391E0D601119622
:102630009C938E93F6011282138214821582169651
:102640001D921D921D921C9219971B961C921E9210
:102650001A97BE01675D7F4FC60102960E94240C47
:102660001D8A1E8A1F8A188E198E1A8E1B8E1C8E2A
:102670001E8E1D8EC114D10409F015C1BE01635E0A
:102680007F4FCE0145960E944F0B1F8E18A219A2B4
:102690001AA21BA21CA21DA21EA218A61FA2CE0136
:1026A00087960E94C006D8011896ED91FC9130974C
:1026B000E1F082858823C9F080819181A281B38174
:1026C000892B8A2B8B2B89F080859185892B69F04A
:1026D000F8A7EFA380819181A281B3810196A11D0A
:1026E000B11D80839183A283B383F801808191819E
:1026F000A281B3818F8F98A3A9A3BAA38481958166
:10270000A681B7818BA39CA3ADA3BEA3C7010E94E2
:10271000BC03BE016B5E7F4F882309F4CDC0CE01A0
:1027200001960E945F0C8AE190E00E94911A6C0170
:10273000DC0111961C921E9213961C921E92129707
:1027400015961C921E921497BE016F5F7F4F0696DE
:102750000E945F0CC7010E943402FC01D182C0823A
:10276000CE0101960E94B70CC7010E943402DC0121
:10277000ED91FC9191838083C7010E9434026C012A
:10278000C7010E941103F60195838483C7010E944B
:102790003402DC0116964D915D916D917C911997F3
:1027A0004F5F5F4F6F4F7F4FFC01468357836087BA
:1027B0007187CE0145960E94B70CBE016F5C7F4FBA
:1027C000CE0189960E944F0BC5010E9429036C011E
:1027D000C8010E944D037C01C6010E941703D70166
:1027E00013969C938E931297C8010E944D0321E08B
:1027F00030E0FC0131832083C8010E944D037C013D
:10280000C5010E942903D70115969C938E931497B6
:10281000BE01655C7F4FCE01C3960E944F0B6DE3F6
:1028200070E06C0F7D1F685F7F4FCE01CD960E94D8
:102830008E0E67E470E06C0F7D1F685F7F4FCE01E6
:10284000895B9F4F0E948E0EC801C05BDF4F0FB6A1
:10285000F894DEBF0FBECDBFDF91CF911F910F91D6
:10286000FF90EF90DF90CF90BF90AF909F908F90B0
:10287000089586E090E00E94911AFC011182108276
:102880001382128215821482D70119969C938E931B
:1028900018977DCEA701BE01655C7F4FCE01C39620
:1028A0000E94CB0BA4CEA601BE01635E7F4FCE017A
:1028B00045960E94CB0BE9CECE0101960E945F0C9B
:1028C0008AE190E00E94911A6C01DC0111961C9241
:1028D0001E9213961C921E92129715961C921E928F
:1028E0001497BE016F5F7F4F06960E945F0CCE016A
:1028F00001960E94B70CC7010E943402F601918331
:102900008083C7010E9417034C01DC0114968D914E
:102910009C91892B31F4C7010E943402FC01918201
:102920008082D60112968D919C91892B31F4C7013A
:102930000E943402FC01D582C482D60115969C9275
:102940008E921497F401D382C28220CF1F920F92ED
:102950000FB60F9211242F933F938F939F93AF93B2
:10296000BF938091800190918101A0918201B091EB
:10297000830130917F0123E0230F2D3758F5019615
:10298000A11DB11D20937F0180938001909381014F
:10299000A0938201B093830180918401909185017D
:1029A000A0918601B09187010196A11DB11D809370
:1029B000840190938501A0938601B0938701BF9114
:1029C000AF919F918F913F912F910F900FBE0F90DC
:1029D0001F90189526E8230F0296A11DB11DD2CF96
:1029E000CF93DF93CDB7DEB7CA56D1090FB6F894AF
:1029F000DEBF0FBECDBF789484B5826084BD84B540
:102A0000816084BD85B5826085BD85B5816085BDE9
:102A100080916E00816080936E00109281008091A1
:102A20008100826080938100809181008160809329
:102A30008100809180008160809380008091B1004E
:102A400084608093B1008091B00081608093B00079
:102A500080917A00846080937A0080917A0082600D
:102A600080937A0080917A00816080937A008091CF
:102A70007A00806880937A001092C1008EE0E6E0D0
:102A8000F1E0DE01119601900D928A95E1F7A5968D
:102A90001CAE1DAE1EAE1FAEA597A9961CAE1DAEF8
:102AA0001EAE1FAEA997AB961FAE1EAEAB9761E6EA
:102AB00070E06C0F7D1F685F7F4F27E030E040E0E3
:102AC00050E0CE018F599F4F0E94F00ACE018F59DE
:102AD0009F4F0E948D02FE0131969C01295F3F4F5E
:102AE00040813296DC014D93CD01A217B307C1F7A7
:102AF0006B961CAE1DAE1EAE1FAE6B976F961CAED6
:102B00001DAE1EAE1FAE6F97A1961FAE1EAEA19753
:102B100067E570E06C0F7D1F685F7F4F23E030E05A
:102B200040E050E0CE01895A9F4F0E94F00ACE014A
:102B3000895A9F4F0E948D02FC011CE010838BE09C
:102B400081838AE08283E4E1F1E0DE015F96812FF8
:102B500001900D928A95E1F7BE01615E7F4FCE0133
:102B600001960E94210BE0E2F1E0DE019B96812FAD
:102B700001900D928A95E1F7BE01655D7F4FCE0110
:102B80000B960E94210BECE2F1E0DE01D79601905A
:102B90000D921A95E1F7BE01695C7F4FCE01459613
:102BA0000E94210B61961CAE1DAE1EAE1FAE61973A
:102BB00065961CAE1DAE1EAE1FAE659767961FAE26
:102BC0001EAE679727961CAE1DAE1EAE1FAE279792
:102BD0002B961CAE1DAE1EAE1FAE2B972D961FAEB4
:102BE0001EAE2D9763E470E06C0F7D1F685F7F4F12
:102BF00023E030E040E050E0CE018D5B9F4F0E942B
:102C0000D305019661F02D960EAD1FAD2D97F801FD
:102C1000828581FF9AC0C8010B9691878087CE017B
:102C2000835B9F4F0E94230E2D960EAD1FAD2D97F7
:102C3000C8010E943D01811108C067961FAF0EAF09
:102C400067972D961FAE1EAE2D9727968CAD9DAD26
:102C5000AEADBFAD279761968CAF9DAFAEAFBFAFA6
:102C600061972B968CAD9DADAEADBFAD2B976596A4
:102C70008CAF9DAFAEAFBFAF6597CE018D5B9F4F61
:102C80000E94230ECE01835B9F4F0E9412028C0193
:102C90005C01FEE1AF0EB11CCE0101967C01C801C2
:102CA00008960E940907D7011896CD90DC90C601BE
:102CB0000E94820181110FC0F801D186C086F60101
:102CC00080819181A281B3810196A11DB11D808374
:102CD0009183A283B383F70180819181A281B38123
:102CE000F80180839183A283B383F7018481958166
:102CF000A681B781F80184839583A683B783FAE020
:102D0000EF0EF11C065F1F4F0A151B0541F6CE01A1
:102D10004D960E940907CE0143960E940907CE01F5
:102D200009960E940907CE01895A9F4F0E948D0281
:102D30007C01A1960EAD1FADA197C8010E94820132
:102D4000882301F130E020E027C080E290E00E947B
:102D5000911ADC0123E030E02D933D93FD01809634
:102D600010821182128213821482158216821782B7
:102D7000118610863A968E179F0791F7F801B18752
:102D8000A0874DCFD80118962D913C916D968EADB0
:102D90009FAD6D97280F391FD7012A173B0731F1D7
:102DA0008D9190E0FC01E255FF4F449186569F4F74
:102DB000FC018491882389F390E0880F991FFC011E
:102DC000E057FF4F65917491FC01EA57FF4F059161
:102DD00014919FB7F894FB018081409584238083F0
:102DE000F8018081842380839FBFD7CFCE018F5984
:102DF0009F4F0E948D027C01AB960EAD1FADAB972D
:102E0000C8010E94820130E020E081110AC0D8018F
:102E100018962D913C91A7968EAD9FADA797280F40
:102E2000391FD7012A173B0709F18D9190E0FC016A
:102E3000E255FF4F649186569F4FFC018491882391
:102E400089F390E0880F991FFC01E057FF4F4591EF
:102E50005491FC01EA57FF4F859194918FB7F894F4
:102E6000FA019081962B90838FBFDCCFBE01635B0C
:102E70007F4FCE018B960E944C0E86E190E00E941F
:102E8000911A8C01E6E1FE2EDC01EF2D1D92EA95F0
:102E9000E9F770E060E00E94730DD8011A961D9268
:102EA0001D921D921C921D971E961C921E971F9696
:102EB0001C921F9750961C92509751961C925197B6
:102EC00052961C92529753961C92539754961C926A
:102ED000549755961C92B801CE014F960E945D0FF3
:102EE0008CE090E00E94911A8C0120E531E0FC0119
:102EF00021933193CF01BE01655D7F4F0E944C0E3F
:102F0000B801CE0101960E94730D0FA118A5C8014A
:102F10000E9454018111CFC08F8D98A1F89E90011D
:102F2000F99E300D1124D80118968D919C91820F35
:102F3000931FBE016F5F7F4F0E94410DBE01675F0F
:102F40007F4FCE0101960E94C50CBE01615E7F4F8E
:102F5000CE0101960E944712CE0109960E94C0063A
:102F6000BE01695D7F4FCE014F960E948E0ECE014D
:102F70008B960E94230ECE01835B9F4F0E947602A8
:102F800060E0811105C0CE01835B9F4F0E94560215
:102F900056E1C52E7AE5E72E71E0F72EDD24DA94AE
:102FA000D60E16160CF08DC0BE01635B7F4FCE01AE
:102FB00001960E944C0EDB8686E190E00E94911AF9
:102FC0008C01FC012C2D11922A95E9F770E060E04C
:102FD0000E94730DD8011A961D921D921D921C928B
:102FE0001D971E961C921E971F961C921F97509617
:102FF0001C92509751961C92519752961C92529740
:1030000053961C92539754961C92549755961C9223
:10301000B801CE018B960E945D0F8DE090E00E947A
:10302000911A8C01FC01E192F192CF01BE016F5F18
:103030007F4F0E944C0E8B85D8011C968C93B80153
:10304000CE014F960E94730D0BA91CA9C8010E94C6
:103050005401811133C08BA59CA5C89E9001C99EC7
:10306000300D1124F80180859185820F931FBE01D8
:10307000615E7F4F0E94410DBE01695D7F4FCE01B1
:103080004F960E94C50CBE01655D7F4FCE014F96E5
:103090000E944712CE0187960E94C006BE016D5C59
:1030A0007F4FCE018B960E948E0ECE0101960E941C
:1030B000230E6D2D73CF90E080E03BCF90E080E059
:1030C000D6CFCE01835B9F4F0E94230E87E590E011
:1030D0008C0F9D1F08960E94090781E690E08C0FD7
:1030E0009D1F08960E94090744244A94542C3201DB
:1030F00044E0242E312C80918801811105C00E946A
:103100004E11F1E0F093880180E991E00E94A8025D
:103110008C01015F1F4FC8010E9429037C010E949E
:10312000BC0381112DC0C7010E940404892B41F109
:10313000C8010E9429030E9404045C01C8010E9486
:1031400029030E940404DC0112968D919C9188242D
:103150008394912C892B19F488248A94982C6501E6
:10316000B0E1CB0ED11CC6010E944D03FC012081B1
:10317000318121FF93C0C8010E9429030E94D70317
:1031800080E991E00E94A802FC0190819064908304
:1031900080E991E00E94A802FC0141815281638193
:1031A0007481452B462B472B21F01182128213820A
:1031B000148280E991E00E94A8028C010F960E947F
:1031C00029037C010E94BC03812C912C54018111A4
:1031D00008C0C7010E943402FC0186809780A08449
:1031E000B184D8011D96ED90FC90C7010E94820128
:1031F000811196C0F70180819181A281B381F1E0B4
:103200008F1A9108A108B108880D991DAA1DBB1D30
:10321000892B8A2B8B2BD1F4E0919801F0919901A5
:103220003097A1F08285882389F080819181A281E5
:10323000B3810097A105B10549F020853185232B85
:1032400029F00297A105B10508F06EC0D8011196CA
:10325000CD90DD90ED90FC9014970E9401014B0100
:103260005C01C114D104E104F10409F464C00E94BA
:103270000101681979098A099B09683E7340810533
:10328000910578F3B1E0CB1AD108E108F108E8EE36
:103290008E0EE3E09E1EA11CB11CE3CF22FF0EC0E8
:1032A000C8010E942903B5010E94940FE0E0F0E0FC
:1032B000EF2B09F420CF0E9400001DCF2260318344
:1032C0002083C6010E944D037C01C50106960E9421
:1032D000CC025C01C8010E9429030E94BC03811139
:1032E00017C0C6010E944D03E816F90689F4BFEF26
:1032F000AB16BB0689F0AB2859F0F70180819181AC
:103300008D7F91838083C8010E9429030E94D70387
:103310008A94892859F234CFD7012D923C92F8CF64
:1033200080E090E0DC016BCF88EEC82E83E0D82EE1
:10333000E12CF12C92CF80E991E00E94A802DC01FF
:1033400011964D925D926D927C92149780E991E076
:103350000E94A802FC0190819F7B9083A7CF97FBDE
:10336000072E16F4009407D077FD09D00E947D1A2D
:1033700007FC05D03EF4909581959F4F0895709578
:1033800061957F4F0895A1E21A2EAA1BBB1BFD0178
:103390000DC0AA1FBB1FEE1FFF1FA217B307E40734
:1033A000F50720F0A21BB30BE40BF50B661F771F8C
:1033B000881F991F1A9469F760957095809590956C
:1033C0009B01AC01BD01CF010895EE0FFF1F0590D9
:1033D000F491E02D0994689401C0E8948F929F9233
:1033E000CF93DF930E94F919DF91CF919F908F9037
:1033F000089588249924F401E401B0E49F93AA2756
:103400009A158B049C04ED05FE05CF05D007A10796
:1034100098F4AD2FDC2FCF2FFE2FE92D982C892E7D
:10342000982F872F762F652F542F432F322F222747
:10343000B85031F7BF9127C01B2EBF91BB27220F79
:10344000331F441F551F661F771F881F991F881C35
:10345000991CEE1FFF1FCC1FDD1FAA1FBB1F8A1464
:103460009B04EC05FD05CE05DF05A007B10748F07C
:103470008A189B08EC09FD09CE09DF09A00BB10BE6
:1034800021601A94E1F62EF49401AF01BE01CD0142
:10349000000C08952A0D3B1D4C1D5D1D6E1D7F1DEA
:1034A000801F911F08950024A7FD00942A0F301D4E
:1034B000401D501D601D701D801D901D08952A190E
:1034C0003B094C095D096E097F09800B910B08953A
:1034D0002A153B054C055D056E057F0580079107A4
:1034E00008950024A7FD00942A17300540055005D3
:1034F00060057005800590050895AA1BBB1B51E16E
:1035000007C0AA1FBB1FA617B70710F0A61BB70B53
:10351000881F991F5A95A9F780959095BC01CD01F8
:1035200008950F931F93CF93DF938230910510F48A
:1035300082E090E0E0919C01F0919D0130E020E07C
:10354000B0E0A0E0309799F42115310509F44AC0A4
:10355000281B390B24303105D8F58A819B816115F0
:10356000710589F1FB0193838283FE0111C04081C3
:1035700051810281138148175907E0F04817590714
:1035800099F4109761F012960C93129713961C936E
:103590003296CF01DF91CF911F910F910895009343
:1035A0009C0110939D01F4CF2115310551F0421774
:1035B000530738F0A901DB019A01BD01DF01F801D1
:1035C000C1CFEF01F9CF90939D0180939C01CDCFA6
:1035D000FE01E20FF31F8193919322503109398349
:1035E0002883D7CF20919A0130919B01232B41F45E
:1035F000209102013091030130939B0120939A01A5
:1036000020910001309101012115310541F42DB7C0
:103610003EB74091040150910501241B350BE09108
:103620009A01F0919B01E217F307A0F42E1B3F0BC8
:103630002817390778F0AC014E5F5F4F2417350724
:1036400048F04E0F5F1F50939B0140939A01819366
:1036500091939FCFF0E0E0E09CCFCF93DF93009772
:10366000E9F0FC01329713821282A0919C01B09183
:103670009D01ED0130E020E01097A1F4208131811F
:10368000820F931F20919A0130919B0128173907CF
:1036900009F061C0F0939B01E0939A01DF91CF9113
:1036A0000895EA01CE17DF07E8F54A815B819E01A4
:1036B00041155105B1F7E901FB83EA83499159911D
:1036C000C40FD51FEC17FD0761F48081918102962C
:1036D000840F951FE90199838883828193819B835D
:1036E0008A83F0E0E0E012968D919C911397009709
:1036F000B9F52D913C911197CD010296820F931F40
:1037000020919A0130919B012817390739F630979B
:1037100051F510929D0110929C01B0939B01A093D2
:103720009A01BCCFD383C28340815181840F951FFE
:10373000C817D90761F44E5F5F4F88819981480FA0
:10374000591F518340838A819B81938382832115F2
:10375000310509F0B0CFF0939D01E0939C019ECF1D
:10376000FD01DC01C0CF13821282D7CFF894FFCFC6
:1037700000009E012000080007000600040003006E
:1037800002000D0008000C00040000000000000012
:1037900007000B00030000000000000006000A0004
:1037A0000200000000000000000000000F0C1A0CD6
:1037B0000603000000000D0F180FB001000000000C
:1037C000280E300E9507000000003A0E420E3B090D
:00000001FF
