:100000000C9461000C947E000C947E000C947E0095
:100010000C947E000C947E000C947E000C947E0068
:100020000C947E000C947E000C947E000C947E0058
:100030000C947E000C947E000C947E000C947E0048
:100040000C9478150C947E000C947E000C947E0029
:100050000C947E000C947E000C947E000C947E0028
:100060000C947E000C947E0000000000230026000B
:10007000290000000008000201000003040700003E
:1000800000000000000000000000250028002B00F8
:1000900000000000240027002A00040404040404D3
:1000A0000404020202020202030303030303010227
:1000B00004081020408001020408102001020408F6
:1000C000102011241FBECFEFD8E0DEBFCDBF11E05E
:1000D000A0E0B1E0EEEEFBE302C005900D92AC3380
:1000E000B107D9F721E0ACE3B1E001C01D92AA3716
:1000F000B207E1F70E94C2150C94F51D0C940000A4
:10010000833081F028F4813099F08230A9F008958D
:100110008730A9F08830C9F08430B1F48091800034
:100120008F7D03C0809180008F7780938000089539
:1001300084B58F7784BD089584B58F7DFBCF809182
:10014000B0008F778093B00008958091B0008F7DCC
:10015000F9CF1F93CF93DF93282F30E0F901EE58AA
:10016000FF4F8491F901E255FF4FD491F901E65612
:10017000FF4FC491CC23A9F0162F81110E9480005B
:10018000EC2FF0E0EE0FFF1FEA57FF4FA591B4915F
:100190008FB7F894EC91111108C0D095DE23DC9351
:1001A0008FBFDF91CF911F910895DE2BF8CF1F9362
:1001B000CF93DF93182FC62FD8E06C2F111113C0E7
:1001C00061708BE00E94A900C69561E089E00E9401
:1001D000A90060E089E00E94A900D15071F7DF9189
:1001E000CF911F910895661F6627661F8BE00E94BE
:1001F000A900CC0FEACF21E0622701978930910551
:1002000010F5FC01EA5FFE4F0C944A190F0113012F
:100210001501170119011B011D011F012101606654
:1002200080E00C94D7006A6DFBCF626FF9CF6666F1
:10023000F7CF666BF5CF6E6BF3CF606EF1CF6E6F5D
:10024000EFCF666FEDCF6C6FEBCF64E080FF60E0C7
:1002500081FD616082FD626083FF04C0686081E0AF
:100260000C94D7006061FBCF3FB7F8948091600198
:1002700090916101A0916201B091630126B5A89BA4
:1002800005C02F3F19F00196A11DB11D3FBFBA2F28
:10029000A92F982F8827BC01CD01620F711D811DE8
:1002A000911D42E0660F771F881F991F4A95D1F76D
:1002B0000895FC01892B91F08285882379F0808153
:1002C0009181A281B381892B8A2B8B2B39F081E01C
:1002D00020853185232B19F080E0089581E0089571
:1002E000FC01892B91F08285882379F080819181AE
:1002F000A281B381892B8A2B8B2B39F081E0208559
:100300003185232B19F080E0089581E00895FC01E8
:10031000892B91F08285882379F080819181A28157
:10032000B381892B8A2B8B2B39F081E02085318595
:10033000232B19F080E0089581E00895FC01892BBA
:1003400091F08285882379F080819181A281B381A7
:10035000892B8A2B8B2B39F081E020853185232B4B
:1003600019F080E0089581E00895CF93DF93FC01B8
:10037000C085D185CE010E945901811109C081E05B
:10038000488159816A817B81452B462B472B09F493
:1003900080E0DF91CF910895CF92DF92EF92FF92AC
:1003A0000F931F93CF93DF9300D0CDB7DEB78C01AF
:1003B0007B01DC011A96CD90DC90C6010E94700191
:1003C000811146C0F8018281938126E1289FA00116
:1003D000299F500D1124D60118960D911C91040FE0
:1003E000151FC8010E94B501882311F1F801C084CE
:1003F000D184C6010E94590181112DC0D8012D91CF
:100400003C91220F331FF60180859185820F931F47
:100410009801265F3F4FA801425F5F4FDC01ED91DD
:10042000FC910480F581E02DBE016F5F7F4F09953F
:1004300089819A81F701918380830F900F90DF91DA
:10044000CF911F910F91FF90EF90DF90CF90089583
:1004500010E000E0C6CF90E080E0DACF0F931F936A
:10046000CF93DF938C01FC01C085D185CE010E9422
:100470008701811112C0F801808191814AE0489F73
:100480009001499F300D112488859985820F931F13
:10049000DF91CF911F910F91089590E080E0F8CF08
:1004A0000F931F93CF93DF938C01FC01C085D185FF
:1004B000CE010E947001811112C0F80180819181EA
:1004C00046E1489F9001499F300D11248885998508
:1004D000820F931FDF91CF911F910F91089590E0AC
:1004E00080E0F8CFDC011896ED91FC9119973097D8
:1004F000D1F082858823B9F0408151816281738176
:10050000452B462B472B79F080859185009769F024
:100510004D915C916FE0649F9001659F300D1124B7
:10052000820F931F089590E080E00895EF92FF926C
:100530000F931F93CF93DF9300D0CDB7DEB78C011D
:100540000E94B5018823F1F0D8011896ED90FC9037
:10055000C7010E945901811120C0F8012081318119
:10056000220F331FD70118968D919C91820F931FF4
:10057000DC01ED91FC910480F581E02DBE016F5FFF
:100580007F4F099589819A810F900F90DF91CF91CC
:100590001F910F91FF90EF90089590E080E0E8CFD9
:1005A000CF93DF93EB0102960E9496029983888392
:1005B000DF91CF9108950E942E02FC0180819181EC
:1005C0000895CF93DF93EC010E942E02FC018481F9
:1005D0009581009729F4CE01DF91CF910C94DB0235
:1005E000DF91CF910895DC011896ED91FC91199758
:1005F0003097D1F082858823B9F0408151816281A2
:100600007381452B462B472B79F080859185009788
:1006100069F04D915C916AE0649F9001659F300D97
:100620001124820F931F089590E080E00895DC016B
:100630001896ED91FC9119973097D1F08285882317
:10064000B9F04081518162817381452B462B472B44
:1006500079F080859185009769F04D915C9165E016
:10066000649F9001659F300D1124820F931F0895A0
:1006700090E080E00895CF93DF93EC018885998521
:100680000E94870181110DC0CE010E942E0221E03F
:10069000FC0186819781A085B185892B8A2B8B2BC4
:1006A00009F020E0822FDF91CF9108950F931F93DF
:1006B000CF93DF938C01EB010E943B03282F811124
:1006C0000BC0209751F0C8010E942E0221E0488102
:1006D00059814817590709F020E0822FDF91CF9107
:1006E0001F910F9108950F931F93CF93DF93EC0108
:1006F0000E943B03811121C0CE010E942E028C0179
:10070000DC011296ED91FC91309791F4CE010E949C
:10071000E102F80193838283CE010E942E02DC0164
:1007200012968D919C91DF91CF911F910F91089519
:1007300084819581009769F7E9CF90E080E0F3CF5D
:100740000F931F93CF93DF93EC010E943B03811122
:100750001AC0CE010E942E028C01FC01828193817D
:10076000892B31F4CE010E94DB02F801938382834E
:10077000CE010E942E02FC0182819381DF91CF91F4
:100780001F910F91089590E080E0F8CF0F931F9391
:10079000CF93DF93EC0108851985C8010E949E0163
:1007A00081110CC0F8018085918528813981820FE3
:1007B000931FDF91CF911F910F91089590E080E0FA
:1007C000F8CF7F928F929F92AF92BF92CF92DF929B
:1007D000EF92FF920F931F93CF93DF937C016B01F6
:1007E000EA015901788089809A800B811C81BD8142
:1007F000FE81EF81272D382D492D502F612F7B2F22
:100800008F2F9E2FABE50E94D619C1F0A0E60E9463
:10081000D619A1F0A0E00E94D61909F081C010926B
:1008200055011092560110925701109258011092E2
:100830005A011092590181E08093540187010E5FA3
:100840001F4FC8010E94C603FC01808180FD2DC09E
:100850008BE5888319821A821B821C821D821E826C
:100860001F8210925501109256011092570110925A
:1008700058018BE590E090935A018093590182E0F2
:100880008093540181E090E0F60191838083DF91B1
:10089000CF911F910F91FF90EF90DF90CF90BF907D
:1008A000AF909F908F907F900895EEE7F0E0849155
:1008B000EAEBF0E0B490E6EAF0E0A490AA20E1F0E0
:1008C00081110E948000EA2DF0E0EE0FFF1FE85931
:1008D000FF4FA591B491EC91BE2271F0C7010C9627
:1008E0000E94C6032CE3FC012083C8010E94C603BA
:1008F000FC0190819160908380E6888319821A823E
:100900001B821C821D821E821F8210925501109232
:100910005601109257011092580180E690E0ABCF3B
:10092000F5011082118212821382188219821A82B2
:100930001B821C821D821E821F8210925501109202
:100940005601109257011092580110925A011092BC
:10095000590188E0809354018FEF9FEF95CF0F935B
:100960001F93CF93DF93EC01888599850E949E01A8
:10097000811111C06C817D818E819F8108811981D7
:100980002A813B81601B710B820B930BDF91CF910E
:100990001F910F91089560E070E0CB01F7CF8F9227
:1009A0009F92AF92BF92CF92DF92EF92FF92CF933E
:1009B000DF93EC016A017B010E94AF044B015C01F3
:1009C000CE010E94C603C814D904EA04FB0410F443
:1009D0008C0D9D1DDF91CF91FF90EF90DF90CF9018
:1009E000BF90AF909F908F9008952F923F924F921B
:1009F0005F926F927F928F929F92AF92BF92CF92AF
:100A0000DF92EF92FF920F931F93CF93DF93CDB7B7
:100A1000DEB72C970FB6F894DEBF0FBECDBF809126
:100A20004C01811117C00E9434017B018C0160933D
:100A30004401F092450180934601109347011092C2
:100A400048011092490110924A0110924B0181E035
:100A500080934C010E9434017B018C016983FA82EE
:100A60008B831C83709044018090450190904601D7
:100A7000F0904701FC86009148010B87B091490135
:100A8000F0914A01E0914B0120903C0130903D01F2
:100A900040903E0150903F0160904001A091410183
:100AA000109142011987209143012A87272D382D63
:100AB000492D5F2D602F7B2F8F2F9E2FAE2CBA805C
:100AC000CB80DC80E12CF12C00E010E00E94CD19FD
:100AD00009F008F466C09101A201662D7A2F89857C
:100AE0009A85AFEF0E94B819A72CB82CC92CDC84CA
:100AF000EB84FB2E0F2F1E2F0E94C419A980BA80F1
:100B0000CB80DC80E12CF12C00E010E00E94AF19DA
:100B100020933C0130933D0140933E0150933F01AF
:100B2000609340017093410180934201909343018F
:100B3000A0924401B0924501C0924601D092470173
:100B4000109248011092490110924A0110924B01F3
:100B500020913C0130913D0140913E0150913F0177
:100B60006091400170914101809142019091430157
:100B70002C960FB6F894DEBF0FBECDBFDF91CF919C
:100B80001F910F91FF90EF90DF90CF90BF90AF90AB
:100B90009F908F907F906F905F904F903F902F909D
:100BA00008959101A201662D7A2F89859A85A72C37
:100BB000B82CC92CDC84EB84FB2E0F2F1E2F0E9437
:100BC000C419A980BA80CB80DC80E12CF12C00E034
:100BD00010E00E94AF1920933C0130933D014093F7
:100BE0003E0150933F016093400170934101809317
:100BF000420190934301A0924401B0924501C092FA
:100C00004601D09247019CCF2F923F924F925F9224
:100C10006F927F928F929F92AF92BF92CF92DF920C
:100C2000EF92FF920F931F93CF93DF93CDB7DEB771
:100C30002A970FB6F894DEBF0FBECDBF3C012B0143
:100C40001A014901FA01D080E180F2800381148108
:100C5000B581C680B7802D2D3E2D4F2D502F612F91
:100C60007B2F8C2D9B2DA0E00E94D61929F1A2E5A7
:100C70000E94D61909F46FC0F40110821182128209
:100C80001382F10110821182128213821482158262
:100C90001682178210925501109256011092570138
:100CA0001092580110925A011092590188E08093D5
:100CB00054018FEF9FEFA1C0109255011092560181
:100CC000109257011092580110925A011092590136
:100CD00081E0809354017301F2E0EF0EF11CC70133
:100CE0000E94C6038C01FC018081811114C0630144
:100CF000FCE0CF0ED11CC6010E94C603FC0180811E
:100D000080FF97C08EE1F8018083C6010E94C60370
:100D100022E0FC012083C7010E94C603FC019081F0
:100D2000915090830E94F504A8EEAA2EB3E0BB2E4A
:100D3000C12CD12CE12CF12C00E010E00E945219C2
:100D4000DA01C90188519C4FAF4FBF4FF401808336
:100D50009183A283B3830E94F504F401A080B18043
:100D6000C280D38076016701E12CF12C8701A98232
:100D7000BA82CB82DC82ED82FE820F831887E8EE96
:100D8000AE2EF3E0BF2EC12CD12CE12CF12C00E0D3
:100D900010E00E94521959016A017B018C012981DE
:100DA0003A814B815C8160E070E080E090E00E94DD
:100DB000CD1909F008F48FCF82E5F101808311820B
:100DC00012821382148215821682178282E590E0C5
:100DD00090935A018093590188EE93E0A0E0B0E02F
:100DE0008093550190935601A0935701B0935801F9
:100DF00084E08093540181E090E0F201918380834C
:100E00002A960FB6F894DEBF0FBECDBFDF91CF910B
:100E10001F910F91FF90EF90DF90CF90BF90AF9018
:100E20009F908F907F906F905F904F903F902F900A
:100E3000089581FF08C08AE0F8018083C6010E94FE
:100E4000C60324E066CF82FF66CF8CE3F80180837F
:100E5000C6010E94C60321E0FC012083C6010E9456
:100E6000C603FC0190819860908355CF0E94AF0427
:100E7000623071058105910528F061507109810981
:100E80009109089560E070E0CB0108950F931F93DE
:100E9000CF93DF93DB012D913C91232B41F58B0107
:100EA000EC018CE090E00E94E219FC018CE0DF0193
:100EB0001D928A95E9F7D801ED93FC931882198267
:100EC0001A821B821C821D821E821F8281E090E09A
:100ED000A0E0B0E080839183A283B38385E0828722
:100EE00081E090E0DF91CF911F910F9108958FEFF6
:100EF0009FEFF8CF0F931F93CF93DF93DB012D91DB
:100F00003C91232B41F58B01EC018CE090E00E9499
:100F1000E219FC018CE0DF011D928A95E9F7D80106
:100F2000ED93FC93188219821A821B821C821D8207
:100F30001E821F8281E090E0A0E0B0E08083918378
:100F4000A283B38385E0828781E090E0DF91CF9137
:100F50001F910F9108958FEF9FEFF8CF0F931F937D
:100F6000CF93DF93DB012D913C91232B41F58B0136
:100F7000EC018CE090E00E94E219FC018CE0DF01C2
:100F80001D928A95E9F7D801ED93FC931882198296
:100F90001A821B821C821D821E821F8281E090E0C9
:100FA000A0E0B0E080839183A283B38385E0828751
:100FB00081E090E0DF91CF911F910F9108958FEF25
:100FC0009FEFF8CF8F929F92AF92BF92CF92DF9216
:100FD000EF92FF920F931F93CF93DF93DB01ED917D
:100FE000FC91EF2B09F04EC0812C912C540183947D
:100FF000211531054105510511F049015A016901D9
:101000007A018B01EC018CE090E00E94E219FC0176
:101010008CE0DF011D928A95E9F7D801ED93FC93EE
:10102000188219821A821B82CC82DD82EE82FF82B4
:1010300081E090E0A0E0B0E080839183A283B3835D
:10104000C482D582E682F78284E0828785E0B2E0BE
:101050008B169104A104B10428F4CF010B9691875B
:10106000808786E0828781E090E0DF91CF911F91B9
:101070000F91FF90EF90DF90CF90BF90AF909F9037
:101080008F9008958FEF9FEFF0CF0F931F93CF9323
:10109000DF93DC01ED91FC913097E9F140815181C2
:1010A000628173814115510561057105A1F18C01C2
:1010B000DB01CA010197A109B10980839183A28351
:1010C000B3834130510561057105D9F4F801C08140
:1010D000D181209789F088859985009769F02A85C4
:1010E000222351F020FD0E947E1A1A861986188646
:1010F000188219821A821B82D8018D919C910E94BC
:101100007E1AF8011182108281E090E0DF91CF9188
:101110001F910F9108958FEF9FEFF8CF0F931F93BB
:10112000CF93DF93DC01ED91FC913097E9F14081A1
:101130005181628173814115510561057105A1F1EC
:101140008C01DB01CA010197A109B1098083918358
:10115000A283B3834130510561057105D9F4F801CB
:10116000C081D181209789F088859985009769F0A1
:101170002A85222351F020FD0E947E1A1A861986A4
:101180001886188219821A821B82D8018D919C912F
:101190000E947E1AF8011182108281E090E0DF91B6
:1011A000CF911F910F9108958FEF9FEFF8CF0F937D
:1011B0001F93CF93DF93DC01ED91FC913097E9F120
:1011C000408151816281738141155105610571052D
:1011D000A1F18C01DB01CA010197A109B10980834A
:1011E0009183A283B3834130510561057105D9F420
:1011F000F801C081D181209789F088859985009771
:1012000069F02A85222351F020FD0E947E1A1A8659
:1012100019861886188219821A821B82D8018D912C
:101220009C910E947E1AF8011182108281E090E068
:10123000DF91CF911F910F9108958FEF9FEFF8CF1E
:10124000CF92DF92EF92FF920F931F93CF93DF9392
:10125000DB01ED91FC91EF2B51F4DF91CF911F91C8
:101260000F91FF90EF90DF90CF900C94E20769010F
:101270007A01EB018C01CB010E94D708019669F439
:10128000198218828FEF9FEFDF91CF911F910F91FD
:10129000FF90EF90DF90CF900895A7019601BE01D7
:1012A000C8010E94E207019659F381E090E0ECCF7B
:1012B000CF92DF92EF92FF92CF93DF93EB01690120
:1012C0000E9420098F3F980761F00990D881C02DB6
:1012D0008A8581FF0DC0CE010B969987888781E0B2
:1012E00090E0DF91CF91FF90EF90DF90CF90089545
:1012F000C6010E94E219F1CF0F931F93CF93DF93A2
:10130000EC018B01188219821A821B821C821D82B9
:101310001E821F8219861886BC01685F7F4F22E0FB
:1013200030E040E050E00E945809CE010E94C60320
:10133000F8012081FC012083F8012181FC01218337
:10134000DF91CF911F910F910895EF92FF920F932C
:101350001F93CF93DF93EC017B01188219821A82CD
:101360001B821C821D821E821F8219861886089687
:101370000E94D708F70100851185C8010E949E01CF
:1013800081110EC019870887F80180819181A2819F
:10139000B3810196A11DB11D80839183A283B38384
:1013A000F70180819181A281B38188839983AA8387
:1013B000BB8384819581A681B7818C839D83AE8315
:1013C000BF83DF91CF911F910F91FF90EF90089510
:1013D000CF93DF93EC0142960E94D708CE01089686
:1013E000DF91CF910C94D70822E331E0FC012193E7
:1013F0003193CF010C94E8092EE131E0FC012193F7
:101400003193CF010C94E80928E231E0FC012193EB
:101410003193CF010C94E809CF93DF93EC010E9444
:10142000FC09CE01DF91CF910C947E1ACF93DF930C
:10143000EC010E94040ACE01DF91CF910C947E1A38
:10144000CF93DF93EC010E94F409CE01DF91CF919D
:101450000C947E1AEF92FF920F931F93CF93DF931A
:10146000DB01ED91FC91309709F46DC08081918191
:10147000A281B3810097A105B10509F464C08B0175
:10148000AC01BD014150510961097109408351838B
:10149000628373830197A105B10509F040C0F8018B
:1014A000C081D1812097B1F188859985009791F10C
:1014B0002A85222379F120FF26C04C815D816E812F
:1014C0007F81452B462B472BB1F1FC0132972081C0
:1014D0003181220F331F820F931F7C01F2E0EF1A3C
:1014E000F108288539852817390751F0D701ED9182
:1014F000FC910190F081E02DC7010995C701EDCF66
:10150000C7010E947E1A1A861986188618821982C7
:101510001A821B82F801808191810E947E1AD80173
:101520001D921C9281E090E0DF91CF911F910F916D
:10153000FF90EF900895DC01ED91FC910280F38122
:10154000E02D0995E0CF8FEF9FEFEECFEF92FF9266
:101550000F931F93CF93DF934115510549F48FEFFC
:101560009FEFDF91CF911F910F91FF90EF90089522
:101570007A01EB018C0188819981892BB1F4C80132
:101580000E944607019659F3E881F98182858D7F93
:101590008287E881F981828581608287E881F9818B
:1015A000F186E08681E090E0DCCFC8010E942A0A43
:1015B000019619F419821882D2CFBE01C8010E9487
:1015C0004607019609F7F6CFBC012AE031E0FC019D
:1015D00021933193CF01665F7F4F0C942A0ACF93FA
:1015E000DF93EC010E94E40ACE01DF91CF910C94CD
:1015F0007E1AEF92FF920F931F93CF93DF93EC012C
:101600007B01BC01685F7F4F0E942A0AF7010085B9
:101610001185C8010E94590181110EC019870887E0
:10162000F80180819181A281B3810196A11DB11D34
:1016300080839183A283B383F70180819181A2810A
:10164000B38188839983AA83BB8384819581A68192
:10165000B7818C839D83AE83BF83DF91CF911F9130
:101660000F91FF90EF9008950F931F93CF93DF9307
:10167000EC018B01188219821A821B821C821D8246
:101680001E821F82198618860E94F90A1A861B86F6
:101690001C861D861E861F86188A198A1B8A1A8A2E
:1016A000CE0142960E948E08D8015296ED91FC918F
:1016B0003097E1F082858823C9F080819181A281F1
:1016C000B381892B8A2B8B2B89F080859185892B7F
:1016D00069F0FB8BEA8B80819181A281B3810196B5
:1016E000A11DB11D80839183A283B383F8018285FC
:1016F0009385A485B5858A879B87AC87BD878685BA
:101700009785A089B1898E879F87A88BB98BDF9138
:10171000CF911F910F910895CF93DF93EC014296E3
:101720000E948E08BE01685F7F4FCE01DF91CF918E
:101730000C942A0AEF92FF920F931F93CF93DF939B
:10174000DB01ED91FC91309709F46DC080819181AE
:10175000A281B3810097A105B10509F464C08B0192
:10176000AC01BD01415051096109710940835183A8
:10177000628373830197A105B10509F040C0F801A8
:10178000C081D1812097B1F188859985009791F129
:101790002A85222379F120FF26C04C815D816E814C
:1017A0007F81452B462B472BB1F1FC0132972081DD
:1017B0003181220F331F820F931F7C01F2E0EF1A59
:1017C000F108288539852817390751F0D701ED919F
:1017D000FC910190F081E02DC7010995C701EDCF83
:1017E000C7010E947E1A1A861986188618821982E5
:1017F0001A821B82F801808191810E947E1AD80191
:101800001D921C9281E090E0DF91CF911F910F918A
:10181000FF90EF900895DC01ED91FC910280F3813F
:10182000E02D0995E0CF8FEF9FEFEECFEF92FF9283
:101830000F931F93CF93DF93EC018B01BC01685F83
:101840007F4F0E949A0BF801E084F184C7010E9447
:101850005901811105C0F986E886F80111861086C4
:10186000F80180819181A281B38188839983AA83C1
:10187000BB8384819581A681B7818C839D83AE8350
:10188000BF83DF91CF911F910F91FF90EF9008954B
:101890000F931F93CF93DF938B01FC011082118272
:1018A0001282138214821582168217821186108684
:1018B000BC01685F7F4F0115110531F4DF91CF91B5
:1018C0001F910F910C949A0BEC010E944607019610
:1018D00071F0E885F98582858D7F8287E885F985B5
:1018E000828581608287E885F98511870087DF918D
:1018F000CF911F910F910895EF92FF920F931F9335
:10190000CF93DF93DB01ED91FC91309709F470C028
:1019100080819181A281B3810097A105B10509F46D
:1019200067C08B01AC01BD014150510961097109CA
:1019300040835183628373830197A105B10509F048
:1019400043C0F801C081D1812097C9F1E884F984AE
:10195000E114F104A1F18A85882389F180FF28C070
:101960008C819D81AE81BF81892B8A2B8B2BC1F10C
:10197000F70132972081318146E1429FC001439FA8
:10198000900D11248E0D9F1D288539857C01F6E16F
:10199000EF1AF1082817390741F0BC016E507109A0
:1019A000C7010E949A0BC701EFCF02970E947E1ACF
:1019B0001A8619861886188219821A821B82D80103
:1019C0008D919C910E947E1AF8011182108281E013
:1019D00090E0DF91CF911F910F91FF90EF900895CC
:1019E000B701685F7F4FC7010E949A0BC701DECF26
:1019F0008FEF9FEFEECFBC01685F7F4F0C947C0CA4
:101A000024E131E0FC0121933193CF010C94FB0CD4
:101A1000CF93DF93EC010E94000DCE01DF91CF91B7
:101A20000C947E1AEF92FF920F931F93CF93DF9344
:101A3000EC017B010E94FB0CF70100851185C801B8
:101A40000E94700181110EC019870887F8018081FA
:101A50009181A281B3810196A11DB11D80839183E3
:101A6000A283B383F70180819181A281B3818883AE
:101A70009983AA83BB8384819581A681B7818C8356
:101A80009D83AE83BF83DF91CF911F910F91FF9014
:101A9000EF9008950F931F93CF93DF938B01FC0179
:101AA000108211821282138214821582168217828A
:101AB00011861086BC01685F7F4F0115110531F456
:101AC000DF91CF911F910F910C947C0CEC010E943F
:101AD0004607019671F0E885F98582858D7F8287BA
:101AE000E885F985828581608287E885F985118797
:101AF0000087DF91CF911F910F910895AF92BF9210
:101B0000CF92DF92EF92FF920F931F93CF93DF93C9
:101B10008C01EB010E943B03811170C0209709F0FA
:101B200067C0C8010E94E102EC01EA80FB80CC8022
:101B3000DD80C8010E942E02E114F10419F4FC01B9
:101B4000D582C482C8010E942E02C114D10419F4A6
:101B5000FC01F182E082C8010E942E025C01FC01BE
:101B6000828193818C179D0771F4C8010E943B0309
:101B7000811109C0209709F04CC0C8010E94DB0206
:101B8000F50182839383C114D10419F0F601F38225
:101B9000E282EA81FB81309711F0D582C4821982FA
:101BA0001882C8010E942E02FC014681578160857F
:101BB00071854150510961097109468357836087D6
:101BC00071871B821A821D821C822097B9F0CE0178
:101BD00006960E948C0BCE01DF91CF911F910F9141
:101BE000FF90EF90DF90CF90BF90AF900C947E1A53
:101BF000BE01C8010E945603811197CFDF91CF919A
:101C00001F910F91FF90EF90DF90CF90BF90AF901A
:101C10000895E114F10409F4B0CFC701B1CFEF92F8
:101C2000FF920F931F93CF93DF93EC01E884F98425
:101C3000C7010E9487018E01085F1F4F811109C0F3
:101C4000F70180819181A281B3810297A105B1053D
:101C500058F4CE010E943B03811106C070E060E0A1
:101C6000CE010E947E0DF5CFC801DF91CF911F916B
:101C70000F91FF90EF900C944508CF92DF92EF9276
:101C8000FF920F931F93CF93DF93DB01ED91FC91B4
:101C9000309709F46BC080819181A281B381009754
:101CA000A105B10509F462C08B01AC01BD01415031
:101CB00051096109710940835183628373830197DC
:101CC000A105B10509F03FC0F801C081D18120977D
:101CD000A9F1C884D984C114D10481F18A858823EB
:101CE00069F180FF24C08C819D81AE81BF81892BE9
:101CF0008A2B8B2BB1F1F6013297808191812AE0FA
:101D0000289F7001299FF00C1124EC0CFD1C9701F9
:101D100088859985FAE0EF1AF1088217930721F078
:101D2000C7010E940F0EF3CF02970E947E1A1A86F7
:101D300019861886188219821A821B82D8018D9101
:101D40009C910E947E1AF8011182108281E090E03D
:101D5000DF91CF911F910F91FF90EF90DF90CF9087
:101D60000895C6010E940F0EC601DFCF8FEF9FEFCF
:101D7000EFCFEF92FF920F931F93CF93DF93DB018F
:101D8000ED91FC91309709F470C080819181A2811E
:101D9000B3810097A105B10509F467C08B01AC01BF
:101DA000BD0141505109610971094083518362832A
:101DB00073830197A105B10509F04BC0F801C081FB
:101DC000D181209709F440C0E884F984E114F1043A
:101DD000D9F18A858823C1F180FF2FC08C819D8134
:101DE000AE81BF81892B8A2B8B2BE9F0F7013297CB
:101DF000808191814FE0489F9001499F300D1124CF
:101E00002E0D3F1D488559857901FFE0EF1AF10835
:101E1000C90102974217530771F0BC0108970E944D
:101E20003D0E9701EFCFB701635F7F4FC701059666
:101E30000E943D0EC7010E947E1A1A8619861886D6
:101E4000188219821A821B82D8018D919C910E945E
:101E50007E1AF8011182108281E090E0DF91CF912B
:101E60001F910F91FF90EF9008958FEF9FEFF6CFA6
:101E7000CF92DF92EF92FF920F931F93CF93DF9356
:101E80008FE090E00E94E219EC018FE0DE011D92EC
:101E90008A95E9F76E01B5E0CB0ED11C8AE090E09F
:101EA0000E94E2198C018AE090E00E94E2197C0114
:101EB0008AE0F70111928A95E9F7D8011D921D92E7
:101EC0001D921C921397F8011482158216821782B4
:101ED00011861086C8010896E114F104D1F50E941C
:101EE00045081D821E821F82188619861A861B8647
:101EF0001C861E861D86BE01635F7F4FC6010115CD
:101F0000110509F041C00E943D0E10926C01109223
:101F10006D0110926E0110926F011092700110927B
:101F2000710110927201109273011092750110925A
:101F3000740164E771E08CE691E02097C9F5DF91C8
:101F4000CF911F910F91FF90EF90DF90CF900C9465
:101F5000B90EBC01C8010E947A07019611F2D8019E
:101F60001896ED91FC91199782858D7F828718963E
:101F7000ED91FC9119978285816082871896ED9189
:101F8000FC91F186E086ADCF0E944607019609F4E8
:101F9000BCCFED85FE8582858D7F8287ED85FE85B0
:101FA000828581608287ED85FE8511870087ADCFB0
:101FB0000E944607019651F0E0917401F09175017D
:101FC00082858D7F81608287D187C087DF91CF91A5
:101FD0001F910F91FF90EF90DF90CF90089564E7ED
:101FE00071E08CE691E00C94B90E2F923F924F92E3
:101FF0005F926F927F928F929F92AF92BF92CF9299
:10200000DF92EF92FF920F931F93CF93DF93CDB7A1
:10201000DEB7CE55D1090FB6F894DEBF0FBECDBFE7
:102020006C011B018A015901FA0170808180928044
:10203000E380F480B58166805780272D382D492DA7
:102040005E2D6F2D7B2F862D952DA0E00E94D61939
:1020500021F1A6E70E94D61979F1F50110821182CB
:1020600012821382F801108211821282138214826A
:102070001582168217821092550110925601109205
:1020800057011092580110925A011092590188E09C
:10209000809354018FEF9FEF0FC210925501109261
:1020A0005601109257011092580110925A01109245
:1020B000590181E080935401C60102960E94C60333
:1020C000FC0180811F928F9388E391E09F938F930F
:1020D0001F9280E48F93CE0101967C019F938F9392
:1020E0000E94101B4C012C01990F66087708699615
:1020F0001CAE1DAE1EAE1FAE69976D961CAE1DAE1A
:102100001EAE1FAE6D976F961FAE1EAE6F970FB6C9
:10211000F894DEBF0FBECDBF85E590E041145104B9
:102120006104710409F4CBC0FFEF4F1A5F0A6F0A14
:102130007F0A25961CAE1DAE1EAE1FAE25972996B2
:102140001CAE1DAE1EAE1FAE29972B961FAE1EAE47
:102150002B9761E470E06C0F7D1F685F7F4F411427
:1021600051046104710409F0CCC020E030E0A90101
:10217000CE018F5B9F4F0E9420090196F1F02B96B4
:10218000AEACBFAC2B97F501828581FF0DC0C501B8
:102190000B96918780872B96EEADFFAD2B97008431
:1021A000F185E02D108209C081E090E00E94E219E3
:1021B000FC011082F50191878087CE018F5B9F4FD4
:1021C0000E94C603A401B7010E94071B2F961CAEF4
:1021D0001DAE1EAE1FAE2F9763961CAE1DAE1EAE7B
:1021E0001FAE639765961FAE1EAE65978BE490E0B9
:1021F0008C0F9D1F08960E94D7082B96AEACBFACE3
:102200002B97C5010E949E01811108C06596BFAE43
:10221000AEAE65972B961FAE1EAE2B9725968CAD56
:102220009DADAEADBFAD25972F968CAF9DAFAEAF38
:10223000BFAF2F9729968CAD9DADAEADBFAD2997A1
:1022400063968CAF9DAFAEAFBFAF639781E490E074
:102250008C0F9D1F08960E94D70885E590E08C0F93
:102260009D1F08960E94D7086596AEACBFAC6597D7
:10227000C5010E949E01811108C06F96BFAEAEAE2F
:102280006F9765961FAE1EAE65972F968CAD9DAD70
:10229000AEADBFAD2F9769968CAF9DAFAEAFBFAF60
:1022A000699763968CAD9DADAEADBFAD63976D96EE
:1022B0008CAF9DAFAEAFBFAF6D978BE490E08C0F4E
:1022C0009D1F08960E94D708CE018B5A9F4F0E94EF
:1022D000C6035C01CE018B5A9F4F0E94C6034C017E
:1022E000CE018B5A9F4F0E943607680D791DA616A6
:1022F000B70609F453C0F5018081805381935F01D3
:10230000F6CFA3019201CE018F5B9F4F0E9420095F
:10231000019661F02B96AEACBFAC2B97F501828590
:1023200081FF1DC0C5010B96918780872B96AEACAF
:10233000BFAC2B97C5010E949E0181113ECFCE01FB
:102340008F5B9F4F0E94AF04672B682B692B81F432
:10235000CE018F5B9F4F0E94C603FC0123CFC201B9
:10236000009711F481E090E00E94E219F501DCCFC2
:10237000F501A084B18427968EAD9FAD2797A80E56
:10238000B91ECE018F5B9F4F0E94C6038A159B0525
:1023900009F413CFFC011192CF01F8CFCE018B5A73
:1023A0009F4F0E943607623071058105910509F043
:1023B000A0C040E050E0BA01CE018B5A9F4F0E946E
:1023C000CF04FC01808122968FAF229741E050E03C
:1023D00060E070E0CE018B5A9F4F0E94CF04FC0159
:1023E000808123968FAF2397BE016F5B7F4FC7011C
:1023F0000E947C0985E590E08C0F9D1F08960E9445
:10240000D70860E08AE00E94A900FCE0CF0ED11C52
:10241000C6010E94C603FC0180810E94250140E0A4
:1024200050E0BA01C7010E94CF04FC01808160E046
:1024300090E00E94FB0061E08AE00E94A90060E059
:102440008AE00E94A900C6010E94C603FC018081A7
:102450000E94250141E050E060E070E0C7010E9469
:10246000CF04FC01808161E090E00E94FB0061E00C
:102470008AE00E94A900CE0109960E94D70886E74B
:10248000F8018083118212821382148215821682CF
:102490001782109255011092560110925701109216
:1024A000580186E790E090935A018093590182E0A9
:1024B0008093540181E090E0F10191838083C25ABE
:1024C000DF4F0FB6F894DEBF0FBECDBFDF91CF91C7
:1024D0001F910F91FF90EF90DF90CF90BF90AF9042
:1024E0009F908F907F906F905F904F903F902F9034
:1024F000089522961FAE229740E050E0BA016ACFBD
:102500006F927F928F929F92AF92BF92CF92DF9203
:10251000EF92FF920F931F93CF93DF93CDB7DEB768
:10252000C055D1090FB6F894DEBF0FBECDBF7C01F8
:102530008B0180916401811105C00E94380F81E0F8
:10254000809364012B961CAE1DAE1EAE1FAE2B9762
:102550002F961CAE1DAE1EAE1FAE2F9761961FAEFE
:102560001EAE6197B801CE01895B9F4F0E94120D8C
:102570008CE691E00E9472023C0121961CAE1DAED9
:102580001EAE1FAE219725961CAE1DAE1EAE1FAE11
:10259000259727961FAE1EAE2797BE01695B7F4F1A
:1025A000CE01CD960E94120DD7011D921D921D9253
:1025B0001C921397F70114821582168217821186D6
:1025C0001086B701685F7F4FC7010E94AE07019672
:1025D000C1F0D70118960D911C911997F8018285C9
:1025E00081FF72C1C8010B96918780871896ED9183
:1025F000FC910084F185E02D1082128211821482F8
:1026000013828CE090E00E94E2198C0184E191E059
:10261000F8019183808312821382148215821682BC
:1026200017821086118613861286BE01635C7F4F67
:10263000C80102960E94120D1BAA1CAA1DAA1EAA5E
:102640001FAA18AE19AE1AAE1CAE1BAE01151105AD
:1026500009F04AC1BE01655C7F4FCE01C3960E945E
:102660002A0AF5E06F0E711CC3010E94F3028C016F
:1026700019A61AA61BA61CA61DA61EA61FA618AA4A
:102680001AAA19AABE016D5C7F4FCE0189960E94DD
:10269000F90A8CE090E00E94E2196C018AE091E076
:1026A000D60111969C938E93F601128213821482A6
:1026B000158216961D921D921D921C9219971B96BB
:1026C0001C921E921A97BE01675D7F4FC60102964B
:1026D0000E94F90A1D8A1E8A1F8A188E198E1A8E68
:1026E0001B8E1C8E1E8E1D8EC114D10409F005C1D7
:1026F000BE01635E7F4FCE0145960E942A0A1F8E5F
:1027000018A219A21AA21BA21CA21DA21EA218A6E0
:102710001FA2CE0187960E948E08D7011896ED91D0
:10272000FC913097E1F082858823C9F08081918106
:10273000A281B381892B8A2B8B2B89F0808591858F
:10274000892B69F0F8A7EFA380819181A281B381E1
:102750000196A11DB11D80839183A283B383F701EC
:1027600080819181A281B3818F8F98A3A9A3BAA3FD
:1027700084819581A681B7818BA39CA3ADA3BEA3C1
:10278000C8010E94DB025C01C8010E943B03882350
:1027900009F4BCC0BE016B5E7F4FCE0101960E9462
:1027A000340B8AE190E00E94E2196C01DC01119681
:1027B0001C921E9213961C921E92129715961C92B2
:1027C0001E921497BE016F5F7F4F06960E94340BD6
:1027D000C8010E942E02FC01D182C082CE01019666
:1027E0000E948C0BC8010E942E02DC01ED91FC912D
:1027F00091838083C8010E942E026C01C8010E944F
:10280000DB02F60195838483C8010E942E02FC013D
:1028100046815781608571854F5F5F4F6F4F7F4F56
:102820004683578360877187CE0145960E948C0B43
:10283000BE016F5C7F4FCE0189960E942A0AC301B8
:102840000E94F3026C01C7010E9417038C01C601AC
:102850000E94DB02F80192838183C7010E94170363
:1028600021E0DC012C93C7010E9417038C01C301F6
:102870000E94F302F80194838383BE01655C7F4F5D
:10288000CE01C3960E942A0ACE01CD960E94FB0C6F
:10289000CE01895B9F4F0E94FB0CC701C05BDF4FDD
:1028A0000FB6F894DEBF0FBECDBFDF91CF911F9161
:1028B0000F91FF90EF90DF90CF90BF90AF909F90DF
:1028C0008F907F906F90089585E090E00E94E219CC
:1028D000FC0110821282118214821382D80119968F
:1028E0009C938E9318978DCEA801BE01655C7F4F97
:1028F000CE01C3960E94A60AB4CEA601BE01635EB5
:102900007F4FCE0145960E94A60AF9CEB501C801B7
:102910000E945603BE016B5E7F4F882309F44EC0B0
:10292000CE0101960E94340B8AE190E00E94E219E8
:102930006C01DC0111961C921E9213961C921E9241
:10294000129715961C921E921497BE016F5F7F4FCF
:1029500006960E94340BCE0101960E948C0BC80192
:102960000E942E02F60191838083D50114968D90EA
:102970009C90958284828114910419F0F401D38291
:10298000C282D50112968D919C91892B31F4C80198
:102990000E942E02FC01B582A482892831F4C8016C
:1029A0000E942E02DC01CD92DC92F601B382A2825B
:1029B000D5011596DC92CE92149726CFCE010196C2
:1029C0000E94340B8AE190E00E94E2196C01FC0144
:1029D000118210821382128215821482BE016F5FEF
:1029E0007F4F06960E94340BCE0101960E948C0BFD
:1029F000C8010E942E02D6018D939C93C8010E94AB
:102A0000E1025C01FC0184819581892B31F4C801CC
:102A10000E942E02DC01AD92BC92F601828193816C
:102A2000892B41F4C8010E942E02DC011596DC922C
:102A3000CE921497F601B582A482D5011396DC924A
:102A4000CE921297E1CECF92DF92EF92FF920F9348
:102A50001F93CF93DF93EC016B017C0128E0E20E22
:102A6000F11C672BB9F4188219821A821B821C820E
:102A70001D821E821F8219861886C7010E94D708F0
:102A8000CE01DF91CF911F910F91FF90EF90DF90DA
:102A9000CF90089581E090E00E94E2198C01F60148
:102AA0008081F8018083188219821A821B821C821D
:102AB0001D821E821F821986188601151105E9F2F2
:102AC00020E030E0A901B701CE010E942009019663
:102AD000B9F2E885F98582858D7F8287E885F98559
:102AE000828581608287E885F98511870087C8CF54
:102AF0001F920F920FB60F9211242F933F938F9333
:102B00009F93AF93BF9380915C0190915D01A091E1
:102B10005E01B0915F0130915B0123E0230F2D37FF
:102B200058F50196A11DB11D20935B0180935C01B6
:102B300090935D01A0935E01B0935F01809160016D
:102B400090916101A0916201B09163010196A11D74
:102B5000B11D8093600190936101A0936201B093D5
:102B60006301BF91AF919F918F913F912F910F90F2
:102B70000FBE0F901F90189526E8230F0296A11DF7
:102B8000B11DD2CFCF93DF93CDB7DEB7C055D109FA
:102B90000FB6F894DEBF0FBECDBF789484B58260C7
:102BA00084BD84B5816084BD85B5826085BD85B5F1
:102BB000816085BD80916E00816080936E0010926F
:102BC00081008091810082608093810080918100EA
:102BD000816080938100809180008160809380007B
:102BE0008091B10084608093B1008091B0008160D9
:102BF0008093B00080917A00846080937A00809105
:102C00007A00826080937A0080917A00816080935C
:102C10007A0080917A00806880937A001092C100D7
:102C200081E090E00E94E21924E0FC012083BC01D5
:102C3000CE01895B9F4F0E94231581E090E00E94A6
:102C4000E219FC011082BC01CE01CD960E94231531
:102C50001BAA1CAA1DAA1EAA1FAA18AE19AE1AAE3C
:102C60001CAE1BAE23E030E040E050E0BE01655CEE
:102C70007F4FCE01C3960E945809CE01C3960E9491
:102C8000C603FC018BE080838AE0818389E0828334
:102C900019A61AA61BA61CA61DA61EA61FA618AA24
:102CA0001AAA19AA21E030E040E050E0BE016F5CB2
:102CB0007F4FCE0189960E945809CE0189960E94C5
:102CC000C6032CE0FC012083CE0189960E94C60336
:102CD0007C0109A91AA9C8010E949E0130E020E0E8
:102CE000811107C0F801208531858DA59EA5280F8B
:102CF000391FD7012A173B0731F18D9190E0FC0174
:102D0000E255FF4F449186569F4FFC0184918823E2
:102D100089F390E0880F991FFC01E057FF4F659100
:102D20007491FC01EA57FF4F059114919FB7F894F5
:102D3000FB018081409584238083F8018081842376
:102D400080839FBFD7CFCE01C3960E94C6037C016C
:102D50000BAD1CADC8010E949E0130E020E0811146
:102D600007C0F801208531858FA998AD280F391F3C
:102D7000D7012A173B0709F18D9190E0FC01E2553C
:102D8000FF4F649186569F4FFC018491882389F3FD
:102D900090E0880F991FFC01E057FF4F4591549137
:102DA000FC01EA57FF4F859194918FB7F894FA018F
:102DB0009081962B90838FBFDCCFBE01635C7F4FE9
:102DC000CE0101960E94A509BE01695B7F4FCE012D
:102DD0000B960E94A50986E190E00E94E2198C0101
:102DE00036E1F32EFC012F2D11922A95E9F770E0C0
:102DF00060E00E94480CF80112861386148615863E
:102E000016861786108A118A128A138A148A158ADE
:102E1000B801CE014F960E944A0D86E190E00E94D3
:102E2000E2198C012EE131E0FC0121933193CF01B5
:102E3000BE016F5F7F4F0E94A509BE01655F7F4F96
:102E4000C8010C960E94A509B801CE0145960E94C2
:102E5000480CCE014F960E945002BE016B5E7F4F20
:102E60000E94160CBE01635E7F4FCE0145960E9404
:102E70009A0BBE01615E7F4FCE0145960E94801283
:102E8000CE014D960E948E08CE014F960E94FB0CFB
:102E9000CE0101960E94E809BE01695B7F4FCE0119
:102EA00001960E94A509BE01635C7F4FCE010B967F
:102EB0000E94A50986E190E00E94E2198C01FC01C4
:102EC0002F2D11922A95E9F770E060E00E94480CDE
:102ED000F801128613861486158616861786108AC0
:102EE000118A128A138A148A158AB801CE014F9664
:102EF0000E944A0D86E190E00E94E2198C0128E2CE
:102F000031E0FC0121933193CF01BE016F5F7F4F10
:102F10000E94A509BE01655F7F4FC8010C960E9403
:102F2000A509B801CE0145960E94480CCE014F96E6
:102F30000E945002BE016B5E7F4F0E94160CBE01C4
:102F4000635E7F4FCE0145960E949A0BBE01615E83
:102F50007F4FCE0145960E948012CE014D960E9471
:102F60008E08CE014F960E94FB0CCE0101960E9466
:102F7000E809BE01635C7F4FCE0101960E94A5095E
:102F8000BE01695B7F4FCE010B960E94A50986E1C9
:102F900090E00E94E2198C01FC011192FA94E9F789
:102FA00070E060E00E94480CF801128613861486D7
:102FB000158616861786108A118A128A138A148A31
:102FC000158AB801CE014F960E944A0D86E190E025
:102FD0000E94E2198C0122E331E0FC01219331933C
:102FE000CF01BE016F5F7F4F0E94A509BE01655FE3
:102FF0007F4FC8010C960E94A509B801CE014596E5
:103000000E94480CCE014F960E945002BE016B5E9A
:103010007F4F0E94160CBE01635E7F4FCE01459626
:103020000E949A0BBE01615E7F4FCE0145960E94C1
:103030008012CE014D960E948E08CE014F960E94BE
:10304000FB0CCE0101960E94E809CE01C1960E94B8
:10305000D708CE01CB960E94D7088DE390E08C0F65
:103060009D1F08960E94D70887E490E08C0F9D1F53
:1030700008960E94D70888248A94982C540154E01A
:10308000252E3324339480916401811104C00E9461
:10309000380F309264018CE691E00E9472028C013C
:1030A0000B5F1F4FC8010E94F3027C010E943B038B
:1030B00081112BC0C7010E94A003892B31F1C801E7
:1030C0000E94F3020E94A0036C01C8010E94F30257
:1030D0000E94A003FC018481958166246A94762C69
:1030E000892B19F066246394712C7601F0E1EF0EC0
:1030F000F11CC7010E941703FC01908191FF77C06A
:10310000C8010E94F3020E9473038CE691E00E94C2
:103110007202FC019081906490838CE691E00E94A1
:103120007202FC014181528163817481452B462BDF
:10313000472B21F011821282138214828CE691E0D7
:103140000E9472028C0105960E94F3027C010E948B
:103150003B0381110CC0C7010E942E02FC01868135
:103160009781A085B185892B8A2B8B2BD1F4E09197
:103170007401F09175013097A1F08285882389F060
:1031800080819181A281B3810097A105B10549F0A9
:1031900020853185232B29F00297A105B10508F080
:1031A00060C0F801C180D280E380F4800E943401C5
:1031B0002B013C01C114D104E104F10409F458C00D
:1031C0000E9434016419750986099709683E7340A5
:1031D0008105910578F3F1E0CF1AD108E108F108F3
:1031E00028EE420E23E0521E611C711CE3CF92FFB9
:1031F0000EC0C8010E94F302B6010E947E0D80E05D
:1032000090E0892B09F43FCF0E9400003CCF9260F0
:103210009083C60106960E9496026C01C8010E9426
:10322000F3020E943B03811112C02FEFC216D20697
:1032300091F0CD2861F0C7010E941703FC01908135
:103240009D7F9083C8010E94F3020E9473036A94D9
:103250006728A9F25ACFC7010E941703FC012082F8
:10326000F6CF88EEC82E83E0D82EE12CF12C9ECF2D
:103270008CE691E00E947202FC0181829282A3821C
:10328000B4828CE691E00E947202FC0190819F7BE7
:103290009083B5CFEE0FFF1F0590F491E02D0994B8
:1032A000689401C0E8948F929F92CF93DF930E941D
:1032B0005E19DF91CF919F908F9008958824992473
:1032C000F401E401B0E49F93AA279A158B049C04AF
:1032D000ED05FE05CF05D007A10798F4AD2FDC2F33
:1032E000CF2FFE2FE92D982C892E982F872F762F00
:1032F000652F542F432F322F2227B85031F7BF911B
:1033000027C01B2EBF91BB27220F331F441F551F01
:10331000661F771F881F991F881C991CEE1FFF1FAF
:10332000CC1FDD1FAA1FBB1F8A149B04EC05FD05E3
:10333000CE05DF05A007B10748F08A189B08EC0905
:10334000FD09CE09DF09A00BB10B21601A94E1F64B
:103350002EF49401AF01BE01CD01000C08952A0D99
:103360003B1D4C1D5D1D6E1D7F1D801F911F08950F
:103370000024A7FD00942A0F301D401D501D601D24
:10338000701D801D901D08952A193B094C095D0987
:103390006E097F09800B910B08952A153B054C059A
:1033A0005D056E057F058007910708950024A7FD40
:1033B00000942A173005400550056005700580050A
:1033C000900508950F931F93CF93DF93823091055B
:1033D00010F482E090E0E0917801F091790130E022
:1033E00020E0B0E0A0E0309799F42115310509F410
:1033F0004AC0281B390B24303105D8F58A819B81BE
:103400006115710589F1FB0193838283FE0111C06F
:10341000408151810281138148175907E0F0481714
:10342000590799F4109761F012960C93129713961E
:103430001C933296CF01DF91CF911F910F91089588
:103440000093780110937901F4CF2115310551F0E3
:103450004217530738F0A901DB019A01BD01DF01D2
:10346000F801C1CFEF01F9CF9093790180937801F2
:10347000CDCFFE01E20FF31F8193919322503109CA
:1034800039832883D7CF2091760130917701232B80
:1034900041F4209102013091030130937701209390
:1034A000760120910001309101012115310541F48F
:1034B0002DB73EB74091040150910501241B350BF7
:1034C000E0917601F0917701E217F307A0F42E1B4B
:1034D0003F0B2817390778F0AC014E5F5F4F241778
:1034E000350748F04E0F5F1F5093770140937601E8
:1034F000819391939FCFF0E0E0E09CCFCF93DF9357
:103500000097E9F0FC01329713821282A0917801B2
:10351000B0917901ED0130E020E01097A1F4208115
:103520003181820F931F2091760130917701281706
:10353000390709F061C0F0937701E0937601DF91DC
:10354000CF910895EA01CE17DF07E8F54A815B8144
:103550009E0141155105B1F7E901FB83EA834991C9
:103560005991C40FD51FEC17FD0761F4808191813B
:103570000296840F951FE901998388838281938144
:103580009B838A83F0E0E0E012968D919C911397E3
:103590000097B9F52D913C911197CD010296820FBC
:1035A000931F20917601309177012817390739F65A
:1035B000309751F51092790110927801B09377010C
:1035C000A0937601BCCFD383C28340815181840F05
:1035D000951FC817D90761F44E5F5F4F88819981A5
:1035E000480F591F518340838A819B819383828333
:1035F0002115310509F0B0CFF0937901E0937801FE
:103600009ECFFD01DC01C0CF13821282D7CFFB0118
:10361000DC0102C001900D9241505040D8F708954E
:10362000AEE0B0E0E6E1FBE10C94CC1D0D891E8913
:103630008F89988D26E02C831A83098397FF02C017
:1036400080E090E801979E838D83AE01455E5F4FD9
:10365000698D7A8DCE0101960E94401B4D815E815D
:1036600057FD0AC02F813885421753070CF49A0181
:10367000020F131FF80110822E96E4E00C94E81D4F
:10368000ABE0B0E0E6E4FBE10C94BE1D7C013B0145
:103690008A01FC0117821682838181FFC8C1CE0195
:1036A00001965C01F7019381F30193FD859193FFEE
:1036B00081913F01882309F453C1853239F493FD88
:1036C000859193FF81913F01853229F4B70190E004
:1036D0000E94301DE7CF912C212C312CFFE1F315F6
:1036E00038F08B3211F190F4803209F1833229F1F4
:1036F00037FC3CC020ED280F2A3050F536FE20C0A4
:103700008AE0989E200D1124922E06C08D3291F0F1
:10371000803371F7689430F8F30193FD859193FF3E
:1037200081913F018111DACF21C0689431F868940A
:1037300032F8F2CF689433F8EFCF689434F8ECCFD6
:10374000EAE02E9E200D1124222E689435F8E4CF55
:103750008E3229F436FC04C1689436F8DDCF8C36FD
:1037600019F4689437F8D8CF8836B1F2982F9F7D36
:1037700095549330E0F08336A1F18337C1F183355E
:1037800009F063C02801F2E04F0E511CF801C0801F
:10379000D180692D70E036FC02C06FEF7FEFC6016B
:1037A0000E941A1D4C01689437F882010AC00C5F10
:1037B0001F4FFFE3F98388248394912C6501E894DB
:1037C00037F833FE2DC0522C8114910471F5552029
:1037D00009F468CFB70180E290E00E94301D5A944E
:1037E000F6CFF801808189830E5F1F4FE4CF280157
:1037F000F2E04F0E511CF801C080D180692D70E0BD
:1038000036FC02C06FEF7FEFC6010E94251D4C0100
:103810008201D5CFB70180E290E00E94301D2A944A
:103820002814190409F0B0F7CECFF60137FC8591C2
:1038300037FE81916F01B70190E00E94301D511059
:103840005A94F1E08F1A9108BFCF843619F0893667
:1038500009F077C0F80137FE6BC060817181828109
:1038600093810C5F1F4FF32DFF763F2E97FF09C00A
:1038700090958095709561957F4F8F4F9F4F68947D
:1038800037F82AE030E0A5010E94601DC82ECA1852
:103890008C2C432C36FE0CC0E89440F8C91440F43C
:1038A00034FE05C032FC03C0F32DFE7E4F2E892C62
:1038B00044FE95C0FE01EC0DF11D8081803309F0BE
:1038C00087C0242D297E422E842D8870582E43FCDB
:1038D00095C040FE8FC09C2C821418F42C0C922CA6
:1038E000981844FE91C0B70180E390E00E94301D1B
:1038F00042FE09C088E790E041FE02C088E590E002
:10390000B7010E94301DC91408F48AC0CA94D12C92
:103910009FEFC91AD90ACA0CDB1CF60182916F010C
:10392000B70190E00E94301DAC14BD04B1F74FCF39
:1039300060817181072E000C880B990B0E5F1F4F61
:1039400092CFD32CE894D4F82AE030E0853739F1CF
:10395000232D297FD22E8F3601F148F48835A9F026
:10396000F701868197812B96E2E10C94DA1D80376E
:1039700049F08837A9F7D4FE02C06894D2F820E154
:1039800030E00DC06894D4F8F6CF34FE03C0822F27
:103990008660D82E20E132E002C028E030E0F80155
:1039A000D7FE0FC060817181828193810C5F1F4FB0
:1039B000A5010E94601DC82ECA183D2CE89437F856
:1039C00067CF6081718190E080E00E5F1F4FF0CF84
:1039D00042FC02C0839478CF8394839475CF842D66
:1039E000867809F471CFF6CFB70180E290E00E94AB
:1039F000301D83948214C0F3512C73CF522C58186D
:103A0000821408F46ECFF8CF842D867809F47BCF2A
:103A10008BE241FE80E247FC8DE2B70190E071CF7E
:103A2000B70180E390E00E94301D9A946CCF8FEF35
:103A30009FEF99CFFC010590615070400110D8F7BD
:103A4000809590958E0F9F1F0895FC0161507040E6
:103A500001900110D8F7809590958E0F9F1F0895C3
:103A60000F931F93CF93DF93182F092FEB018B81B7
:103A700081FD09C01FEF0FEF812F902FDF91CF91B4
:103A80001F910F91089582FF14C02E813F818C8178
:103A90009D81281739073CF4E881F981CF0101960F
:103AA0009983888310838E819F8101969F838E8363
:103AB000E3CFE885F985812F0995892BA1F3DACF2A
:103AC000FA01AA27283051F1203181F1E8946F934F
:103AD0006E7F6E5F7F4F8F4F9F4FAF4FB1E03ED0F5
:103AE000B4E03CD0670F781F891F9A1FA11D680F93
:103AF000791F8A1F911DA11D6A0F711D811D911DC6
:103B0000A11D20D009F468943F912AE0269F11243A
:103B10003019305D3193DEF6CF010895462F47709E
:103B2000405D4193B3E00FD0C9F7F6CF462F4F70F9
:103B3000405D4A3318F0495D31FD4052419302D057
:103B4000A9F7EACFB4E0A6959795879577956795FD
:103B5000BA95C9F700976105710508959B01AC01FD
:103B60000A2E06945795479537952795BA95C9F724
:103B7000620F731F841F951FA01D08952F923F92FF
:103B80004F925F926F927F928F929F92AF92BF926D
:103B9000CF92DF92EF92FF920F931F93CF93DF9319
:103BA000CDB7DEB7CA1BDB0B0FB6F894DEBF0FBE76
:103BB000CDBF09942A88398848885F846E847D84C3
:103BC0008C849B84AA84B984C884DF80EE80FD80C5
:103BD0000C811B81AA81B981CE0FD11D0FB6F8943B
:0E3BE000DEBF0FBECDBFED010895F894FFCFFC
:103BEE0000007A01200000000000E40AEF0AD00273
:103BFE0000000000000D080DCC0100000000FC09C3
:103C0E000C0A040600000000040A160AE103000074
:0C3C1E000000F409200AF50F25640000E6
:107E0000112484B714BE81FFFDD085E080938100EA
:107E100082E08093C00088E18093C10096E0909357
:107E2000C20090E19093C400809360008EE0809344
:107E30006000259A86E020E33CEF91E030938500D6
:107E40002093840096BBB09BFECF1D9AA8958150CD
:107E5000A9F7C0E0D0E008E138E0F32EEE24E39487
:107E600045E0B42E51E1A52E13E0A7D0813491F462
:107E7000A4D0D82EAED082E8D81203C084E096D029
:107E800092C0E1E8DE1203C084E090D08CC083E0B1
:107E90008DD089C0823419F484E1A7D084C08534A0
:107EA00019F485E0A2D07FC0853549F486D0C82F6B
:107EB00084D0D0E0D82BCC0FDD1F8BD074C086359A
:107EC00029F484E092D080E071D06DC0843609F04E
:107ED0003FC073D072D0982E70D0C115F0E7DF0785
:107EE00038F4FE0117BFE895C12CDD24D39403C0FC
:107EF000C12CDD24D39461D0F60181936F019E12D1
:107F0000FACFC115F0E7DF0718F0FE0117BFE895BB
:107F100060D007B600FCFDCFFE01A0E0B1E08C917F
:107F200011962C91119790E0922B0C01E7BEE895E9
:107F3000112432961296A03881E0B80781F7FE012D
:107F4000B7BEE89507B600FCFDCFA7BEE8952BC0ED
:107F50008437B1F432D031D0982E2FD03AD0892C3A
:107F6000FE016F018FEFC81AD80A84911FD08A943E
:107F7000F6018110F6CF21969A94C90DD11D13C038
:107F8000853741F426D08EE111D085E90FD08FE0FE
:107F90000DD009C0813531F400936000F09260008B
:107FA00018D001C016D080E101D05FCF9091C00001
:107FB00095FFFCCF8093C60008958091C00087FF95
:107FC000FCCF8091C00084FD01C0A8958091C600BF
:107FD0000895F3DF803239F088E18093600088E013
:107FE00080936000FFCF84E1E1CFCF93C82FE5DF1E
:107FF000C150E9F7CF91EDCFE0E6F0E098E1908352
:1080000080830895E0E6F0E088E180831082EE2727
:04801000FF270994A9
:027FFE00040479
:0400000300007E007B
:00000001FF
