:100000000C9463000C948B000C948B000C948B006C
:100010000C948B000C948B000C948B000C948B0034
:100020000C948B000C948B000C948B000C948B0024
:100030000C948B000C948B000C948B000C948B0014
:100040000C94C31F0C948B000C948B000C948B00AD
:100050000C948B000C948B000C948B000C948B00F4
:100060000C940D200C948B0000000000240027004D
:100070002A0000000000250028002B0000000000DE
:1000800023002600290004040404040404040202DA
:100090000202020203030303030301020408102007
:1000A0004080010204081020010204081020000012
:1000B0000008000201000003040700000000000027
:1000C0000000D326212811241FBECFEFD8E0DEBFC9
:1000D000CDBF12E0A0E0B1E0E6E8FAE502C005908D
:1000E0000D92A03AB107D9F723E0A0EAB2E001C02F
:1000F0001D92AE3CB207E1F710E0C2E6D0E004C0CA
:100100002197FE010E946B28C136D107C9F70E94D2
:1001100004270C94362D0C940000AF92BF92CF921E
:10012000DF92EF92FF920F931F93CF93DF936C01B7
:100130007B018B01040F151FEB015E01AE18BF0898
:10014000C017D10759F06991D601ED91FC9101904A
:10015000F081E02DC6010995892B79F7C501DF9162
:10016000CF911F910F91FF90EF90DF90CF90BF90B4
:10017000AF900895833081F028F4813099F0823077
:10018000A9F008958730A9F08830C9F08430B1F41F
:10019000809180008F7D03C0809180008F77809355
:1001A0008000089584B58F7784BD089584B58F7DD0
:1001B000FBCF8091B0008F778093B000089580913D
:1001C000B0008F7DF9CF1F93CF93DF93282F30E0BE
:1001D000F901E255FF4F8491F901E656FF4FD491A2
:1001E000F901EA57FF4FC491CC23A9F0162F8111D2
:1001F0000E94BA00EC2FF0E0EE0FFF1FEE58FF4F09
:10020000A591B4918FB7F894EC91111108C0D095D5
:10021000DE23DC938FBFDF91CF911F910895DE2BFA
:10022000F8CFFF920F931F93CF93DF93082F162FD2
:10023000F42EC22FD8E06C2FF11015C06170802F02
:100240000E94E300C69561E0812F0E94E30060E018
:10025000812F0E94E300D15071F7DF91CF911F9160
:100260000F91FF900895661F6627661F802F0E94DA
:10027000E300CC0FE8CF262F01978930910520F5B8
:10028000FC01EB5BFE4F0C946B284E0154015601B0
:1002900058015A015C015E0160016201206640E084
:1002A0006AE08CE00C9411012A6DF9CF226FF7CF30
:1002B0002666F5CF266BF3CF2E6BF1CF206EEFCFF6
:1002C0002E6FEDCF266FEBCF2C6FE9CF3FB7F894B1
:1002D0008091A4039091A503A091A603B091A703D8
:1002E00026B5A89B05C02F3F19F00196A11DB11D91
:1002F0003FBFBA2FA92F982F8827BC01CD01620FCD
:10030000711D811D911D42E0660F771F881F991F87
:100310004A95D1F708958F929F92AF92BF92CF9254
:10032000DF92EF92FF926B017C010E9466014B010C
:100330005C01C114D104E104F104B9F00E9466012A
:10034000681979098A099B09683E734081059105FE
:1003500080F321E0C21AD108E108F10888EE880E86
:1003600083E0981EA11CB11CE4CFFF90EF90DF90BA
:10037000CF90BF90AF909F908F900895209153039E
:10038000260F3327331F21323105ECF420917903F6
:10039000FC0190E080E0243069F082E00895A091B3
:1003A00053032191AC014F5C5C4FA40FB52FB11DDD
:1003B0002C930196861798F380915303680F6093EE
:1003C000530380E0089581E008951092790381E05D
:1003D00080937B0310927A0361E082E10E94E30044
:1003E00061E083E10E94E300E9EBF0E080818E7F31
:1003F000808380818D7F808388E48093B80085E44A
:100400008093BC000895CF93DF9391E090933003E5
:100410008823B9F0C091B800D091BA008091BC0097
:100420008A7B8093BC0060E082E10E94E30060E090
:1004300083E10E94E3000E94E501D093BA00C093DB
:10044000B800DF91CF910895089508950895E0913F
:10045000280380912703E81730F4F0E0E95FFC4FB0
:10046000808190E008958FEF9FEF08959091280389
:10047000809127032FEF3FEF981748F4E92FF0E022
:10048000E95FFC4F208130E09F5F90932803C90112
:1004900008958091270390912803891B990B089553
:1004A000CF92DF92EF92FF920F931F93CF93DF9340
:1004B0007C01CB018A0120910603222389F0EB0104
:1004C0006B01C40ED51ECC15DD0569F06991D7010D
:1004D000ED91FC910190F081E02DC7010995F3CFDA
:1004E000642F0E94BE01C801DF91CF911F910F912F
:1004F000FF90EF90DF90CF900895CF93DF931F92FE
:10050000CDB7DEB76983209106032223F9F020914D
:100510002903203258F021E030E0FC0133832283AC
:1005200090E080E00F90DF91CF91089580912A03B1
:10053000E82FF0E0EA51FD4F998190838F5F80931F
:100540002A038093290381E090E0ECCF61E0CE01A3
:1005500001960E94BE01F7CFCF92DF92EF92FF92F9
:100560000F931F93CF93DF93FC01C48121E020936D
:100570000603C093E50210922A0310922903838593
:10058000682B88EA93E00E947D02D0912903D13242
:1005900008F092C00E9466016B017C018091790392
:1005A000811165C082E08093790381E080937B03B1
:1005B0008FEF8093780310929D03D0939C03A6EE57
:1005C000B2E0ECE7F3E080E0D81385C010929E0320
:1005D00080919E03CC0FC82BC0939E0380917A0319
:1005E000813009F07CC010927A030E9466016B0191
:1005F0007C0180919E038093BB0080912C0390919D
:100600002D03A0912E03B0912F03892B8A2B8B2BC6
:1006100099F00E94660100912C0310912D03209106
:100620002E0330912F036C197D098E099F0906173F
:10063000170728073907E0F18091BC0083FDD9CF67
:1006400085EC8093BC000E9466016B017C01809167
:100650007903823009F445C0809178038F3F61F1BE
:1006600080917803803241F18091780325C0809198
:100670002C0390912D03A0912E03B0912F03892B71
:100680008A2B8B2B09F48ACF0E94660100912C03E0
:1006900010912D0320912E0330912F036C197D09A9
:1006A0008E099F09061717072807390708F076CF24
:1006B00080912B030E94030210922A0310922903B7
:1006C00010920603DF91CF911F910F91FF90EF9051
:1006D000DF90CF9008959D9191938F5F75CF85EEB8
:1006E000B0CF80912C0390912D03A0912E03B09157
:1006F0002F03892B8A2B8B2B09F4A9CF0E9466012B
:1007000000912C0310912D0320912E0330912F0383
:100710006C197D098E099F090617170728073907E5
:1007200008F095CFC5CF089590E080E00895FC01D2
:10073000892B91F08285882379F080819181A28133
:10074000B381892B8A2B8B2B39F081E02085318571
:10075000232B19F080E0089581E00895FC01892B96
:1007600091F08285882379F080819181A281B38183
:10077000892B8A2B8B2B39F081E020853185232B27
:1007800019F080E0089581E00895FC01892B91F033
:100790008285882379F080819181A281B381892B20
:1007A0008A2B8B2B39F081E020853185232B19F0A2
:1007B00080E0089581E00895FC01892B91F0828505
:1007C000882379F080819181A281B381892B8A2B42
:1007D0008B2B39F081E020853185232B19F080E0C7
:1007E000089581E00895FC01892B91F0828588238A
:1007F00079F080819181A281B381892B8A2B8B2B07
:1008000039F081E020853185232B19F080E00895AF
:1008100081E00895CF93DF93FC01C085D185CE019F
:100820000E949703811109C081E0488159816A8142
:100830007B81452B462B472B09F480E0DF91CF913C
:1008400008950F931F93CF93DF938C01FC01C08514
:10085000D185CE010E94C503811112C0F8018081AB
:1008600091814AE0489F9001499F300D112488856D
:100870009985820F931FDF91CF911F910F9108955A
:1008800090E080E0F8CFDC011896ED91FC9119978B
:100890003097D1F082858823B9F0408151816281FF
:1008A0007381452B462B472B79F0808591850097E6
:1008B00069F04D915C916FE0649F9001659F300DF0
:1008C0001124820F931F089590E080E00895EF9225
:1008D000FF920F931F93CF93DF9300D0CDB7DEB776
:1008E0008C010E940A048823F1F0D8011896ED903B
:1008F000FC90C7010E949703811120C0F80120815C
:100900003181220F331FD70118968D919C91820F50
:10091000931FDC01ED91FC910480F581E02DBE0177
:100920006F5F7F4F099589819A810F900F90DF91BA
:10093000CF911F910F91FF90EF90089590E080E08C
:10094000E8CFCF93DF93EB0102960E94670499836F
:100950008883DF91CF910895CF93DF93EB010296C7
:100960000E94670499838883DF91CF910895CF9384
:10097000DF93EB0102960E94670499838883DF91DD
:10098000CF9108950E942104FC01808191810895F6
:10099000CF93DF93EC010E942104FC0184819581B7
:1009A000009729F4CE01DF91CF910C94C204DF911E
:1009B000CF910895DC011896ED91FC91199730972D
:1009C000D1F082858823B9F04081518162817381A1
:1009D000452B462B472B79F080859185009769F050
:1009E0004D915C916AE0649F9001659F300D1124E8
:1009F000820F931F089590E080E00895DC0118961F
:100A0000ED91FC9119973097D1F082858823B9F048
:100A10004081518162817381452B462B472B79F0B0
:100A200080859185009769F04D915C9165E0649FA8
:100A30009001659F300D1124820F931F089590E05F
:100A400080E008950F931F93CF93DF938C01FC01F7
:100A5000C085D185CE010E94AE0381110EC0F80180
:100A600020813181220F331F88859985820F931F42
:100A7000DF91CF911F910F91089590E080E0F8CF22
:100A80000F931F93CF93DF938C01FC01C085D18519
:100A9000CE010E94F303811110C0F8012081318141
:100AA000220F331F220F331F88859985820F931FD2
:100AB000DF91CF911F910F91089590E080E0F8CFE2
:100AC000CF93DF93EC01888599850E94C50381113E
:100AD0000DC0CE010E94210421E0FC018681978196
:100AE000A085B185892B8A2B8B2B09F020E0822FE2
:100AF000DF91CF9108950F931F93CF93DF938C01D4
:100B0000EB010E946005282F81110BC0209751F046
:100B1000C8010E94210421E04881598148175907E2
:100B200009F020E0822FDF91CF911F910F9108955E
:100B30000F931F93CF93DF93EC010E946005811107
:100B400021C0CE010E9421048C01DC011296ED919E
:100B5000FC91309791F4CE010E94C804F801938370
:100B60008283CE010E942104DC0112968D919C911A
:100B7000DF91CF911F910F91089584819581009706
:100B800069F7E9CF90E080E0F3CF0F931F93CF9305
:100B9000DF93EC010E94600581111AC0CE010E9412
:100BA00021048C01FC0182819381892B31F4CE01D7
:100BB0000E94C204F80193838283CE010E94210423
:100BC000FC0182819381DF91CF911F910F91089554
:100BD00090E080E0F8CFCF93DF93EC010E946005B6
:100BE00081110BC0CE010E942104FC016681778136
:100BF00080859185DF91CF91089560E070E0CB0111
:100C0000F9CF0F931F93CF93DF93EC0108851985DC
:100C1000C8010E94DC0381110CC0F8018085918518
:100C200028813981820F931FDF91CF911F910F91FE
:100C3000089590E080E0F8CF0F931F93CF93DF9358
:100C4000EC01888599850E94AE03811111C06C81E9
:100C50007D818E819F81088119812A813B81601B62
:100C6000710B820B930BDF91CF911F910F91089520
:100C700060E070E0CB01F7CF8F929F92AF92BF926E
:100C8000CF92DF92EF92FF920F931F93CF93DF9358
:100C90008C016A017B010E941C064B015C01C801AA
:100CA0000E942205EC01C814D904EA04FB0490F464
:100CB000CC0CDD1CCC0DDD1DCE01DF91CF911F9141
:100CC0000F91FF90EF90DF90CF90BF90AF909F90EB
:100CD0008F900895F801808591850E94AE0381115F
:100CE000EBCF81149104A104B10431F3C701B60123
:100CF000A50194010E944928660F771FC60FD71FD0
:100D0000DBCF0F931F93CF93DF93EC0188859985F9
:100D10000E94DC03811111C06C817D818E819F81D5
:100D2000088119812A813B81601B710B820B930B17
:100D3000DF91CF911F910F91089560E070E0CB019A
:100D4000F7CF8F929F92AF92BF92CF92DF92EF92A6
:100D5000FF920F931F93CF93DF938C016A017B0166
:100D60000E9481064B015C01C8010E940106EC0152
:100D7000C814D904EA04FB0480F4CC0DDD1DCE01B7
:100D8000DF91CF911F910F91FF90EF90DF90CF9067
:100D9000BF90AF909F908F900895F80180859185C6
:100DA0000E94DC038111EBCFC8010E948106672BF2
:100DB000682B692B21F3C701B601A50194010E949C
:100DC0004928C60FD71FDBCF0E942104FC01808178
:100DD00091810895CF92DF92EF92FF920F931F932C
:100DE000CF93DF93EC016A017B01888599850E948E
:100DF000F303182FCE010E944005111117C04C813A
:100E00005D816E817F81088119812A813B81401B30
:100E1000510B620B730BC416D506E606F70630F4C9
:100E2000CC0CDD1CCC0CDD1C8C0D9D1DDF91CF91FD
:100E30001F910F91FF90EF90DF90CF900895462F74
:100E400050E070E060E00C960E94A106FC019081E9
:100E5000911103C085E28083089591509083089595
:100E6000462F50E070E060E00C960E94A106FC0165
:100E7000808190E0019666E270E00E9435288083D0
:100E800008952F923F924F925F926F927F928F922E
:100E90009F92AF92BF92CF92DF92EF92FF920F9309
:100EA0001F93CF93DF93CDB7DEB72C970FB6F8948F
:100EB000DEBF0FBECDBF8091B002811117C00E946E
:100EC00066017B018C016093A802F092A9028093D5
:100ED000AA021093AB021092AC021092AD021092D3
:100EE000AE021092AF0281E08093B0020E946601D0
:100EF0007B018C016983FA828B831C837090A8022A
:100F00008090A9029090AA02F090AB02FC8600911A
:100F1000AC020B87B091AD02F091AE02E091AF024E
:100F20002090A0023090A1024090A2025090A30213
:100F30006090A402A091A5021091A60219872091A9
:100F4000A7022A87272D382D492D5F2D602F7B2F53
:100F50008F2F9E2FAE2CBA80CB80DC80E12CF12C21
:100F600000E010E00E94EE2809F008F466C091014C
:100F7000A201662D7A2F89859A85AFEF0E94D92824
:100F8000A72CB82CC92CDC84EB84FB2E0F2F1E2F32
:100F90000E94E528A980BA80CB80DC80E12CF12C6E
:100FA00000E010E00E94D0282093A0023093A1021C
:100FB0004093A2025093A3026093A4027093A502EF
:100FC0008093A6029093A702A092A802B092A902D1
:100FD000C092AA02D092AB021092AC021092AD0263
:100FE0001092AE021092AF022091A0023091A102A5
:100FF0004091A2025091A3026091A4027091A502B7
:101000008091A6029091A7022C960FB6F894DEBFAD
:101010000FBECDBFDF91CF911F910F91FF90EF9049
:10102000DF90CF90BF90AF909F908F907F906F9008
:101030005F904F903F902F9008959101A201662DEF
:101040007A2F89859A85A72CB82CC92CDC84EB844F
:10105000FB2E0F2F1E2F0E94E528A980BA80CB807F
:10106000DC80E12CF12C00E010E00E94D0282093DD
:10107000A0023093A1024093A2025093A302609376
:10108000A4027093A5028093A6029093A702A09257
:10109000A802B092A902C092AA02D092AB029CCF41
:1010A0000E948106623071058105910528F061502A
:1010B000710981099109089560E070E0CB010895FC
:1010C0008F929F92AF92BF92CF92DF92EF92FF9258
:1010D0000F931F93CF93DF93962E10E000E0B12C77
:1010E000C82FD0E0CE0182559F4F7C01FE01E6560D
:1010F000FF4F6F01CA57DF4F61E0892D0E94E30067
:10110000F7018491F601A490FE018490882071F18A
:1011100081110E94BA00E82DF0E0EE0FFF1FE458A5
:10112000FF4FA591B4918C91A82231E009F430E0F1
:10113000832F002E01C0880F0A94EAF7B82A60E0D6
:10114000892D0E94E3000F5F1F4F08301105A1F6A3
:101150008B2DDF91CF911F910F91FF90EF90DF903A
:10116000CF90BF90AF909F908F90089580E0E1CF97
:101170002F923F924F925F926F927F928F929F92A7
:10118000AF92BF92CF92DF92EF92FF920F931F9395
:10119000CF93DF9300D000D0CDB7DEB79C838B8395
:1011A0007A836983DC011696DC9016971796EC908B
:1011B00017971896FC90189719960C9119971A96EC
:1011C0001C911A971B96BC91FC01C484B5842D2DEB
:1011D0003E2D4F2D502F612F7B2F8C2D9B2DABE162
:1011E0000E94F72809F46CC0ABE20E94F72809F4CA
:1011F00033C1A0E00E94F72809F081C11092DF02FC
:101200001092E0021092E1021092E2021092E402C7
:101210001092E30281E08093DE02AB81BC8158969C
:101220008C9158979FEF980F58969C935897181643
:101230000CF0F1C08BE116968C93169717961C92C2
:10124000179718961C92189719961C9219971A9628
:101250001C921A971B961C921B971C961C921C970B
:101260001D961C921092DF021092E0021092E10291
:101270001092E2028BE190E09093E4028093E3020B
:1012800082E08093DE0281E090E0A981BA818D93B3
:101290009C930F900F900F900F90DF91CF911F9123
:1012A0000F91FF90EF90DF90CF90BF90AF909F9005
:1012B0008F907F906F905F904F903F902F90089508
:1012C00061E084E00E94E30061E085E00E94E300C9
:1012D00061E082E00E94E300EB81FC81808D21E0EF
:1012E00030E001C0220F8A95EAF741E06DE083E02B
:1012F0000E94110160E082E00E94E30064E086E069
:101300000E946008182FAB81BC8158968C9058972A
:10131000082C000C9908AA08BB08B501A4017D019E
:10132000BEE0EB0EF11CC7010E943C06212F30E00D
:10133000FC0131832083B501A401C7010E943C0652
:10134000FC0180811082818364E086E00E94600855
:10135000182FAB81BC8158968C90082C000C9908F2
:10136000AA08BB08B501A401C7010E943C06FC0104
:1013700020813181212B31832083B501A401C70154
:101380000E943C06DC01ED90FC900CE310E0E114BF
:10139000F104C1F1E0FE2EC080EC93E00E940A044B
:1013A000882341F1C090C803D090C903C6010E94B0
:1013B0009703811124C08091C0039091C103880FCD
:1013C000991FF60120853185820F931FAB81BC8167
:1013D00058962C91A801420F511D27FD5A9546574A
:1013E0005E4FDC01ED91FC910480F581E02D70E011
:1013F00060E00995F694E79404501109C8CF90E095
:1014000080E0E4CF60E084E00E94E30060E085E0FB
:101410000E94E30002CF84E0EB81FC81808F0E9478
:101420004107A8EEAA2EB3E0BB2EC12CD12CE12C93
:10143000F12C00E010E00E94732849015A01F2E308
:101440008F0E911CA11CB11CAB81BC8112968D9298
:101450009D92AD92BC9215970E944107EB81FC8151
:10146000C280D380E480F58016012701E8EEAE2E1D
:10147000F3E0BF2EC12CD12CE12CF12C00E010E0C8
:101480000E94732859016A017B018C019101A2011C
:1014900060E070E080E090E00E94EE2809F008F43F
:1014A000BCCE8BE2AB81BC8116968C9316971796B7
:1014B0001C92179718961C92189719961C921997B8
:1014C0001A961C921A971B961C921B971C961C929C
:1014D0001C971D961C928BE290E09093E4028093FF
:1014E000E30282E390E0A0E0B0E08093DF0290931B
:1014F000E002A093E102B093E20284E0C2CEEB816D
:10150000FC81128213821482158216821782108641
:10151000118612861386148615861092DF021092A9
:10152000E0021092E1021092E2021092E4021092A4
:10153000E30288E08093DE028FEF9FEFA6CE0F9349
:101540001F93CF938C01C62F0E94AC026C2F646056
:10155000C8010E94AC026C2F6B7FC8010E94AC02D4
:1015600083EC90E00197F1F7CF911F910F910895CF
:101570000F931F93CF93DF938C01D62FC42F607FDF
:10158000642B0E949F0A80E1D89FB00111246C2B2C
:10159000C801DF91CF911F910F910C949F0ACF93B7
:1015A000DF93CDB7DEB728970FB6F894DEBF0FBE36
:1015B000CDBF98E0E6E0F1E0DE01119601900D92DA
:1015C0009A95E1F79091BC03961708F46FEF262FD8
:1015D00030E0220F331F41E050E04C0F5D1F240F1D
:1015E000351FF9016081680F606840E084EB93E08B
:1015F00028960FB6F894DEBF0FBECDBFDF91CF9116
:101600000C94B80A41E00E94B80A81E090E0089585
:10161000AF92BF92CF92DF92EF92FF920F931F9300
:10162000CF93DF938C010E946005811167C0C801D0
:101630000E9421045C01FC01C481D581209721F422
:10164000C8010E94E406EC01EA80FB80CC80DD80CA
:10165000E114F10419F4F501D582C482C8010E9495
:101660002104C114D10419F4FC01F182E082C80103
:101670000E9421045C01FC01828193818C179D07EB
:1016800069F4C8010E946005811108C0209789F59E
:10169000C8010E94E406F50182839383C114D1043A
:1016A00019F0F601F382E282EA81FB81309711F0B2
:1016B000D582C48219821882C8010E942104FC01CB
:1016C00046815781608571854150510961097109D1
:1016D0004683578360877187CE01DF91CF911F9139
:1016E0000F91FF90EF90DF90CF90BF90AF900C9450
:1016F000BF29E114F10461F2C701CDCFDF91CF9191
:101700001F910F91FF90EF90DF90CF90BF90AF901F
:101710000895CF93DF93EC01CE010E946005811103
:1017200004C0CE010E94080BF7CFDF91CF9108953E
:101730000F931F93CF938C010C960E94890BC801C5
:1017400046960E94890B03E311E0C0E060E08C2F15
:101750000E94CF0AF80161918F0184EB93E00E940F
:10176000020BCF5FC13191F702E211E0C0E061E00E
:101770008C2F0E94CF0AF80161918F0184EB93E0D6
:101780000E94020BCF5FC13191F7CF911F910F9152
:101790000895CF93DF93EB0102960E94980B8FEF91
:1017A0009FEF99838883DF91CF9108950F931F93C3
:1017B000CF93DF93DC01ED91FC913097E9F140810B
:1017C0005181628173814115510561057105A1F156
:1017D0008C01DB01CA010197A109B10980839183C2
:1017E000A283B3834130510561057105D9F4F80135
:1017F000C081D181209789F088859985009769F00B
:101800002A85222351F020FD0E94BF291A861986BD
:101810001886188219821A821B82D8018D919C9198
:101820000E94BF29F8011182108281E090E0DF91CF
:10183000CF911F910F9108958FEF9FEFF8CFEF9207
:10184000FF920F931F93CF93DF93EC017B010896D8
:101850000E94D60BF70100851185C8010E94C503BF
:1018600081110EC019870887F80180819181A281BA
:10187000B3810196A11DB11D80839183A283B3839F
:10188000F70180819181A281B38188839983AA83A2
:10189000BB8384819581A681B7818C839D83AE8330
:1018A000BF83DF91CF911F910F91FF90EF9008952B
:1018B0000F931F93CF93DF93EC018B018CE0FB011F
:1018C000DE0101900D928A95E1F71C861D861E8629
:1018D0001F86188A198A1A8A1B8A1D8A1C8A645FC5
:1018E0007F4FCE010C960E941F0C1E8A1F8A188EF5
:1018F000198E1A8E1B8E1C8E1D8E1F8E1E8EB80189
:101900006A5E7F4FCE014696DF91CF911F910F9176
:101910000C941F0CEF92FF920F931F93CF93DF93C2
:10192000EC01E884F984C7010E94C5038E01085FB9
:101930001F4F811109C0F70180819181A281B3817C
:101940000297A105B10518F4CE010E94890BC801C8
:10195000DF91CF911F910F91FF90EF900C94D60BD8
:10196000CF93DF93EC0146960E948A0CCE010C9631
:10197000DF91CF910C948A0C26E631E0FC01219393
:101980003193CF010C94B00C0F931F93CF93DF933F
:10199000DC01ED91FC913097E9F140815181628148
:1019A00073814115510561057105A1F18C01DB01C0
:1019B000CA010197A109B10980839183A283B383EE
:1019C0004130510561057105D9F4F801C081D1811B
:1019D000209789F088859985009769F02A852223C8
:1019E00051F020FD0E94BF291A8619861886188298
:1019F00019821A821B82D8018D919C910E94BF2965
:101A0000F8011182108281E090E0DF91CF911F9167
:101A10000F9108958FEF9FEFF8CF0F931F93CF9300
:101A2000DF93EC018B01188219821A821B821C82BF
:101A30001D821E821F821986188608960E94C40C79
:101A4000D8011896ED91FC913097E1F082858823BA
:101A5000C9F080819181A281B381892B8A2B8B2B44
:101A600089F080859185892B69F0F987E8878081E5
:101A70009181A281B3810196A11DB11D80839183C3
:101A8000A283B383F80180819181A281B38188838D
:101A90009983AA83BB8384819581A681B7818C8336
:101AA0009D83AE83BF83DF91CF911F910F910895E6
:101AB0000F931F93CF93DF93DC01ED91FC9130974F
:101AC000E9F14081518162817381411551056105C0
:101AD0007105A1F18C01DB01CA010197A109B109CE
:101AE00080839183A283B3834130510561057105E1
:101AF000D9F4F801C081D181209789F08885998532
:101B0000009769F02A85222351F020FD0E94BF2909
:101B10001A8619861886188219821A821B82D801A1
:101B20008D919C910E94BF29F8011182108281E061
:101B300090E0DF91CF911F910F9108958FEF9FEF6C
:101B4000F8CF22E531E0FC013183208346960C94E6
:101B5000580DEF92FF920F931F93CF93DF93EC01F9
:101B60008B018CE0FB01DE0101900D928A95E1F77B
:101B70001C861D861E861F86188A198A1A8A1B8A49
:101B80001D8A1C8ACE0144960E94580DF801E488F3
:101B9000F588C7010E94AE0381110EC0FD8AEC8A50
:101BA000F70180819181A281B3810196A11DB11DB0
:101BB00080839183A283B383F80184859585A6856C
:101BC000B7858C879D87AE87BF8780899189A289D9
:101BD000B389888B998BAA8BBB8B86898E8BDF917F
:101BE000CF911F910F91FF90EF9008950F931F9346
:101BF000CF93DF93DC01ED91FC913097E9F14081C7
:101C00005181628173814115510561057105A1F111
:101C10008C01DB01CA010197A109B109808391837D
:101C2000A283B3834130510561057105D9F4F801F0
:101C3000C081D181209789F088859985009769F0C6
:101C40002A85222351F020FD0E94BF291A86198679
:101C50001886188219821A821B82D8018D919C9154
:101C60000E94BF29F8011182108281E090E0DF918B
:101C7000CF911F910F9108958FEF9FEFF8CFCF93E2
:101C8000DF93EC0184E891E099838883CE01C696C6
:101C90000E94F60DCE010296DF91CF910C94B00C0C
:101CA0002AE731E0FC013183208346960C94F60D3F
:101CB000EF92FF920F931F93CF93DF93EC018B0171
:101CC0008CE0FB01DE0101900D928A95E1F71C8604
:101CD0001D861E861F86188A198A1A8A1B8A1D8AE3
:101CE0001C8ACE0144960E94F60DF801E488F5881E
:101CF000C7010E94DC0381110EC0FD8AEC8AF70146
:101D000080819181A281B3810196A11DB11D808343
:101D10009183A283B383F80184859585A685B785D1
:101D20008C879D87AE87BF8780899189A289B38977
:101D3000888B998BAA8BBB8BDF91CF911F910F91D1
:101D4000FF90EF900895EF92FF920F931F93CF9320
:101D5000DF93EC018B0108960E94F60DF801E084F8
:101D6000F184C7010E94DC03811105C0F986E88671
:101D7000F80111861086F80180819181A281B381DA
:101D800088839983AA83BB8384819581A681B78147
:101D90008C839D83AE83BF83DF91CF911F910F9181
:101DA000FF90EF9008950F931F93CF93DF93DC0183
:101DB000ED91FC913097E9F140815181628173810D
:101DC0004115510561057105A1F18C01DB01CA01C5
:101DD0000197A109B10980839183A283B383413024
:101DE000510561057105D9F4F801C081D1812097B1
:101DF00089F088859985009769F02A85222351F01A
:101E000020FD0E94BF291A86198618861882198219
:101E10001A821B82D8018D919C910E94BF29F801E2
:101E20001182108281E090E0DF91CF911F910F919C
:101E300008958FEF9FEFF8CFCF93DF93EC010E94CF
:101E40003F0ECE01DF91CF910C94BF29CF93DF934A
:101E5000EC010E94500ECE01DF91CF910C94BF296E
:101E6000CF93DF93EC010E94BC0CCE01DF91CF91A8
:101E70000C94BF29CF93DF93EC010E94A10DCE01FA
:101E8000DF91CF910C94BF29EF92FF920F931F9394
:101E9000CF93DF93DB01ED91FC91309709F46DC096
:101EA00080819181A281B3810097A105B10509F4D8
:101EB00064C08B01AC01BD01415051096109710938
:101EC00040835183628373830197A105B10509F0B3
:101ED00040C0F801C081D1812097B1F188859985F2
:101EE000009791F12A85222379F120FF26C04C81A9
:101EF0005D816E817F81452B462B472BB1F1FC0123
:101F0000329720813181220F331F820F931F7C0172
:101F1000F2E0EF1AF108288539852817390751F0C2
:101F2000D701ED91FC910190F081E02DC701099559
:101F3000C701EDCFC7010E94BF291A8619861886EE
:101F4000188219821A821B82F801808191810E9475
:101F5000BF29D8011D921C9281E090E0DF91CF91C2
:101F60001F910F91FF90EF900895DC01ED91FC918E
:101F70000280F381E02D0995E0CF8FEF9FEFEECF48
:101F8000BC01685F7F4F0C94440FEF92FF920F9358
:101F90001F93CF93DF93EC017B01188219821A8281
:101FA0001B821C821D821E821F82198618860E9437
:101FB000C00FF70100851185C8010E9497038111A8
:101FC0000EC019870887F80180819181A281B381B1
:101FD0000196A11DB11D80839183A283B383F70174
:101FE00080819181A281B38188839983AA83BB83F5
:101FF00084819581A681B7818C839D83AE83BF83C5
:10200000DF91CF911F910F91FF90EF9008950F9363
:102010001F93CF93DF938C01EB010E94C50FBE018C
:10202000665F7F4FC8010A96DF91CF911F910F9194
:102030000C940D0D20E731E0FC0121933193CF0189
:102040000C94C00FCF93DF93EC010E941A10CE01C5
:10205000DF91CF910C94BF292CE531E0FC01219355
:102060003193CF010C94C00FCF93DF93EC010E940A
:102070002C10CE01DF91CF910C94BF2928E431E0E0
:10208000FC0121933193CF010C94C00FCF93DF93C8
:10209000EC010E943E10CE01DF91CF910C94BF293C
:1020A000CF93DF93EC0142960E94C40CCE01DF91E6
:1020B000CF910C94C00FEF92FF920F931F93CF9389
:1020C000DF93DB01ED91FC91309709F46DC08081C5
:1020D0009181A281B3810097A105B10509F464C083
:1020E0008B01AC01BD014150510961097109408367
:1020F0005183628373830197A105B10509F040C044
:10210000F801C081D1812097B1F188859985009728
:1021100091F12A85222379F120FF26C04C815D812F
:102120006E817F81452B462B472BB1F1FC01329705
:1021300020813181220F331F820F931F7C01F2E037
:10214000EF1AF108288539852817390751F0D7018A
:10215000ED91FC910190F081E02DC7010995C70137
:10216000EDCFC7010E94BF291A86198618861882EA
:1021700019821A821B82F801808191810E94BF29F5
:10218000D8011D921C9281E090E0DF91CF911F91C8
:102190000F91FF90EF900895DC01ED91FC9102808A
:1021A000F381E02D0995E0CF8FEF9FEFEECFAF9257
:1021B000BF92CF92DF92EF92FF920F931F93CF9334
:1021C000DF938C01EB010E946005811170C02097A4
:1021D00009F067C0C8010E94C804EC01EA80FB80D6
:1021E000CC80DD80C8010E942104E114F10419F4BF
:1021F000FC01D582C482C8010E942104C114D1040B
:1022000019F4FC01F182E082C8010E9421045C0102
:10221000FC01828193818C179D0771F4C8010E9493
:102220006005811109C0209709F04CC0C8010E94C7
:10223000C204F50182839383C114D10419F0F6011D
:10224000F382E282EA81FB81309711F0D582C48269
:1022500019821882C8010E942104FC01468157811D
:102260006085718541505109610971094683578321
:10227000608771871B821A821D821C822097B9F0A9
:10228000CE0106960E945010CE01DF91CF911F9192
:102290000F91FF90EF90DF90CF90BF90AF900C9494
:1022A000BF29BE01C8010E947B05811197CFDF9134
:1022B000CF911F910F91FF90EF90DF90CF90BF9043
:1022C000AF900895E114F10409F4B0CFC701B1CF84
:1022D000EF92FF920F931F93CF93DF93EC01E8846B
:1022E000F984C7010E94C5038E01085F1F4F811149
:1022F00009C0F70180819181A281B3810297A10574
:10230000B10558F4CE010E946005811106C070E04D
:1023100060E0CE010E94D710F5CFC801DF91CF91C8
:102320001F910F91FF90EF900C94D60BCF92DF92FC
:10233000EF92FF920F931F93CF93DF93DB01ED9109
:10234000FC91309709F46BC080819181A281B381A7
:102350000097A105B10509F462C08B01AC01BD0174
:10236000415051096109710940835183628373832C
:102370000197A105B10509F03FC0F801C081D181E5
:102380002097A9F1C884D984C114D10481F18A8528
:10239000882369F180FF24C08C819D81AE81BF813B
:1023A000892B8A2B8B2BB1F1F60132978081918199
:1023B0002AE0289F7001299FF00C1124EC0CFD1CD1
:1023C000970188859985FAE0EF1AF108821793073B
:1023D00021F0C7010E946811F3CF02970E94BF2924
:1023E0001A8619861886188219821A821B82D801C9
:1023F0008D919C910E94BF29F8011182108281E089
:1024000090E0DF91CF911F910F91FF90EF90DF90BF
:10241000CF900895C6010E946811C601DFCF8FEFEB
:102420009FEFEFCFEF92FF920F931F93CF93DF9326
:10243000DB01ED91FC91309709F470C080819181AE
:10244000A281B3810097A105B10509F467C08B0192
:10245000AC01BD01415051096109710940835183AB
:10246000628373830197A105B10509F04BC0F801A0
:10247000C081D181209709F440C0E884F984E11437
:10248000F104D9F18A858823C1F180FF2FC08C81A6
:102490009D81AE81BF81892B8A2B8B2BE9F0F701BF
:1024A0003297808191814FE0489F9001499F300D84
:1024B00011242E0D3F1D488559857901FFE0EF1A43
:1024C000F108C90102974217530771F0BC01089740
:1024D0000E9496119701EFCFB701635F7F4FC7014D
:1024E00005960E949611C7010E94BF291A86198677
:1024F0001886188219821A821B82D8018D919C91AC
:102500000E94BF29F8011182108281E090E0DF91E2
:10251000CF911F910F91FF90EF9008958FEF9FEF54
:10252000F6CF009711F481E090E00C9423290F93EB
:102530001F93CF93DF93DB012D913C91232B41F52A
:102540008B01EC018CE090E00E942329FC018CE0DF
:10255000DF011D928A95E9F7D801ED93FC9318826B
:1025600019821A821B821C821D821E821F8281E0B8
:1025700090E0A0E0B0E080839183A283B38385E004
:10258000828781E090E0DF91CF911F910F910895B4
:102590008FEF9FEFF8CF0F931F93CF93DF938B01B4
:1025A000FC0110821182128213821482158216821B
:1025B000178211861086BC01685F7F4F01151105D7
:1025C00031F4DF91CF911F910F910C94440FEC01E6
:1025D0000E949712019671F0E885F98582858D7FBA
:1025E0008287E885F985828581608287E885F9851B
:1025F00011870087DF91CF911F910F9108950F935D
:102600001F93CF93DF93DB012D913C91232B41F559
:102610008B01EC018CE090E00E942329FC018CE00E
:10262000DF011D928A95E9F7D801ED93FC9318829A
:1026300019821A821B821C821D821E821F8281E0E7
:1026400090E0A0E0B0E080839183A283B38385E033
:10265000828781E090E0DF91CF911F910F910895E3
:102660008FEF9FEFF8CF0F931F93CF93DF93EC0182
:10267000188219821A821B821C821D821E821F826E
:102680001986188608966115710531F4DF91CF918E
:102690001F910F910C94D60B8B01BC01CE010E94AF
:1026A000FF12019671F0E885F98582858D7F82871A
:1026B000E885F985828581608287E885F9851187BB
:1026C0000087DF91CF911F910F9108950F931F9372
:1026D000CF93DF93DB012D913C91232B41F58B01AF
:1026E000EC018CE090E00E942329FC018CE0DF01EA
:1026F0001D928A95E9F7D801ED93FC93188219820F
:102700001A821B821C821D821E821F8281E090E041
:10271000A0E0B0E080839183A283B38385E08287C9
:1027200081E090E0DF91CF911F910F9108958FEF9D
:102730009FEFF8CF8F929F92AF92BF92CF92DF928E
:10274000EF92FF920F931F93CF93DF93DB01ED91F5
:10275000FC91EF2B09F04EC0812C912C54018394F5
:10276000211531054105510511F049015A01690151
:102770007A018B01EC018CE090E00E942329FC019E
:102780008CE0DF011D928A95E9F7D801ED93FC9367
:10279000188219821A821B82CC82DD82EE82FF822D
:1027A00081E090E0A0E0B0E080839183A283B383D6
:1027B000C482D582E682F78284E0828785E0B2E037
:1027C0008B169104A104B10428F4CF010B969187D4
:1027D000808786E0828781E090E0DF91CF911F9132
:1027E0000F91FF90EF90DF90CF90BF90AF909F90B0
:1027F0008F9008958FEF9FEFF0CFCF92DF92EF92FF
:10280000FF920F931F93CF93DF93DB01ED91FC9128
:10281000EF2B51F4DF91CF911F910F91FF90EF902B
:10282000DF90CF900C949A1369017A01EB018C012F
:10283000CB010E94F60D019669F4198218828FEF80
:102840009FEFDF91CF911F910F91FF90EF90DF905D
:10285000CF900895A7019601BE01C8010E949A1366
:10286000019659F381E090E0ECCFEF92FF920F9345
:102870001F93CF93DF93EC017B01188219821A8298
:102880001B821C821D821E821F8219861886BC0133
:10289000685F7F4F22E030E040E050E00E94FD138F
:1028A000019651F008851985F801828581FF16C0CF
:1028B000C8010B9691878087CE010E940106F7011F
:1028C0002081FC012083F7012181FC012183DF911C
:1028D000CF911F910F91FF90EF90089582E090E0CB
:1028E0000E949112F801E6CFCF92DF92EF92FF9211
:1028F000CF93DF93EB0169017A010E94FD138F3FB3
:10290000980761F00990D881C02D8A8581FF0DC09C
:10291000CE010B969987888781E090E0DF91CF9177
:10292000FF90EF90DF90CF900895C114D104E1049F
:10293000F10439F481E090E00E942329FC01108227
:10294000E9CFC6010E949112E5CFAF92BF92CF921C
:10295000DF92EF92FF920F931F93CF93DF93CDB748
:10296000DEB764970FB6F894DEBF0FBECDBF8C0103
:102970007B010E94C2046C01C8010E94600588238B
:1029800009F459C0B701CE0101960E9407108AE1EF
:1029900090E00E9423297C01DC0111961C921E927A
:1029A00013961C921E92129715961C921E921497C3
:1029B000BE016F5F7F4F06960E940710C8010E94FC
:1029C0002104FC01F182E082CE0101960E945010A8
:1029D000C8010E942104DC01ED91FC919183808368
:1029E000C8010E9421047C01C8010E94C204F701B1
:1029F00095838483C8010E942104FC01468157818C
:102A0000608571854F5F5F4F6F4F7F4F4683578360
:102A10006087718764960FB6F894DEBF0FBECDBF96
:102A2000DF91CF911F910F91FF90EF90DF90CF90AA
:102A3000BF90AF900895B601C8010E947B05B70111
:102A4000882309F44EC0CE0101960E9407108AE146
:102A500090E00E9423297C01DC0111961C921E92B9
:102A600013961C921E92129715961C921E92149702
:102A7000BE016F5F7F4F06960E940710CE01019640
:102A80000E945010C8010E942104F70191838083A5
:102A9000D6011496AD90BC90B582A482A114B10465
:102AA00019F0F501F382E282D60112968D919C9184
:102AB000892B31F4C8010E942104FC01D582C48213
:102AC000AB2831F4C8010E942104DC01ED92FC9294
:102AD000F701D382C282D6011596FC92EE9214972A
:102AE00089CFCE0101960E9407108AE190E00E94F2
:102AF00023297C01FC01118210821382128215822B
:102B00001482BE016F5F7F4F06960E940710CE01B0
:102B100001960E945010C8010E942104D7018D9394
:102B20009C93C8010E94C8046C01FC0184819581BA
:102B3000892B31F4C8010E942104DC01CD92DC9282
:102B4000F70182819381892B41F4C8010E942104FD
:102B5000DC011596FC92EE921497F701D582C4829F
:102B6000D6011396FC92EE92129744CFEF92FF9209
:102B70000F931F93CF93DF93EC01790108964115D2
:102B800051056105710591F520E030E0A901BC0116
:102B9000CE010E94FD130196B1F008851985D80178
:102BA0001A968C911A9781FF15C0C8010B96199639
:102BB0009C938E931897E885F9850084F185E02D24
:102BC000D7018C918083DF91CF911F910F91FF905E
:102BD000EF90089581E090E00E942329F701208181
:102BE000DC012C93F80191878087EDCF9A01AB012E
:102BF000BC01CE010E94741408851985C8010E9489
:102C0000DC038111E0CFCE010E948106D701FC9048
:102C1000672B682B692B31F4CE010E940106FC0161
:102C2000F082D1CFD80118960D911C918C819D8195
:102C3000080F191FCE010E9401068017910719F293
:102C4000FC01F192CF01F9CFCF92DF92EF92FF9288
:102C50000F931F93CF93DF93EC017B018A010E94B6
:102C60006005D801DC90882309F441C087E090E03A
:102C70000E9423298C01FC0111821082138212828E
:102C800015821482D682CE010E942104DC010D93AC
:102C90001C93CE010E942104DC01ED91FC919183F3
:102CA0008083CE010E9421048C01CE010E94E406A3
:102CB000F80195838483CE010E942104DC011696DD
:102CC0004D915D916D917C9119974F5F5F4F6F4F63
:102CD0007F4FFC014683578360877187DF91CF91D7
:102CE0001F910F91FF90EF90DF90CF900895E11426
:102CF000F10409F44BC0CE010E942104D7012D91AB
:102D00003C912817390709F041C087E090E00E9404
:102D100023298C01FC0111821082138212821582F8
:102D20001482D682CE010E942104D80111969C9370
:102D30008E93F701C480D5801596DC92CE921497BD
:102D4000C114D10429F0D60113961C930E93129747
:102D5000F70182819381892B41F4CE010E942104E5
:102D6000DC011596FC92EE921497CD2831F4CE0139
:102D70000E942104FC0111830083D8011396FC9268
:102D8000EE921297F7011583048395CF87E090E0C8
:102D90000E9423298C01DC0111961C921E9213962D
:102DA0001C921E92129715961C921E9214971696BC
:102DB000DC92CE010E942104F80191838083CE0130
:102DC0000E9421046C01DC011496ED90FC90E1144A
:102DD000F10421F4CE010E94E4067C01F701848114
:102DE0009581892B19F4D601ED92FC92CE010E94B7
:102DF0002104FC0115830483D8011596FC92EE9200
:102E00001497F7011383028356CFCF93DF93EC011E
:102E10008AE090E00E9423292AE0FC0111922A9581
:102E2000E9F7BC01CE01DF91CF910C943313EF92FF
:102E3000FF920F931F93CF93DF938091C202811172
:102E400052C08FE090E00E942329EC018FE0FE0148
:102E500011928A95E9F77E01F5E0EF0EF11C8AE008
:102E600090E00E9423298C018AE090E00E942329AF
:102E70002AE0FC0111922A95E9F7BC01C8010E94E1
:102E800033131D821E821F82188619861A861B869E
:102E90001C861E861D86BE01635F7F4FC70101151C
:102EA000110551F50E9496111092B8021092B902C4
:102EB0001092BA021092BB021092BC021092BD0294
:102EC0001092BE021092BF021092C1021092C00274
:102ED00060EC72E088EB92E0209709F50E941212F4
:102EE00081E08093C20288EB92E0DF91CF911F9145
:102EF0000F91FF90EF9008950E9497120196A1F212
:102F0000ED85FE8582858D7F8287ED85FE858285B4
:102F100081608287ED85FE8511870087C5CF0E947D
:102F200097120196E9F2E091C002F091C102828508
:102F30008D7F81608287D187C087D2CF85ED8093D6
:102F4000BC0080912C0390912D03A0912E03B09191
:102F50002F030796A11DB11D23E0B695A795979560
:102F600087952A95D1F72091BC0024FD03C01092CB
:102F70007903089540912C0350912D0360912E0305
:102F800070912F03452B462B472B69F30097A10522
:102F9000B10541F02AE22A95F1F700C00197A10995
:102FA000B109E1CF80912B030C940302EF92FF92C1
:102FB0000F931F93CF93DF938C01EB017A018881EC
:102FC0009981892B69F4C8010E9466138F3F980785
:102FD000B9F4DF91CF911F910F91FF90EF90089579
:102FE000CB010E94C40C019629F4198218828FEF3C
:102FF0009FEFEFCFBE01C8010E9466130196A9F3AF
:1030000008811981F801828581FF11C0C8010B96E2
:1030100091878087E881F981A085B18585E0F701F6
:1030200001900D928A95E1F781E090E0D2CF85E0A2
:1030300090E00E94232925E0F701DC0101900D9228
:103040002A95E1F7F80191878087EECFAF92BF9282
:10305000CF92DF92EF92FF920F931F93CF93DF9364
:10306000CDB7DEB72B970FB6F894DEBF0FBECDBF3E
:103070008C015B0169017A01C114D104E104F104FE
:1030800001F5FC01108211821282138214821582D2
:10309000168217821186108608960E94F60DC801C6
:1030A0002B960FB6F894DEBF0FBECDBFDF91CF9148
:1030B0001F910F91FF90EF90DF90CF90BF90AF9056
:1030C00008951B8619821A821B821C821D821E8211
:1030D0001F8218861A861986BA01A9014F5F5F4FB1
:1030E0006F4F7F4F9E01255F3F4FCE0101960E949B
:1030F000B615CE0101960E940106A601B5010E94F7
:10310000482AF801108211821282138214821582D9
:103110001682178211861086BE016F5F7F4FC8012D
:103120000E94A30ECE010996B8CF2F923F924F92E4
:103130005F926F927F928F929F92AF92BF92CF9247
:10314000DF92EF92FF920F931F93CF93DF93CDB750
:10315000DEB7A0970FB6F894DEBF0FBECDBF8C01CF
:10316000F62E342E222E1D8A1E8A1F8A188E198E44
:103170001A8E1B8E1C8E1E8E1D8E1B8619821A8225
:103180001B821C821D821E821F8218861A86198647
:103190009E01255F3F4F42E050E060E070E0CE01CD
:1031A00001960E94B615CE0101960E940106DC012F
:1031B000FC921B861C861D861E861F86188A198A0D
:1031C0001A8A1C8A1B8ABE016F5F7F4FCE010B9645
:1031D0000E94A30ECE0109960E94F60DBE01655F06
:1031E0007F4FCE0145960E94A30ECE0143960E94CA
:1031F000F60DCE0145960E9481066230710581056B
:10320000910540F0C8010E94810662307105810578
:103210009105F0F51B861C861D861E861F86188A62
:10322000198A1A8A1C8A1B8ACE0143960E94D30EE1
:10323000CE014D960E94F60D40E050E0BA01CE015D
:103240000B960E94EA06DC011C91CE0143960E9477
:10325000D30E832D8219810F87FF33C18A5DA0961B
:103260000FB6F894DEBF0FBECDBFDF91CF911F9197
:103270000F91FF90EF90DF90CF90BF90AF909F9015
:103280008F907F906F905F904F903F902F90089518
:10329000C8010E9401066C018CE090E00E94232985
:1032A0007C018CE0F70111928A95E9F7FA86E986AC
:1032B00019821A821B821C8282E090E0A0E0B0E0BA
:1032C0008D839E83AF83B88741E050E060E070E07B
:1032D000F701408351836283738384839583A6833C
:1032E000B78385E0828788E090E00E949112D70141
:1032F00019969C938E931897E984FA84C7010E94CB
:10330000F303F0E0E0E081110CC089819A81880F1D
:10331000991F880F991FD7011896ED91FC91E80F1E
:10332000F91F108211821282138214821582168272
:1033300017824601412C512C32014394C12CD12CCF
:10334000760198A28F8EC8010E9401065C01C80117
:103350000E945008A60EB71ECE0145960E94500846
:103360008A149B0409F44CC0C616D706E806F90671
:1033700009F448C0BFEF8B1A9B0AB701A601CE0122
:1033800045960E94A106FC01AF8DB8A19C91808159
:10339000981318C041E050E060E070E0CE01019663
:1033A0000E94EA06FC014082518262827382FFEF32
:1033B000CF1ADF0AEF0AFF0AFFEF4F1A5F0A6F0A00
:1033C0007F0ABFCF40E050E0BA01CE0101960E94D3
:1033D000EA06DC014D925D926D927C92139741E07A
:1033E00050E060E070E0CE0101960E94EA06FC0128
:1033F0004082518262827382C12CD12C7601DCCF53
:103400006B017C0141E050E060E070E0CE0101968C
:103410000E94EA068C0140E050E0BA01CE0101961C
:103420000E94EA069C01F80180819181A281B3810A
:10343000F9014081518162817381841B950BA60B38
:10344000B70B1B861C861D861E861F86188A198A46
:103450001A8A1C8A1B8A8C159D05AE05BF0561F56D
:10346000CE0143960E94D30E09851A85C8010E9499
:10347000F30381110EC01C8B0B8BF80180819181AD
:10348000A281B3810196A11DB11D80839183A28386
:10349000B38389819A81AB81BC818B879C87AD87FF
:1034A000BE878D819E81AF81B8858F87988BA98BD0
:1034B000BA8BCE010996BACECE0143960E94D30EA6
:1034C000F8CF66E20E942728892FC9CEAF92BF921B
:1034D000CF92DF92EF92FF920F931F93CF93DF93E0
:1034E000CDB7DEB7C455D1090FB6F894DEBF0FBE15
:1034F000CDBF6C011F926F938CE992E09F938F93E5
:103500001F9280E48F938E010F5F1F4F1F930F93C5
:103510000E94512A9C01990F440B550B2F961CAE0B
:103520001DAE1EAE1FAE2F9763961CAE1DAE1EAE17
:103530001FAE639765961FAE1EAE65970FB6F894E3
:10354000DEBF0FBECDBF8BE490E0211531054105F4
:10355000510581F0B801CE018F5B9F4F0E94261864
:10356000BE016F5B7F4FCE01855B9F4F0E94A30E14
:1035700081E490E08C0F9D1F08960E94F60DCE010D
:10358000855B9F4F0E9401067C01CE01855B9F4FAA
:103590000E9401065C01CE01855B9F4F0E9450088E
:1035A0006A0D7B1DE616F70631F0F7019081905306
:1035B00091937F01F7CFCE01855B9F4F0E9450080A
:1035C0006230710581059105A9F540E050E0BA012E
:1035D000CE01855B9F4F0E94A106FC0180818983FB
:1035E00041E050E060E070E0CE01855B9F4F0E94BB
:1035F000A106FC0180818A83B801C6010E943514AE
:103600008BE490E08C0F9D1F08960E94F60DC6017A
:10361000CC5ADF4F0FB6F894DEBF0FBECDBFDF919F
:10362000CF911F910F91FF90EF90DF90CF90BF90BF
:10363000AF900895198240E050E0BA01D5CF4F9283
:103640005F927F928F929F92AF92BF92CF92DF92C2
:10365000EF92FF920F931F93CF93DF93CDB7DEB717
:10366000A6970FB6F894DEBF0FBECDBF4C012B015D
:10367000FC01D680E780F08401851285B385C4847F
:10368000B5842D2D3E2D4F2D502F612F7B2F8C2D4E
:103690009B2DA0E00E94F72811F1A0E60E94F728D8
:1036A00069F11282138214821582168217821086A3
:1036B000118612861386148615861092DF021092E8
:1036C000E0021092E1021092E2021092E4021092E3
:1036D000E30288E08093DE028FEF9FEF65C21092D5
:1036E000DF021092E0021092E1021092E2021092C8
:1036F000E4021092E30281E08093DE0261E087E061
:103700000E94E30061E088E00E94E30067E089E056
:103710000E946008782E60E088E00E94E30060E08C
:1037200087E00E94E300D090CE02E090CF02F090BC
:10373000D0020091D1021091D202B091D302F09147
:10374000D402E091D5022D2D3E2D4F2D502F612F0B
:103750007B2F8F2F9E2FACE10E94F72809F49FC08A
:103760000E94F72809F058F5A0E00E94F72809F414
:1037700087C01092CA021092CB021092CC02109213
:10378000CD021092CE021092CF021092D00210926F
:10379000D1021092D2021092D3021092D40210924F
:1037A000D5021092DF021092E0021092E102109214
:1037B000E2021092E4021092E30288E092C0A9E2D1
:1037C0000E94F72809F4FFC0AAE20E94F72889F6B0
:1037D0000E944107A090CA02B090CB02C090CC02D8
:1037E000D090CD0276016701E12CF12C8701AF8EDC
:1037F000B8A2C9A2DAA2EBA2FCA20DA31EA3E8EE16
:10380000AE2EF3E0BF2EC12CD12CE12CF12C00E028
:1038100010E00E94732859016A017B018C012F8DF1
:1038200038A149A15AA160E070E080E090E00E94D8
:10383000EE28A9F1A0F18AE28093CE021092CF0285
:103840001092D0021092D1021092D2021092D302A2
:103850001092D4021092D5028AE290E09093E40292
:103860008093E30282E390E0A0E0B0E08093DF0287
:103870009093E002A093E102B093E20284E031C0B1
:103880001092DF021092E0021092E1021092E20226
:103890001092E4021092E30281E08093DE02711044
:1038A00047C08CE18093CE021092CF021092D002DA
:1038B0001092D1021092D2021092D3021092D4022E
:1038C0001092D5021092DF021092E0021092E102F3
:1038D0001092E2028CE190E09093E4028093E30284
:1038E00082E08093DE02D090D602E090D702F09082
:1038F000D8020091D9021091DA02B091DB02F09166
:10390000DC02E091DD022D2D3E2D4F2D502F612F39
:103910007B2F8F2F9E2FA0E00E94F72809F471C003
:10392000A6E40E94F72809F47BC01092D60211C1C8
:1039300071FE03C0F0E0E0E0099584010E5F1F4FC7
:1039400076FE2CC062E0C8010E941F0774FE2DC0E5
:1039500061E0C8010E941F0772FE2EC060E0C8012E
:103960000E941F0789E28093CE021092CF0210922C
:10397000D0021092D1021092D2021092D302109271
:10398000D4021092D5021092DF021092E00210923F
:10399000E1021092E20289E290E09ECF77FED6CF5C
:1039A00062E0C8010E943007D1CF75FED5CF61E03B
:1039B000C8010E943007D0CF73FED4CF60E0C801A9
:1039C0000E943007CFCF7110CDCF0E944107A8EEE3
:1039D000AA2EB3E0BB2EC12CD12CE12CF12C00E09F
:1039E00010E00E947328DA01C901C296A11DB11D21
:1039F0008093CA029093CB02A093CC02B093CD02E5
:103A0000E7CE1092DF021092E0021092E1021092D3
:103A1000E2021092E4021092E30281E08093DE025F
:103A200040E050E0BA018401025F1F4FC8010E94CC
:103A3000A106FC016081CE0145960E94661A41E014
:103A400050E060E070E0C8010E94A106FC016081C6
:103A5000CE010B960E94661A42E050E060E070E0F2
:103A6000C8010E94A106FC016081CE0101960E945E
:103A7000661A60E08BE00E94E30040E050E0BA018B
:103A8000CE0145960E94A106FC01808160E090E095
:103A90000E943B0140E050E0BA01CE010B960E942B
:103AA000A106FC01808160E090E00E943B0140E0C3
:103AB00050E0BA01CE0101960E94A106FC0180816E
:103AC00060E090E00E943B0161E08BE00E94E30037
:103AD00060E08BE00E94E30041E050E060E070E0D5
:103AE000CE0145960E94A106FC01808161E090E034
:103AF0000E943B0141E050E060E070E0CE010B9697
:103B00000E94A106FC01808161E090E00E943B01DF
:103B100041E050E060E070E0CE0101960E94A10615
:103B2000FC01808161E090E00E943B0161E08BE05C
:103B30000E94E300CE0109960E94F60DCE01439645
:103B40000E94F60DCE014D960E94F60D86E48093FC
:103B5000D6021092D7021092D8021092D902109277
:103B6000DA021092DB021092DC021092DD0280E693
:103B7000F4018683178210861186128613861486B6
:103B800015861092DF021092E0021092E10210926C
:103B9000E20280E690E09093E4028093E30282E008
:103BA0008093DE0281E090E0F20191838083A6960B
:103BB0000FB6F894DEBF0FBECDBFDF91CF911F913E
:103BC0000F91FF90EF90DF90CF90BF90AF909F90BC
:103BD0008F907F905F904F9008950F931F93CF9396
:103BE000DF93CDB7DEB72A970FB6F894DEBF0FBECE
:103BF000CDBF8C01FC0110821182128213821482CB
:103C000015821682178211861086FB010190002012
:103C1000E9F73197E61BF70B9F0150E040E0CE013A
:103C200001960E942618BE016F5F7F4FC8010E9457
:103C3000A30ECE0109960E94F60D2A960FB6F894AF
:103C4000DEBF0FBECDBFDF91CF911F910F910895C1
:103C5000AF92BF92CF92DF92EF92FF920F931F939A
:103C6000CF93DF93CDB7DEB72B970FB6F894DEBFB7
:103C70000FBECDBF7C01FA01D080FCE3DF1214C07F
:103C800002960E94980B2B960FB6F894DEBF0FBEDB
:103C9000CDBFDF91CF911F910F91FF90EF90DF90FB
:103CA000CF90BF90AF9008955C0182E2A80EB11C46
:103CB0008701025D1F4F41E050E060E070E0C80105
:103CC0000E94A106FC018081811104C062E0C5014F
:103CD0000E94300740E050E0BA01C8010E94A106EE
:103CE000FC018081811104C061E0C5010E943007A0
:103CF00060E0C5010E94300741E050E060E070E004
:103D0000C8010E94A106FC01B08040E050E0BA0169
:103D1000C8010E94A106FC01C08067E572E0CE01E7
:103D200001960E94ED1D2B2D4C2D6D2DCE0101967F
:103D30000E949518E82FF0E0E05DFD4FC080CE01B5
:103D400009960E94F60D42E050E060E070E0C80184
:103D50000E94A106FC01A08041E050E060E070E01C
:103D6000C8010E94A106FC01B08069E072E0CE01AA
:103D700001960E94ED1D2A2D4B2D6C2DCE01019632
:103D80000E949518E82FF0E0E95AFD4FC080CE015F
:103D900009960E94F60D42E050E060E070E0C80134
:103DA0000E94A106FC01B08062EE71E0CE01019696
:103DB0000E94ED1D20E04B2D6C2DCE0101960E943E
:103DC0009518E82FF0E0E75FFD4FC080CE0109961F
:103DD0000E94F60D42E050E060E070E0C8010E94F1
:103DE000A106FC01B08069E072E0CE0101960E945C
:103DF000ED1D2B2D40E06C2DCE0101960E949518F3
:103E0000E82FF0E0E554FE4FC080CE0109960E94F5
:103E1000F60D41E050E060E070E0C8010E94A106AC
:103E2000FC01A08042E050E060E070E0C8010E9428
:103E3000A106FC01B08067E572E0CE0101960E9408
:103E4000ED1D2A2D4B2D6C2DCE0101960E9495184B
:103E5000E82FF0E0E75FFD4FC080CE0109960E9499
:103E6000F60D40E050E0BA01C8010E94A106FC0135
:103E7000B08041E050E060E070E0C8010E94A1061F
:103E8000FC01108160E372E0CE0101960E94ED1DFD
:103E90002B2D412F6C2DCE0101960E949518E82FF5
:103EA000F0E0E95AFD4F1081CE0109960E94F60D0F
:103EB0001B87D9826701FEE0CF0ED11CC6010E948C
:103EC000E406AE01455F5F4FBC01C6010E942416A7
:103ED000C6010E94EB05663071058105910518F059
:103EE000C6010E94080B8701085E1F4FC8010E948F
:103EF000E406AE014F5F5F4FBC01C8010E9424166B
:103F0000C8010E94EB05663071058105910518F026
:103F1000C8010E94080BC6010E94E4066C0197E0EC
:103F2000F92EC114D104A1F060E08F2D0E94CF0AB8
:103F3000F601668184EB93E00E94020BF7E0FF122A
:103F400002C086E0F82EF601C280D380FA94E9CF51
:103F5000C8010E94E4067C0117E0E114F10409F4B1
:103F600092CE61E0812F0E94CF0AF701668184EB37
:103F700093E00E94020B173009F416E0F701E2808B
:103F8000F3801150EACF1F920F920FB60F921124B7
:103F90002F933F938F939F93AF93BF938091A003F1
:103FA0009091A103A091A203B091A30330919F032C
:103FB00023E0230F2D3758F50196A11DB11D209345
:103FC0009F038093A0039093A103A093A203B093B7
:103FD000A3038091A4039091A503A091A603B0919F
:103FE000A7030196A11DB11D8093A4039093A5037F
:103FF000A093A603B093A703BF91AF919F918F9118
:104000003F912F910F900FBE0F901F90189526E8AB
:10401000230F0296A11DB11DD2CF1F920F920FB692
:104020000F9211242F933F934F935F936F937F933E
:104030008F939F93AF93BF93EF93FF938091B900BA
:10404000887F803609F44AC0F0F5883209F4A7C0A9
:1040500018F5803109F49BC0B8F4882309F4F9C03D
:10406000883009F494C0FF91EF91BF91AF919F9177
:104070008F917F916F915F914F913F912F910F9011
:104080000FBE0F901F901895883109F488C08032B8
:1040900051F78093780314C0803409F49DC040F434
:1040A0008033B9F38833F9F68093780385ECB0C098
:1040B000803509F485C0883509F496C0883499F6AE
:1040C0000E949E17D0CF883909F48CC038F5883704
:1040D00029F050F4883611F0803729F683E0809378
:1040E00079031092770357C0883809F47BC0803970
:1040F00019F0803809F0B7CF80917703803208F04B
:1041000071C0E091770381E08E0F809377038091F7
:10411000BB00F0E0E95AFC4F80833DC0803B39F0A2
:10412000E0F4803A09F479C0883A09F09CCF84E041
:10413000809379031092540310925303E09151033A
:10414000F091520309958091530381110FC081E0D2
:10415000809353031092310309C0803C09F4A6CF29
:10416000883C09F4A3CF883B09F07DCFE09154034C
:1041700081E08E0F80935403F0E0EF5CFC4F808170
:104180008093BB00909154038091530329C0809188
:104190009E038093BB0085EC8093BC0064CF90911C
:1041A0009D0380919C03981758F5E0919D0381E051
:1041B0008E0F80939D03F0E0E458FC4F8081E9CF9F
:1041C000E0919D0381E08E0F80939D038091BB0061
:1041D000F0E0E458FC4F808390919D0380919C0314
:1041E0009817C8F285E8D8CFE0919D0381E08E0F43
:1041F00080939D038091BB00F0E0E458FC4F8083E6
:1042000080917B0381115CCF81E080937A0384EA03
:104210008093BC001092790326CF85EC8093BC007C
:104220001092790380917703803230F4E091770324
:10423000F0E0E95AFC4F10826091770370E0E09162
:104240005503F091560387E593E0099510927703A3
:104250000ACF1092780334CF8F929F92AF92BF9281
:10426000CF92DF92EF92FF920F931F93CF93DF9342
:10427000CDB7DEB7C95ED1090FB6F894DEBF0FBE69
:10428000CDBF84E1EEE0F1E0DE01119601900D92E8
:104290008A95E1F7CA52DF4F188219821A821B826F
:1042A000C65DD040C652DF4F188219821A821B8227
:1042B000CA5DD040C252DF4F19821882CE5DD04015
:1042C00066ED70E06C0F7D1F685F7F4F2AE030E085
:1042D00040E050E0CE018A529F4F0E947414CE01FC
:1042E0008A529F4F0E940106FE0131969C01265F73
:1042F0003F4F40813296DC014D93CD01A217B307A9
:10430000C1F7C052DF4F188219821A821B82C05E29
:10431000D040CC51DF4F188219821A821B82C45EB2
:10432000D040C851DF4F19821882C85ED04060EE7D
:1043300070E06C0F7D1F685F7F4F22E030E040E04F
:1043400050E0CE0180529F4F0E947414CE018052E3
:104350009F4F0E94010629E0FC01208326E0218373
:10436000CE018A529F4F0E9401067C01C252DF4F4C
:1043700008811981CE5DD040C8010E94DC0330E085
:1043800020E081110CC0D80118962D913C91C652A5
:10439000DF4F88819981CA5DD040280F391FD7012E
:1043A0002A173B0709F18D9190E0FC01E656FF4F7B
:1043B00064918A579F4FFC018491882389F390E090
:1043C000880F991FFC01E859FF4F45915491FC015A
:1043D000EE58FF4F859194918FB7F894FA01908130
:1043E000962B90838FBFDCCFCE0180529F4F0E94CF
:1043F00001067C01C851DF4F08811981C85ED04099
:10440000C8010E94DC0330E020E081110CC0D8011B
:1044100018962D913C91CC51DF4F88819981C45ED3
:10442000D040280F391FD701A217B30731F18D9162
:1044300090E0FC01E656FF4F44918A579F4FFC01E4
:104440008491882389F390E0880F991FFC01E85933
:10445000FF4F65917491FC01EE58FF4F0591149147
:104460009FB7F894FB018081409584238083F801F5
:104470008081842380839FBFD7CF8E0102571F4F37
:104480008CE0D8011D928A95E9F7F801148615860B
:1044900016861786108A118A128A138A158A148A38
:1044A000B8016C5E7F4F23E030E040E050E0C8018F
:1044B0000C960E94FD13019679F0F801E488F588C6
:1044C000D7011A968C911A9781FF3EC4C7010B96AB
:1044D00019969C938E931897C8010C960E9401061A
:1044E000FC011082118212820E9417177C01B80110
:1044F000CE01C7960E94580EC7010E9443045C017A
:10450000BE01695C7F4FCE0101960E94580E6896ED
:104510001FAE68976A961FAE1EAE6A976C961FAE66
:104520001EAE6C97C854DF4F188219821A821B8204
:10453000C85BD040C454DF4F188219821A821B8294
:10454000CC5BD040C054DF4F19821882C05CD04091
:1045500048EBE42EF12CEC0EFD1EF8E0EF0EF11C02
:10456000AE01495A5F4FB701CE0188549F4F0E9458
:10457000D61788E190E00E942329D82E192F2AE728
:1045800031E0DC012D933D93CD01BE016F5F7F4F84
:104590000E94580E6D2D712FCE018C559F4F0E9499
:1045A000CB1285010B5F1F4FC8010E94DA045C012A
:1045B000BE016C557F4FCE0189589F4F0E94C50F99
:1045C0008CE090E00E9423296C0120E731E0FC019F
:1045D00021933193CF01BE0169587F4F0E94C50FCF
:1045E000B601CE01895A9F4F0E94CB12BE0168547A
:1045F0007F4F87E590E08C0F9D1F0A960E940D0D5E
:10460000BE01695A7F4FC5010E94A514CE01895A87
:104610009F4F0E945010CE0189589F4F0E94C00F9B
:10462000C8010E94DA045C01CE0188549F4F0E94A9
:10463000FE046C01C5010E94C204D60112969C932F
:104640008E931197CE0188549F4F0E94FE0421E063
:10465000FC012083CE0188549F4F0E94FE046C0110
:10466000C8010E94DA04D60114969C938E93139786
:10467000CE018C559F4F0E94C00FCE0145960E94DF
:10468000F60D87E390E08C0F9D1F44960E94F60D77
:10469000C7010E94C40C6B961CAE1DAE1EAE1FAEB1
:1046A0006B976C961FAE6C976D961FAE6D976E965E
:1046B0001FAE6E976F961FAE6F97A0961FAEA09716
:1046C000A1961FAEA197A2961FAEA297A3961FAE6A
:1046D000A39787E590E08C0F9D1F0C960E9405170D
:1046E00087E590E08C0F9D1F46960E94051710925B
:1046F00028031092270310922A03109229030E9484
:10470000E50184E292E0909352038093510385E2A5
:1047100092E090935603809355031092B9038091D1
:10472000BE03823018F098E09093B9038093BC03E5
:1047300062E370E080E090E00E948B016091BF0333
:1047400084EB93E00E94AC0268EE73E080E090E0BE
:104750000E948B0160E384EB93E00E949F0A0BE4CC
:1047600016E4C8010197F1F760E384EB93E00E943F
:104770009F0AC8010197F1F760E384EB93E00E9480
:104780009F0A83E592E00197F1F760E284EB93E002
:104790000E949F0A6091B903606240E084EB93E05D
:1047A0000E94B80A84E08093BA0340E06CE084EB96
:1047B00093E00E94B80A40E061E084EB93E00E943D
:1047C000B80A0BE31FE1C8010197F1F782E080937B
:1047D000BB0340E066E084EB93E00E94B80A40E04F
:1047E00062E084EB93E00E94B80AC8010197F1F7F8
:1047F00088E08093BF0360E084EB93E00E94AC020A
:104800000E9417178C01BE01695A7F4FCE01C796CF
:104810000E94580CC8010E9443044C01BE01695C0F
:104820007F4FCE0101960E94580C8E0109581F4FF0
:10483000F80110821282118214821382CE53DF4F4C
:10484000188219821A821B82C25CD040CA53DF4F81
:10485000188219821A821B82C65CD040C653DF4F71
:1048600019821882CA5CD04032ECC32ED12CCC0EF7
:10487000DD1EF8E0CF0ED11CA801B601CE018E538B
:104880009F4F0E94D61782E290E00E942329B82E03
:10489000F92EE82FF92F86E691E081939193BE01DE
:1048A0006F5F7F4FCF010E94580C6B2D7F2DCE0183
:1048B00088549F4F0E94CB12740125E0E20EF11C38
:1048C000C7010E94DA045C01BE0168547F4FCE012B
:1048D0008C559F4F0E94C50F8CE090E00E942329C9
:1048E0004C01FC018CE591E081939193BE016C55E4
:1048F0007F4FCF010E94C50FB401C8010E94CB12A7
:10490000BE016E537F4FC8010A960E940D0DB8017B
:10491000C5010E94A514C8010E945010CE018C55FB
:104920009F4F0E94C00FC7010E94DA044C01CE01C4
:104930008E539F4F0E94FE045C01C4010E94C2047A
:10494000D50112969C938E931197CE018E539F4F53
:104950000E94FE0421E0FC012083CE018E539F4F74
:104960000E94FE045C01C7010E94DA04D50114967E
:104970009C938E931397CE0188549F4F0E94C00F33
:10498000CE0101960E94B00CCE01C7960E94B00CD9
:10499000C6010E94C40C87E1F80111928A95E9F7DB
:1049A0008CE090E00E9423297C018CE0D7011D92CD
:1049B0008A95E9F7F801F58AE48A14861586168641
:1049C000178684E090E0A0E0B0E0808B918BA28B12
:1049D000B38B41E050E060E070E0F7014083518329
:1049E0006283738384839583A683B78385E08287FC
:1049F00088E090E00E949112D70119969C938E93C3
:104A00001897F801A488B588C5010E94AE038111EA
:104A100012C06801FCE0CF0ED11CC6010E941C062A
:104A2000672B682B692B09F097C1C6010E942205EC
:104A3000DC011D921C92D80156961C920E941717F9
:104A40007C01B801CE01C7960E94A90DC7010E9442
:104A500043045C01BE01695C7F4FCE0101960E9458
:104A6000A90DCC55DF4F1882C45AD040CB55DF4F2B
:104A700019821882C55AD040C955DF4F1982188251
:104A8000C75AD040C453DF4F188219821A821B8242
:104A9000CC5CD040C053DF4F188219821A821B822F
:104AA000C05DD040CC52DF4F19821882C45DD04027
:104AB0008CECE82EF12CEC0EFD1EB8E0EB0EF11C98
:104AC000AE014C555F4FB701CE0184539F4F0E94FA
:104AD000D61789E190E00E942329D82E192F22E5CC
:104AE00031E0FC0121933193CF01BE016F5F7F4F15
:104AF0000E94A90D6D2D712FCE018E539F4F0E94E4
:104B0000CB1285010B5F1F4FC8010E94DA045C01C4
:104B1000BE016E537F4FCE0188549F4F0E94C50F38
:104B20008CE090E00E9423296C0128E431E0DC0154
:104B30002D933D93CD01BE0168547F4F0E94C50F58
:104B4000B601CE018C559F4F0E94CB12BE0164531B
:104B50007F4F84EA90E08C0F9D1F0A960E940D0DF6
:104B6000BE016C557F4FC5010E94A514CE018C5526
:104B70009F4F0E945010CE0188549F4F0E94C00F3B
:104B8000C8010E94DA045C01CE0184539F4F0E9449
:104B9000FE046C01C5010E94C204F6019283818368
:104BA000CE0184539F4F0E94FE0421E0DC012C9330
:104BB000CE0184539F4F0E94FE046C01C8010E94E5
:104BC000DA04F60194838383CE018E539F4F0E94B3
:104BD000C00FCE0145960E94580D87E390E08C0FE0
:104BE0009D1F44960E94580DC7010E94C40CBE012F
:104BF000695A7F4FCE0101960E94580CBE01625740
:104C00007F4FCE0181960E94580E88E390E00E946B
:104C100023298C0124E831E0DC012D933D93CD0163
:104C2000BE016F5F7F4F0E94580CBE016F5D7F4FCA
:104C3000C80182960E94580E1FAA18AE19AE1AAE6D
:104C40001BAE1CAE1DAE1EAE21961FAE1EAE219732
:104C5000BE01615C7F4FCE01C7960115110509F0B9
:104C600092C00E945B1068EC73E080EC93E00E94BD
:104C70005B1021960EAD1FAD2197C8010E949703CE
:104C8000811108C01093C9030093C80321961FAE79
:104C90001EAE21978FA998ADA9ADBAAD8093C00380
:104CA0009093C103A093C203B093C3038BAD9CAD9B
:104CB000ADADBEAD8093C4039093C503A093C6036E
:104CC000B093C703BE01615C7F4FCE01C7960E94BF
:104CD0005B10CE01C5960E94F60DCE0101960E9492
:104CE000B00CCE0185579F4F0E94580DCE01895AB6
:104CF0009F4F0E94B00C8EE890E08C0F9D1F449651
:104D00000E94F60D80EE90E08C0F9D1F08960E9489
:104D1000F60D86ED90E08C0F9D1F08960E94F60D13
:104D2000C751DF4F0FB6F894DEBF0FBECDBFDF9186
:104D3000CF911F910F91FF90EF90DF90CF90BF9098
:104D4000AF909F908F90089583E090E00E94911221
:104D5000F70191878087C0CBF80180899189880FFE
:104D6000991FD5011896ED90FC90E80EF91EC6012A
:104D70000E9422058E159F0509F45DCEFC0111925B
:104D80001192CF01F7CF0E949712019609F46BCFD1
:104D90002196EEADFFAD219782858D7F8160828760
:104DA0001187008760CFE8EAF3E01382128288EE71
:104DB00093E0A0E0B0E084839583A683B78382E884
:104DC00092E091838083E0ECF3E010821182128202
:104DD000138214821582168217821186108668EC5F
:104DE00073E0CF010E945B10E4EBF3E013821282C8
:104DF00084E992E09183808387E2848380E18187E4
:104E000082E0828713860895789484B5826084BD99
:104E100084B5816084BD85B5826085BD85B58160BE
:104E200085BD80916E00816080936E00109281003C
:104E300080918100826080938100809181008160F7
:104E400080938100809180008160809380008091B8
:104E5000B10084608093B1008091B0008160809344
:104E6000B00080917A00846080937A0080917A000B
:104E7000826080937A0080917A00816080937A00CA
:104E800080917A00806880937A001092C1000E941D
:104E90002C2188248A94982C540134E0332E40E04D
:104EA000442E40E0542E0E941717EC010E94430448
:104EB0008C010B5F1F4FC8010E94DA047C010E9425
:104EC0006005811129C0C7010E94C505892B21F108
:104ED000C8010E94DA040E94C5056C01C8010E9445
:104EE000DA040E94C505FC0184819581892B09F0B3
:104EF00066C066246A94762C7601F0E1EF0EF11C10
:104F0000C7010E94FE04FC01208121FF5CC0C80192
:104F10000E94DA040E949805CE010E944304FC011D
:104F2000908190649083CE010E944304FC014181F2
:104F3000528163817481452B462B472B21F01182CE
:104F4000128213821482CE010E9443048C010596C2
:104F50000E94DA040E94EB05672B682B692BC1F4D1
:104F6000E885F9853097A1F08285882389F08081D2
:104F70009181A281B3810097A105B10549F02085F7
:104F80003185232B29F00297A105B10508F054C003
:104F9000F80161817281838194810E948B01CE012D
:104FA0000E944304FC0181829282A382B482CE01DA
:104FB0000E944304FC0190819F7B90830CC0662477
:104FC0006394712C99CF22FF0DC0C8010E94DA04AE
:104FD000B6010E94D7104114510409F464CF0E9415
:104FE000000061CF22602083C60106960E946704FC
:104FF0006C01C8010E94DA040E946005811112C090
:10500000FFEFCF16DF0691F0CD2861F0C7010E94B7
:10501000FE04FC0190819D7F9083C8010E94DA0408
:105020000E9498056A946728B1F276CFC7010E9462
:10503000FE04FC013082F6CF68EE73E080E090E081
:10504000ACCF68EC73E080EC93E00C945B1087FBD2
:10505000082E062687FD819567FD61950E9403292C
:105060000EF4919507FC8195089597FB072E16F491
:10507000009407D077FD09D00E940F2907FC05D0C6
:105080003EF4909581959F4F0895709561957F4F5F
:105090000895A1E21A2EAA1BBB1BFD010DC0AA1F79
:1050A000BB1FEE1FFF1FA217B307E407F50720F091
:1050B000A21BB30BE40BF50B661F771F881F991F0C
:1050C0001A9469F760957095809590959B01AC0155
:1050D000BD01CF010895EE0FFF1F0590F491E02D63
:1050E0000994689401C0E8948F929F92CF93DF93C4
:1050F0000E947F28DF91CF919F908F900895882400
:105100009924F401E401B0E49F93AA279A158B0433
:105110009C04ED05FE05CF05D007A10798F4AD2F3F
:10512000DC2FCF2FFE2FE92D982C892E982F872F3B
:10513000762F652F542F432F322F2227B85031F767
:10514000BF9127C01B2EBF91BB27220F331F441FC7
:10515000551F661F771F881F991F881C991CEE1FFB
:10516000FF1FCC1FDD1FAA1FBB1F8A149B04EC0569
:10517000FD05CE05DF05A007B10748F08A189B089A
:10518000EC09FD09CE09DF09A00BB10B21601A94CF
:10519000E1F62EF49401AF01BE01CD01000C08959B
:1051A0002A0D3B1D4C1D5D1D6E1D7F1D801F911F17
:1051B00008950024A7FD00942A0F301D401D501DA6
:1051C000601D701D801D901D08952A193B094C0912
:1051D0005D096E097F09800B910B08952A153B0527
:1051E0004C055D056E057F05800791070895002435
:1051F000A7FD00942A17300540055005600570058D
:10520000800590050895991B79E004C0991F9617B1
:1052100008F0961B881F7A95C9F780950895AA1BF8
:10522000BB1B51E107C0AA1FBB1FA617B70710F091
:10523000A61BB70B881F991F5A95A9F780959095C3
:10524000BC01CD0108950F931F93CF93DF9382305C
:10525000910510F482E090E0E091CC03F091CD0351
:1052600030E020E0B0E0A0E0309799F4211531055E
:1052700009F44AC0281B390B24303105D8F58A813E
:105280009B816115710589F1FB0193838283FE0186
:1052900011C0408151810281138148175907E0F004
:1052A0004817590799F4109761F012960C931297CA
:1052B00013961C933296CF01DF91CF911F910F91DE
:1052C00008950093CC031093CD03F4CF211531053D
:1052D00051F04217530738F0A901DB019A01BD01D3
:1052E000DF01F801C1CFEF01F9CF9093CD03809397
:1052F000CC03CDCFFE01E20FF31F81939193225097
:10530000310939832883D7CF2091CA033091CB0349
:10531000232B41F420910201309103013093CB0300
:105320002093CA032091000130910101211531051C
:1053300041F42DB73EB74091040150910501241B63
:10534000350BE091CA03F091CB03E217F307A0F409
:105350002E1B3F0B2817390778F0AC014E5F5F4FCB
:105360002417350748F04E0F5F1F5093CB0340932F
:10537000CA03819391939FCFF0E0E0E09CCFCF935D
:10538000DF930097E9F0FC01329713821282A0911B
:10539000CC03B091CD03ED0130E020E01097A1F4F3
:1053A00020813181820F931F2091CA033091CB035A
:1053B0002817390709F061C0F093CB03E093CA03C3
:1053C000DF91CF910895EA01CE17DF07E8F54A8112
:1053D0005B819E0141155105B1F7E901FB83EA8329
:1053E00049915991C40FD51FEC17FD0761F48081D5
:1053F00091810296840F951FE901998388838281A8
:1054000093819B838A83F0E0E0E012968D919C91DA
:1054100013970097B9F52D913C911197CD01029604
:10542000820F931F2091CA033091CB0328173907AD
:1054300039F6309751F51092CD031092CC03B0930A
:10544000CB03A093CA03BCCFD383C28340815181D5
:10545000840F951FC817D90761F44E5F5F4F88818D
:105460009981480F591F518340838A819B8193837F
:1054700082832115310509F0B0CFF093CD03E0937D
:10548000CC039ECFFD01DC01C0CF13821282D7CFA7
:10549000FB01DC0102C001900D9241505040D8F751
:1054A0000895AEE0B0E0E7E5FAE20C940D2D0D8929
:1054B0001E898F89988D26E02C831A83098397FF94
:1054C00002C080E090E801979E838D83AE01455E27
:1054D0005F4F698D7A8DCE0101960E94812A4D81A0
:1054E0005E8157FD0AC02F813885421753070CF49F
:1054F0009A01020F131FF80110822E96E4E00C941B
:10550000292DABE0B0E0E7E8FAE20C94FF2C7C0137
:105510003B018A01FC0117821682838181FFC8C189
:10552000CE0101965C01F7019381F30193FD859112
:1055300093FF81913F01882309F453C1853239F4E7
:1055400093FD859193FF81913F01853229F4B70145
:1055500090E00E94712CE7CF912C212C312CFFE19F
:10556000F31538F08B3211F190F4803209F1833267
:1055700029F137FC3CC020ED280F2A3050F536FECB
:1055800020C08AE0989E200D1124922E06C08D32F4
:1055900091F0803371F7689430F8F30193FD8591B1
:1055A00093FF81913F018111DACF21C0689431F8D6
:1055B000689432F8F2CF689433F8EFCF689434F8F7
:1055C000ECCFEAE02E9E200D1124222E689435F8AF
:1055D000E4CF8E3229F436FC04C1689436F8DDCF6E
:1055E0008C3619F4689437F8D8CF8836B1F2982FF2
:1055F0009F7D95549330E0F08336A1F18337C1F15C
:10560000833509F063C02801F2E04F0E511CF80108
:10561000C080D180692D70E036FC02C06FEF7FEF53
:10562000C6010E945B2C4C01689437F882010AC0C5
:105630000C5F1F4FFFE3F98388248394912C65014D
:10564000E89437F833FE2DC0522C8114910471F583
:10565000552009F468CFB70180E290E00E94712CD8
:105660005A94F6CFF801808189830E5F1F4FE4CFF3
:105670002801F2E04F0E511CF801C080D180692D45
:1056800070E036FC02C06FEF7FEFC6010E94662C0F
:105690004C018201D5CFB70180E290E00E94712CCD
:1056A0002A942814190409F0B0F7CECFF60137FC7C
:1056B000859137FE81916F01B70190E00E94712CB6
:1056C00051105A94F1E08F1A9108BFCF843619F027
:1056D000893609F077C0F80137FE6BC060817181AF
:1056E000828193810C5F1F4FF32DFF763F2E97FF32
:1056F00009C090958095709561957F4F8F4F9F4F12
:10570000689437F82AE030E0A5010E94A12CC82E49
:10571000CA188C2C432C36FE0CC0E89440F8C914EF
:1057200040F434FE05C032FC03C0F32DFE7E4F2E44
:10573000892C44FE95C0FE01EC0DF11D8081803363
:1057400009F087C0242D297E422E842D8870582E82
:1057500043FC95C040FE8FC09C2C821418F42C0C86
:10576000922C981844FE91C0B70180E390E00E940B
:10577000712C42FE09C088E790E041FE02C088E536
:1057800090E0B7010E94712CC91408F48AC0CA9431
:10579000D12C9FEFC91AD90ACA0CDB1CF6018291E1
:1057A0006F01B70190E00E94712CAC14BD04B1F7F9
:1057B0004FCF60817181072E000C880B990B0E5F13
:1057C0001F4F92CFD32CE894D4F82AE030E08537ED
:1057D00039F1232D297FD22E8F3601F148F48835F7
:1057E000A9F0F701868197812B96E2E10C941B2D9D
:1057F000803749F08837A9F7D4FE02C06894D2F800
:1058000020E130E00DC06894D4F8F6CF34FE03C038
:10581000822F8660D82E20E132E002C028E030E0FE
:10582000F801D7FE0FC060817181828193810C5F86
:105830001F4FA5010E94A12CC82ECA183D2CE89428
:1058400037F867CF6081718190E080E00E5F1F4F75
:10585000F0CF42FC02C0839478CF8394839475CFB9
:10586000842D867809F471CFF6CFB70180E290E0FD
:105870000E94712C83948214C0F3512C73CF522C4C
:105880005818821408F46ECFF8CF842D867809F466
:105890007BCF8BE241FE80E247FC8DE2B70190E0D6
:1058A00071CFB70180E390E00E94712C9A946CCF85
:1058B0008FEF9FEF99CFFC01059061507040011070
:1058C000D8F7809590958E0F9F1F0895FC01615029
:1058D000704001900110D8F7809590958E0F9F1F12
:1058E00008950F931F93CF93DF93182F092FEB0188
:1058F0008B8181FD09C01FEF0FEF812F902FDF916A
:10590000CF911F910F91089582FF14C02E813F8186
:105910008C819D81281739073CF4E881F981CF01FA
:1059200001969983888310838E819F8101969F833E
:105930008E83E3CFE885F985812F0995892BA1F323
:10594000DACFFA01AA27283051F1203181F1E89409
:105950006F936E7F6E5F7F4F8F4F9F4FAF4FB1E062
:105960003ED0B4E03CD0670F781F891F9A1FA11D5D
:10597000680F791F8A1F911DA11D6A0F711D811D5E
:10598000911DA11D20D009F468943F912AE0269F23
:1059900011243019305D3193DEF6CF010895462F82
:1059A0004770405D4193B3E00FD0C9F7F6CF462F63
:1059B0004F70405D4A3318F0495D31FD40524193CC
:1059C00002D0A9F7EACFB4E0A69597958795779589
:1059D0006795BA95C9F700976105710508959B0110
:1059E000AC010A2E06945795479537952795BA9599
:1059F000C9F7620F731F841F951FA01D08952F9272
:105A00003F924F925F926F927F928F929F92AF924E
:105A1000BF92CF92DF92EF92FF920F931F93CF939B
:105A2000DF93CDB7DEB7CA1BDB0B0FB6F894DEBF32
:105A30000FBECDBF09942A88398848885F846E8458
:105A40007D848C849B84AA84B984C884DF80EE80A2
:105A5000FD800C811B81AA81B981CE0FD11D0FB6AB
:105A6000F894DEBF0FBECDBFED01089510E0C2E691
:105A7000D0E004C0FE010E946B282196C336D107F6
:065A8000C9F7F894FFCF06
:105A86000000CE03200000004000140054000D006A
:105A96000C000B000A0008000700050004000300C4
:105AA6000200FF5B202020202D205DFF5B44454344
:105AB6005DFF00FF5B202020202D205DFF5B454E13
:105AC600435DFF00000000003E104610B7040000D2
:105AD6000000A10D3A0FB808000000002C10341089
