:100000000C945C000C9479000C9479000C947900A9
:100010000C9479000C9479000C9479000C9479007C
:100020000C9479000C9479000C9479000C9479006C
:100030000C9479000C9479000C9479000C9479005C
:100040000C9420160C9479000C9479000C9479008F
:100050000C9479000C9479000C9479000C9479003C
:100060000C9479000C947900000000080002010053
:100070000003040700000000000000000000000072
:10008000250028002B0000000000240027002A0083
:10009000040404040404040402020202020203032E
:1000A0000303030301020408102040800102040836
:1000B000102001020408102011241FBECFEFD8E049
:1000C000DEBFCDBF11E0A0E0B1E0E0E7FBE302C09E
:1000D00005900D92AA35B107D9F721E0AAE5B1E064
:1000E00001C01D92A839B207E1F70E946A160C946C
:1000F000B61D0C94000090E0FC01E859FF4F2491DC
:10010000FC01EC55FF4F3491FC01E057FF4FE491A7
:10011000EE23C9F0222339F0233001F1A8F4213075
:1001200019F1223029F1F0E0EE0FFF1FE458FF4FE4
:10013000A591B4918FB7F894EC91611126C03095D8
:100140003E233C938FBF08952730A9F02830C9F093
:10015000243049F7809180008F7D03C0809180001A
:100160008F7780938000DFCF84B58F7784BDDBCF1E
:1001700084B58F7DFBCF8091B0008F778093B000E6
:10018000D2CF8091B0008F7DF9CF3E2BDACF3FB731
:10019000F89480917E0190917F01A0918001B091AF
:1001A000810126B5A89B05C02F3F19F00196A11D1E
:1001B000B11D3FBFBA2FA92F982F8827BC01CD01B1
:1001C000620F711D811D911D42E0660F771F881F10
:1001D000991F4A95D1F70895FC01892B91F08285EA
:1001E000882379F080819181A281B381892B8A2B28
:1001F0008B2B39F081E020853185232B19F080E0AD
:10020000089581E00895FC01892B91F0828588236F
:1002100079F080819181A281B381892B8A2B8B2BEC
:1002200039F081E020853185232B19F080E0089595
:1002300081E00895FC01892B91F08285882379F073
:1002400080819181A281B381892B8A2B8B2B39F0FC
:1002500081E020853185232B19F080E0089581E02D
:100260000895FC01892B91F08285882379F08081A3
:100270009181A281B381892B8A2B8B2B39F081E06C
:1002800020853185232B19F080E0089581E00895C1
:10029000FC01892B91F08285882379F080819181FE
:1002A000A281B381892B8A2B8B2B39F081E02085A9
:1002B0003185232B19F080E0089581E00895CF93D4
:1002C000DF93FC01C085D185CE010E94EC00811135
:1002D00009C081E0488159816A817B81452B462B89
:1002E000472B09F480E0DF91CF910895CF92DF9200
:1002F000EF92FF920F931F93CF93DF9300D0CDB770
:10030000DEB78C017B01DC011A96CD90DC90C60132
:100310000E941A01811146C0F8018281938126E171
:10032000289FA001299F500D1124D60118960D91E8
:100330001C91040F151FC8010E945F01882311F151
:10034000F801C084D184C6010E94EC0081112DC047
:10035000D8012D913C91220F331FF60180859185A4
:10036000820F931F9801265F3F4FA801425F5F4FA6
:10037000DC01ED91FC910480F581E02DBE016F5F01
:100380007F4F099589819A81F701918380830F902E
:100390000F90DF91CF911F910F91FF90EF90DF9021
:1003A000CF90089510E000E0C6CF90E080E0DACF73
:1003B0000F931F93CF93DF938C01FC01C085D185F0
:1003C000CE010E940301811112C0F8018081918148
:1003D0004AE0489F9001499F300D112488859985F6
:1003E000820F931FDF91CF911F910F91089590E09D
:1003F00080E0F8CF0F931F93CF93DF938C01FC0124
:10040000C085D185CE010E943101811112C0F80151
:10041000808191814AE0489F9001499F300D1124CD
:1004200088859985820F931FDF91CF911F910F913E
:10043000089590E080E0F8CF0F931F93CF93DF9360
:10044000EC01888599850E940301811111C06C819E
:100450007D818E819F81088119812A813B81601B6A
:10046000710B820B930BDF91CF911F910F91089528
:1004700060E070E0CB01F7CFCF93DF93EC0188858C
:1004800099850E940301282F811109C0CE010E9485
:100490001C0221E0672B682B692B09F020E0822FDA
:1004A000DF91CF9108958F929F92AF92BF92CF929A
:1004B000DF92EF92FF920F931F93CF93DF938C0104
:1004C0006A017B010E941C024B015C01C8010E9471
:1004D000D801EC01C814D904EA04FB04B0F42AE002
:1004E0002C9DC0012D9D900D1124C80FD91FCE0148
:1004F000DF91CF911F910F91FF90EF90DF90CF9000
:10050000BF90AF909F908F900895C8010E943C02C9
:100510008111EDCFC701B601A50194010E94A61B70
:100520002AE0269FA001279F500D1124C40FD51F3C
:10053000DECFDC011896ED91FC9119973097D1F040
:1005400082858823B9F04081518162817381452B76
:10055000462B472B79F080859185009769F04D9166
:100560005C916FE0649F9001659F300D1124820FB4
:10057000931F089590E080E00895EF92FF920F930B
:100580001F93CF93DF9300D0CDB7DEB78C010E94CD
:100590005F018823F1F0D8011896ED90FC90C70117
:1005A0000E94EC00811120C0F80120813181220FCE
:1005B000331FD70118968D919C91820F931FDC01F8
:1005C000ED91FC910480F581E02DBE016F5F7F4FBE
:1005D000099589819A810F900F90DF91CF911F919A
:1005E0000F91FF90EF90089590E080E0E8CFCF93D7
:1005F000DF93EB0102960E94BD0299838883DF910D
:10060000CF9108950E94FA01FC01808191810895A3
:10061000CF93DF93EC010E94FA01FC018481958164
:10062000009729F4CE01DF91CF910C940203DF9162
:10063000CF910895DC011896ED91FC9119973097B0
:10064000D1F082858823B9F0408151816281738124
:10065000452B462B472B79F080859185009769F0D3
:100660004D915C916AE0649F9001659F300D11246B
:10067000820F931F089590E080E00895DC011896A2
:10068000ED91FC9119973097D1F082858823B9F0CC
:100690004081518162817381452B462B472B79F034
:1006A00080859185009769F04D915C9165E0649F2C
:1006B0009001659F300D1124820F931F089590E0E3
:1006C00080E00895DC011896ED91FC911997309720
:1006D000B1F08285882399F04081518162817381D4
:1006E000452B462B472B59F080859185009749F083
:1006F0002D913C91220F331F820F931F089590E09C
:1007000080E008950F931F93CF93DF93EC0108854A
:100710001985C8010E94480181110CC0F80180852B
:10072000918528813981820F931FDF91CF911F918D
:100730000F91089590E080E0F8CFCF93DF93EC0124
:100740000E943C02811105C0CE01DF91CF910C9433
:100750001C0260E070E0CB01DF91CF910895CF9350
:10076000DF93EC01888599850E94310181110DC0CC
:10077000CE010E94FA0121E0FC0186819781A085CB
:10078000B185892B8A2B8B2B09F020E0822FDF91FA
:10079000CF9108950F931F93CF93DF938C01EB01BB
:1007A0000E94AF03282F81110BC0209751F0C80180
:1007B0000E94FA0121E0488159814817590709F040
:1007C00020E0822FDF91CF911F910F9108950F9319
:1007D0001F93CF93DF93EC010E94AF03811121C0DF
:1007E000CE010E94FA018C01DC011296ED91FC9180
:1007F000309791F4CE010E940803F801938382831D
:10080000CE010E94FA01DC0112968D919C91DF913C
:10081000CF911F910F91089584819581009769F779
:10082000E9CF90E080E0F3CF0F931F93CF93DF9356
:10083000EC010E94AF0381111AC0CE010E94FA019F
:100840008C01FC0182819381892B31F4CE010E94BD
:100850000203F80193838283CE010E94FA01FC0116
:1008600082819381DF91CF911F910F91089590E044
:1008700080E0F8CF8F929F92AF92BF92CF92DF929B
:10088000EF92FF920F931F93CF93DF938C016A0136
:100890007B01FC01808591850E944801B82EC8012A
:1008A0000E948203EC01B11016C0F801848095808B
:1008B000A680B78080819181A281B381A501940136
:1008C000281B390B4A0B5B0BC216D306E406F50650
:1008D00080F4CC0DDD1DCE01DF91CF911F910F91E2
:1008E000FF90EF90DF90CF90BF90AF909F908F9050
:1008F000089588169906AA06BB0669F3C701B601D2
:100900000E94A61BC60FD71FE6CF2F923F924F9291
:100910005F926F927F928F929F92AF92BF92CF928F
:10092000DF92EF92FF920F931F93CF93DF93CDB798
:10093000DEB72C970FB6F894DEBF0FBECDBF809107
:100940006A01811117C00E94C7007B018C0160936E
:100950006201F0926301809364011093650110922B
:10096000660110926701109268011092690181E09E
:1009700080936A010E94C7007B018C016983FA821F
:100980008B831C837090620180906301909064015E
:10099000F0906501FC86009166010B87B0916701BC
:1009A000F0916801E091690120905A0130905B015B
:1009B00040905C0150905D0160905E01A0915F01EC
:1009C000109160011987209161012A87272D382D08
:1009D000492D5F2D602F7B2F8F2F9E2FAE2CBA803D
:1009E000CB80DC80E12CF12C00E010E00E94681C40
:1009F00009F008F466C09101A201662D7A2F89855D
:100A00009A85AFEF0E94531CA72CB82CC92CDC840C
:100A1000EB84FB2E0F2F1E2F0E945F1CA980BA8033
:100A2000CB80DC80E12CF12C00E010E00E944A1C1D
:100A300020935A0130935B0140935C0150935D0118
:100A400060935E0170935F018093600190936101F8
:100A5000A0926201B0926301C0926401D0926501DC
:100A6000109266011092670110926801109269015C
:100A700020915A0130915B0140915C0150915D01E0
:100A800060915E0170915F018091600190916101C0
:100A90002C960FB6F894DEBF0FBECDBFDF91CF917D
:100AA0001F910F91FF90EF90DF90CF90BF90AF908C
:100AB0009F908F907F906F905F904F903F902F907E
:100AC00008959101A201662D7A2F89859A85A72C18
:100AD000B82CC92CDC84EB84FB2E0F2F1E2F0E9418
:100AE0005F1CA980BA80CB80DC80E12CF12C00E077
:100AF00010E00E944A1C20935A0130935B014093FE
:100B00005C0150935D0160935E0170935F0180937F
:100B1000600190936101A0926201B0926301C09262
:100B20006401D09265019CCF0F931F93CF93DF9305
:100B3000DB012D913C91232B41F58B01EC018CE0E5
:100B400090E00E94911CFC018CE0DF011D928A95CF
:100B5000E9F7D801ED93FC93188219821A821B825F
:100B60001C821D821E821F8281E090E0A0E0B0E026
:100B700080839183A283B38385E0828781E090E0C4
:100B8000DF91CF911F910F9108958FEF9FEFF8CFD5
:100B90000F931F93CF93DF93DB012D913C91232B78
:100BA00041F58B01EC018CE090E00E94911CFC016E
:100BB0008CE0DF011D928A95E9F7D801ED93FC9353
:100BC000188219821A821B821C821D821E821F8239
:100BD00081E090E0A0E0B0E080839183A283B383C2
:100BE00085E0828781E090E0DF91CF911F910F91A6
:100BF00008958FEF9FEFF8CF0F931F93CF93DF935D
:100C0000DB012D913C91232B41F58B01EC018CE014
:100C100090E00E94911CFC018CE0DF011D928A95FE
:100C2000E9F7D801ED93FC93188219821A821B828E
:100C30001C821D821E821F8281E090E0A0E0B0E055
:100C400080839183A283B38385E0828781E090E0F3
:100C5000DF91CF911F910F9108958FEF9FEFF8CF04
:100C6000CF92DF92EF92FF920F931F93CF93DF9378
:100C7000DB01ED91FC91EF2B91F569017A018B017C
:100C8000EC018CE090E00E94911CFC018CE0DF0103
:100C90001D928A95E9F7D801ED93FC931882198289
:100CA0001A821B82CC82DD82EE82FF8281E090E09C
:100CB000A0E0B0E080839183A283B383C482D58215
:100CC000E682F78285E0828781E090E0DF91CF9134
:100CD0001F910F91FF90EF90DF90CF9008958FEFCD
:100CE0009FEFF4CFCF92DF92EF92FF920F931F937B
:100CF000CF93DF93DB01ED91FC91EF2B91F569012F
:100D00007A018B01EC018CE090E00E94911CFC01C7
:100D10008CE0DF011D928A95E9F7D801ED93FC93F1
:100D2000188219821A821B82CC82DD82EE82FF82B7
:100D300081E090E0A0E0B0E080839183A283B38360
:100D4000C482D582E682F78285E0828781E090E0E6
:100D5000DF91CF911F910F91FF90EF90DF90CF9097
:100D600008958FEF9FEFF4CF2F923F924F925F92B3
:100D70006F927F928F929F92AF92BF92CF92DF92AB
:100D8000EF92FF920F931F93CF93DF9300D000D089
:100D9000CDB7DEB71C017C836B838A016901FA0140
:100DA0009080A180B280E380F480B58186807780D6
:100DB000292D3A2D4B2D5E2D6F2D7B2F882D972DB4
:100DC000A0E00E94711C21F1A0E30E94711C79F146
:100DD000F6011082118212821382F80110821182B0
:100DE0001282138214821582168217821092730166
:100DF0001092740110927501109276011092780190
:100E00001092770188E0809372018FEF9FEFD4C03A
:100E10001092730110927401109275011092760174
:100E2000109278011092770181E080937201710134
:100E3000F2E0EF0EF11CC7010E946203FC01208169
:100E400031812462396431832083FCE02F0E311C10
:100E5000C1010E949D032B013C015301420181E02D
:100E6000881A9108A108B1089FEF89169906A9066A
:100E7000B90609F451C0B501A401C1010E94530291
:100E80006C0143E050E060E070E00E943A04FC0135
:100E900080818230F1F542E050E060E070E0C60110
:100EA0000E943A046C01C7010E946203F60120818E
:100EB00041E050E002C0440F551F2A95E2F74095EB
:100EC0005095FC01208131812423352331832083F7
:100ED000B301A201C1010E94530242E050E060E070
:100EE00070E00E943A046C01C7010E946203F6019F
:100EF000208141E050E002C0440F551F2A95E2F7DF
:100F000040955095FC012081318124233523318384
:100F1000208324013501A1CF60E08BE00E947B009B
:100F2000C7010E946203FC01808191819A838983B9
:100F30007E01F3E0EF0EF11CCE0101965C01EA1494
:100F4000FB04C9F0F701C2907F0188E0D82E6C2D18
:100F5000661F6627661F8CE00E947B00CC0C61E058
:100F60008AE00E947B0060E08AE00E947B00DA94C5
:100F7000D110EDCFE4CF61E08BE00E947B0080E3F5
:100F8000F8018083118212821382148215821682E4
:100F900017821092730110927401109275011092D1
:100FA000760180E390E0909378018093770182E06E
:100FB0008093720181E090E0EB81FC8191838083DA
:100FC0000F900F900F900F90DF91CF911F910F9185
:100FD000FF90EF90DF90CF90BF90AF909F908F9059
:100FE0007F906F905F904F903F902F9008950F9358
:100FF0001F93CF93DF93DC01ED91FC913097E9F1E2
:1010000040815181628173814115510561057105EE
:10101000A1F18C01DB01CA010197A109B10980830B
:101020009183A283B3834130510561057105D9F4E1
:10103000F801C081D181209789F088859985009732
:1010400069F02A85222351F020FD0E942D1D1A8669
:1010500019861886188219821A821B82D8018D91EE
:101060009C910E942D1DF8011182108281E090E078
:10107000DF91CF911F910F9108958FEF9FEFF8CFE0
:101080000F931F93CF93DF93DC01ED91FC91309789
:10109000E9F14081518162817381411551056105FA
:1010A0007105A1F18C01DB01CA010197A109B10908
:1010B00080839183A283B38341305105610571051B
:1010C000D9F4F801C081D181209789F0888599856C
:1010D000009769F02A85222351F020FD0E942D1DE2
:1010E0001A8619861886188219821A821B82D801DC
:1010F0008D919C910E942D1DF8011182108281E03A
:1011000090E0DF91CF911F910F9108958FEF9FEFA6
:10111000F8CF0F931F93CF93DF93DC01ED91FC91F8
:101120003097E9F140815181628173814115510508
:1011300061057105A1F18C01DB01CA010197A109CB
:10114000B10980839183A283B38341305105610546
:101150007105D9F4F801C081D181209789F0888583
:101160009985009769F02A85222351F020FD0E947D
:101170002D1D1A8619861886188219821A821B82DA
:10118000D8018D919C910E942D1DF8011182108231
:1011900081E090E0DF91CF911F910F9108958FEF43
:1011A0009FEFF8CF0F931F93CF93DF93EC018B0149
:1011B000188219821A821B821C821D821E821F8243
:1011C0001986188608960E948908D8011896ED910C
:1011D000FC913097E1F082858823C9F0808191816C
:1011E000A281B381892B8A2B8B2B89F080859185F5
:1011F000892B69F0F987E88780819181A281B38189
:101200000196A11DB11D80839183A283B383F80150
:1012100080819181A281B38188839983AA83BB83D2
:1012200084819581A681B7818C839D83AE83BF83A2
:10123000DF91CF911F910F9108950F931F93CF933B
:10124000DF93DC01ED91FC913097E9F14081518110
:10125000628173814115510561057105A1F18C0110
:10126000DB01CA010197A109B10980839183A2839F
:10127000B3834130510561057105D9F4F801C0818E
:10128000D181209789F088859985009769F02A8512
:10129000222351F020FD0E942D1D1A8619861886E2
:1012A000188219821A821B82D8018D919C910E940A
:1012B0002D1DF8011182108281E090E0DF91CF9125
:1012C0001F910F9108958FEF9FEFF8CFEF92FF924C
:1012D0000F931F93CF93DF93EC017B011882198248
:1012E0001A821B821C821D821E821F82198618860A
:1012F00008960E941D09F70100851185C8010E940A
:10130000480181110EC019870887F80180819181F9
:10131000A281B3810196A11DB11D80839183A28317
:10132000B383F70180819181A281B38188839983FE
:10133000AA83BB8384819581A681B7818C839D8399
:10134000AE83BF83DF91CF911F910F91FF90EF90FC
:101350000895CF92DF92EF92FF920F931F93CF9356
:10136000DF93DB01ED91FC91EF2B51F4DF91CF91F5
:101370001F910F91FF90EF90DF90CF900C94720629
:1013800069017A01EB018C01CB010E941D090196D4
:1013900069F4198218828FEF9FEFDF91CF911F912F
:1013A0000F91FF90EF90DF90CF900895A7019601E5
:1013B000BE01C8010E947206019659F381E090E0D7
:1013C000ECCFEF92FF920F931F93CF93DF93EC013B
:1013D0007B01188219821A821B821C821D821E8246
:1013E0001F8219861886BC01685F7F4F24E030E0B9
:1013F00040E050E00E94A909019671F00885198526
:10140000D8011A968C911A9781FF16C0C8010B96C5
:1014100019969C938E931897CE010E948203F70130
:10142000AC014C5F5F4F8417950771F020813296B5
:10143000DC012D93CD01F7CF84E090E00E94911C58
:10144000F80191878087E8CFDF91CF911F910F91AD
:10145000FF90EF900895EF92FF920F931F93CF9319
:10146000DF93DB01ED91FC91309709F46DC0808131
:101470009181A281B3810097A105B10509F464C0EF
:101480008B01AC01BD0141505109610971094083D3
:101490005183628373830197A105B10509F040C0B0
:1014A000F801C081D1812097B1F188859985009795
:1014B00091F12A85222379F120FF26C04C815D819C
:1014C0006E817F81452B462B472BB1F1FC01329772
:1014D00020813181220F331F820F931F7C01F2E0A4
:1014E000EF1AF108288539852817390751F0D701F7
:1014F000ED91FC910190F081E02DC7010995C701A4
:10150000EDCFC7010E942D1D1A86198618861882F4
:1015100019821A821B82F801808191810E942D1DFF
:10152000D8011D921C9281E090E0DF91CF911F9134
:101530000F91FF90EF900895DC01ED91FC910280F6
:10154000F381E02D0995E0CF8FEF9FEFEECFEF9283
:10155000FF920F931F93CF93DF934115510549F4E9
:101560008FEF9FEFDF91CF911F910F91FF90EF9041
:1015700008957A01EB018C0188819981892BC9F446
:1015800020E030E0A901C8010E943006019641F335
:10159000E881F98182858D7F8287E881F981828562
:1015A00081608287E881F981F186E08681E090E0C0
:1015B000D9CFC8010E942B0A019619F4198218820A
:1015C000CFCF20E030E0A901BE01C8010E94300663
:1015D0000196F1F6F3CFBC0126E331E0FC01219343
:1015E0003193CF01665F7F4F0C942B0ACF93DF932B
:1015F000EC010E94EB0ACE01DF91CF910C942D1DDE
:10160000EF92FF920F931F93CF93DF93EC017B0137
:10161000BC01685F7F4F0E942B0AF701008511858E
:10162000C8010E94EC0081110EC019870887F801DB
:1016300080819181A281B3810196A11DB11D80831A
:101640009183A283B383F70180819181A281B381C9
:1016500088839983AA83BB8384819581A681B7817E
:101660008C839D83AE83BF83DF91CF911F910F91B8
:10167000FF90EF9008950F931F93CF93DF93EC01AA
:101680008B01188219821A821B821C821D821E8283
:101690001F82198618860E94000B1A861B861C86DC
:1016A0001D861E861F86188A198A1B8A1A8ACE01F1
:1016B00042960E944008D8015296ED91FC913097D5
:1016C000E1F082858823C9F080819181A281B38174
:1016D000892B8A2B8B2B89F080859185892B69F04A
:1016E000FB8BEA8B80819181A281B3810196A11D40
:1016F000B11D80839183A283B383F8018285938592
:10170000A485B5858A879B87AC87BD8786859785A5
:10171000A089B1898E879F87A88BB98BDF91CF91E4
:101720001F910F910895CF93DF93EC0142960E9491
:101730004008BE01685F7F4FCE01DF91CF910C94CE
:101740002B0AEF92FF920F931F93CF93DF93DB014E
:10175000ED91FC91309709F46DC080819181A28157
:10176000B3810097A105B10509F464C08B01AC01F8
:10177000BD01415051096109710940835183628360
:1017800073830197A105B10509F040C0F801C0813C
:10179000D1812097B1F188859985009791F12A85AB
:1017A000222379F120FF26C04C815D816E817F81EB
:1017B000452B462B472BB1F1FC013297208131811B
:1017C000220F331F820F931F7C01F2E0EF1AF10802
:1017D000288539852817390751F0D701ED91FC91FB
:1017E0000190F081E02DC7010995C701EDCFC70138
:1017F0000E942D1D1A8619861886188219821A824F
:101800001B82F801808191810E942D1DD8011D92BB
:101810001C9281E090E0DF91CF911F910F91FF909A
:10182000EF900895DC01ED91FC910280F381E02DB1
:101830000995E0CF8FEF9FEFEECFEF92FF920F93DE
:101840001F93CF93DF93EC018B01BC01685F7F4F47
:101850000E94A10BF801E084F184C7010E94EC0012
:10186000811105C0F986E886F80111861086F80115
:1018700080819181A281B38188839983AA83BB836C
:1018800084819581A681B7818C839D83AE83BF833C
:10189000DF91CF911F910F91FF90EF9008950F93DB
:1018A0001F93CF93DF938B01FC0110821182128270
:1018B0001382148215821682178211861086BC014B
:1018C000685F7F4F0115110531F4DF91CF911F91B2
:1018D0000F910C94A10BEC0120E030E0A9010E94D3
:1018E0003006019671F0E885F98582858D7F8287C3
:1018F000E885F985828581608287E885F985118789
:101900000087DF91CF911F910F910895EF92FF9281
:101910000F931F93CF93DF93DB01ED91FC913097F1
:1019200009F46AC080819181A281B3810097A105E9
:10193000B10509F461C08B01AC01BD0141505109F1
:101940006109710940835183628373830197A10503
:10195000B10509F045C0F801C081D1812097D9F1C6
:10196000E884F984E114F104B1F18A85882399F1BE
:1019700080FF2AC08C819D81AE81BF81892B8A2BFB
:101980008B2BD9F0F7013297808191814AE0489FF3
:101990009001499F300D11242E0D3F1D488559851A
:1019A0007901FAE0EF1AF108C901029742175307CB
:1019B00049F00E941D099701F1CFC70108960E94C6
:1019C0001D09C7010E942D1D1A86198618861882C6
:1019D00019821A821B82D8018D919C910E942D1D23
:1019E000F8011182108281E090E0DF91CF911F9188
:1019F0000F91FF90EF9008958FEF9FEFF6CFCF9369
:101A0000DF93EC018AE491E099838883BE016C5EE8
:101A10007F4FCE010C960E94860CCE010A96DF9174
:101A2000CF910C948908CF93DF93EC010E94FF0CB7
:101A3000CE01DF91CF910C942D1DCF93DF93EC015C
:101A400084E591E099838883CE0148960E948908B5
:101A5000BE01625F7F4FCE010696DF91CF910C945D
:101A6000860CCF93DF93EC010E941D0DCE01DF9118
:101A7000CF910C942D1DEF92FF920F931F93CF9354
:101A8000DF93EC017B01188219821A821B821C826F
:101A90001D821E821F8219861886BC01685F7F4FD7
:101AA0000E94860CF70100851185C8010E94030180
:101AB00081110EC019870887F80180819181A28168
:101AC000B3810196A11DB11D80839183A283B3834D
:101AD000F70180819181A281B38188839983AA8350
:101AE000BB8384819581A681B7818C839D83AE83DE
:101AF000BF83DF91CF911F910F91FF90EF900895D9
:101B0000EF92FF920F931F93CF93DF93DB01ED9141
:101B1000FC91309709F470C080819181A281B381DA
:101B20000097A105B10509F467C08B01AC01BD01A7
:101B30004150510961097109408351836283738364
:101B40000197A105B10509F043C0F801C081D18119
:101B50002097C9F1E884F984E114F104A1F18A85A0
:101B6000882389F180FF28C08C819D81AE81BF814F
:101B7000892B8A2B8B2BC1F1F70132972081318180
:101B800046E1429FC001439F900D11248E0D9F1D81
:101B9000288539857C01F6E1EF1AF1082817390705
:101BA00041F0BC016E507109C7010E94A10BC70131
:101BB000EFCF02970E942D1D1A861986188618826B
:101BC00019821A821B82D8018D919C910E942D1D31
:101BD000F8011182108281E090E0DF91CF911F9196
:101BE0000F91FF90EF900895B701685F7F4FC70195
:101BF0000E94A10BC701DECF8FEF9FEFEECFBC019C
:101C000020E431E0FC0121933193CF01665F7F4FE7
:101C10000C94800DCF93DF93EC010E94FF0DCE0159
:101C2000DF91CF910C942D1DEF92FF920F931F9394
:101C3000CF93DF93EC017B01BC01685F7F4F0E9473
:101C4000800DF70100851185C8010E941A018111DC
:101C50000EC019870887F80180819181A281B38124
:101C60000196A11DB11D80839183A283B383F701E7
:101C700080819181A281B38188839983AA83BB8368
:101C800084819581A681B7818C839D83AE83BF8338
:101C9000DF91CF911F910F91FF90EF9008950F93D7
:101CA0001F93CF93DF938B01FC011082118212826C
:101CB0001382148215821682178211861086BC0147
:101CC000685F7F4F0115110531F4DF91CF911F91AE
:101CD0000F910C94800DEC0120E030E0A9010E94EE
:101CE0003006019671F0E885F98582858D7F8287BF
:101CF000E885F985828581608287E885F985118785
:101D00000087DF91CF911F910F910895AF92BF92FD
:101D1000CF92DF92EF92FF920F931F93CF93DF93B7
:101D20008C01EB010E94AF03811170C0209709F074
:101D300067C0C8010E940803EC01EA80FB80CC80E8
:101D4000DD80C8010E94FA01E114F10419F4FC01DC
:101D5000D582C482C8010E94FA01C114D10419F4C9
:101D6000FC01F182E082C8010E94FA015C01FC01E1
:101D7000828193818C179D0771F4C8010E94AF0383
:101D8000811109C0209709F04CC0C8010E940203CC
:101D9000F50182839383C114D10419F0F601F38213
:101DA000E282EA81FB81309711F0D582C4821982E8
:101DB0001882C8010E94FA01FC01468157816085A2
:101DC00071854150510961097109468357836087C4
:101DD00071871B821A821D821C822097B9F0CE0166
:101DE00006960E94930BCE01DF91CF911F910F9128
:101DF000FF90EF90DF90CF90BF90AF900C942D1D8F
:101E0000BE01C8010E94CA03811197CFDF91CF9113
:101E10001F910F91FF90EF90DF90CF90BF90AF9008
:101E20000895E114F10409F4B0CFC701B1CFEF92E6
:101E3000FF920F931F93CF93DF93EC01E884F98413
:101E4000C7010E9431018E01085F1F4F811109C037
:101E5000F70180819181A281B3810297A105B1052B
:101E600058F4CE010E94AF03811106C070E060E01B
:101E7000CE010E94860EF5CFC801DF91CF911F9150
:101E80000F91FF90EF900C94F707CF92DF92EF92B3
:101E9000FF920F931F93CF93DF93DB01ED91FC91A2
:101EA000309709F46BC080819181A281B381009742
:101EB000A105B10509F462C08B01AC01BD0141501F
:101EC00051096109710940835183628373830197CA
:101ED000A105B10509F03FC0F801C081D18120976B
:101EE000A9F1C884D984C114D10481F18A858823D9
:101EF00069F180FF24C08C819D81AE81BF81892BD7
:101F00008A2B8B2BB1F1F6013297808191812AE0E7
:101F1000289F7001299FF00C1124EC0CFD1C9701E7
:101F200088859985FAE0EF1AF1088217930721F066
:101F3000C7010E94170FF3CF02970E942D1D1A862A
:101F400019861886188219821A821B82D8018D91EF
:101F50009C910E942D1DF8011182108281E090E079
:101F6000DF91CF911F910F91FF90EF90DF90CF9075
:101F70000895C6010E94170FC601DFCF8FEF9FEFB4
:101F8000EFCFEF92FF920F931F93CF93DF93DB017D
:101F9000ED91FC91309709F470C080819181A2810C
:101FA000B3810097A105B10509F467C08B01AC01AD
:101FB000BD01415051096109710940835183628318
:101FC00073830197A105B10509F04BC0F801C081E9
:101FD000D181209709F440C0E884F984E114F10428
:101FE000D9F18A858823C1F180FF2FC08C819D8122
:101FF000AE81BF81892B8A2B8B2BE9F0F7013297B9
:10200000808191814FE0489F9001499F300D1124BC
:102010002E0D3F1D488559857901FFE0EF1AF10823
:10202000C90102974217530771F0BC0108970E943B
:10203000450F9701EFCFB701635F7F4FC70105964B
:102040000E94450FC7010E942D1D1A861986188609
:10205000188219821A821B82D8018D919C910E944C
:102060002D1DF8011182108281E090E0DF91CF9167
:102070001F910F91FF90EF9008958FEF9FEFF6CF94
:10208000CF92DF92EF92FF920F931F93CF93DF9344
:102090008FE090E00E94911CEC018FE0DE011D9228
:1020A0008A95E9F76E01B5E0CB0ED11C8AE090E08D
:1020B0000E94911C8C018AE090E00E94911C7C019E
:1020C0008AE0F70111928A95E9F7D8011D921D92D5
:1020D0001D921C921397F8011482158216821782A2
:1020E00011861086C8010896E114F104D9F50E9402
:1020F000F7071D821E821F82188619861A861B8684
:102100001C861E861D86BE01635F7F4F011511056B
:1021100009F043C0C6010E94450F10928A01109237
:102120008B0110928C0110928D0110928E011092F1
:102130008F011092900110929101109293011092D0
:102140009201209709F041C062E971E08AE891E0CC
:10215000DF91CF911F910F91FF90EF90DF90CF9083
:102160000C94C10FBC01C8010E94C805019609F278
:10217000D8011896ED91FC91199782858D7F828701
:102180001896ED91FC911997828581608287189647
:10219000ED91FC91F186E086ACCF20E030E0A90122
:1021A000C6010E943006019609F4B7CFED85FE8581
:1021B00082858D7F8287ED85FE858285816082871D
:1021C000ED85FE8511870087A8CF20E030E0A901CA
:1021D00062E971E08AE891E00E943006019651F0D0
:1021E000E0919201F091930182858D7F81608287D9
:1021F000D187C087DF91CF911F910F91FF90EF9012
:10220000DF90CF90089562E971E08AE891E00C9444
:10221000C10F2F923F924F925F926F927F928F9257
:102220009F92AF92BF92CF92DF92EF92FF920F9365
:102230001F93CF93DF93CDB7DEB7E1970FB6F89436
:10224000DEBF0FBECDBF98A38F8F7CA76BA71A01EF
:102250003AA729A7FA01D080E180F2800381148196
:10226000B581C680B7802D2D3E2D4F2D502F612F6B
:102270007B2F8C2D9B2DA0E60E94711CC9F0A1E63E
:102280000E94711C09F4AEC1A0E00E94711C09F00B
:1022900007C210927301109274011092750110928E
:1022A0007601109278011092770181E0809372019B
:1022B000EF8DF8A162817381848195814F01F6E0F1
:1022C0008F0E911C611571058105910519F4C401EA
:1022D0000E949D03AB01BC01415051096109710984
:1022E000C4010E945302BC01CE0145960E946609BA
:1022F000EF8DF8A142815381648175814F5F5F4FFB
:102300006F4F7F4FC4010E945302BC01CE010B9658
:102310000E946609EF8DF8A1428153816481758125
:10232000C4010E945302BC01CE0101960E946609BD
:1023300043E050E060E070E0CE0101960E943A0474
:102340008C01FC018081823009F06DC081E08083C6
:1023500043E050E060E070E0CE0101960E943A0454
:10236000FC018081813009F4B8C008F47AC0823061
:1023700009F4D5C0CE0109960E941D09CE014396ED
:102380000E941D09CE014D960E941D09EF8DF8A1F6
:102390004281538164817581C4010E94530243E0EC
:1023A00050E060E070E00E943A04FC0180818111FD
:1023B000DEC080E6F10180831182128213821482D2
:1023C0001582168217821092730110927401109276
:1023D00075011092760180E690E0909378018093E9
:1023E000770182E08093720181E090E0EBA5FCA58B
:1023F00091838083E1960FB6F894DEBF0FBECDBF08
:10240000DF91CF911F910F91FF90EF90DF90CF90D0
:10241000BF90AF909F908F907F906F905F904F9004
:102420003F902F90089543E050E060E070E0CE01CF
:1024300045960E943A04FC018081823079F043E0A5
:1024400050E060E070E0CE010B960E943A04FC017F
:102450008081823019F082E0F80179CFF801108292
:1024600077CF40E050E0BA01CE0101960E943A04D5
:102470008C016F8C78A0F0E16F0E711CC3010E947B
:102480006203F801208101E010E0A80102C0440FBE
:10249000551F2A95E2F7FC0120813181242B352B31
:1024A0003183208341E050E060E070E0CE0101968E
:1024B0000E943A042C01C3010E946203F2012081B0
:1024C00002C0000F111F2A95E2F7FC012081318123
:1024D000022B132B118300834DCF40E050E0BA0153
:1024E000CE0101960E943A048C016F8C78A0F0E135
:1024F0006F0E711CC3010E946203F801208101E08C
:1025000010E0A80102C0440F551F2A95E2F740953C
:102510005095FC012081318124233523C1CF41E036
:1025200050E060E070E0CE0101960E943A048C0118
:102530006F8C78A0F0E16F0E711CC3010E946203E2
:10254000F801208101E010E0A80102C0440F551FEE
:102550002A95E2F740955095FC0120813181242392
:1025600035233183208340E050E0BA019FCF0E94A1
:10257000850429A33DA74EA75FA768AB872E982E99
:1025800099AB0E94641B65E070E00E94D71B059622
:1025900024E6289F2001299F500C1124052C000CB3
:1025A00066087708A8EEAA2EB3E0BB2EC12CD12C6A
:1025B000E12CF12C00E010E029A13DA54EA55FA57E
:1025C00068A9782D892D99A90E94ED1B49015A010E
:1025D000480C591C6A1C7B1CE9A5FAA54082518253
:1025E000628273820E948504E9A5FAA5C080D18029
:1025F000E280F38026013701812C912C5401C9A27D
:102600005AA2EBA27CA28DA29EA2AFA2B8A6E8EE2F
:10261000AE2EF3E0BF2EC12CD12CE12CF12C00E02A
:1026200010E00E94ED1B59016A017B018C019201AF
:10263000A30160E070E080E090E00E94681C09F077
:1026400008F436CE81E6F101808311821282138272
:1026500014821582168217820E94641BF101208168
:102660003181309378012093770165E070E00E941A
:10267000D71B9C012B5F3F4F44E6429FC001439F05
:10268000900D1124092E000CAA0BBB0B8093730133
:1026900090937401A0937501B093760184E0A2CE6B
:1026A000E9A5FAA51082118212821382F10110822B
:1026B000118212821382148215821682178210925E
:1026C00073011092740110927501109276011092AC
:1026D00078011092770188E0809372018FEF9FEF6D
:1026E00085CE6F927F928F929F92AF92BF92CF9240
:1026F000DF92EF92FF920F931F93CF93DF93CDB7AB
:10270000DEB7C055D1090FB6F894DEBF0FBECDBFFE
:102710007C018B0180918201811105C00E944010D3
:1027200081E0809382012B961CAE1DAE1EAE1FAEC3
:102730002B972F961CAE1DAE1EAE1FAE2F97619627
:102740001FAE1EAE6197B801CE01895B9F4F0E94FC
:10275000140E8AE891E00E9499023C0121961CAE79
:102760001DAE1EAE1FAE219725961CAE1DAE1EAE31
:102770001FAE259727961FAE1EAE2797BE01695B39
:102780007F4FCE01CD960E94140ED7011D921D924F
:102790001D921C921397F7011482158216821782DC
:1027A00011861086B701685F7F4FC7010E94FC0544
:1027B0000196C1F0D70118960D911C911997F80157
:1027C000828581FF7EC1C8010B969187808718960C
:1027D000ED91FC910084F185E02D1082128211822E
:1027E000148213828CE090E00E94911C8C0180E4A2
:1027F00091E0F80191838083128213821482158202
:10280000168217821086118613861286BE01635CBB
:102810007F4FC80102960E94140E1BAA1CAA1DAA73
:102820001EAA1FAA18AE19AE1AAE1CAE1BAE011519
:10283000110509F056C1BE01655C7F4FCE01C396FC
:102840000E942B0AF5E06F0E711CC3010E941A034F
:102850008C0119A61AA61BA61CA61DA61EA61FA69D
:1028600018AA1AAA19AABE016D5C7F4FCE018996DB
:102870000E94000B8CE090E00E94911C6C0186E3AA
:1028800091E0D60111969C938E93F60112821382E9
:102890001482158216961D921D921D921C921997F4
:1028A0001B961C921E921A97BE01675D7F4FC60150
:1028B00002960E94000B1D8A1E8A1F8A188E198E8E
:1028C0001A8E1B8E1C8E1E8E1D8EC114D10409F013
:1028D00011C1BE01635E7F4FCE0145960E942B0A57
:1028E0001F8E18A219A21AA21BA21CA21DA21EA210
:1028F00018A61FA2CE0187960E944008D7011896FD
:10290000ED91FC913097E1F082858823C9F08081B8
:102910009181A281B381892B8A2B8B2B89F08085B1
:102920009185892B69F0F8A7EFA380819181A2811D
:10293000B3810196A11DB11D80839183A283B383CE
:10294000F70180819181A281B3818F8F98A3A9A380
:10295000BAA384819581A681B7818BA39CA3ADA3E3
:10296000BEA3C8010E9402035C01C8010E94AF031C
:10297000882309F4C8C0BE016B5E7F4FCE0101966B
:102980000E943B0B8AE190E00E94911C6C01DC01EB
:1029900011961C921E9213961C921E9212971596D7
:1029A0001C921E921497BE016F5F7F4F06960E9485
:1029B0003B0BC8010E94FA01FC01D182C082CE010A
:1029C00001960E94930BC8010E94FA01DC01ED916F
:1029D000FC9191838083C8010E94FA016C01C801B7
:1029E0000E940203F60195838483C8010E94FA01C4
:1029F000FC0146815781608571854F5F5F4F6F4F46
:102A00007F4F4683578360877187CE0145960E942A
:102A1000930BBE016F5C7F4FCE0189960E942B0AFB
:102A2000C3010E941A036C01C7010E943E038C017E
:102A3000C6010E940203F80192838183C7010E94AC
:102A40003E0321E0DC012C93C7010E943E038C0170
:102A5000C3010E941A03F80194838383BE01655C5D
:102A60007F4FCE01C3960E942B0A6DE370E06C0F7E
:102A70007D1F685F7F4FCE01CD960E94800D67E479
:102A800070E06C0F7D1F685F7F4FCE01895B9F4FA9
:102A90000E94800DC701C05BDF4F0FB6F894DEBF08
:102AA0000FBECDBFDF91CF911F910F91FF90EF909F
:102AB000DF90CF90BF90AF909F908F907F906F905E
:102AC000089585E090E00E94911CFC011082128222
:102AD000118214821382D80119969C938E931897B1
:102AE00081CEA801BE01655C7F4FCE01C3960E94D6
:102AF000A70AA8CEA601BE01635E7F4FCE01459610
:102B00000E94A70AEDCEB501C8010E94CA03BE010A
:102B10006B5E7F4F882309F44EC0CE0101960E9460
:102B20003B0B8AE190E00E94911C6C01DC01119644
:102B30001C921E9213961C921E92129715961C922E
:102B40001E921497BE016F5F7F4F06960E943B0B4B
:102B5000CE0101960E94930BC8010E94FA01F60172
:102B600091838083D50114968D909C909582848268
:102B70008114910419F0F401D382C282D501129616
:102B80008D919C91892B31F4C8010E94FA01FC01BE
:102B9000B582A482892831F4C8010E94FA01DC01BF
:102BA000CD92DC92F601B382A282D5011596DC9219
:102BB000CE9214971ACFCE0101960E943B0B8AE168
:102BC00090E00E94911C6C01FC0111821082138222
:102BD000128215821482BE016F5F7F4F06960E949B
:102BE0003B0BCE0101960E94930BC8010E94FA0193
:102BF000D6018D939C93C8010E9408035C01FC01DF
:102C000084819581892B31F4C8010E94FA01DC018D
:102C1000AD92BC92F60182819381892B41F4C80167
:102C20000E94FA01DC011596DC92CE921497F6010F
:102C3000B582A482D5011396DC92CE921297D5CE9E
:102C40001F920F920FB60F9211242F933F938F93E1
:102C50009F93AF93BF9380917A0190917B01A09154
:102C60007C01B0917D013091790123E0230F2D3754
:102C700058F50196A11DB11D2093790180937A0129
:102C800090937B01A0937C01B0937D0180917E01A4
:102C900090917F01A0918001B09181010196A11DC9
:102CA000B11D80937E0190937F01A0938001B0932A
:102CB0008101BF91AF919F918F913F912F910F9083
:102CC0000FBE0F901F90189526E8230F0296A11DA6
:102CD000B11DD2CFCF93DF93CDB7DEB7C458D109A2
:102CE0000FB6F894DEBF0FBECDBF789484B5826076
:102CF00084BD84B5816084BD85B5826085BD85B5A0
:102D0000816085BD80916E00816080936E0010921D
:102D10008100809181008260809381008091810098
:102D20008160809381008091800081608093800029
:102D30008091B10084608093B1008091B000816087
:102D40008093B00080917A00846080937A008091B3
:102D50007A00826080937A0080917A00816080930B
:102D60007A0080917A00806880937A001092C10086
:102D70006F961CAE1DAE1EAE1FAE6F97A3961CAE17
:102D80001DAE1EAE1FAEA397A5961FAE1EAEA59795
:102D90006BE570E06C0F7D1F685F7F4F23E030E0D4
:102DA00040E050E0CE01855A9F4F0E94A90901964C
:102DB00061F0A5960EAD1FADA597F801828581FF44
:102DC0004FC0C8010B9691878087CE01855A9F4FCF
:102DD0000E948203FC018CE080838BE081838AE087
:102DE0008283CE01855A9F4F0E9482037C01A59663
:102DF0000EAD1FADA597C8010E94480130E020E04C
:102E0000811109C0F80120853185A1968EAD9FAD55
:102E1000A197280F391FD701A217B30739F18D9158
:102E200090E0FC01EC55FF4F649180579F4FFC01EF
:102E30008491882389F390E0880F991FFC01EA5759
:102E4000FF4F45915491FC01E458FF4F85919491B7
:102E50008FB7F894FA019081962B90838FBFDCCFC7
:102E600083E090E00E94911CF801ADCF82E090E0F9
:102E70000E94911C8C01FC011182108265961CAE8F
:102E80001DAE1EAE1FAE659769961CAE1DAE1EAE82
:102E90001FAE69976B961FAE1EAE6B9781E590E0F3
:102EA0008C0F9D1F08960115110509F07EC10E9427
:102EB000890888E0EAE0F1E0DE01DD9601900D92FC
:102EC0008A95E1F7BE01635C7F4FCE0101960E94B7
:102ED000E10988E0E2E1F1E0DE01AB59BF4F01908A
:102EE0000D928A95E1F7BE016B597F4FCE010B968B
:102EF0000E94E10988E0EAE1F1E0DE01A359BF4F59
:102F000001900D928A95E1F7BE0163597F4FCE0182
:102F100045960E94E10988E0E2E2F1E0DE01AB586B
:102F2000BF4F01900D928A95E1F7BE016B587F4F1C
:102F3000CE014F960E94E10988E0EAE2F1E0DE016D
:102F4000A358BF4F01900D928A95E1F7BE016358D7
:102F50007F4FCE0189960E94E1092B961CAE1DAED3
:102F60001EAE1FAE2B972F961CAE1DAE1EAE1FAE13
:102F70002F9761961FAE1EAE61971BAA1CAA1DAAB1
:102F80001EAA1FAA18AE19AE1AAE1CAE1BAE25E0C3
:102F900030E040E050E0BE01655C7F4FCE01C3965B
:102FA0000E943006019651F00BAD1CADF8018285F0
:102FB00081FF0FC1C8010B969187808767E470E09D
:102FC0006C0F7D1F685F7F4FCE01895B9F4F0E9412
:102FD000860C0BAD1CADC8010E940301811106C017
:102FE00061961FAF0EAF61971CAE1BAE8BA99CA95B
:102FF000ADA9BEA92B968CAF9DAFAEAFBFAF2B973F
:103000008FA998ADA9ADBAAD2F968CAF9DAFAEAFDD
:10301000BFAF2F97BE01655C7F4FCE01C3960E9464
:10302000860C6196EEACFFAC6197C7010E9403016C
:1030300010E000E081110FC029962EAD3FAD299719
:103040004AE0429FC001439F900D1124F701008583
:103050001185080F191F5801F2E3AF0EB11CCE0104
:1030600001967C01C80108960E941D09F701C084E1
:10307000D184C6010E94480181110FC0F801D18698
:10308000C086F60180819181A281B3810196A11D44
:10309000B11D80839183A283B383F70180819181E5
:1030A000A281B381F80180839183A283B383F70166
:1030B00084819581A681B781F80184839583A68355
:1030C000B783FAE0EF0EF11C065F1F4F0A151B05D0
:1030D00049F6CE01C1960E941D09CE0187960E9435
:1030E0001D09CE014D960E941D09CE0143960E94F6
:1030F0001D09CE0109960E941D09BE016F5A7F4F1E
:10310000CE0101960E94D208BE01695B7F4FCE01BD
:103110000B960E943B0D86E190E00E94911C8C0171
:1031200076E1F72EFC012F2D11922A95E9F770E038
:1031300060E00E944F0CF8011286138614861586F3
:1031400016861786108A118A128A138A148A158A9B
:10315000B801CE01CD960E944F0E86E190E00E940C
:10316000911C8C012AE431E0FC0121933193CF01C1
:10317000BE016F5F7F4F0E94D208BE01655F7F4F27
:10318000C8010C960E943B0DB801CE01C3960E9467
:103190004F0C27960EAD1FAD2797C8010E941A014C
:1031A0008823A1F190E080E03DC0BC01CE018F5AA0
:1031B0009F4F0E949405019609F47BCE6B96EEAD6D
:1031C000FFAD6B9782858D7F816082871187008735
:1031D00070CE84E390E00E94911CDC0125E030E099
:1031E0002D933D93FD01C4961082118212821382A9
:1031F0001482158216821782118610863A968E17CF
:103200009F0791F7F801B187A087D8CE8DAD9EAD0D
:10321000F89E9001F99E300D1124F801808591856A
:10322000820F931FBE016D5C7F4F0E941D0CBE017B
:10323000655C7F4FCE01C3960E94A10BBE01635C0B
:103240007F4FCE01C3960E947113CE01CB960E9490
:1032500040080DE310E00C0F1D1F085F1F4FB80161
:10326000CE01CD960E94800DBE016D5E7F4FCE01D6
:103270000B960E94860CCE0109960E948908CE0109
:10328000895B9F4F0E949D034B015C0156E1D52E47
:1032900064E5E62E61E0F62E702EC12EF1E08F1A65
:1032A0009108A108B1082FEF82169206A206B20675
:1032B00009F496C089829A82AB82BC82BE01695BA6
:1032C0007F4FCE0105960E943B0DBE016F5A7F4F86
:1032D000CE010F960E94D20886E190E00E94911CD8
:1032E0008C01FC012D2D11922A95E9F770E060E028
:1032F0000E944F0CF80112861386148615861686D6
:103300001786108A118A128A138A148A158AB801BC
:10331000CE01CD960E944F0E8AE190E00E94911C52
:103320008C01FC01F182E08289819A81AB81BC81B0
:1033300082839383A483B583BE016B5F7F4FC801F3
:1033400006960E943B0DBE01615F7F4FC80140960B
:103350000E94D208B801CE01C3960E944F0C279656
:103360000EAD1FAD2797C8010E941A01811135C00B
:103370008DAD9EADD89E9001D99E300D1124F801DF
:1033800080859185820F931FBE016D5C7F4F0E94E7
:103390001D0CBE01655C7F4FCE01C3960E94A10B40
:1033A000BE01635C7F4FCE01C3960E947113CE01B4
:1033B000CB960E944008672D7C2DCE01CD960E94B1
:1033C000800DCE0147960E948908BE01635F7F4F42
:1033D000CE0105960E94860C61CF90E080E0D4CFAC
:1033E00067E470E06C0F7D1F685F7F4FCE01895BE3
:1033F0009F4F0E94860C81E590E08C0F9D1F0896E0
:103400000E9489088BE590E08C0F9D1F08960E9412
:103410001D0988248A94982C540144E0242E3324D6
:10342000339480918201811104C00E944010309237
:1034300082018AE891E00E9499028C010B5F1F4F84
:10344000C8010E941A037C010E94AF0381112BC0A6
:10345000C7010E941404892B31F1C8010E941A038C
:103460000E9414046C01C8010E941A030E941404F3
:10347000FC018481958166246A94762C892B19F04D
:1034800066246394712C7601F0E1EF0EF11CC70104
:103490000E943E03FC01908191FF77C0C8010E9409
:1034A0001A030E94E7038AE891E00E949902FC0156
:1034B0009081906490838AE891E00E949902FC01D7
:1034C0004181528163817481452B462B472B21F02A
:1034D00011821282138214828AE891E00E9499027A
:1034E0008C0105960E941A037C010E94AF03811192
:1034F0000CC0C7010E94FA01FC0186819781A0855A
:10350000B185892B8A2B8B2BD1F4E0919201F0911C
:1035100093013097A1F08285882389F08081918181
:10352000A281B3810097A105B10549F020853185BD
:10353000232B29F00297A105B10508F060C0F8011E
:10354000C180D280E380F4800E94C7002B013C013F
:10355000C114D104E104F10409F458C00E94C70069
:103560006419750986099709683E734081059105BC
:1035700078F3F1E0CF1AD108E108F10828EE420E05
:1035800023E0521E611C711CE3CF92FF0EC0C801E4
:103590000E941A03B6010E94860E80E090E0892BFB
:1035A00009F43FCF0E9400003CCF92609083C60197
:1035B00006960E94BD026C01C8010E941A030E9477
:1035C000AF03811112C02FEFC216D20691F0CD28A1
:1035D00061F0C7010E943E03FC0190819D7F9083B2
:1035E000C8010E941A030E94E7036A946728A9F29F
:1035F0005ACFC7010E943E03FC012082F6CF88EE1D
:10360000C82E83E0D82EE12CF12C9ECF8AE891E0E1
:103610000E949902FC0181829282A382B4828AE88C
:1036200091E00E949902FC0190819F7B9083B5CF2D
:103630008F929F92AF92BF92CF92DF92EF92FF92C2
:10364000CF93DF93EC01688179818A819B81611539
:1036500071058105910521F464E279ED8BE597E030
:103660002DE133EF41E050E00E94741B49015A0103
:103670009B01AC01A7EAB1E40E94931B6B017C01A2
:10368000ACEEB4EFA50194010E94A11BDC01CB01BB
:103690008C0D9D1DAE1DBF1DB7FF03C00197A10975
:1036A000B04888839983AA83BB839F77DF91CF91AA
:1036B000FF90EF90DF90CF90BF90AF909F908F9052
:1036C00008950E94181B089580E091E00E94181B45
:1036D0000895B0E0A0E08093000190930101A093D1
:1036E0000201B09303010895052E97FB1EF4009488
:1036F0000E948B1B57FD07D00E94A61B07FC03D01E
:103700004EF40C948B1B50954095309521953F4F6E
:103710004F4F5F4F089590958095709561957F4FBD
:103720008F4F9F4F08950E94C81BA59F900DB49F77
:10373000900DA49F800D911D11240895B7FF0C9446
:10374000931B0E94931B821B930B0895A1E21A2ED8
:10375000AA1BBB1BFD010DC0AA1FBB1FEE1FFF1F35
:10376000A217B307E407F50720F0A21BB30BE40B85
:10377000F50B661F771F881F991F1A9469F76095CC
:103780007095809590959B01AC01BD01CF01089586
:10379000A29FB001B39FC001A39F700D811D112492
:1037A000911DB29F700D811D1124911D089597FBED
:1037B000072E16F4009407D077FD09D00E947D1CD7
:1037C00007FC05D03EF4909581959F4F0895709524
:1037D00061957F4F0895689401C0E8948F929F92FD
:1037E000CF93DF930E94F91BDF91CF919F908F9031
:1037F000089588249924F401E401B0E49F93AA2752
:103800009A158B049C04ED05FE05CF05D007A10792
:1038100098F4AD2FDC2FCF2FFE2FE92D982C892E79
:10382000982F872F762F652F542F432F322F222743
:10383000B85031F7BF9127C01B2EBF91BB27220F75
:10384000331F441F551F661F771F881F991F881C31
:10385000991CEE1FFF1FCC1FDD1FAA1FBB1F8A1460
:103860009B04EC05FD05CE05DF05A007B10748F078
:103870008A189B08EC09FD09CE09DF09A00BB10BE2
:1038800021601A94E1F62EF49401AF01BE01CD013E
:10389000000C08952A0D3B1D4C1D5D1D6E1D7F1DE6
:1038A000801F911F08950024A7FD00942A0F301D4A
:1038B000401D501D601D701D801D901D08952A190A
:1038C0003B094C095D096E097F09800B910B089536
:1038D0002A153B054C055D056E057F0580079107A0
:1038E00008950024A7FD00942A17300540055005CF
:1038F00060057005800590050895AA1BBB1B51E16A
:1039000007C0AA1FBB1FA617B70710F0A61BB70B4F
:10391000881F991F5A95A9F780959095BC01CD01F4
:1039200008950F931F93CF93DF938230910510F486
:1039300082E090E0E0919601F091970130E020E084
:10394000B0E0A0E0309799F42115310509F44AC0A0
:10395000281B390B24303105D8F58A819B816115EC
:10396000710589F1FB0193838283FE0111C04081BF
:1039700051810281138148175907E0F04817590710
:1039800099F4109761F012960C93129713961C936A
:103990003296CF01DF91CF911F910F91089500933F
:1039A000960110939701F4CF2115310551F042177C
:1039B000530738F0A901DB019A01BD01DF01F801CD
:1039C000C1CFEF01F9CF9093970180939601CDCFAE
:1039D000FE01E20FF31F8193919322503109398345
:1039E0002883D7CF2091940130919501232B41F466
:1039F00020910601309107013093950120939401A5
:103A000020910401309105012115310541F42DB7B4
:103A10003EB74091080150910901241B350BE091FC
:103A20009401F0919501E217F307A0F42E1B3F0BD0
:103A30002817390778F0AC014E5F5F4F2417350720
:103A400048F04E0F5F1F509395014093940181936E
:103A500091939FCFF0E0E0E09CCFCF93DF9300976E
:103A6000E9F0FC01329713821282A0919601B09185
:103A70009701ED0130E020E01097A1F42081318121
:103A8000820F931F209194013091950128173907D7
:103A900009F061C0F0939501E0939401DF91CF911B
:103AA0000895EA01CE17DF07E8F54A815B819E01A0
:103AB00041155105B1F7E901FB83EA834991599119
:103AC000C40FD51FEC17FD0761F480819181029628
:103AD000840F951FE90199838883828193819B8359
:103AE0008A83F0E0E0E012968D919C911397009705
:103AF000B9F52D913C911197CD010296820F931F3C
:103B000020919401309195012817390739F63097A3
:103B100051F51092970110929601B0939501A093E0
:103B20009401BCCFD383C28340815181840F951F00
:103B3000C817D90761F44E5F5F4F88819981480F9C
:103B4000591F518340838A819B81938382832115EE
:103B5000310509F0B0CFF0939701E09396019ECF25
:103B6000FD01DC01C0CF13821282D7CFF894FFCFC2
:103B700001000000000098012000000001000E007C
:103B80000100030004000200010006000700050018
:103B9000010009000A00080001000C000D000B00E4
:103BA000010000000000EB0AF60AF7020000000026
:103BB000FF0D0A0E760100000000FF0C130DB40685
:0A3BC000000000001D0D310D091179
:107E0000112484B714BE81FFFDD085E080938100EA
:107E100082E08093C00088E18093C10096E0909357
:107E2000C20090E19093C400809360008EE0809344
:107E30006000259A86E020E33CEF91E030938500D6
:107E40002093840096BBB09BFECF1D9AA8958150CD
:107E5000A9F7C0E0D0E008E138E0F32EEE24E39487
:107E600045E0B42E51E1A52E13E0A7D0813491F462
:107E7000A4D0D82EAED082E8D81203C084E096D029
:107E800092C0E1E8DE1203C084E090D08CC083E0B1
:107E90008DD089C0823419F484E1A7D084C08534A0
:107EA00019F485E0A2D07FC0853549F486D0C82F6B
:107EB00084D0D0E0D82BCC0FDD1F8BD074C086359A
:107EC00029F484E092D080E071D06DC0843609F04E
:107ED0003FC073D072D0982E70D0C115F0E7DF0785
:107EE00038F4FE0117BFE895C12CDD24D39403C0FC
:107EF000C12CDD24D39461D0F60181936F019E12D1
:107F0000FACFC115F0E7DF0718F0FE0117BFE895BB
:107F100060D007B600FCFDCFFE01A0E0B1E08C917F
:107F200011962C91119790E0922B0C01E7BEE895E9
:107F3000112432961296A03881E0B80781F7FE012D
:107F4000B7BEE89507B600FCFDCFA7BEE8952BC0ED
:107F50008437B1F432D031D0982E2FD03AD0892C3A
:107F6000FE016F018FEFC81AD80A84911FD08A943E
:107F7000F6018110F6CF21969A94C90DD11D13C038
:107F8000853741F426D08EE111D085E90FD08FE0FE
:107F90000DD009C0813531F400936000F09260008B
:107FA00018D001C016D080E101D05FCF9091C00001
:107FB00095FFFCCF8093C60008958091C00087FF95
:107FC000FCCF8091C00084FD01C0A8958091C600BF
:107FD0000895F3DF803239F088E18093600088E013
:107FE00080936000FFCF84E1E1CFCF93C82FE5DF1E
:107FF000C150E9F7CF91EDCFE0E6F0E098E1908352
:1080000080830895E0E6F0E088E180831082EE2727
:04801000FF270994A9
:027FFE00040479
:0400000300007E007B
:00000001FF
