:100000000C9463000C948B000C948B000C948B006C
:100010000C948B000C948B000C948B000C948B0034
:100020000C948B000C948B000C948B000C948B0024
:100030000C948B000C948B000C948B000C948B0014
:100040000C94EB200C948B000C94B9200C9493200E
:100050000C948B000C948B000C948B000C948B00F4
:100060000C948B000C948B000000000025002800ED
:100070002B0000000000240027002A0000000000E0
:1000800023002600290004040404040404040202DA
:100090000202020203030303030301020408102007
:1000A0004080010204081020010204081020000012
:1000B0000008000201000003040700000000000027
:1000C000000035213D2711241FBECFEFD8E0DEBF51
:1000D000CDBF11E0A0E0B1E0E4E5F8E502C0059095
:1000E0000D92A439B107D9F722E0A4E9B1E001C02B
:1000F0001D92AC37B207E1F710E0C2E6D0E004C0D1
:100100002197FE010E94FD27C136D107C9F70E9441
:10011000BF210C941D2C0C940000E0917602F0910C
:1001200077023097E1F082858823C9F08081918140
:10013000A281B381892B8A2B8B2B89F080859185B5
:10014000009779F040916E0250916F026DE0649FCC
:100150009001659F300D1124820F931F089590E048
:1001600080E00895AF92BF92CF92DF92EF92FF921C
:100170000F931F93CF93DF936C017B018B01040FCF
:10018000151FEB015E01AE18BF08C017D10759F06B
:100190006991D601ED91FC910190F081E02DC601AD
:1001A0000995892B79F7C501DF91CF911F910F91A7
:1001B000FF90EF90DF90CF90BF90AF900895FC013B
:1001C000538D448D252F30E0842F90E0821B930BBC
:1001D000541710F0CF96089501970895FC01918D62
:1001E000828D981761F0A28DAE0FBF2FB11D5D9665
:1001F0008C91928D9F5F9F73928F90E008958FEF07
:100200009FEF0895FC01918D828D981731F0828DBA
:10021000E80FF11D858D90E008958FEF9FEF089511
:10022000FC01918D228D892F90E0805C9F4F821B75
:1002300091098F739927089581ED91E00E94100133
:1002400021E0892B09F420E0822F089580E090E0DE
:10025000892B29F00E941C0181110C940000089543
:10026000FC01A48DA80FB92FB11DA35ABF4F2C912B
:10027000848D90E001968F739927848FA689B78922
:100280002C93A089B1898C91837080648C93938D19
:10029000848D981306C00288F389E02D80818F7DBC
:1002A00080830895EF92FF920F931F93CF93DF9374
:1002B000EC0181E0888F9B8D8C8D98131AC0E889A2
:1002C000F989808185FF15C09FB7F894EE89FF8971
:1002D0006083E889F98980818370806480839FBF0F
:1002E00081E090E0DF91CF911F910F91FF90EF900F
:1002F0000895F62E0B8D10E00F5F1F4F0F7311271F
:10030000E02E8C8D8E110CC00FB607FCFACFE88959
:10031000F989808185FFF5CFCE010E943001F1CFB0
:10032000EB8DEC0FFD2FF11DE35AFF4FF0829FB7CD
:10033000F8940B8FEA89FB8980818062CFCFCF93BD
:10034000DF93EC01888D8823B9F0AA89BB89E889FD
:10035000F9898C9185FD03C0808186FD0DC00FB6A3
:1003600007FCF7CF8C9185FFF2CF808185FFEDCF21
:10037000CE010E943001E9CFDF91CF910895833003
:1003800081F028F4813099F08230A9F00895873007
:10039000A9F08830C9F08430B1F4809180008F7D5D
:1003A00003C0809180008F7780938000089584B58A
:1003B0008F7784BD089584B58F7DFBCF8091B00089
:1003C0008F778093B00008958091B0008F7DF9CF32
:1003D000CF93DF93E5EBF0E08491E1EAF0E0D49194
:1003E000EDE8F0E0C491CC23A1F081110E94BF019F
:1003F000EC2FF0E0EE0FFF1FE458FF4FA591B491F2
:10040000EC91ED2381E090E009F480E0DF91CF9161
:10041000089580E090E0FACF1F93CF93DF93282FC9
:1004200030E0F901E255FF4F8491F901E656FF4FA4
:10043000D491F901EA57FF4FC491CC23A9F0162FAC
:1004400081110E94BF01EC2FF0E0EE0FFF1FE85971
:10045000FF4FA591B4918FB7F894EC91111108C09A
:10046000D095DE23DC938FBFDF91CF911F9108954C
:10047000DE2BF8CF3FB7F8948091BB019091BC017F
:10048000A091BD01B091BE0126B5A89B05C02F3F2C
:1004900019F00196A11DB11D3FBFBA2FA92F982FAA
:1004A0008827BC01CD01620F711D811D911D42E0A5
:1004B000660F771F881F991F4A95D1F70895FC0191
:1004C000892B91F08285882379F080819181A281A6
:1004D000B381892B8A2B8B2B39F081E020853185E4
:1004E000232B19F080E0089581E008950F931F9366
:1004F000CF93DF93EC018B010E945F02811115C045
:10050000F801D183C08388819981AA81BB8101963A
:10051000A11DB11D88839983AA83BB8381E090E0EC
:10052000DF91CF911F910F9108958FEF9FEFF8CF3B
:10053000FC01892B91F08285882379F0808191815B
:10054000A281B381892B8A2B8B2B39F081E0208506
:100550003185232B19F080E0089581E00895FC0196
:10056000892B91F08285882379F080819181A28105
:10057000B381892B8A2B8B2B39F081E02085318543
:10058000232B19F080E0089581E00895FC01892B68
:1005900091F08285882379F080819181A281B38155
:1005A000892B8A2B8B2B39F081E020853185232BF9
:1005B00019F080E0089581E00895FC01892B91F005
:1005C0008285882379F080819181A281B381892BF2
:1005D0008A2B8B2B39F081E020853185232B19F074
:1005E00080E0089581E00895FC01892B91F08285D7
:1005F000882379F080819181A281B381892B8A2B14
:100600008B2B39F081E020853185232B19F080E098
:10061000089581E008950F931F93CF93DF938C018A
:10062000FC01C085D185CE010E945F0281110EC000
:10063000F80120813181220F331F88859985820F2F
:10064000931FDF91CF911F910F91089590E080E06B
:10065000F8CFCF93DF93FC01C085D185CE010E94F6
:100660005F02811109C081E0488159816A817B81E3
:10067000452B462B472B09F480E0DF91CF9108955D
:10068000CF92DF92EF92FF920F931F93CF93DF935E
:1006900000D0CDB7DEB78C017B01DC011A96CD907E
:1006A000DC90C6010E94C602811137C0F801828128
:1006B000938126E1289FA001299F500D1124D60186
:1006C00018960D911C91040F151FC8010E94290353
:1006D000882399F0C8010E940B039801265F3F4FC1
:1006E000A801425F5F4FDC01ED91FC910480F58130
:1006F000E02DBE016F5F7F4F099589819A81F701D7
:10070000918380830F900F90DF91CF911F910F9174
:10071000FF90EF90DF90CF90089510E000E0D5CFEC
:1007200008950F931F93CF93DF93EC0188859985EC
:100730000E94980281110FC081E00C811D812E81E1
:100740003F81488159816A817B81041715072607FB
:10075000370709F080E0DF91CF911F910F91089545
:100760000F931F93CF93DF938C01FC01C085D1853C
:10077000CE010E94AF02811112C0F80180819181E7
:100780004AE0489F9001499F300D11248885998542
:10079000820F931FDF91CF911F910F91089590E0E9
:1007A00080E0F8CFFF920F931F93CF93DF938C01DC
:1007B000FC01C085D185CE010E949802F82E8111DE
:1007C00030C0F801208131814AE0429FC001439F3F
:1007D000900D11240884D985C02DC80FD91FC801D8
:1007E0000E949103811120C0F1101EC0F8014481C4
:1007F00055816681778180819181A281B381481B77
:10080000590B6A0B7B0B2AE0249FC001259F900D9A
:1008100011248C0F9D1FDF91CF911F910F91FF909D
:100820000895D0E0C0E0DBCF40E050E0BA01EBCF6C
:10083000CF93DF93FC01C085D185CE010E94AF022A
:10084000811107C0688179818A819B81DF91CF9175
:10085000089560E070E0CB01F9CF0F931F93CF9321
:10086000DF938C01FC01C085D185CE010E94C602B8
:10087000811112C0F8018081918146E1489F900169
:10088000499F300D112488859985820F931FDF9130
:10089000CF911F910F91089590E080E0F8CFCF9312
:1008A000DF93EC01888599850E94AF0281110DC00C
:1008B000CE010E94B00321E0FC0186819781A085D2
:1008C000B185892B8A2B8B2B09F020E0822FDF91B9
:1008D000CF9108950F931F93CF93DF938C01EB017A
:1008E0000E944F04282F81110BC0209751F0C8019E
:1008F0000E94B00321E0488159814817590709F047
:1009000020E0822FDF91CF911F910F9108950E94D7
:10091000B003FC01808191810895CF93DF93EC01B6
:100920000E94B003FC0184819581009729F4CE01D7
:10093000DF91CF910C948704DF91CF9108950F93AD
:100940001F93CF93DF93EC010E944F04811121C0CC
:10095000CE010E94B0038C01DC011296ED91FC9156
:10096000309791F4CE010E948704F801938382832B
:10097000CE010E94B003DC0112968D919C91DF9113
:10098000CF911F910F91089582819381009769F70C
:10099000E9CF90E080E0F3CFDC011896ED91FC9177
:1009A00019973097D1F082858823B9F04081518121
:1009B00062817381452B462B472B79F08085918589
:1009C000009769F04D915C916FE0649F9001659F85
:1009D000300D1124820F931F089590E080E0089558
:1009E0000F931F93CF93DF9300D0CDB7DEB78C0169
:1009F0000E942903882369F0C8010E940B03DC01CF
:100A0000ED91FC910480F581E02DBE016F5F7F4F79
:100A1000099589819A810F900F90DF91CF911F9155
:100A20000F910895CF93DF93EB0102960E94F0049B
:100A300099838883DF91CF9108950E94B003FC01D0
:100A4000808191810895CF93DF93EC010E94B003E0
:100A5000FC0184819581009729F4CE01DF91CF912B
:100A60000C941D05DF91CF910895DC011896ED914E
:100A7000FC9119973097D1F082858823B9F0408195
:100A8000518162817381452B462B472B79F08085FC
:100A90009185009769F04D915C916AE0649F9001A7
:100AA000659F300D1124820F931F089590E080E020
:100AB00008950F931F93CF93DF938C01FC01C085A2
:100AC000D185CE010E94DD02811112C0F801808122
:100AD000918146E0489F9001499F300D11248885FF
:100AE0009985820F931FDF91CF911F910F910895E8
:100AF00090E080E0F8CFAF92BF92CF92DF92EF927A
:100B0000FF920F931F93CF93DF9300D0CDB7DEB743
:100B10008C017B01DA018D919C919A838983F80184
:100B2000828593850E94DD02882381F080E0D701D1
:100B30008C930F900F90DF91CF911F910F91FF90A9
:100B4000EF90DF90CF90BF90AF9008956801F2E0F2
:100B5000CF0ED11CC6010E945905DC012D913C919C
:100B6000119722FDE3CF21FD33C022602D933C93EA
:100B70005801BCE0AB0EB11CC5010E9429038823BB
:100B800079F0C5010E940B03DC01ED91FC9104801A
:100B9000F581E02DAE014F5F5F4F70E060E0099599
:100BA000F801848995890E945F028111BFCFD80125
:100BB0001A968D919C910E94DD028111B7CFC601DA
:100BC0000E945905FC01208131812D7F31832083D2
:100BD00081E0ADCF0F931F93CF93DF93EC010E9481
:100BE0004F04811121C0CE010E94B0038C01DC01B1
:100BF0001296ED91FC91309791F4CE010E941D0563
:100C0000F80193838283CE010E94B003DC01129627
:100C10008D919C91DF91CF911F910F9108958281C9
:100C20009381009769F7E9CF90E080E0F3CF0F93CD
:100C30001F93CF93DF93EC010E944F0481111AC0E0
:100C4000CE010E94B0038C01FC0182819381892B2B
:100C500031F4CE010E941D05F80193838283CE01F9
:100C60000E94B003FC0182819381DF91CF911F919B
:100C70000F91089590E080E0F8CF0F931F93CF93EA
:100C8000DF93EC0108851985C8010E94F4028111E7
:100C90000CC0F8018085918528813981820F931FCE
:100CA000DF91CF911F910F91089590E080E0F8CFF0
:100CB0000F931F93CF93DF93EC01888599850E9452
:100CC000F402811111C06C817D818E819F81088128
:100CD00019812A813B81601B710B820B930BDF9181
:100CE000CF911F910F91089560E070E0CB01F7CF95
:100CF0002F923F924F925F926F927F928F929F922C
:100D0000AF92BF92CF92DF92EF92FF920F931F9319
:100D1000CF93DF93CDB7DEB72C970FB6F894DEBF35
:100D20000FBECDBF8091A401811117C00E943A026D
:100D30007B018C0160939C01F0929D0180939E0148
:100D400010939F011092A0011092A1011092A20194
:100D50001092A30181E08093A4010E943A027B01DA
:100D60008C016983FA828B831C8370909C01809034
:100D70009D0190909E01F0909F01FC860091A00142
:100D80000B87B091A101F091A201E091A301209005
:100D90009401309095014090960150909701609099
:100DA0009801A091990110919A01198720919B01B6
:100DB0002A87272D382D492D5F2D602F7B2F8F2FD0
:100DC0009E2FAE2CBA80CB80DC80E12CF12C00E091
:100DD00010E00E94D42709F008F466C09101A20136
:100DE000662D7A2F89859A85AFEF0E94BF27A72CA1
:100DF000B82CC92CDC84EB84FB2E0F2F1E2F0E94F5
:100E0000CB27A980BA80CB80DC80E12CF12C00E0DC
:100E100010E00E94B62720939401309395014093EF
:100E20009601509397016093980170939901809374
:100E30009A0190939B01A0929C01B0929D01C09257
:100E40009E01D0929F011092A0011092A1011092D8
:100E5000A2011092A301209194013091950140913B
:100E6000960150919701609198017091990180913C
:100E70009A0190919B012C960FB6F894DEBF0FBE9D
:100E8000CDBFDF91CF911F910F91FF90EF90DF9039
:100E9000CF90BF90AF909F908F907F906F905F901A
:100EA0004F903F902F9008959101A201662D7A2FC7
:100EB00089859A85A72CB82CC92CDC84EB84FB2E61
:100EC0000F2F1E2F0E94CB27A980BA80CB80DC80F9
:100ED000E12CF12C00E010E00E94B6272093940151
:100EE0003093950140939601509397016093980138
:100EF0007093990180939A0190939B01A0929C0119
:100F0000B0929D01C0929E01D0929F019CCF2F92E2
:100F10003F924F925F926F927F928F929F92AF9289
:100F2000BF92CF92DF92EF92FF920F931F93CF93D6
:100F3000DF9300D000D000D0CDB7DEB77C836B83C9
:100F40005E834D833A832983FA01B080C180D280C9
:100F5000E380F480B581168107812B2D3C2D4D2D2A
:100F60005E2D6F2D7B2F812F902FA0E00E94DD271B
:100F700039F1A4E20E94DD2709F44DC0E981FA812C
:100F80001082118212821382ED81FE811082118201
:100F90001282138214821582168217821092AE0179
:100FA0001092AF011092B0011092B1011092B301F2
:100FB0001092B20188E08093AD018FEF9FEF72C075
:100FC0001092AE011092AF011092B0011092B101D7
:100FD0001092B3011092B20181E08093AD010E94A2
:100FE0007806A8EEAA2EB3E0BB2EC12CD12CE12CA2
:100FF000F12C00E010E00E94592749015A01FCE25F
:101000008F0EF1E09F1EA11CB11CE981FA81808244
:101010009182A282B3820E947806E981FA81C0801F
:10102000D180E280F38016012701E8EEAE2EF3E0D6
:10103000BF2EC12CD12CE12CF12C00E010E00E943D
:10104000592759016A017B018C019101A20160E0DD
:1010500070E080E090E00E94D42709F008F43FC0DF
:1010600084E2ED81FE8180831182128213821482D8
:1010700015821682178284E290E09093B3018093E8
:10108000B2018CE291E0A0E0B0E08093AE019093D9
:10109000AF01A093B001B093B10184E08093AD01A2
:1010A00081E090E0EB81FC819183808326960FB6EE
:1010B000F894DEBF0FBECDBFDF91CF911F910F918E
:1010C000FF90EF90DF90CF90BF90AF909F908F9068
:1010D0007F906F905F904F903F902F900895F09089
:1010E000AC016F2D89E00E940C0281E0F8266F2D83
:1010F00088E00E940C02F092AC0171CFCF93DF9395
:10110000EC010E945806623071058105910528F0B6
:10111000CE01DF91CF910C943D0690E080E0DF910D
:10112000CF9108950E94580662307105810591059E
:1011300028F06150710981099109089560E070E01B
:10114000CB010895CF92DF92EF92FF92CF93DF937E
:10115000EC010E9492086B01CE010E947E08A6015C
:10116000BC0181ED91E0DF91CF91FF90EF90DF9096
:10117000CF900C94B2000F931F93CF93DF93DB01BA
:101180002D913C91232B41F58B01EC018CE090E0FB
:101190000E940328FC018CE0DF011D928A95E9F78B
:1011A000D801ED93FC93188219821A821B821C824B
:1011B0001D821E821F8281E090E0A0E0B0E080836B
:1011C0009183A283B38385E0828781E090E0DF9101
:1011D000CF911F910F9108958FEF9FEFF8CF0F934D
:1011E0001F93CF93DF93DB012D913C91232B41F58E
:1011F0008B01EC018CE090E00E940328FC018CE064
:10120000DF011D928A95E9F7D801ED93FC931882CE
:1012100019821A821B821C821D821E821F8281E01B
:1012200090E0A0E0B0E080839183A283B38385E067
:10123000828781E090E0DF91CF911F910F91089517
:101240008FEF9FEFF8CFCF92DF92EF92FF920F9345
:101250001F93CF93DF93DB01ED91FC91EF2B91F581
:1012600069017A018B01EC018CE090E00E94032877
:10127000FC018CE0DF011D928A95E9F7D801ED931E
:10128000FC93188219821A821B82CC82DD82EE8244
:10129000FF8281E090E0A0E0B0E080839183A283B0
:1012A000B383C482D582E682F78285E0828781E0BB
:1012B00090E0DF91CF911F910F91FF90EF90DF9021
:1012C000CF9008958FEF9FEFF4CF8F929F92AF92C0
:1012D000BF92CF92DF92EF92FF920F931F93CF9323
:1012E000DF93DB01ED91FC91EF2B09F04DC0812CD8
:1012F000912C54018394211531054105510511F0BC
:1013000049015A0169017A018B01EC018CE090E0FE
:101310000E940328FC018CE0DF011D928A95E9F709
:10132000D801ED93FC93188219821A821B82CC8219
:10133000DD82EE82FF8281E090E0A0E0B0E0808379
:101340009183A283B383C482D582E682F78284E04C
:10135000828785E08A9489288A288B2829F4CF01FE
:101360000B969187808786E0828781E090E0DF910D
:10137000CF911F910F91FF90EF90DF90CF90BF9092
:10138000AF909F908F9008958FEF9FEFF0CF0F93C6
:101390001F93CF93DF93DC01ED91FC913097E9F13E
:1013A000408151816281738141155105610571054B
:1013B000A1F18C01DB01CA010197A109B109808368
:1013C0009183A283B3834130510561057105D9F43E
:1013D000F801C081D181209789F08885998500978F
:1013E00069F02A85222351F020FD0E949F281A8649
:1013F00019861886188219821A821B82D8018D914B
:101400009C910E949F28F8011182108281E090E057
:10141000DF91CF911F910F9108958FEF9FEFF8CF3C
:101420000F931F93CF93DF93EC01188219821A82D6
:101430001B821C821D821E821F82198618860896B6
:101440006115710531F4DF91CF911F910F910C94CB
:10145000C7098B01BC01CE010E94EF08019671F013
:10146000E885F98582858D7F8287E885F985828583
:1014700081608287E885F98511870087DF91CF91A8
:101480001F910F910895CF93DF93EC018AE090E0D4
:101490000E9403282AE0FC0111922A95E9F7BC0179
:1014A000CE01DF91CF910C94100A0F931F93CF932D
:1014B000DF93DC01ED91FC913097E9F1408151819E
:1014C000628173814115510561057105A1F18C019E
:1014D000DB01CA010197A109B10980839183A2832D
:1014E000B3834130510561057105D9F4F801C0811C
:1014F000D181209789F088859985009769F02A85A0
:10150000222351F020FD0E949F281A8619861886F2
:10151000188219821A821B82D8018D919C910E9497
:101520009F28F8011182108281E090E0DF91CF9135
:101530001F910F9108958FEF9FEFF8CFEF92FF92D9
:101540000F931F93CF93DF93EC017B0118821982D5
:101550001A821B821C821D821E821F821986188697
:1015600008960E94550AF70100851185C8010E945E
:10157000DD0281110EC019870887F80180819181F1
:10158000A281B3810196A11DB11D80839183A283A5
:10159000B383F70180819181A281B381888399838C
:1015A000AA83BB8384819581A681B7818C839D8327
:1015B000AE83BF83DF91CF911F910F91FF90EF908A
:1015C00008950F931F93CF93DF93DC01ED91FC916E
:1015D0003097E9F140815181628173814115510554
:1015E00061057105A1F18C01DB01CA010197A10917
:1015F000B10980839183A283B38341305105610592
:101600007105D9F4F801C081D181209789F08885CE
:101610009985009769F02A85222351F020FD0E94C8
:101620009F281A8619861886188219821A821B82A8
:10163000D8018D919C910E949F28F80111821082FF
:1016400081E090E0DF91CF911F910F9108958FEF8E
:101650009FEFF8CFCF92DF92EF92FF920F931F93FD
:10166000CF93DF93DB01ED91FC91EF2B51F4DF91F0
:10167000CF911F910F91FF90EF90DF90CF900C943E
:10168000650969017A01EB018C01CB010E94E10A35
:10169000019669F4198218828FEF9FEFDF91CF9145
:1016A0001F910F91FF90EF90DF90CF900895A701C9
:1016B0009601BE01C8010E946509019659F381E0B7
:1016C00090E0ECCFCF92DF92EF92FF92CF93DF9337
:1016D000EB0169017A010E942A0B8F3F980761F0A4
:1016E0000990D881C02D8A8581FF0DC0CE010B964F
:1016F0009987888781E090E0DF91CF91FF90EF900C
:10170000DF90CF900895C114D104E104F10439F4BD
:1017100081E090E00E940328FC011082E9CFC6011D
:10172000009711F481E090E00E940328E1CFEF924E
:10173000FF920F931F93CF93DF93EC0179010896EB
:10174000411551056105710591F520E030E0A901D1
:10175000BC01CE010E942A0B0196B1F008851985C3
:10176000D8011A968C911A9781FF15C0C8010B9663
:1017700019969C938E931897E885F9850084F185D6
:10178000E02DD7018C918083DF91CF911F910F9134
:10179000FF90EF90089581E090E00E940328F70108
:1017A0002081DC012C93F80191878087EDCF9A018D
:1017B000AB01BC01CE010E94620B08851985C801EE
:1017C0000E94F4028111E0CFCE010E945806D70199
:1017D000FC90672B682B692B31F4CE010E943D06EB
:1017E000FC01F082D1CFD80118960D911C918C810B
:1017F0009D81080F191FCE010E943D068017910799
:1018000019F2FC01F192CF01F9CFEF92FF920F9301
:101810001F93CF93DF93EC018B0108960E94E10A9E
:10182000F801E084F184C7010E94F402811105C02F
:10183000F986E886F80111861086F8018081918189
:10184000A281B38188839983AA83BB838481958194
:10185000A681B7818C839D83AE83BF83DF91CF91B7
:101860001F910F91FF90EF900895EF92FF920F93C9
:101870001F93CF93DF93EC017B01188219821A82A8
:101880001B821C821D821E821F8219861886089662
:101890000E94E10AF70100851185C8010E94F40247
:1018A00081110EC019870887F80180819181A2817A
:1018B000B3810196A11DB11D80839183A283B3835F
:1018C000F70180819181A281B38188839983AA8362
:1018D000BB8384819581A681B7818C839D83AE83F0
:1018E000BF83DF91CF911F910F91FF90EF900895EB
:1018F000CF92DF92EF92FF920F931F93CF93DF93DC
:10190000CDB7DEB72A970FB6F894DEBF0FBECDBFB6
:101910008C017B010E944F04882309F45AC0B7014F
:10192000CE0101960E94350C80E190E00E940328D0
:101930007C01DC0111961C921E9213961C921E9241
:10194000129715961C921E921497BE016F5F7F4FDF
:1019500006960E94350CC8010E94B003FC01F1827A
:10196000E082CE0109960E94E10AC8010E94B003FC
:10197000DC01ED91FC9191838083C8010E94B0034A
:101980007C01C8010E948704F70195838483C80104
:101990000E94B003DC0116964D915D916D917C9192
:1019A00019974F5F5F4F6F4F7F4FFC0146835783FF
:1019B000608771872A960FB6F894DEBF0FBECDBF41
:1019C000DF91CF911F910F91FF90EF90DF90CF901B
:1019D000089570E060E0C8010E946A04B70188239E
:1019E00009F44FC0CE0101960E94350C80E190E0D1
:1019F0000E9403287C01DC0111961C921E92139612
:101A00001C921E92129715961C921E921497BE015C
:101A10006F5F7F4F06960E94350CCE0109960E949B
:101A2000E10AC8010E94B003F70191838083C0904E
:101A30000400D0900500D582C482C114D10429F0DD
:101A4000D6011396FC92EE9212978091020090912B
:101A50000300892B31F4C8010E94B003FC011582F8
:101A60001482CD2831F4C8010E94B003DC01ED924C
:101A7000FC92F70113821282F0920500E0920400BA
:101A800086CFCE0101960E94350C80E190E00E9445
:101A900003287C01DC0111961C921E9213961C9265
:101AA0001E92129715961C921E921497BE016F5F9C
:101AB0007F4F06960E94350CCE0109960E94E10ADE
:101AC000C8010E94B003F70191838083C8010E947E
:101AD0008D046C01DC0114968D919C91892B31F45D
:101AE000C8010E94B003FC01D182C082D7011296C6
:101AF0008D919C91892B31F4C8010E94B003FC01A7
:101B0000F582E482D7011596DC92CE921497F60105
:101B1000F382E2823CCF0C949F280C949F280C9473
:101B20009F280C949F28EF92FF920F931F93CF93BF
:101B3000DF93DB01ED91FC91309709F46DC080815A
:101B40009181A281B3810097A105B10509F464C018
:101B50008B01AC01BD0141505109610971094083FC
:101B60005183628373830197A105B10509F040C0D9
:101B7000F801C081D1812097B1F1888599850097BE
:101B800091F12A85222379F120FF26C04C815D81C5
:101B90006E817F81452B462B472BB1F1FC0132979B
:101BA00020813181220F331F820F931F7C01F2E0CD
:101BB000EF1AF108288539852817390751F0D70120
:101BC000ED91FC910190F081E02DC7010995C701CD
:101BD000EDCFC7010E949F281A86198618861882A1
:101BE00019821A821B82F801808191810E949F28AC
:101BF000D8011D921C9281E090E0DF91CF911F915E
:101C00000F91FF90EF900895DC01ED91FC9102801F
:101C1000F381E02D0995E0CF8FEF9FEFEECFEF92AC
:101C2000FF920F931F93CF93DF93EC018B011882E8
:101C300019821A821B821C821D821E821F821986B3
:101C400018867C0188E0E80EF11CB701CE010E94E5
:101C5000930DB701F801808591850E947602F80105
:101C600080819181A281B38188839983AA83BB8378
:101C700084819581A681B7818C839D83AE83BF8348
:101C8000DF91CF911F910F91FF90EF900895EF9208
:101C9000FF920F931F93CF93DF93DB01ED91FC91A4
:101CA000309709F46DC080819181A281B381009742
:101CB000A105B10509F464C08B01AC01BD0141501F
:101CC00051096109710940835183628373830197CC
:101CD000A105B10509F040C0F801C081D18120976C
:101CE000B1F188859985009791F12A85222379F1B0
:101CF00020FF26C04C815D816E817F81452B462B64
:101D0000472BB1F1FC01329720813181220F331F23
:101D1000820F931F7C01F2E0EF1AF10828853985C4
:101D20002817390751F0D701ED91FC910190F0810E
:101D3000E02DC7010995C701EDCFC7010E949F287B
:101D40001A8619861886188219821A821B82F8014F
:101D5000808191810E949F28D8011D921C9281E070
:101D600090E0DF91CF911F910F91FF90EF90089538
:101D7000DC01ED91FC910280F381E02D0995E0CF2B
:101D80008FEF9FEFEECFEF92FF920F931F93CF93C2
:101D9000DF934115510549F48FEF9FEFDF91CF910C
:101DA0001F910F91FF90EF9008957A01EB018C0144
:101DB00088819981892BC9F420E030E0A901C8010C
:101DC0000E942309019641F3E881F98182858D7F84
:101DD0008287E881F981828581608287E881F98143
:101DE000F186E08681E090E0D9CFC8010E94470EDD
:101DF000019619F419821882CFCF20E030E0A901B2
:101E0000BE01C8010E9423090196F1F6F3CFBC017F
:101E100025E131E0FC0121933193CF01665F7F4FD3
:101E20000C94470ECF93DF93EC010E94070FCE0175
:101E3000DF91CF910C949F28EF92FF920F931F9305
:101E4000CF93DF93EC018B017C0188E0E80EF11C5D
:101E5000B701CE010E94470EB701F8018085918538
:101E60000E947602F80180819181A281B3818883EA
:101E70009983AA83BB8384819581A681B7818C8352
:101E80009D83AE83BF83DF91CF911F910F91FF9010
:101E9000EF9008950F931F93CF93DF93EC018B0185
:101EA000188219821A821B821C821D821E821F8246
:101EB000198618860E941C0FB801665F7F4FCE01FD
:101EC0000A96DF91CF911F910F910C949E0ACF93A8
:101ED000DF93EC0142960E94550ABE01685F7F4F76
:101EE000CE01DF91CF910C94470EEF92FF920F93AA
:101EF0001F93CF93DF93DB01ED91FC91309709F4B1
:101F00006DC080819181A281B3810097A105B10547
:101F100009F464C08B01AC01BD0141505109610954
:101F2000710940835183628373830197A105B105D1
:101F300009F040C0F801C081D1812097B1F18885B6
:101F40009985009791F12A85222379F120FF26C0F7
:101F50004C815D816E817F81452B462B472BB1F1F2
:101F6000FC01329720813181220F331F820F931F92
:101F70007C01F2E0EF1AF108288539852817390726
:101F800051F0D701ED91FC910190F081E02DC70156
:101F90000995C701EDCFC7010E949F281A861986AF
:101FA0001886188219821A821B82F8018081918119
:101FB0000E949F28D8011D921C9281E090E0DF9141
:101FC000CF911F910F91FF90EF900895DC01ED915B
:101FD000FC910280F381E02D0995E0CF8FEF9FEF18
:101FE000EECFEF92FF920F931F93CF93DF93EC010D
:101FF0008B01BC01685F7F4F0E94750FF801E08480
:10200000F184C7010E945F02811105C0F986E8864C
:10201000F80111861086F80180819181A281B38137
:1020200088839983AA83BB8384819581A681B781A4
:102030008C839D83AE83BF83DF91CF911F910F91DE
:10204000FF90EF9008950F931F93CF93DF938B0131
:10205000FC01108211821282138214821582168270
:10206000178211861086BC01685F7F4F011511052C
:1020700031F4DF91CF911F910F910C94750FEC010A
:1020800020E030E0A9010E942309019671F0E88563
:10209000F98582858D7F8287E885F98582858160D3
:1020A0008287E885F98511870087DF91CF911F919D
:1020B0000F910895EF92FF920F931F93CF93DF93A9
:1020C000DB01ED91FC91309709F46DC08081918125
:1020D000A281B3810097A105B10509F464C08B0109
:1020E000AC01BD014150510961097109408351831F
:1020F000628373830197A105B10509F040C0F8011F
:10210000C081D1812097B1F188859985009791F19F
:102110002A85222379F120FF26C04C815D816E81C2
:102120007F81452B462B472BB1F1FC013297208153
:102130003181220F331F820F931F7C01F2E0EF1ACF
:10214000F108288539852817390751F0D701ED9115
:10215000FC910190F081E02DC7010995C701EDCFF9
:10216000C7010E949F281A8619861886188219822C
:102170001A821B82F801808191810E949F28D801D8
:102180001D921C9281E090E0DF91CF911F910F9101
:10219000FF90EF900895DC01ED91FC910280F381B6
:1021A000E02D0995E0CF8FEF9FEFEECFCF93DF9338
:1021B000EC0183E391E099838883BE016C5E7F4FDD
:1021C000CE010C960E945A10CE010A96DF91CF9153
:1021D0000C94550ACF93DF93EC010E94D610CE01E8
:1021E000DF91CF910C949F28EF92FF920F931F9352
:1021F000CF93DF93DB01ED91FC91309709F46AC036
:1022000080819181A281B3810097A105B10509F474
:1022100061C08B01AC01BD014150510961097109D7
:1022200040835183628373830197A105B10509F04F
:1022300045C0F801C081D1812097D9F1E884F984A3
:10224000E114F104B1F18A85882399F180FF2AC055
:102250008C819D81AE81BF81892B8A2B8B2BD9F0FC
:10226000F7013297808191814AE0489F9001499F10
:10227000300D11242E0D3F1D488559857901FAE056
:10228000EF1AF108C90102974217530749F00E945B
:10229000E10A9701F1CFC70108960E94E10AC70140
:1022A0000E949F281A8619861886188219821A8217
:1022B0001B82D8018D919C910E949F28F801118268
:1022C000108281E090E0DF91CF911F910F91FF90FC
:1022D000EF9008958FEF9FEFF6CFBC01685F7F4FBF
:1022E0000C94F410EF92FF920F931F93CF93DF9310
:1022F000EC017B01188219821A821B821C821D82CA
:102300001E821F82198618860E946D11F7010085B2
:102310001185C8010E94980281110EC01987088793
:10232000F80180819181A281B3810196A11DB11D27
:1023300080839183A283B383F70180819181A281FD
:10234000B38188839983AA83BB8384819581A68185
:10235000B7818C839D83AE83BF83DF91CF911F9123
:102360000F91FF90EF9008956F927F928F929F92BE
:10237000AF92BF92CF92DF92EF92FF920F931F9393
:10238000CF93DF93CDB7DEB72A970FB6F894DEBFB1
:102390000FBECDBF8C016B01CB010E944F0488237F
:1023A00039F1F8011082118212821382148215828F
:1023B0001682178211861086B801685F7F4FC801A8
:1023C0000E94F410C8012A960FB6F894DEBF0FBE23
:1023D000CDBFDF91CF911F910F91FF90EF90DF90D4
:1023E000CF90BF90AF909F908F907F906F90089507
:1023F000C6010E944F04812C912C5401811108C008
:10240000C6010E94B003FC0186809780A084B1843D
:1024100019821A821B821C821D821E821F821886CC
:102420001A861986A5019401BE01675F7F4FCE0110
:1024300001960E942309019649F0E985FA85828573
:1024400081FF58C0CF010B9691878087A984BA84F9
:10245000C5010E949802F12CE12C81110DC0298147
:102460003A814AE0429FC001439F900D1124F5013B
:10247000E084F184E80EF91EC6010E9487046C0115
:10248000C114D10409F48BC0C70108960E94E10A67
:10249000F601A684B784C5010E94F40281110FC021
:1024A000F701B186A086F50180819181A281B38177
:1024B0000196A11DB11D80839183A283B383F60190
:1024C00086819781A085B185F70180839183A2835E
:1024D000B383F60182859385A485B585F70184834E
:1024E0009583A683B783FAE0EF0EF11CF601C28054
:1024F000D380C6CF81149104A104B104C1F48AE051
:1025000090E00E9403287C01FC011082118212825B
:1025100013821482158216821782118610860896FD
:102520000E94E10AE985FA85F186E0868FCF3401C1
:102530008FEF9FEFFDEC8F16FCE09F0638F42AE04A
:10254000289DC001299D900D112402960E94032808
:10255000FC01619271925F017F01912C812CFFEF50
:102560008F1A9F0AC3018819990997FD13C0F701B3
:1025700010821182128213821482158216821782AF
:1025800011861086C70108960E94E10AFAE0EF0E54
:10259000F11CE5CFE985FA85B186A08657CFF80111
:1025A000108211821282138214821582168217827F
:1025B00011861086C8010E946D11E984FA84C70152
:1025C0000E949802811105C0F801F186E0861A8602
:1025D000198689819A81AB81BC81F80180839183BE
:1025E000A283B3838D819E81AF81B88584839583D7
:1025F000A683B783CE0101960E946D11E3CEEF92C0
:10260000FF920F931F93CF93DF93DB01ED91FC912A
:10261000309709F470C080819181A281B3810097C5
:10262000A105B10509F467C08B01AC01BD014150A2
:102630005109610971094083518362837383019752
:10264000A105B10509F043C0F801C081D1812097EF
:10265000C9F1E884F984E114F104A1F18A858823A1
:1026600089F180FF28C08C819D81AE81BF81892B3B
:102670008A2B8B2BC1F1F70132972081318146E102
:10268000429FC001439F900D11248E0D9F1D2885F0
:1026900039857C01F6E1EF1AF1082817390741F076
:1026A000BC016E507109C7010E94750FC701EFCFC1
:1026B00002970E949F281A86198618861882198206
:1026C0001A821B82D8018D919C910E949F28F8014B
:1026D0001182108281E090E0DF91CF911F910F91E4
:1026E000FF90EF900895B701685F7F4FC7010E9488
:1026F000750FC701DECF8FEF9FEFEECFBC01685F94
:102700007F4F0C94FF122FE131E0FC0121933193B4
:10271000CF010C947E13CF93DF93EC010E948313BF
:10272000CE01DF91CF910C949F28EF92FF920F93EF
:102730001F93CF93DF93EC017B010E947E13F7017F
:1027400000851185C8010E94C60281110EC019873B
:102750000887F80180819181A281B3810196A11D32
:10276000B11D80839183A283B383F701808191811E
:10277000A281B38188839983AA83BB838481958155
:10278000A681B7818C839D83AE83BF83DF91CF9178
:102790001F910F91FF90EF9008950F931F93CF9388
:1027A000DF938B01FC01108211821282138214824A
:1027B00015821682178211861086BC01685F7F4FD2
:1027C0000115110531F4DF91CF911F910F910C94F8
:1027D000FF12EC0120E030E0A9010E9423090196DC
:1027E00071F0E885F98582858D7F8287E885F98596
:1027F000828581608287E885F98511870087DF916E
:10280000CF911F910F910895CF92DF92EF92FF9297
:102810000F931F93CF93DF938C01EB010E944F0422
:10282000811168C0209709F05FC0C8010E948D0423
:10283000EC01EA80FB80CC80DD80C8010E94B003FF
:10284000E114F10419F4FC01D582C482C8010E948C
:10285000B003CD2819F4FC01F182E082C8010E9486
:10286000B003FC01828193818C179D0719F4C80184
:102870000E949F04EC81FD81309721F08A819B8129
:1028800093838283AA81BB81109721F01596FC93D4
:10289000EE93149719821882C8010E94B003FC01BC
:1028A00046815781608571854150510961097109DF
:1028B00046835783608771871B821A821D821C8220
:1028C0002097C1F0BE01625F7F4FCE0106960E9445
:1028D000930DCE01DF91CF911F910F91FF90EF905B
:1028E000DF90CF900C949F28BE01C8010E946A041B
:1028F00081119FCFDF91CF911F910F91FF90EF90AA
:10290000DF90CF900895CF93DF93EC01CE010E942A
:102910004F04811106C070E060E0CE010E940414F3
:10292000F5CFDF91CF9108950F931F93CF93DF934E
:10293000EC010E9418048E01085F1F4F6230710580
:102940008105910518F4CE010E948314C801DF911E
:10295000CF911F910F910C94C709CF92DF92EF9204
:10296000FF920F931F93CF93DF93DB01ED91FC91C7
:10297000309709F46BC080819181A281B381009767
:10298000A105B10509F462C08B01AC01BD01415044
:1029900051096109710940835183628373830197EF
:1029A000A105B10509F03FC0F801C081D181209790
:1029B000A9F1C884D984C114D10481F18A858823FE
:1029C00069F180FF24C08C819D81AE81BF81892BFC
:1029D0008A2B8B2BB1F1F6013297808191812DE00A
:1029E000289F7001299FF00C1124EC0CFD1C97010D
:1029F00088859985FDE0EF1AF1088217930721F089
:102A0000C7010E949414F3CF02970E949F281A8650
:102A100019861886188219821A821B82D8018D9114
:102A20009C910E949F28F8011182108281E090E021
:102A3000DF91CF911F910F91FF90EF90DF90CF909A
:102A40000895C6010E949414C601DFCF8FEF9FEF57
:102A5000EFCF4F925F926F927F928F929F92AF9241
:102A6000BF92CF92DF92EF92FF920F931F93CF937B
:102A7000DF93CDB7DEB72B970FB6F894DEBF0FBE4E
:102A8000CDBF2B014A013901DA01DC901196EC909F
:102A900011971296FC90129713960C911397149617
:102AA0001C9114971596BC91FA01C680B7802D2D04
:102AB0003E2D4F2D502F612F7B2F8C2D9B2DA1E371
:102AC0000E94DD2709F4A9C00E94DD2709F090F5D6
:102AD000A0E00E94DD2709F491C0F3011082118269
:102AE00012821382D4011C9211961C921197129695
:102AF0001C92129713961C92139714961C9214977B
:102B000015961C92159716961C92169717961C925E
:102B10001092AE011092AF011092B0011092B1016B
:102B20001092B3011092B20188E08093AD018FEF53
:102B30009FEF4BC1A3E30E94DD2709F418C1A4E372
:102B40000E94DD2751F60E947806D301AD90BD901A
:102B5000CD90DC9076016701E12CF12C8701AC82ED
:102B6000BD82CE82DF82E886F9860A871B87E8EE7F
:102B7000AE2EF3E0BF2EC12CD12CE12CF12C00E0C5
:102B800010E00E94592759016A017B018C012C81B8
:102B90003D814E815F8160E070E080E090E00E94C6
:102BA000D427D9F1D0F184E3D4018C9311961C92EF
:102BB000119712961C92129713961C9213971496C3
:102BC0001C92149715961C92159716961C921697A0
:102BD00017961C9284E390E09093B3018093B20126
:102BE0008CE291E0A0E0B0E08093AE019093AF0161
:102BF000A093B001B093B10184E039C01092AE014E
:102C00001092AF011092B0011092B1011092B30175
:102C10001092B20181E08093AD010E94E801892BFE
:102C200059F581E3D4018C9311961C921197129659
:102C30001C92129713961C92139714961C92149739
:102C400015961C92159716961C92169717961C921D
:102C50001092AE011092AF011092B0011092B1012A
:102C600081E390E09093B3018093B20182E080937E
:102C7000AD0181E090E0A9C080910001082E000C18
:102C8000990B9A8389830E948D008C010E944F04C6
:102C9000811161C0F8018485982F977009F05BC09D
:102CA000846084870E948D000E9487048C010E94AA
:102CB0008D0001151105D9F1D80112962D913C9185
:102CC000FC01338722877801F6E0EF0EF11CC70183
:102CD0000E942903882381F0C7010E940B03DC01B5
:102CE000ED91FC910480F581E02DAE014F5F5F4FC7
:102CF000BE016D5F7F4F0995DB800E948D007C01D6
:102D00000E944F04811113C0D11004C0B801C70143
:102D10000E9404140E948D00FC0102851385011598
:102D2000110529F0B8010E946A048111C0CF0E94E8
:102D30008D00FC0194859B7F94870E948D00FC018F
:102D4000948597FF08C092FD06C09F7794870E94E4
:102D50008D000E94831480910001082E000C990BB5
:102D6000019668E070E00E944327809300010E9472
:102D7000E8018130910509F042C023E3D4012C938E
:102D800011961C92119712961C92129713961C92F0
:102D9000139714961C92149715961C9215971696D5
:102DA0001C92169717961C921092AE011092AF01CA
:102DB0001092B0011092B10123E330E03093B301DF
:102DC0002093B20122E02093AD01F2019183808330
:102DD0002B960FB6F894DEBF0FBECDBFDF91CF911B
:102DE0001F910F91FF90EF90DF90CF90BF90AF9029
:102DF0009F908F907F906F905F904F9008950E946A
:102E00007806A8EEAA2EB3E0BB2EC12CD12CE12C63
:102E1000F12C00E010E00E945927DA01C901845D1D
:102E20009E4FAF4FBF4FF30180839183A283B38343
:102E30008ACEAF92BF92CF92DF92EF92FF920F9322
:102E40001F93CF93DF938C01EB010E944F048111FC
:102E500068C0C8010E94B0035C01209709F05BC004
:102E6000C8010E942305EC01EA80FB80CC80DD8054
:102E7000E114F10419F4F501D582C482C8010E945D
:102E8000B003CD2819F4FC01F182E082C8010E9450
:102E9000B003FC01828193818C179D0719F4C8014E
:102EA0000E94EA05EC81FD81309721F08A819B81A7
:102EB00093838283AA81BB81109721F01596FC939E
:102EC000EE93149719821882C8010E94B003FC0186
:102ED00046815781608571854150510961097109A9
:102EE00046835783608771871B821A821D821C82EA
:102EF0002097B9F0CE0106960E94670FCE01DF91B0
:102F0000CF911F910F91FF90EF90DF90CF90BF90E6
:102F1000AF900C949F2888819981A816B90609F46E
:102F2000A3CFDF91CF911F910F91FF90EF90DF9092
:102F3000CF90BF90AF9008950F931F93CF93DF93DF
:102F4000EC010E9418048E01085F1F4F623071056A
:102F50008105910558F4CE010E944F04811106C0ED
:102F600070E060E0CE010E941917F5CFC801DF9133
:102F7000CF911F910F910C94C709CF92DF92EF92DE
:102F8000FF920F931F93CF93DF93DB01ED91FC91A1
:102F9000309709F46BC080819181A281B381009741
:102FA000A105B10509F462C08B01AC01BD0141501E
:102FB00051096109710940835183628373830197C9
:102FC000A105B10509F03FC0F801C081D18120976A
:102FD000A9F1C884D984C114D10481F18A858823D8
:102FE00069F180FF24C08C819D81AE81BF81892BD6
:102FF0008A2B8B2BB1F1F6013297808191812AE0E7
:10300000289F7001299FF00C1124EC0CFD1C9701E6
:1030100088859985FAE0EF1AF1088217930721F065
:10302000C7010E949C17F3CF02970E949F281A861F
:1030300019861886188219821A821B82D8018D91EE
:103040009C910E949F28F8011182108281E090E0FB
:10305000DF91CF911F910F91FF90EF90DF90CF9074
:103060000895C6010E949C17C601DFCF8FEF9FEF26
:10307000EFCFEF92FF920F931F93CF93DF93DB017C
:10308000ED91FC91309709F470C080819181A2810B
:10309000B3810097A105B10509F467C08B01AC01AC
:1030A000BD01415051096109710940835183628317
:1030B00073830197A105B10509F04BC0F801C081E8
:1030C000D181209709F440C0E884F984E114F10427
:1030D000D9F18A858823C1F180FF2FC08C819D8121
:1030E000AE81BF81892B8A2B8B2BE9F0F7013297B8
:1030F000808191814FE0489F9001499F300D1124BC
:103100002E0D3F1D488559857901FFE0EF1AF10822
:10311000C90102974217530771F0BC0108970E943A
:10312000BD179701EFCFB701635F7F4FC7010596CA
:103130000E94BD17C7010E949F281A86198618860B
:10314000188219821A821B82D8018D919C910E944B
:103150009F28F8011182108281E090E0DF91CF91E9
:103160001F910F91FF90EF9008958FEF9FEFF6CF93
:10317000EF92FF920F931F93CF93DF938FE090E036
:103180000E940328EC018FE0FE0111928A95E9F775
:103190007E01F5E0EF0EF11C8AE090E00E9403282A
:1031A0008C018AE090E00E9403282AE0FC01119241
:1031B0002A95E9F7BC01C8010E94100A1D821E82EF
:1031C0001F82188619861A861B861C861E861D86F7
:1031D000BE01635F7F4F0115110529F5C7010E94EC
:1031E000BD171092C7011092C8011092C901109228
:1031F000CA011092CB011092CC011092CD01109215
:10320000CE011092D0011092CF01209719F56FECEA
:1032100071E087EC91E0DF91CF911F910F91FF90CA
:10322000EF900C94391820E030E0A901C7010E940A
:1032300023090196B1F2ED85FE8582858D7F828717
:10324000ED85FE85828581608287ED85FE8511870B
:103250000087C7CF20E030E0A9016FEC71E087EC78
:1032600091E00E942309019651F0E091CF01F09185
:10327000D00182858D7F81608287D187C087DF9171
:10328000CF911F910F91FF90EF9008956FEC71E037
:1032900087EC91E00C943918AF92BF92CF92DF92F5
:1032A000EF92FF920F931F93CF93DF938C010E94B5
:1032B0001804780128E0E20EF11C623071058105E6
:1032C000910508F05BC0C8010E944F04811156C0EF
:1032D000C8010E948D04EC01CA80DB80C8010E94F5
:1032E000B003AC80BD80C114D10419F4FC01B582D7
:1032F000A482C8010E94B003AB2819F4FC01D1825A
:10330000C082C8010E94B003FC0182819381C8176A
:10331000D90719F4C8010E949F04EC81FD81309700
:1033200021F08A819B8193838283AA81BB8110973C
:1033300021F01596FC93EE93149719821882C80118
:103340000E94B003FC014681578160857185415020
:1033500051096109710946835783608771871B8210
:103360001A821D821C82209709F4ADCFCE010E96E1
:103370000E94E10ACE010E949F28A5CFC701DF91DC
:10338000CF911F910F91FF90EF90DF90CF90BF9062
:10339000AF900C94C709EF92FF920F931F93CF93B6
:1033A000DF938C01EB017A0188819981892B69F483
:1033B000C8010E94BB088F3F9807B9F4DF91CF91F5
:1033C0001F910F91FF90EF900895CB010E94550A35
:1033D000019629F4198218828FEF9FEFEFCFBE017B
:1033E000C8010E94BB080196A9F308811981F80160
:1033F000828581FF11C0C8010B9691878087E88183
:10340000F981A085B18586E0F70101900D928A953A
:10341000E1F781E090E0D2CF86E090E00E940328BF
:1034200026E0F701DC0101900D922A95E1F7F80101
:1034300091878087EECF8F929F92AF92BF92CF926B
:10344000DF92EF92FF920F931F93CF93DF93CDB74D
:10345000DEB7C055D1090FB6F894DEBF0FBECDBFA1
:103460008C017B018091BF01811105C00E94B818B9
:1034700081E08093BF012B961CAE1DAE1EAE1FAE29
:103480002B972F961CAE1DAE1EAE1FAE2F976196CA
:103490001FAE1EAE6197B701CE01895B9F4F0E94A0
:1034A000951387EC91E00E94CC045C0121961CAE40
:1034B0001DAE1EAE1FAE219725961CAE1DAE1EAED4
:1034C0001FAE259727961FAE1EAE2797BE01695BDC
:1034D0007F4FCE01CD960E9495131A8219821C82CD
:1034E0001B821E821D82D8011D921D921D921C926C
:1034F0001397F8011482158216821782118610869E
:10350000AE014F5F5F4FB801685F7F4FC8010E94F7
:10351000CB198CE090E00E9403287C018FE191E0C0
:10352000D70111969C938E93F70112821382148215
:10353000158216961D921D921D921C9219971B962C
:103540001C921E921A97BE01635C7F4FC7010296C0
:103550000E9495131BAA1CAA1DAA1EAA1FAA18AE78
:1035600019AE1AAE1CAE1BAEE114F10409F0FBC09B
:10357000BE01655C7F4FCE01C3960E94470EB5E049
:10358000AB0EB11CC5010E9435057C0119A61AA617
:103590001BA61CA61DA61EA61FA618AA1AAA19AA13
:1035A000BE016D5C7F4FCE0189960E941C0F8CE09E
:1035B00090E00E9403286C0185E191E0F60191837F
:1035C00080831282138214821582168217821086DB
:1035D000118613861286BE01675D7F4FC601029673
:1035E0000E941C0F1D8A1E8A1F8A188E198E1A8E21
:1035F0001B8E1C8E1E8E1D8EC114D10409F0BCC002
:10360000BE01635E7F4FCE0145960E94470EB80112
:10361000CE014F960E949E0AC7010E944F04BE0130
:103620006B5E7F4F882309F4B0C0CE0101960E94E3
:103630004A0F8AE190E00E9403286C01DC01119698
:103640001C921E9213961C921E92129715961C9213
:103650001E921497BE016F5F7F4F06960E944A0F1D
:10366000C7010E94B003FC01D182C082CE01019645
:103670000E94670FC7010E94B003DC01ED91FC912D
:1036800091838083C7010E94B0036C01C7010E942F
:103690001D05F60195838483C7010E94B003DC01F8
:1036A00016964D915D916D917C9119974F5F5F4F8B
:1036B0006F4F7F4FFC014683578360877187CE0130
:1036C00045960E94670FBE016F5C7F4FCE018996C1
:1036D0000E94470EC5010E9435056C01C8010E9479
:1036E00059057C01C6010E942305D70113969C93BE
:1036F0008E931297C8010E94590521E030E0FC0129
:1037000031832083C8010E9459057C01C5010E94B4
:103710003505D70115969C938E931497BE01655C71
:103720007F4FCE01C3960E94470ECE01CD960E94D8
:103730007E13CE01895B9F4F0E947E13C801C05B40
:10374000DF4F0FB6F894DEBF0FBECDBFDF91CF9134
:103750001F910F91FF90EF90DF90CF90BF90AF90AF
:103760009F908F900895A701BE01655C7F4FCE01A9
:10377000C3960E94C30E03CFA601BE01635E7F4FB6
:10378000CE0145960E94C30E42CFCE0101960E9403
:103790004A0F8AE190E00E9403286C01DC01119637
:1037A0001C921E9213961C921E92129715961C92B2
:1037B0001E921497BE016F5F7F4F06960E944A0FBC
:1037C000CE0101960E94670FC7010E94B003F60167
:1037D00091838083C7010E9423054C01DC0114966C
:1037E0008D919C91892B31F4C7010E94B003FC019B
:1037F00091828082D60112968D919C91892B31F411
:10380000C7010E94B003FC01D582C482D60115967F
:103810009C928E921497F401D382C2823DCFAF92D4
:10382000BF92CF92DF92EF92FF920F931F93CF93AD
:10383000DF93CDB7DEB72B970FB6F894DEBF0FBE80
:10384000CDBF8C015B0169017A01672B09F5F80195
:1038500010821182128213821482158216821782BC
:1038600011861086C80108960E94E10AC8012B96AD
:103870000FB6F894DEBF0FBECDBFDF91CF911F9181
:103880000F91FF90EF90DF90CF90BF90AF90089591
:10389000C114D104E104F104D1F21B8619821A8209
:1038A0001B821C821D821E821F8218861A86198620
:1038B000BA01A9014F5F5F4F6F4F7F4F9E01255F98
:1038C0003F4FCE0101960E94970BCE0101960E94B8
:1038D0003D06A601B5010E942829F8011082118237
:1038E0001282138214821582168217821186108624
:1038F000BE016F5F7F4FC8010E94050CCE01099683
:10390000B3CF0F931F93CF93DF93CDB7DEB72A9733
:103910000FB6F894DEBF0FBECDBF8C01FC01108244
:1039200011821282138214821582168217821186E6
:103930001086089661157105B1F0FB010190002019
:10394000E9F73197E61BF70B9F0150E040E0CE010D
:1039500001960E940F1CBE016F5F7F4FC8010E943D
:10396000050CCE0109960E94E10A2A960FB6F8943A
:10397000DEBF0FBECDBFDF91CF911F910F91089594
:103980000F931F93CF93DF93CDB7DEB72A970FB670
:10399000F894DEBF0FBECDBF8C0169E671E0CE01A9
:1039A00001960E94811CBE016F5F7F4FC8010E947B
:1039B000780CCE0109960E94E10A2A960FB6F89477
:1039C000DEBF0FBECDBFDF91CF911F910F91089544
:1039D0002F923F924F925F926F927F928F929F921F
:1039E000AF92BF92CF92DF92EF92FF920F931F930D
:1039F000CF93DF93CDB7DEB7AA970FB6F894DEBFAB
:103A00000FBECDBF8C015B017A01CB010E949103F7
:103A10008823F9F070E060E0C8010E94811CC801B1
:103A2000AA960FB6F894DEBF0FBECDBFDF91CF913F
:103A30001F910F91FF90EF90DF90CF90BF90AF90CC
:103A40009F908F907F906F905F904F903F902F90BE
:103A50000895CE0145960E94430AF5018084918421
:103A6000C4010E949802D12CC12C81110EC0F50115
:103A7000208131814AE0429FC001439F900D112473
:103A8000F401C084D184C80ED91E412C512C3201BE
:103A9000C5010E94D203C816D90661F1B601CE0154
:103AA00001960E94350CBE016F5F7F4FCE01459697
:103AB0000E94780CCE0109960E94E10ACE0145963B
:103AC0000E948D0406960E949208460E571E681E9C
:103AD000791EFAE0CF0ED11CC5010E94D203C81690
:103AE000D906B1F2C7010E949208460E571E681E01
:103AF000791ECECF1F8E18A219A21AA21BA21CA239
:103B00001DA21EA218A61FA2CE0187964114510421
:103B10006104710409F43FC01B8619821A821B825A
:103B20001C821D821E821F8218861A861986B30186
:103B3000A2014F5F5F4F6F4F7F4F9E01255F3F4F49
:103B4000CE0101960E94970BCE0101960E943D0680
:103B5000A20170E060E00E9431291B861C861D8650
:103B60001E861F86188A198A1A8A1C8A1B8ABE0119
:103B70006F5F7F4FCE010B960E94050CCE01099618
:103B80000E94E10ABE01655F7F4FCE014F960E9401
:103B9000050CCE0143960E94E10ACE0145960E9493
:103BA00087041C01412C512C32012114310409F4E9
:103BB00045C0610186E0C80ED11CC6010E94920872
:103BC0004B01C6010E947E089AA789A7CE014F9695
:103BD0000E943D06840D951DA40169A57AA50E9449
:103BE0002829C6010E949208460E571E681E791E9B
:103BF000CE014F960E94920846165706680679062F
:103C000090F4C7010E9492084B01C7010E947E08F0
:103C10006C01CE014F960E943D06840D951DA401B6
:103C2000B6010E942829C7010E949208460E571E1D
:103C3000681E791EF10122803380B7CFF80110820F
:103C400011821282138214821582168217821186C3
:103C50001086BE01615E7F4FC8010E94050CCE0137
:103C600087960E94E10ACE0145960E944C19D7CE54
:103C7000CF92DF92EF92FF92CF93DF93CDB7DEB773
:103C8000EC970FB6F894DEBF0FBECDBF7C016BE69C
:103C900071E0CE0189960E94811CCE014F960E9450
:103CA000430AB701CE0101960E94811CBE016F5FDD
:103CB0007F4FCE014F960E94780CCE0109960E944C
:103CC000E10ACE014F960E94C01CBE01615E7F4F8B
:103CD000CE010B960E94B411BE01655F7F4FCE01ED
:103CE00045960E947211BE01675D7F4FCE0101961D
:103CF0000E94350CAE014F5F5F4FBE016B5E7F4F80
:103D0000CE01C3960E94E81CCE0109960E94E10AEA
:103D1000CE0145960E946D11CE010B960E946D1149
:103D2000CE014F960E944C19CE01C1960E94E10A25
:103D3000CE01C3960E94A208CE01C3960E949208AB
:103D40006B01CE01CB960E94E10AC601EC960FB63C
:103D5000F894DEBF0FBECDBFDF91CF91FF90EF9003
:103D6000DF90CF900895CF93FA01C0816C2F6170DE
:103D70008AE00E940C026C2F62708BE00E940C02A1
:103D80006C2F64708CE00E940C028DE691E0CF9164
:103D90000C94381E4F925F926F927F928F929F92F7
:103DA000AF92BF92CF92DF92EF92FF920F931F9349
:103DB000CF93DF93CDB7DEB7CA57D1090FB6F894CA
:103DC000DEBF0FBECDBF2B014A013901FA01D08001
:103DD000E180F28003811481B581C680B7802D2DEA
:103DE0003E2D4F2D502F612F7B2F8C2D9B2DA0E032
:103DF0000E94DD2729F1A9E10E94DD2709F448C0CE
:103E0000F3011082118212821382F4011082118256
:103E10001282138214821582168217821092AE01CA
:103E20001092AF011092B0011092B1011092B30143
:103E30001092B20188E08093AD018FEF9FEF91C0A7
:103E40001092AE011092AF011092B0011092B10128
:103E50001092B3011092B20181E08093AD010E94F3
:103E60007806A8EEAA2EB3E0BB2EC12CD12CE12CF3
:103E7000F12C00E010E00E945927DA01C9018851B5
:103E80009C4FAF4FBF4FF30180839183A283B383D5
:103E90000E947806F301A080B180C280D3807601B1
:103EA0006701E12CF12C8701E496AFAEE497E5962B
:103EB000BFAEE597E696CFAEE697E796DFAEE7971B
:103EC000E896EFAEE897E996FFAEE997EA960FAF6E
:103ED000EA97EB961FAFEB97E8EEAE2EF3E0BF2E1E
:103EE000C12CD12CE12CF12C00E010E00E945927CC
:103EF00059016A017B018C01E4962FADE497E596A8
:103F00003FADE597E6964FADE697E7965FADE7974D
:103F100060E070E080E090E00E94D427E9F1E0F1F9
:103F200089E1F40180831182128213821482158246
:103F30001682178289E190E09093B3018093B201D9
:103F400088EE93E0A0E0B0E08093AE019093AF01E3
:103F5000A093B001B093B10184E08093AD0181E002
:103F600090E0F20191838083C658DF4F0FB6F8943A
:103F7000DEBF0FBECDBFDF91CF911F910F91FF909C
:103F8000EF90DF90CF90BF90AF909F908F907F90F9
:103F90006F905F904F9008956BE671E0CE01815A6B
:103FA0009F4F0E94811CCE018B5A9F4F0E94430A53
:103FB0006CE771E08E010F5F1F4FC8010E94811CEA
:103FC000B801CE018B5A9F4F0E94780CCE01099602
:103FD0000E94E10A8091B5018F938091B4018F9383
:103FE00085E891E09F938F931F9280E48F931F93B6
:103FF0000F930E9438299C01990F440B550B2F9663
:104000001CAE1DAE1EAE1FAE2F9763961CAE1DAE2E
:104010001EAE1FAE639765961FAE1EAE65970FB6B8
:10402000F894DEBF0FBECDBF8BE490E021153105C3
:104030004105510581F0B801CE018F5B9F4F0E9471
:104040000F1CBE016F5B7F4FCE01855B9F4F0E94AF
:10405000050C81E490E08C0F9D1F08960E94E10AF8
:10406000BE01655B7F4FCE018B5A9F4F0E94780C3B
:104070008BE490E08C0F9D1F08960E94E10ACE0110
:104080008B5A9F4F0E94C01CBE016B5A7F4FCE01BE
:104090008F5B9F4F0E94B411BE016F5B7F4FCE01BB
:1040A000855B9F4F0E947211BE01615A7F4FC8010C
:1040B0000E94350CA801BE01655B7F4FCE01875978
:1040C0009F4F0E94E81CCE0109960E94E10ACE0192
:1040D000855B9F4F0E946D11CE018F5B9F4F0E94A9
:1040E0006D11CE018B5A9F4F0E944C198FE590E0C5
:1040F0008C0F9D1F08960E94E10ACE0187599F4FA1
:104100000E94A20889E690E08C0F9D1F08960E94ED
:10411000E10A8091B4019091B50101969093B501A7
:104120008093B4019CCE1F920F920FB60F92112470
:104130002F933F934F935F936F937F938F939F93AF
:10414000AF93BF93EF93FF9381ED91E00E94300115
:10415000FF91EF91BF91AF919F918F917F916F915F
:104160005F914F913F912F910F900FBE0F901F9035
:1041700018951F920F920FB60F9211242F938F93C1
:104180009F93EF93FF93E091E101F091E201808131
:10419000E091E701F091E80182FD1BC090818091E0
:1041A000EA018F5F8F732091EB01821741F0E0915C
:1041B000EA01F0E0EF52FE4F958F8093EA01FF9104
:1041C000EF919F918F912F910F900FBE0F901F90A5
:1041D00018958081F4CF1F920F920FB60F92112481
:1041E0002F933F938F939F93AF93BF938091B7018A
:1041F0009091B801A091B901B091BA013091B60186
:1042000023E0230F2D3758F50196A11DB11D2093F2
:10421000B6018093B7019093B801A093B901B09310
:10422000BA018091BB019091BC01A091BD01B091F8
:10423000BE010196A11DB11D8093BB019093BC01ED
:10424000A093BD01B093BE01BF91AF919F918F919B
:104250003F912F910F900FBE0F901F90189526E859
:10426000230F0296A11DB11DD2CFCF93DF931092E1
:10427000D4011092D30188EE93E0A0E0B0E08093E7
:10428000D5019093D601A093D701B093D8018BE5C7
:1042900091E09093D2018093D10185EC90E09093CE
:1042A000DE018093DD0184EC90E09093E001809347
:1042B000DF0180EC90E09093E2018093E10181ECDA
:1042C00090E09093E4018093E30182EC90E090937E
:1042D000E6018093E50186EC90E09093E8018093FD
:1042E000E7011092EA011092EB011092EC0110929A
:1042F000ED018DE090E00E940328EC018DE0FE01CD
:1043000011928A95E9F7CE010E94430A1B861A860C
:104310001C8610926E0210926F0210927002109220
:104320007102109272021092730210927402109233
:1043300075021092770210927602209741F466E798
:1043400072E08EE692E0DF91CF910C94AD1420E004
:1043500030E0A90166E772E08EE692E00E94230950
:10436000019651F0E0917602F091770282858D7F7F
:1043700081608287D187C087DF91CF910895CF93E5
:10438000DF93CDB7DEB7C654D1090FB6F894DEBFC0
:104390000FBECDBF789484B5826084BD84B5816042
:1043A00084BD85B5826085BD85B5816085BD809100
:1043B0006E00816080936E00109281008091810078
:1043C0008260809381008091810081608093810070
:1043D000809180008160809380008091B100846032
:1043E0008093B1008091B00081608093B000809193
:1043F0007A00846080937A0080917A008260809352
:104400007A0080917A00816080937A0080917A00AE
:10441000806880937A001092C100E091E101F091F0
:10442000E20182E08083E091DD01F091DE01108203
:10443000E091DF01F091E0018FEC80831092E901BF
:10444000E091E501F091E60186E08083E091E301EF
:10445000F091E401808180618083E091E301F0913B
:10446000E401808188608083E091E301F091E401C0
:10447000808180688083E091E301F091E401808194
:104480008F7D8083E1EAF0E02491EDE8F0E0849113
:104490008823C9F090E0880F991FFC01EE58FF4F68
:1044A00045915491FC01E859FF4FA591B4919FB7F4
:1044B000F894FA0180812095822380838C91E22FE9
:1044C000E823EC939FBF8AE0E7E0F1E0DE0111967C
:1044D00001900D928A95E1F721961CAE1DAE1EAE9D
:1044E0001FAE219725961CAE1DAE1EAE1FAE2597A2
:1044F00027961FAE1EAE27976DE370E06C0F7D1FF1
:10450000685F7F4F25E030E040E050E0CE01CD967F
:104510000E94620BCE01CD960E943D06FE013196AF
:104520009C012B5F3F4F40813296DC014D93CD01C2
:10453000A217B307C1F7CE01CD960E943D067C01BC
:1045400027960EAD1FAD2797C8010E94F40230E0F8
:1045500020E0811109C0F8012085318523968EADB8
:104560009FAD2397280F391FD7012A173B0709F161
:104570008D9190E0FC01E656FF4F64918A579F4F62
:10458000FC018491882389F390E0880F991FFC0136
:10459000EE58FF4F45915491FC01E859FF4F85912A
:1045A00094918FB7F894FA019081962B90838FBFE6
:1045B000DCCF83E090E00E9403288C0189E291E047
:1045C000D8018D939C931BAA1CAA1DAA1EAA1FAAE0
:1045D00018AE19AE1AAE1CAE1BAE0115110509F0CE
:1045E00012C3BE01655C7F4FCE01C3960E945A1074
:1045F0001A8219821C821B821E821D8219A61AA68B
:104600001BA61CA61DA61EA61FA618AA1AAA19AA92
:10461000AE014F5F5F4FBE016F5C7F4FCE01899649
:104620000E94CB190E948D008C01BE01675D7F4FF7
:10463000CE0101960E949E0A1B861C861D861E8640
:104640001F86188A198A1A8A1C8A1B8ABE016D5E07
:104650007F4FCE010B960E945A10BE016D5E7F4FB8
:104660008BAD9CAD0E9476028BA99CA9ADA9BEA979
:104670008B879C87AD87BE878FA998ADA9ADBAAD52
:104680008F87988BA98BBA8B86E190E00E940328D4
:104690007C0123E331E0FC0121933193CF01BE0182
:1046A0006F5F7F4F0E949E0AD7011C961D921D923C
:1046B0001D921C921F97F701108A118A128A138A81
:1046C000158A148A6701F4E1CF0ED11CB601C70127
:1046D0000C960E945A10B6018B899C890E94760222
:1046E0008B859C85AD85BE85F70184879587A687D8
:1046F000B7878F859889A989BA89808B918BA28B7E
:10470000B38B1F8E18A219A21AA21BA21CA21DA253
:104710001EA218A61FA2E114F10409F08AC2BE016C
:10472000695D7F4FCE014F960E94930DC8010E9494
:104730004F04882309F493C2BE01615E7F4FCE010E
:1047400045960E940F0E80E190E00E9403287C01B4
:10475000DC0111961C921E9213961C921E921297C7
:1047600015961C921E921497BE016B5E7F4F0696A3
:104770000E940F0EC8010E94B003FC01F182E0828A
:10478000BE01635E7F4FCE0145960E94930DC80126
:104790000E94B003DC01ED91FC9191838083C801FC
:1047A0000E94B0037C01C8010E948704F701958331
:1047B0008483C8010E94B003DC0116964D915D917F
:1047C0006D917C9119974F5F5F4F6F4F7F4FFC0149
:1047D0004683578360877187BE01695D7F4FCE0135
:1047E0004F960E94930DBE016D5E7F4FCE010B96DA
:1047F0000E945A10CE0109960E94550ACE01899650
:104800000E94590521E030E0DC012D933C930E9489
:104810008D007C01CE0189960E9459058C01C7014B
:104820000E948D04F80193838283CE0189960E94B1
:1048300059058C010E948D00D80115969C938E938A
:104840001497CE01C1960E94550ABE01655C7F4F48
:10485000CE01C3960E945A1086E190E00E94032880
:104860008C0136E1F32EFC012F2D11922A95E9F7E8
:1048700070E060E00E942310D8011A961D921D92EC
:104880001D921C921D971E961C921E971F961C929D
:104890001F9750961C92509751961C925197529682
:1048A0001C92529753961C92539754961C9254976D
:1048B00055961C92B801CE0145960E94CD1383E017
:1048C00090E00E9403282DE331E0FC013183208336
:1048D000BC01CE0101960E942310CE0145960E9494
:1048E0002D04BE016F5F7F4F0E94F10FBE01675F15
:1048F0007F4FCE0101960E94750FBE016B5E7F4F08
:10490000CE0101960E941B1ACE0109960E94550AFB
:10491000CE0145960E947E1386E190E00E94032816
:104920008C01DC01EF2D1D92EA95E9F770E060E063
:104930000E942310D8011A961D921D921D921C925E
:104940001D971E961C921E971F961C921F9750969D
:104950001C92509751961C92519752961C925297C6
:1049600053961C92539754961C92549755961C92AA
:10497000B801CE0145960E94CD1383E090E00E94DD
:10498000032827E431E0FC0131832083BC01CE0100
:1049900001960E942310CE0145960E942D04BE016F
:1049A0006F5F7F4F0E94F10FBE01675F7F4FCE01A7
:1049B00001960E94750FBE016B5E7F4FCE0101967E
:1049C0000E941B1ACE0109960E94550ACE014596F7
:1049D0000E947E1386E190E00E9403288C01DC0196
:1049E0001D92FA94E9F770E060E00E942310F8014C
:1049F000128613861486158616861786108A118AE3
:104A0000128A138A148A158AB801CE0145960E942B
:104A1000CD1383E090E00E94032821E531E0DC0122
:104A20002D933C93BC01CE0101960E942310CE0130
:104A300045960E942D04BE016F5F7F4F0E94F10FCB
:104A4000BE01675F7F4FCE0101960E94750FBE01C8
:104A50006B5E7F4FCE0101960E941B1ACE01099614
:104A60000E94550ACE0145960E947E1388E891E087
:104A70000E94381E8DE390E08C0F9D1F08960E94C7
:104A8000E10A44244A94542C320154E0252E312C5E
:104A90008091BF01811105C00E94B818B1E0B093A8
:104AA000BF0187EC91E00E94CC048C010B5F1F4F8B
:104AB000C8010E9435057C010E944F0481112CC061
:104AC000C7010E941706892B39F1C8010E943505DC
:104AD0000E9417065C01C8010E9435050E94170656
:104AE000FC018281938188248394912C892B19F471
:104AF00088248A94982C6501F0E1CF0ED11CC60160
:104B00000E945905DC012D913C9121FF52C1C80141
:104B10000E9435050E94EA0587EC91E00E94CC04D2
:104B2000FC0190819064908387EC91E00E94CC041A
:104B3000DC0111964D915D916D917C911497452BFF
:104B4000462B472B29F0FC0111821282138214821A
:104B500087EC91E00E94CC048C0105960E943505FB
:104B60007C010E944F0481110CC0C7010E94B00358
:104B7000FC0186819781A085B185892B8A2B8B2B9F
:104B8000D1F4E091CF01F091D0013097A1F082856E
:104B9000882389F080819181A281B3810097A1054A
:104BA000B10549F020853185232B29F00297A10515
:104BB000B10508F047C1D8011196CD90DD90ED9078
:104BC000FC9014970E943A024B015C01C114D1047D
:104BD000E104F10409F43DC10E943A02681979091F
:104BE0008A099B09683E73408105910578F3B1E01D
:104BF000CB1AD108E108F108E8EE8E0EE3E09E1E24
:104C0000A11CB11CE3CF20E030E0A901BE01655C2E
:104C10007F4FCE01C3960E942309019609F4E8CC88
:104C2000EBADFCAD82858D7F816082871187008727
:104C3000DFCC20E030E0A901BE01695D7F4FCE01ED
:104C40004F960E942309019609F470CDEFA1F8A5B3
:104C500082858D7F81608287F186E08667CD70E0F6
:104C600060E0C8010E946A04BE01615E7F4F882334
:104C700009F452C0CE0145960E940F0E80E190E0EB
:104C80000E9403287C01DC0111961C921E9213964F
:104C90001C921E92129715961C921E921497BE019A
:104CA0006B5E7F4F06960E940F0EBE01635E7F4FC4
:104CB000CE0145960E94930DC8010E94B003F701F2
:104CC00091838083C0900400D0900500D582C48277
:104CD000C114D10429F0D6011396FC92EE921297DA
:104CE0008091020090910300892B31F4C8010E9449
:104CF000B003FC0115821482CD2831F4C8010E9452
:104D0000B003DC01ED92FC92F70113821282F09263
:104D10000500E09204004DCDCE0145960E940F0E95
:104D200080E190E00E9403287C01DC0111961C9236
:104D30001E9213961C921E92129715961C921E920A
:104D40001497BE016B5E7F4F06960E940F0EBE0148
:104D5000635E7F4FCE0145960E94930DC8010E946D
:104D6000B003F70191838083C8010E948D046C0118
:104D7000DC0114968D919C91892B31F4C8010E941D
:104D8000B003FC01D182C082D70112968D919C9113
:104D9000892B31F4C8010E94B003FC01F582E48242
:104DA000D7011596DC92CE921497F601F382E28237
:104DB00000CD22FF13C0C8010E943505B5010E9435
:104DC0001917E0E0F0E0EF2B09F462CE0E941C011D
:104DD000882309F45DCE0E9400005ACE2260FC01B7
:104DE00031832083C6010E9459057C01C5010696C6
:104DF0000E94F0045C01C8010E9435050E944F0426
:104E0000811118C0C6010E945905E816F90691F4EF
:104E1000FFEFAF16BF0691F0AB2861F0D7018D917F
:104E20009C9111978D7F8D939C93C8010E943505AD
:104E30000E94EA058A94892821F26ECEF701318218
:104E40002082F8CF88EEC82E83E0D82EE12CF12CFA
:104E5000B9CE87EC91E00E94CC04DC0111964D9212
:104E60005D926D927C92149787EC91E00E94CC0445
:104E7000FC0190819F7B9083A4CF66E772E08EE671
:104E800092E00C94AD1497FB072E16F4009407D013
:104E900077FD09D00E94E92707FC05D03EF49095E4
:104EA00081959F4F0895709561957F4F08956894FF
:104EB00001C0E8948F929F92CF93DF930E94652761
:104EC000DF91CF919F908F90089588249924F401C9
:104ED000E401B0E49F93AA279A158B049C04ED0586
:104EE000FE05CF05D007A10798F4AD2FDC2FCF2FFB
:104EF000FE2FE92D982C892E982F872F762F652F3E
:104F0000542F432F322F2227B85031F7BF9127C09B
:104F10001B2EBF91BB27220F331F441F551F661F37
:104F2000771F881F991F881C991CEE1FFF1FCC1F1D
:104F3000DD1FAA1FBB1F8A149B04EC05FD05CE05CF
:104F4000DF05A007B10748F08A189B08EC09FD09A6
:104F5000CE09DF09A00BB10B21601A94E1F62EF403
:104F60009401AF01BE01CD01000C08952A0D3B1D37
:104F70004C1D5D1D6E1D7F1D801F911F0895002417
:104F8000A7FD00942A0F301D401D501D601D701D8F
:104F9000801D901D08952A193B094C095D096E0971
:104FA0007F09800B910B08952A153B054C055D0583
:104FB0006E057F058007910708950024A7FD0094E2
:104FC0002A173005400550056005700580059005DD
:104FD0000895AA1BBB1B51E107C0AA1FBB1FA61740
:104FE000B70710F0A61BB70B881F991F5A95A9F792
:104FF00080959095BC01CD010895EE0FFF1F05909F
:10500000F491E02D09940F931F93CF93DF93823097
:10501000910510F482E090E0E0917A02F0917B0239
:1050200030E020E0B0E0A0E0309799F421153105A0
:1050300009F44AC0281B390B24303105D8F58A8180
:105040009B816115710589F1FB0193838283FE01C8
:1050500011C0408151810281138148175907E0F046
:105060004817590799F4109761F012960C9312970C
:1050700013961C933296CF01DF91CF911F910F9120
:10508000089500937A0210937B02F4CF2115310525
:1050900051F04217530738F0A901DB019A01BD0115
:1050A000DF01F801C1CFEF01F9CF90937B0280932C
:1050B0007A02CDCFFE01E20FF31F8193919322502C
:1050C000310939832883D7CF209178023091790232
:1050D000232B41F420910301309104013093790294
:1050E00020937802209101013091020121153105B0
:1050F00041F42DB73EB74091050150910601241BA4
:10510000350BE0917802F0917902E217F307A0F4F1
:105110002E1B3F0B2817390778F0AC014E5F5F4F0D
:105120002417350748F04E0F5F1F509379024093C4
:105130007802819391939FCFF0E0E0E09CCFCF93F2
:10514000DF930097E9F0FC01329713821282A0915D
:105150007A02B0917B02ED0130E020E01097A1F4DB
:1051600020813181820F931F209178023091790242
:105170002817390709F061C0F0937902E0937802AB
:10518000DF91CF910895EA01CE17DF07E8F54A8154
:105190005B819E0141155105B1F7E901FB83EA836B
:1051A00049915991C40FD51FEC17FD0761F4808117
:1051B00091810296840F951FE901998388838281EA
:1051C00093819B838A83F0E0E0E012968D919C911D
:1051D00013970097B9F52D913C911197CD01029647
:1051E000820F931F20917802309179022817390796
:1051F00039F6309751F510927B0210927A02B093F3
:105200007902A0937802BCCFD383C28340815181BD
:10521000840F951FC817D90761F44E5F5F4F8881CF
:105220009981480F591F518340838A819B819383C1
:1052300082832115310509F0B0CFF0937B02E09312
:105240007A029ECFFD01DC01C0CF13821282D7CF3C
:10525000FB01DC0102C001900D9241505040D8F793
:105260000895DC0101C06D9341505040E0F708956E
:10527000AEE0B0E0EEE3F9E20C94F42B0D891E8968
:105280008F89988D26E02C831A83098397FF02C0AB
:1052900080E090E801979E838D83AE01455E5F4F6D
:1052A000698D7A8DCE0101960E9468294D815E81BB
:1052B00057FD0AC02F813885421753070CF49A0115
:1052C000020F131FF80110822E96E4E00C94102CAC
:1052D000ABE0B0E0EEE6F9E20C94E62B7C013B019A
:1052E0008A01FC0117821682838181FFC8C1CE0129
:1052F00001965C01F7019381F30193FD859193FF82
:1053000081913F01882309F453C1853239F493FD1B
:10531000859193FF81913F01853229F4B70190E097
:105320000E94582BE7CF912C212C312CFFE1F31553
:1053300038F08B3211F190F4803209F1833229F187
:1053400037FC3CC020ED280F2A3050F536FE20C037
:105350008AE0989E200D1124922E06C08D3291F085
:10536000803371F7689430F8F30193FD859193FFD2
:1053700081913F018111DACF21C0689431F868949E
:1053800032F8F2CF689433F8EFCF689434F8ECCF6A
:10539000EAE02E9E200D1124222E689435F8E4CFE9
:1053A0008E3229F436FC04C1689436F8DDCF8C3691
:1053B00019F4689437F8D8CF8836B1F2982F9F7DCA
:1053C00095549330E0F08336A1F18337C1F18335F2
:1053D00009F063C02801F2E04F0E511CF801C080B3
:1053E000D180692D70E036FC02C06FEF7FEFC601FF
:1053F0000E94422B4C01689437F882010AC00C5F6E
:105400001F4FFFE3F98388248394912C6501E8946E
:1054100037F833FE2DC0522C8114910471F55520BC
:1054200009F468CFB70180E290E00E94582B5A94AB
:10543000F6CFF801808189830E5F1F4FE4CF2801EA
:10544000F2E04F0E511CF801C080D180692D70E050
:1054500036FC02C06FEF7FEFC6010E944D2B4C015E
:105460008201D5CFB70180E290E00E94582B2A94A8
:105470002814190409F0B0F7CECFF60137FC859156
:1054800037FE81916F01B70190E00E94582B5110B7
:105490005A94F1E08F1A9108BFCF843619F08936FB
:1054A00009F077C0F80137FE6BC06081718182819D
:1054B00093810C5F1F4FF32DFF763F2E97FF09C09E
:1054C00090958095709561957F4F8F4F9F4F689411
:1054D00037F82AE030E0A5010E94882BC82ECA18B0
:1054E0008C2C432C36FE0CC0E89440F8C91440F4D0
:1054F00034FE05C032FC03C0F32DFE7E4F2E892CF6
:1055000044FE95C0FE01EC0DF11D8081803309F051
:1055100087C0242D297E422E842D8870582E43FC6E
:1055200095C040FE8FC09C2C821418F42C0C922C39
:10553000981844FE91C0B70180E390E00E94582B78
:1055400042FE09C088E790E041FE02C088E590E095
:10555000B7010E94582BC91408F48AC0CA94D12CF0
:105560009FEFC91AD90ACA0CDB1CF60182916F01A0
:10557000B70190E00E94582BAC14BD04B1F74FCF97
:1055800060817181072E000C880B990B0E5F1F4FF5
:1055900092CFD32CE894D4F82AE030E0853739F163
:1055A000232D297FD22E8F3601F148F48835A9F0BA
:1055B000F701868197812B96E2E10C94022C8037CB
:1055C00049F08837A9F7D4FE02C06894D2F820E1E8
:1055D00030E00DC06894D4F8F6CF34FE03C0822FBB
:1055E0008660D82E20E132E002C028E030E0F801E9
:1055F000D7FE0FC060817181828193810C5F1F4F44
:10560000A5010E94882BC82ECA183D2CE89437F8B3
:1056100067CF6081718190E080E00E5F1F4FF0CF17
:1056200042FC02C0839478CF8394839475CF842DF9
:10563000867809F471CFF6CFB70180E290E00E943E
:10564000582B83948214C0F3512C73CF522C5818CA
:10565000821408F46ECFF8CF842D867809F47BCFBE
:105660008BE241FE80E247FC8DE2B70190E071CF12
:10567000B70180E390E00E94582B9A946CCF8FEF93
:105680009FEF99CFFC010590615070400110D8F751
:10569000809590958E0F9F1F0895FC01615070407A
:1056A00001900110D8F7809590958E0F9F1F089557
:1056B0000F931F93CF93DF93182F092FEB018B814B
:1056C00081FD09C01FEF0FEF812F902FDF91CF9148
:1056D0001F910F91089582FF14C02E813F818C810C
:1056E0009D81281739073CF4E881F981CF010196A3
:1056F0009983888310838E819F8101969F838E83F7
:10570000E3CFE885F985812F0995892BA1F3DACFBD
:10571000FA01AA27283051F1203181F1E8946F93E2
:105720006E7F6E5F7F4F8F4F9F4FAF4FB1E03ED088
:10573000B4E03CD0670F781F891F9A1FA11D680F26
:10574000791F8A1F911DA11D6A0F711D811D911D59
:10575000A11D20D009F468943F912AE0269F1124CE
:105760003019305D3193DEF6CF010895462F477032
:10577000405D4193B3E00FD0C9F7F6CF462F4F708D
:10578000405D4A3318F0495D31FD4052419302D0EB
:10579000A9F7EACFB4E0A695979587957795679591
:1057A000BA95C9F700976105710508959B01AC0191
:1057B0000A2E06945795479537952795BA95C9F7B8
:1057C000620F731F841F951FA01D08952F923F9293
:1057D0004F925F926F927F928F929F92AF92BF9201
:1057E000CF92DF92EF92FF920F931F93CF93DF93AD
:1057F000CDB7DEB7CA1BDB0B0FB6F894DEBF0FBE0A
:10580000CDBF09942A88398848885F846E847D8456
:105810008C849B84AA84B984C884DF80EE80FD8058
:105820000C811B81AA81B981CE0FD11D0FB6F894CE
:10583000DEBF0FBECDBFED01089510E0C2E6D0E09F
:1058400004C0FE010E94FD272196C336D107C9F787
:04585000F894FFCFFA
:105854000700007C0220000C000B000A000900086D
:105864000000000000070F120F1205000000008363
:10587400138B1340030000000090038B0DB31E0034
:10588400000000D610EA107B050000000090038D94
:105894000DCA1E0000000090038F0D870700000052
:1058A400009003910D2915000000005201B200DFA1
:1058B400009F011001EE0002010A002000627574CD
:1058C400746F6E207072657373656400696E7465BD
:1058D4007276616C0025750068656C6C6F20776F5B
:0458E400726C64007E
:107800000C94343C0C94513C0C94513C0C94513CE1
:107810000C94513C0C94513C0C94513C0C94513CB4
:107820000C94513C0C94513C0C94513C0C94513CA4
:107830000C94513C0C94513C0C94513C0C94513C94
:107840000C94513C0C94513C0C94513C0C94513C84
:107850000C94513C0C94513C0C94513C0C94513C74
:107860000C94513C0C94513C11241FBECFEFD8E036
:10787000DEBFCDBF11E0A0E0B1E0E6ECFDE702C065
:1078800005900D92A230B107D9F722E0A2E0B1E055
:1078900001C01D92AD30B207E1F70E940A3D0C9481
:1078A000E13E0C94003C9091C00095FFFCCF80938A
:1078B000C6000895CF93982F8595859585958595D4
:1078C000805D9F709A3014F0C7E501C0C0E3C90F16
:1078D0000E94533C8C2FCF910C94533CCF92DF925B
:1078E000EF92FF92C12CD12C76018091C00087FDD0
:1078F00013C08FEFC81AD80AE80AF80A81E4C8163C
:1079000082E4D8068FE0E806F10478F3E091020102
:10791000F09103010995E9CF8091C600FF90EF90A7
:10792000DF90CF900895CF930E946E3CC82F0E94A5
:10793000533CC13614F089EA03C0C0331CF080ED1B
:107940008C0F01C08C2FCF910895CF930E94933C50
:10795000C82F0E94933C90E1C99F800D1124CF91C4
:107960000895CF93C82FCC2321F00E946E3CC150C4
:10797000FACFCF910895CF93C82F0E946E3C8032EA
:1079800051F484E10E94533C8C2F0E94533C80E1CF
:10799000CF910C94533C809104018F5F809304013C
:1079A000853031F4E0910201F0910301CF91099407
:1079B000CF9108950E946E3C803231F484E10E94A0
:1079C000533C80E10C94533C809104018F5F809381
:1079D0000401853029F4E0910201F091030109943A
:1079E00008958823B1F02D9A2FEF31EE94E02150C5
