:100000000C9462000C948A000C948A000C948A0070
:100010000C948A000C948A000C948A000C948A0038
:100020000C948A000C948A000C948A000C948A0028
:100030000C948A000C948A000C948A000C948A0018
:100040000C940D150C948A000C94DB140C94B514CC
:100050000C948A000C948A000C948A000C948A00F8
:100060000C948A000C948A000000000023002600F3
:10007000290000000008000201000003040700003E
:1000800000000000000000000000250028002B00F8
:1000900000000000240027002A00040404040404D3
:1000A0000404020202020202030303030303010227
:1000B00004081020408001020408102001020408F6
:1000C0001020361A11241FBECFEFD8E0DEBFCDBFFF
:1000D00011E0A0E0B1E0E8EDF8E302C005900D9278
:1000E000AE35B107D9F722E0AEE5B1E001C01D920F
:1000F000AA33B207E1F710E0C2E6D0E004C02197CE
:10010000FE010E94991AC136D107C9F70E949C15B9
:100110000C946A1C0C940000AF92BF92CF92DF92B5
:10012000EF92FF920F931F93CF93DF936C017B01AC
:100130008B01040F151FEB015E01AE18BF08C0173D
:10014000D10759F06991D601ED91FC910190F081B0
:10015000E02DC6010995892B79F7C501DF91CF9173
:100160001F910F91FF90EF90DF90CF90BF90AF90D5
:100170000895FC01538D448D252F30E0842F90E0AD
:10018000821B930B541710F0CF9608950197089592
:10019000FC01918D828D981761F0A28DAE0FBF2F5B
:1001A000B11D5D968C91928D9F5F9F73928F90E0B1
:1001B00008958FEF9FEF0895FC01918D828D981720
:1001C00031F0828DE80FF11D858D90E008958FEF5D
:1001D0009FEF0895FC01918D228D892F90E0805C26
:1001E0009F4F821B91098F739927089587E891E0AB
:1001F0000E94EA0021E0892B09F420E0822F089573
:1002000080E090E0892B29F00E94F60081110C9487
:1002100000000895FC01A48DA80FB92FB11DA35AA9
:10022000BF4F2C91848D90E001968F739927848F16
:10023000A689B7892C93A089B1898C918370806439
:100240008C93938D848D981306C00288F389E02DDA
:1002500080818F7D80830895EF92FF920F931F938B
:10026000CF93DF93EC0181E0888F9B8D8C8D981369
:100270001AC0E889F989808185FF15C09FB7F89475
:10028000EE89FF896083E889F989808183708064C1
:1002900080839FBF81E090E0DF91CF911F910F910C
:1002A000FF90EF900895F62E0B8D10E00F5F1F4F1B
:1002B0000F731127E02E8C8D8E110CC00FB607FC2A
:1002C000FACFE889F989808185FFF5CFCE010E94B8
:1002D0000A01F1CFEB8DEC0FFD2FF11DE35AFF4F1B
:1002E000F0829FB7F8940B8FEA89FB898081806246
:1002F000CFCFCF93DF93EC01888D8823B9F0AA8903
:10030000BB89E889F9898C9185FD03C0808186FDD0
:100310000DC00FB607FCF7CF8C9185FFF2CF80811F
:1003200085FFEDCFCE010E940A01E9CFDF91CF9189
:10033000089590E0FC01EE58FF4F2491FC01E25536
:10034000FF4F3491FC01E656FF4FE491EE23C9F0D4
:10035000222339F0233001F1A8F4213019F12230A1
:1003600029F1F0E0EE0FFF1FEA57FF4FA591B4917E
:100370008FB7F894EC91611126C030953E233C93E1
:100380008FBF08952730A9F02830C9F0243049F7ED
:10039000809180008F7D03C0809180008F77809353
:1003A0008000DFCF84B58F7784BDDBCF84B58F7DB0
:1003B000FBCF8091B0008F778093B000D2CF809137
:1003C000B0008F7DF9CF3E2BDACF3FB7F894809104
:1003D000830190918401A0918501B091860126B599
:1003E000A89B05C02F3F19F00196A11DB11D3FBF6D
:1003F000BA2FA92F982F8827BC01CD01620F711D3C
:10040000811D911D42E0660F771F881F991F4A9535
:10041000D1F70895FC01892B91F08285882379F02A
:1004200080819181A281B381892B8A2B8B2B39F01A
:1004300081E020853185232B19F080E0089581E04B
:100440000895FC01892B91F08285882379F08081C1
:100450009181A281B381892B8A2B8B2B39F081E08A
:1004600020853185232B19F080E0089581E00895DF
:10047000FC01892B91F08285882379F0808191811C
:10048000A281B381892B8A2B8B2B39F081E02085C7
:100490003185232B19F080E0089581E00895FC0157
:1004A000892B91F08285882379F080819181A281C6
:1004B000B381892B8A2B8B2B39F081E02085318504
:1004C000232B19F080E0089581E00895CF93DF9306
:1004D000FC01C085D185CE010E940A02811109C0AC
:1004E00081E0488159816A817B81452B462B472BCE
:1004F00009F480E0DF91CF910895CF92DF92EF92DF
:10050000FF920F931F93CF93DF9300D0CDB7DEB749
:100510008C017B01DC011A96CD90DC90C6010E9413
:100520002102811146C0F8018281938126E1289F32
:10053000A001299F500D1124D60118960D911C91F0
:10054000040F151FC8010E946602882311F1F801EB
:10055000C084D184C6010E940A0281112DC0D80135
:100560002D913C91220F331FF60180859185820FDA
:10057000931F9801265F3F4FA801425F5F4FDC0148
:10058000ED91FC910480F581E02DBE016F5F7F4FFE
:10059000099589819A81F701918380830F900F904B
:1005A000DF91CF911F910F91FF90EF90DF90CF904F
:1005B000089510E000E0C6CF90E080E0DACF0F931E
:1005C0001F93CF93DF938C01FC01C085D185CE01B1
:1005D0000E943802811112C0F801808191814AE0A5
:1005E000489F9001499F300D112488859985820F7D
:1005F000931FDF91CF911F910F91089590E080E0BC
:10060000F8CF0F931F93CF93DF938C01FC01C0852C
:10061000D185CE010E942102811112C0F801808192
:10062000918146E1489F9001499F300D11248885B2
:100630009985820F931FDF91CF911F910F9108959C
:1006400090E080E0F8CFDC011896ED91FC911997CD
:100650003097B1F08285882399F040815181628181
:100660007381452B462B472B59F080859185009748
:1006700049F02D913C91220F331F820F931F089553
:1006800090E080E008950F931F93CF93DF93EC01E8
:1006900008851985C8010E944F0281110CC0F8011C
:1006A0008085918528813981820F931FDF91CF91B9
:1006B0001F910F91089590E080E0F8CF0F931F9362
:1006C000CF93DF93EC01888599850E944F028111B9
:1006D00011C06C817D818E819F81088119812A8161
:1006E0003B81601B710B820B930BDF91CF911F91AC
:1006F0000F91089560E070E0CB01F7CFDC01189610
:10070000ED91FC9119973097D1F082858823B9F04B
:100710004081518162817381452B462B472B79F0B3
:1007200080859185009769F04D915C916FE0649FA1
:100730009001659F300D1124820F931F089590E062
:1007400080E00895EF92FF920F931F93CF93DF9372
:1007500000D0CDB7DEB78C010E9466028823F1F08D
:10076000D8011896ED90FC90C7010E940A028111F1
:1007700020C0F80120813181220F331FD701189644
:100780008D919C91820F931FDC01ED91FC9104806F
:10079000F581E02DBE016F5F7F4F099589819A81B8
:1007A0000F900F90DF91CF911F910F91FF90EF90DD
:1007B000089590E080E0E8CFCF93DF93EB010296BD
:1007C0000E94A20399838883DF91CF9108950E94AC
:1007D000DF02FC01808191810895CF93DF93EC01CA
:1007E0000E94DF02FC0184819581009729F4CE01EB
:1007F000DF91CF910C94E703DF91CF910895DC0155
:100800001896ED91FC9119973097D1F08285882345
:10081000B9F04081518162817381452B462B472B72
:1008200079F080859185009769F04D915C916AE03F
:10083000649F9001659F300D1124820F931F0895CE
:1008400090E080E00895DC011896ED91FC911997F5
:100850003097D1F082858823B9F04081518162813F
:100860007381452B462B472B79F080859185009726
:1008700069F04D915C9166E0649F9001659F300D39
:100880001124820F931F089590E080E008958F92C5
:100890009F92AF92BF92CF92DF92EF92FF920F930F
:1008A0001F93CF93DF938C014A015B010E945E038B
:1008B0006B017C01C8010E944303EC018C149D0470
:1008C000AE04BF0480F4C80DD91DCE01DF91CF91D5
:1008D0001F910F91FF90EF90DF90CF90BF90AF905E
:1008E0009F908F900895F801808591850E944F0216
:1008F0008111EBCFC114D104E104F10431F3C5013E
:10090000B401A70196010E94771AC60FD71FDDCF49
:10091000CF93DF93EC01888599850E94380281117D
:100920000DC0CE010E94DF0221E0FC01868197818B
:10093000A085B185892B8A2B8B2B09F020E0822F93
:10094000DF91CF9108950F931F93CF93DF93EC0125
:100950000E948804811121C0CE010E94DF028C0117
:10096000DC011296ED91FC91309791F4CE010E943A
:10097000E703F80193838283CE010E94DF02DC014A
:1009800012968D919C91DF91CF911F910F910895B7
:1009900082819381009769F7E9CF90E080E0F3CFFF
:1009A0000F931F93CF93DF93EC010E948804811172
:1009B0001AC0CE010E94DF028C01FC01828193816A
:1009C000892B31F4CE010E94E703F80193838283DF
:1009D000CE010E94DF02FC0182819381DF91CF91E1
:1009E0001F910F91089590E080E0F8CF2F923F92F1
:1009F0004F925F926F927F928F929F92AF92BF922F
:100A0000CF92DF92EF92FF920F931F93CF93DF93DA
:100A1000CDB7DEB72C970FB6F894DEBF0FBECDBFB3
:100A200080916E01811117C00E94E5017B018C014C
:100A300060936601F09267018093680110936901E9
:100A400010926A0110926B0110926C0110926D016C
:100A500081E080936E010E94E5017B018C01698336
:100A6000FA828B831C83709066018090670190905E
:100A70006801F0906901FC8600916A010B87B091D2
:100A80006B01F0916C01E0916D0120905E0130905E
:100A90005F01409060015090610160906201A091FF
:100AA0006301109164011987209165012A87272D20
:100AB000382D492D5F2D602F7B2F8F2F9E2FAE2C31
:100AC000BA80CB80DC80E12CF12C00E010E00E94A9
:100AD0001C1B09F008F466C09101A201662D7A2F53
:100AE00089859A85AFEF0E94071BA72CB82CC92CCB
:100AF000DC84EB84FB2E0F2F1E2F0E94131BA9807A
:100B0000BA80CB80DC80E12CF12C00E010E00E9468
:100B1000FE1A20935E0130935F0140936001509371
:100B2000610160936201709363018093640190930B
:100B30006501A0926601B0926701C0926801D092EF
:100B4000690110926A0110926B0110926C0110926F
:100B50006D0120915E0130915F01409160015091E3
:100B600061016091620170916301809164019091D3
:100B700065012C960FB6F894DEBF0FBECDBFDF9196
:100B8000CF911F910F91FF90EF90DF90CF90BF908A
:100B9000AF909F908F907F906F905F904F903F901D
:100BA0002F9008959101A201662D7A2F89859A854B
:100BB000A72CB82CC92CDC84EB84FB2E0F2F1E2F06
:100BC0000E94131BA980BA80CB80DC80E12CF12C21
:100BD00000E010E00E94FE1A20935E0130935F0156
:100BE00040936001509361016093620170936301CF
:100BF0008093640190936501A0926601B0926701B1
:100C0000C0926801D09269019CCF2F923F924F927F
:100C10005F926F927F928F929F92AF92BF92CF928C
:100C2000DF92EF92FF920F931F93CF93DF93CDB795
:100C3000DEB72A970FB6F894DEBF0FBECDBF3C01DA
:100C40002B011A014901FA01D080E180F280038171
:100C50001481B581C680B7802D2D3E2D4F2D502F8C
:100C6000612F7B2F8C2D9B2DA0E00E94251B29F14D
:100C7000A0E30E94251B09F476C0F40110821182C2
:100C800012821382F1011082118212821382148265
:100C900015821682178210927701109278011092B5
:100CA000790110927A0110927C0110927B0188E008
:100CB000809376018FEF9FEFA8C01092770110927A
:100CC00078011092790110927A0110927C011092B1
:100CD0007B0181E080937601E0907D010E2C000C79
:100CE000FF08FFEFEF1AFF0AA7010F2C000C660B9D
:100CF000770B83010E5F1F4FC8010E94470460E01D
:100D0000FC0180810E949901C70166E070E00E94A9
:100D1000631A80937D01AC014F5F5F4F052E000C7D
:100D2000660B770BC8010E94470461E0FC018081DB
:100D30000E9499010E94F604A8EEAA2EB3E0BB2EF1
:100D4000C12CD12CE12CF12C00E010E00E94A11A62
:100D5000DA01C9018C599F4FAF4FBF4FF401808317
:100D60009183A283B3830E94F604F401A080B18032
:100D7000C280D38076016701E12CF12C8701A98222
:100D8000BA82CB82DC82ED82FE820F831887E8EE86
:100D9000AE2EF3E0BF2EC12CD12CE12CF12C00E0C3
:100DA00010E00E94A11A59016A017B018C0129817E
:100DB0003A814B815C8160E070E080E090E00E94CD
:100DC0001C1B09F008F488CF80E3F10180831182B5
:100DD00012821382148215821682178280E390E0B9
:100DE00090937C0180937B0184E690E0A0E0B0E0EA
:100DF0008093770190937801A0937901B0937A0161
:100E000084E08093760181E090E0F2019183808319
:100E10002A960FB6F894DEBF0FBECDBFDF91CF91FB
:100E20001F910F91FF90EF90DF90CF90BF90AF9008
:100E30009F908F907F906F905F904F903F902F90FA
:100E40000895CF93DF93D82FC8E06D2F617084E0B1
:100E50000E949901D69561E082E00E94990160E0CC
:100E600082E00E949901C15081F7DF91CF910895EE
:100E7000CF93DF93D82FC62F60E083E00E949901C3
:100E800081E08C27EFEFED0FE93048F50E2E000CD6
:100E9000FF0BE35BF84F0C94991A56075F07610745
:100EA00063076507670769076B076D0780660E9420
:100EB000210761E083E0DF91CF910C9499018A6D65
:100EC000F6CF826FF4CF8666F2CF866BF0CF8E6B53
:100ED000EECF806EECCF8E6FEACF866FE8CF8C6F4F
:100EE000E6CF7F928F929F92AF92BF92CF92DF9286
:100EF000EF92FF920F931F93CF93DF938C017B01AF
:100F0000EA015901788089809A80CB80DC80BD819C
:100F1000FE81EF81272D382D492D5C2D6D2D7B2FE6
:100F20008F2F9E2FA0E00E94251B29F0ADE40E9488
:100F3000251B09F04BC0C80102960E942303FC0147
:100F40008081918168E270E00E94631A862F60E0E0
:100F50000E943807C8010C960E942303FC0180817F
:100F6000918164E670E00E94631A862F61E00E941E
:100F700038078DE4888319821A821B821C821D82A5
:100F80001E821F82109277011092780110927901CF
:100F900010927A018DE490E090937C0180937B0124
:100FA00082E08093760181E090E0F7019183808375
:100FB000DF91CF911F910F91FF90EF90DF90CF9035
:100FC000BF90AF909F908F907F900895F501108211
:100FD000118212821382188219821A821B821C8249
:100FE0001D821E821F82109277011092780110924A
:100FF000790110927A0110927C0110927B0188E0B5
:10100000809376018FEF9FEFD0CF0F931F93CF93F5
:10101000DF93DB012D913C91232B41F58B01EC01FA
:101020008CE090E00E94451BFC018CE0DF011D92EA
:101030008A95E9F7D801ED93FC93188219821A82F8
:101040001B821C821D821E821F8281E090E0A0E034
:10105000B0E080839183A283B38385E0828781E0BF
:1010600090E0DF91CF911F910F9108958FEF9FEF47
:10107000F8CF0F931F93CF93DF93DB012D913C911A
:10108000232B41F58B01EC018CE090E00E94451B85
:10109000FC018CE0DF011D928A95E9F7D801ED9300
:1010A000FC93188219821A821B821C821D821E8266
:1010B0001F8281E090E0A0E0B0E080839183A28372
:1010C000B38385E0828781E090E0DF91CF911F912B
:1010D0000F9108958FEF9FEFF8CF0F931F93CF934A
:1010E000DF93DB012D913C91232B41F58B01EC012A
:1010F0008CE090E00E94451BFC018CE0DF011D921A
:101100008A95E9F7D801ED93FC93188219821A8227
:101110001B821C821D821E821F8281E090E0A0E063
:10112000B0E080839183A283B38385E0828781E0EE
:1011300090E0DF91CF911F910F9108958FEF9FEF76
:10114000F8CF0F931F93CF93DF93DB012D913C9149
:10115000232B41F58B01EC018CE090E00E94451BB4
:10116000FC018CE0DF011D928A95E9F7D801ED932F
:10117000FC93188219821A821B821C821D821E8295
:101180001F8281E090E0A0E0B0E080839183A283A1
:10119000B38385E0828781E090E0DF91CF911F915A
:1011A0000F9108958FEF9FEFF8CF8F929F92AF929C
:1011B000BF92CF92DF92EF92FF920F931F93CF9344
:1011C000DF93DB01ED91FC91EF2B09F04DC0812CF9
:1011D000912C54018394211531054105510511F0DD
:1011E00049015A0169017A018B01EC018CE090E020
:1011F0000E94451BFC018CE0DF011D928A95E9F7F6
:10120000D801ED93FC93188219821A821B82CC823A
:10121000DD82EE82FF8281E090E0A0E0B0E080839A
:101220009183A283B383C482D582E682F78284E06D
:10123000828785E08A9489288A288B2829F4CF011F
:101240000B969187808786E0828781E090E0DF912E
:10125000CF911F910F91FF90EF90DF90CF90BF90B3
:10126000AF909F908F9008958FEF9FEFF0CF0F93E7
:101270001F93CF93DF93DC01ED91FC913097E9F15F
:10128000408151816281738141155105610571056C
:10129000A1F18C01DB01CA010197A109B109808389
:1012A0009183A283B3834130510561057105D9F45F
:1012B000F801C081D181209789F0888599850097B0
:1012C00069F02A85222351F020FD0E94E11B1A8635
:1012D00019861886188219821A821B82D8018D916C
:1012E0009C910E94E11BF8011182108281E090E044
:1012F000DF91CF911F910F9108958FEF9FEFF8CF5E
:101300000F931F93CF93DF93DC01ED91FC91309706
:10131000E9F1408151816281738141155105610577
:101320007105A1F18C01DB01CA010197A109B10985
:1013300080839183A283B383413051056105710598
:10134000D9F4F801C081D181209789F088859985E9
:10135000009769F02A85222351F020FD0E94E11BAD
:101360001A8619861886188219821A821B82D80159
:101370008D919C910E94E11BF8011182108281E005
:1013800090E0DF91CF911F910F9108958FEF9FEF24
:10139000F8CF0F931F93CF93DF93EC01188219823C
:1013A0001A821B821C821D821E821F821986188649
:1013B00008966115710531F4DF91CF911F910F915E
:1013C0000C9480098B01BC01CE010E943908019662
:1013D00071F0E885F98582858D7F8287E885F985BA
:1013E000828581608287E885F98511870087DF9192
:1013F000CF911F910F910895CF93DF93EC0188E572
:1014000091E099838883CE0144960E948009CE01A1
:101410000A96DF91CF910C9480090F931F93CF937D
:10142000DF93EC018B01188219821A821B821C82C5
:101430001D821E821F821986188608960E948009C6
:10144000D8011896ED91FC913097E1F082858823C0
:10145000C9F080819181A281B381892B8A2B8B2B4A
:1014600089F080859185892B69F0F987E8878081EB
:101470009181A281B3810196A11DB11D80839183C9
:10148000A283B383F80180819181A281B381888393
:101490009983AA83BB8384819581A681B7818C833C
:1014A0009D83AE83BF83DF91CF911F910F910895EC
:1014B0000F931F93CF93DF93DC01ED91FC91309755
:1014C000E9F14081518162817381411551056105C6
:1014D0007105A1F18C01DB01CA010197A109B109D4
:1014E00080839183A283B3834130510561057105E7
:1014F000D9F4F801C081D181209789F08885998538
:10150000009769F02A85222351F020FD0E94E11BFB
:101510001A8619861886188219821A821B82D801A7
:101520008D919C910E94E11BF8011182108281E053
:1015300090E0DF91CF911F910F9108958FEF9FEF72
:10154000F8CF0F931F93CF93DF93DC01ED91FC91C4
:101550003097E9F1408151816281738141155105D4
:1015600061057105A1F18C01DB01CA010197A10997
:10157000B10980839183A283B38341305105610512
:101580007105D9F4F801C081D181209789F088854F
:101590009985009769F02A85222351F020FD0E9449
:1015A000E11B1A8619861886188219821A821B82F4
:1015B000D8018D919C910E94E11BF801118210824B
:1015C00081E090E0DF91CF911F910F9108958FEF0F
:1015D0009FEFF8CF24E431E0FC01318320830A96A9
:1015E0000C94A10ACF93DF93EC010E94EA0ACE018A
:1015F000DF91CF910C94E11BCF92DF92EF92FF929B
:101600000F931F93CF93DF93DB01ED91FC91EF2BB1
:1016100051F4DF91CF911F910F91FF90EF90DF90E8
:10162000CF900C94D50869017A01EB018C01CB01B4
:101630000E94A10A019669F4198218828FEF9FEF28
:10164000DF91CF911F910F91FF90EF90DF90CF909E
:101650000895A7019601BE01C8010E94D508019610
:1016600059F381E090E0ECCFEF92FF920F931F933C
:10167000CF93DF93EC017B01188219821A821B82BF
:101680001C821D821E821F821986188608960E945F
:10169000A10AF70100851185C8010E944F0281113E
:1016A0000EC019870887F80180819181A281B381DA
:1016B0000196A11DB11D80839183A283B383F7019D
:1016C00080819181A281B38188839983AA83BB831E
:1016D00084819581A681B7818C839D83AE83BF83EE
:1016E000DF91CF911F910F91FF90EF900895CF93CD
:1016F000DF93EC0186960E94A10ACE014C960E94CF
:101700008009CE0142960E948009CE010896DF91A1
:10171000CF910C94A10A2EE431E0FC012193319386
:10172000CF010C94770BCF93DF93EC010E948B0BCE
:10173000CE01DF91CF910C94E11BCF93DF93EC01AD
:101740000E94FC09CE01DF91CF910C94E11BEF9236
:10175000FF920F931F93CF93DF93DB01ED91FC91E9
:10176000309709F46DC080819181A281B381009787
:10177000A105B10509F464C08B01AC01BD01415064
:101780005109610971094083518362837383019711
:10179000A105B10509F040C0F801C081D1812097B1
:1017A000B1F188859985009791F12A85222379F1F5
:1017B00020FF26C04C815D816E817F81452B462BA9
:1017C000472BB1F1FC01329720813181220F331F69
:1017D000820F931F7C01F2E0EF1AF108288539850A
:1017E0002817390751F0D701ED91FC910190F08154
:1017F000E02DC7010995C701EDCFC7010E94E11B8C
:101800001A8619861886188219821A821B82F80194
:10181000808191810E94E11BD8011D921C9281E080
:1018200090E0DF91CF911F910F91FF90EF9008957D
:10183000DC01ED91FC910280F381E02D0995E0CF70
:101840008FEF9FEFEECFEF92FF920F931F93CF9307
:10185000DF934115510549F48FEF9FEFDF91CF9151
:101860001F910F91FF90EF9008957A01EB018C0189
:1018700088819981892BB1F4C8010E9405080196DD
:1018800059F3E881F98182858D7F8287E881F9812A
:10189000828581608287E881F981F186E08681E036
:1018A00090E0DCCFC8010E94A70B019619F41982C1
:1018B0001882D2CFBE01C8010E940508019609F71F
:1018C000F6CFBC012EE131E0FC0121933193CF0131
:1018D000665F7F4F0C94A70BCF93DF93EC010E94C0
:1018E000610CCE01DF91CF910C94E11BEF92FF923E
:1018F0000F931F93CF93DF93EC017B01BC01685FD3
:101900007F4F0E94A70BF70100851185C8010E9437
:101910000A0281110EC019870887F8018081918120
:10192000A281B3810196A11DB11D80839183A28301
:10193000B383F70180819181A281B38188839983E8
:10194000AA83BB8384819581A681B7818C839D8383
:10195000AE83BF83DF91CF911F910F91FF90EF90E6
:1019600008950F931F93CF93DF93EC018B0118829F
:1019700019821A821B821C821D821E821F82198676
:1019800018860E94760C1A861B861C861D861E866B
:101990001F86188A198A1B8A1A8ACE0142960E94CB
:1019A000580AD8015296ED91FC913097E1F082856A
:1019B0008823C9F080819181A281B381892B8A2BF0
:1019C0008B2B89F080859185892B69F0FB8BEA8BC5
:1019D00080819181A281B3810196A11DB11D808377
:1019E0009183A283B383F80182859385A485B5850D
:1019F0008A879B87AC87BD8786859785A089B189B3
:101A00008E879F87A88BB98BDF91CF911F910F9104
:101A10000895CF93DF93EC0142960E94580ABE01CD
:101A2000685F7F4FCE01DF91CF910C94A70BEF92AF
:101A3000FF920F931F93CF93DF93DB01ED91FC9106
:101A4000309709F46DC080819181A281B3810097A4
:101A5000A105B10509F464C08B01AC01BD01415081
:101A6000510961097109408351836283738301972E
:101A7000A105B10509F040C0F801C081D1812097CE
:101A8000B1F188859985009791F12A85222379F112
:101A900020FF26C04C815D816E817F81452B462BC6
:101AA000472BB1F1FC01329720813181220F331F86
:101AB000820F931F7C01F2E0EF1AF1082885398527
:101AC0002817390751F0D701ED91FC910190F08171
:101AD000E02DC7010995C701EDCFC7010E94E11BA9
:101AE0001A8619861886188219821A821B82F801B2
:101AF000808191810E94E11BD8011D921C9281E09E
:101B000090E0DF91CF911F910F91FF90EF9008959A
:101B1000DC01ED91FC910280F381E02D0995E0CF8D
:101B20008FEF9FEFEECFEF92FF920F931F93CF9324
:101B3000DF93EC018B01BC01685F7F4F0E94170DA2
:101B4000F801E084F184C7010E940A02811105C0F6
:101B5000F986E886F80111861086F8018081918166
:101B6000A281B38188839983AA83BB838481958171
:101B7000A681B7818C839D83AE83BF83DF91CF9194
:101B80001F910F91FF90EF9008950F931F93CF93A4
:101B9000DF938B01FC011082118212821382148266
:101BA00015821682178211861086BC01685F7F4FEE
:101BB0000115110531F4DF91CF911F910F910C9414
:101BC000170DEC010E940508019671F0E885F98572
:101BD00082858D7F8287E885F9858285816082870D
:101BE000E885F98511870087DF91CF911F910F91CB
:101BF0000895EF92FF920F931F93CF93DF93DB0132
:101C0000ED91FC91309709F470C080819181A2819F
:101C1000B3810097A105B10509F467C08B01AC0140
:101C2000BD014150510961097109408351836283AB
:101C300073830197A105B10509F043C0F801C08184
:101C4000D1812097C9F1E884F984E114F104A1F16C
:101C50008A85882389F180FF28C08C819D81AE818F
:101C6000BF81892B8A2B8B2BC1F1F7013297208101
:101C7000318146E1429FC001439F900D11248E0D9A
:101C80009F1D288539857C01F6E1EF1AF108281798
:101C9000390741F0BC016E507109C7010E94170D50
:101CA000C701EFCF02970E94E11B1A86198618869A
:101CB000188219821A821B82D8018D919C910E94F0
:101CC000E11BF8011182108281E090E0DF91CF9159
:101CD0001F910F91FF90EF900895B701685F7F4FBC
:101CE000C7010E94170DC701DECF8FEF9FEFEECF28
:101CF000BC01685F7F4F0C94F90D28E231E0FC01D4
:101D000021933193CF010C94780ECF93DF93EC01A4
:101D10000E947D0ECE01DF91CF910C94E11BEF92DA
:101D2000FF920F931F93CF93DF93EC017B010E94EF
:101D3000780EF70100851185C8010E9421028111EA
:101D40000EC019870887F80180819181A281B38133
:101D50000196A11DB11D80839183A283B383F701F6
:101D600080819181A281B38188839983AA83BB8377
:101D700084819581A681B7818C839D83AE83BF8347
:101D8000DF91CF911F910F91FF90EF9008950F93E6
:101D90001F93CF93DF938B01FC011082118212827B
:101DA0001382148215821682178211861086BC0156
:101DB000685F7F4F0115110531F4DF91CF911F91BD
:101DC0000F910C94F90DEC010E940508019671F039
:101DD000E885F98582858D7F8287E885F98582850A
:101DE00081608287E885F98511870087DF91CF912F
:101DF0001F910F910895AF92BF92CF92DF92EF9211
:101E0000FF920F931F93CF93DF938C01EB010E94FE
:101E10008804811168C0C8010E94DF025C0120971C
:101E200009F05BC0C8010E94ED03EC01EA80FB8071
:101E3000CC80DD80E114F10419F4F501D582C4826F
:101E4000C8010E94DF02CD2819F4FC01F182E08272
:101E5000C8010E94DF02FC01828193818C179D07DB
:101E600019F4C8010E94A304EC81FD81309721F090
:101E70008A819B8193838283AA81BB81109721F001
:101E80001596FC93EE93149719821882C8010E944C
:101E9000DF02FC01468157816085718541505109FF
:101EA0006109710946835783608771871B821A8293
:101EB0001D821C822097B9F0CE0106960E94090D62
:101EC000CE01DF91CF911F910F91FF90EF90DF90A6
:101ED000CF90BF90AF900C94E11B88819981A81698
:101EE000B90609F4A3CFDF91CF911F910F91FF9015
:101EF000EF90DF90CF90BF90AF900895EF92FF9258
:101F00000F931F93CF93DF93EC01E884F984C7010B
:101F10000E9438028E01085F1F4F811109C0F7012E
:101F200080819181A281B3810297A105B10558F406
:101F3000CE010E948804811106C070E060E0CE01ED
:101F40000E94FB0EF5CFC801DF91CF911F910F9139
:101F5000FF90EF900C943709CF92DF92EF92FF92AF
:101F60000F931F93CF93DF93DB01ED91FC9130979B
:101F700009F46BC080819181A281B3810097A10592
:101F8000B10509F462C08B01AC01BD01415051099A
:101F90006109710940835183628373830197A105AD
:101FA000B10509F03FC0F801C081D1812097A9F1A6
:101FB000C884D984C114D10481F18A85882369F148
:101FC00080FF24C08C819D81AE81BF81892B8A2BAB
:101FD0008B2BB1F1F6013297808191812AE0289F05
:101FE0007001299FF00C1124EC0CFD1C97018885D1
:101FF0009985FAE0EF1AF1088217930721F0C701DB
:102000000E947E0FF3CF02970E94E11B1A86198669
:102010001886188219821A821B82D8018D919C9190
:102020000E94E11BF8011182108281E090E0DF91B3
:10203000CF911F910F91FF90EF90DF90CF90089577
:10204000C6010E947E0FC601DFCF8FEF9FEFEFCF5B
:10205000EF92FF920F931F93CF93DF93DB01ED91EC
:10206000FC91309709F470C080819181A281B38185
:102070000097A105B10509F467C08B01AC01BD0152
:10208000415051096109710940835183628373830F
:102090000197A105B10509F04BC0F801C081D181BC
:1020A000209709F440C0E884F984E114F104D9F1DF
:1020B0008A858823C1F180FF2FC08C819D81AE81EC
:1020C000BF81892B8A2B8B2BE9F0F7013297808116
:1020D00091814FE0489F9001499F300D11242E0DB2
:1020E0003F1D488559857901FFE0EF1AF108C901C4
:1020F00002974217530771F0BC0108970E94AC0F7A
:102100009701EFCFB701635F7F4FC70105960E942C
:10211000AC0FC7010E94E11B1A8619861886188227
:1021200019821A821B82D8018D919C910E94E11B19
:10213000F8011182108281E090E0DF91CF911F9130
:102140000F91FF90EF9008958FEF9FEFF6CFCF9212
:10215000DF92EF92FF920F931F93CF93DF938FE065
:1021600090E00E94451BEC018FE0DE011D928A95F4
:10217000E9F76E01B5E0CB0ED11C8AE090E00E9439
:10218000451B8C018AE090E00E94451B7C018AE09F
:10219000F70111928A95E9F7D8011D921D921D92BF
:1021A0001C921397F80114821582168217821186E9
:1021B0001086C8010896E114F104D1F50E94370990
:1021C0001D821E821F82188619861A861B861C860F
:1021D0001E861D86BE01635F7F4FC6010115110576
:1021E00009F041C00E94AC0F10922C0210922D02F7
:1021F00010922E0210922F02109230021092310291
:102200001092320210923302109235021092340270
:1022100064E372E08CE292E02097C9F5DF91CF9100
:102220001F910F91FF90EF90DF90CF900C942810AA
:10223000BC01C8010E946D08019611F2D8011896E0
:10224000ED91FC91199782858D7F82871896ED918B
:10225000FC9119978285816082871896ED91FC9197
:10226000F186E086ADCF0E940508019609F4BCCF47
:10227000ED85FE8582858D7F8287ED85FE85828551
:1022800081608287ED85FE8511870087ADCF0E9432
:102290000508019651F0E0913402F09135028285F3
:1022A0008D7F81608287D187C087DF91CF911F9119
:1022B0000F91FF90EF90DF90CF90089564E372E06C
:1022C0008CE292E00C9428107F928F929F92AF92B2
:1022D000BF92CF92DF92EF92FF920F931F93CF9313
:1022E000DF937C016B01EA015901788089809A8033
:1022F0000B811C81BD81FE81EF81272D382D492D59
:10230000502F612F7B2F8F2F9E2FAAE30E94251B1A
:1023100009F442C0A0E40E94251B29F0A0E00E941D
:10232000251B09F0B0C040E050E0BA01C701029699
:102330000E94470461E0FC0180810E9499018AE3C8
:10234000888319821A821B821C821D821E821F8230
:1023500010927701109278011092790110927A010F
:102360008AE390E090937C0180937B0182E08093EC
:10237000760181E090E0F60191838083DF91CF9137
:102380001F910F91FF90EF90DF90CF90BF90AF9093
:102390009F908F907F90089540E050E0BA01C70170
:1023A00002960E94470460E0FC0180810E9499012E
:1023B000E9EBF0E06491E5EAF0E0E491F0E0EE0FA3
:1023C000FF1FE859FF4F8591949100E412E42FE03C
:1023D00030E0462F0E9457154B015C018114910497
:1023E000A104B10439F0FFEF8F1A9F0AAF0ABF0AA8
:1023F0008FE0B822C7010C960E9423038C01C5010F
:10240000B4012AE330E040E050E00E94771AF8017E
:102410003183208341E050E060E070E0C7018096A6
:102420000E944704FC011081C70146960E942303C5
:10243000FC011E3008F01E501770106410937C00D1
:1024400090917A00906490937A0080917A0086FD52
:10245000FCCF80917800909179009183808380E413
:10246000888319821A821B821C821D821E821F820F
:1024700010927701109278011092790110927A01EE
:1024800080E490E06FCFF5011082118212821382F6
:10249000188219821A821B821C821D821E821F8250
:1024A00010927701109278011092790110927A01BE
:1024B00010927C0110927B0188E0809376018FEF6F
:1024C0009FEF59CF8F929F92AF92BF92CF92DF92A0
:1024D000EF92FF920F931F93CF93DF93CDB7DEB7A9
:1024E000C055D1090FB6F894DEBF0FBECDBF8C0129
:1024F0007B0180912402811105C00E94A71081E018
:10250000809324022B961CAE1DAE1EAE1FAE2B97E1
:102510002F961CAE1DAE1EAE1FAE2F9761961FAE3E
:102520001EAE6197B701CE01895B9F4F0E948F0E4F
:102530008CE292E00E947E035C0121961CAE1DAEEF
:102540001EAE1FAE219725961CAE1DAE1EAE1FAE51
:10255000259727961FAE1EAE2797BE01695B7F4F5A
:10256000CE01CD960E948F0ED8011D921D921D9214
:102570001C921397F8011482158216821782118615
:102580001086B801685F7F4FC8010E94A1080196BC
:10259000C9F0D8011896ED90FC901997F701828543
:1025A00081FF76C1C7010B96918780871896ED91C0
:1025B000FC910084F185E02D118210821382128239
:1025C000158214828CE090E00E94451B7C0188E219
:1025D00091E0F70191838083128213821482158225
:1025E000168217821086118613861286BE01635CDE
:1025F0007F4FC70102960E948F0E1BAA1CAA1DAA1C
:102600001EAA1FAA18AE19AE1AAE1CAE1BAEE1145C
:10261000F10409F04EC1BE01655C7F4FCE01C39647
:102620000E94A70BF5E0AF0EB11CC5010E94FF038D
:102630007C0119A61AA61BA61CA61DA61EA61FA6CF
:1026400018AA1AAA19AABE016D5C7F4FCE018996FD
:102650000E94760C8CE090E00E94451B6C018EE19C
:1026600091E0D60111969C938E93F601128213820B
:102670001482158216961D921D921D921C92199716
:102680001B961C921E921A97BE01675D7F4FC60172
:1026900002960E94760C1D8A1E8A1F8A188E198E39
:1026A0001A8E1B8E1C8E1E8E1D8EC114D10409F035
:1026B00009C1BE01635E7F4FCE0145960E94A70B04
:1026C0001F8E18A219A21AA21BA21CA21DA21EA232
:1026D00018A61FA2CE0187960E94580AD801189604
:1026E000ED91FC913097E1F082858823C9F08081DB
:1026F0009181A281B381892B8A2B8B2B89F08085D4
:102700009185892B69F0F8A7EFA380819181A2813F
:10271000B3810196A11DB11D80839183A283B383F0
:10272000F80180819181A281B3818F8F98A3A9A3A1
:10273000BAA384819581A681B7818BA39CA3ADA305
:10274000BEA3C7010E948804BE016B5E7F4F882331
:1027500009F4C1C0CE0101960E94B10C8AE190E05B
:102760000E94451B6C01DC0111961C921E9213966F
:102770001C921E92129715961C921E921497BE01DF
:102780006F5F7F4F06960E94B10CC7010E94DF0267
:10279000FC01D182C082CE0101960E94090DC701C1
:1027A0000E94DF02DC01ED91FC9191838083C701DF
:1027B0000E94DF026C01C7010E94E703F6019583C6
:1027C0008483C7010E94DF02DC0116964D915D9162
:1027D0006D917C9119974F5F5F4F6F4F7F4FFC0159
:1027E0004683578360877187CE0145960E94090D05
:1027F000BE016F5C7F4FCE0189960E94A70BC50179
:102800000E94FF036C01C8010E9423047C01C601E1
:102810000E94ED03D70113969C938E931297C801E3
:102820000E94230421E030E0FC0131832083C801B1
:102830000E9423047C01C5010E94FF03D701159665
:102840009C938E931497BE01655C7F4FCE01C39617
:102850000E94A70BCE01CD960E94780ECE01895B17
:102860009F4F0E94780EC801C05BDF4F0FB6F894EF
:10287000DEBF0FBECDBFDF91CF911F910F91FF90B3
:10288000EF90DF90CF90BF90AF909F908F90089582
:1028900086E090E00E94451BFC01118210821382A9
:1028A000128215821482D70119969C938E931897E1
:1028B00089CEA701BE01655C7F4FCE01C3960E9401
:1028C000230CB0CEA601BE01635E7F4FCE014596BC
:1028D0000E94230CF5CECE0101960E94B10C8AE134
:1028E00090E00E94451B6C01DC0111961C921E9227
:1028F00013961C921E92129715961C921E92149774
:10290000BE016F5F7F4F06960E94B10CCE0101960B
:102910000E94090DC7010E94DF02F60191838083A6
:10292000C7010E94ED034C01DC0114968D919C912E
:10293000892B31F4C7010E94DF02FC019182808261
:10294000D60112968D919C91892B31F4C7010E947A
:10295000DF02FC01D582C482D60115969C928E922C
:102960001497F401D382C2822CCF1F920F920FB61C
:102970000F9211242F933F934F935F936F937F9305
:102980008F939F93AF93BF93EF93FF9387E891E06B
:102990000E940A01FF91EF91BF91AF919F918F919A
:1029A0007F916F915F914F913F912F910F900FBE4B
:1029B0000F901F9018951F920F920FB60F9211242F
:1029C0002F938F939F93EF93FF93E0919701F09153
:1029D00098018081E0919D01F0919E0182FD1BC0D4
:1029E00090818091A0018F5F8F732091A101821748
:1029F00041F0E091A001F0E0E957FE4F958F809300
:102A0000A001FF91EF919F918F912F910F900FBE99
:102A10000F901F9018958081F4CF1F920F920FB6E0
:102A20000F9211242F933F938F939F93AF93BF9354
:102A300080917F0190918001A0918101B0918201EC
:102A400030917E0123E0230F2D3758F50196A11D0B
:102A5000B11D20937E0180937F0190938001A0930C
:102A60008101B09382018091830190918401A091B2
:102A70008501B09186010196A11DB11D809383014E
:102A800090938401A0938501B0938601BF91AF918B
:102A90009F918F913F912F910F900FBE0F901F909C
:102AA000189526E8230F0296A11DB11DD2CFCF9213
:102AB000DF92EF92FF920F931F93E82FF92F05C03B
:102AC000015011092109310961F190819623941770
:102AD000B9F305C0015011092109310911F19081A3
:102AE00096239413F7CFC12CD12CE12CF12C0AC0E2
:102AF0008FEFC81AD80AE80AF80A0C151D052E052A
:102B00003F0579F080818623841791F36C2D7D2D0C
:102B10008E2D9F2D1F910F91FF90EF90DF90CF9002
:102B2000089560E070E080E090E01F910F91FF90C9
:102B3000EF90DF90CF900895CF93DF93CDB7DEB7BE
:102B4000C456D1090FB6F894DEBF0FBECDBF78943E
:102B500084B5826084BD84B5816084BD85B58260A2
:102B600085BD85B5816085BD80916E008160809353
:102B70006E001092810080918100826080938100BC
:102B800080918100816080938100809180008160CC
:102B9000809380008091B10084608093B100809127
:102BA000B00081608093B00080917A00846080934F
:102BB0007A0080917A00826080937A0080917A0016
:102BC000816080937A0080917A00806880937A0097
:102BD0001092C100E0919701F091980182E080830A
:102BE000E0919301F09194011082E0919501F091B0
:102BF00096018FEC808310929F01E0919B01F091F0
:102C00009C0186E08083E0919901F0919A01808196
:102C100080618083E0919901F0919A0180818860C0
:102C20008083E0919901F0919A018081806880838E
:102C3000E0919901F0919A0180818F7D808382E0FB
:102C400090E00E94451BDC011D921C92BC01CE014C
:102C5000855A9F4F0E94C90982E090E00E94451B5F
:102C6000FC0111821082BC01CE018F5A9F4F0E943D
:102C7000C9092B961CAE1DAE1EAE1FAE2B972F960C
:102C80001CAE1DAE1EAE1FAE2F9761961FAE1EAEC0
:102C9000619767E470E06C0F7D1F685F7F4F2BE0EA
:102CA00030E040E050E0CE01895B9F4F0E94FC0A7B
:102CB000019681F061960EAD1FAD6197D8011A960D
:102CC0008C911A9781FFACC0C8010B9619969C9302
:102CD0008E93189761960EAD1FAD6197C8010E9443
:102CE0004F02811112C0CE01895B9F4F0E945E038B
:102CF000672B682B692B09F09BC0CE01895B9F4F26
:102D00000E94430325E1DC012C9384E1E6E0F1E03D
:102D1000DE01119601900D928A95E1F721961CAE85
:102D20001DAE1EAE1FAE219725961CAE1DAE1EAE6B
:102D30001FAE259727961FAE1EAE27976DE370E056
:102D40006C0F7D1F685F7F4F2AE030E040E050E06D
:102D5000CE01CD960E94FC0A019661F027960EAD39
:102D60001FAD2797F801828581FF79C0C8010B96B6
:102D700091878087CE01CD960E944303FE01319654
:102D80009C01265F3F4F40813296DC014D93CD017F
:102D9000A217B307C1F7CE01895B9F4F0E9443037F
:102DA0007C0161960EAD1FAD6197C8010E944F0274
:102DB00030E020E0811109C0F801208531852D9691
:102DC0008EAD9FAD2D97280F391FD7012A173B07CE
:102DD00009F44FC08D9190E0FC01E255FF4F449102
:102DE00086569F4FFC018491882381F390E0880FE1
:102DF000991FFC01E057FF4F65917491FC01EA5760
:102E0000FF4F059114919FB7F894FB018081409585
:102E100084238083F8018081842380839FBFD6CF61
:102E20008BE090E00E94451BF8019187808752CF8C
:102E3000F801008511852D968EAD9FAD2D97080F59
:102E4000191FCE01895B9F4F0E94430325E1801724
:102E5000910709F45ACFDC012D93CD01F8CF8AE018
:102E600090E00E94451BD80119969C938E93189769
:102E700081CFCE01CD960E9443037C0127960EADF3
:102E80001FAD2797C8010E944F0230E020E081115A
:102E90000AC0D80118962D913C9123968EAD9FAD16
:102EA0002397280F391FD7012A173B0709F18D9166
:102EB00090E0FC01E255FF4F649186569F4FFC0164
:102EC0008491882389F390E0880F991FFC01E057D3
:102ED000FF4F45915491FC01EA57FF4F8591949122
:102EE0008FB7F894FA019081962B90838FBFDCCF37
:102EF000BE01635C7F4FCE01C3960E94340B86E116
:102F000090E00E94451B8C0136E1F32EDC01EF2D91
:102F10001D92EA95E9F770E060E00E94C50DD801C6
:102F20001A961D921D921D921C921D971E961C9220
:102F30001E971F961C921F9750961C925097519661
:102F40001C92519752961C92529753961C925397EB
:102F500054961C92549755961C92B801CE018996AE
:102F60000E94C70E8CE090E00E94451B8C0124E477
:102F700031E0FC0121933193CF01BE016D5C7F4FA5
:102F80000E94340BB801CE0101960E94C50DCE01FE
:102F900089960E940103BE016F5F7F4F0E94930DCF
:102FA000BE01675F7F4FCE0101960E94170DBE01E3
:102FB000675D7F4FCE0101960E946212CE01099695
:102FC0000E94580ACE0189960E94780ECE01CB96B7
:102FD0000E94A10ABE01635C7F4FCE0101960E9450
:102FE000340BBE016F5A7F4FCE010B960E940D0A23
:102FF000BE01655A7F4FCE0145960E940D0ABE0163
:10300000695B7F4FCE014F960E94340B86E190E0C2
:103010000E94451B8C01DC01EF2D1D92EA95E9F71A
:1030200070E060E00E94C50DD8011A961D921D92B5
:103030001D921C921D971E961C921E971F961C9205
:103040001F9750961C92509751961C9251975296EA
:103050001C92529753961C92539754961C925497D5
:1030600055961C92B801CE01C3960E94C70E8AE203
:1030700090E00E94451B8C012EE431E0FC0121937D
:103080003193CF01BE016F5F7F4F0E94340BBE01B1
:10309000655F7F4FC8010C960E940D0ABE016B5EF2
:1030A0007F4FC80146960E940D0ABE01615E7F4FA8
:1030B000C80180960E94340BB801CE0189960E9407
:1030C000C50DCE01C3960E940103BE01675D7F4F0F
:1030D0000E94930DBE016F5C7F4FCE0189960E94C6
:1030E000170DBE016D5C7F4FCE0189960E94621262
:1030F000CE01C1960E94580ACE01C3960E94780E56
:10310000CE0101960E94770BBE016F5A7F4FCE0110
:1031100001960E940D0ABE01655A7F4FCE010B96A3
:103120000E940D0A86E190E00E94451B8C01DC01A3
:103130001D92FA94E9F770E060E00E94C50DF80175
:10314000128613861486158616861786108A118AAB
:10315000128A138A148A158AB801CE01C3960E9476
:10316000C70E86E190E00E94451B8C0128E531E006
:10317000DC012D933D93CD01BE016F5F7F4F0E9417
:103180000D0ABE01655F7F4FC8010C960E940D0AB3
:10319000B801CE0189960E94C50DCE01C3960E944A
:1031A0000103BE01675D7F4F0E94930DBE016F5CFE
:1031B0007F4FCE0189960E94170DBE016D5C7F4F37
:1031C000CE0189960E946212CE01C1960E94580AD1
:1031D000CE01C3960E94780ECE0143960E948009CC
:1031E000CE0109960E9480098DE390E08C0F9D1F0F
:1031F00008960E94A10A87E490E08C0F9D1F089614
:103200000E94A10A81E590E08C0F9D1F08960E9404
:1032100080098BE590E08C0F9D1F08960E94800925
:1032200044244A94542C320154E0252E312C8091B0
:103230002402811105C00E94A710B1E0B0932402BE
:103240008CE292E00E947E038C010B5F1F4FC8014D
:103250000E94FF037C010E94880481112CC0C701D9
:103260000E94D004892B39F1C8010E94FF030E94FB
:10327000D0045C01C8010E94FF030E94D004FC013D
:103280008281938188248394912C892B19F488243A
:103290008A94982C6501F0E1CF0ED11CC6010E94E2
:1032A0002304DC012D913C9121FF7CC0C8010E94C8
:1032B000FF030E94A3048CE292E00E947E03FC01C3
:1032C0009081906490838CE292E00E947E03DC0106
:1032D00011964D915D916D917C911497452B462BE4
:1032E000472B29F0FC0111821282138214828CE296
:1032F00092E00E947E038C0105960E94FF037C01F0
:103300000E94880481110CC0C7010E94DF02FC01E9
:1033100086819781A085B185892B8A2B8B2BD1F44F
:10332000E0913402F09135023097A1F08285882334
:1033300089F080819181A281B3810097A105B105B7
:1033400049F020853185232B29F00297A105B1058D
:1033500008F071C0D8011196CD90DD90ED90FC90F1
:1033600014970E94E5014B015C01C114D104E104F2
:10337000F10409F467C00E94E501681979098A0916
:103380009B09683E73408105910578F3B1E0CB1A43
:10339000D108E108F108E8EE8E0EE3E09E1EA11CC4
:1033A000B11CE3CF22FF13C0C8010E94FF03B50187
:1033B0000E94FB0EE0E0F0E0EF2B09F438CF0E9412
:1033C000F600882309F433CF0E94000030CF22603A
:1033D000FC0131832083C6010E9423047C01C501C6
:1033E00006960E94A2035C01C8010E94FF030E948E
:1033F0008804811118C0C6010E942304E816F9064A
:1034000091F4FFEFAF16BF0691F0AB2861F0D70142
:103410008D919C9111978D7F8D939C93C8010E94F3
:10342000FF030E94A3048A94892821F244CFF70164
:1034300031822082F8CF88EEC82E83E0D82EE12C8E
:10344000F12C8FCF8CE292E00E947E03DC0111967A
:103450004D925D926D927C9214978CE292E00E9464
:103460007E03FC0190819F7B9083A4CFE7E8F1E08D
:103470001382128288EE93E0A0E0B0E0848395830B
:10348000A683B78382E391E09183808385EC90E00B
:103490009587848784EC90E09787868780EC90E01E
:1034A000918B808B81EC90E0938B828B82EC90E00F
:1034B000958B848B86EC90E0978B868B118E128E89
:1034C000138E148E089597FB072E16F4009407D0E0
:1034D00077FD09D00E94311B07FC05D03EF4909582
:1034E00081959F4F0895709561957F4F0895A1E252
:1034F0001A2EAA1BBB1BFD010DC0AA1FBB1FEE1F6E
:10350000FF1FA217B307E407F50720F0A21BB30BB8
:10351000E40BF50B661F771F881F991F1A9469F734
:1035200060957095809590959B01AC01BD01CF0190
:103530000895EE0FFF1F0590F491E02D0994689413
:1035400001C0E8948F929F92CF93DF930E94AD1AAF
:10355000DF91CF919F908F90089588249924F40152
:10356000E401B0E49F93AA279A158B049C04ED050F
:10357000FE05CF05D007A10798F4AD2FDC2FCF2F84
:10358000FE2FE92D982C892E982F872F762F652FC7
:10359000542F432F322F2227B85031F7BF9127C025
:1035A0001B2EBF91BB27220F331F441F551F661FC1
:1035B000771F881F991F881C991CEE1FFF1FCC1FA7
:1035C000DD1FAA1FBB1F8A149B04EC05FD05CE0559
:1035D000DF05A007B10748F08A189B08EC09FD0930
:1035E000CE09DF09A00BB10B21601A94E1F62EF48D
:1035F0009401AF01BE01CD01000C08952A0D3B1DC1
:103600004C1D5D1D6E1D7F1D801F911F08950024A0
:10361000A7FD00942A0F301D401D501D601D701D18
:10362000801D901D08952A193B094C095D096E09FA
:103630007F09800B910B08952A153B054C055D050C
:103640006E057F058007910708950024A7FD00946B
:103650002A17300540055005600570058005900566
:103660000895AA1BBB1B51E107C0AA1FBB1FA617C9
:10367000B70710F0A61BB70B881F991F5A95A9F71B
:1036800080959095BC01CD0108950F931F93CF9322
:10369000DF938230910510F482E090E0E0913802EF
:1036A000F091390230E020E0B0E0A0E0309799F4EA
:1036B0002115310509F44AC0281B390B2430310586
:1036C000D8F58A819B816115710589F1FB0193838E
:1036D0008283FE0111C0408151810281138148170C
:1036E0005907E0F04817590799F4109761F01296BE
:1036F0000C93129713961C933296CF01DF91CF91C2
:103700001F910F9108950093380210933902F4CF5E
:103710002115310551F04217530738F0A901DB019B
:103720009A01BD01DF01F801C1CFEF01F9CF9093FC
:10373000390280933802CDCFFE01E20FF31F81934F
:1037400091932250310939832883D7CF20913602B3
:1037500030913702232B41F4209102013091030173
:1037600030933702209336022091000130910101FD
:103770002115310541F42DB73EB740910401509118
:103780000501241B350BE0913602F0913702E21758
:10379000F307A0F42E1B3F0B2817390778F0AC0174
:1037A0004E5F5F4F2417350748F04E0F5F1F509351
:1037B000370240933602819391939FCFF0E0E0E08F
:1037C0009CCFCF93DF930097E9F0FC0132971382EF
:1037D0001282A0913802B0913902ED0130E020E070
:1037E0001097A1F420813181820F931F209136021E
:1037F000309137022817390709F061C0F09337027A
:10380000E0933602DF91CF910895EA01CE17DF07EA
:10381000E8F54A815B819E0141155105B1F7E90147
:10382000FB83EA8349915991C40FD51FEC17FD071B
:1038300061F4808191810296840F951FE90199833B
:103840008883828193819B838A83F0E0E0E01296F3
:103850008D919C9113970097B9F52D913C911197FB
:10386000CD010296820F931F2091360230913702CC
:103870002817390739F6309751F51092390210920E
:103880003802B0933702A0933602BCCFD383C283F1
:1038900040815181840F951FC817D90761F44E5F8D
:1038A0005F4F88819981480F591F518340838A81D6
:1038B0009B81938382832115310509F0B0CFF0936A
:1038C0003902E09338029ECFFD01DC01C0CF1382A4
:0838D0001282D7CFF894FFCF5C
:1038D80000003A0220000C000A0009000800070056
:1038E8000600050004000300020000000000610C4F
:1038F8006C0CDC03000000007D0E850E7D020000CC
:1039080000002C018C00B9007901EA00C800DC0035
:1039180000000000EA0AF20A0506000000008B0B0E
:0E392800930B641100000000FC099D0B710759
:107800000C94343C0C94513C0C94513C0C94513CE1
:107810000C94513C0C94513C0C94513C0C94513CB4
:107820000C94513C0C94513C0C94513C0C94513CA4
:107830000C94513C0C94513C0C94513C0C94513C94
:107840000C94513C0C94513C0C94513C0C94513C84
:107850000C94513C0C94513C0C94513C0C94513C74
:107860000C94513C0C94513C11241FBECFEFD8E036
:10787000DEBFCDBF11E0A0E0B1E0E6ECFDE702C065
:1078800005900D92A230B107D9F722E0A2E0B1E055
:1078900001C01D92AD30B207E1F70E940A3D0C9481
:1078A000E13E0C94003C9091C00095FFFCCF80938A
:1078B000C6000895CF93982F8595859585958595D4
:1078C000805D9F709A3014F0C7E501C0C0E3C90F16
:1078D0000E94533C8C2FCF910C94533CCF92DF925B
:1078E000EF92FF92C12CD12C76018091C00087FDD0
:1078F00013C08FEFC81AD80AE80AF80A81E4C8163C
:1079000082E4D8068FE0E806F10478F3E091020102
:10791000F09103010995E9CF8091C600FF90EF90A7
:10792000DF90CF900895CF930E946E3CC82F0E94A5
:10793000533CC13614F089EA03C0C0331CF080ED1B
:107940008C0F01C08C2FCF910895CF930E94933C50
:10795000C82F0E94933C90E1C99F800D1124CF91C4
:107960000895CF93C82FCC2321F00E946E3CC150C4
:10797000FACFCF910895CF93C82F0E946E3C8032EA
:1079800051F484E10E94533C8C2F0E94533C80E1CF
:10799000CF910C94533C809104018F5F809304013C
:1079A000853031F4E0910201F0910301CF91099407
:1079B000CF9108950E946E3C803231F484E10E94A0
:1079C000533C80E10C94533C809104018F5F809381
:1079D0000401853029F4E0910201F091030109943A
:1079E00008958823B1F02D9A2FEF31EE94E02150C5
:1079F00030409040E1F700C000002D982FEF31EEAD
:107A000094E0215030409040E1F700C000008150E8
:107A1000E8CF08950000E0E0F0E0E49180E1809399
:107A2000C4001092C50088E18093C10086E0809375
:107A3000C2005098589A259A81E00E94F13CFF2498
:107A4000F3940E946E3C803309F442C08133E1F428
:107A50000E946E3C803209F0A6C184E10E94533C32
:107A600081E40E94533C86E50E94533C82E50E94DB
:107A7000533C80E20E94533C89E40E94533C83E5DE
:107A80000E94533C80E586C1803439F40E946E3CEC
:107A90008638F0F00E946E3C1BC08134A1F40E9435
:107AA0006E3C803811F482E003C0813821F481E01B
:107AB0000E94BB3CC6CF823811F480E1F9CF8839EF
:107AC000C9F583E0F5CF823431F484E10E94B13C02
:107AD0000E94DA3CB6CF853411F485E0F7CF982FB9
:107AE0009D7F9035A9F3813599F3853549F40E943E
:107AF0006E3C809306010E946E3C80930701E8CFA4
:107B00008635D1F40E946E3C803389F40E946E3C2D
:107B10000E946E3C182F0E946E3C111102C08EE133
:107B2000C7CF113011F485E9C3CF8FE0C1CF83E017
:107B30000E94B13C80E0BCCF843609F0C6C00E94F0
:107B40006E3C809309020E946E3C809308028091F3
:107B50000C028E7F80930C020E946E3C853429F4C7
:107B600080910C02816080930C0208E011E020916A
:107B7000080230910902C80188509140821793078A
:107B800030F40E946E3CF80181938F01F0CF0E9487
:107B90006E3C803209F007C180910C0220910601F1
:107BA0003091070180FF29C0220F331F3093070156
:107BB00020930601E8E0F1E02091080230910902EB
:107BC000CF01885091408217930708F07CC0F99943
:107BD000FECF809106019091070192BD81BD8191F8
:107BE00080BDFA9AF99A8091060190910701019659
:107BF0009093070180930601DFCF80910701880FE2
:107C0000880B8F2180930B02220F331F30930701C3
:107C1000209306018091080280FF09C0809108022C
:107C20009091090201969093090280930802F894BA
:107C3000F999FECF1127E0910601F0910701C8E004
:107C4000D1E08091080290910902103091F40091E6
:107C5000570001700130D9F303E000935700E89515
:107C60000091570001700130D9F301E100935700F2
:107C7000E895099019900091570001700130D9F3EF
:107C800001E000935700E8951395103498F0112700
:107C90000091570001700130D9F305E000935700BF
:107CA000E8950091570001700130D9F301E100938C
:107CB0005700E8953296029709F0C7CF103011F0BF
:107CC0000296E5CF112484E165C0843709F052C0E3
:107CD0000E946E3C809309020E946E3C80930802D1
:107CE0008091060190910701880F991F90930701D9
:107CF000809306010E946E3C90910C02853411F431
:107D0000916001C09E7F90930C020E946E3C803275
:107D100009F097CE84E10E94533C00E010E080918E
:107D200008029091090208171907B0F580910C021A
:107D300080FF0BC0F999FECF809106019091070159
:107D400092BD81BDF89A80B507C081FD07C0E09162
:107D50000601F091070184910E94533C8091060135
:107D600090910701019690930701809306010F5FA0
:107D70001F4FD5CF8537A1F40E946E3C803299F415
:107D800084E10E94533C8EE10E94533C85E90E94AD
:107D9000533C8FE00E94533C80E10E94533C51CE03
:107DA000863709F4C7CE809104018F5F8093040168
:107DB000853009F046CEE0910201F091030109956A
:067DC00040CEF894FFCF55
:027DC60080003B
:040000030000780081
:00000001FF
