:100000000C9461000C947E000C947E000C947E0095
:100010000C947E000C947E000C947E000C947E0068
:100020000C947E000C947E000C947E000C947E0058
:100030000C947E000C947E000C947E000C947E0048
:100040000C94FD140C947E000C947E000C947E00A5
:100050000C947E000C947E000C947E000C947E0028
:100060000C947E000C947E0000000000230026000B
:10007000290000000008000201000003040700003E
:1000800000000000000000000000250028002B00F8
:1000900000000000240027002A00040404040404D3
:1000A0000404020202020202030303030303010227
:1000B00004081020408001020408102001020408F6
:1000C000102011241FBECFEFD8E0DEBFCDBF11E05E
:1000D000A0E0B1E0EAE0FBE302C005900D92AC3392
:1000E000B107D9F721E0ACE3B1E001C01D92AA3716
:1000F000B207E1F70E9447150C94831D0C94000091
:10010000833081F028F4813099F08230A9F008958D
:100110008730A9F08830C9F08430B1F48091800034
:100120008F7D03C0809180008F7780938000089539
:1001300084B58F7784BD089584B58F7DFBCF809182
:10014000B0008F778093B00008958091B0008F7DCC
:10015000F9CF1F93CF93DF93282F30E0F901EE58AA
:10016000FF4F8491F901E255FF4FD491F901E65612
:10017000FF4FC491CC23A9F0162F81110E9480005B
:10018000EC2FF0E0EE0FFF1FEA57FF4FA591B4915F
:100190008FB7F894EC91111108C0D095DE23DC9351
:1001A0008FBFDF91CF911F910895DE2BF8CF1F9362
:1001B000CF93DF93182FC62FD8E06C2F111113C0E7
:1001C00061708BE00E94A900C69561E089E00E9401
:1001D000A90060E089E00E94A900D15071F7DF9189
:1001E000CF911F910895661F6627661F8BE00E94BE
:1001F000A900CC0FEACF21E0622701978930910551
:1002000010F5FC01EA5FFE4F0C94D8180F011301A2
:100210001501170119011B011D011F012101606654
:1002200080E00C94D7006A6DFBCF626FF9CF6666F1
:10023000F7CF666BF5CF6E6BF3CF606EF1CF6E6F5D
:10024000EFCF666FEDCF6C6FEBCF64E080FF60E0C7
:1002500081FD616082FD626083FF04C0686081E0AF
:100260000C94D7006061FBCF3FB7F8948091600198
:1002700090916101A0916201B091630126B5A89BA4
:1002800005C02F3F19F00196A11DB11D3FBFBA2F28
:10029000A92F982F8827BC01CD01620F711D811DE8
:1002A000911D42E0660F771F881F991F4A95D1F76D
:1002B0000895FC01892B91F08285882379F0808153
:1002C0009181A281B381892B8A2B8B2B39F081E01C
:1002D00020853185232B19F080E0089581E0089571
:1002E000FC01892B91F08285882379F080819181AE
:1002F000A281B381892B8A2B8B2B39F081E0208559
:100300003185232B19F080E0089581E00895FC01E8
:10031000892B91F08285882379F080819181A28157
:10032000B381892B8A2B8B2B39F081E02085318595
:10033000232B19F080E0089581E00895FC01892BBA
:1003400091F08285882379F080819181A281B381A7
:10035000892B8A2B8B2B39F081E020853185232B4B
:1003600019F080E0089581E00895CF93DF93FC01B8
:10037000C085D185CE010E945901811109C081E05B
:10038000488159816A817B81452B462B472B09F493
:1003900080E0DF91CF910895CF92DF92EF92FF92AC
:1003A0000F931F93CF93DF9300D0CDB7DEB78C01AF
:1003B0007B01DC011A96CD90DC90C6010E94700191
:1003C000811146C0F8018281938126E1289FA00116
:1003D000299F500D1124D60118960D911C91040FE0
:1003E000151FC8010E94B501882311F1F801C084CE
:1003F000D184C6010E94590181112DC0D8012D91CF
:100400003C91220F331FF60180859185820F931F47
:100410009801265F3F4FA801425F5F4FDC01ED91DD
:10042000FC910480F581E02DBE016F5F7F4F09953F
:1004300089819A81F701918380830F900F90DF91DA
:10044000CF911F910F91FF90EF90DF90CF90089583
:1004500010E000E0C6CF90E080E0DACF0F931F936A
:10046000CF93DF938C01FC01C085D185CE010E9422
:100470008701811112C0F801808191814AE0489F73
:100480009001499F300D112488859985820F931F13
:10049000DF91CF911F910F91089590E080E0F8CF08
:1004A0000F931F93CF93DF938C01FC01C085D185FF
:1004B000CE010E947001811112C0F80180819181EA
:1004C00046E1489F9001499F300D11248885998508
:1004D000820F931FDF91CF911F910F91089590E0AC
:1004E00080E0F8CFDC011896ED91FC9119973097D8
:1004F000D1F082858823B9F0408151816281738176
:10050000452B462B472B79F080859185009769F024
:100510004D915C916FE0649F9001659F300D1124B7
:10052000820F931F089590E080E00895EF92FF926C
:100530000F931F93CF93DF9300D0CDB7DEB78C011D
:100540000E94B5018823F1F0D8011896ED90FC9037
:10055000C7010E945901811120C0F8012081318119
:10056000220F331FD70118968D919C91820F931FF4
:10057000DC01ED91FC910480F581E02DBE016F5FFF
:100580007F4F099589819A810F900F90DF91CF91CC
:100590001F910F91FF90EF90089590E080E0E8CFD9
:1005A000CF93DF93EB0102960E9496029983888392
:1005B000DF91CF9108950E942E02FC0180819181EC
:1005C0000895CF93DF93EC010E942E02FC018481F9
:1005D0009581009729F4CE01DF91CF910C94DB0235
:1005E000DF91CF910895DC011896ED91FC91199758
:1005F0003097D1F082858823B9F0408151816281A2
:100600007381452B462B472B79F080859185009788
:1006100069F04D915C916AE0649F9001659F300D97
:100620001124820F931F089590E080E00895DC016B
:100630001896ED91FC9119973097D1F08285882317
:10064000B9F04081518162817381452B462B472B44
:1006500079F080859185009769F04D915C9166E015
:10066000649F9001659F300D1124820F931F0895A0
:1006700090E080E008950F931F93CF93DF93EC01F8
:1006800008851985C8010E949E0181110CC0F801DE
:100690008085918528813981820F931FDF91CF91C9
:1006A0001F910F91089590E080E0F8CF7F928F9294
:1006B0009F92AF92BF92CF92DF92EF92FF920F93F1
:1006C0001F93CF93DF937C016B01EA01590178807E
:1006D00089809A800B811C81BD81FE81EF81272D4D
:1006E000382D492D502F612F7B2F8F2F9E2FABE55B
:1006F0000E946419C1F0A0E60E946419A1F0A0E074
:100700000E94641909F081C010925501109256019F
:10071000109257011092580110925A0110925901EB
:1007200081E08093540187010E5F1F4FC8010E9432
:100730003B03FC01808180FD2DC08BE588831982FD
:100740001A821B821C821D821E821F8210925501FA
:100750001092560110925701109258018BE590E0CB
:1007600090935A018093590182E08093540181E073
:1007700090E0F60191838083DF91CF911F910F91DB
:10078000FF90EF90DF90CF90BF90AF909F908F90B1
:100790007F900895EEE7F0E08491EAEBF0E0B4900A
:1007A000E6EAF0E0A490AA20E1F081110E94800026
:1007B000EA2DF0E0EE0FFF1FE859FF4FA591B4912D
:1007C000EC91BE2271F0C7010C960E943B032CE312
:1007D000FC012083C8010E943B03FC0190819160D1
:1007E000908380E6888319821A821B821C821D8274
:1007F0001E821F82109255011092560110925701CD
:100800001092580180E690E0ABCFF5011082118282
:1008100012821382188219821A821B821C821D8204
:100820001E821F821092550110925601109257019C
:100830001092580110925A011092590188E0809349
:1008400054018FEF9FEF95CFCF93DF93EC01888515
:1008500099850E94870181110DC0CE010E942E0250
:1008600021E0FC0186819781A085B185892B8A2BA7
:100870008B2B09F020E0822FDF91CF9108950F9309
:100880001F93CF93DF93EC010E942404811121C0B8
:10089000CE010E942E028C01DC011296ED91FC919A
:1008A000309791F4CE010E94DB02F801938382839A
:1008B000CE010E942E02DC0112968D919C91DF9157
:1008C000CF911F910F91089582819381009769F7CD
:1008D000E9CF90E080E0F3CF0F931F93CF93DF93A6
:1008E000EC010E94240481111AC0CE010E942E0244
:1008F0008C01FC0182819381892B31F4CE010E940D
:10090000DB02F80193838283CE010E942E02FC0158
:1009100082819381DF91CF911F910F91089590E093
:1009200080E0F8CF0F931F93CF93DF93EC0188857E
:1009300099850E949E01811111C06C817D818E81FB
:100940009F81088119812A813B81601B710B820B79
:10095000930BDF91CF911F910F91089560E070E0AC
:10096000CB01F7CF8F929F92AF92BF92CF92DF923F
:10097000EF92FF92CF93DF93EC016A017B010E941B
:1009800092044B015C01CE010E943B03C814D904C0
:10099000EA04FB0410F48C0D9D1DDF91CF91FF90B4
:1009A000EF90DF90CF90BF90AF909F908F90089581
:1009B0002F923F924F925F926F927F928F929F926F
:1009C000AF92BF92CF92DF92EF92FF920F931F935D
:1009D000CF93DF93CDB7DEB72C970FB6F894DEBF79
:1009E0000FBECDBF80914C01811117C00E94340110
:1009F0007B018C0160934401F09245018093460194
:100A000010934701109248011092490110924A0137
:100A100010924B0181E080934C010E9434017B01D4
:100A20008C016983FA828B831C83709044018090CF
:100A3000450190904601F0904701FC8600914801E5
:100A40000B87B0914901F0914A01E0914B01209050
:100A50003C0130903D0140903E0150903F0160903C
:100A60004001A09141011091420119872091430159
:100A70002A87272D382D492D5F2D602F7B2F8F2F13
:100A80009E2FAE2CBA80CB80DC80E12CF12C00E0D4
:100A900010E00E945B1909F008F466C09101A20100
:100AA000662D7A2F89859A85AFEF0E944619A72C6B
:100AB000B82CC92CDC84EB84FB2E0F2F1E2F0E9438
:100AC0005219A980BA80CB80DC80E12CF12C00E0A7
:100AD00010E00E943D1920933C0130933D0140936A
:100AE0003E0150933F016093400170934101809318
:100AF000420190934301A0924401B0924501C092FB
:100B00004601D0924701109248011092490110927B
:100B10004A0110924B0120913C0130913D014091DE
:100B20003E0150913F0160914001709141018091DF
:100B30004201909143012C960FB6F894DEBF0FBE90
:100B4000CDBFDF91CF911F910F91FF90EF90DF907C
:100B5000CF90BF90AF909F908F907F906F905F905D
:100B60004F903F902F9008959101A201662D7A2F0A
:100B700089859A85A72CB82CC92CDC84EB84FB2EA4
:100B80000F2F1E2F0E945219A980BA80CB80DC80C3
:100B9000E12CF12C00E010E00E943D1920933C0173
:100BA00030933D0140933E0150933F0160934001DB
:100BB000709341018093420190934301A0924401BC
:100BC000B0924501C0924601D09247019CCF2F922E
:100BD0003F924F925F926F927F928F929F92AF92CD
:100BE000BF92CF92DF92EF92FF920F931F93CF931A
:100BF000DF93CDB7DEB72A970FB6F894DEBF0FBEEE
:100C0000CDBF3C012B011A014901FA01D080E180DE
:100C1000F28003811481B581C680B7802D2D3E2DD1
:100C20004F2D502F612F7B2F8C2D9B2DA0E00E94EC
:100C3000641929F1A2E50E94641909F46FC0F40156
:100C40001082118212821382F101108211821282AB
:100C50001382148215821682178210925501109207
:100C60005601109257011092580110925A01109299
:100C7000590188E0809354018FEF9FEFA1C010923B
:100C8000550110925601109257011092580110927E
:100C90005A011092590181E0809354017301F2E0EE
:100CA000EF0EF11CC7010E943B038C01FC01808107
:100CB000811114C06301FCE0CF0ED11CC6010E945B
:100CC0003B03FC01808180FF97C08EE1F8018083A7
:100CD000C6010E943B0322E0FC012083C7010E9461
:100CE0003B03FC019081915090830E94D804A8EEB0
:100CF000AA2EB3E0BB2EC12CD12CE12CF12C00E0AC
:100D000010E00E94E018DA01C90188519C4FAF4FF2
:100D1000BF4FF40180839183A283B3830E94D804E0
:100D2000F401A080B180C280D38076016701E12CFC
:100D3000F12C8701A982BA82CB82DC82ED82FE820D
:100D40000F831887E8EEAE2EF3E0BF2EC12CD12C16
:100D5000E12CF12C00E010E00E94E01859016A013A
:100D60007B018C0129813A814B815C8160E070E0DC
:100D700080E090E00E945B1909F008F48FCF82E5D3
:100D8000F1018083118212821382148215821682ED
:100D9000178282E590E090935A018093590188EE82
:100DA00093E0A0E0B0E08093550190935601A093AA
:100DB0005701B093580184E08093540181E090E0A2
:100DC000F201918380832A960FB6F894DEBF0FBE9E
:100DD000CDBFDF91CF911F910F91FF90EF90DF90EA
:100DE000CF90BF90AF909F908F907F906F905F90CB
:100DF0004F903F902F90089581FF08C08AE0F8013E
:100E00008083C6010E943B0324E066CF82FF66CF49
:100E10008CE3F8018083C6010E943B0321E0FC01C2
:100E20002083C6010E943B03FC019081986090835F
:100E300055CF0E949204623071058105910528F01A
:100E40006150710981099109089560E070E0CB015A
:100E500008950F931F93CF93DF93DB012D913C9166
:100E6000232B41F58B01EC018CE090E00E9470197E
:100E7000FC018CE0DF011D928A95E9F7D801ED9322
:100E8000FC93188219821A821B821C821D821E8288
:100E90001F8281E090E0A0E0B0E080839183A28394
:100EA000B38385E0828781E090E0DF91CF911F914D
:100EB0000F9108958FEF9FEFF8CF0F931F93CF936C
:100EC000DF93DB012D913C91232B41F58B01EC014C
:100ED0008CE090E00E947019FC018CE0DF011D9213
:100EE0008A95E9F7D801ED93FC93188219821A824A
:100EF0001B821C821D821E821F8281E090E0A0E086
:100F0000B0E080839183A283B38385E0828781E010
:100F100090E0DF91CF911F910F9108958FEF9FEF98
:100F2000F8CF0F931F93CF93DF93DB012D913C916B
:100F3000232B41F58B01EC018CE090E00E947019AD
:100F4000FC018CE0DF011D928A95E9F7D801ED9351
:100F5000FC93188219821A821B821C821D821E82B7
:100F60001F8281E090E0A0E0B0E080839183A283C3
:100F7000B38385E0828781E090E0DF91CF911F917C
:100F80000F9108958FEF9FEFF8CF8F929F92AF92BE
:100F9000BF92CF92DF92EF92FF920F931F93CF9366
:100FA000DF93DB01ED91FC91EF2B09F04EC0812C1A
:100FB000912C54018394211531054105510511F0FF
:100FC00049015A0169017A018B01EC018CE090E042
:100FD0000E947019FC018CE0DF011D928A95E9F7EF
:100FE000D801ED93FC93188219821A821B82CC825D
:100FF000DD82EE82FF8281E090E0A0E0B0E08083BD
:101000009183A283B383C482D582E682F78284E08F
:10101000828785E0B2E08B169104A104B10428F424
:10102000CF010B969187808786E0828781E090E0F0
:10103000DF91CF911F910F91FF90EF90DF90CF90B4
:10104000BF90AF909F908F9008958FEF9FEFF0CF5C
:101050000F931F93CF93DF93DC01ED91FC913097B9
:10106000E9F140815181628173814115510561052A
:101070007105A1F18C01DB01CA010197A109B10938
:1010800080839183A283B38341305105610571054B
:10109000D9F4F801C081D181209789F0888599859C
:1010A000009769F02A85222351F020FD0E940C1A36
:1010B0001A8619861886188219821A821B82D8010C
:1010C0008D919C910E940C1AF8011182108281E08E
:1010D00090E0DF91CF911F910F9108958FEF9FEFD7
:1010E000F8CF0F931F93CF93DF93DC01ED91FC9129
:1010F0003097E9F140815181628173814115510539
:1011000061057105A1F18C01DB01CA010197A109FB
:10111000B10980839183A283B38341305105610576
:101120007105D9F4F801C081D181209789F08885B3
:101130009985009769F02A85222351F020FD0E94AD
:101140000C1A1A8619861886188219821A821B822E
:10115000D8018D919C910E940C1AF8011182108285
:1011600081E090E0DF91CF911F910F9108958FEF73
:101170009FEFF8CF0F931F93CF93DF93DC01ED9197
:10118000FC913097E9F14081518162817381411571
:10119000510561057105A1F18C01DB01CA010197BF
:1011A000A109B10980839183A283B38341305105A2
:1011B00061057105D9F4F801C081D181209789F0CA
:1011C00088859985009769F02A85222351F020FDB2
:1011D0000E940C1A1A8619861886188219821A8299
:1011E0001B82D8018D919C910E940C1AF8011182EA
:1011F000108281E090E0DF91CF911F910F910895CF
:101200008FEF9FEFF8CFCF92DF92EF92FF920F9385
:101210001F93CF93DF93DB01ED91FC91EF2B51F402
:10122000DF91CF911F910F91FF90EF90DF90CF90C2
:101230000C94C50769017A01EB018C01CB010E9476
:10124000BA08019669F4198218828FEF9FEFDF9137
:10125000CF911F910F91FF90EF90DF90CF90089565
:10126000A7019601BE01C8010E94C507019659F366
:1012700081E090E0ECCFCF92DF92EF92FF92CF939C
:10128000DF93EB0169010E9403098F3F980761F02A
:101290000990D881C02D8A8581FF0DC0CE010B96A3
:1012A0009987888781E090E0DF91CF91FF90EF9060
:1012B000DF90CF900895C6010E947019F1CF0F936F
:1012C0001F93CF93DF93EC018B01188219821A824E
:1012D0001B821C821D821E821F8219861886BC01F9
:1012E000685F7F4F22E030E040E050E00E943B0921
:1012F000CE010E943B03F8012081FC012083F8010C
:101300002181FC012183DF91CF911F910F910895DD
:10131000EF92FF920F931F93CF93DF93EC017B012A
:10132000188219821A821B821C821D821E821F82D1
:101330001986188608960E94BA08F701008511855B
:10134000C8010E949E0181110EC019870887F8010B
:1013500080819181A281B3810196A11DB11D8083FD
:101360009183A283B383F70180819181A281B381AC
:1013700088839983AA83BB8384819581A681B78161
:101380008C839D83AE83BF83DF91CF911F910F919B
:10139000FF90EF900895CF93DF93EC0142960E9467
:1013A000BA08CE010896DF91CF910C94BA0822E3D7
:1013B00031E0FC0121933193CF010C94CB092EE154
:1013C00031E0FC0121933193CF010C94CB0928E249
:1013D00031E0FC0121933193CF010C94CB09CF93E1
:1013E000DF93EC010E94DF09CE01DF91CF910C94D5
:1013F0000C1ACF93DF93EC010E94E709CE01DF9135
:10140000CF910C940C1ACF93DF93EC010E94D70973
:10141000CE01DF91CF910C940C1AEF92FF920F93B3
:101420001F93CF93DF93DB01ED91FC91309709F48B
:101430006DC080819181A281B3810097A105B10522
:1014400009F464C08B01AC01BD014150510961092F
:10145000710940835183628373830197A105B105AC
:1014600009F040C0F801C081D1812097B1F1888591
:101470009985009791F12A85222379F120FF26C0D2
:101480004C815D816E817F81452B462B472BB1F1CD
:10149000FC01329720813181220F331F820F931F6D
:1014A0007C01F2E0EF1AF108288539852817390701
:1014B00051F0D701ED91FC910190F081E02DC70131
:1014C0000995C701EDCFC7010E940C1A1A8619862B
:1014D0001886188219821A821B82F80180819181F4
:1014E0000E940C1AD8011D921C9281E090E0DF91BD
:1014F000CF911F910F91FF90EF900895DC01ED9136
:10150000FC910280F381E02D0995E0CF8FEF9FEFF2
:10151000EECFEF92FF920F931F93CF93DF9341157E
:10152000510549F48FEF9FEFDF91CF911F910F91FC
:10153000FF90EF9008957A01EB018C0188819981E9
:10154000892BB1F4C8010E942907019659F3E8815B
:10155000F98182858D7F8287E881F981828581602A
:101560008287E881F981F186E08681E090E0DCCF36
:10157000C8010E940D0A019619F419821882D2CF6F
:10158000BE01C8010E942907019609F7F6CFBC01E8
:101590002AE031E0FC0121933193CF01665F7F4F58
:1015A0000C940D0ACF93DF93EC010E94C70ACE0181
:1015B000DF91CF910C940C1AEF92FF920F931F932F
:1015C000CF93DF93EC017B01BC01685F7F4F0E94EA
:1015D0000D0AF70100851185C8010E94590181118A
:1015E0000EC019870887F80180819181A281B3819B
:1015F0000196A11DB11D80839183A283B383F7015E
:1016000080819181A281B38188839983AA83BB83DE
:1016100084819581A681B7818C839D83AE83BF83AE
:10162000DF91CF911F910F91FF90EF9008950F934D
:101630001F93CF93DF93EC018B01188219821A82DA
:101640001B821C821D821E821F82198618860E94A0
:10165000DC0A1A861B861C861D861E861F86188A33
:10166000198A1B8A1A8ACE0142960E947108D801F3
:101670005296ED91FC913097E1F082858823C9F074
:1016800080819181A281B381892B8A2B8B2B89F058
:1016900080859185892B69F0FB8BEA8B8081918114
:1016A000A281B3810196A11DB11D80839183A28384
:1016B000B383F80182859385A485B5858A879B8746
:1016C000AC87BD8786859785A089B1898E879F87DE
:1016D000A88BB98BDF91CF911F910F910895CF9374
:1016E000DF93EC0142960E947108BE01685F7F4F54
:1016F000CE01DF91CF910C940D0AEF92FF920F93E0
:101700001F93CF93DF93DB01ED91FC91309709F4A8
:101710006DC080819181A281B3810097A105B1053F
:1017200009F464C08B01AC01BD014150510961094C
:10173000710940835183628373830197A105B105C9
:1017400009F040C0F801C081D1812097B1F18885AE
:101750009985009791F12A85222379F120FF26C0EF
:101760004C815D816E817F81452B462B472BB1F1EA
:10177000FC01329720813181220F331F820F931F8A
:101780007C01F2E0EF1AF10828853985281739071E
:1017900051F0D701ED91FC910190F081E02DC7014E
:1017A0000995C701EDCFC7010E940C1A1A86198648
:1017B0001886188219821A821B82F8018081918111
:1017C0000E940C1AD8011D921C9281E090E0DF91DA
:1017D000CF911F910F91FF90EF900895DC01ED9153
:1017E000FC910280F381E02D0995E0CF8FEF9FEF10
:1017F000EECFEF92FF920F931F93CF93DF93EC0105
:101800008B01BC01685F7F4F0E947D0BF801E08473
:10181000F184C7010E945901811105C0F986E8864B
:10182000F80111861086F80180819181A281B3812F
:1018300088839983AA83BB8384819581A681B7819C
:101840008C839D83AE83BF83DF91CF911F910F91D6
:10185000FF90EF9008950F931F93CF93DF938B0129
:10186000FC01108211821282138214821582168268
:10187000178211861086BC01685F7F4F0115110524
:1018800031F4DF91CF911F910F910C947D0BEC01FE
:101890000E942907019671F0E885F98582858D7F80
:1018A0008287E885F985828581608287E885F98568
:1018B00011870087DF91CF911F910F910895EF92CB
:1018C000FF920F931F93CF93DF93DB01ED91FC9178
:1018D000309709F470C080819181A281B381009713
:1018E000A105B10509F467C08B01AC01BD014150F0
:1018F00051096109710940835183628373830197A0
:10190000A105B10509F043C0F801C081D18120973C
:10191000C9F1E884F984E114F104A1F18A858823EE
:1019200089F180FF28C08C819D81AE81BF81892B88
:101930008A2B8B2BC1F1F70132972081318146E14F
:10194000429FC001439F900D11248E0D9F1D28853D
:1019500039857C01F6E1EF1AF1082817390741F0C3
:10196000BC016E507109C7010E947D0BC701EFCF0A
:1019700002970E940C1A1A861986188618821982F4
:101980001A821B82D8018D919C910E940C1AF80139
:101990001182108281E090E0DF91CF911F910F9131
:1019A000FF90EF900895B701685F7F4FC7010E94D5
:1019B0007D0BC701DECF8FEF9FEFEECFBC01685FDD
:1019C0007F4F0C945F0C24E131E0FC0121933193B3
:1019D000CF010C94DE0CCF93DF93EC010E94E30C5B
:1019E000CE01DF91CF910C940C1AEF92FF920F93DE
:1019F0001F93CF93DF93EC017B010E94DE0CF70174
:101A000000851185C8010E94700181110EC01987DF
:101A10000887F80180819181A281B3810196A11D7F
:101A2000B11D80839183A283B383F701808191816B
:101A3000A281B38188839983AA83BB8384819581A2
:101A4000A681B7818C839D83AE83BF83DF91CF91C5
:101A50001F910F91FF90EF9008950F931F93CF93D5
:101A6000DF938B01FC011082118212821382148297
:101A700015821682178211861086BC01685F7F4F1F
:101A80000115110531F4DF91CF911F910F910C9445
:101A90005F0CEC010E942907019671F0E885F98539
:101AA00082858D7F8287E885F9858285816082873E
:101AB000E885F98511870087DF91CF911F910F91FC
:101AC0000895AF92BF92CF92DF92EF92FF920F9361
:101AD0001F93CF93DF938C01EB010E9424048111AB
:101AE00068C0C8010E942E025C01209709F05BC00B
:101AF000C8010E94E102EC01EA80FB80CC80DD801D
:101B0000E114F10419F4F501D582C482C8010E94E0
:101B10002E02CD2819F4FC01F182E082C8010E9456
:101B20002E02FC01828193818C179D0719F4C80154
:101B30000E943F04EC81FD81309721F08A819B81D6
:101B400093838283AA81BB81109721F01596FC9321
:101B5000EE93149719821882C8010E942E02FC018C
:101B6000468157816085718541505109610971092C
:101B700046835783608771871B821A821D821C826D
:101B80002097B9F0CE0106960E946F0BCE01DF912F
:101B9000CF911F910F91FF90EF90DF90CF90BF906A
:101BA000AF900C940C1A88819981A816B90609F493
:101BB000A3CFDF91CF911F910F91FF90EF90DF9016
:101BC000CF90BF90AF900895EF92FF920F931F9325
:101BD000CF93DF93EC01E884F984C7010E94870169
:101BE0008E01085F1F4F811109C0F701808191812B
:101BF000A281B3810297A105B10558F4CE010E94DC
:101C00002404811106C070E060E0CE010E94610DE5
:101C1000F5CFC801DF91CF911F910F91FF90EF9009
:101C20000C942808CF92DF92EF92FF920F931F93AC
:101C3000CF93DF93DB01ED91FC91309709F46BC0FA
:101C400080819181A281B3810097A105B10509F43A
:101C500062C08B01AC01BD0141505109610971099C
:101C600040835183628373830197A105B10509F015
:101C70003FC0F801C081D1812097A9F1C884D984DF
:101C8000C114D10481F18A85882369F180FF24C0C1
:101C90008C819D81AE81BF81892B8A2B8B2BB1F1E9
:101CA000F6013297808191812AE0289F7001299F57
:101CB000F00C1124EC0CFD1C970188859985FAE045
:101CC000EF1AF1088217930721F0C7010E94E40D73
:101CD000F3CF02970E940C1A1A861986188618826A
:101CE00019821A821B82D8018D919C910E940C1A34
:101CF000F8011182108281E090E0DF91CF911F9175
:101D00000F91FF90EF90DF90CF900895C6010E9451
:101D1000E40DC601DFCF8FEF9FEFEFCFEF92FF9281
:101D20000F931F93CF93DF93DB01ED91FC913097DD
:101D300009F470C080819181A281B3810097A105CF
:101D4000B10509F467C08B01AC01BD0141505109D7
:101D50006109710940835183628373830197A105EF
:101D6000B10509F04BC0F801C081D181209709F479
:101D700040C0E884F984E114F104D9F18A8588230C
:101D8000C1F180FF2FC08C819D81AE81BF81892BE5
:101D90008A2B8B2BE9F0F7013297808191814FE0FC
:101DA000489F9001499F300D11242E0D3F1D4885FD
:101DB00059857901FFE0EF1AF108C901029742172E
:101DC000530771F0BC0108970E94120E9701EFCFE4
:101DD000B701635F7F4FC70105960E94120EC701CE
:101DE0000E940C1A1A8619861886188219821A827D
:101DF0001B82D8018D919C910E940C1AF8011182CE
:101E0000108281E090E0DF91CF911F910F91FF90C0
:101E1000EF9008958FEF9FEFF6CFCF92DF92EF9282
:101E2000FF920F931F93CF93DF938FE090E00E9478
:101E30007019EC018FE0DE011D928A95E9F76E01C1
:101E4000B5E0CB0ED11C8AE090E00E9470198C01A5
:101E50008AE090E00E9470197C018AE0F7011192FB
:101E60008A95E9F7D8011D921D921D921C92139735
:101E7000F801148215821682178211861086C80115
:101E80000896E114F104D1F50E9428081D821E82F3
:101E90001F82188619861A861B861C861E861D863A
:101EA000BE01635F7F4FC6010115110509F041C0F6
:101EB0000E94120E10926C0110926D0110926E0130
:101EC00010926F01109270011092710110927201C4
:101ED00010927301109275011092740164E771E021
:101EE0008CE691E02097C9F5DF91CF911F910F917A
:101EF000FF90EF90DF90CF900C948E0EBC01C80144
:101F00000E945D07019611F2D8011896ED91FC919F
:101F1000199782858D7F82871896ED91FC9119978C
:101F20008285816082871896ED91FC91F186E0862A
:101F3000ADCF0E942907019609F4BCCFED85FE853F
:101F400082858D7F8287ED85FE858285816082878F
:101F5000ED85FE8511870087ADCF0E942907019688
:101F600051F0E0917401F091750182858D7F81605F
:101F70008287D187C087DF91CF911F910F91FF900A
:101F8000EF90DF90CF90089564E771E08CE691E0E8
:101F90000C948E0E2F923F924F925F926F927F928F
:101FA0008F929F92AF92BF92CF92DF92EF92FF9269
:101FB0000F931F93CF93DF93CDB7DEB7CE55D109E3
:101FC0000FB6F894DEBF0FBECDBF6C011B018A01B6
:101FD0005901FA01708081809280E380F480B5819C
:101FE00066805780272D382D492D5E2D6F2D7B2F34
:101FF000862D952DA0E00E94641921F1A6E70E948C
:10200000641979F1F5011082118212821382F801AC
:102010001082118212821382148215821682178214
:1020200010925501109256011092570110925801CA
:1020300010925A011092590188E0809354018FEF59
:102040009FEF0FC210925501109256011092570146
:102050001092580110925A011092590181E0809318
:102060005401C60102960E943B03FC0180811F922D
:102070008F9388E391E09F938F931F9280E48F93D7
:10208000CE0101967C019F938F930E949E1A4C0172
:102090002C01990F6608770869961CAE1DAE1EAE1E
:1020A0001FAE69976D961CAE1DAE1EAE1FAE6D972E
:1020B0006F961FAE1EAE6F970FB6F894DEBF0FBEC1
:1020C000CDBF85E590E0411451046104710409F429
:1020D000CBC0FFEF4F1A5F0A6F0A7F0A25961CAE2E
:1020E0001DAE1EAE1FAE259729961CAE1DAE1EAEB0
:1020F0001FAE29972B961FAE1EAE2B9761E470E0A2
:102100006C0F7D1F685F7F4F41145104610471049F
:1021100009F0CCC020E030E0A901CE018F5B9F4FD9
:102120000E9403090196F1F02B96AEACBFAC2B9741
:10213000F501828581FF0DC0C5010B9691878087CF
:102140002B96EEADFFAD2B970084F185E02D10822C
:1021500009C081E090E00E947019FC011082F50135
:1021600091878087CE018F5B9F4F0E943B03A40124
:10217000B7010E94951A2F961CAE1DAE1EAE1FAE63
:102180002F9763961CAE1DAE1EAE1FAE639765966D
:102190001FAE1EAE65978BE490E08C0F9D1F0896D6
:1021A0000E94BA082B96AEACBFAC2B97C5010E941B
:1021B0009E01811108C06596BFAEAEAE65972B96A5
:1021C0001FAE1EAE2B9725968CAD9DADAEADBFADAF
:1021D00025972F968CAF9DAFAEAFBFAF2F972996A7
:1021E0008CAD9DADAEADBFAD299763968CAF9DAF65
:1021F000AEAFBFAF639781E490E08C0F9D1F089650
:102200000E94BA0885E590E08C0F9D1F08960E94F9
:10221000BA086596AEACBFAC6597C5010E949E0139
:10222000811108C06F96BFAEAEAE6F9765961FAEB8
:102230001EAE65972F968CAD9DADAEADBFAD2F9701
:1022400069968CAF9DAFAEAFBFAF699763968CAD0B
:102250009DADAEADBFAD63976D968CAF9DAFAEAF8C
:10226000BFAF6D978BE490E08C0F9D1F08960E9486
:10227000BA08CE018B5A9F4F0E943B035C01CE01EE
:102280008B5A9F4F0E943B034C01CE018B5A9F4FAC
:102290000E941907680D791DA616B70609F453C0E8
:1022A000F5018081805381935F01F6CFA3019201F4
:1022B000CE018F5B9F4F0E940309019661F02B9620
:1022C000AEACBFAC2B97F501828581FF1DC0C50167
:1022D0000B96918780872B96AEACBFAC2B97C50130
:1022E0000E949E0181113ECFCE018F5B9F4F0E94C5
:1022F0009204672B682B692B81F4CE018F5B9F4F73
:102300000E943B03FC0123CFC201009711F481E03E
:1023100090E00E947019F501DCCFF501A084B18432
:1023200027968EAD9FAD2797A80EB91ECE018F5B65
:102330009F4F0E943B038A159B0509F413CFFC01B4
:102340001192CF01F8CFCE018B5A9F4F0E941907EF
:10235000623071058105910509F0A0C040E050E0B0
:10236000BA01CE018B5A9F4F0E94B204FC018081BA
:1023700022968FAF229741E050E060E070E0CE01FE
:102380008B5A9F4F0E94B204FC01808123968FAF2D
:102390002397BE016F5B7F4FC7010E945F0985E5F0
:1023A00090E08C0F9D1F08960E94BA0860E08AE0BA
:1023B0000E94A900FCE0CF0ED11CC6010E943B0385
:1023C000FC0180810E94250140E050E0BA01C70174
:1023D0000E94B204FC01808160E090E00E94FB005A
:1023E00061E08AE00E94A90060E08AE00E94A90002
:1023F000C6010E943B03FC0180810E94250141E04F
:1024000050E060E070E0C7010E94B204FC018081EE
:1024100061E090E00E94FB0061E08AE00E94A90078
:10242000CE0109960E94BA0886E7F80180831182DE
:10243000128213821482158216821782109255011D
:1024400010925601109257011092580186E790E0C1
:1024500090935A018093590182E08093540181E066
:1024600090E0F10191838083C25ADF4F0FB6F89458
:10247000DEBF0FBECDBFDF91CF911F910F91FF90B7
:10248000EF90DF90CF90BF90AF909F908F907F9014
:102490006F905F904F903F902F90089522961FAEBF
:1024A000229740E050E0BA016ACF8F929F92AF929C
:1024B000BF92CF92DF92EF92FF920F931F93CF9331
:1024C000DF93CDB7DEB7C055D1090FB6F894DEBFA4
:1024D0000FBECDBF8C017B0180916401811105C0CD
:1024E0000E940D0F81E0809364012B961CAE1DAEFF
:1024F0001EAE1FAE2B972F961CAE1DAE1EAE1FAE8E
:102500002F9761961FAE1EAE6197B701CE01895B12
:102510009F4F0E94F50C8CE691E00E9472025C01D4
:1025200021961CAE1DAE1EAE1FAE219725961CAE89
:102530001DAE1EAE1FAE259727961FAE1EAE279767
:10254000BE01695B7F4FCE01CD960E94F50CD8018C
:102550001D921D921D921C921397F80114821582F0
:102560001682178211861086B801685F7F4FC801F6
:102570000E9491070196C9F0D8011896ED90FC9041
:102580001997F701828581FF76C1C7010B96918764
:1025900080871896ED91FC910084F185E02D1182E1
:1025A000108213821282158214828CE090E00E94C5
:1025B00070197C0184E191E0F7019183808312829C
:1025C0001382148215821682178210861186138652
:1025D0001286BE01635C7F4FC70102960E94F50C14
:1025E0001BAA1CAA1DAA1EAA1FAA18AE19AE1AAEB3
:1025F0001CAE1BAEE114F10409F04EC1BE01655CD6
:102600007F4FCE01C3960E940D0AF5E0AF0EB11CBC
:10261000C5010E94F3027C0119A61AA61BA61CA6DE
:102620001DA61EA61FA618AA1AAA19AABE016D5C8D
:102630007F4FCE0189960E94DC0A8CE090E00E94D8
:1026400070196C018AE091E0D60111969C938E93EB
:10265000F601128213821482158216961D921D9223
:102660001D921C9219971B961C921E921A97BE01DE
:10267000675D7F4FC60102960E94DC0A1D8A1E8A92
:102680001F8A188E198E1A8E1B8E1C8E1E8E1D8E02
:10269000C114D10409F009C1BE01635E7F4FCE01B0
:1026A00045960E940D0A1F8E18A219A21AA21BA2FB
:1026B0001CA21DA21EA218A61FA2CE0187960E94D0
:1026C0007108D8011896ED91FC913097E1F0828560
:1026D0008823C9F080819181A281B381892B8A2BC3
:1026E0008B2B89F080859185892B69F0F8A7EFA362
:1026F00080819181A281B3810196A11DB11D80834A
:102700009183A283B383F80180819181A281B381F7
:102710008F8F98A3A9A3BAA384819581A681B7813D
:102720008BA39CA3ADA3BEA3C7010E942404BE013A
:102730006B5E7F4F882309F4C1C0CE0101960E94D1
:10274000170B8AE190E00E9470196C01DC01119670
:102750001C921E9213961C921E92129715961C9212
:102760001E921497BE016F5F7F4F06960E94170B53
:10277000C7010E942E02FC01D182C082CE010196C7
:102780000E946F0BC7010E942E02DC01ED91FC91AB
:1027900091838083C7010E942E026C01C7010E94B1
:1027A000DB02F60195838483C7010E942E02DC01BF
:1027B00016964D915D916D917C9119974F5F5F4F8A
:1027C0006F4F7F4FFC014683578360877187CE012F
:1027D00045960E946F0BBE016F5C7F4FCE018996BC
:1027E0000E940D0AC5010E94F3026C01C8010E94FB
:1027F00017037C01C6010E94E102D70113969C9346
:102800008E931297C8010E94170321E030E0FC016B
:1028100031832083C8010E9417037C01C5010E94F7
:10282000F302D70115969C938E931497BE01655CB5
:102830007F4FCE01C3960E940D0ACE01CD960E9415
:10284000DE0CCE01895B9F4F0E94DE0CC801C05B8D
:10285000DF4F0FB6F894DEBF0FBECDBFDF91CF9133
:102860001F910F91FF90EF90DF90CF90BF90AF90AE
:102870009F908F90089586E090E00E947019FC016F
:10288000118210821382128215821482D701199646
:102890009C938E93189789CEA701BE01655C7F4FEC
:1028A000CE01C3960E94890AB0CEA601BE01635E26
:1028B0007F4FCE0145960E94890AF5CECE01019642
:1028C0000E94170B8AE190E00E9470196C01DC01F4
:1028D00011961C921E9213961C921E921297159698
:1028E0001C921E921497BE016F5F7F4F06960E9446
:1028F000170BCE0101960E946F0BC7010E942E029A
:10290000F60191838083C7010E94E1024C01DC0142
:1029100014968D919C91892B31F4C7010E942E024F
:10292000FC0191828082D60112968D919C91892B17
:1029300031F4C7010E942E02FC01D582C482D60167
:1029400015969C928E921497F401D382C2822CCF5A
:10295000CF92DF92EF92FF920F931F93CF93DF936B
:10296000EC016B017C0128E0E20EF11C672BB9F44D
:10297000188219821A821B821C821D821E821F826B
:1029800019861886C7010E94BA08CE01DF91CF913F
:102990001F910F91FF90EF90DF90CF90089581E00D
:1029A00090E00E9470198C01F6018081F80180830B
:1029B000188219821A821B821C821D821E821F822B
:1029C0001986188601151105E9F220E030E0A90109
:1029D000B701CE010E9403090196B9F2E885F98595
:1029E00082858D7F8287E885F985828581608287EF
:1029F000E885F98511870087C8CF1F920F920FB61F
:102A00000F9211242F933F938F939F93AF93BF9374
:102A100080915C0190915D01A0915E01B0915F0198
:102A200030915B0123E0230F2D3758F50196A11D4E
:102A3000B11D20935B0180935C0190935D01A09395
:102A40005E01B0935F018091600190916101A0915E
:102A50006201B09163010196A11DB11D80936001D7
:102A600090936101A0936201B0936301BF91AF9114
:102A70009F918F913F912F910F900FBE0F901F90BC
:102A8000189526E8230F0296A11DB11DD2CFCF9332
:102A9000DF93CDB7DEB7C055D1090FB6F894DEBFCE
:102AA0000FBECDBF789484B5826084BD84B581604B
:102AB00084BD85B5826085BD85B5816085BD809109
:102AC0006E00816080936E00109281008091810081
:102AD0008260809381008091810081608093810079
:102AE000809180008160809380008091B10084603B
:102AF0008093B1008091B00081608093B00080919C
:102B00007A00846080937A0080917A00826080935A
:102B10007A0080917A00816080937A0080917A00B7
:102B2000806880937A001092C10081E090E00E945A
:102B3000701924E0FC012083BC01CE01895B9F4F0A
:102B40000E94A81481E090E00E947019FC0110829C
:102B5000BC01CE01CD960E94A8141BAA1CAA1DAAD6
:102B60001EAA1FAA18AE19AE1AAE1CAE1BAE23E0E9
:102B700030E040E050E0BE01655C7F4FCE01C3967F
:102B80000E943B09CE01C3960E943B03FC018BE0EF
:102B900080838AE0818389E0828319A61AA61BA616
:102BA0001CA61DA61EA61FA618AA1AAA19AA21E0CD
:102BB00030E040E050E0BE016F5C7F4FCE0189966F
:102BC0000E943B09CE0189960E943B032CE0FC0148
:102BD0002083CE0189960E943B037C0109A91AA992
:102BE000C8010E949E0130E020E0811107C0F80179
:102BF000208531858DA59EA5280F391FD7012A175D
:102C00003B0731F18D9190E0FC01E255FF4F44917B
:102C100086569F4FFC018491882389F390E0880FAA
:102C2000991FFC01E057FF4F65917491FC01EA5731
:102C3000FF4F059114919FB7F894FB018081409557
:102C400084238083F8018081842380839FBFD7CF32
:102C5000CE01C3960E943B037C010BAD1CADC801A5
:102C60000E949E0130E020E0811107C0F80120851C
:102C700031858FA998AD280F391FD7012A173B0737
:102C800009F18D9190E0FC01E255FF4F6491865669
:102C90009F4FFC018491882389F390E0880F991F4E
:102CA000FC01E057FF4F45915491FC01EA57FF4F5B
:102CB000859194918FB7F894FA019081962B908327
:102CC0008FBFDCCFBE01635C7F4FCE0101960E94B7
:102CD0008809BE01695B7F4FCE010B960E9488096F
:102CE00086E190E00E9470198C0136E1F32EFC0120
:102CF0002F2D11922A95E9F770E060E00E942B0CCD
:102D0000F801128613861486158616861786108A91
:102D1000118A128A138A148A158AB801CE014F9635
:102D20000E942D0D86E190E00E9470198C012EE129
:102D300031E0FC0121933193CF01BE016F5F7F4FE2
:102D40000E948809BE01655F7F4FC8010C960E94F2
:102D50008809B801CE0145960E942B0CCE014F96F2
:102D60000E945002BE016B5E7F4F0E94F90BBE01B4
:102D7000635E7F4FCE0145960E947D0BBE01615E72
:102D80007F4FCE0145960E945512CE014D960E946E
:102D90007108CE014F960E94DE0CCE0101960E9472
:102DA000CB09BE01695B7F4FCE0101960E94880965
:102DB000BE01635C7F4FCE010B960E94880986E1BD
:102DC00090E00E9470198C01FC012F2D11922A9520
:102DD000E9F770E060E00E942B0CF8011286138680
:102DE0001486158616861786108A118A128A138A07
:102DF000148A158AB801CE014F960E942D0D86E1E6
:102E000090E00E9470198C0128E231E0FC012193CE
:102E10003193CF01BE016F5F7F4F0E948809BE01D1
:102E2000655F7F4FC8010C960E948809B801CE01EA
:102E300045960E942B0CCE014F960E945002BE0177
:102E40006B5E7F4F0E94F90BBE01635E7F4FCE0128
:102E500045960E947D0BBE01615E7F4FCE01459677
:102E60000E945512CE014D960E947108CE014F96D8
:102E70000E94DE0CCE0101960E94CB09BE01635C6C
:102E80007F4FCE0101960E948809BE01695B7F4F8A
:102E9000CE010B960E94880986E190E00E9470198D
:102EA0008C01FC011192FA94E9F770E060E00E9455
:102EB0002B0CF80112861386148615861686178643
:102EC000108A118A128A138A148A158AB801CE01CF
:102ED0004F960E942D0D86E190E00E9470198C01A2
:102EE00022E331E0FC0121933193CF01BE016F5FFA
:102EF0007F4F0E948809BE01655F7F4FC8010C9615
:102F00000E948809B801CE0145960E942B0CCE0183
:102F10004F960E945002BE016B5E7F4F0E94F90BDC
:102F2000BE01635E7F4FCE0145960E947D0BBE01C0
:102F3000615E7F4FCE0145960E945512CE014D969F
:102F40000E947108CE014F960E94DE0CCE010196C0
:102F50000E94CB09CE01C1960E94BA08CE01CB9641
:102F60000E94BA088DE390E08C0F9D1F08960E9486
:102F7000BA0887E490E08C0F9D1F08960E94BA085B
:102F800044244A94542C320154E0252E312C809153
:102F90006401811105C00E940D0FF1E0F0936401FE
:102FA0008CE691E00E9472028C010B5F1F4FC801FA
:102FB0000E94F3027C010E94240481112CC0C701ED
:102FC0000E946C04892B39F1C8010E94F3020E940F
:102FD0006C045C01C8010E94F3020E946C04FC01B5
:102FE0008281938188248394912C892B19F48824DD
:102FF0008A94982C6501F0E1CF0ED11CC6010E9485
:103000001703FC012081318121FF77C0C8010E9494
:10301000F3020E943F048CE691E00E947202FC01E0
:103020009081906490838CE691E00E947202FC0192
:103030004181528163817481452B462B472B21F0BE
:1030400011821282138214828CE691E00E94720235
:103050008C0105960E94F3027C010E9424048111D8
:103060000CC0C7010E942E02FC0186819781A085B9
:10307000B185892B8A2B8B2BD1F4E0917401F091CF
:1030800075013097A1F08285882389F08081918134
:10309000A281B3810097A105B10549F02085318552
:1030A000232B29F00297A105B10508F068C0F801AB
:1030B000C180D280E380F4800E9434014B015C0126
:1030C000C114D104E104F10409F460C00E94340188
:1030D000681979098A099B09683E73408105910541
:1030E00078F3F1E0CF1AD108E108F10828EE820E5A
:1030F00023E0921EA11CB11CE3CF22FF0EC0C80129
:103100000E94F302B5010E94610D80E090E0892BDE
:1031100009F43DCF0E9400003ACF22603183208322
:10312000C6010E9417037C01C50106960E94960203
:103130005C01C8010E94F3020E942404811117C09F
:10314000C6010E941703E816F90689F4FFEFAF16CF
:10315000BF0689F0AB2859F0F701808191818D7FFE
:1031600091838083C8010E94F3020E943F048A94E5
:10317000892859F250CFF70131822082F8CF88EEAA
:10318000C82E83E0D82EE12CF12C96CF8CE691E06E
:103190000E947202FC0141825282638274828CE638
:1031A00091E00E947202FC0190819F7B9083ADCFE1
:1031B000EE0FFF1F0590F491E02D0994689401C073
:1031C000E8948F929F92CF93DF930E94EC18DF9147
:1031D000CF919F908F90089588249924F401E40161
:1031E000B0E49F93AA279A158B049C04ED05FE0575
:1031F000CF05D007A10798F4AD2FDC2FCF2FFE2FDE
:10320000E92D982C892E982F872F762F652F542FF4
:10321000432F322F2227B85031F7BF9127C01B2EE2
:10322000BF91BB27220F331F441F551F661F771FF7
:10323000881F991F881C991CEE1FFF1FCC1FDD1FC4
:10324000AA1FBB1F8A149B04EC05FD05CE05DF05F4
:10325000A007B10748F08A189B08EC09FD09CE09C0
:10326000DF09A00BB10B21601A94E1F62EF4940152
:10327000AF01BE01CD01000C08952A0D3B1D4C1D70
:103280005D1D6E1D7F1D801F911F08950024A7FDE9
:1032900000942A0F301D401D501D601D701D801DA3
:1032A000901D08952A193B094C095D096E097F0993
:1032B000800B910B08952A153B054C055D056E05A5
:1032C0007F058007910708950024A7FD00942A1721
:1032D000300540055005600570058005900508958E
:1032E0000F931F93CF93DF938230910510F482E008
:1032F00090E0E0917801F091790130E020E0B0E0D9
:10330000A0E0309799F42115310509F44AC0281B33
:10331000390B24303105D8F58A819B8161157105FF
:1033200089F1FB0193838283FE0111C040815181A9
:103330000281138148175907E0F04817590799F49B
:10334000109761F012960C93129713961C93329675
:10335000CF01DF91CF911F910F91089500937801D4
:1033600010937901F4CF2115310551F0421753071D
:1033700038F0A901DB019A01BD01DF01F801C1CFDD
:10338000EF01F9CF9093790180937801CDCFFE01C1
:10339000E20FF31F819391932250310939832883DF
:1033A000D7CF2091760130917701232B41F42091E2
:1033B000020130910301309377012093760120912F
:1033C0000001309101012115310541F42DB73EB7BF
:1033D0004091040150910501241B350BE0917601C9
:1033E000F0917701E217F307A0F42E1B3F0B28178B
:1033F000390778F0AC014E5F5F4F2417350748F06E
:103400004E0F5F1F50937701409376018193919304
:103410009FCFF0E0E0E09CCFCF93DF930097E9F0FF
:10342000FC01329713821282A0917801B091790148
:10343000ED0130E020E01097A1F420813181820F6E
:10344000931F20917601309177012817390709F0F1
:1034500061C0F0937701E0937601DF91CF910895F9
:10346000EA01CE17DF07E8F54A815B819E0141152D
:103470005105B1F7E901FB83EA8349915991C40FE2
:10348000D51FEC17FD0761F4808191810296840FAE
:10349000951FE90199838883828193819B838A8325
:1034A000F0E0E0E012968D919C9113970097B9F5AA
:1034B0002D913C911197CD010296820F931F20917F
:1034C0007601309177012817390739F6309751F591
:1034D0001092790110927801B0937701A093760150
:1034E000BCCFD383C28340815181840F951FC817FD
:1034F000D90761F44E5F5F4F88819981480F591F4A
:10350000518340838A819B81938382832115310576
:1035100009F0B0CFF0937901E09378019ECFFD01DF
:10352000DC01C0CF13821282D7CFFB01DC0102C0C5
:1035300001900D9241505040D8F70895AEE0B0E0B0
:10354000E4EAFAE10C945A1D0D891E898F89988D41
:1035500026E02C831A83098397FF02C080E090E85D
:1035600001979E838D83AE01455E5F4F698D7A8D95
:10357000CE0101960E94CE1A4D815E8157FD0AC090
:103580002F813885421753070CF49A01020F131F3D
:10359000F80110822E96E4E00C94761DABE0B0E0CA
:1035A000E4EDFAE10C944C1D7C013B018A01FC0125
:1035B00017821682838181FFC8C1CE0101965C010A
:1035C000F7019381F30193FD859193FF81913F0171
:1035D000882309F453C1853239F493FD859193FF13
:1035E00081913F01853229F4B70190E00E94BE1C11
:1035F000E7CF912C212C312CFFE1F31538F08B32E1
:1036000011F190F4803209F1833229F137FC3CC08A
:1036100020ED280F2A3050F536FE20C08AE0989E13
:10362000200D1124922E06C08D3291F0803371F757
:10363000689430F8F30193FD859193FF81913F01E8
:103640008111DACF21C0689431F8689432F8F2CF52
:10365000689433F8EFCF689434F8ECCFEAE02E9E0C
:10366000200D1124222E689435F8E4CF8E3229F4EF
:1036700036FC04C1689436F8DDCF8C3619F46894B2
:1036800037F8D8CF8836B1F2982F9F7D9554933074
:10369000E0F08336A1F18337C1F1833509F063C0CF
:1036A0002801F2E04F0E511CF801C080D180692D35
:1036B00070E036FC02C06FEF7FEFC6010E94A81CCD
:1036C0004C01689437F882010AC00C5F1F4FFFE37A
:1036D000F98388248394912C6501E89437F833FEAC
:1036E0002DC0522C8114910471F5552009F468CF36
:1036F000B70180E290E00E94BE1C5A94F6CFF80118
:10370000808189830E5F1F4FE4CF2801F2E04F0EC6
:10371000511CF801C080D180692D70E036FC02C0D8
:103720006FEF7FEFC6010E94B31C4C018201D5CF21
:10373000B70180E290E00E94BE1C2A94281419046C
:1037400009F0B0F7CECFF60137FC859137FE8191B5
:103750006F01B70190E00E94BE1C51105A94F1E035
:103760008F1A9108BFCF843619F0893609F077C0D7
:10377000F80137FE6BC060817181828193810C5F9B
:103780001F4FF32DFF763F2E97FF09C09095809530
:10379000709561957F4F8F4F9F4F689437F82AE05F
:1037A00030E0A5010E94EE1CC82ECA188C2C432CB8
:1037B00036FE0CC0E89440F8C91440F434FE05C04D
:1037C00032FC03C0F32DFE7E4F2E892C44FE95C0A3
:1037D000FE01EC0DF11D8081803309F087C0242D9E
:1037E000297E422E842D8870582E43FC95C040FEC1
:1037F0008FC09C2C821418F42C0C922C981844FE28
:1038000091C0B70180E390E00E94BE1C42FE09C057
:1038100088E790E041FE02C088E590E0B7010E9491
:10382000BE1CC91408F48AC0CA94D12C9FEFC91ACF
:10383000D90ACA0CDB1CF60182916F01B70190E036
:103840000E94BE1CAC14BD04B1F74FCF60817181E2
:10385000072E000C880B990B0E5F1F4F92CFD32CB5
:10386000E894D4F82AE030E0853739F1232D297F18
:10387000D22E8F3601F148F48835A9F0F701868100
:1038800097812B96E2E10C94681D803749F08837C8
:10389000A9F7D4FE02C06894D2F820E130E00DC050
:1038A0006894D4F8F6CF34FE03C0822F8660D82EF9
:1038B00020E132E002C028E030E0F801D7FE0FC07E
:1038C00060817181828193810C5F1F4FA5010E94ED
:1038D000EE1CC82ECA183D2CE89437F867CF6081DB
:1038E000718190E080E00E5F1F4FF0CF42FC02C07C
:1038F000839478CF8394839475CF842D867809F44C
:1039000071CFF6CFB70180E290E00E94BE1C839495
:103910008214C0F3512C73CF522C5818821408F41F
:103920006ECFF8CF842D867809F47BCF8BE241FEF1
:1039300080E247FC8DE2B70190E071CFB70180E3F0
:1039400090E00E94BE1C9A946CCF8FEF9FEF99CFAE
:10395000FC010590615070400110D8F7809590955A
:103960008E0F9F1F0895FC0161507040019001105F
:10397000D8F7809590958E0F9F1F08950F931F93F2
:10398000CF93DF93182F092FEB018B8181FD09C0A5
:103990001FEF0FEF812F902FDF91CF911F910F918C
:1039A000089582FF14C02E813F818C819D8128174C
:1039B00039073CF4E881F981CF0101969983888326
:1039C00010838E819F8101969F838E83E3CFE8854C
:1039D000F985812F0995892BA1F3DACFFA01AA275E
:1039E000283051F1203181F1E8946F936E7F6E5F42
:1039F0007F4F8F4F9F4FAF4FB1E03ED0B4E03CD0F0
:103A0000670F781F891F9A1FA11D680F791F8A1FD2
:103A1000911DA11D6A0F711D811D911DA11D20D039
:103A200009F468943F912AE0269F11243019305DF3
:103A30003193DEF6CF010895462F4770405D4193E4
:103A4000B3E00FD0C9F7F6CF462F4F70405D4A3331
:103A500018F0495D31FD4052419302D0A9F7EACFF9
:103A6000B4E0A6959795879577956795BA95C9F728
:103A700000976105710508959B01AC010A2E06941B
:103A80005795479537952795BA95C9F7620F731FD4
:103A9000841F951FA01D08952F923F924F925F9211
:103AA0006F927F928F929F92AF92BF92CF92DF924E
:103AB000EF92FF920F931F93CF93DF93CDB7DEB7B3
:103AC000CA1BDB0B0FB6F894DEBF0FBECDBF099447
:103AD0002A88398848885F846E847D848C849B849E
:103AE000AA84B984C884DF80EE80FD800C811B81AC
:103AF000AA81B981CE0FD11D0FB6F894DEBF0FBEDB
:0A3B0000CDBFED010895F894FFCF4A
:103B0A0000007A01200000000000C70AD20AD00291
:103B1A0000000000E30CEB0CCC0100000000DF0900
:103B2A00EF09E70500000000E709F909560300005C
:0C3B3A000000D709030ACA0F2564000030
:107800000C94343C0C94513C0C94513C0C94513CE1
:107810000C94513C0C94513C0C94513C0C94513CB4
:107820000C94513C0C94513C0C94513C0C94513CA4
:107830000C94513C0C94513C0C94513C0C94513C94
:107840000C94513C0C94513C0C94513C0C94513C84
:107850000C94513C0C94513C0C94513C0C94513C74
:107860000C94513C0C94513C11241FBECFEFD8E036
:10787000DEBFCDBF11E0A0E0B1E0E6ECFDE702C065
:1078800005900D92A230B107D9F722E0A2E0B1E055
:1078900001C01D92AD30B207E1F70E940A3D0C9481
:1078A000E13E0C94003C9091C00095FFFCCF80938A
:1078B000C6000895CF93982F8595859585958595D4
:1078C000805D9F709A3014F0C7E501C0C0E3C90F16
:1078D0000E94533C8C2FCF910C94533CCF92DF925B
:1078E000EF92FF92C12CD12C76018091C00087FDD0
:1078F00013C08FEFC81AD80AE80AF80A81E4C8163C
:1079000082E4D8068FE0E806F10478F3E091020102
:10791000F09103010995E9CF8091C600FF90EF90A7
:10792000DF90CF900895CF930E946E3CC82F0E94A5
:10793000533CC13614F089EA03C0C0331CF080ED1B
:107940008C0F01C08C2FCF910895CF930E94933C50
:10795000C82F0E94933C90E1C99F800D1124CF91C4
:107960000895CF93C82FCC2321F00E946E3CC150C4
:10797000FACFCF910895CF93C82F0E946E3C8032EA
:1079800051F484E10E94533C8C2F0E94533C80E1CF
:10799000CF910C94533C809104018F5F809304013C
:1079A000853031F4E0910201F0910301CF91099407
:1079B000CF9108950E946E3C803231F484E10E94A0
:1079C000533C80E10C94533C809104018F5F809381
:1079D0000401853029F4E0910201F091030109943A
:1079E00008958823B1F02D9A2FEF31EE94E02150C5
:1079F00030409040E1F700C000002D982FEF31EEAD
:107A000094E0215030409040E1F700C000008150E8
:107A1000E8CF08950000E0E0F0E0E49180E1809399
:107A2000C4001092C50088E18093C10086E0809375
:107A3000C2005098589A259A81E00E94F13CFF2498
:107A4000F3940E946E3C803309F442C08133E1F428
:107A50000E946E3C803209F0A6C184E10E94533C32
:107A600081E40E94533C86E50E94533C82E50E94DB
:107A7000533C80E20E94533C89E40E94533C83E5DE
:107A80000E94533C80E586C1803439F40E946E3CEC
:107A90008638F0F00E946E3C1BC08134A1F40E9435
:107AA0006E3C803811F482E003C0813821F481E01B
:107AB0000E94BB3CC6CF823811F480E1F9CF8839EF
:107AC000C9F583E0F5CF823431F484E10E94B13C02
:107AD0000E94DA3CB6CF853411F485E0F7CF982FB9
:107AE0009D7F9035A9F3813599F3853549F40E943E
:107AF0006E3C809306010E946E3C80930701E8CFA4
:107B00008635D1F40E946E3C803389F40E946E3C2D
:107B10000E946E3C182F0E946E3C111102C08EE133
:107B2000C7CF113011F485E9C3CF8FE0C1CF83E017
:107B30000E94B13C80E0BCCF843609F0C6C00E94F0
:107B40006E3C809309020E946E3C809308028091F3
:107B50000C028E7F80930C020E946E3C853429F4C7
:107B600080910C02816080930C0208E011E020916A
:107B7000080230910902C80188509140821793078A
:107B800030F40E946E3CF80181938F01F0CF0E9487
:107B90006E3C803209F007C180910C0220910601F1
:107BA0003091070180FF29C0220F331F3093070156
:107BB00020930601E8E0F1E02091080230910902EB
:107BC000CF01885091408217930708F07CC0F99943
:107BD000FECF809106019091070192BD81BD8191F8
:107BE00080BDFA9AF99A8091060190910701019659
:107BF0009093070180930601DFCF80910701880FE2
:107C0000880B8F2180930B02220F331F30930701C3
:107C1000209306018091080280FF09C0809108022C
:107C20009091090201969093090280930802F894BA
:107C3000F999FECF1127E0910601F0910701C8E004
:107C4000D1E08091080290910902103091F40091E6
:107C5000570001700130D9F303E000935700E89515
:107C60000091570001700130D9F301E100935700F2
:107C7000E895099019900091570001700130D9F3EF
:107C800001E000935700E8951395103498F0112700
:107C90000091570001700130D9F305E000935700BF
:107CA000E8950091570001700130D9F301E100938C
:107CB0005700E8953296029709F0C7CF103011F0BF
:107CC0000296E5CF112484E165C0843709F052C0E3
:107CD0000E946E3C809309020E946E3C80930802D1
:107CE0008091060190910701880F991F90930701D9
:107CF000809306010E946E3C90910C02853411F431
:107D0000916001C09E7F90930C020E946E3C803275
:107D100009F097CE84E10E94533C00E010E080918E
:107D200008029091090208171907B0F580910C021A
:107D300080FF0BC0F999FECF809106019091070159
:107D400092BD81BDF89A80B507C081FD07C0E09162
:107D50000601F091070184910E94533C8091060135
:107D600090910701019690930701809306010F5FA0
:107D70001F4FD5CF8537A1F40E946E3C803299F415
:107D800084E10E94533C8EE10E94533C85E90E94AD
:107D9000533C8FE00E94533C80E10E94533C51CE03
:107DA000863709F4C7CE809104018F5F8093040168
:107DB000853009F046CEE0910201F091030109956A
:067DC00040CEF894FFCF55
:027DC60080003B
:040000030000780081
:00000001FF
